{
	"contracts/GovernanceExchanger.sol": {
		"GovernanceExchanger": {
			"abi": [
				{
					"inputs": [
						{
							"internalType": "address",
							"name": "governanceToken_",
							"type": "address"
						},
						{
							"internalType": "address",
							"name": "utilityToken_",
							"type": "address"
						},
						{
							"internalType": "address",
							"name": "holdingAccount_",
							"type": "address"
						}
					],
					"stateMutability": "nonpayable",
					"type": "constructor"
				},
				{
					"anonymous": false,
					"inputs": [
						{
							"indexed": false,
							"internalType": "address",
							"name": "account",
							"type": "address"
						},
						{
							"indexed": false,
							"internalType": "uint256",
							"name": "amount",
							"type": "uint256"
						}
					],
					"name": "Exchanged",
					"type": "event"
				},
				{
					"anonymous": false,
					"inputs": [
						{
							"indexed": true,
							"internalType": "address",
							"name": "previousOwner",
							"type": "address"
						},
						{
							"indexed": true,
							"internalType": "address",
							"name": "newOwner",
							"type": "address"
						}
					],
					"name": "OwnershipTransferred",
					"type": "event"
				},
				{
					"inputs": [
						{
							"internalType": "uint256",
							"name": "amount",
							"type": "uint256"
						}
					],
					"name": "exchange",
					"outputs": [],
					"stateMutability": "nonpayable",
					"type": "function"
				},
				{
					"inputs": [],
					"name": "governanceToken",
					"outputs": [
						{
							"internalType": "address",
							"name": "",
							"type": "address"
						}
					],
					"stateMutability": "view",
					"type": "function"
				},
				{
					"inputs": [],
					"name": "owner",
					"outputs": [
						{
							"internalType": "address",
							"name": "",
							"type": "address"
						}
					],
					"stateMutability": "view",
					"type": "function"
				},
				{
					"inputs": [],
					"name": "renounceOwnership",
					"outputs": [],
					"stateMutability": "nonpayable",
					"type": "function"
				},
				{
					"inputs": [
						{
							"internalType": "address",
							"name": "newOwner",
							"type": "address"
						}
					],
					"name": "transferOwnership",
					"outputs": [],
					"stateMutability": "nonpayable",
					"type": "function"
				},
				{
					"inputs": [],
					"name": "utilityToken",
					"outputs": [
						{
							"internalType": "address",
							"name": "",
							"type": "address"
						}
					],
					"stateMutability": "view",
					"type": "function"
				},
				{
					"inputs": [],
					"name": "withdrawGovernance",
					"outputs": [],
					"stateMutability": "nonpayable",
					"type": "function"
				},
				{
					"inputs": [],
					"name": "withdrawUtility",
					"outputs": [],
					"stateMutability": "nonpayable",
					"type": "function"
				}
			],
			"devdoc": {
				"kind": "dev",
				"methods": {
					"owner()": {
						"details": "Returns the address of the current owner."
					},
					"renounceOwnership()": {
						"details": "Leaves the contract without owner. It will not be possible to call `onlyOwner` functions anymore. Can only be called by the current owner. NOTE: Renouncing ownership will leave the contract without an owner, thereby removing any functionality that is only available to the owner."
					},
					"transferOwnership(address)": {
						"details": "Transfers ownership of the contract to a new account (`newOwner`). Can only be called by the current owner."
					}
				},
				"version": 1
			},
			"evm": {
				"assembly": "    /* \"contracts/GovernanceExchanger.sol\":184:2242  contract GovernanceExchanger is Ownable {... */\n  mstore(0x40, 0x0100)\n    /* \"contracts/GovernanceExchanger.sol\":539:808  constructor(address governanceToken_, address utilityToken_, address holdingAccount_) {... */\n  callvalue\n  dup1\n  iszero\n  tag_1\n  jumpi\n  0x00\n  dup1\n  revert\ntag_1:\n  pop\n  mload(0x40)\n  sub(codesize, bytecodeSize)\n  dup1\n  bytecodeSize\n  dup4\n  codecopy\n  dup2\n  add\n  0x40\n  dup2\n  swap1\n  mstore\n  tag_2\n  swap2\n  tag_3\n  jump\t// in\ntag_2:\n    /* \"contracts/openzeppelin/contracts/access/Ownable.sol\":921:953  _transferOwnership(_msgSender()) */\n  tag_7\n    /* \"contracts/openzeppelin/contracts/utils/Context.sol\":719:729  msg.sender */\n  caller\n    /* \"contracts/openzeppelin/contracts/access/Ownable.sol\":921:939  _transferOwnership */\n  tag_10\n    /* \"contracts/openzeppelin/contracts/access/Ownable.sol\":921:953  _transferOwnership(_msgSender()) */\n  jump\t// in\ntag_7:\n  sub(shl(0xa0, 0x01), 0x01)\n    /* \"contracts/GovernanceExchanger.sol\":636:670  governanceToken = governanceToken_ */\n  dup1\n  dup5\n  and\n  0x80\n  mstore\n    /* \"contracts/GovernanceExchanger.sol\":681:709  utilityToken = utilityToken_ */\n  dup3\n  dup2\n  and\n  0xa0\n  mstore\n    /* \"contracts/GovernanceExchanger.sol\":720:752  holdingAccount = holdingAccount_ */\n  dup2\n  and\n  0xc0\n  mstore\n    /* \"contracts/GovernanceExchanger.sol\":775:800  block.timestamp + 14 days */\n  tag_12\n    /* \"contracts/GovernanceExchanger.sol\":775:790  block.timestamp */\n  timestamp\n    /* \"contracts/GovernanceExchanger.sol\":793:800  14 days */\n  0x127500\n    /* \"contracts/GovernanceExchanger.sol\":775:800  block.timestamp + 14 days */\n  tag_13\n  jump\t// in\ntag_12:\n    /* \"contracts/GovernanceExchanger.sol\":765:800  endDate = block.timestamp + 14 days */\n  0xe0\n  mstore\n  pop\n    /* \"contracts/GovernanceExchanger.sol\":184:2242  contract GovernanceExchanger is Ownable {... */\n  tag_18\n  swap2\n  pop\n  pop\n  jump\n    /* \"contracts/openzeppelin/contracts/access/Ownable.sol\":2270:2457  function _transferOwnership(address newOwner) internal virtual {... */\ntag_10:\n    /* \"contracts/openzeppelin/contracts/access/Ownable.sol\":2343:2359  address oldOwner */\n  0x00\n    /* \"contracts/openzeppelin/contracts/access/Ownable.sol\":2362:2368  _owner */\n  dup1\n  sload\n  sub(shl(0xa0, 0x01), 0x01)\n    /* \"contracts/openzeppelin/contracts/access/Ownable.sol\":2378:2395  _owner = newOwner */\n  dup4\n  dup2\n  and\n  not(sub(shl(0xa0, 0x01), 0x01))\n  dup4\n  and\n  dup2\n  or\n  dup5\n  sstore\n    /* \"contracts/openzeppelin/contracts/access/Ownable.sol\":2410:2450  OwnershipTransferred(oldOwner, newOwner) */\n  mload(0x40)\n    /* \"contracts/openzeppelin/contracts/access/Ownable.sol\":2362:2368  _owner */\n  swap2\n  swap1\n  swap3\n  and\n  swap3\n  dup4\n  swap2\n    /* \"contracts/openzeppelin/contracts/access/Ownable.sol\":2410:2450  OwnershipTransferred(oldOwner, newOwner) */\n  0x8be0079c531659141344cd1fd0a4f28419497f9722a3daafe3b4186f6b6457e0\n  swap2\n    /* \"contracts/openzeppelin/contracts/access/Ownable.sol\":2343:2359  address oldOwner */\n  swap1\n    /* \"contracts/openzeppelin/contracts/access/Ownable.sol\":2410:2450  OwnershipTransferred(oldOwner, newOwner) */\n  log3\n    /* \"contracts/openzeppelin/contracts/access/Ownable.sol\":2333:2457  {... */\n  pop\n    /* \"contracts/openzeppelin/contracts/access/Ownable.sol\":2270:2457  function _transferOwnership(address newOwner) internal virtual {... */\n  pop\n  jump\t// out\n    /* \"#utility.yul\":14:191   */\ntag_17:\n    /* \"#utility.yul\":93:106   */\n  dup1\n  mload\n  sub(shl(0xa0, 0x01), 0x01)\n    /* \"#utility.yul\":135:166   */\n  dup2\n  and\n    /* \"#utility.yul\":125:167   */\n  dup2\n  eq\n    /* \"#utility.yul\":115:185   */\n  tag_20\n  jumpi\n    /* \"#utility.yul\":181:182   */\n  0x00\n    /* \"#utility.yul\":178:179   */\n  dup1\n    /* \"#utility.yul\":171:183   */\n  revert\n    /* \"#utility.yul\":115:185   */\ntag_20:\n    /* \"#utility.yul\":14:191   */\n  swap2\n  swap1\n  pop\n  jump\t// out\n    /* \"#utility.yul\":196:574   */\ntag_3:\n    /* \"#utility.yul\":284:290   */\n  0x00\n    /* \"#utility.yul\":292:298   */\n  dup1\n    /* \"#utility.yul\":300:306   */\n  0x00\n    /* \"#utility.yul\":353:355   */\n  0x60\n    /* \"#utility.yul\":341:350   */\n  dup5\n    /* \"#utility.yul\":332:339   */\n  dup7\n    /* \"#utility.yul\":328:351   */\n  sub\n    /* \"#utility.yul\":324:356   */\n  slt\n    /* \"#utility.yul\":321:373   */\n  iszero\n  tag_22\n  jumpi\n    /* \"#utility.yul\":369:370   */\n  0x00\n    /* \"#utility.yul\":366:367   */\n  dup1\n    /* \"#utility.yul\":359:371   */\n  revert\n    /* \"#utility.yul\":321:373   */\ntag_22:\n    /* \"#utility.yul\":392:432   */\n  tag_23\n    /* \"#utility.yul\":422:431   */\n  dup5\n    /* \"#utility.yul\":392:432   */\n  tag_17\n  jump\t// in\ntag_23:\n    /* \"#utility.yul\":382:432   */\n  swap3\n  pop\n    /* \"#utility.yul\":451:500   */\n  tag_24\n    /* \"#utility.yul\":496:498   */\n  0x20\n    /* \"#utility.yul\":485:494   */\n  dup6\n    /* \"#utility.yul\":481:499   */\n  add\n    /* \"#utility.yul\":451:500   */\n  tag_17\n  jump\t// in\ntag_24:\n    /* \"#utility.yul\":441:500   */\n  swap2\n  pop\n    /* \"#utility.yul\":519:568   */\n  tag_25\n    /* \"#utility.yul\":564:566   */\n  0x40\n    /* \"#utility.yul\":553:562   */\n  dup6\n    /* \"#utility.yul\":549:567   */\n  add\n    /* \"#utility.yul\":519:568   */\n  tag_17\n  jump\t// in\ntag_25:\n    /* \"#utility.yul\":509:568   */\n  swap1\n  pop\n    /* \"#utility.yul\":196:574   */\n  swap3\n  pop\n  swap3\n  pop\n  swap3\n  jump\t// out\n    /* \"#utility.yul\":579:804   */\ntag_13:\n    /* \"#utility.yul\":619:622   */\n  0x00\n    /* \"#utility.yul\":650:651   */\n  dup3\n    /* \"#utility.yul\":646:652   */\n  not\n    /* \"#utility.yul\":643:644   */\n  dup3\n    /* \"#utility.yul\":640:653   */\n  gt\n    /* \"#utility.yul\":637:773   */\n  iszero\n  tag_27\n  jumpi\n    /* \"#utility.yul\":695:705   */\n  0x4e487b71\n    /* \"#utility.yul\":690:693   */\n  0xe0\n    /* \"#utility.yul\":686:706   */\n  shl\n    /* \"#utility.yul\":683:684   */\n  0x00\n    /* \"#utility.yul\":676:707   */\n  mstore\n    /* \"#utility.yul\":730:734   */\n  0x11\n    /* \"#utility.yul\":727:728   */\n  0x04\n    /* \"#utility.yul\":720:735   */\n  mstore\n    /* \"#utility.yul\":758:762   */\n  0x24\n    /* \"#utility.yul\":755:756   */\n  0x00\n    /* \"#utility.yul\":748:763   */\n  revert\n    /* \"#utility.yul\":637:773   */\ntag_27:\n  pop\n    /* \"#utility.yul\":789:798   */\n  add\n  swap1\n    /* \"#utility.yul\":579:804   */\n  jump\t// out\ntag_18:\n    /* \"contracts/GovernanceExchanger.sol\":184:2242  contract GovernanceExchanger is Ownable {... */\n  mload(0x80)\n  mload(0xa0)\n  mload(0xc0)\n  mload(0xe0)\n  codecopy(0x00, dataOffset(sub_0), dataSize(sub_0))\n  0x00\n  assignImmutable(\"0x789bcdf275fa270780a52ae3b79bb1ce0fda7e0aaad87b57b74bb99ac290714a\")\n  0x00\n  assignImmutable(\"0x7880aec93413f117ef14bd4e6d130875ab2c7d7d55a064fac3c2f7bd51516380\")\n  0x00\n  assignImmutable(\"0xd2f8f61201b2b11a78d6e866abc9c3db2ae8631fa656bfe5cb53668255367afb\")\n  0x00\n  assignImmutable(\"0x52f1a9b320cab38e5da8a8f97989383aab0a49165fc91c737310e4f7e9821021\")\n  return(0x00, dataSize(sub_0))\nstop\n\nsub_0: assembly {\n        /* \"contracts/GovernanceExchanger.sol\":184:2242  contract GovernanceExchanger is Ownable {... */\n      mstore(0x40, 0x80)\n      callvalue\n      dup1\n      iszero\n      tag_1\n      jumpi\n      0x00\n      dup1\n      revert\n    tag_1:\n      pop\n      jumpi(tag_2, lt(calldatasize, 0x04))\n      shr(0xe0, calldataload(0x00))\n      dup1\n      0x8da5cb5b\n      gt\n      tag_11\n      jumpi\n      dup1\n      0x8da5cb5b\n      eq\n      tag_7\n      jumpi\n      dup1\n      0xae86ed89\n      eq\n      tag_8\n      jumpi\n      dup1\n      0xf2fde38b\n      eq\n      tag_9\n      jumpi\n      dup1\n      0xf96dae0a\n      eq\n      tag_10\n      jumpi\n      0x00\n      dup1\n      revert\n    tag_11:\n      dup1\n      0x3971a957\n      eq\n      tag_3\n      jumpi\n      dup1\n      0x45daa976\n      eq\n      tag_4\n      jumpi\n      dup1\n      0x53556559\n      eq\n      tag_5\n      jumpi\n      dup1\n      0x715018a6\n      eq\n      tag_6\n      jumpi\n    tag_2:\n      0x00\n      dup1\n      revert\n        /* \"contracts/GovernanceExchanger.sol\":1779:2011  function withdrawGovernance() public onlyOwner {... */\n    tag_3:\n      tag_12\n      tag_13\n      jump\t// in\n    tag_12:\n      stop\n        /* \"contracts/GovernanceExchanger.sol\":2019:2239  function withdrawUtility() public onlyOwner {... */\n    tag_4:\n      tag_12\n      tag_15\n      jump\t// in\n        /* \"contracts/GovernanceExchanger.sol\":816:1771  function exchange(uint256 amount) external {... */\n    tag_5:\n      tag_12\n      tag_17\n      calldatasize\n      0x04\n      tag_18\n      jump\t// in\n    tag_17:\n      tag_19\n      jump\t// in\n        /* \"contracts/openzeppelin/contracts/access/Ownable.sol\":1668:1769  function renounceOwnership() public virtual onlyOwner {... */\n    tag_6:\n      tag_12\n      tag_21\n      jump\t// in\n        /* \"contracts/openzeppelin/contracts/access/Ownable.sol\":1036:1121  function owner() public view virtual returns (address) {... */\n    tag_7:\n        /* \"contracts/openzeppelin/contracts/access/Ownable.sol\":1082:1089  address */\n      0x00\n        /* \"contracts/openzeppelin/contracts/access/Ownable.sol\":1108:1114  _owner */\n      sload\n      sub(shl(0xa0, 0x01), 0x01)\n      and\n        /* \"contracts/openzeppelin/contracts/access/Ownable.sol\":1036:1121  function owner() public view virtual returns (address) {... */\n    tag_22:\n      mload(0x40)\n      sub(shl(0xa0, 0x01), 0x01)\n        /* \"#utility.yul\":363:395   */\n      swap1\n      swap2\n      and\n        /* \"#utility.yul\":345:396   */\n      dup2\n      mstore\n        /* \"#utility.yul\":333:335   */\n      0x20\n        /* \"#utility.yul\":318:336   */\n      add\n        /* \"contracts/openzeppelin/contracts/access/Ownable.sol\":1036:1121  function owner() public view virtual returns (address) {... */\n      mload(0x40)\n      dup1\n      swap2\n      sub\n      swap1\n      return\n        /* \"contracts/GovernanceExchanger.sol\":278:315  address public immutable utilityToken */\n    tag_8:\n      tag_22\n      immutable(\"0xd2f8f61201b2b11a78d6e866abc9c3db2ae8631fa656bfe5cb53668255367afb\")\n      dup2\n      jump\n        /* \"contracts/openzeppelin/contracts/access/Ownable.sol\":1918:2116  function transferOwnership(address newOwner) public virtual onlyOwner {... */\n    tag_9:\n      tag_12\n      tag_30\n      calldatasize\n      0x04\n      tag_31\n      jump\t// in\n    tag_30:\n      tag_32\n      jump\t// in\n        /* \"contracts/GovernanceExchanger.sol\":231:271  address public immutable governanceToken */\n    tag_10:\n      tag_22\n      immutable(\"0x52f1a9b320cab38e5da8a8f97989383aab0a49165fc91c737310e4f7e9821021\")\n      dup2\n      jump\n        /* \"contracts/GovernanceExchanger.sol\":1779:2011  function withdrawGovernance() public onlyOwner {... */\n    tag_13:\n        /* \"contracts/openzeppelin/contracts/access/Ownable.sol\":1082:1089  address */\n      0x00\n        /* \"contracts/openzeppelin/contracts/access/Ownable.sol\":1108:1114  _owner */\n      sload\n      sub(shl(0xa0, 0x01), 0x01)\n      and\n        /* \"contracts/openzeppelin/contracts/utils/Context.sol\":719:729  msg.sender */\n      caller\n        /* \"contracts/openzeppelin/contracts/access/Ownable.sol\":1248:1271  owner() == _msgSender() */\n      eq\n        /* \"contracts/openzeppelin/contracts/access/Ownable.sol\":1240:1308  require(owner() == _msgSender(), \"Ownable: caller is not the owner\") */\n      tag_40\n      jumpi\n      mload(0x40)\n      shl(0xe5, 0x461bcd)\n      dup2\n      mstore\n      0x04\n      add\n      tag_41\n      swap1\n      tag_42\n      jump\t// in\n    tag_41:\n      mload(0x40)\n      dup1\n      swap2\n      sub\n      swap1\n      revert\n    tag_40:\n        /* \"contracts/GovernanceExchanger.sol\":1892:1940  IERC20(governanceToken).balanceOf(address(this)) */\n      mload(0x40)\n      shl(0xe0, 0x70a08231)\n      dup2\n      mstore\n        /* \"contracts/GovernanceExchanger.sol\":1934:1938  this */\n      address\n        /* \"contracts/GovernanceExchanger.sol\":1892:1940  IERC20(governanceToken).balanceOf(address(this)) */\n      0x04\n      dup3\n      add\n        /* \"#utility.yul\":345:396   */\n      mstore\n        /* \"contracts/GovernanceExchanger.sol\":1850:1865  governanceToken */\n      immutable(\"0x52f1a9b320cab38e5da8a8f97989383aab0a49165fc91c737310e4f7e9821021\")\n      sub(shl(0xa0, 0x01), 0x01)\n        /* \"contracts/GovernanceExchanger.sol\":1843:1875  IERC20(governanceToken).transfer */\n      and\n      swap1\n      0xa9059cbb\n      swap1\n        /* \"contracts/GovernanceExchanger.sol\":1876:1890  holdingAccount */\n      immutable(\"0x7880aec93413f117ef14bd4e6d130875ab2c7d7d55a064fac3c2f7bd51516380\")\n      swap1\n        /* \"contracts/GovernanceExchanger.sol\":1843:1875  IERC20(governanceToken).transfer */\n      dup4\n      swap1\n        /* \"contracts/GovernanceExchanger.sol\":1892:1925  IERC20(governanceToken).balanceOf */\n      0x70a08231\n      swap1\n        /* \"#utility.yul\":318:336   */\n      0x24\n      add\n        /* \"contracts/GovernanceExchanger.sol\":1892:1940  IERC20(governanceToken).balanceOf(address(this)) */\n      0x20\n      mload(0x40)\n      dup1\n      dup4\n      sub\n      dup2\n      dup7\n      gas\n      staticcall\n      iszero\n      dup1\n      iszero\n      tag_46\n      jumpi\n      returndatasize\n      0x00\n      dup1\n      returndatacopy\n      revert(0x00, returndatasize)\n    tag_46:\n      pop\n      pop\n      pop\n      pop\n      mload(0x40)\n      returndatasize\n      not(0x1f)\n      0x1f\n      dup3\n      add\n      and\n      dup3\n      add\n      dup1\n      0x40\n      mstore\n      pop\n      dup2\n      add\n      swap1\n      tag_47\n      swap2\n      swap1\n      tag_48\n      jump\t// in\n    tag_47:\n        /* \"contracts/GovernanceExchanger.sol\":1843:1941  IERC20(governanceToken).transfer(holdingAccount, IERC20(governanceToken).balanceOf(address(this))) */\n      mload(0x40)\n      not(sub(shl(0xe0, 0x01), 0x01))\n      0xe0\n      dup6\n      swap1\n      shl\n      and\n      dup2\n      mstore\n      sub(shl(0xa0, 0x01), 0x01)\n        /* \"#utility.yul\":1440:1472   */\n      swap1\n      swap3\n      and\n        /* \"contracts/GovernanceExchanger.sol\":1843:1941  IERC20(governanceToken).transfer(holdingAccount, IERC20(governanceToken).balanceOf(address(this))) */\n      0x04\n      dup4\n      add\n        /* \"#utility.yul\":1422:1473   */\n      mstore\n        /* \"#utility.yul\":1489:1507   */\n      0x24\n      dup3\n      add\n        /* \"#utility.yul\":1482:1516   */\n      mstore\n        /* \"#utility.yul\":1395:1413   */\n      0x44\n      add\n        /* \"contracts/GovernanceExchanger.sol\":1843:1941  IERC20(governanceToken).transfer(holdingAccount, IERC20(governanceToken).balanceOf(address(this))) */\n      0x20\n      mload(0x40)\n      dup1\n      dup4\n      sub\n      dup2\n      0x00\n      dup8\n      gas\n      call\n      iszero\n      dup1\n      iszero\n      tag_52\n      jumpi\n      returndatasize\n      0x00\n      dup1\n      returndatacopy\n      revert(0x00, returndatasize)\n    tag_52:\n      pop\n      pop\n      pop\n      pop\n      mload(0x40)\n      returndatasize\n      not(0x1f)\n      0x1f\n      dup3\n      add\n      and\n      dup3\n      add\n      dup1\n      0x40\n      mstore\n      pop\n      dup2\n      add\n      swap1\n      tag_53\n      swap2\n      swap1\n      tag_54\n      jump\t// in\n    tag_53:\n        /* \"contracts/GovernanceExchanger.sol\":1835:2003  require(IERC20(governanceToken).transfer(holdingAccount, IERC20(governanceToken).balanceOf(address(this))), \"GovernanceExchanger::withdrawGovernance: Withdraw failed.\") */\n      tag_55\n      jumpi\n      mload(0x40)\n      shl(0xe5, 0x461bcd)\n      dup2\n      mstore\n        /* \"#utility.yul\":2011:2013   */\n      0x20\n        /* \"contracts/GovernanceExchanger.sol\":1835:2003  require(IERC20(governanceToken).transfer(holdingAccount, IERC20(governanceToken).balanceOf(address(this))), \"GovernanceExchanger::withdrawGovernance: Withdraw failed.\") */\n      0x04\n      dup3\n      add\n        /* \"#utility.yul\":1993:2014   */\n      mstore\n        /* \"#utility.yul\":2050:2052   */\n      0x39\n        /* \"#utility.yul\":2030:2048   */\n      0x24\n      dup3\n      add\n        /* \"#utility.yul\":2023:2053   */\n      mstore\n        /* \"#utility.yul\":2089:2123   */\n      0x476f7665726e616e636545786368616e6765723a3a7769746864726177476f76\n        /* \"#utility.yul\":2069:2087   */\n      0x44\n      dup3\n      add\n        /* \"#utility.yul\":2062:2124   */\n      mstore\n        /* \"#utility.yul\":2160:2187   */\n      0x65726e616e63653a205769746864726177206661696c65642e00000000000000\n        /* \"#utility.yul\":2140:2158   */\n      0x64\n      dup3\n      add\n        /* \"#utility.yul\":2133:2188   */\n      mstore\n        /* \"#utility.yul\":2205:2224   */\n      0x84\n      add\n        /* \"contracts/GovernanceExchanger.sol\":1835:2003  require(IERC20(governanceToken).transfer(holdingAccount, IERC20(governanceToken).balanceOf(address(this))), \"GovernanceExchanger::withdrawGovernance: Withdraw failed.\") */\n      tag_41\n        /* \"#utility.yul\":1809:2230   */\n      jump\n        /* \"contracts/GovernanceExchanger.sol\":1835:2003  require(IERC20(governanceToken).transfer(holdingAccount, IERC20(governanceToken).balanceOf(address(this))), \"GovernanceExchanger::withdrawGovernance: Withdraw failed.\") */\n    tag_55:\n        /* \"contracts/GovernanceExchanger.sol\":1779:2011  function withdrawGovernance() public onlyOwner {... */\n      jump\t// out\n        /* \"contracts/GovernanceExchanger.sol\":2019:2239  function withdrawUtility() public onlyOwner {... */\n    tag_15:\n        /* \"contracts/openzeppelin/contracts/access/Ownable.sol\":1082:1089  address */\n      0x00\n        /* \"contracts/openzeppelin/contracts/access/Ownable.sol\":1108:1114  _owner */\n      sload\n      sub(shl(0xa0, 0x01), 0x01)\n      and\n        /* \"contracts/openzeppelin/contracts/utils/Context.sol\":719:729  msg.sender */\n      caller\n        /* \"contracts/openzeppelin/contracts/access/Ownable.sol\":1248:1271  owner() == _msgSender() */\n      eq\n        /* \"contracts/openzeppelin/contracts/access/Ownable.sol\":1240:1308  require(owner() == _msgSender(), \"Ownable: caller is not the owner\") */\n      tag_61\n      jumpi\n      mload(0x40)\n      shl(0xe5, 0x461bcd)\n      dup2\n      mstore\n      0x04\n      add\n      tag_41\n      swap1\n      tag_42\n      jump\t// in\n    tag_61:\n        /* \"contracts/GovernanceExchanger.sol\":2126:2171  IERC20(utilityToken).balanceOf(address(this)) */\n      mload(0x40)\n      shl(0xe0, 0x70a08231)\n      dup2\n      mstore\n        /* \"contracts/GovernanceExchanger.sol\":2165:2169  this */\n      address\n        /* \"contracts/GovernanceExchanger.sol\":2126:2171  IERC20(utilityToken).balanceOf(address(this)) */\n      0x04\n      dup3\n      add\n        /* \"#utility.yul\":345:396   */\n      mstore\n        /* \"contracts/GovernanceExchanger.sol\":2087:2099  utilityToken */\n      immutable(\"0xd2f8f61201b2b11a78d6e866abc9c3db2ae8631fa656bfe5cb53668255367afb\")\n      sub(shl(0xa0, 0x01), 0x01)\n        /* \"contracts/GovernanceExchanger.sol\":2080:2109  IERC20(utilityToken).transfer */\n      and\n      swap1\n      0xa9059cbb\n      swap1\n        /* \"contracts/GovernanceExchanger.sol\":2110:2124  holdingAccount */\n      immutable(\"0x7880aec93413f117ef14bd4e6d130875ab2c7d7d55a064fac3c2f7bd51516380\")\n      swap1\n        /* \"contracts/GovernanceExchanger.sol\":2080:2109  IERC20(utilityToken).transfer */\n      dup4\n      swap1\n        /* \"contracts/GovernanceExchanger.sol\":2126:2156  IERC20(utilityToken).balanceOf */\n      0x70a08231\n      swap1\n        /* \"#utility.yul\":318:336   */\n      0x24\n      add\n        /* \"contracts/GovernanceExchanger.sol\":2126:2171  IERC20(utilityToken).balanceOf(address(this)) */\n      0x20\n      mload(0x40)\n      dup1\n      dup4\n      sub\n      dup2\n      dup7\n      gas\n      staticcall\n      iszero\n      dup1\n      iszero\n      tag_66\n      jumpi\n      returndatasize\n      0x00\n      dup1\n      returndatacopy\n      revert(0x00, returndatasize)\n    tag_66:\n      pop\n      pop\n      pop\n      pop\n      mload(0x40)\n      returndatasize\n      not(0x1f)\n      0x1f\n      dup3\n      add\n      and\n      dup3\n      add\n      dup1\n      0x40\n      mstore\n      pop\n      dup2\n      add\n      swap1\n      tag_67\n      swap2\n      swap1\n      tag_48\n      jump\t// in\n    tag_67:\n        /* \"contracts/GovernanceExchanger.sol\":2080:2172  IERC20(utilityToken).transfer(holdingAccount, IERC20(utilityToken).balanceOf(address(this))) */\n      mload(0x40)\n      not(sub(shl(0xe0, 0x01), 0x01))\n      0xe0\n      dup6\n      swap1\n      shl\n      and\n      dup2\n      mstore\n      sub(shl(0xa0, 0x01), 0x01)\n        /* \"#utility.yul\":1440:1472   */\n      swap1\n      swap3\n      and\n        /* \"contracts/GovernanceExchanger.sol\":2080:2172  IERC20(utilityToken).transfer(holdingAccount, IERC20(utilityToken).balanceOf(address(this))) */\n      0x04\n      dup4\n      add\n        /* \"#utility.yul\":1422:1473   */\n      mstore\n        /* \"#utility.yul\":1489:1507   */\n      0x24\n      dup3\n      add\n        /* \"#utility.yul\":1482:1516   */\n      mstore\n        /* \"#utility.yul\":1395:1413   */\n      0x44\n      add\n        /* \"contracts/GovernanceExchanger.sol\":2080:2172  IERC20(utilityToken).transfer(holdingAccount, IERC20(utilityToken).balanceOf(address(this))) */\n      0x20\n      mload(0x40)\n      dup1\n      dup4\n      sub\n      dup2\n      0x00\n      dup8\n      gas\n      call\n      iszero\n      dup1\n      iszero\n      tag_70\n      jumpi\n      returndatasize\n      0x00\n      dup1\n      returndatacopy\n      revert(0x00, returndatasize)\n    tag_70:\n      pop\n      pop\n      pop\n      pop\n      mload(0x40)\n      returndatasize\n      not(0x1f)\n      0x1f\n      dup3\n      add\n      and\n      dup3\n      add\n      dup1\n      0x40\n      mstore\n      pop\n      dup2\n      add\n      swap1\n      tag_71\n      swap2\n      swap1\n      tag_54\n      jump\t// in\n    tag_71:\n        /* \"contracts/GovernanceExchanger.sol\":2072:2231  require(IERC20(utilityToken).transfer(holdingAccount, IERC20(utilityToken).balanceOf(address(this))), \"GovernanceExchanger::withdrawUtility: Withdraw failed.\") */\n      tag_55\n      jumpi\n      mload(0x40)\n      shl(0xe5, 0x461bcd)\n      dup2\n      mstore\n        /* \"#utility.yul\":2437:2439   */\n      0x20\n        /* \"contracts/GovernanceExchanger.sol\":2072:2231  require(IERC20(utilityToken).transfer(holdingAccount, IERC20(utilityToken).balanceOf(address(this))), \"GovernanceExchanger::withdrawUtility: Withdraw failed.\") */\n      0x04\n      dup3\n      add\n        /* \"#utility.yul\":2419:2440   */\n      mstore\n        /* \"#utility.yul\":2476:2478   */\n      0x36\n        /* \"#utility.yul\":2456:2474   */\n      0x24\n      dup3\n      add\n        /* \"#utility.yul\":2449:2479   */\n      mstore\n        /* \"#utility.yul\":2515:2549   */\n      0x476f7665726e616e636545786368616e6765723a3a7769746864726177557469\n        /* \"#utility.yul\":2495:2513   */\n      0x44\n      dup3\n      add\n        /* \"#utility.yul\":2488:2550   */\n      mstore\n      shl(0x51, 0x3634ba3c9d102bb4ba34323930bb903330b4b632b217)\n        /* \"#utility.yul\":2566:2584   */\n      0x64\n      dup3\n      add\n        /* \"#utility.yul\":2559:2611   */\n      mstore\n        /* \"#utility.yul\":2628:2647   */\n      0x84\n      add\n        /* \"contracts/GovernanceExchanger.sol\":2072:2231  require(IERC20(utilityToken).transfer(holdingAccount, IERC20(utilityToken).balanceOf(address(this))), \"GovernanceExchanger::withdrawUtility: Withdraw failed.\") */\n      tag_41\n        /* \"#utility.yul\":2235:2653   */\n      jump\n        /* \"contracts/GovernanceExchanger.sol\":816:1771  function exchange(uint256 amount) external {... */\n    tag_19:\n        /* \"contracts/GovernanceExchanger.sol\":897:904  endDate */\n      immutable(\"0x789bcdf275fa270780a52ae3b79bb1ce0fda7e0aaad87b57b74bb99ac290714a\")\n        /* \"contracts/GovernanceExchanger.sol\":878:893  block.timestamp */\n      timestamp\n        /* \"contracts/GovernanceExchanger.sol\":878:904  block.timestamp <= endDate */\n      gt\n      iszero\n        /* \"contracts/GovernanceExchanger.sol\":870:966  require(block.timestamp <= endDate, \"GovernanceExchanger::exchange: Exchange period has ended.\") */\n      tag_76\n      jumpi\n      mload(0x40)\n      shl(0xe5, 0x461bcd)\n      dup2\n      mstore\n        /* \"#utility.yul\":2860:2862   */\n      0x20\n        /* \"contracts/GovernanceExchanger.sol\":870:966  require(block.timestamp <= endDate, \"GovernanceExchanger::exchange: Exchange period has ended.\") */\n      0x04\n      dup3\n      add\n        /* \"#utility.yul\":2842:2863   */\n      mstore\n        /* \"#utility.yul\":2899:2901   */\n      0x39\n        /* \"#utility.yul\":2879:2897   */\n      0x24\n      dup3\n      add\n        /* \"#utility.yul\":2872:2902   */\n      mstore\n        /* \"#utility.yul\":2938:2972   */\n      0x476f7665726e616e636545786368616e6765723a3a65786368616e67653a2045\n        /* \"#utility.yul\":2918:2936   */\n      0x44\n      dup3\n      add\n        /* \"#utility.yul\":2911:2973   */\n      mstore\n        /* \"#utility.yul\":3009:3036   */\n      0x786368616e676520706572696f642068617320656e6465642e00000000000000\n        /* \"#utility.yul\":2989:3007   */\n      0x64\n      dup3\n      add\n        /* \"#utility.yul\":2982:3037   */\n      mstore\n        /* \"#utility.yul\":3054:3073   */\n      0x84\n      add\n        /* \"contracts/GovernanceExchanger.sol\":870:966  require(block.timestamp <= endDate, \"GovernanceExchanger::exchange: Exchange period has ended.\") */\n      tag_41\n        /* \"#utility.yul\":2658:3079   */\n      jump\n        /* \"contracts/GovernanceExchanger.sol\":870:966  require(block.timestamp <= endDate, \"GovernanceExchanger::exchange: Exchange period has ended.\") */\n    tag_76:\n        /* \"contracts/GovernanceExchanger.sol\":1007:1064  IERC20(utilityToken).allowance(msg.sender, address(this)) */\n      mload(0x40)\n      shl(0xe1, 0x6eb1769f)\n      dup2\n      mstore\n        /* \"contracts/GovernanceExchanger.sol\":1038:1048  msg.sender */\n      caller\n        /* \"contracts/GovernanceExchanger.sol\":1007:1064  IERC20(utilityToken).allowance(msg.sender, address(this)) */\n      0x04\n      dup3\n      add\n        /* \"#utility.yul\":3296:3330   */\n      mstore\n        /* \"contracts/GovernanceExchanger.sol\":1058:1062  this */\n      address\n        /* \"#utility.yul\":3346:3364   */\n      0x24\n      dup3\n      add\n        /* \"#utility.yul\":3339:3382   */\n      mstore\n        /* \"contracts/GovernanceExchanger.sol\":987:1004  uint256 allowance */\n      0x00\n      swap1\n        /* \"contracts/GovernanceExchanger.sol\":1014:1026  utilityToken */\n      immutable(\"0xd2f8f61201b2b11a78d6e866abc9c3db2ae8631fa656bfe5cb53668255367afb\")\n      sub(shl(0xa0, 0x01), 0x01)\n        /* \"contracts/GovernanceExchanger.sol\":1007:1037  IERC20(utilityToken).allowance */\n      and\n      swap1\n      0xdd62ed3e\n      swap1\n        /* \"#utility.yul\":3231:3249   */\n      0x44\n      add\n        /* \"contracts/GovernanceExchanger.sol\":1007:1064  IERC20(utilityToken).allowance(msg.sender, address(this)) */\n      0x20\n      mload(0x40)\n      dup1\n      dup4\n      sub\n      dup2\n      dup7\n      gas\n      staticcall\n      iszero\n      dup1\n      iszero\n      tag_82\n      jumpi\n      returndatasize\n      0x00\n      dup1\n      returndatacopy\n      revert(0x00, returndatasize)\n    tag_82:\n      pop\n      pop\n      pop\n      pop\n      mload(0x40)\n      returndatasize\n      not(0x1f)\n      0x1f\n      dup3\n      add\n      and\n      dup3\n      add\n      dup1\n      0x40\n      mstore\n      pop\n      dup2\n      add\n      swap1\n      tag_83\n      swap2\n      swap1\n      tag_48\n      jump\t// in\n    tag_83:\n        /* \"contracts/GovernanceExchanger.sol\":987:1064  uint256 allowance = IERC20(utilityToken).allowance(msg.sender, address(this)) */\n      swap1\n      pop\n        /* \"contracts/GovernanceExchanger.sol\":1106:1112  amount */\n      dup2\n        /* \"contracts/GovernanceExchanger.sol\":1093:1102  allowance */\n      dup2\n        /* \"contracts/GovernanceExchanger.sol\":1093:1112  allowance >= amount */\n      lt\n      iszero\n        /* \"contracts/GovernanceExchanger.sol\":1085:1174  require(allowance >= amount, \"GovernanceExchanger::exchange: Token allowance too small.\") */\n      tag_84\n      jumpi\n      mload(0x40)\n      shl(0xe5, 0x461bcd)\n      dup2\n      mstore\n        /* \"#utility.yul\":3595:3597   */\n      0x20\n        /* \"contracts/GovernanceExchanger.sol\":1085:1174  require(allowance >= amount, \"GovernanceExchanger::exchange: Token allowance too small.\") */\n      0x04\n      dup3\n      add\n        /* \"#utility.yul\":3577:3598   */\n      mstore\n        /* \"#utility.yul\":3634:3636   */\n      0x39\n        /* \"#utility.yul\":3614:3632   */\n      0x24\n      dup3\n      add\n        /* \"#utility.yul\":3607:3637   */\n      mstore\n        /* \"#utility.yul\":3673:3707   */\n      0x476f7665726e616e636545786368616e6765723a3a65786368616e67653a2054\n        /* \"#utility.yul\":3653:3671   */\n      0x44\n      dup3\n      add\n        /* \"#utility.yul\":3646:3708   */\n      mstore\n        /* \"#utility.yul\":3744:3771   */\n      0x6f6b656e20616c6c6f77616e636520746f6f20736d616c6c2e00000000000000\n        /* \"#utility.yul\":3724:3742   */\n      0x64\n      dup3\n      add\n        /* \"#utility.yul\":3717:3772   */\n      mstore\n        /* \"#utility.yul\":3789:3808   */\n      0x84\n      add\n        /* \"contracts/GovernanceExchanger.sol\":1085:1174  require(allowance >= amount, \"GovernanceExchanger::exchange: Token allowance too small.\") */\n      tag_41\n        /* \"#utility.yul\":3393:3814   */\n      jump\n        /* \"contracts/GovernanceExchanger.sol\":1085:1174  require(allowance >= amount, \"GovernanceExchanger::exchange: Token allowance too small.\") */\n    tag_84:\n        /* \"contracts/GovernanceExchanger.sol\":1217:1259  IERC20(utilityToken).balanceOf(msg.sender) */\n      mload(0x40)\n      shl(0xe0, 0x70a08231)\n      dup2\n      mstore\n        /* \"contracts/GovernanceExchanger.sol\":1248:1258  msg.sender */\n      caller\n        /* \"contracts/GovernanceExchanger.sol\":1217:1259  IERC20(utilityToken).balanceOf(msg.sender) */\n      0x04\n      dup3\n      add\n        /* \"#utility.yul\":345:396   */\n      mstore\n        /* \"contracts/GovernanceExchanger.sol\":1187:1214  uint256 utilityTokenBalance */\n      0x00\n      swap1\n        /* \"contracts/GovernanceExchanger.sol\":1224:1236  utilityToken */\n      immutable(\"0xd2f8f61201b2b11a78d6e866abc9c3db2ae8631fa656bfe5cb53668255367afb\")\n      sub(shl(0xa0, 0x01), 0x01)\n        /* \"contracts/GovernanceExchanger.sol\":1217:1247  IERC20(utilityToken).balanceOf */\n      and\n      swap1\n      0x70a08231\n      swap1\n        /* \"#utility.yul\":318:336   */\n      0x24\n      add\n        /* \"contracts/GovernanceExchanger.sol\":1217:1259  IERC20(utilityToken).balanceOf(msg.sender) */\n      0x20\n      mload(0x40)\n      dup1\n      dup4\n      sub\n      dup2\n      dup7\n      gas\n      staticcall\n      iszero\n      dup1\n      iszero\n      tag_89\n      jumpi\n      returndatasize\n      0x00\n      dup1\n      returndatacopy\n      revert(0x00, returndatasize)\n    tag_89:\n      pop\n      pop\n      pop\n      pop\n      mload(0x40)\n      returndatasize\n      not(0x1f)\n      0x1f\n      dup3\n      add\n      and\n      dup3\n      add\n      dup1\n      0x40\n      mstore\n      pop\n      dup2\n      add\n      swap1\n      tag_90\n      swap2\n      swap1\n      tag_48\n      jump\t// in\n    tag_90:\n        /* \"contracts/GovernanceExchanger.sol\":1187:1259  uint256 utilityTokenBalance = IERC20(utilityToken).balanceOf(msg.sender) */\n      swap1\n      pop\n        /* \"contracts/GovernanceExchanger.sol\":1303:1309  amount */\n      dup3\n        /* \"contracts/GovernanceExchanger.sol\":1280:1299  utilityTokenBalance */\n      dup2\n        /* \"contracts/GovernanceExchanger.sol\":1280:1309  utilityTokenBalance >= amount */\n      lt\n      iszero\n        /* \"contracts/GovernanceExchanger.sol\":1272:1416  require(utilityTokenBalance >= amount, \"GovernanceExchanger::exchange: Sender's balance must be greater than or equal to the amount requested.\") */\n      tag_91\n      jumpi\n      mload(0x40)\n      shl(0xe5, 0x461bcd)\n      dup2\n      mstore\n        /* \"#utility.yul\":4021:4023   */\n      0x20\n        /* \"contracts/GovernanceExchanger.sol\":1272:1416  require(utilityTokenBalance >= amount, \"GovernanceExchanger::exchange: Sender's balance must be greater than or equal to the amount requested.\") */\n      0x04\n      dup3\n      add\n        /* \"#utility.yul\":4003:4024   */\n      mstore\n        /* \"#utility.yul\":4060:4063   */\n      0x66\n        /* \"#utility.yul\":4040:4058   */\n      0x24\n      dup3\n      add\n        /* \"#utility.yul\":4033:4064   */\n      mstore\n        /* \"#utility.yul\":4100:4134   */\n      0x476f7665726e616e636545786368616e6765723a3a65786368616e67653a2053\n        /* \"#utility.yul\":4080:4098   */\n      0x44\n      dup3\n      add\n        /* \"#utility.yul\":4073:4135   */\n      mstore\n        /* \"#utility.yul\":4171:4205   */\n      0x656e64657227732062616c616e6365206d757374206265206772656174657220\n        /* \"#utility.yul\":4151:4169   */\n      0x64\n      dup3\n      add\n        /* \"#utility.yul\":4144:4206   */\n      mstore\n        /* \"#utility.yul\":4243:4277   */\n      0x7468616e206f7220657175616c20746f2074686520616d6f756e742072657175\n        /* \"#utility.yul\":4222:4241   */\n      0x84\n      dup3\n      add\n        /* \"#utility.yul\":4215:4278   */\n      mstore\n      shl(0xd1, 0x32b9ba32b217)\n        /* \"#utility.yul\":4294:4313   */\n      0xa4\n      dup3\n      add\n        /* \"#utility.yul\":4287:4324   */\n      mstore\n        /* \"#utility.yul\":4341:4360   */\n      0xc4\n      add\n        /* \"contracts/GovernanceExchanger.sol\":1272:1416  require(utilityTokenBalance >= amount, \"GovernanceExchanger::exchange: Sender's balance must be greater than or equal to the amount requested.\") */\n      tag_41\n        /* \"#utility.yul\":3819:4366   */\n      jump\n        /* \"contracts/GovernanceExchanger.sol\":1272:1416  require(utilityTokenBalance >= amount, \"GovernanceExchanger::exchange: Sender's balance must be greater than or equal to the amount requested.\") */\n    tag_91:\n        /* \"contracts/GovernanceExchanger.sol\":1435:1504  IERC20(utilityToken).transferFrom(msg.sender, holdingAccount, amount) */\n      mload(0x40)\n      shl(0xe0, 0x23b872dd)\n      dup2\n      mstore\n        /* \"contracts/GovernanceExchanger.sol\":1469:1479  msg.sender */\n      caller\n        /* \"contracts/GovernanceExchanger.sol\":1435:1504  IERC20(utilityToken).transferFrom(msg.sender, holdingAccount, amount) */\n      0x04\n      dup3\n      add\n        /* \"#utility.yul\":4611:4645   */\n      mstore\n      sub(shl(0xa0, 0x01), 0x01)\n        /* \"contracts/GovernanceExchanger.sol\":1481:1495  holdingAccount */\n      immutable(\"0x7880aec93413f117ef14bd4e6d130875ab2c7d7d55a064fac3c2f7bd51516380\")\n        /* \"#utility.yul\":4681:4696   */\n      dup2\n      and\n        /* \"#utility.yul\":4661:4679   */\n      0x24\n      dup4\n      add\n        /* \"#utility.yul\":4654:4697   */\n      mstore\n        /* \"#utility.yul\":4713:4731   */\n      0x44\n      dup3\n      add\n        /* \"#utility.yul\":4706:4740   */\n      dup6\n      swap1\n      mstore\n        /* \"contracts/GovernanceExchanger.sol\":1442:1454  utilityToken */\n      immutable(\"0xd2f8f61201b2b11a78d6e866abc9c3db2ae8631fa656bfe5cb53668255367afb\")\n        /* \"contracts/GovernanceExchanger.sol\":1435:1468  IERC20(utilityToken).transferFrom */\n      and\n      swap1\n      0x23b872dd\n      swap1\n        /* \"#utility.yul\":4546:4564   */\n      0x64\n      add\n        /* \"contracts/GovernanceExchanger.sol\":1435:1504  IERC20(utilityToken).transferFrom(msg.sender, holdingAccount, amount) */\n      0x20\n      mload(0x40)\n      dup1\n      dup4\n      sub\n      dup2\n      0x00\n      dup8\n      gas\n      call\n      iszero\n      dup1\n      iszero\n      tag_97\n      jumpi\n      returndatasize\n      0x00\n      dup1\n      returndatacopy\n      revert(0x00, returndatasize)\n    tag_97:\n      pop\n      pop\n      pop\n      pop\n      mload(0x40)\n      returndatasize\n      not(0x1f)\n      0x1f\n      dup3\n      add\n      and\n      dup3\n      add\n      dup1\n      0x40\n      mstore\n      pop\n      dup2\n      add\n      swap1\n      tag_98\n      swap2\n      swap1\n      tag_54\n      jump\t// in\n    tag_98:\n        /* \"contracts/GovernanceExchanger.sol\":1427:1574  require(IERC20(utilityToken).transferFrom(msg.sender, holdingAccount, amount), \"GovernanceExchanger::exchange: Transfer of utility tokens failed.\") */\n      tag_99\n      jumpi\n      mload(0x40)\n      shl(0xe5, 0x461bcd)\n      dup2\n      mstore\n        /* \"#utility.yul\":4953:4955   */\n      0x20\n        /* \"contracts/GovernanceExchanger.sol\":1427:1574  require(IERC20(utilityToken).transferFrom(msg.sender, holdingAccount, amount), \"GovernanceExchanger::exchange: Transfer of utility tokens failed.\") */\n      0x04\n      dup3\n      add\n        /* \"#utility.yul\":4935:4956   */\n      mstore\n        /* \"#utility.yul\":4992:4994   */\n      0x41\n        /* \"#utility.yul\":4972:4990   */\n      0x24\n      dup3\n      add\n        /* \"#utility.yul\":4965:4995   */\n      mstore\n        /* \"#utility.yul\":5031:5065   */\n      0x476f7665726e616e636545786368616e6765723a3a65786368616e67653a2054\n        /* \"#utility.yul\":5011:5029   */\n      0x44\n      dup3\n      add\n        /* \"#utility.yul\":5004:5066   */\n      mstore\n        /* \"#utility.yul\":5102:5136   */\n      0x72616e73666572206f66207574696c69747920746f6b656e73206661696c6564\n        /* \"#utility.yul\":5082:5100   */\n      0x64\n      dup3\n      add\n        /* \"#utility.yul\":5075:5137   */\n      mstore\n      shl(0xf9, 0x17)\n        /* \"#utility.yul\":5153:5172   */\n      0x84\n      dup3\n      add\n        /* \"#utility.yul\":5146:5178   */\n      mstore\n        /* \"#utility.yul\":5195:5214   */\n      0xa4\n      add\n        /* \"contracts/GovernanceExchanger.sol\":1427:1574  require(IERC20(utilityToken).transferFrom(msg.sender, holdingAccount, amount), \"GovernanceExchanger::exchange: Transfer of utility tokens failed.\") */\n      tag_41\n        /* \"#utility.yul\":4751:5220   */\n      jump\n        /* \"contracts/GovernanceExchanger.sol\":1427:1574  require(IERC20(utilityToken).transferFrom(msg.sender, holdingAccount, amount), \"GovernanceExchanger::exchange: Transfer of utility tokens failed.\") */\n    tag_99:\n        /* \"contracts/GovernanceExchanger.sol\":1593:1645  IERC20(governanceToken).transfer(msg.sender, amount) */\n      mload(0x40)\n      shl(0xe0, 0xa9059cbb)\n      dup2\n      mstore\n        /* \"contracts/GovernanceExchanger.sol\":1626:1636  msg.sender */\n      caller\n        /* \"contracts/GovernanceExchanger.sol\":1593:1645  IERC20(governanceToken).transfer(msg.sender, amount) */\n      0x04\n      dup3\n      add\n        /* \"#utility.yul\":1422:1473   */\n      mstore\n        /* \"#utility.yul\":1489:1507   */\n      0x24\n      dup2\n      add\n        /* \"#utility.yul\":1482:1516   */\n      dup5\n      swap1\n      mstore\n        /* \"contracts/GovernanceExchanger.sol\":1600:1615  governanceToken */\n      immutable(\"0x52f1a9b320cab38e5da8a8f97989383aab0a49165fc91c737310e4f7e9821021\")\n      sub(shl(0xa0, 0x01), 0x01)\n        /* \"contracts/GovernanceExchanger.sol\":1593:1625  IERC20(governanceToken).transfer */\n      and\n      swap1\n      0xa9059cbb\n      swap1\n        /* \"#utility.yul\":1395:1413   */\n      0x44\n      add\n        /* \"contracts/GovernanceExchanger.sol\":1593:1645  IERC20(governanceToken).transfer(msg.sender, amount) */\n      0x20\n      mload(0x40)\n      dup1\n      dup4\n      sub\n      dup2\n      0x00\n      dup8\n      gas\n      call\n      iszero\n      dup1\n      iszero\n      tag_104\n      jumpi\n      returndatasize\n      0x00\n      dup1\n      returndatacopy\n      revert(0x00, returndatasize)\n    tag_104:\n      pop\n      pop\n      pop\n      pop\n      mload(0x40)\n      returndatasize\n      not(0x1f)\n      0x1f\n      dup3\n      add\n      and\n      dup3\n      add\n      dup1\n      0x40\n      mstore\n      pop\n      dup2\n      add\n      swap1\n      tag_105\n      swap2\n      swap1\n      tag_54\n      jump\t// in\n    tag_105:\n        /* \"contracts/GovernanceExchanger.sol\":1585:1718  require(IERC20(governanceToken).transfer(msg.sender, amount), \"GovernanceExchanger::exchange: Transfer of governance tokens failed.\") */\n      tag_106\n      jumpi\n      mload(0x40)\n      shl(0xe5, 0x461bcd)\n      dup2\n      mstore\n        /* \"#utility.yul\":5427:5429   */\n      0x20\n        /* \"contracts/GovernanceExchanger.sol\":1585:1718  require(IERC20(governanceToken).transfer(msg.sender, amount), \"GovernanceExchanger::exchange: Transfer of governance tokens failed.\") */\n      0x04\n      dup3\n      add\n        /* \"#utility.yul\":5409:5430   */\n      mstore\n        /* \"#utility.yul\":5466:5468   */\n      0x44\n        /* \"#utility.yul\":5446:5464   */\n      0x24\n      dup3\n      add\n        /* \"#utility.yul\":5439:5469   */\n      dup2\n      swap1\n      mstore\n        /* \"#utility.yul\":5505:5539   */\n      0x476f7665726e616e636545786368616e6765723a3a65786368616e67653a2054\n        /* \"#utility.yul\":5485:5503   */\n      swap1\n      dup3\n      add\n        /* \"#utility.yul\":5478:5540   */\n      mstore\n        /* \"#utility.yul\":5576:5610   */\n      0x72616e73666572206f6620676f7665726e616e636520746f6b656e7320666169\n        /* \"#utility.yul\":5556:5574   */\n      0x64\n      dup3\n      add\n        /* \"#utility.yul\":5549:5611   */\n      mstore\n      shl(0xe1, 0x3632b217)\n        /* \"#utility.yul\":5627:5646   */\n      0x84\n      dup3\n      add\n        /* \"#utility.yul\":5620:5655   */\n      mstore\n        /* \"#utility.yul\":5672:5691   */\n      0xa4\n      add\n        /* \"contracts/GovernanceExchanger.sol\":1585:1718  require(IERC20(governanceToken).transfer(msg.sender, amount), \"GovernanceExchanger::exchange: Transfer of governance tokens failed.\") */\n      tag_41\n        /* \"#utility.yul\":5225:5697   */\n      jump\n        /* \"contracts/GovernanceExchanger.sol\":1585:1718  require(IERC20(governanceToken).transfer(msg.sender, amount), \"GovernanceExchanger::exchange: Transfer of governance tokens failed.\") */\n    tag_106:\n        /* \"contracts/GovernanceExchanger.sol\":1734:1763  Exchanged(msg.sender, amount) */\n      0x40\n      dup1\n      mload\n        /* \"contracts/GovernanceExchanger.sol\":1744:1754  msg.sender */\n      caller\n        /* \"#utility.yul\":1422:1473   */\n      dup2\n      mstore\n        /* \"#utility.yul\":1504:1506   */\n      0x20\n        /* \"#utility.yul\":1489:1507   */\n      dup2\n      add\n        /* \"#utility.yul\":1482:1516   */\n      dup6\n      swap1\n      mstore\n        /* \"contracts/GovernanceExchanger.sol\":1734:1763  Exchanged(msg.sender, amount) */\n      0x6ea412b125ed242bc34c304877264761547306c2429c03d7fd1b477aa61a3f5d\n      swap2\n        /* \"#utility.yul\":1395:1413   */\n      add\n        /* \"contracts/GovernanceExchanger.sol\":1734:1763  Exchanged(msg.sender, amount) */\n      mload(0x40)\n      dup1\n      swap2\n      sub\n      swap1\n      log1\n        /* \"contracts/GovernanceExchanger.sol\":859:1771  {... */\n      pop\n      pop\n        /* \"contracts/GovernanceExchanger.sol\":816:1771  function exchange(uint256 amount) external {... */\n      pop\n      jump\t// out\n        /* \"contracts/openzeppelin/contracts/access/Ownable.sol\":1668:1769  function renounceOwnership() public virtual onlyOwner {... */\n    tag_21:\n        /* \"contracts/openzeppelin/contracts/access/Ownable.sol\":1082:1089  address */\n      0x00\n        /* \"contracts/openzeppelin/contracts/access/Ownable.sol\":1108:1114  _owner */\n      sload\n      sub(shl(0xa0, 0x01), 0x01)\n      and\n        /* \"contracts/openzeppelin/contracts/utils/Context.sol\":719:729  msg.sender */\n      caller\n        /* \"contracts/openzeppelin/contracts/access/Ownable.sol\":1248:1271  owner() == _msgSender() */\n      eq\n        /* \"contracts/openzeppelin/contracts/access/Ownable.sol\":1240:1308  require(owner() == _msgSender(), \"Ownable: caller is not the owner\") */\n      tag_113\n      jumpi\n      mload(0x40)\n      shl(0xe5, 0x461bcd)\n      dup2\n      mstore\n      0x04\n      add\n      tag_41\n      swap1\n      tag_42\n      jump\t// in\n    tag_113:\n        /* \"contracts/openzeppelin/contracts/access/Ownable.sol\":1732:1762  _transferOwnership(address(0)) */\n      tag_55\n        /* \"contracts/openzeppelin/contracts/access/Ownable.sol\":1759:1760  0 */\n      0x00\n        /* \"contracts/openzeppelin/contracts/access/Ownable.sol\":1732:1750  _transferOwnership */\n      tag_117\n        /* \"contracts/openzeppelin/contracts/access/Ownable.sol\":1732:1762  _transferOwnership(address(0)) */\n      jump\t// in\n        /* \"contracts/openzeppelin/contracts/access/Ownable.sol\":1918:2116  function transferOwnership(address newOwner) public virtual onlyOwner {... */\n    tag_32:\n        /* \"contracts/openzeppelin/contracts/access/Ownable.sol\":1082:1089  address */\n      0x00\n        /* \"contracts/openzeppelin/contracts/access/Ownable.sol\":1108:1114  _owner */\n      sload\n      sub(shl(0xa0, 0x01), 0x01)\n      and\n        /* \"contracts/openzeppelin/contracts/utils/Context.sol\":719:729  msg.sender */\n      caller\n        /* \"contracts/openzeppelin/contracts/access/Ownable.sol\":1248:1271  owner() == _msgSender() */\n      eq\n        /* \"contracts/openzeppelin/contracts/access/Ownable.sol\":1240:1308  require(owner() == _msgSender(), \"Ownable: caller is not the owner\") */\n      tag_122\n      jumpi\n      mload(0x40)\n      shl(0xe5, 0x461bcd)\n      dup2\n      mstore\n      0x04\n      add\n      tag_41\n      swap1\n      tag_42\n      jump\t// in\n    tag_122:\n      sub(shl(0xa0, 0x01), 0x01)\n        /* \"contracts/openzeppelin/contracts/access/Ownable.sol\":2006:2028  newOwner != address(0) */\n      dup2\n      and\n        /* \"contracts/openzeppelin/contracts/access/Ownable.sol\":1998:2071  require(newOwner != address(0), \"Ownable: new owner is the zero address\") */\n      tag_125\n      jumpi\n      mload(0x40)\n      shl(0xe5, 0x461bcd)\n      dup2\n      mstore\n        /* \"#utility.yul\":5904:5906   */\n      0x20\n        /* \"contracts/openzeppelin/contracts/access/Ownable.sol\":1998:2071  require(newOwner != address(0), \"Ownable: new owner is the zero address\") */\n      0x04\n      dup3\n      add\n        /* \"#utility.yul\":5886:5907   */\n      mstore\n        /* \"#utility.yul\":5943:5945   */\n      0x26\n        /* \"#utility.yul\":5923:5941   */\n      0x24\n      dup3\n      add\n        /* \"#utility.yul\":5916:5946   */\n      mstore\n        /* \"#utility.yul\":5982:6016   */\n      0x4f776e61626c653a206e6577206f776e657220697320746865207a65726f2061\n        /* \"#utility.yul\":5962:5980   */\n      0x44\n      dup3\n      add\n        /* \"#utility.yul\":5955:6017   */\n      mstore\n      shl(0xd0, 0x646472657373)\n        /* \"#utility.yul\":6033:6051   */\n      0x64\n      dup3\n      add\n        /* \"#utility.yul\":6026:6062   */\n      mstore\n        /* \"#utility.yul\":6079:6098   */\n      0x84\n      add\n        /* \"contracts/openzeppelin/contracts/access/Ownable.sol\":1998:2071  require(newOwner != address(0), \"Ownable: new owner is the zero address\") */\n      tag_41\n        /* \"#utility.yul\":5702:6104   */\n      jump\n        /* \"contracts/openzeppelin/contracts/access/Ownable.sol\":1998:2071  require(newOwner != address(0), \"Ownable: new owner is the zero address\") */\n    tag_125:\n        /* \"contracts/openzeppelin/contracts/access/Ownable.sol\":2081:2109  _transferOwnership(newOwner) */\n      tag_128\n        /* \"contracts/openzeppelin/contracts/access/Ownable.sol\":2100:2108  newOwner */\n      dup2\n        /* \"contracts/openzeppelin/contracts/access/Ownable.sol\":2081:2099  _transferOwnership */\n      tag_117\n        /* \"contracts/openzeppelin/contracts/access/Ownable.sol\":2081:2109  _transferOwnership(newOwner) */\n      jump\t// in\n    tag_128:\n        /* \"contracts/openzeppelin/contracts/access/Ownable.sol\":1918:2116  function transferOwnership(address newOwner) public virtual onlyOwner {... */\n      pop\n      jump\t// out\n        /* \"contracts/openzeppelin/contracts/access/Ownable.sol\":2270:2457  function _transferOwnership(address newOwner) internal virtual {... */\n    tag_117:\n        /* \"contracts/openzeppelin/contracts/access/Ownable.sol\":2343:2359  address oldOwner */\n      0x00\n        /* \"contracts/openzeppelin/contracts/access/Ownable.sol\":2362:2368  _owner */\n      dup1\n      sload\n      sub(shl(0xa0, 0x01), 0x01)\n        /* \"contracts/openzeppelin/contracts/access/Ownable.sol\":2378:2395  _owner = newOwner */\n      dup4\n      dup2\n      and\n      not(sub(shl(0xa0, 0x01), 0x01))\n      dup4\n      and\n      dup2\n      or\n      dup5\n      sstore\n        /* \"contracts/openzeppelin/contracts/access/Ownable.sol\":2410:2450  OwnershipTransferred(oldOwner, newOwner) */\n      mload(0x40)\n        /* \"contracts/openzeppelin/contracts/access/Ownable.sol\":2362:2368  _owner */\n      swap2\n      swap1\n      swap3\n      and\n      swap3\n      dup4\n      swap2\n        /* \"contracts/openzeppelin/contracts/access/Ownable.sol\":2410:2450  OwnershipTransferred(oldOwner, newOwner) */\n      0x8be0079c531659141344cd1fd0a4f28419497f9722a3daafe3b4186f6b6457e0\n      swap2\n        /* \"contracts/openzeppelin/contracts/access/Ownable.sol\":2343:2359  address oldOwner */\n      swap1\n        /* \"contracts/openzeppelin/contracts/access/Ownable.sol\":2410:2450  OwnershipTransferred(oldOwner, newOwner) */\n      log3\n        /* \"contracts/openzeppelin/contracts/access/Ownable.sol\":2333:2457  {... */\n      pop\n        /* \"contracts/openzeppelin/contracts/access/Ownable.sol\":2270:2457  function _transferOwnership(address newOwner) internal virtual {... */\n      pop\n      jump\t// out\n        /* \"#utility.yul\":14:194   */\n    tag_18:\n        /* \"#utility.yul\":73:79   */\n      0x00\n        /* \"#utility.yul\":126:128   */\n      0x20\n        /* \"#utility.yul\":114:123   */\n      dup3\n        /* \"#utility.yul\":105:112   */\n      dup5\n        /* \"#utility.yul\":101:124   */\n      sub\n        /* \"#utility.yul\":97:129   */\n      slt\n        /* \"#utility.yul\":94:146   */\n      iszero\n      tag_133\n      jumpi\n        /* \"#utility.yul\":142:143   */\n      0x00\n        /* \"#utility.yul\":139:140   */\n      dup1\n        /* \"#utility.yul\":132:144   */\n      revert\n        /* \"#utility.yul\":94:146   */\n    tag_133:\n      pop\n        /* \"#utility.yul\":165:188   */\n      calldataload\n      swap2\n        /* \"#utility.yul\":14:194   */\n      swap1\n      pop\n      jump\t// out\n        /* \"#utility.yul\":407:693   */\n    tag_31:\n        /* \"#utility.yul\":466:472   */\n      0x00\n        /* \"#utility.yul\":519:521   */\n      0x20\n        /* \"#utility.yul\":507:516   */\n      dup3\n        /* \"#utility.yul\":498:505   */\n      dup5\n        /* \"#utility.yul\":494:517   */\n      sub\n        /* \"#utility.yul\":490:522   */\n      slt\n        /* \"#utility.yul\":487:539   */\n      iszero\n      tag_136\n      jumpi\n        /* \"#utility.yul\":535:536   */\n      0x00\n        /* \"#utility.yul\":532:533   */\n      dup1\n        /* \"#utility.yul\":525:537   */\n      revert\n        /* \"#utility.yul\":487:539   */\n    tag_136:\n        /* \"#utility.yul\":561:584   */\n      dup2\n      calldataload\n      sub(shl(0xa0, 0x01), 0x01)\n        /* \"#utility.yul\":613:644   */\n      dup2\n      and\n        /* \"#utility.yul\":603:645   */\n      dup2\n      eq\n        /* \"#utility.yul\":593:663   */\n      tag_137\n      jumpi\n        /* \"#utility.yul\":659:660   */\n      0x00\n        /* \"#utility.yul\":656:657   */\n      dup1\n        /* \"#utility.yul\":649:661   */\n      revert\n        /* \"#utility.yul\":593:663   */\n    tag_137:\n        /* \"#utility.yul\":682:687   */\n      swap4\n        /* \"#utility.yul\":407:693   */\n      swap3\n      pop\n      pop\n      pop\n      jump\t// out\n        /* \"#utility.yul\":698:1054   */\n    tag_42:\n        /* \"#utility.yul\":900:902   */\n      0x20\n        /* \"#utility.yul\":882:903   */\n      dup1\n      dup3\n      mstore\n        /* \"#utility.yul\":919:937   */\n      dup2\n      dup2\n      add\n        /* \"#utility.yul\":912:942   */\n      mstore\n        /* \"#utility.yul\":978:1012   */\n      0x4f776e61626c653a2063616c6c6572206973206e6f7420746865206f776e6572\n        /* \"#utility.yul\":973:975   */\n      0x40\n        /* \"#utility.yul\":958:976   */\n      dup3\n      add\n        /* \"#utility.yul\":951:1013   */\n      mstore\n        /* \"#utility.yul\":1045:1047   */\n      0x60\n        /* \"#utility.yul\":1030:1048   */\n      add\n      swap1\n        /* \"#utility.yul\":698:1054   */\n      jump\t// out\n        /* \"#utility.yul\":1059:1243   */\n    tag_48:\n        /* \"#utility.yul\":1129:1135   */\n      0x00\n        /* \"#utility.yul\":1182:1184   */\n      0x20\n        /* \"#utility.yul\":1170:1179   */\n      dup3\n        /* \"#utility.yul\":1161:1168   */\n      dup5\n        /* \"#utility.yul\":1157:1180   */\n      sub\n        /* \"#utility.yul\":1153:1185   */\n      slt\n        /* \"#utility.yul\":1150:1202   */\n      iszero\n      tag_140\n      jumpi\n        /* \"#utility.yul\":1198:1199   */\n      0x00\n        /* \"#utility.yul\":1195:1196   */\n      dup1\n        /* \"#utility.yul\":1188:1200   */\n      revert\n        /* \"#utility.yul\":1150:1202   */\n    tag_140:\n      pop\n        /* \"#utility.yul\":1221:1237   */\n      mload\n      swap2\n        /* \"#utility.yul\":1059:1243   */\n      swap1\n      pop\n      jump\t// out\n        /* \"#utility.yul\":1527:1804   */\n    tag_54:\n        /* \"#utility.yul\":1594:1600   */\n      0x00\n        /* \"#utility.yul\":1647:1649   */\n      0x20\n        /* \"#utility.yul\":1635:1644   */\n      dup3\n        /* \"#utility.yul\":1626:1633   */\n      dup5\n        /* \"#utility.yul\":1622:1645   */\n      sub\n        /* \"#utility.yul\":1618:1650   */\n      slt\n        /* \"#utility.yul\":1615:1667   */\n      iszero\n      tag_143\n      jumpi\n        /* \"#utility.yul\":1663:1664   */\n      0x00\n        /* \"#utility.yul\":1660:1661   */\n      dup1\n        /* \"#utility.yul\":1653:1665   */\n      revert\n        /* \"#utility.yul\":1615:1667   */\n    tag_143:\n        /* \"#utility.yul\":1695:1704   */\n      dup2\n        /* \"#utility.yul\":1689:1705   */\n      mload\n        /* \"#utility.yul\":1748:1753   */\n      dup1\n        /* \"#utility.yul\":1741:1754   */\n      iszero\n        /* \"#utility.yul\":1734:1755   */\n      iszero\n        /* \"#utility.yul\":1727:1732   */\n      dup2\n        /* \"#utility.yul\":1724:1756   */\n      eq\n        /* \"#utility.yul\":1714:1774   */\n      tag_137\n      jumpi\n        /* \"#utility.yul\":1770:1771   */\n      0x00\n        /* \"#utility.yul\":1767:1768   */\n      dup1\n        /* \"#utility.yul\":1760:1772   */\n      revert\n\n    auxdata: 0xa2646970667358221220f4e018b10d1090ad7c4ec6ae6d3b76acb8b3149ddfc7146b78e06169662c115d64736f6c634300080d0033\n}\n",
				"bytecode": {
					"linkReferences": {},
					"object": "61010060405234801561001157600080fd5b50604051610ddb380380610ddb833981016040819052610030916100d7565b6100393361006b565b6001600160a01b0380841660805282811660a052811660c05261005f426212750061011a565b60e05250610140915050565b600080546001600160a01b038381166001600160a01b0319831681178455604051919092169283917f8be0079c531659141344cd1fd0a4f28419497f9722a3daafe3b4186f6b6457e09190a35050565b80516001600160a01b03811681146100d257600080fd5b919050565b6000806000606084860312156100ec57600080fd5b6100f5846100bb565b9250610103602085016100bb565b9150610111604085016100bb565b90509250925092565b6000821982111561013b57634e487b7160e01b600052601160045260246000fd5b500190565b60805160a05160c05160e051610c2b6101b060003960006104c40152600081816101bd0152818161037c01526107b601526000818160e80152818161034b015281816105760152818161067901526107e50152600081816101220152818161018c01526108ea0152610c2b6000f3fe608060405234801561001057600080fd5b50600436106100885760003560e01c80638da5cb5b1161005b5780638da5cb5b146100ba578063ae86ed89146100e3578063f2fde38b1461010a578063f96dae0a1461011d57600080fd5b80633971a9571461008d57806345daa97614610097578063535565591461009f578063715018a6146100b2575b600080fd5b610095610144565b005b61009561030c565b6100956100ad366004610b3c565b6104c2565b610095610a1d565b6000546001600160a01b03165b6040516001600160a01b03909116815260200160405180910390f35b6100c77f000000000000000000000000000000000000000000000000000000000000000081565b610095610118366004610b55565b610a51565b6100c77f000000000000000000000000000000000000000000000000000000000000000081565b6000546001600160a01b031633146101775760405162461bcd60e51b815260040161016e90610b85565b60405180910390fd5b6040516370a0823160e01b81523060048201527f00000000000000000000000000000000000000000000000000000000000000006001600160a01b03169063a9059cbb907f00000000000000000000000000000000000000000000000000000000000000009083906370a0823190602401602060405180830381865afa158015610205573d6000803e3d6000fd5b505050506040513d601f19601f820116820180604052508101906102299190610bba565b6040516001600160e01b031960e085901b1681526001600160a01b03909216600483015260248201526044016020604051808303816000875af1158015610274573d6000803e3d6000fd5b505050506040513d601f19601f820116820180604052508101906102989190610bd3565b61030a5760405162461bcd60e51b815260206004820152603960248201527f476f7665726e616e636545786368616e6765723a3a7769746864726177476f7660448201527f65726e616e63653a205769746864726177206661696c65642e00000000000000606482015260840161016e565b565b6000546001600160a01b031633146103365760405162461bcd60e51b815260040161016e90610b85565b6040516370a0823160e01b81523060048201527f00000000000000000000000000000000000000000000000000000000000000006001600160a01b03169063a9059cbb907f00000000000000000000000000000000000000000000000000000000000000009083906370a0823190602401602060405180830381865afa1580156103c4573d6000803e3d6000fd5b505050506040513d601f19601f820116820180604052508101906103e89190610bba565b6040516001600160e01b031960e085901b1681526001600160a01b03909216600483015260248201526044016020604051808303816000875af1158015610433573d6000803e3d6000fd5b505050506040513d601f19601f820116820180604052508101906104579190610bd3565b61030a5760405162461bcd60e51b815260206004820152603660248201527f476f7665726e616e636545786368616e6765723a3a77697468647261775574696044820152753634ba3c9d102bb4ba34323930bb903330b4b632b21760511b606482015260840161016e565b7f00000000000000000000000000000000000000000000000000000000000000004211156105585760405162461bcd60e51b815260206004820152603960248201527f476f7665726e616e636545786368616e6765723a3a65786368616e67653a204560448201527f786368616e676520706572696f642068617320656e6465642e00000000000000606482015260840161016e565b604051636eb1769f60e11b81523360048201523060248201526000907f00000000000000000000000000000000000000000000000000000000000000006001600160a01b03169063dd62ed3e90604401602060405180830381865afa1580156105c5573d6000803e3d6000fd5b505050506040513d601f19601f820116820180604052508101906105e99190610bba565b9050818110156106615760405162461bcd60e51b815260206004820152603960248201527f476f7665726e616e636545786368616e6765723a3a65786368616e67653a205460448201527f6f6b656e20616c6c6f77616e636520746f6f20736d616c6c2e00000000000000606482015260840161016e565b6040516370a0823160e01b81523360048201526000907f00000000000000000000000000000000000000000000000000000000000000006001600160a01b0316906370a0823190602401602060405180830381865afa1580156106c8573d6000803e3d6000fd5b505050506040513d601f19601f820116820180604052508101906106ec9190610bba565b9050828110156107995760405162461bcd60e51b815260206004820152606660248201527f476f7665726e616e636545786368616e6765723a3a65786368616e67653a205360448201527f656e64657227732062616c616e6365206d75737420626520677265617465722060648201527f7468616e206f7220657175616c20746f2074686520616d6f756e74207265717560848201526532b9ba32b21760d11b60a482015260c40161016e565b6040516323b872dd60e01b81523360048201526001600160a01b037f000000000000000000000000000000000000000000000000000000000000000081166024830152604482018590527f000000000000000000000000000000000000000000000000000000000000000016906323b872dd906064016020604051808303816000875af115801561082e573d6000803e3d6000fd5b505050506040513d601f19601f820116820180604052508101906108529190610bd3565b6108ce5760405162461bcd60e51b815260206004820152604160248201527f476f7665726e616e636545786368616e6765723a3a65786368616e67653a205460448201527f72616e73666572206f66207574696c69747920746f6b656e73206661696c65646064820152601760f91b608482015260a40161016e565b60405163a9059cbb60e01b8152336004820152602481018490527f00000000000000000000000000000000000000000000000000000000000000006001600160a01b03169063a9059cbb906044016020604051808303816000875af115801561093b573d6000803e3d6000fd5b505050506040513d601f19601f8201168201806040525081019061095f9190610bd3565b6109df5760405162461bcd60e51b8152602060048201526044602482018190527f476f7665726e616e636545786368616e6765723a3a65786368616e67653a2054908201527f72616e73666572206f6620676f7665726e616e636520746f6b656e73206661696064820152633632b21760e11b608482015260a40161016e565b60408051338152602081018590527f6ea412b125ed242bc34c304877264761547306c2429c03d7fd1b477aa61a3f5d910160405180910390a1505050565b6000546001600160a01b03163314610a475760405162461bcd60e51b815260040161016e90610b85565b61030a6000610aec565b6000546001600160a01b03163314610a7b5760405162461bcd60e51b815260040161016e90610b85565b6001600160a01b038116610ae05760405162461bcd60e51b815260206004820152602660248201527f4f776e61626c653a206e6577206f776e657220697320746865207a65726f206160448201526564647265737360d01b606482015260840161016e565b610ae981610aec565b50565b600080546001600160a01b038381166001600160a01b0319831681178455604051919092169283917f8be0079c531659141344cd1fd0a4f28419497f9722a3daafe3b4186f6b6457e09190a35050565b600060208284031215610b4e57600080fd5b5035919050565b600060208284031215610b6757600080fd5b81356001600160a01b0381168114610b7e57600080fd5b9392505050565b6020808252818101527f4f776e61626c653a2063616c6c6572206973206e6f7420746865206f776e6572604082015260600190565b600060208284031215610bcc57600080fd5b5051919050565b600060208284031215610be557600080fd5b81518015158114610b7e57600080fdfea2646970667358221220f4e018b10d1090ad7c4ec6ae6d3b76acb8b3149ddfc7146b78e06169662c115d64736f6c634300080d0033",
					"opcodes": "PUSH2 0x100 PUSH1 0x40 MSTORE CALLVALUE DUP1 ISZERO PUSH2 0x11 JUMPI PUSH1 0x0 DUP1 REVERT JUMPDEST POP PUSH1 0x40 MLOAD PUSH2 0xDDB CODESIZE SUB DUP1 PUSH2 0xDDB DUP4 CODECOPY DUP2 ADD PUSH1 0x40 DUP2 SWAP1 MSTORE PUSH2 0x30 SWAP2 PUSH2 0xD7 JUMP JUMPDEST PUSH2 0x39 CALLER PUSH2 0x6B JUMP JUMPDEST PUSH1 0x1 PUSH1 0x1 PUSH1 0xA0 SHL SUB DUP1 DUP5 AND PUSH1 0x80 MSTORE DUP3 DUP2 AND PUSH1 0xA0 MSTORE DUP2 AND PUSH1 0xC0 MSTORE PUSH2 0x5F TIMESTAMP PUSH3 0x127500 PUSH2 0x11A JUMP JUMPDEST PUSH1 0xE0 MSTORE POP PUSH2 0x140 SWAP2 POP POP JUMP JUMPDEST PUSH1 0x0 DUP1 SLOAD PUSH1 0x1 PUSH1 0x1 PUSH1 0xA0 SHL SUB DUP4 DUP2 AND PUSH1 0x1 PUSH1 0x1 PUSH1 0xA0 SHL SUB NOT DUP4 AND DUP2 OR DUP5 SSTORE PUSH1 0x40 MLOAD SWAP2 SWAP1 SWAP3 AND SWAP3 DUP4 SWAP2 PUSH32 0x8BE0079C531659141344CD1FD0A4F28419497F9722A3DAAFE3B4186F6B6457E0 SWAP2 SWAP1 LOG3 POP POP JUMP JUMPDEST DUP1 MLOAD PUSH1 0x1 PUSH1 0x1 PUSH1 0xA0 SHL SUB DUP2 AND DUP2 EQ PUSH2 0xD2 JUMPI PUSH1 0x0 DUP1 REVERT JUMPDEST SWAP2 SWAP1 POP JUMP JUMPDEST PUSH1 0x0 DUP1 PUSH1 0x0 PUSH1 0x60 DUP5 DUP7 SUB SLT ISZERO PUSH2 0xEC JUMPI PUSH1 0x0 DUP1 REVERT JUMPDEST PUSH2 0xF5 DUP5 PUSH2 0xBB JUMP JUMPDEST SWAP3 POP PUSH2 0x103 PUSH1 0x20 DUP6 ADD PUSH2 0xBB JUMP JUMPDEST SWAP2 POP PUSH2 0x111 PUSH1 0x40 DUP6 ADD PUSH2 0xBB JUMP JUMPDEST SWAP1 POP SWAP3 POP SWAP3 POP SWAP3 JUMP JUMPDEST PUSH1 0x0 DUP3 NOT DUP3 GT ISZERO PUSH2 0x13B JUMPI PUSH4 0x4E487B71 PUSH1 0xE0 SHL PUSH1 0x0 MSTORE PUSH1 0x11 PUSH1 0x4 MSTORE PUSH1 0x24 PUSH1 0x0 REVERT JUMPDEST POP ADD SWAP1 JUMP JUMPDEST PUSH1 0x80 MLOAD PUSH1 0xA0 MLOAD PUSH1 0xC0 MLOAD PUSH1 0xE0 MLOAD PUSH2 0xC2B PUSH2 0x1B0 PUSH1 0x0 CODECOPY PUSH1 0x0 PUSH2 0x4C4 ADD MSTORE PUSH1 0x0 DUP2 DUP2 PUSH2 0x1BD ADD MSTORE DUP2 DUP2 PUSH2 0x37C ADD MSTORE PUSH2 0x7B6 ADD MSTORE PUSH1 0x0 DUP2 DUP2 PUSH1 0xE8 ADD MSTORE DUP2 DUP2 PUSH2 0x34B ADD MSTORE DUP2 DUP2 PUSH2 0x576 ADD MSTORE DUP2 DUP2 PUSH2 0x679 ADD MSTORE PUSH2 0x7E5 ADD MSTORE PUSH1 0x0 DUP2 DUP2 PUSH2 0x122 ADD MSTORE DUP2 DUP2 PUSH2 0x18C ADD MSTORE PUSH2 0x8EA ADD MSTORE PUSH2 0xC2B PUSH1 0x0 RETURN INVALID PUSH1 0x80 PUSH1 0x40 MSTORE CALLVALUE DUP1 ISZERO PUSH2 0x10 JUMPI PUSH1 0x0 DUP1 REVERT JUMPDEST POP PUSH1 0x4 CALLDATASIZE LT PUSH2 0x88 JUMPI PUSH1 0x0 CALLDATALOAD PUSH1 0xE0 SHR DUP1 PUSH4 0x8DA5CB5B GT PUSH2 0x5B JUMPI DUP1 PUSH4 0x8DA5CB5B EQ PUSH2 0xBA JUMPI DUP1 PUSH4 0xAE86ED89 EQ PUSH2 0xE3 JUMPI DUP1 PUSH4 0xF2FDE38B EQ PUSH2 0x10A JUMPI DUP1 PUSH4 0xF96DAE0A EQ PUSH2 0x11D JUMPI PUSH1 0x0 DUP1 REVERT JUMPDEST DUP1 PUSH4 0x3971A957 EQ PUSH2 0x8D JUMPI DUP1 PUSH4 0x45DAA976 EQ PUSH2 0x97 JUMPI DUP1 PUSH4 0x53556559 EQ PUSH2 0x9F JUMPI DUP1 PUSH4 0x715018A6 EQ PUSH2 0xB2 JUMPI JUMPDEST PUSH1 0x0 DUP1 REVERT JUMPDEST PUSH2 0x95 PUSH2 0x144 JUMP JUMPDEST STOP JUMPDEST PUSH2 0x95 PUSH2 0x30C JUMP JUMPDEST PUSH2 0x95 PUSH2 0xAD CALLDATASIZE PUSH1 0x4 PUSH2 0xB3C JUMP JUMPDEST PUSH2 0x4C2 JUMP JUMPDEST PUSH2 0x95 PUSH2 0xA1D JUMP JUMPDEST PUSH1 0x0 SLOAD PUSH1 0x1 PUSH1 0x1 PUSH1 0xA0 SHL SUB AND JUMPDEST PUSH1 0x40 MLOAD PUSH1 0x1 PUSH1 0x1 PUSH1 0xA0 SHL SUB SWAP1 SWAP2 AND DUP2 MSTORE PUSH1 0x20 ADD PUSH1 0x40 MLOAD DUP1 SWAP2 SUB SWAP1 RETURN JUMPDEST PUSH2 0xC7 PUSH32 0x0 DUP2 JUMP JUMPDEST PUSH2 0x95 PUSH2 0x118 CALLDATASIZE PUSH1 0x4 PUSH2 0xB55 JUMP JUMPDEST PUSH2 0xA51 JUMP JUMPDEST PUSH2 0xC7 PUSH32 0x0 DUP2 JUMP JUMPDEST PUSH1 0x0 SLOAD PUSH1 0x1 PUSH1 0x1 PUSH1 0xA0 SHL SUB AND CALLER EQ PUSH2 0x177 JUMPI PUSH1 0x40 MLOAD PUSH3 0x461BCD PUSH1 0xE5 SHL DUP2 MSTORE PUSH1 0x4 ADD PUSH2 0x16E SWAP1 PUSH2 0xB85 JUMP JUMPDEST PUSH1 0x40 MLOAD DUP1 SWAP2 SUB SWAP1 REVERT JUMPDEST PUSH1 0x40 MLOAD PUSH4 0x70A08231 PUSH1 0xE0 SHL DUP2 MSTORE ADDRESS PUSH1 0x4 DUP3 ADD MSTORE PUSH32 0x0 PUSH1 0x1 PUSH1 0x1 PUSH1 0xA0 SHL SUB AND SWAP1 PUSH4 0xA9059CBB SWAP1 PUSH32 0x0 SWAP1 DUP4 SWAP1 PUSH4 0x70A08231 SWAP1 PUSH1 0x24 ADD PUSH1 0x20 PUSH1 0x40 MLOAD DUP1 DUP4 SUB DUP2 DUP7 GAS STATICCALL ISZERO DUP1 ISZERO PUSH2 0x205 JUMPI RETURNDATASIZE PUSH1 0x0 DUP1 RETURNDATACOPY RETURNDATASIZE PUSH1 0x0 REVERT JUMPDEST POP POP POP POP PUSH1 0x40 MLOAD RETURNDATASIZE PUSH1 0x1F NOT PUSH1 0x1F DUP3 ADD AND DUP3 ADD DUP1 PUSH1 0x40 MSTORE POP DUP2 ADD SWAP1 PUSH2 0x229 SWAP2 SWAP1 PUSH2 0xBBA JUMP JUMPDEST PUSH1 0x40 MLOAD PUSH1 0x1 PUSH1 0x1 PUSH1 0xE0 SHL SUB NOT PUSH1 0xE0 DUP6 SWAP1 SHL AND DUP2 MSTORE PUSH1 0x1 PUSH1 0x1 PUSH1 0xA0 SHL SUB SWAP1 SWAP3 AND PUSH1 0x4 DUP4 ADD MSTORE PUSH1 0x24 DUP3 ADD MSTORE PUSH1 0x44 ADD PUSH1 0x20 PUSH1 0x40 MLOAD DUP1 DUP4 SUB DUP2 PUSH1 0x0 DUP8 GAS CALL ISZERO DUP1 ISZERO PUSH2 0x274 JUMPI RETURNDATASIZE PUSH1 0x0 DUP1 RETURNDATACOPY RETURNDATASIZE PUSH1 0x0 REVERT JUMPDEST POP POP POP POP PUSH1 0x40 MLOAD RETURNDATASIZE PUSH1 0x1F NOT PUSH1 0x1F DUP3 ADD AND DUP3 ADD DUP1 PUSH1 0x40 MSTORE POP DUP2 ADD SWAP1 PUSH2 0x298 SWAP2 SWAP1 PUSH2 0xBD3 JUMP JUMPDEST PUSH2 0x30A JUMPI PUSH1 0x40 MLOAD PUSH3 0x461BCD PUSH1 0xE5 SHL DUP2 MSTORE PUSH1 0x20 PUSH1 0x4 DUP3 ADD MSTORE PUSH1 0x39 PUSH1 0x24 DUP3 ADD MSTORE PUSH32 0x476F7665726E616E636545786368616E6765723A3A7769746864726177476F76 PUSH1 0x44 DUP3 ADD MSTORE PUSH32 0x65726E616E63653A205769746864726177206661696C65642E00000000000000 PUSH1 0x64 DUP3 ADD MSTORE PUSH1 0x84 ADD PUSH2 0x16E JUMP JUMPDEST JUMP JUMPDEST PUSH1 0x0 SLOAD PUSH1 0x1 PUSH1 0x1 PUSH1 0xA0 SHL SUB AND CALLER EQ PUSH2 0x336 JUMPI PUSH1 0x40 MLOAD PUSH3 0x461BCD PUSH1 0xE5 SHL DUP2 MSTORE PUSH1 0x4 ADD PUSH2 0x16E SWAP1 PUSH2 0xB85 JUMP JUMPDEST PUSH1 0x40 MLOAD PUSH4 0x70A08231 PUSH1 0xE0 SHL DUP2 MSTORE ADDRESS PUSH1 0x4 DUP3 ADD MSTORE PUSH32 0x0 PUSH1 0x1 PUSH1 0x1 PUSH1 0xA0 SHL SUB AND SWAP1 PUSH4 0xA9059CBB SWAP1 PUSH32 0x0 SWAP1 DUP4 SWAP1 PUSH4 0x70A08231 SWAP1 PUSH1 0x24 ADD PUSH1 0x20 PUSH1 0x40 MLOAD DUP1 DUP4 SUB DUP2 DUP7 GAS STATICCALL ISZERO DUP1 ISZERO PUSH2 0x3C4 JUMPI RETURNDATASIZE PUSH1 0x0 DUP1 RETURNDATACOPY RETURNDATASIZE PUSH1 0x0 REVERT JUMPDEST POP POP POP POP PUSH1 0x40 MLOAD RETURNDATASIZE PUSH1 0x1F NOT PUSH1 0x1F DUP3 ADD AND DUP3 ADD DUP1 PUSH1 0x40 MSTORE POP DUP2 ADD SWAP1 PUSH2 0x3E8 SWAP2 SWAP1 PUSH2 0xBBA JUMP JUMPDEST PUSH1 0x40 MLOAD PUSH1 0x1 PUSH1 0x1 PUSH1 0xE0 SHL SUB NOT PUSH1 0xE0 DUP6 SWAP1 SHL AND DUP2 MSTORE PUSH1 0x1 PUSH1 0x1 PUSH1 0xA0 SHL SUB SWAP1 SWAP3 AND PUSH1 0x4 DUP4 ADD MSTORE PUSH1 0x24 DUP3 ADD MSTORE PUSH1 0x44 ADD PUSH1 0x20 PUSH1 0x40 MLOAD DUP1 DUP4 SUB DUP2 PUSH1 0x0 DUP8 GAS CALL ISZERO DUP1 ISZERO PUSH2 0x433 JUMPI RETURNDATASIZE PUSH1 0x0 DUP1 RETURNDATACOPY RETURNDATASIZE PUSH1 0x0 REVERT JUMPDEST POP POP POP POP PUSH1 0x40 MLOAD RETURNDATASIZE PUSH1 0x1F NOT PUSH1 0x1F DUP3 ADD AND DUP3 ADD DUP1 PUSH1 0x40 MSTORE POP DUP2 ADD SWAP1 PUSH2 0x457 SWAP2 SWAP1 PUSH2 0xBD3 JUMP JUMPDEST PUSH2 0x30A JUMPI PUSH1 0x40 MLOAD PUSH3 0x461BCD PUSH1 0xE5 SHL DUP2 MSTORE PUSH1 0x20 PUSH1 0x4 DUP3 ADD MSTORE PUSH1 0x36 PUSH1 0x24 DUP3 ADD MSTORE PUSH32 0x476F7665726E616E636545786368616E6765723A3A7769746864726177557469 PUSH1 0x44 DUP3 ADD MSTORE PUSH22 0x3634BA3C9D102BB4BA34323930BB903330B4B632B217 PUSH1 0x51 SHL PUSH1 0x64 DUP3 ADD MSTORE PUSH1 0x84 ADD PUSH2 0x16E JUMP JUMPDEST PUSH32 0x0 TIMESTAMP GT ISZERO PUSH2 0x558 JUMPI PUSH1 0x40 MLOAD PUSH3 0x461BCD PUSH1 0xE5 SHL DUP2 MSTORE PUSH1 0x20 PUSH1 0x4 DUP3 ADD MSTORE PUSH1 0x39 PUSH1 0x24 DUP3 ADD MSTORE PUSH32 0x476F7665726E616E636545786368616E6765723A3A65786368616E67653A2045 PUSH1 0x44 DUP3 ADD MSTORE PUSH32 0x786368616E676520706572696F642068617320656E6465642E00000000000000 PUSH1 0x64 DUP3 ADD MSTORE PUSH1 0x84 ADD PUSH2 0x16E JUMP JUMPDEST PUSH1 0x40 MLOAD PUSH4 0x6EB1769F PUSH1 0xE1 SHL DUP2 MSTORE CALLER PUSH1 0x4 DUP3 ADD MSTORE ADDRESS PUSH1 0x24 DUP3 ADD MSTORE PUSH1 0x0 SWAP1 PUSH32 0x0 PUSH1 0x1 PUSH1 0x1 PUSH1 0xA0 SHL SUB AND SWAP1 PUSH4 0xDD62ED3E SWAP1 PUSH1 0x44 ADD PUSH1 0x20 PUSH1 0x40 MLOAD DUP1 DUP4 SUB DUP2 DUP7 GAS STATICCALL ISZERO DUP1 ISZERO PUSH2 0x5C5 JUMPI RETURNDATASIZE PUSH1 0x0 DUP1 RETURNDATACOPY RETURNDATASIZE PUSH1 0x0 REVERT JUMPDEST POP POP POP POP PUSH1 0x40 MLOAD RETURNDATASIZE PUSH1 0x1F NOT PUSH1 0x1F DUP3 ADD AND DUP3 ADD DUP1 PUSH1 0x40 MSTORE POP DUP2 ADD SWAP1 PUSH2 0x5E9 SWAP2 SWAP1 PUSH2 0xBBA JUMP JUMPDEST SWAP1 POP DUP2 DUP2 LT ISZERO PUSH2 0x661 JUMPI PUSH1 0x40 MLOAD PUSH3 0x461BCD PUSH1 0xE5 SHL DUP2 MSTORE PUSH1 0x20 PUSH1 0x4 DUP3 ADD MSTORE PUSH1 0x39 PUSH1 0x24 DUP3 ADD MSTORE PUSH32 0x476F7665726E616E636545786368616E6765723A3A65786368616E67653A2054 PUSH1 0x44 DUP3 ADD MSTORE PUSH32 0x6F6B656E20616C6C6F77616E636520746F6F20736D616C6C2E00000000000000 PUSH1 0x64 DUP3 ADD MSTORE PUSH1 0x84 ADD PUSH2 0x16E JUMP JUMPDEST PUSH1 0x40 MLOAD PUSH4 0x70A08231 PUSH1 0xE0 SHL DUP2 MSTORE CALLER PUSH1 0x4 DUP3 ADD MSTORE PUSH1 0x0 SWAP1 PUSH32 0x0 PUSH1 0x1 PUSH1 0x1 PUSH1 0xA0 SHL SUB AND SWAP1 PUSH4 0x70A08231 SWAP1 PUSH1 0x24 ADD PUSH1 0x20 PUSH1 0x40 MLOAD DUP1 DUP4 SUB DUP2 DUP7 GAS STATICCALL ISZERO DUP1 ISZERO PUSH2 0x6C8 JUMPI RETURNDATASIZE PUSH1 0x0 DUP1 RETURNDATACOPY RETURNDATASIZE PUSH1 0x0 REVERT JUMPDEST POP POP POP POP PUSH1 0x40 MLOAD RETURNDATASIZE PUSH1 0x1F NOT PUSH1 0x1F DUP3 ADD AND DUP3 ADD DUP1 PUSH1 0x40 MSTORE POP DUP2 ADD SWAP1 PUSH2 0x6EC SWAP2 SWAP1 PUSH2 0xBBA JUMP JUMPDEST SWAP1 POP DUP3 DUP2 LT ISZERO PUSH2 0x799 JUMPI PUSH1 0x40 MLOAD PUSH3 0x461BCD PUSH1 0xE5 SHL DUP2 MSTORE PUSH1 0x20 PUSH1 0x4 DUP3 ADD MSTORE PUSH1 0x66 PUSH1 0x24 DUP3 ADD MSTORE PUSH32 0x476F7665726E616E636545786368616E6765723A3A65786368616E67653A2053 PUSH1 0x44 DUP3 ADD MSTORE PUSH32 0x656E64657227732062616C616E6365206D757374206265206772656174657220 PUSH1 0x64 DUP3 ADD MSTORE PUSH32 0x7468616E206F7220657175616C20746F2074686520616D6F756E742072657175 PUSH1 0x84 DUP3 ADD MSTORE PUSH6 0x32B9BA32B217 PUSH1 0xD1 SHL PUSH1 0xA4 DUP3 ADD MSTORE PUSH1 0xC4 ADD PUSH2 0x16E JUMP JUMPDEST PUSH1 0x40 MLOAD PUSH4 0x23B872DD PUSH1 0xE0 SHL DUP2 MSTORE CALLER PUSH1 0x4 DUP3 ADD MSTORE PUSH1 0x1 PUSH1 0x1 PUSH1 0xA0 SHL SUB PUSH32 0x0 DUP2 AND PUSH1 0x24 DUP4 ADD MSTORE PUSH1 0x44 DUP3 ADD DUP6 SWAP1 MSTORE PUSH32 0x0 AND SWAP1 PUSH4 0x23B872DD SWAP1 PUSH1 0x64 ADD PUSH1 0x20 PUSH1 0x40 MLOAD DUP1 DUP4 SUB DUP2 PUSH1 0x0 DUP8 GAS CALL ISZERO DUP1 ISZERO PUSH2 0x82E JUMPI RETURNDATASIZE PUSH1 0x0 DUP1 RETURNDATACOPY RETURNDATASIZE PUSH1 0x0 REVERT JUMPDEST POP POP POP POP PUSH1 0x40 MLOAD RETURNDATASIZE PUSH1 0x1F NOT PUSH1 0x1F DUP3 ADD AND DUP3 ADD DUP1 PUSH1 0x40 MSTORE POP DUP2 ADD SWAP1 PUSH2 0x852 SWAP2 SWAP1 PUSH2 0xBD3 JUMP JUMPDEST PUSH2 0x8CE JUMPI PUSH1 0x40 MLOAD PUSH3 0x461BCD PUSH1 0xE5 SHL DUP2 MSTORE PUSH1 0x20 PUSH1 0x4 DUP3 ADD MSTORE PUSH1 0x41 PUSH1 0x24 DUP3 ADD MSTORE PUSH32 0x476F7665726E616E636545786368616E6765723A3A65786368616E67653A2054 PUSH1 0x44 DUP3 ADD MSTORE PUSH32 0x72616E73666572206F66207574696C69747920746F6B656E73206661696C6564 PUSH1 0x64 DUP3 ADD MSTORE PUSH1 0x17 PUSH1 0xF9 SHL PUSH1 0x84 DUP3 ADD MSTORE PUSH1 0xA4 ADD PUSH2 0x16E JUMP JUMPDEST PUSH1 0x40 MLOAD PUSH4 0xA9059CBB PUSH1 0xE0 SHL DUP2 MSTORE CALLER PUSH1 0x4 DUP3 ADD MSTORE PUSH1 0x24 DUP2 ADD DUP5 SWAP1 MSTORE PUSH32 0x0 PUSH1 0x1 PUSH1 0x1 PUSH1 0xA0 SHL SUB AND SWAP1 PUSH4 0xA9059CBB SWAP1 PUSH1 0x44 ADD PUSH1 0x20 PUSH1 0x40 MLOAD DUP1 DUP4 SUB DUP2 PUSH1 0x0 DUP8 GAS CALL ISZERO DUP1 ISZERO PUSH2 0x93B JUMPI RETURNDATASIZE PUSH1 0x0 DUP1 RETURNDATACOPY RETURNDATASIZE PUSH1 0x0 REVERT JUMPDEST POP POP POP POP PUSH1 0x40 MLOAD RETURNDATASIZE PUSH1 0x1F NOT PUSH1 0x1F DUP3 ADD AND DUP3 ADD DUP1 PUSH1 0x40 MSTORE POP DUP2 ADD SWAP1 PUSH2 0x95F SWAP2 SWAP1 PUSH2 0xBD3 JUMP JUMPDEST PUSH2 0x9DF JUMPI PUSH1 0x40 MLOAD PUSH3 0x461BCD PUSH1 0xE5 SHL DUP2 MSTORE PUSH1 0x20 PUSH1 0x4 DUP3 ADD MSTORE PUSH1 0x44 PUSH1 0x24 DUP3 ADD DUP2 SWAP1 MSTORE PUSH32 0x476F7665726E616E636545786368616E6765723A3A65786368616E67653A2054 SWAP1 DUP3 ADD MSTORE PUSH32 0x72616E73666572206F6620676F7665726E616E636520746F6B656E7320666169 PUSH1 0x64 DUP3 ADD MSTORE PUSH4 0x3632B217 PUSH1 0xE1 SHL PUSH1 0x84 DUP3 ADD MSTORE PUSH1 0xA4 ADD PUSH2 0x16E JUMP JUMPDEST PUSH1 0x40 DUP1 MLOAD CALLER DUP2 MSTORE PUSH1 0x20 DUP2 ADD DUP6 SWAP1 MSTORE PUSH32 0x6EA412B125ED242BC34C304877264761547306C2429C03D7FD1B477AA61A3F5D SWAP2 ADD PUSH1 0x40 MLOAD DUP1 SWAP2 SUB SWAP1 LOG1 POP POP POP JUMP JUMPDEST PUSH1 0x0 SLOAD PUSH1 0x1 PUSH1 0x1 PUSH1 0xA0 SHL SUB AND CALLER EQ PUSH2 0xA47 JUMPI PUSH1 0x40 MLOAD PUSH3 0x461BCD PUSH1 0xE5 SHL DUP2 MSTORE PUSH1 0x4 ADD PUSH2 0x16E SWAP1 PUSH2 0xB85 JUMP JUMPDEST PUSH2 0x30A PUSH1 0x0 PUSH2 0xAEC JUMP JUMPDEST PUSH1 0x0 SLOAD PUSH1 0x1 PUSH1 0x1 PUSH1 0xA0 SHL SUB AND CALLER EQ PUSH2 0xA7B JUMPI PUSH1 0x40 MLOAD PUSH3 0x461BCD PUSH1 0xE5 SHL DUP2 MSTORE PUSH1 0x4 ADD PUSH2 0x16E SWAP1 PUSH2 0xB85 JUMP JUMPDEST PUSH1 0x1 PUSH1 0x1 PUSH1 0xA0 SHL SUB DUP2 AND PUSH2 0xAE0 JUMPI PUSH1 0x40 MLOAD PUSH3 0x461BCD PUSH1 0xE5 SHL DUP2 MSTORE PUSH1 0x20 PUSH1 0x4 DUP3 ADD MSTORE PUSH1 0x26 PUSH1 0x24 DUP3 ADD MSTORE PUSH32 0x4F776E61626C653A206E6577206F776E657220697320746865207A65726F2061 PUSH1 0x44 DUP3 ADD MSTORE PUSH6 0x646472657373 PUSH1 0xD0 SHL PUSH1 0x64 DUP3 ADD MSTORE PUSH1 0x84 ADD PUSH2 0x16E JUMP JUMPDEST PUSH2 0xAE9 DUP2 PUSH2 0xAEC JUMP JUMPDEST POP JUMP JUMPDEST PUSH1 0x0 DUP1 SLOAD PUSH1 0x1 PUSH1 0x1 PUSH1 0xA0 SHL SUB DUP4 DUP2 AND PUSH1 0x1 PUSH1 0x1 PUSH1 0xA0 SHL SUB NOT DUP4 AND DUP2 OR DUP5 SSTORE PUSH1 0x40 MLOAD SWAP2 SWAP1 SWAP3 AND SWAP3 DUP4 SWAP2 PUSH32 0x8BE0079C531659141344CD1FD0A4F28419497F9722A3DAAFE3B4186F6B6457E0 SWAP2 SWAP1 LOG3 POP POP JUMP JUMPDEST PUSH1 0x0 PUSH1 0x20 DUP3 DUP5 SUB SLT ISZERO PUSH2 0xB4E JUMPI PUSH1 0x0 DUP1 REVERT JUMPDEST POP CALLDATALOAD SWAP2 SWAP1 POP JUMP JUMPDEST PUSH1 0x0 PUSH1 0x20 DUP3 DUP5 SUB SLT ISZERO PUSH2 0xB67 JUMPI PUSH1 0x0 DUP1 REVERT JUMPDEST DUP2 CALLDATALOAD PUSH1 0x1 PUSH1 0x1 PUSH1 0xA0 SHL SUB DUP2 AND DUP2 EQ PUSH2 0xB7E JUMPI PUSH1 0x0 DUP1 REVERT JUMPDEST SWAP4 SWAP3 POP POP POP JUMP JUMPDEST PUSH1 0x20 DUP1 DUP3 MSTORE DUP2 DUP2 ADD MSTORE PUSH32 0x4F776E61626C653A2063616C6C6572206973206E6F7420746865206F776E6572 PUSH1 0x40 DUP3 ADD MSTORE PUSH1 0x60 ADD SWAP1 JUMP JUMPDEST PUSH1 0x0 PUSH1 0x20 DUP3 DUP5 SUB SLT ISZERO PUSH2 0xBCC JUMPI PUSH1 0x0 DUP1 REVERT JUMPDEST POP MLOAD SWAP2 SWAP1 POP JUMP JUMPDEST PUSH1 0x0 PUSH1 0x20 DUP3 DUP5 SUB SLT ISZERO PUSH2 0xBE5 JUMPI PUSH1 0x0 DUP1 REVERT JUMPDEST DUP2 MLOAD DUP1 ISZERO ISZERO DUP2 EQ PUSH2 0xB7E JUMPI PUSH1 0x0 DUP1 REVERT INVALID LOG2 PUSH5 0x6970667358 0x22 SLT KECCAK256 DELEGATECALL 0xE0 XOR 0xB1 0xD LT SWAP1 0xAD PUSH29 0x4EC6AE6D3B76ACB8B3149DDFC7146B78E06169662C115D64736F6C6343 STOP ADDMOD 0xD STOP CALLER "
				},
				"gasEstimates": {
					"creation": {
						"codeDepositCost": "623000",
						"executionCost": "infinite",
						"totalCost": "infinite"
					},
					"external": {
						"exchange(uint256)": "infinite",
						"governanceToken()": "infinite",
						"owner()": "2308",
						"renounceOwnership()": "28181",
						"transferOwnership(address)": "28318",
						"utilityToken()": "infinite",
						"withdrawGovernance()": "infinite",
						"withdrawUtility()": "infinite"
					}
				},
				"methodIdentifiers": {
					"exchange(uint256)": "53556559",
					"governanceToken()": "f96dae0a",
					"owner()": "8da5cb5b",
					"renounceOwnership()": "715018a6",
					"transferOwnership(address)": "f2fde38b",
					"utilityToken()": "ae86ed89",
					"withdrawGovernance()": "3971a957",
					"withdrawUtility()": "45daa976"
				}
			},
			"storageLayout": {
				"storage": [
					{
						"astId": 190,
						"contract": "contracts/GovernanceExchanger.sol:GovernanceExchanger",
						"label": "_owner",
						"offset": 0,
						"slot": "0",
						"type": "t_address"
					}
				],
				"types": {
					"t_address": {
						"encoding": "inplace",
						"label": "address",
						"numberOfBytes": "20"
					}
				}
			},
			"userdoc": {
				"kind": "user",
				"methods": {},
				"version": 1
			}
		}
	}
}