{
  "_format": "hh-sol-artifact-1",
  "contractName": "SignataAvatar",
  "sourceName": "contracts/SignataAvatar.sol",
  "abi": [
    {
      "inputs": [
        {
          "internalType": "string",
          "name": "name_",
          "type": "string"
        },
        {
          "internalType": "string",
          "name": "symbol_",
          "type": "string"
        },
        {
          "internalType": "string",
          "name": "minterSchemeURI_",
          "type": "string"
        },
        {
          "internalType": "address",
          "name": "rootAdmin_",
          "type": "address"
        },
        {
          "internalType": "address",
          "name": "signataIdentity_",
          "type": "address"
        },
        {
          "internalType": "address",
          "name": "signataRight_",
          "type": "address"
        }
      ],
      "stateMutability": "nonpayable",
      "type": "constructor"
    },
    {
      "anonymous": false,
      "inputs": [
        {
          "indexed": true,
          "internalType": "address",
          "name": "owner",
          "type": "address"
        },
        {
          "indexed": true,
          "internalType": "address",
          "name": "approved",
          "type": "address"
        },
        {
          "indexed": true,
          "internalType": "uint256",
          "name": "tokenId",
          "type": "uint256"
        }
      ],
      "name": "Approval",
      "type": "event"
    },
    {
      "anonymous": false,
      "inputs": [
        {
          "indexed": true,
          "internalType": "address",
          "name": "owner",
          "type": "address"
        },
        {
          "indexed": true,
          "internalType": "address",
          "name": "operator",
          "type": "address"
        },
        {
          "indexed": false,
          "internalType": "bool",
          "name": "approved",
          "type": "bool"
        }
      ],
      "name": "ApprovalForAll",
      "type": "event"
    },
    {
      "anonymous": false,
      "inputs": [
        {
          "indexed": true,
          "internalType": "uint256",
          "name": "avatarId",
          "type": "uint256"
        },
        {
          "indexed": false,
          "internalType": "bytes",
          "name": "avatar",
          "type": "bytes"
        }
      ],
      "name": "MintAvatar",
      "type": "event"
    },
    {
      "anonymous": false,
      "inputs": [
        {
          "indexed": true,
          "internalType": "address",
          "name": "identity",
          "type": "address"
        },
        {
          "indexed": true,
          "internalType": "uint256",
          "name": "avatarId",
          "type": "uint256"
        }
      ],
      "name": "SetPrimary",
      "type": "event"
    },
    {
      "anonymous": false,
      "inputs": [
        {
          "indexed": true,
          "internalType": "address",
          "name": "from",
          "type": "address"
        },
        {
          "indexed": true,
          "internalType": "address",
          "name": "to",
          "type": "address"
        },
        {
          "indexed": true,
          "internalType": "uint256",
          "name": "tokenId",
          "type": "uint256"
        }
      ],
      "name": "Transfer",
      "type": "event"
    },
    {
      "inputs": [
        {
          "internalType": "address",
          "name": "to",
          "type": "address"
        },
        {
          "internalType": "uint256",
          "name": "tokenId",
          "type": "uint256"
        }
      ],
      "name": "approve",
      "outputs": [],
      "stateMutability": "nonpayable",
      "type": "function"
    },
    {
      "inputs": [
        {
          "internalType": "address",
          "name": "owner",
          "type": "address"
        }
      ],
      "name": "balanceOf",
      "outputs": [
        {
          "internalType": "uint256",
          "name": "",
          "type": "uint256"
        }
      ],
      "stateMutability": "view",
      "type": "function"
    },
    {
      "inputs": [
        {
          "internalType": "uint256",
          "name": "tokenId",
          "type": "uint256"
        }
      ],
      "name": "getApproved",
      "outputs": [
        {
          "internalType": "address",
          "name": "",
          "type": "address"
        }
      ],
      "stateMutability": "view",
      "type": "function"
    },
    {
      "inputs": [],
      "name": "getMintingSchema",
      "outputs": [
        {
          "internalType": "uint256",
          "name": "",
          "type": "uint256"
        }
      ],
      "stateMutability": "view",
      "type": "function"
    },
    {
      "inputs": [
        {
          "internalType": "address",
          "name": "delegate",
          "type": "address"
        }
      ],
      "name": "getPrimaryAvatar",
      "outputs": [
        {
          "internalType": "uint256",
          "name": "",
          "type": "uint256"
        }
      ],
      "stateMutability": "view",
      "type": "function"
    },
    {
      "inputs": [
        {
          "internalType": "address",
          "name": "owner",
          "type": "address"
        },
        {
          "internalType": "address",
          "name": "operator",
          "type": "address"
        }
      ],
      "name": "isApprovedForAll",
      "outputs": [
        {
          "internalType": "bool",
          "name": "",
          "type": "bool"
        }
      ],
      "stateMutability": "view",
      "type": "function"
    },
    {
      "inputs": [
        {
          "internalType": "address",
          "name": "to",
          "type": "address"
        },
        {
          "internalType": "bytes",
          "name": "avatar",
          "type": "bytes"
        }
      ],
      "name": "mintAvatar",
      "outputs": [
        {
          "internalType": "uint256",
          "name": "",
          "type": "uint256"
        }
      ],
      "stateMutability": "nonpayable",
      "type": "function"
    },
    {
      "inputs": [],
      "name": "name",
      "outputs": [
        {
          "internalType": "string",
          "name": "",
          "type": "string"
        }
      ],
      "stateMutability": "view",
      "type": "function"
    },
    {
      "inputs": [
        {
          "internalType": "uint256",
          "name": "tokenId",
          "type": "uint256"
        }
      ],
      "name": "ownerOf",
      "outputs": [
        {
          "internalType": "address",
          "name": "",
          "type": "address"
        }
      ],
      "stateMutability": "view",
      "type": "function"
    },
    {
      "inputs": [
        {
          "internalType": "address",
          "name": "from",
          "type": "address"
        },
        {
          "internalType": "address",
          "name": "to",
          "type": "address"
        },
        {
          "internalType": "uint256",
          "name": "tokenId",
          "type": "uint256"
        }
      ],
      "name": "safeTransferFrom",
      "outputs": [],
      "stateMutability": "nonpayable",
      "type": "function"
    },
    {
      "inputs": [
        {
          "internalType": "address",
          "name": "from",
          "type": "address"
        },
        {
          "internalType": "address",
          "name": "to",
          "type": "address"
        },
        {
          "internalType": "uint256",
          "name": "tokenId",
          "type": "uint256"
        },
        {
          "internalType": "bytes",
          "name": "_data",
          "type": "bytes"
        }
      ],
      "name": "safeTransferFrom",
      "outputs": [],
      "stateMutability": "nonpayable",
      "type": "function"
    },
    {
      "inputs": [
        {
          "internalType": "address",
          "name": "operator",
          "type": "address"
        },
        {
          "internalType": "bool",
          "name": "approved",
          "type": "bool"
        }
      ],
      "name": "setApprovalForAll",
      "outputs": [],
      "stateMutability": "nonpayable",
      "type": "function"
    },
    {
      "inputs": [
        {
          "internalType": "uint256",
          "name": "avatarId",
          "type": "uint256"
        }
      ],
      "name": "setPrimaryAvatar",
      "outputs": [],
      "stateMutability": "nonpayable",
      "type": "function"
    },
    {
      "inputs": [
        {
          "internalType": "bytes4",
          "name": "interfaceId",
          "type": "bytes4"
        }
      ],
      "name": "supportsInterface",
      "outputs": [
        {
          "internalType": "bool",
          "name": "",
          "type": "bool"
        }
      ],
      "stateMutability": "pure",
      "type": "function"
    },
    {
      "inputs": [],
      "name": "symbol",
      "outputs": [
        {
          "internalType": "string",
          "name": "",
          "type": "string"
        }
      ],
      "stateMutability": "view",
      "type": "function"
    },
    {
      "inputs": [
        {
          "internalType": "uint256",
          "name": "index",
          "type": "uint256"
        }
      ],
      "name": "tokenByIndex",
      "outputs": [
        {
          "internalType": "uint256",
          "name": "",
          "type": "uint256"
        }
      ],
      "stateMutability": "view",
      "type": "function"
    },
    {
      "inputs": [
        {
          "internalType": "address",
          "name": "owner",
          "type": "address"
        },
        {
          "internalType": "uint256",
          "name": "index",
          "type": "uint256"
        }
      ],
      "name": "tokenOfOwnerByIndex",
      "outputs": [
        {
          "internalType": "uint256",
          "name": "",
          "type": "uint256"
        }
      ],
      "stateMutability": "view",
      "type": "function"
    },
    {
      "inputs": [
        {
          "internalType": "uint256",
          "name": "tokenId",
          "type": "uint256"
        }
      ],
      "name": "tokenURI",
      "outputs": [
        {
          "internalType": "string",
          "name": "",
          "type": "string"
        }
      ],
      "stateMutability": "view",
      "type": "function"
    },
    {
      "inputs": [],
      "name": "totalSupply",
      "outputs": [
        {
          "internalType": "uint256",
          "name": "",
          "type": "uint256"
        }
      ],
      "stateMutability": "view",
      "type": "function"
    },
    {
      "inputs": [
        {
          "internalType": "address",
          "name": "from",
          "type": "address"
        },
        {
          "internalType": "address",
          "name": "to",
          "type": "address"
        },
        {
          "internalType": "uint256",
          "name": "tokenId",
          "type": "uint256"
        }
      ],
      "name": "transferFrom",
      "outputs": [],
      "stateMutability": "nonpayable",
      "type": "function"
    }
  ],
  "bytecode": "0x60a06040523480156200001157600080fd5b5060405162004fb238038062004fb283398181016040528101906200003791906200045a565b85600090805190602001906200004f929190620001a8565b50846001908051906020019062000068929190620001a8565b5081600260006101000a81548173ffffffffffffffffffffffffffffffffffffffff021916908373ffffffffffffffffffffffffffffffffffffffff16021790555080600360006101000a81548173ffffffffffffffffffffffffffffffffffffffff021916908373ffffffffffffffffffffffffffffffffffffffff160217905550600360009054906101000a900473ffffffffffffffffffffffffffffffffffffffff1673ffffffffffffffffffffffffffffffffffffffff1663b4b44b4184600180886040518563ffffffff1660e01b81526004016200014f9493929190620005de565b6020604051808303816000875af11580156200016f573d6000803e3d6000fd5b505050506040513d601f19601f820116820180604052508101906200019591906200066d565b6080818152505050505050505062000704565b828054620001b690620006ce565b90600052602060002090601f016020900481019282620001da576000855562000226565b82601f10620001f557805160ff191683800117855562000226565b8280016001018555821562000226579182015b828111156200022557825182559160200191906001019062000208565b5b50905062000235919062000239565b5090565b5b80821115620002545760008160009055506001016200023a565b5090565b6000604051905090565b600080fd5b600080fd5b600080fd5b600080fd5b6000601f19601f8301169050919050565b7f4e487b7100000000000000000000000000000000000000000000000000000000600052604160045260246000fd5b620002c18262000276565b810181811067ffffffffffffffff82111715620002e357620002e262000287565b5b80604052505050565b6000620002f862000258565b9050620003068282620002b6565b919050565b600067ffffffffffffffff82111562000329576200032862000287565b5b620003348262000276565b9050602081019050919050565b60005b838110156200036157808201518184015260208101905062000344565b8381111562000371576000848401525b50505050565b60006200038e62000388846200030b565b620002ec565b905082815260208101848484011115620003ad57620003ac62000271565b5b620003ba84828562000341565b509392505050565b600082601f830112620003da57620003d96200026c565b5b8151620003ec84826020860162000377565b91505092915050565b600073ffffffffffffffffffffffffffffffffffffffff82169050919050565b60006200042282620003f5565b9050919050565b620004348162000415565b81146200044057600080fd5b50565b600081519050620004548162000429565b92915050565b60008060008060008060c087890312156200047a576200047962000262565b5b600087015167ffffffffffffffff8111156200049b576200049a62000267565b5b620004a989828a01620003c2565b965050602087015167ffffffffffffffff811115620004cd57620004cc62000267565b5b620004db89828a01620003c2565b955050604087015167ffffffffffffffff811115620004ff57620004fe62000267565b5b6200050d89828a01620003c2565b94505060606200052089828a0162000443565b93505060806200053389828a0162000443565b92505060a06200054689828a0162000443565b9150509295509295509295565b6200055e8162000415565b82525050565b60008115159050919050565b6200057b8162000564565b82525050565b600081519050919050565b600082825260208201905092915050565b6000620005aa8262000581565b620005b681856200058c565b9350620005c881856020860162000341565b620005d38162000276565b840191505092915050565b6000608082019050620005f5600083018762000553565b62000604602083018662000570565b62000613604083018562000570565b81810360608301526200062781846200059d565b905095945050505050565b6000819050919050565b620006478162000632565b81146200065357600080fd5b50565b60008151905062000667816200063c565b92915050565b60006020828403121562000686576200068562000262565b5b6000620006968482850162000656565b91505092915050565b7f4e487b7100000000000000000000000000000000000000000000000000000000600052602260045260246000fd5b60006002820490506001821680620006e757607f821691505b60208210811415620006fe57620006fd6200069f565b5b50919050565b60805161488b6200072760003960008181610ba90152611d5a015261488b6000f3fe608060405234801561001057600080fd5b506004361061012c5760003560e01c80635923276d116100ad578063b75cb9be11610071578063b75cb9be14610369578063b88d4fde14610399578063c87b56dd146103b5578063e985e9c5146103e5578063ef449b37146104155761012c565b80635923276d1461029f5780636352211e146102cf57806370a08231146102ff57806395d89b411461032f578063a22cb4651461034d5761012c565b806318160ddd116100f457806318160ddd146101e957806323b872dd146102075780632f745c591461022357806342842e0e146102535780634f6ccce71461026f5761012c565b806301ffc9a71461013157806306fdde0314610161578063081812fc1461017f578063095ea7b3146101af578063098b9341146101cb575b600080fd5b61014b6004803603810190610146919061329f565b610431565b60405161015891906132e7565b60405180910390f35b6101696105d3565b604051610176919061339b565b60405180910390f35b610199600480360381019061019491906133f3565b610665565b6040516101a69190613461565b60405180910390f35b6101c960048036038101906101c491906134a8565b610744565b005b6101d3610ba5565b6040516101e091906134f7565b60405180910390f35b6101f1610bcd565b6040516101fe91906134f7565b60405180910390f35b610221600480360381019061021c9190613512565b610bda565b005b61023d600480360381019061023891906134a8565b61182e565b60405161024a91906134f7565b60405180910390f35b61026d60048036038101906102689190613512565b6119d7565b005b610289600480360381019061028491906133f3565b6119f7565b60405161029691906134f7565b60405180910390f35b6102b960048036038101906102b491906135ca565b611a66565b6040516102c691906134f7565b60405180910390f35b6102e960048036038101906102e491906133f3565b612241565b6040516102f69190613461565b60405180910390f35b6103196004803603810190610314919061362a565b6123bc565b60405161032691906134f7565b60405180910390f35b61033761250c565b604051610344919061339b565b60405180910390f35b61036760048036038101906103629190613683565b61259e565b005b610383600480360381019061037e919061362a565b612923565b60405161039091906134f7565b60405180910390f35b6103b360048036038101906103ae91906137f3565b612a39565b005b6103cf60048036038101906103ca91906133f3565b612a95565b6040516103dc919061339b565b60405180910390f35b6103ff60048036038101906103fa9190613876565b612bdd565b60405161040c91906132e7565b60405180910390f35b61042f600480360381019061042a91906133f3565b612d3b565b005b60007f01ffc9a7000000000000000000000000000000000000000000000000000000007bffffffffffffffffffffffffffffffffffffffffffffffffffffffff1916827bffffffffffffffffffffffffffffffffffffffffffffffffffffffff191614806104fc57507f80ac58cd000000000000000000000000000000000000000000000000000000007bffffffffffffffffffffffffffffffffffffffffffffffffffffffff1916827bffffffffffffffffffffffffffffffffffffffffffffffffffffffff1916145b8061056457507f780e9d63000000000000000000000000000000000000000000000000000000007bffffffffffffffffffffffffffffffffffffffffffffffffffffffff1916827bffffffffffffffffffffffffffffffffffffffffffffffffffffffff1916145b806105cc57507f5b5e139f000000000000000000000000000000000000000000000000000000007bffffffffffffffffffffffffffffffffffffffffffffffffffffffff1916827bffffffffffffffffffffffffffffffffffffffffffffffffffffffff1916145b9050919050565b6060600080546105e2906138e5565b80601f016020809104026020016040519081016040528092919081815260200182805461060e906138e5565b801561065b5780601f106106305761010080835404028352916020019161065b565b820191906000526020600020905b81548152906001019060200180831161063e57829003601f168201915b5050505050905090565b60008073ffffffffffffffffffffffffffffffffffffffff166004600084815260200190815260200160002060009054906101000a900473ffffffffffffffffffffffffffffffffffffffff1673ffffffffffffffffffffffffffffffffffffffff161415610709576040517f08c379a000000000000000000000000000000000000000000000000000000000815260040161070090613989565b60405180910390fd5b6007600083815260200190815260200160002060009054906101000a900473ffffffffffffffffffffffffffffffffffffffff169050919050565b60006004600083815260200190815260200160002060009054906101000a900473ffffffffffffffffffffffffffffffffffffffff169050600073ffffffffffffffffffffffffffffffffffffffff168173ffffffffffffffffffffffffffffffffffffffff1614156107ec576040517f08c379a00000000000000000000000000000000000000000000000000000000081526004016107e390613a1b565b60405180910390fd5b8073ffffffffffffffffffffffffffffffffffffffff168373ffffffffffffffffffffffffffffffffffffffff16141561085b576040517f08c379a000000000000000000000000000000000000000000000000000000000815260040161085290613ad3565b60405180910390fd5b600061087c8273ffffffffffffffffffffffffffffffffffffffff1661309f565b1561088957819050610a73565b600260009054906101000a900473ffffffffffffffffffffffffffffffffffffffff1673ffffffffffffffffffffffffffffffffffffffff1663544d8564836040518263ffffffff1660e01b81526004016108e49190613461565b602060405180830381865afa158015610901573d6000803e3d6000fd5b505050506040513d601f19601f820116820180604052508101906109259190613b08565b90508073ffffffffffffffffffffffffffffffffffffffff168473ffffffffffffffffffffffffffffffffffffffff161415610996576040517f08c379a000000000000000000000000000000000000000000000000000000000815260040161098d90613ad3565b60405180910390fd5b600260009054906101000a900473ffffffffffffffffffffffffffffffffffffffff1673ffffffffffffffffffffffffffffffffffffffff16634a4fbeec826040518263ffffffff1660e01b81526004016109f19190613461565b602060405180830381865afa158015610a0e573d6000803e3d6000fd5b505050506040513d601f19601f82011682018060405250810190610a329190613b4a565b15610a72576040517f08c379a0000000000000000000000000000000000000000000000000000000008152600401610a6990613be9565b60405180910390fd5b5b8073ffffffffffffffffffffffffffffffffffffffff163373ffffffffffffffffffffffffffffffffffffffff161480610ab35750610ab28233612bdd565b5b610af2576040517f08c379a0000000000000000000000000000000000000000000000000000000008152600401610ae990613c7b565b60405180910390fd5b836007600085815260200190815260200160002060006101000a81548173ffffffffffffffffffffffffffffffffffffffff021916908373ffffffffffffffffffffffffffffffffffffffff160217905550828473ffffffffffffffffffffffffffffffffffffffff168273ffffffffffffffffffffffffffffffffffffffff167f8c5be1e5ebec7d5bd14f71427d1e84f3dd0314c0f7b2291e5b200ac8c7c3b92560405160405180910390a450505050565b60007f0000000000000000000000000000000000000000000000000000000000000000905090565b6000600c80549050905090565b600080600073ffffffffffffffffffffffffffffffffffffffff166004600085815260200190815260200160002060009054906101000a900473ffffffffffffffffffffffffffffffffffffffff1673ffffffffffffffffffffffffffffffffffffffff161415610c80576040517f08c379a0000000000000000000000000000000000000000000000000000000008152600401610c7790613989565b60405180910390fd5b600073ffffffffffffffffffffffffffffffffffffffff168473ffffffffffffffffffffffffffffffffffffffff161415610cf0576040517f08c379a0000000000000000000000000000000000000000000000000000000008152600401610ce790613d0d565b60405180910390fd5b610d0f8573ffffffffffffffffffffffffffffffffffffffff1661309f565b15610d1c57849150610e97565b600260009054906101000a900473ffffffffffffffffffffffffffffffffffffffff1673ffffffffffffffffffffffffffffffffffffffff16632fea7b81866040518263ffffffff1660e01b8152600401610d779190613461565b602060405180830381865afa158015610d94573d6000803e3d6000fd5b505050506040513d601f19601f82011682018060405250810190610db89190613b08565b9150600260009054906101000a900473ffffffffffffffffffffffffffffffffffffffff1673ffffffffffffffffffffffffffffffffffffffff16634a4fbeec836040518263ffffffff1660e01b8152600401610e159190613461565b602060405180830381865afa158015610e32573d6000803e3d6000fd5b505050506040513d601f19601f82011682018060405250810190610e569190613b4a565b15610e96576040517f08c379a0000000000000000000000000000000000000000000000000000000008152600401610e8d90613be9565b60405180910390fd5b5b8173ffffffffffffffffffffffffffffffffffffffff166004600085815260200190815260200160002060009054906101000a900473ffffffffffffffffffffffffffffffffffffffff1673ffffffffffffffffffffffffffffffffffffffff1614610f38576040517f08c379a0000000000000000000000000000000000000000000000000000000008152600401610f2f90613deb565b60405180910390fd5b8173ffffffffffffffffffffffffffffffffffffffff163373ffffffffffffffffffffffffffffffffffffffff161480610fd057506007600084815260200190815260200160002060009054906101000a900473ffffffffffffffffffffffffffffffffffffffff1673ffffffffffffffffffffffffffffffffffffffff163373ffffffffffffffffffffffffffffffffffffffff16145b806110615750600960008373ffffffffffffffffffffffffffffffffffffffff1673ffffffffffffffffffffffffffffffffffffffff16815260200190815260200160002060003373ffffffffffffffffffffffffffffffffffffffff1673ffffffffffffffffffffffffffffffffffffffff16815260200190815260200160002060009054906101000a900460ff165b6110a0576040517f08c379a000000000000000000000000000000000000000000000000000000000815260040161109790613ea3565b60405180910390fd5b6110bf8473ffffffffffffffffffffffffffffffffffffffff1661309f565b156110cc57839050611247565b600260009054906101000a900473ffffffffffffffffffffffffffffffffffffffff1673ffffffffffffffffffffffffffffffffffffffff16632fea7b81856040518263ffffffff1660e01b81526004016111279190613461565b602060405180830381865afa158015611144573d6000803e3d6000fd5b505050506040513d601f19601f820116820180604052508101906111689190613b08565b9050600260009054906101000a900473ffffffffffffffffffffffffffffffffffffffff1673ffffffffffffffffffffffffffffffffffffffff16634a4fbeec826040518263ffffffff1660e01b81526004016111c59190613461565b602060405180830381865afa1580156111e2573d6000803e3d6000fd5b505050506040513d601f19601f820116820180604052508101906112069190613b4a565b15611246576040517f08c379a000000000000000000000000000000000000000000000000000000000815260040161123d90613f35565b60405180910390fd5b5b82600560008473ffffffffffffffffffffffffffffffffffffffff1673ffffffffffffffffffffffffffffffffffffffff16815260200190815260200160002054141561131757600560008373ffffffffffffffffffffffffffffffffffffffff1673ffffffffffffffffffffffffffffffffffffffff1681526020019081526020016000206000905560008273ffffffffffffffffffffffffffffffffffffffff167f419eff8031cf010a000369ea097d6d7e80ef25afac84982c47a45719ffeac9f660405160405180910390a35b60006001600660008573ffffffffffffffffffffffffffffffffffffffff1673ffffffffffffffffffffffffffffffffffffffff168152602001908152602001600020546113659190613f84565b90506000600b600086815260200190815260200160002054905081811461144a576000600a60008673ffffffffffffffffffffffffffffffffffffffff1673ffffffffffffffffffffffffffffffffffffffff168152602001908152602001600020600084815260200190815260200160002054905080600a60008773ffffffffffffffffffffffffffffffffffffffff1673ffffffffffffffffffffffffffffffffffffffff16815260200190815260200160002060008481526020019081526020016000208190555081600b600083815260200190815260200160002081905550505b600a60008573ffffffffffffffffffffffffffffffffffffffff1673ffffffffffffffffffffffffffffffffffffffff168152602001908152602001600020600083815260200190815260200160002060009055600b6000868152602001908152602001600020600090556000600660008573ffffffffffffffffffffffffffffffffffffffff1673ffffffffffffffffffffffffffffffffffffffff16815260200190815260200160002054905085600a60008673ffffffffffffffffffffffffffffffffffffffff1673ffffffffffffffffffffffffffffffffffffffff16815260200190815260200160002060008381526020019081526020016000208190555080600b6000888152602001908152602001600020819055506007600087815260200190815260200160002060006101000a81549073ffffffffffffffffffffffffffffffffffffffff021916905585600073ffffffffffffffffffffffffffffffffffffffff168973ffffffffffffffffffffffffffffffffffffffff167f8c5be1e5ebec7d5bd14f71427d1e84f3dd0314c0f7b2291e5b200ac8c7c3b92560405160405180910390a46001600660008773ffffffffffffffffffffffffffffffffffffffff1673ffffffffffffffffffffffffffffffffffffffff16815260200190815260200160002060008282546116489190613f84565b925050819055506001600660008673ffffffffffffffffffffffffffffffffffffffff1673ffffffffffffffffffffffffffffffffffffffff168152602001908152602001600020600082825461169f9190613fb8565b92505081905550836004600088815260200190815260200160002060006101000a81548173ffffffffffffffffffffffffffffffffffffffff021916908373ffffffffffffffffffffffffffffffffffffffff160217905550858773ffffffffffffffffffffffffffffffffffffffff168973ffffffffffffffffffffffffffffffffffffffff167fddf252ad1be2c89b69c2b068fc378daa952ba7f163c4a11628f55a4df523b3ef60405160405180910390a46001600660008673ffffffffffffffffffffffffffffffffffffffff1673ffffffffffffffffffffffffffffffffffffffff1681526020019081526020016000205414156118245785600560008673ffffffffffffffffffffffffffffffffffffffff1673ffffffffffffffffffffffffffffffffffffffff16815260200190815260200160002081905550858573ffffffffffffffffffffffffffffffffffffffff167f419eff8031cf010a000369ea097d6d7e80ef25afac84982c47a45719ffeac9f660405160405180910390a35b5050505050505050565b6000806118508473ffffffffffffffffffffffffffffffffffffffff1661309f565b1561185d578390506118fc565b600260009054906101000a900473ffffffffffffffffffffffffffffffffffffffff1673ffffffffffffffffffffffffffffffffffffffff16632fea7b81856040518263ffffffff1660e01b81526004016118b89190613461565b602060405180830381865afa1580156118d5573d6000803e3d6000fd5b505050506040513d601f19601f820116820180604052508101906118f99190613b08565b90505b600660008273ffffffffffffffffffffffffffffffffffffffff1673ffffffffffffffffffffffffffffffffffffffff16815260200190815260200160002054831061197d576040517f08c379a0000000000000000000000000000000000000000000000000000000008152600401611974906140a6565b60405180910390fd5b600a60008273ffffffffffffffffffffffffffffffffffffffff1673ffffffffffffffffffffffffffffffffffffffff16815260200190815260200160002060008481526020019081526020016000205491505092915050565b6119f283838360405180602001604052806000815250612a39565b505050565b6000600c805490508210611a40576040517f08c379a0000000000000000000000000000000000000000000000000000000008152600401611a3790614138565b60405180910390fd5b600c8281548110611a5457611a53614158565b5b90600052602060002001549050919050565b60006102408383905014611aaf576040517f08c379a0000000000000000000000000000000000000000000000000000000008152600401611aa6906141f9565b60405180910390fd5b60008383604051611ac1929190614249565b604051809103902060001c9050600073ffffffffffffffffffffffffffffffffffffffff166004600083815260200190815260200160002060009054906101000a900473ffffffffffffffffffffffffffffffffffffffff1673ffffffffffffffffffffffffffffffffffffffff1614611b70576040517f08c379a0000000000000000000000000000000000000000000000000000000008152600401611b67906142d4565b60405180910390fd5b6000611b913373ffffffffffffffffffffffffffffffffffffffff1661309f565b15611b9e57339050611d19565b600260009054906101000a900473ffffffffffffffffffffffffffffffffffffffff1673ffffffffffffffffffffffffffffffffffffffff16632fea7b81336040518263ffffffff1660e01b8152600401611bf99190613461565b602060405180830381865afa158015611c16573d6000803e3d6000fd5b505050506040513d601f19601f82011682018060405250810190611c3a9190613b08565b9050600260009054906101000a900473ffffffffffffffffffffffffffffffffffffffff1673ffffffffffffffffffffffffffffffffffffffff16634a4fbeec826040518263ffffffff1660e01b8152600401611c979190613461565b602060405180830381865afa158015611cb4573d6000803e3d6000fd5b505050506040513d601f19601f82011682018060405250810190611cd89190613b4a565b15611d18576040517f08c379a0000000000000000000000000000000000000000000000000000000008152600401611d0f90614366565b60405180910390fd5b5b600360009054906101000a900473ffffffffffffffffffffffffffffffffffffffff1673ffffffffffffffffffffffffffffffffffffffff166398b97790827f00000000000000000000000000000000000000000000000000000000000000006040518363ffffffff1660e01b8152600401611d96929190614386565b602060405180830381865afa158015611db3573d6000803e3d6000fd5b505050506040513d601f19601f82011682018060405250810190611dd79190613b4a565b611e16576040517f08c379a0000000000000000000000000000000000000000000000000000000008152600401611e0d90614447565b60405180910390fd5b6000611e378773ffffffffffffffffffffffffffffffffffffffff1661309f565b15611e4457869050611fbf565b600260009054906101000a900473ffffffffffffffffffffffffffffffffffffffff1673ffffffffffffffffffffffffffffffffffffffff16632fea7b81886040518263ffffffff1660e01b8152600401611e9f9190613461565b602060405180830381865afa158015611ebc573d6000803e3d6000fd5b505050506040513d601f19601f82011682018060405250810190611ee09190613b08565b9050600260009054906101000a900473ffffffffffffffffffffffffffffffffffffffff1673ffffffffffffffffffffffffffffffffffffffff16634a4fbeec836040518263ffffffff1660e01b8152600401611f3d9190613461565b602060405180830381865afa158015611f5a573d6000803e3d6000fd5b505050506040513d601f19601f82011682018060405250810190611f7e9190613b4a565b15611fbe576040517f08c379a0000000000000000000000000000000000000000000000000000000008152600401611fb590614366565b60405180910390fd5b5b600c839080600181540180825580915050600190039060005260206000200160009091909190915055806004600085815260200190815260200160002060006101000a81548173ffffffffffffffffffffffffffffffffffffffff021916908373ffffffffffffffffffffffffffffffffffffffff1602179055506000600660008373ffffffffffffffffffffffffffffffffffffffff1673ffffffffffffffffffffffffffffffffffffffff16815260200190815260200160002054905083600a60008473ffffffffffffffffffffffffffffffffffffffff1673ffffffffffffffffffffffffffffffffffffffff16815260200190815260200160002060008381526020019081526020016000208190555080600b6000868152602001908152602001600020819055506001600660008473ffffffffffffffffffffffffffffffffffffffff1673ffffffffffffffffffffffffffffffffffffffff168152602001908152602001600020600082825461213b9190613fb8565b9250508190555061215e60008386604051806020016040528060008152506130b2565b61219d576040517f08c379a000000000000000000000000000000000000000000000000000000000815260040161219490614525565b60405180910390fd5b837f1cc298ae984918ed1719cf63cb020b62a3a65a6d2d4e9a118fea9726b3c9c4b688886040516121cf929190614583565b60405180910390a2838873ffffffffffffffffffffffffffffffffffffffff16600073ffffffffffffffffffffffffffffffffffffffff167fddf252ad1be2c89b69c2b068fc378daa952ba7f163c4a11628f55a4df523b3ef60405160405180910390a4839450505050509392505050565b6000806004600084815260200190815260200160002060009054906101000a900473ffffffffffffffffffffffffffffffffffffffff169050600073ffffffffffffffffffffffffffffffffffffffff168173ffffffffffffffffffffffffffffffffffffffff1614156122ea576040517f08c379a00000000000000000000000000000000000000000000000000000000081526004016122e190613989565b60405180910390fd5b6123098173ffffffffffffffffffffffffffffffffffffffff1661309f565b1561231757809150506123b7565b600260009054906101000a900473ffffffffffffffffffffffffffffffffffffffff1673ffffffffffffffffffffffffffffffffffffffff1663544d8564826040518263ffffffff1660e01b81526004016123729190613461565b602060405180830381865afa15801561238f573d6000803e3d6000fd5b505050506040513d601f19601f820116820180604052508101906123b39190613b08565b9150505b919050565b60006123dd8273ffffffffffffffffffffffffffffffffffffffff1661309f565b1561242957600660008373ffffffffffffffffffffffffffffffffffffffff1673ffffffffffffffffffffffffffffffffffffffff168152602001908152602001600020549050612507565b60066000600260009054906101000a900473ffffffffffffffffffffffffffffffffffffffff1673ffffffffffffffffffffffffffffffffffffffff16632fea7b81856040518263ffffffff1660e01b81526004016124889190613461565b602060405180830381865afa1580156124a5573d6000803e3d6000fd5b505050506040513d601f19601f820116820180604052508101906124c99190613b08565b73ffffffffffffffffffffffffffffffffffffffff1673ffffffffffffffffffffffffffffffffffffffff1681526020019081526020016000205490505b919050565b60606001805461251b906138e5565b80601f0160208091040260200160405190810160405280929190818152602001828054612547906138e5565b80156125945780601f1061256957610100808354040283529160200191612594565b820191906000526020600020905b81548152906001019060200180831161257757829003601f168201915b5050505050905090565b60003373ffffffffffffffffffffffffffffffffffffffff168373ffffffffffffffffffffffffffffffffffffffff16141561260f576040517f08c379a000000000000000000000000000000000000000000000000000000000815260040161260690614619565b60405180910390fd5b61262e3373ffffffffffffffffffffffffffffffffffffffff1661309f565b1561263b57339050612825565b600260009054906101000a900473ffffffffffffffffffffffffffffffffffffffff1673ffffffffffffffffffffffffffffffffffffffff16632fea7b81336040518263ffffffff1660e01b81526004016126969190613461565b602060405180830381865afa1580156126b3573d6000803e3d6000fd5b505050506040513d601f19601f820116820180604052508101906126d79190613b08565b90508073ffffffffffffffffffffffffffffffffffffffff168373ffffffffffffffffffffffffffffffffffffffff161415612748576040517f08c379a000000000000000000000000000000000000000000000000000000000815260040161273f90614619565b60405180910390fd5b600260009054906101000a900473ffffffffffffffffffffffffffffffffffffffff1673ffffffffffffffffffffffffffffffffffffffff16634a4fbeec826040518263ffffffff1660e01b81526004016127a39190613461565b602060405180830381865afa1580156127c0573d6000803e3d6000fd5b505050506040513d601f19601f820116820180604052508101906127e49190613b4a565b15612824576040517f08c379a000000000000000000000000000000000000000000000000000000000815260040161281b90613be9565b60405180910390fd5b5b81600960008373ffffffffffffffffffffffffffffffffffffffff1673ffffffffffffffffffffffffffffffffffffffff16815260200190815260200160002060008573ffffffffffffffffffffffffffffffffffffffff1673ffffffffffffffffffffffffffffffffffffffff16815260200190815260200160002060006101000a81548160ff0219169083151502179055508273ffffffffffffffffffffffffffffffffffffffff168173ffffffffffffffffffffffffffffffffffffffff167f17307eab39ab6107e8899845ad3d59bd9653f200f220920489ca2b5937696c318460405161291691906132e7565b60405180910390a3505050565b6000806129458373ffffffffffffffffffffffffffffffffffffffff1661309f565b15612952578290506129f1565b600260009054906101000a900473ffffffffffffffffffffffffffffffffffffffff1673ffffffffffffffffffffffffffffffffffffffff16632fea7b81846040518263ffffffff1660e01b81526004016129ad9190613461565b602060405180830381865afa1580156129ca573d6000803e3d6000fd5b505050506040513d601f19601f820116820180604052508101906129ee9190613b08565b90505b600560008273ffffffffffffffffffffffffffffffffffffffff1673ffffffffffffffffffffffffffffffffffffffff16815260200190815260200160002054915050919050565b612a44848484610bda565b612a50848484846130b2565b612a8f576040517f08c379a0000000000000000000000000000000000000000000000000000000008152600401612a8690614525565b60405180910390fd5b50505050565b6060600073ffffffffffffffffffffffffffffffffffffffff166004600084815260200190815260200160002060009054906101000a900473ffffffffffffffffffffffffffffffffffffffff1673ffffffffffffffffffffffffffffffffffffffff161415612b3a576040517f08c379a0000000000000000000000000000000000000000000000000000000008152600401612b3190613a1b565b60405180910390fd5b600860008381526020019081526020016000208054612b58906138e5565b80601f0160208091040260200160405190810160405280929190818152602001828054612b84906138e5565b8015612bd15780601f10612ba657610100808354040283529160200191612bd1565b820191906000526020600020905b815481529060010190602001808311612bb457829003601f168201915b50505050509050919050565b600080612bff8473ffffffffffffffffffffffffffffffffffffffff1661309f565b612ca457600260009054906101000a900473ffffffffffffffffffffffffffffffffffffffff1673ffffffffffffffffffffffffffffffffffffffff16632fea7b81336040518263ffffffff1660e01b8152600401612c5e9190613461565b602060405180830381865afa158015612c7b573d6000803e3d6000fd5b505050506040513d601f19601f82011682018060405250810190612c9f9190613b08565b612ca6565b835b9050600960008273ffffffffffffffffffffffffffffffffffffffff1673ffffffffffffffffffffffffffffffffffffffff16815260200190815260200160002060008473ffffffffffffffffffffffffffffffffffffffff1673ffffffffffffffffffffffffffffffffffffffff16815260200190815260200160002060009054906101000a900460ff1691505092915050565b6000612d5c3373ffffffffffffffffffffffffffffffffffffffff1661309f565b15612d6957339050612ee4565b600260009054906101000a900473ffffffffffffffffffffffffffffffffffffffff1673ffffffffffffffffffffffffffffffffffffffff16632fea7b81336040518263ffffffff1660e01b8152600401612dc49190613461565b602060405180830381865afa158015612de1573d6000803e3d6000fd5b505050506040513d601f19601f82011682018060405250810190612e059190613b08565b9050600260009054906101000a900473ffffffffffffffffffffffffffffffffffffffff1673ffffffffffffffffffffffffffffffffffffffff16634a4fbeec826040518263ffffffff1660e01b8152600401612e629190613461565b602060405180830381865afa158015612e7f573d6000803e3d6000fd5b505050506040513d601f19601f82011682018060405250810190612ea39190613b4a565b15612ee3576040517f08c379a0000000000000000000000000000000000000000000000000000000008152600401612eda90613f35565b60405180910390fd5b5b6000821480612f5257508073ffffffffffffffffffffffffffffffffffffffff166004600084815260200190815260200160002060009054906101000a900473ffffffffffffffffffffffffffffffffffffffff1673ffffffffffffffffffffffffffffffffffffffff1614155b612f91576040517f08c379a0000000000000000000000000000000000000000000000000000000008152600401612f88906146ab565b60405180910390fd5b81600560008373ffffffffffffffffffffffffffffffffffffffff1673ffffffffffffffffffffffffffffffffffffffff168152602001908152602001600020541415613013576040517f08c379a000000000000000000000000000000000000000000000000000000000815260040161300a90614763565b60405180910390fd5b81600560008373ffffffffffffffffffffffffffffffffffffffff1673ffffffffffffffffffffffffffffffffffffffff16815260200190815260200160002081905550818173ffffffffffffffffffffffffffffffffffffffff167f419eff8031cf010a000369ea097d6d7e80ef25afac84982c47a45719ffeac9f660405160405180910390a35050565b600080823b905060008111915050919050565b60006130d38473ffffffffffffffffffffffffffffffffffffffff1661309f565b15613226578373ffffffffffffffffffffffffffffffffffffffff1663150b7a02338786866040518563ffffffff1660e01b815260040161311794939291906147c7565b6020604051808303816000875af192505050801561315357506040513d601f19601f820116820180604052508101906131509190614828565b60015b6131d6573d8060008114613183576040519150601f19603f3d011682016040523d82523d6000602084013e613188565b606091505b506000815114156131ce576040517f08c379a00000000000000000000000000000000000000000000000000000000081526004016131c590614525565b60405180910390fd5b805181602001fd5b63150b7a0260e01b7bffffffffffffffffffffffffffffffffffffffffffffffffffffffff1916817bffffffffffffffffffffffffffffffffffffffffffffffffffffffff19161491505061322b565b600190505b949350505050565b6000604051905090565b600080fd5b600080fd5b60007fffffffff0000000000000000000000000000000000000000000000000000000082169050919050565b61327c81613247565b811461328757600080fd5b50565b60008135905061329981613273565b92915050565b6000602082840312156132b5576132b461323d565b5b60006132c38482850161328a565b91505092915050565b60008115159050919050565b6132e1816132cc565b82525050565b60006020820190506132fc60008301846132d8565b92915050565b600081519050919050565b600082825260208201905092915050565b60005b8381101561333c578082015181840152602081019050613321565b8381111561334b576000848401525b50505050565b6000601f19601f8301169050919050565b600061336d82613302565b613377818561330d565b935061338781856020860161331e565b61339081613351565b840191505092915050565b600060208201905081810360008301526133b58184613362565b905092915050565b6000819050919050565b6133d0816133bd565b81146133db57600080fd5b50565b6000813590506133ed816133c7565b92915050565b6000602082840312156134095761340861323d565b5b6000613417848285016133de565b91505092915050565b600073ffffffffffffffffffffffffffffffffffffffff82169050919050565b600061344b82613420565b9050919050565b61345b81613440565b82525050565b60006020820190506134766000830184613452565b92915050565b61348581613440565b811461349057600080fd5b50565b6000813590506134a28161347c565b92915050565b600080604083850312156134bf576134be61323d565b5b60006134cd85828601613493565b92505060206134de858286016133de565b9150509250929050565b6134f1816133bd565b82525050565b600060208201905061350c60008301846134e8565b92915050565b60008060006060848603121561352b5761352a61323d565b5b600061353986828701613493565b935050602061354a86828701613493565b925050604061355b868287016133de565b9150509250925092565b600080fd5b600080fd5b600080fd5b60008083601f84011261358a57613589613565565b5b8235905067ffffffffffffffff8111156135a7576135a661356a565b5b6020830191508360018202830111156135c3576135c261356f565b5b9250929050565b6000806000604084860312156135e3576135e261323d565b5b60006135f186828701613493565b935050602084013567ffffffffffffffff81111561361257613611613242565b5b61361e86828701613574565b92509250509250925092565b6000602082840312156136405761363f61323d565b5b600061364e84828501613493565b91505092915050565b613660816132cc565b811461366b57600080fd5b50565b60008135905061367d81613657565b92915050565b6000806040838503121561369a5761369961323d565b5b60006136a885828601613493565b92505060206136b98582860161366e565b9150509250929050565b600080fd5b7f4e487b7100000000000000000000000000000000000000000000000000000000600052604160045260246000fd5b61370082613351565b810181811067ffffffffffffffff8211171561371f5761371e6136c8565b5b80604052505050565b6000613732613233565b905061373e82826136f7565b919050565b600067ffffffffffffffff82111561375e5761375d6136c8565b5b61376782613351565b9050602081019050919050565b82818337600083830152505050565b600061379661379184613743565b613728565b9050828152602081018484840111156137b2576137b16136c3565b5b6137bd848285613774565b509392505050565b600082601f8301126137da576137d9613565565b5b81356137ea848260208601613783565b91505092915050565b6000806000806080858703121561380d5761380c61323d565b5b600061381b87828801613493565b945050602061382c87828801613493565b935050604061383d878288016133de565b925050606085013567ffffffffffffffff81111561385e5761385d613242565b5b61386a878288016137c5565b91505092959194509250565b6000806040838503121561388d5761388c61323d565b5b600061389b85828601613493565b92505060206138ac85828601613493565b9150509250929050565b7f4e487b7100000000000000000000000000000000000000000000000000000000600052602260045260246000fd5b600060028204905060018216806138fd57607f821691505b60208210811415613911576139106138b6565b5b50919050565b7f5369676e61746152696768743a20546f6b656e204944206d75737420636f727260008201527f6573706f6e6420746f20616e206578697374696e672072696768742e00000000602082015250565b6000613973603c8361330d565b915061397e82613917565b604082019050919050565b600060208201905081810360008301526139a281613966565b9050919050565b7f5369676e61746152696768743a20546f6b656e204944206d75737420636f727260008201527f6573706f6e6420746f20616e206578697374696e67206176617461722e000000602082015250565b6000613a05603d8361330d565b9150613a10826139a9565b604082019050919050565b60006020820190508181036000830152613a34816139f8565b9050919050565b7f5369676e61746152696768743a20417070726f76616c206973206e6f7420726560008201527f71756972656420666f7220746865206f776e6572206f6620746865206176617460208201527f61722e0000000000000000000000000000000000000000000000000000000000604082015250565b6000613abd60438361330d565b9150613ac882613a3b565b606082019050919050565b60006020820190508181036000830152613aec81613ab0565b9050919050565b600081519050613b028161347c565b92915050565b600060208284031215613b1e57613b1d61323d565b5b6000613b2c84828501613af3565b91505092915050565b600081519050613b4481613657565b92915050565b600060208284031215613b6057613b5f61323d565b5b6000613b6e84828501613b35565b91505092915050565b7f5369676e61746152696768743a20546865206f776e65722773206163636f756e60008201527f74206973206c6f636b65642e0000000000000000000000000000000000000000602082015250565b6000613bd3602c8361330d565b9150613bde82613b77565b604082019050919050565b60006020820190508181036000830152613c0281613bc6565b9050919050565b7f5369676e61746152696768743a205468652073656e646572206973206e6f742060008201527f617574686f726973656420746f2070726f7669646520617070726f76616c732e602082015250565b6000613c6560408361330d565b9150613c7082613c09565b604082019050919050565b60006020820190508181036000830152613c9481613c58565b9050919050565b7f5369676e61746152696768743a205472616e736665727320746f20746865207a60008201527f65726f206164647265737320617265206e6f7420616c6c6f7765642e00000000602082015250565b6000613cf7603c8361330d565b9150613d0282613c9b565b604082019050919050565b60006020820190508181036000830152613d2681613cea565b9050919050565b7f5369676e61746152696768743a20546865206163636f756e742073706563696660008201527f69656420646f6573206e6f7420686f6c64207468652061766174617220636f7260208201527f726573706f6e64696e6720746f2074686520546f6b656e2049442070726f766960408201527f6465642e00000000000000000000000000000000000000000000000000000000606082015250565b6000613dd560648361330d565b9150613de082613d2d565b608082019050919050565b60006020820190508181036000830152613e0481613dc8565b9050919050565b7f5369676e61746152696768743a205468652073656e646572206973206e6f742060008201527f617574686f726973656420746f207472616e736665722074686973207269676860208201527f742e000000000000000000000000000000000000000000000000000000000000604082015250565b6000613e8d60428361330d565b9150613e9882613e0b565b606082019050919050565b60006020820190508181036000830152613ebc81613e80565b9050919050565b7f5369676e61746152696768743a2054686520726563697069656e74277320616360008201527f636f756e74206973206c6f636b65642e00000000000000000000000000000000602082015250565b6000613f1f60308361330d565b9150613f2a82613ec3565b604082019050919050565b60006020820190508181036000830152613f4e81613f12565b9050919050565b7f4e487b7100000000000000000000000000000000000000000000000000000000600052601160045260246000fd5b6000613f8f826133bd565b9150613f9a836133bd565b925082821015613fad57613fac613f55565b5b828203905092915050565b6000613fc3826133bd565b9150613fce836133bd565b9250827fffffffffffffffffffffffffffffffffffffffffffffffffffffffffffffffff0382111561400357614002613f55565b5b828201905092915050565b7f5369676e61746152696768743a2054686520696e6465782070726f766964656460008201527f206973206f7574206f6620626f756e647320666f7220746865206f776e65722060208201527f7370656369666965642e00000000000000000000000000000000000000000000604082015250565b6000614090604a8361330d565b915061409b8261400e565b606082019050919050565b600060208201905081810360008301526140bf81614083565b9050919050565b7f5369676e61746152696768743a2054686520696e6465782070726f766964656460008201527f206973206f7574206f6620626f756e64732e0000000000000000000000000000602082015250565b600061412260328361330d565b915061412d826140c6565b604082019050919050565b6000602082019050818103600083015261415181614115565b9050919050565b7f4e487b7100000000000000000000000000000000000000000000000000000000600052603260045260246000fd5b7f5369676e6174614176617461723a20496e76616c69642061766174617220707260008201527f6f76696465642e00000000000000000000000000000000000000000000000000602082015250565b60006141e360278361330d565b91506141ee82614187565b604082019050919050565b60006020820190508181036000830152614212816141d6565b9050919050565b600081905092915050565b60006142308385614219565b935061423d838584613774565b82840190509392505050565b6000614256828486614224565b91508190509392505050565b7f5369676e6174614176617461723a2041766174617220616c726561647920657860008201527f697374732e000000000000000000000000000000000000000000000000000000602082015250565b60006142be60258361330d565b91506142c982614262565b604082019050919050565b600060208201905081810360008301526142ed816142b1565b9050919050565b7f5369676e61746152696768743a205468652073656e6465722773206163636f7560008201527f6e74206973206c6f636b65642e00000000000000000000000000000000000000602082015250565b6000614350602d8361330d565b915061435b826142f4565b604082019050919050565b6000602082019050818103600083015261437f81614343565b9050919050565b600060408201905061439b6000830185613452565b6143a860208301846134e8565b9392505050565b7f5369676e61746152696768743a205468652073656e6465722773206163636f7560008201527f6e74206973206e6f7420617574686f726973656420746f206d696e742041766160208201527f746172732e000000000000000000000000000000000000000000000000000000604082015250565b600061443160458361330d565b915061443c826143af565b606082019050919050565b6000602082019050818103600083015261446081614424565b9050919050565b7f5369676e61746152696768743a206d757374206f6e6c79207472616e7366657260008201527f20746f20455243373231526563656976657220696d706c656d656e746572732060208201527f7768656e20726563697069656e74206973206120736d61727420636f6e74726160408201527f63742e0000000000000000000000000000000000000000000000000000000000606082015250565b600061450f60638361330d565b915061451a82614467565b608082019050919050565b6000602082019050818103600083015261453e81614502565b9050919050565b600082825260208201905092915050565b60006145628385614545565b935061456f838584613774565b61457883613351565b840190509392505050565b6000602082019050818103600083015261459e818486614556565b90509392505050565b7f5369676e61746152696768743a2053656c662d617070726f76616c206973206e60008201527f6f742072657175697265642e0000000000000000000000000000000000000000602082015250565b6000614603602c8361330d565b915061460e826145a7565b604082019050919050565b60006020820190508181036000830152614632816145f6565b9050919050565b7f5369676e6174614176617461723a205468652073656e64657220646f6573206e60008201527f6f74206f776e2074686520617661746172207370656369666965642e00000000602082015250565b6000614695603c8361330d565b91506146a082614639565b604082019050919050565b600060208201905081810360008301526146c481614688565b9050919050565b7f5369676e6174614176617461723a20546865206176617461722073706563696660008201527f69656420697320616c726561647920736574206173207072696d61727920666f60208201527f7220746865206f776e65722e0000000000000000000000000000000000000000604082015250565b600061474d604c8361330d565b9150614758826146cb565b606082019050919050565b6000602082019050818103600083015261477c81614740565b9050919050565b600081519050919050565b600061479982614783565b6147a38185614545565b93506147b381856020860161331e565b6147bc81613351565b840191505092915050565b60006080820190506147dc6000830187613452565b6147e96020830186613452565b6147f660408301856134e8565b8181036060830152614808818461478e565b905095945050505050565b60008151905061482281613273565b92915050565b60006020828403121561483e5761483d61323d565b5b600061484c84828501614813565b9150509291505056fea2646970667358221220c0e15a885ee71184e5a056b4f1da4379dcf3b09223c4440e5b34981eb5901c5d64736f6c634300080a0033",
  "linkReferences": {},
  "deployedLinkReferences": {}
}