{
	"data": {
		"bytecode": {
			"linkReferences": {},
			"object": "6101a06040527f6e71edae12b1b97f4d1f60370fef10105fa2faae0126114a169c64845d6126c9610140526013805463ff000000191663010000001790556064601481905560155569054b40b1f852bda000006017553480156200006257600080fd5b506040516200498d3803806200498d833981016040819052620000859162000c40565b6040518060400160405280600b81526020016a5369676e6174612044414f60a81b81525080604051806040016040528060018152602001603160f81b8152506040518060400160405280600b81526020016a5369676e6174612044414f60a81b81525060405180604001604052806005815260200164645341544160d81b81525081600390805190602001906200011e92919062000ba4565b5080516200013490600490602084019062000ba4565b505050620001516200014b6200039e60201b60201c565b620003a2565b815160209283012081519183019190912060e08290526101008190524660a0818152604080517f8b73c3c69bb8fe3d512ecc4cf759cc79239f7b179b0ffacaa9a75d522b39400f818801819052818301969096526060810194909452608080850193909352308483018190528151808603909301835260c080860180845284519489019490942090945290925261012093909352601180546001600160a01b0319166001600160a01b038816179055737a250d5630b4cf539739df2c5dacb4c659f2488d61016081905263c45a015560e01b90935251919350839263c45a01559260c4808401938290030181865afa15801562000252573d6000803e3d6000fd5b505050506040513d601f19601f8201168201806040525081019062000278919062000c40565b6001600160a01b031663c9c6539630836001600160a01b031663ad5c46486040518163ffffffff1660e01b8152600401602060405180830381865afa158015620002c6573d6000803e3d6000fd5b505050506040513d601f19601f82011682018060405250810190620002ec919062000c40565b6040516001600160e01b031960e085901b1681526001600160a01b039283166004820152911660248201526044016020604051808303816000875af11580156200033a573d6000803e3d6000fd5b505050506040513d601f19601f8201168201806040525081019062000360919062000c40565b6001600160a01b0316610180526200039633620003806012600a62000d85565b62000390906302faf08062000d96565b620003f4565b505062000e3f565b3390565b600980546001600160a01b038381166001600160a01b0319831681179093556040519116919082907f8be0079c531659141344cd1fd0a4f28419497f9722a3daafe3b4186f6b6457e090600090a35050565b6200040b82826200040f60201b620019821760201c565b5050565b620004268282620004c660201b62001a121760201c565b6001600160e01b036200043a620005c38216565b1115620004a75760405162461bcd60e51b815260206004820152603060248201527f4552433230566f7465733a20746f74616c20737570706c79207269736b73206f60448201526f766572666c6f77696e6720766f74657360801b60648201526084015b60405180910390fd5b620004c0600d62001b05620005c960201b1783620005e0565b50505050565b6001600160a01b0382166200051e5760405162461bcd60e51b815260206004820152601f60248201527f45524332303a206d696e7420746f20746865207a65726f20616464726573730060448201526064016200049e565b6200052c6000838362000792565b806002600082825462000540919062000db8565b90915550506001600160a01b038216600090815260208190526040812080548392906200056f90849062000db8565b90915550506040518181526001600160a01b038316906000907fddf252ad1be2c89b69c2b068fc378daa952ba7f163c4a11628f55a4df523b3ef9060200160405180910390a36200040b60008383620007af565b60025490565b6000620005d7828462000db8565b90505b92915050565b825460009081908015620006325785620005fc60018362000dd3565b815481106200060f576200060f62000ded565b60009182526020909120015464010000000090046001600160e01b031662000635565b60005b6001600160e01b031692506200064c83858760201c565b915060008111801562000690575043866200066960018462000dd3565b815481106200067c576200067c62000ded565b60009182526020909120015463ffffffff16145b156200070457620006ac82620007c760201b62001b111760201c565b86620006ba60018462000dd3565b81548110620006cd57620006cd62000ded565b9060005260206000200160000160046101000a8154816001600160e01b0302191690836001600160e01b0316021790555062000789565b85604051806040016040528062000726436200083660201b62001b7e1760201c565b63ffffffff1681526020016200074785620007c760201b62001b111760201c565b6001600160e01b0390811690915282546001810184556000938452602093849020835194909301519091166401000000000263ffffffff909316929092179101555b50935093915050565b620007aa8383836200089d60201b62001be31760201c565b505050565b620007aa8383836200090960201b62001c301760201c565b60006001600160e01b03821115620008325760405162461bcd60e51b815260206004820152602760248201527f53616665436173743a2076616c756520646f65736e27742066697420696e20326044820152663234206269747360c81b60648201526084016200049e565b5090565b600063ffffffff821115620008325760405162461bcd60e51b815260206004820152602660248201527f53616665436173743a2076616c756520646f65736e27742066697420696e203360448201526532206269747360d01b60648201526084016200049e565b620008b5838383620007aa60201b62001c021760201c565b6001600160a01b038316620008d957620008cf8262000955565b620007aa6200098d565b6001600160a01b038216620008f357620008cf8362000955565b620008fe8362000955565b620007aa8262000955565b62000921838383620007aa60201b62001c021760201c565b6001600160a01b038381166000908152600b6020526040808220548584168352912054620007aa929182169116836200099f565b6001600160a01b038116600090815260056020908152604080832091839052909120546200098a919062000ada565b62000ada565b50565b6200099d60066200098460025490565b565b816001600160a01b0316836001600160a01b031614158015620009c25750600081115b15620007aa576001600160a01b0383161562000a4f576001600160a01b0383166000908152600c602090815260408220829162000a0c919062000b29901b62001c621785620005e0565b91509150846001600160a01b03166000805160206200496d833981519152838360405162000a44929190918252602082015260400190565b60405180910390a250505b6001600160a01b03821615620007aa576001600160a01b0382166000908152600c602090815260408220829162000a939190620005c9901b62001b051785620005e0565b91509150836001600160a01b03166000805160206200496d833981519152838360405162000acb929190918252602082015260400190565b60405180910390a25050505050565b600062000ae662000b37565b90508062000af48462000b55565b1015620007aa578254600180820185556000858152602080822090930193909355938401805494850181558252902090910155565b6000620005d7828462000dd3565b600062000b50600862000ba060201b62001c6e1760201c565b905090565b8054600090810362000b6957506000919050565b8154829062000b7b9060019062000dd3565b8154811062000b8e5762000b8e62000ded565b90600052602060002001549050919050565b5490565b82805462000bb29062000e03565b90600052602060002090601f01602090048101928262000bd6576000855562000c21565b82601f1062000bf157805160ff191683800117855562000c21565b8280016001018555821562000c21579182015b8281111562000c2157825182559160200191906001019062000c04565b50620008329291505b8082111562000832576000815560010162000c2a565b60006020828403121562000c5357600080fd5b81516001600160a01b038116811462000c6b57600080fd5b9392505050565b634e487b7160e01b600052601160045260246000fd5b600181815b8085111562000cc957816000190482111562000cad5762000cad62000c72565b8085161562000cbb57918102915b93841c939080029062000c8d565b509250929050565b60008262000ce257506001620005da565b8162000cf157506000620005da565b816001811462000d0a576002811462000d155762000d35565b6001915050620005da565b60ff84111562000d295762000d2962000c72565b50506001821b620005da565b5060208310610133831016604e8410600b841016171562000d5a575081810a620005da565b62000d66838362000c88565b806000190482111562000d7d5762000d7d62000c72565b029392505050565b6000620005d760ff84168362000cd1565b600081600019048311821515161562000db35762000db362000c72565b500290565b6000821982111562000dce5762000dce62000c72565b500190565b60008282101562000de85762000de862000c72565b500390565b634e487b7160e01b600052603260045260246000fd5b600181811c9082168062000e1857607f821691505b60208210810362000e3957634e487b7160e01b600052602260045260246000fd5b50919050565b60805160a05160c05160e0516101005161012051610140516101605161018051613a8562000ee8600039600081816105000152818161109e0152818161208a01528181612212015261224d0152600081816103fb0152818161215d01528181612e8101528181612f3a0152612f760152600061155f015260006124a4015260006124f3015260006124ce01526000612427015260006124510152600061247b0152613a856000f3fe608060405234801561001057600080fd5b50600436106103995760003560e01c806384a372b8116101e9578063c02466681161010f578063efdcd974116100ad578063f2fde38b1161007c578063f2fde38b14610819578063f356cf901461082c578063f9f92be41461083f578063ffb896ef1461086257600080fd5b8063efdcd974146107a2578063effb3c53146107b5578063f1127ed8146107c9578063f1be99151461080657600080fd5b8063dac1dcfe116100e9578063dac1dcfe1461072c578063dbe66ca014610734578063dd62ed3e14610760578063e2f456051461079957600080fd5b8063c0246668146106f3578063c3cda52014610706578063d505accf1461071957600080fd5b8063981b24d011610187578063a9059cbb11610156578063a9059cbb146106a8578063aba7e64f146106bb578063b62496f5146106c3578063bbc0c742146106e657600080fd5b8063981b24d01461065c5780639a7a23d61461066f5780639ab24eb014610682578063a457c2d71461069557600080fd5b80638da5cb5b116101c35780638da5cb5b146106285780638e539e8c1461063957806395d89b411461064c5780639711715a1461065457600080fd5b806384a372b8146105fb578063871d07191461060e5780638a8c523c1461062057600080fd5b80633eda67cd116102ce5780634ee2cd7e1161026c57806370a082311161023b57806370a08231146105a4578063715018a6146105cd57806379cc6790146105d55780637ecebe00146105e857600080fd5b80634ee2cd7e1461052a578063587cde1e1461053d5780635c19a95c146105695780636fcfff451461057c57600080fd5b80634546ff49116102a85780634546ff49146104ea57806347062402146104f257806349bd5a5e146104fb5780634c7d56561461052257600080fd5b80633eda67cd146104bb5780633f8a6204146104ce57806342966c68146104d757600080fd5b80632d5a5d341161033b5780633644e515116103155780633644e515146104855780633746391b1461048d57806339509351146104955780633a46b1a8146104a857600080fd5b80632d5a5d3414610459578063313ce5671461046e578063334b5f991461047d57600080fd5b80631694505e116103775780631694505e146103f657806318160ddd1461043557806323b872dd1461043d5780632b14ca561461045057600080fd5b806306fdde031461039e578063095ea7b3146103bc5780630dd87157146103df575b600080fd5b6103a6610875565b6040516103b3919061361d565b60405180910390f35b6103cf6103ca366004613687565b610907565b60405190151581526020016103b3565b6103e860125481565b6040519081526020016103b3565b61041d7f000000000000000000000000000000000000000000000000000000000000000081565b6040516001600160a01b0390911681526020016103b3565b6002546103e8565b6103cf61044b3660046136b3565b610921565b6103e860155481565b61046c6104673660046136f4565b610945565b005b604051601281526020016103b3565b61046c6109a3565b6103e8610a72565b61046c610a81565b6103cf6104a3366004613687565b610b4c565b6103e86104b6366004613687565b610b8b565b61046c6104c9366004613732565b610c05565b6103e860165481565b61046c6104e5366004613732565b610c75565b61046c610c82565b6103e860145481565b61041d7f000000000000000000000000000000000000000000000000000000000000000081565b61046c610d4c565b6103e8610538366004613687565b610e13565b61041d61054b36600461374b565b6001600160a01b039081166000908152600b60205260409020541690565b61046c61057736600461374b565b610e6c565b61058f61058a36600461374b565b610e76565b60405163ffffffff90911681526020016103b3565b6103e86105b236600461374b565b6001600160a01b031660009081526020819052604090205490565b61046c610e98565b61046c6105e3366004613687565b610ece565b6103e86105f636600461374b565b610ee7565b61046c610609366004613732565b610f05565b6013546103cf90610100900460ff1681565b61046c610f6d565b6009546001600160a01b031661041d565b6103e8610647366004613732565b610faa565b6103a6611006565b61046c611015565b6103e861066a366004613732565b611047565b61046c61067d3660046136f4565b611072565b6103e861069036600461374b565b61114d565b6103cf6106a3366004613687565b6111d4565b6103cf6106b6366004613687565b611266565b61046c611274565b6103cf6106d136600461374b565b60106020526000908152604090205460ff1681565b6013546103cf9060ff1681565b61046c6107013660046136f4565b61134f565b61046c610714366004613779565b6113d5565b61046c6107273660046137d3565b61150b565b61046c61166f565b6103cf61074236600461374b565b6001600160a01b03166000908152600f602052604090205460ff1690565b6103e861076e366004613841565b6001600160a01b03918216600090815260016020908152604080832093909416825291909152205490565b6103e860175481565b61046c6107b036600461374b565b611749565b6013546103cf906301000000900460ff1681565b6107dc6107d736600461386f565b6117fe565b60408051825163ffffffff1681526020928301516001600160e01b031692810192909252016103b3565b61046c610814366004613732565b611882565b61046c61082736600461374b565b6118ea565b6013546103cf9062010000900460ff1681565b6103cf61084d36600461374b565b600e6020526000908152604090205460ff1681565b60115461041d906001600160a01b031681565b606060038054610884906138a6565b80601f01602080910402602001604051908101604052809291908181526020018280546108b0906138a6565b80156108fd5780601f106108d2576101008083540402835291602001916108fd565b820191906000526020600020905b8154815290600101906020018083116108e057829003601f168201915b5050505050905090565b600033610915818585611c72565b60019150505b92915050565b60003361092f858285611d96565b61093a858585611e22565b506001949350505050565b6009546001600160a01b031633146109785760405162461bcd60e51b815260040161096f906138da565b60405180910390fd5b6001600160a01b03919091166000908152600e60205260409020805460ff1916911515919091179055565b6009546001600160a01b031633146109cd5760405162461bcd60e51b815260040161096f906138da565b60135462010000900460ff1615610a365760405162461bcd60e51b815260206004820152602760248201527f656e61626c6553656c6c4665653a2073656c6c2066656520616c726561647920604482015266195b98589b195960ca1b606482015260840161096f565b6013805462ff00001916620100001790556040517f0ee444712a05782241031c97904d775dae94b48624bade4d83cbf701baf28c5290600090a1565b6000610a7c61241a565b905090565b6009546001600160a01b03163314610aab5760405162461bcd60e51b815260040161096f906138da565b60135462010000900460ff16610b155760405162461bcd60e51b815260206004820152602960248201527f64697361626c6553656c6c4665653a2073656c6c2066656520616c726561647960448201526808191a5cd8589b195960ba1b606482015260840161096f565b6013805462ff0000191690556040517f66d7abeae9bb5a48159e59d5f0bacdcbd0d7112c76a87733baf345ffd231172690600090a1565b3360008181526001602090815260408083206001600160a01b03871684529091528120549091906109159082908690610b86908790613925565b611c72565b6000438210610bdc5760405162461bcd60e51b815260206004820152601f60248201527f4552433230566f7465733a20626c6f636b206e6f7420796574206d696e656400604482015260640161096f565b6001600160a01b0383166000908152600c60205260409020610bfe9083612541565b9392505050565b6009546001600160a01b03163314610c2f5760405162461bcd60e51b815260040161096f906138da565b601780549082905560408051828152602081018490527f0922219a8077b1e0bc8171f3ab0d886c1115631365abf748da063ce0692549de91015b60405180910390a15050565b610c7f33826125fe565b50565b6009546001600160a01b03163314610cac5760405162461bcd60e51b815260040161096f906138da565b601354610100900460ff1615610d125760405162461bcd60e51b815260206004820152602560248201527f656e61626c654275794665653a206275792066656520616c726561647920656e60448201526418589b195960da1b606482015260840161096f565b6013805461ff0019166101001790556040517fdaa91b4779e6b2e8ac716915e4b1bb5870d8540c30f85e911f6c57f1cd23e44f90600090a1565b6009546001600160a01b03163314610d765760405162461bcd60e51b815260040161096f906138da565b601354610100900460ff16610ddd5760405162461bcd60e51b815260206004820152602760248201527f64697361626c654275794665653a206275792066656520616c726561647920646044820152661a5cd8589b195960ca1b606482015260840161096f565b6013805461ff00191690556040517ff58ee7f74eaadf595db494abfc38d5c19b665fcaa092687b48a5c128fe375f6790600090a1565b6001600160a01b038216600090815260056020526040812081908190610e3a908590612608565b9150915081610e61576001600160a01b038516600090815260208190526040902054610e63565b805b95945050505050565b610c7f33826126fe565b6001600160a01b0381166000908152600c602052604081205461091b90611b7e565b6009546001600160a01b03163314610ec25760405162461bcd60e51b815260040161096f906138da565b610ecc6000612777565b565b610ed9823383611d96565b610ee382826125fe565b5050565b6001600160a01b0381166000908152600a602052604081205461091b565b6009546001600160a01b03163314610f2f5760405162461bcd60e51b815260040161096f906138da565b601580549082905560408051828152602081018490527f06cd6fca2cfd4075f987d2d4e1a9c338a0ddf5563f7b722f53b1f60edd3f60cb9101610c69565b6009546001600160a01b03163314610f975760405162461bcd60e51b815260040161096f906138da565b6013805460ff1916600117905543601855565b6000438210610ffb5760405162461bcd60e51b815260206004820152601f60248201527f4552433230566f7465733a20626c6f636b206e6f7420796574206d696e656400604482015260640161096f565b61091b600d83612541565b606060048054610884906138a6565b6009546001600160a01b0316331461103f5760405162461bcd60e51b815260040161096f906138da565b610c7f6127c9565b6000806000611057846006612608565b91509150816110685760025461106a565b805b949350505050565b6009546001600160a01b0316331461109c5760405162461bcd60e51b815260040161096f906138da565b7f00000000000000000000000000000000000000000000000000000000000000006001600160a01b0316826001600160a01b0316036111435760405162461bcd60e51b815260206004820152603960248201527f54686520706169722063616e6e6f742062652072656d6f7665642066726f6d2060448201527f6175746f6d617465644d61726b65744d616b6572506169727300000000000000606482015260840161096f565b610ee38282612823565b6001600160a01b0381166000908152600c602052604081205480156111c1576001600160a01b0383166000908152600c6020526040902061118f60018361393d565b8154811061119f5761119f613954565b60009182526020909120015464010000000090046001600160e01b03166111c4565b60005b6001600160e01b03169392505050565b3360008181526001602090815260408083206001600160a01b0387168452909152812054909190838110156112595760405162461bcd60e51b815260206004820152602560248201527f45524332303a2064656372656173656420616c6c6f77616e63652062656c6f77604482015264207a65726f60d81b606482015260840161096f565b61093a8286868403611c72565b600033610915818585611e22565b6009546001600160a01b0316331461129e5760405162461bcd60e51b815260040161096f906138da565b6013546301000000900460ff166113115760405162461bcd60e51b815260206004820152603160248201527f64697361626c655472616e736665724665653a207472616e736665722066656560448201527008185b1c9958591e48191a5cd8589b1959607a1b606482015260840161096f565b6013805463ff000000191663010000001790556040517febb19af92ffda5f5becc285f2154c85e6d48992942f15fbc7fb9afd22580c14290600090a1565b6009546001600160a01b031633146113795760405162461bcd60e51b815260040161096f906138da565b6001600160a01b0382166000818152600f6020908152604091829020805460ff19168515159081179091558251938452908301527f3499bfcf9673677ba552f3fe2ea274ec7e6246da31c3c87e115b45a9b0db2efb9101610c69565b834211156114255760405162461bcd60e51b815260206004820152601d60248201527f4552433230566f7465733a207369676e61747572652065787069726564000000604482015260640161096f565b604080517fe48329057bfd03d55e49b547132e39cffd9c1820ad7b9d4c5307691425d15adf60208201526001600160a01b03881691810191909152606081018690526080810185905260009061149f906114979060a00160405160208183030381529060405280519060200120612877565b8585856128c5565b90506114aa816128ed565b86146114f85760405162461bcd60e51b815260206004820152601960248201527f4552433230566f7465733a20696e76616c6964206e6f6e636500000000000000604482015260640161096f565b61150281886126fe565b50505050505050565b8342111561155b5760405162461bcd60e51b815260206004820152601d60248201527f45524332305065726d69743a206578706972656420646561646c696e65000000604482015260640161096f565b60007f000000000000000000000000000000000000000000000000000000000000000088888861158a8c6128ed565b6040805160208101969096526001600160a01b0394851690860152929091166060840152608083015260a082015260c0810186905260e00160405160208183030381529060405280519060200120905060006115e582612877565b905060006115f5828787876128c5565b9050896001600160a01b0316816001600160a01b0316146116585760405162461bcd60e51b815260206004820152601e60248201527f45524332305065726d69743a20696e76616c6964207369676e61747572650000604482015260640161096f565b6116638a8a8a611c72565b50505050505050505050565b6009546001600160a01b031633146116995760405162461bcd60e51b815260040161096f906138da565b6013546301000000900460ff161561170b5760405162461bcd60e51b815260206004820152602f60248201527f656e61626c655472616e736665724665653a207472616e73666572206665652060448201526e185b1c9958591e48195b98589b1959608a1b606482015260840161096f565b6013805463ff000000191663010000001790556040517f97f84993d940e8e0fd1d2a188f5473251d6edc3959c0f7cc8bf6d0d27bf6087190600090a1565b6009546001600160a01b031633146117735760405162461bcd60e51b815260040161096f906138da565b6001600160a01b0381166117dc5760405162461bcd60e51b815260206004820152602a60248201527f73657446656552656365697665723a2063616e6e6f742062652073657420746f6044820152692030206164647265737360b01b606482015260840161096f565b601180546001600160a01b0319166001600160a01b0392909216919091179055565b60408051808201909152600080825260208201526001600160a01b0383166000908152600c60205260409020805463ffffffff841690811061184257611842613954565b60009182526020918290206040805180820190915291015463ffffffff8116825264010000000090046001600160e01b0316918101919091529392505050565b6009546001600160a01b031633146118ac5760405162461bcd60e51b815260040161096f906138da565b601480549082905560408051828152602081018490527fc0179bda8f211167acd15f2051ab181163377759879f914702bd48e39e52dc8a9101610c69565b6009546001600160a01b031633146119145760405162461bcd60e51b815260040161096f906138da565b6001600160a01b0381166119795760405162461bcd60e51b815260206004820152602660248201527f4f776e61626c653a206e6577206f776e657220697320746865207a65726f206160448201526564647265737360d01b606482015260840161096f565b610c7f81612777565b61198c8282611a12565b6002546001600160e01b0310156119fe5760405162461bcd60e51b815260206004820152603060248201527f4552433230566f7465733a20746f74616c20737570706c79207269736b73206f60448201526f766572666c6f77696e6720766f74657360801b606482015260840161096f565b611a0c600d611b0583612915565b50505050565b6001600160a01b038216611a685760405162461bcd60e51b815260206004820152601f60248201527f45524332303a206d696e7420746f20746865207a65726f206164647265737300604482015260640161096f565b611a7460008383612a8e565b8060026000828254611a869190613925565b90915550506001600160a01b03821660009081526020819052604081208054839290611ab3908490613925565b90915550506040518181526001600160a01b038316906000907fddf252ad1be2c89b69c2b068fc378daa952ba7f163c4a11628f55a4df523b3ef9060200160405180910390a3610ee360008383612a99565b6000610bfe8284613925565b60006001600160e01b03821115611b7a5760405162461bcd60e51b815260206004820152602760248201527f53616665436173743a2076616c756520646f65736e27742066697420696e20326044820152663234206269747360c81b606482015260840161096f565b5090565b600063ffffffff821115611b7a5760405162461bcd60e51b815260206004820152602660248201527f53616665436173743a2076616c756520646f65736e27742066697420696e203360448201526532206269747360d01b606482015260840161096f565b6001600160a01b038316611c0757611bfa82612aa4565b611c02612ad6565b505050565b6001600160a01b038216611c1e57611bfa83612aa4565b611c2783612aa4565b611c0282612aa4565b6001600160a01b038381166000908152600b6020526040808220548584168352912054611c0292918216911683612ae4565b6000610bfe828461393d565b5490565b6001600160a01b038316611cd45760405162461bcd60e51b8152602060048201526024808201527f45524332303a20617070726f76652066726f6d20746865207a65726f206164646044820152637265737360e01b606482015260840161096f565b6001600160a01b038216611d355760405162461bcd60e51b815260206004820152602260248201527f45524332303a20617070726f766520746f20746865207a65726f206164647265604482015261737360f01b606482015260840161096f565b6001600160a01b0383811660008181526001602090815260408083209487168084529482529182902085905590518481527f8c5be1e5ebec7d5bd14f71427d1e84f3dd0314c0f7b2291e5b200ac8c7c3b925910160405180910390a3505050565b6001600160a01b038381166000908152600160209081526040808320938616835292905220546000198114611a0c5781811015611e155760405162461bcd60e51b815260206004820152601d60248201527f45524332303a20696e73756666696369656e7420616c6c6f77616e6365000000604482015260640161096f565b611a0c8484848403611c72565b6001600160a01b038316611e8a5760405162461bcd60e51b815260206004820152602960248201527f5f7472616e736665723a207472616e736665722066726f6d20746865207a65726044820152686f206164647265737360b81b606482015260840161096f565b6001600160a01b038216611ef05760405162461bcd60e51b815260206004820152602760248201527f5f7472616e736665723a207472616e7366657220746f20746865207a65726f206044820152666164647265737360c81b606482015260840161096f565b6001600160a01b0383166000908152600e602052604090205460ff1615611f595760405162461bcd60e51b815260206004820181905260248201527f5f7472616e736665723a2053656e64657220697320626c61636b6c6973746564604482015260640161096f565b6001600160a01b0382166000908152600e602052604090205460ff1615611fce5760405162461bcd60e51b815260206004820152602360248201527f5f7472616e736665723a20526563697069656e7420697320626c61636b6c69736044820152621d195960ea1b606482015260840161096f565b80600003611fe257611c0283836000612c21565b60135460ff16612070576001600160a01b0383166000908152600f602052604090205460ff168061202b57506001600160a01b0382166000908152600f602052604090205460ff165b6120705760405162461bcd60e51b81526020600482015260166024820152752a3930b234b7339034b9903737ba1030b1ba34bb329760511b604482015260640161096f565b60185461207e906001613925565b43111580156120bf57507f00000000000000000000000000000000000000000000000000000000000000006001600160a01b0316826001600160a01b031614155b80156120e857506001600160a01b038216737a250d5630b4cf539739df2c5dacb4c659f2488d14155b15612137576001600160a01b0382166000818152600e6020526040808220805460ff19166001179055517fb90badc1cf1c52268f4fa9afb5276aebf640bcca3300cdfc9cf37db17daa13e29190a25b6001600160a01b03831660009081526010602052604090205460ff1615801561219257507f00000000000000000000000000000000000000000000000000000000000000006001600160a01b0316836001600160a01b031614155b80156121ac57506009546001600160a01b03848116911614155b80156121c657506009546001600160a01b03838116911614155b80156121dc5750601154600160a01b900460ff16155b1561220e576011805460ff60a01b1916600160a01b1790556121fc612e00565b426012556011805460ff60a01b191690555b60007f00000000000000000000000000000000000000000000000000000000000000006001600160a01b0316846001600160a01b0316148061228157507f00000000000000000000000000000000000000000000000000000000000000006001600160a01b0316836001600160a01b0316145b806122a457506001600160a01b03831660009081526010602052604090205460ff165b806122c757506001600160a01b03841660009081526010602052604090205460ff165b156122d0575060015b6013546301000000900460ff1615806122f25750601154600160a01b900460ff165b8061231557506001600160a01b0384166000908152600f602052604090205460ff165b8061233857506001600160a01b0383166000908152600f602052604090205460ff165b15612341575060005b801561240f576001600160a01b03831660009081526010602052604081205460ff168015612377575060135462010000900460ff165b1561239e576127106015548461238d919061396a565b6123979190613989565b90506123f0565b6001600160a01b03851660009081526010602052604090205460ff1680156123cd5750601354610100900460ff165b156123f057612710601454846123e3919061396a565b6123ed9190613989565b90505b801561240157612401853083612c21565b61240b818461393d565b9250505b611a0c848484612c21565b6000306001600160a01b037f00000000000000000000000000000000000000000000000000000000000000001614801561247357507f000000000000000000000000000000000000000000000000000000000000000046145b1561249d57507f000000000000000000000000000000000000000000000000000000000000000090565b50604080517f00000000000000000000000000000000000000000000000000000000000000006020808301919091527f0000000000000000000000000000000000000000000000000000000000000000828401527f000000000000000000000000000000000000000000000000000000000000000060608301524660808301523060a0808401919091528351808403909101815260c0909201909252805191012090565b8154600090815b818110156125a557600061255c8284613082565b90508486828154811061257157612571613954565b60009182526020909120015463ffffffff1611156125915780925061259f565b61259c816001613925565b91505b50612548565b81156125e957846125b760018461393d565b815481106125c7576125c7613954565b60009182526020909120015464010000000090046001600160e01b03166125ec565b60005b6001600160e01b031695945050505050565b610ee3828261309d565b600080600084116126545760405162461bcd60e51b815260206004820152601660248201527504552433230536e617073686f743a20696420697320360541b604482015260640161096f565b61265c6130b5565b8411156126ab5760405162461bcd60e51b815260206004820152601d60248201527f4552433230536e617073686f743a206e6f6e6578697374656e74206964000000604482015260640161096f565b60006126b784866130c0565b845490915081036126cf5760008092509250506126f7565b60018460010182815481106126e6576126e6613954565b906000526020600020015492509250505b9250929050565b6001600160a01b038281166000818152600b60208181526040808420805485845282862054949093528787166001600160a01b03198416811790915590519190951694919391928592917f3134e8a2e6d97e929a7e54011ea5485d7d196dd5f0ba4d4ef95803e8e3fc257f9190a4611a0c828483612ae4565b600980546001600160a01b038381166001600160a01b0319831681179093556040519116919082907f8be0079c531659141344cd1fd0a4f28419497f9722a3daafe3b4186f6b6457e090600090a35050565b60006127d9600880546001019055565b60006127e36130b5565b90507f8030e83b04d87bef53480e26263266d6ca66863aa8506aca6f2559d18aa1cb678160405161281691815260200190565b60405180910390a1919050565b6001600160a01b038216600081815260106020526040808220805460ff191685151590811790915590519092917fffa9187bf1f18bf477bd0ea1bcbb64e93b6a98132473929edfce215cd9b16fab91a35050565b600061091b61288461241a565b8360405161190160f01b6020820152602281018390526042810182905260009060620160405160208183030381529060405280519060200120905092915050565b60008060006128d687878787613185565b915091506128e381613272565b5095945050505050565b6001600160a01b0381166000908152600a602052604090208054600181018255905b50919050565b825460009081908015612960578561292e60018361393d565b8154811061293e5761293e613954565b60009182526020909120015464010000000090046001600160e01b0316612963565b60005b6001600160e01b0316925061297c83858763ffffffff16565b91506000811180156129ba5750438661299660018461393d565b815481106129a6576129a6613954565b60009182526020909120015463ffffffff16145b15612a1a576129c882611b11565b866129d460018461393d565b815481106129e4576129e4613954565b9060005260206000200160000160046101000a8154816001600160e01b0302191690836001600160e01b03160217905550612a85565b856040518060400160405280612a2f43611b7e565b63ffffffff168152602001612a4385611b11565b6001600160e01b0390811690915282546001810184556000938452602093849020835194909301519091166401000000000263ffffffff909316929092179101555b50935093915050565b611c02838383611be3565b611c02838383611c30565b6001600160a01b03811660009081526005602090815260408083209183905290912054610c7f9190613428565b613428565b610ecc6006612ad160025490565b816001600160a01b0316836001600160a01b031614158015612b065750600081115b15611c02576001600160a01b03831615612b94576001600160a01b0383166000908152600c602052604081208190612b4190611c6285612915565b91509150846001600160a01b03167fdec2bacdd2f05b59de34da9b523dff8be42e5e38e818c82fdb0bae774387a7248383604051612b89929190918252602082015260400190565b60405180910390a250505b6001600160a01b03821615611c02576001600160a01b0382166000908152600c602052604081208190612bca90611b0585612915565b91509150836001600160a01b03167fdec2bacdd2f05b59de34da9b523dff8be42e5e38e818c82fdb0bae774387a7248383604051612c12929190918252602082015260400190565b60405180910390a25050505050565b6001600160a01b038316612c855760405162461bcd60e51b815260206004820152602560248201527f45524332303a207472616e736665722066726f6d20746865207a65726f206164604482015264647265737360d81b606482015260840161096f565b6001600160a01b038216612ce75760405162461bcd60e51b815260206004820152602360248201527f45524332303a207472616e7366657220746f20746865207a65726f206164647260448201526265737360e81b606482015260840161096f565b612cf2838383612a8e565b6001600160a01b03831660009081526020819052604090205481811015612d6a5760405162461bcd60e51b815260206004820152602660248201527f45524332303a207472616e7366657220616d6f756e7420657863656564732062604482015265616c616e636560d01b606482015260840161096f565b6001600160a01b03808516600090815260208190526040808220858503905591851681529081208054849290612da1908490613925565b92505081905550826001600160a01b0316846001600160a01b03167fddf252ad1be2c89b69c2b068fc378daa952ba7f163c4a11628f55a4df523b3ef84604051612ded91815260200190565b60405180910390a3611a0c848484612a99565b30600090815260208190526040902054801580612e1e575060175481105b15612e265750565b604080516002808252606082018352600092839291906020830190803683370190505090503081600081518110612e5f57612e5f613954565b60200260200101906001600160a01b031690816001600160a01b0316815250507f00000000000000000000000000000000000000000000000000000000000000006001600160a01b031663ad5c46486040518163ffffffff1660e01b8152600401602060405180830381865afa158015612edd573d6000803e3d6000fd5b505050506040513d601f19601f82011682018060405250810190612f0191906139ab565b81600181518110612f1457612f14613954565b60200260200101906001600160a01b031690816001600160a01b031681525050612f5f307f000000000000000000000000000000000000000000000000000000000000000085611c72565b60405163791ac94760e01b81526001600160a01b037f0000000000000000000000000000000000000000000000000000000000000000169063791ac94790612fb49086906000908690309042906004016139c8565b600060405180830381600087803b158015612fce57600080fd5b505af1158015612fe2573d6000803e3d6000fd5b50506011546040516001600160a01b039091169250479150600081818185875af1925050503d8060008114613033576040519150601f19603f3d011682016040523d82523d6000602084013e613038565b606091505b50506011546040516001600160a01b0390911681529092507fb9c470ffa69e4030438aec612991e2431afea5300dd0b4e4195eb87d8769c3059060200160405180910390a1505050565b60006130916002848418613989565b610bfe90848416613925565b6130a78282613472565b611a0c600d611c6283612915565b6000610a7c60085490565b815460009081036130d35750600061091b565b82546000905b8082101561312f5760006130ed8383613082565b90508486828154811061310257613102613954565b9060005260206000200154111561311b57809150613129565b613126816001613925565b92505b506130d9565b6000821180156131645750838561314760018561393d565b8154811061315757613157613954565b9060005260206000200154145b1561317d5761317460018361393d565b9250505061091b565b50905061091b565b6000807f7fffffffffffffffffffffffffffffff5d576e7357a4501ddfe92f46681b20a08311156131bc5750600090506003613269565b8460ff16601b141580156131d457508460ff16601c14155b156131e55750600090506004613269565b6040805160008082526020820180845289905260ff881692820192909252606081018690526080810185905260019060a0016020604051602081039080840390855afa158015613239573d6000803e3d6000fd5b5050604051601f1901519150506001600160a01b03811661326257600060019250925050613269565b9150600090505b94509492505050565b600081600481111561328657613286613a39565b0361328e5750565b60018160048111156132a2576132a2613a39565b036132ef5760405162461bcd60e51b815260206004820152601860248201527f45434453413a20696e76616c6964207369676e61747572650000000000000000604482015260640161096f565b600281600481111561330357613303613a39565b036133505760405162461bcd60e51b815260206004820152601f60248201527f45434453413a20696e76616c6964207369676e6174757265206c656e67746800604482015260640161096f565b600381600481111561336457613364613a39565b036133bc5760405162461bcd60e51b815260206004820152602260248201527f45434453413a20696e76616c6964207369676e6174757265202773272076616c604482015261756560f01b606482015260840161096f565b60048160048111156133d0576133d0613a39565b03610c7f5760405162461bcd60e51b815260206004820152602260248201527f45434453413a20696e76616c6964207369676e6174757265202776272076616c604482015261756560f01b606482015260840161096f565b60006134326130b5565b90508061343e846135d3565b1015611c02578254600180820185556000858152602080822090930193909355938401805494850181558252902090910155565b6001600160a01b0382166134d25760405162461bcd60e51b815260206004820152602160248201527f45524332303a206275726e2066726f6d20746865207a65726f206164647265736044820152607360f81b606482015260840161096f565b6134de82600083612a8e565b6001600160a01b038216600090815260208190526040902054818110156135525760405162461bcd60e51b815260206004820152602260248201527f45524332303a206275726e20616d6f756e7420657863656564732062616c616e604482015261636560f01b606482015260840161096f565b6001600160a01b038316600090815260208190526040812083830390556002805484929061358190849061393d565b90915550506040518281526000906001600160a01b038516907fddf252ad1be2c89b69c2b068fc378daa952ba7f163c4a11628f55a4df523b3ef9060200160405180910390a3611c0283600084612a99565b805460009081036135e657506000919050565b815482906135f69060019061393d565b8154811061360657613606613954565b90600052602060002001549050919050565b919050565b600060208083528351808285015260005b8181101561364a5785810183015185820160400152820161362e565b8181111561365c576000604083870101525b50601f01601f1916929092016040019392505050565b6001600160a01b0381168114610c7f57600080fd5b6000806040838503121561369a57600080fd5b82356136a581613672565b946020939093013593505050565b6000806000606084860312156136c857600080fd5b83356136d381613672565b925060208401356136e381613672565b929592945050506040919091013590565b6000806040838503121561370757600080fd5b823561371281613672565b91506020830135801515811461372757600080fd5b809150509250929050565b60006020828403121561374457600080fd5b5035919050565b60006020828403121561375d57600080fd5b8135610bfe81613672565b803560ff8116811461361857600080fd5b60008060008060008060c0878903121561379257600080fd5b863561379d81613672565b955060208701359450604087013593506137b960608801613768565b92506080870135915060a087013590509295509295509295565b600080600080600080600060e0888a0312156137ee57600080fd5b87356137f981613672565b9650602088013561380981613672565b9550604088013594506060880135935061382560808901613768565b925060a0880135915060c0880135905092959891949750929550565b6000806040838503121561385457600080fd5b823561385f81613672565b9150602083013561372781613672565b6000806040838503121561388257600080fd5b823561388d81613672565b9150602083013563ffffffff8116811461372757600080fd5b600181811c908216806138ba57607f821691505b60208210810361290f57634e487b7160e01b600052602260045260246000fd5b6020808252818101527f4f776e61626c653a2063616c6c6572206973206e6f7420746865206f776e6572604082015260600190565b634e487b7160e01b600052601160045260246000fd5b600082198211156139385761393861390f565b500190565b60008282101561394f5761394f61390f565b500390565b634e487b7160e01b600052603260045260246000fd5b60008160001904831182151516156139845761398461390f565b500290565b6000826139a657634e487b7160e01b600052601260045260246000fd5b500490565b6000602082840312156139bd57600080fd5b8151610bfe81613672565b600060a082018783526020878185015260a0604085015281875180845260c086019150828901935060005b81811015613a185784516001600160a01b0316835293830193918301916001016139f3565b50506001600160a01b03969096166060850152505050608001529392505050565b634e487b7160e01b600052602160045260246000fdfea264697066735822122002eb817b37f6588a814dad941313e8c1bf1f9f6108f83d48b1c2f03461f4825b64736f6c634300080d0033dec2bacdd2f05b59de34da9b523dff8be42e5e38e818c82fdb0bae774387a724",
			"opcodes": "PUSH2 0x1A0 PUSH1 0x40 MSTORE PUSH32 0x6E71EDAE12B1B97F4D1F60370FEF10105FA2FAAE0126114A169C64845D6126C9 PUSH2 0x140 MSTORE PUSH1 0x13 DUP1 SLOAD PUSH4 0xFF000000 NOT AND PUSH4 0x1000000 OR SWAP1 SSTORE PUSH1 0x64 PUSH1 0x14 DUP2 SWAP1 SSTORE PUSH1 0x15 SSTORE PUSH10 0x54B40B1F852BDA00000 PUSH1 0x17 SSTORE CALLVALUE DUP1 ISZERO PUSH3 0x62 JUMPI PUSH1 0x0 DUP1 REVERT JUMPDEST POP PUSH1 0x40 MLOAD PUSH3 0x498D CODESIZE SUB DUP1 PUSH3 0x498D DUP4 CODECOPY DUP2 ADD PUSH1 0x40 DUP2 SWAP1 MSTORE PUSH3 0x85 SWAP2 PUSH3 0xC40 JUMP JUMPDEST PUSH1 0x40 MLOAD DUP1 PUSH1 0x40 ADD PUSH1 0x40 MSTORE DUP1 PUSH1 0xB DUP2 MSTORE PUSH1 0x20 ADD PUSH11 0x5369676E6174612044414F PUSH1 0xA8 SHL DUP2 MSTORE POP DUP1 PUSH1 0x40 MLOAD DUP1 PUSH1 0x40 ADD PUSH1 0x40 MSTORE DUP1 PUSH1 0x1 DUP2 MSTORE PUSH1 0x20 ADD PUSH1 0x31 PUSH1 0xF8 SHL DUP2 MSTORE POP PUSH1 0x40 MLOAD DUP1 PUSH1 0x40 ADD PUSH1 0x40 MSTORE DUP1 PUSH1 0xB DUP2 MSTORE PUSH1 0x20 ADD PUSH11 0x5369676E6174612044414F PUSH1 0xA8 SHL DUP2 MSTORE POP PUSH1 0x40 MLOAD DUP1 PUSH1 0x40 ADD PUSH1 0x40 MSTORE DUP1 PUSH1 0x5 DUP2 MSTORE PUSH1 0x20 ADD PUSH5 0x6453415441 PUSH1 0xD8 SHL DUP2 MSTORE POP DUP2 PUSH1 0x3 SWAP1 DUP1 MLOAD SWAP1 PUSH1 0x20 ADD SWAP1 PUSH3 0x11E SWAP3 SWAP2 SWAP1 PUSH3 0xBA4 JUMP JUMPDEST POP DUP1 MLOAD PUSH3 0x134 SWAP1 PUSH1 0x4 SWAP1 PUSH1 0x20 DUP5 ADD SWAP1 PUSH3 0xBA4 JUMP JUMPDEST POP POP POP PUSH3 0x151 PUSH3 0x14B PUSH3 0x39E PUSH1 0x20 SHL PUSH1 0x20 SHR JUMP JUMPDEST PUSH3 0x3A2 JUMP JUMPDEST DUP2 MLOAD PUSH1 0x20 SWAP3 DUP4 ADD KECCAK256 DUP2 MLOAD SWAP2 DUP4 ADD SWAP2 SWAP1 SWAP2 KECCAK256 PUSH1 0xE0 DUP3 SWAP1 MSTORE PUSH2 0x100 DUP2 SWAP1 MSTORE CHAINID PUSH1 0xA0 DUP2 DUP2 MSTORE PUSH1 0x40 DUP1 MLOAD PUSH32 0x8B73C3C69BB8FE3D512ECC4CF759CC79239F7B179B0FFACAA9A75D522B39400F DUP2 DUP9 ADD DUP2 SWAP1 MSTORE DUP2 DUP4 ADD SWAP7 SWAP1 SWAP7 MSTORE PUSH1 0x60 DUP2 ADD SWAP5 SWAP1 SWAP5 MSTORE PUSH1 0x80 DUP1 DUP6 ADD SWAP4 SWAP1 SWAP4 MSTORE ADDRESS DUP5 DUP4 ADD DUP2 SWAP1 MSTORE DUP2 MLOAD DUP1 DUP7 SUB SWAP1 SWAP4 ADD DUP4 MSTORE PUSH1 0xC0 DUP1 DUP7 ADD DUP1 DUP5 MSTORE DUP5 MLOAD SWAP5 DUP10 ADD SWAP5 SWAP1 SWAP5 KECCAK256 SWAP1 SWAP5 MSTORE SWAP1 SWAP3 MSTORE PUSH2 0x120 SWAP4 SWAP1 SWAP4 MSTORE PUSH1 0x11 DUP1 SLOAD PUSH1 0x1 PUSH1 0x1 PUSH1 0xA0 SHL SUB NOT AND PUSH1 0x1 PUSH1 0x1 PUSH1 0xA0 SHL SUB DUP9 AND OR SWAP1 SSTORE PUSH20 0x7A250D5630B4CF539739DF2C5DACB4C659F2488D PUSH2 0x160 DUP2 SWAP1 MSTORE PUSH4 0xC45A0155 PUSH1 0xE0 SHL SWAP1 SWAP4 MSTORE MLOAD SWAP2 SWAP4 POP DUP4 SWAP3 PUSH4 0xC45A0155 SWAP3 PUSH1 0xC4 DUP1 DUP5 ADD SWAP4 DUP3 SWAP1 SUB ADD DUP2 DUP7 GAS STATICCALL ISZERO DUP1 ISZERO PUSH3 0x252 JUMPI RETURNDATASIZE PUSH1 0x0 DUP1 RETURNDATACOPY RETURNDATASIZE PUSH1 0x0 REVERT JUMPDEST POP POP POP POP PUSH1 0x40 MLOAD RETURNDATASIZE PUSH1 0x1F NOT PUSH1 0x1F DUP3 ADD AND DUP3 ADD DUP1 PUSH1 0x40 MSTORE POP DUP2 ADD SWAP1 PUSH3 0x278 SWAP2 SWAP1 PUSH3 0xC40 JUMP JUMPDEST PUSH1 0x1 PUSH1 0x1 PUSH1 0xA0 SHL SUB AND PUSH4 0xC9C65396 ADDRESS DUP4 PUSH1 0x1 PUSH1 0x1 PUSH1 0xA0 SHL SUB AND PUSH4 0xAD5C4648 PUSH1 0x40 MLOAD DUP2 PUSH4 0xFFFFFFFF AND PUSH1 0xE0 SHL DUP2 MSTORE PUSH1 0x4 ADD PUSH1 0x20 PUSH1 0x40 MLOAD DUP1 DUP4 SUB DUP2 DUP7 GAS STATICCALL ISZERO DUP1 ISZERO PUSH3 0x2C6 JUMPI RETURNDATASIZE PUSH1 0x0 DUP1 RETURNDATACOPY RETURNDATASIZE PUSH1 0x0 REVERT JUMPDEST POP POP POP POP PUSH1 0x40 MLOAD RETURNDATASIZE PUSH1 0x1F NOT PUSH1 0x1F DUP3 ADD AND DUP3 ADD DUP1 PUSH1 0x40 MSTORE POP DUP2 ADD SWAP1 PUSH3 0x2EC SWAP2 SWAP1 PUSH3 0xC40 JUMP JUMPDEST PUSH1 0x40 MLOAD PUSH1 0x1 PUSH1 0x1 PUSH1 0xE0 SHL SUB NOT PUSH1 0xE0 DUP6 SWAP1 SHL AND DUP2 MSTORE PUSH1 0x1 PUSH1 0x1 PUSH1 0xA0 SHL SUB SWAP3 DUP4 AND PUSH1 0x4 DUP3 ADD MSTORE SWAP2 AND PUSH1 0x24 DUP3 ADD MSTORE PUSH1 0x44 ADD PUSH1 0x20 PUSH1 0x40 MLOAD DUP1 DUP4 SUB DUP2 PUSH1 0x0 DUP8 GAS CALL ISZERO DUP1 ISZERO PUSH3 0x33A JUMPI RETURNDATASIZE PUSH1 0x0 DUP1 RETURNDATACOPY RETURNDATASIZE PUSH1 0x0 REVERT JUMPDEST POP POP POP POP PUSH1 0x40 MLOAD RETURNDATASIZE PUSH1 0x1F NOT PUSH1 0x1F DUP3 ADD AND DUP3 ADD DUP1 PUSH1 0x40 MSTORE POP DUP2 ADD SWAP1 PUSH3 0x360 SWAP2 SWAP1 PUSH3 0xC40 JUMP JUMPDEST PUSH1 0x1 PUSH1 0x1 PUSH1 0xA0 SHL SUB AND PUSH2 0x180 MSTORE PUSH3 0x396 CALLER PUSH3 0x380 PUSH1 0x12 PUSH1 0xA PUSH3 0xD85 JUMP JUMPDEST PUSH3 0x390 SWAP1 PUSH4 0x2FAF080 PUSH3 0xD96 JUMP JUMPDEST PUSH3 0x3F4 JUMP JUMPDEST POP POP PUSH3 0xE3F JUMP JUMPDEST CALLER SWAP1 JUMP JUMPDEST PUSH1 0x9 DUP1 SLOAD PUSH1 0x1 PUSH1 0x1 PUSH1 0xA0 SHL SUB DUP4 DUP2 AND PUSH1 0x1 PUSH1 0x1 PUSH1 0xA0 SHL SUB NOT DUP4 AND DUP2 OR SWAP1 SWAP4 SSTORE PUSH1 0x40 MLOAD SWAP2 AND SWAP2 SWAP1 DUP3 SWAP1 PUSH32 0x8BE0079C531659141344CD1FD0A4F28419497F9722A3DAAFE3B4186F6B6457E0 SWAP1 PUSH1 0x0 SWAP1 LOG3 POP POP JUMP JUMPDEST PUSH3 0x40B DUP3 DUP3 PUSH3 0x40F PUSH1 0x20 SHL PUSH3 0x1982 OR PUSH1 0x20 SHR JUMP JUMPDEST POP POP JUMP JUMPDEST PUSH3 0x426 DUP3 DUP3 PUSH3 0x4C6 PUSH1 0x20 SHL PUSH3 0x1A12 OR PUSH1 0x20 SHR JUMP JUMPDEST PUSH1 0x1 PUSH1 0x1 PUSH1 0xE0 SHL SUB PUSH3 0x43A PUSH3 0x5C3 DUP3 AND JUMP JUMPDEST GT ISZERO PUSH3 0x4A7 JUMPI PUSH1 0x40 MLOAD PUSH3 0x461BCD PUSH1 0xE5 SHL DUP2 MSTORE PUSH1 0x20 PUSH1 0x4 DUP3 ADD MSTORE PUSH1 0x30 PUSH1 0x24 DUP3 ADD MSTORE PUSH32 0x4552433230566F7465733A20746F74616C20737570706C79207269736B73206F PUSH1 0x44 DUP3 ADD MSTORE PUSH16 0x766572666C6F77696E6720766F746573 PUSH1 0x80 SHL PUSH1 0x64 DUP3 ADD MSTORE PUSH1 0x84 ADD JUMPDEST PUSH1 0x40 MLOAD DUP1 SWAP2 SUB SWAP1 REVERT JUMPDEST PUSH3 0x4C0 PUSH1 0xD PUSH3 0x1B05 PUSH3 0x5C9 PUSH1 0x20 SHL OR DUP4 PUSH3 0x5E0 JUMP JUMPDEST POP POP POP POP JUMP JUMPDEST PUSH1 0x1 PUSH1 0x1 PUSH1 0xA0 SHL SUB DUP3 AND PUSH3 0x51E JUMPI PUSH1 0x40 MLOAD PUSH3 0x461BCD PUSH1 0xE5 SHL DUP2 MSTORE PUSH1 0x20 PUSH1 0x4 DUP3 ADD MSTORE PUSH1 0x1F PUSH1 0x24 DUP3 ADD MSTORE PUSH32 0x45524332303A206D696E7420746F20746865207A65726F206164647265737300 PUSH1 0x44 DUP3 ADD MSTORE PUSH1 0x64 ADD PUSH3 0x49E JUMP JUMPDEST PUSH3 0x52C PUSH1 0x0 DUP4 DUP4 PUSH3 0x792 JUMP JUMPDEST DUP1 PUSH1 0x2 PUSH1 0x0 DUP3 DUP3 SLOAD PUSH3 0x540 SWAP2 SWAP1 PUSH3 0xDB8 JUMP JUMPDEST SWAP1 SWAP2 SSTORE POP POP PUSH1 0x1 PUSH1 0x1 PUSH1 0xA0 SHL SUB DUP3 AND PUSH1 0x0 SWAP1 DUP2 MSTORE PUSH1 0x20 DUP2 SWAP1 MSTORE PUSH1 0x40 DUP2 KECCAK256 DUP1 SLOAD DUP4 SWAP3 SWAP1 PUSH3 0x56F SWAP1 DUP5 SWAP1 PUSH3 0xDB8 JUMP JUMPDEST SWAP1 SWAP2 SSTORE POP POP PUSH1 0x40 MLOAD DUP2 DUP2 MSTORE PUSH1 0x1 PUSH1 0x1 PUSH1 0xA0 SHL SUB DUP4 AND SWAP1 PUSH1 0x0 SWAP1 PUSH32 0xDDF252AD1BE2C89B69C2B068FC378DAA952BA7F163C4A11628F55A4DF523B3EF SWAP1 PUSH1 0x20 ADD PUSH1 0x40 MLOAD DUP1 SWAP2 SUB SWAP1 LOG3 PUSH3 0x40B PUSH1 0x0 DUP4 DUP4 PUSH3 0x7AF JUMP JUMPDEST PUSH1 0x2 SLOAD SWAP1 JUMP JUMPDEST PUSH1 0x0 PUSH3 0x5D7 DUP3 DUP5 PUSH3 0xDB8 JUMP JUMPDEST SWAP1 POP JUMPDEST SWAP3 SWAP2 POP POP JUMP JUMPDEST DUP3 SLOAD PUSH1 0x0 SWAP1 DUP2 SWAP1 DUP1 ISZERO PUSH3 0x632 JUMPI DUP6 PUSH3 0x5FC PUSH1 0x1 DUP4 PUSH3 0xDD3 JUMP JUMPDEST DUP2 SLOAD DUP2 LT PUSH3 0x60F JUMPI PUSH3 0x60F PUSH3 0xDED JUMP JUMPDEST PUSH1 0x0 SWAP2 DUP3 MSTORE PUSH1 0x20 SWAP1 SWAP2 KECCAK256 ADD SLOAD PUSH5 0x100000000 SWAP1 DIV PUSH1 0x1 PUSH1 0x1 PUSH1 0xE0 SHL SUB AND PUSH3 0x635 JUMP JUMPDEST PUSH1 0x0 JUMPDEST PUSH1 0x1 PUSH1 0x1 PUSH1 0xE0 SHL SUB AND SWAP3 POP PUSH3 0x64C DUP4 DUP6 DUP8 PUSH1 0x20 SHR JUMP JUMPDEST SWAP2 POP PUSH1 0x0 DUP2 GT DUP1 ISZERO PUSH3 0x690 JUMPI POP NUMBER DUP7 PUSH3 0x669 PUSH1 0x1 DUP5 PUSH3 0xDD3 JUMP JUMPDEST DUP2 SLOAD DUP2 LT PUSH3 0x67C JUMPI PUSH3 0x67C PUSH3 0xDED JUMP JUMPDEST PUSH1 0x0 SWAP2 DUP3 MSTORE PUSH1 0x20 SWAP1 SWAP2 KECCAK256 ADD SLOAD PUSH4 0xFFFFFFFF AND EQ JUMPDEST ISZERO PUSH3 0x704 JUMPI PUSH3 0x6AC DUP3 PUSH3 0x7C7 PUSH1 0x20 SHL PUSH3 0x1B11 OR PUSH1 0x20 SHR JUMP JUMPDEST DUP7 PUSH3 0x6BA PUSH1 0x1 DUP5 PUSH3 0xDD3 JUMP JUMPDEST DUP2 SLOAD DUP2 LT PUSH3 0x6CD JUMPI PUSH3 0x6CD PUSH3 0xDED JUMP JUMPDEST SWAP1 PUSH1 0x0 MSTORE PUSH1 0x20 PUSH1 0x0 KECCAK256 ADD PUSH1 0x0 ADD PUSH1 0x4 PUSH2 0x100 EXP DUP2 SLOAD DUP2 PUSH1 0x1 PUSH1 0x1 PUSH1 0xE0 SHL SUB MUL NOT AND SWAP1 DUP4 PUSH1 0x1 PUSH1 0x1 PUSH1 0xE0 SHL SUB AND MUL OR SWAP1 SSTORE POP PUSH3 0x789 JUMP JUMPDEST DUP6 PUSH1 0x40 MLOAD DUP1 PUSH1 0x40 ADD PUSH1 0x40 MSTORE DUP1 PUSH3 0x726 NUMBER PUSH3 0x836 PUSH1 0x20 SHL PUSH3 0x1B7E OR PUSH1 0x20 SHR JUMP JUMPDEST PUSH4 0xFFFFFFFF AND DUP2 MSTORE PUSH1 0x20 ADD PUSH3 0x747 DUP6 PUSH3 0x7C7 PUSH1 0x20 SHL PUSH3 0x1B11 OR PUSH1 0x20 SHR JUMP JUMPDEST PUSH1 0x1 PUSH1 0x1 PUSH1 0xE0 SHL SUB SWAP1 DUP2 AND SWAP1 SWAP2 MSTORE DUP3 SLOAD PUSH1 0x1 DUP2 ADD DUP5 SSTORE PUSH1 0x0 SWAP4 DUP5 MSTORE PUSH1 0x20 SWAP4 DUP5 SWAP1 KECCAK256 DUP4 MLOAD SWAP5 SWAP1 SWAP4 ADD MLOAD SWAP1 SWAP2 AND PUSH5 0x100000000 MUL PUSH4 0xFFFFFFFF SWAP1 SWAP4 AND SWAP3 SWAP1 SWAP3 OR SWAP2 ADD SSTORE JUMPDEST POP SWAP4 POP SWAP4 SWAP2 POP POP JUMP JUMPDEST PUSH3 0x7AA DUP4 DUP4 DUP4 PUSH3 0x89D PUSH1 0x20 SHL PUSH3 0x1BE3 OR PUSH1 0x20 SHR JUMP JUMPDEST POP POP POP JUMP JUMPDEST PUSH3 0x7AA DUP4 DUP4 DUP4 PUSH3 0x909 PUSH1 0x20 SHL PUSH3 0x1C30 OR PUSH1 0x20 SHR JUMP JUMPDEST PUSH1 0x0 PUSH1 0x1 PUSH1 0x1 PUSH1 0xE0 SHL SUB DUP3 GT ISZERO PUSH3 0x832 JUMPI PUSH1 0x40 MLOAD PUSH3 0x461BCD PUSH1 0xE5 SHL DUP2 MSTORE PUSH1 0x20 PUSH1 0x4 DUP3 ADD MSTORE PUSH1 0x27 PUSH1 0x24 DUP3 ADD MSTORE PUSH32 0x53616665436173743A2076616C756520646F65736E27742066697420696E2032 PUSH1 0x44 DUP3 ADD MSTORE PUSH7 0x32342062697473 PUSH1 0xC8 SHL PUSH1 0x64 DUP3 ADD MSTORE PUSH1 0x84 ADD PUSH3 0x49E JUMP JUMPDEST POP SWAP1 JUMP JUMPDEST PUSH1 0x0 PUSH4 0xFFFFFFFF DUP3 GT ISZERO PUSH3 0x832 JUMPI PUSH1 0x40 MLOAD PUSH3 0x461BCD PUSH1 0xE5 SHL DUP2 MSTORE PUSH1 0x20 PUSH1 0x4 DUP3 ADD MSTORE PUSH1 0x26 PUSH1 0x24 DUP3 ADD MSTORE PUSH32 0x53616665436173743A2076616C756520646F65736E27742066697420696E2033 PUSH1 0x44 DUP3 ADD MSTORE PUSH6 0x322062697473 PUSH1 0xD0 SHL PUSH1 0x64 DUP3 ADD MSTORE PUSH1 0x84 ADD PUSH3 0x49E JUMP JUMPDEST PUSH3 0x8B5 DUP4 DUP4 DUP4 PUSH3 0x7AA PUSH1 0x20 SHL PUSH3 0x1C02 OR PUSH1 0x20 SHR JUMP JUMPDEST PUSH1 0x1 PUSH1 0x1 PUSH1 0xA0 SHL SUB DUP4 AND PUSH3 0x8D9 JUMPI PUSH3 0x8CF DUP3 PUSH3 0x955 JUMP JUMPDEST PUSH3 0x7AA PUSH3 0x98D JUMP JUMPDEST PUSH1 0x1 PUSH1 0x1 PUSH1 0xA0 SHL SUB DUP3 AND PUSH3 0x8F3 JUMPI PUSH3 0x8CF DUP4 PUSH3 0x955 JUMP JUMPDEST PUSH3 0x8FE DUP4 PUSH3 0x955 JUMP JUMPDEST PUSH3 0x7AA DUP3 PUSH3 0x955 JUMP JUMPDEST PUSH3 0x921 DUP4 DUP4 DUP4 PUSH3 0x7AA PUSH1 0x20 SHL PUSH3 0x1C02 OR PUSH1 0x20 SHR JUMP JUMPDEST PUSH1 0x1 PUSH1 0x1 PUSH1 0xA0 SHL SUB DUP4 DUP2 AND PUSH1 0x0 SWAP1 DUP2 MSTORE PUSH1 0xB PUSH1 0x20 MSTORE PUSH1 0x40 DUP1 DUP3 KECCAK256 SLOAD DUP6 DUP5 AND DUP4 MSTORE SWAP2 KECCAK256 SLOAD PUSH3 0x7AA SWAP3 SWAP2 DUP3 AND SWAP2 AND DUP4 PUSH3 0x99F JUMP JUMPDEST PUSH1 0x1 PUSH1 0x1 PUSH1 0xA0 SHL SUB DUP2 AND PUSH1 0x0 SWAP1 DUP2 MSTORE PUSH1 0x5 PUSH1 0x20 SWAP1 DUP2 MSTORE PUSH1 0x40 DUP1 DUP4 KECCAK256 SWAP2 DUP4 SWAP1 MSTORE SWAP1 SWAP2 KECCAK256 SLOAD PUSH3 0x98A SWAP2 SWAP1 PUSH3 0xADA JUMP JUMPDEST PUSH3 0xADA JUMP JUMPDEST POP JUMP JUMPDEST PUSH3 0x99D PUSH1 0x6 PUSH3 0x984 PUSH1 0x2 SLOAD SWAP1 JUMP JUMPDEST JUMP JUMPDEST DUP2 PUSH1 0x1 PUSH1 0x1 PUSH1 0xA0 SHL SUB AND DUP4 PUSH1 0x1 PUSH1 0x1 PUSH1 0xA0 SHL SUB AND EQ ISZERO DUP1 ISZERO PUSH3 0x9C2 JUMPI POP PUSH1 0x0 DUP2 GT JUMPDEST ISZERO PUSH3 0x7AA JUMPI PUSH1 0x1 PUSH1 0x1 PUSH1 0xA0 SHL SUB DUP4 AND ISZERO PUSH3 0xA4F JUMPI PUSH1 0x1 PUSH1 0x1 PUSH1 0xA0 SHL SUB DUP4 AND PUSH1 0x0 SWAP1 DUP2 MSTORE PUSH1 0xC PUSH1 0x20 SWAP1 DUP2 MSTORE PUSH1 0x40 DUP3 KECCAK256 DUP3 SWAP2 PUSH3 0xA0C SWAP2 SWAP1 PUSH3 0xB29 SWAP1 SHL PUSH3 0x1C62 OR DUP6 PUSH3 0x5E0 JUMP JUMPDEST SWAP2 POP SWAP2 POP DUP5 PUSH1 0x1 PUSH1 0x1 PUSH1 0xA0 SHL SUB AND PUSH1 0x0 DUP1 MLOAD PUSH1 0x20 PUSH3 0x496D DUP4 CODECOPY DUP2 MLOAD SWAP2 MSTORE DUP4 DUP4 PUSH1 0x40 MLOAD PUSH3 0xA44 SWAP3 SWAP2 SWAP1 SWAP2 DUP3 MSTORE PUSH1 0x20 DUP3 ADD MSTORE PUSH1 0x40 ADD SWAP1 JUMP JUMPDEST PUSH1 0x40 MLOAD DUP1 SWAP2 SUB SWAP1 LOG2 POP POP JUMPDEST PUSH1 0x1 PUSH1 0x1 PUSH1 0xA0 SHL SUB DUP3 AND ISZERO PUSH3 0x7AA JUMPI PUSH1 0x1 PUSH1 0x1 PUSH1 0xA0 SHL SUB DUP3 AND PUSH1 0x0 SWAP1 DUP2 MSTORE PUSH1 0xC PUSH1 0x20 SWAP1 DUP2 MSTORE PUSH1 0x40 DUP3 KECCAK256 DUP3 SWAP2 PUSH3 0xA93 SWAP2 SWAP1 PUSH3 0x5C9 SWAP1 SHL PUSH3 0x1B05 OR DUP6 PUSH3 0x5E0 JUMP JUMPDEST SWAP2 POP SWAP2 POP DUP4 PUSH1 0x1 PUSH1 0x1 PUSH1 0xA0 SHL SUB AND PUSH1 0x0 DUP1 MLOAD PUSH1 0x20 PUSH3 0x496D DUP4 CODECOPY DUP2 MLOAD SWAP2 MSTORE DUP4 DUP4 PUSH1 0x40 MLOAD PUSH3 0xACB SWAP3 SWAP2 SWAP1 SWAP2 DUP3 MSTORE PUSH1 0x20 DUP3 ADD MSTORE PUSH1 0x40 ADD SWAP1 JUMP JUMPDEST PUSH1 0x40 MLOAD DUP1 SWAP2 SUB SWAP1 LOG2 POP POP POP POP POP JUMP JUMPDEST PUSH1 0x0 PUSH3 0xAE6 PUSH3 0xB37 JUMP JUMPDEST SWAP1 POP DUP1 PUSH3 0xAF4 DUP5 PUSH3 0xB55 JUMP JUMPDEST LT ISZERO PUSH3 0x7AA JUMPI DUP3 SLOAD PUSH1 0x1 DUP1 DUP3 ADD DUP6 SSTORE PUSH1 0x0 DUP6 DUP2 MSTORE PUSH1 0x20 DUP1 DUP3 KECCAK256 SWAP1 SWAP4 ADD SWAP4 SWAP1 SWAP4 SSTORE SWAP4 DUP5 ADD DUP1 SLOAD SWAP5 DUP6 ADD DUP2 SSTORE DUP3 MSTORE SWAP1 KECCAK256 SWAP1 SWAP2 ADD SSTORE JUMP JUMPDEST PUSH1 0x0 PUSH3 0x5D7 DUP3 DUP5 PUSH3 0xDD3 JUMP JUMPDEST PUSH1 0x0 PUSH3 0xB50 PUSH1 0x8 PUSH3 0xBA0 PUSH1 0x20 SHL PUSH3 0x1C6E OR PUSH1 0x20 SHR JUMP JUMPDEST SWAP1 POP SWAP1 JUMP JUMPDEST DUP1 SLOAD PUSH1 0x0 SWAP1 DUP2 SUB PUSH3 0xB69 JUMPI POP PUSH1 0x0 SWAP2 SWAP1 POP JUMP JUMPDEST DUP2 SLOAD DUP3 SWAP1 PUSH3 0xB7B SWAP1 PUSH1 0x1 SWAP1 PUSH3 0xDD3 JUMP JUMPDEST DUP2 SLOAD DUP2 LT PUSH3 0xB8E JUMPI PUSH3 0xB8E PUSH3 0xDED JUMP JUMPDEST SWAP1 PUSH1 0x0 MSTORE PUSH1 0x20 PUSH1 0x0 KECCAK256 ADD SLOAD SWAP1 POP SWAP2 SWAP1 POP JUMP JUMPDEST SLOAD SWAP1 JUMP JUMPDEST DUP3 DUP1 SLOAD PUSH3 0xBB2 SWAP1 PUSH3 0xE03 JUMP JUMPDEST SWAP1 PUSH1 0x0 MSTORE PUSH1 0x20 PUSH1 0x0 KECCAK256 SWAP1 PUSH1 0x1F ADD PUSH1 0x20 SWAP1 DIV DUP2 ADD SWAP3 DUP3 PUSH3 0xBD6 JUMPI PUSH1 0x0 DUP6 SSTORE PUSH3 0xC21 JUMP JUMPDEST DUP3 PUSH1 0x1F LT PUSH3 0xBF1 JUMPI DUP1 MLOAD PUSH1 0xFF NOT AND DUP4 DUP1 ADD OR DUP6 SSTORE PUSH3 0xC21 JUMP JUMPDEST DUP3 DUP1 ADD PUSH1 0x1 ADD DUP6 SSTORE DUP3 ISZERO PUSH3 0xC21 JUMPI SWAP2 DUP3 ADD JUMPDEST DUP3 DUP2 GT ISZERO PUSH3 0xC21 JUMPI DUP3 MLOAD DUP3 SSTORE SWAP2 PUSH1 0x20 ADD SWAP2 SWAP1 PUSH1 0x1 ADD SWAP1 PUSH3 0xC04 JUMP JUMPDEST POP PUSH3 0x832 SWAP3 SWAP2 POP JUMPDEST DUP1 DUP3 GT ISZERO PUSH3 0x832 JUMPI PUSH1 0x0 DUP2 SSTORE PUSH1 0x1 ADD PUSH3 0xC2A JUMP JUMPDEST PUSH1 0x0 PUSH1 0x20 DUP3 DUP5 SUB SLT ISZERO PUSH3 0xC53 JUMPI PUSH1 0x0 DUP1 REVERT JUMPDEST DUP2 MLOAD PUSH1 0x1 PUSH1 0x1 PUSH1 0xA0 SHL SUB DUP2 AND DUP2 EQ PUSH3 0xC6B JUMPI PUSH1 0x0 DUP1 REVERT JUMPDEST SWAP4 SWAP3 POP POP POP JUMP JUMPDEST PUSH4 0x4E487B71 PUSH1 0xE0 SHL PUSH1 0x0 MSTORE PUSH1 0x11 PUSH1 0x4 MSTORE PUSH1 0x24 PUSH1 0x0 REVERT JUMPDEST PUSH1 0x1 DUP2 DUP2 JUMPDEST DUP1 DUP6 GT ISZERO PUSH3 0xCC9 JUMPI DUP2 PUSH1 0x0 NOT DIV DUP3 GT ISZERO PUSH3 0xCAD JUMPI PUSH3 0xCAD PUSH3 0xC72 JUMP JUMPDEST DUP1 DUP6 AND ISZERO PUSH3 0xCBB JUMPI SWAP2 DUP2 MUL SWAP2 JUMPDEST SWAP4 DUP5 SHR SWAP4 SWAP1 DUP1 MUL SWAP1 PUSH3 0xC8D JUMP JUMPDEST POP SWAP3 POP SWAP3 SWAP1 POP JUMP JUMPDEST PUSH1 0x0 DUP3 PUSH3 0xCE2 JUMPI POP PUSH1 0x1 PUSH3 0x5DA JUMP JUMPDEST DUP2 PUSH3 0xCF1 JUMPI POP PUSH1 0x0 PUSH3 0x5DA JUMP JUMPDEST DUP2 PUSH1 0x1 DUP2 EQ PUSH3 0xD0A JUMPI PUSH1 0x2 DUP2 EQ PUSH3 0xD15 JUMPI PUSH3 0xD35 JUMP JUMPDEST PUSH1 0x1 SWAP2 POP POP PUSH3 0x5DA JUMP JUMPDEST PUSH1 0xFF DUP5 GT ISZERO PUSH3 0xD29 JUMPI PUSH3 0xD29 PUSH3 0xC72 JUMP JUMPDEST POP POP PUSH1 0x1 DUP3 SHL PUSH3 0x5DA JUMP JUMPDEST POP PUSH1 0x20 DUP4 LT PUSH2 0x133 DUP4 LT AND PUSH1 0x4E DUP5 LT PUSH1 0xB DUP5 LT AND OR ISZERO PUSH3 0xD5A JUMPI POP DUP2 DUP2 EXP PUSH3 0x5DA JUMP JUMPDEST PUSH3 0xD66 DUP4 DUP4 PUSH3 0xC88 JUMP JUMPDEST DUP1 PUSH1 0x0 NOT DIV DUP3 GT ISZERO PUSH3 0xD7D JUMPI PUSH3 0xD7D PUSH3 0xC72 JUMP JUMPDEST MUL SWAP4 SWAP3 POP POP POP JUMP JUMPDEST PUSH1 0x0 PUSH3 0x5D7 PUSH1 0xFF DUP5 AND DUP4 PUSH3 0xCD1 JUMP JUMPDEST PUSH1 0x0 DUP2 PUSH1 0x0 NOT DIV DUP4 GT DUP3 ISZERO ISZERO AND ISZERO PUSH3 0xDB3 JUMPI PUSH3 0xDB3 PUSH3 0xC72 JUMP JUMPDEST POP MUL SWAP1 JUMP JUMPDEST PUSH1 0x0 DUP3 NOT DUP3 GT ISZERO PUSH3 0xDCE JUMPI PUSH3 0xDCE PUSH3 0xC72 JUMP JUMPDEST POP ADD SWAP1 JUMP JUMPDEST PUSH1 0x0 DUP3 DUP3 LT ISZERO PUSH3 0xDE8 JUMPI PUSH3 0xDE8 PUSH3 0xC72 JUMP JUMPDEST POP SUB SWAP1 JUMP JUMPDEST PUSH4 0x4E487B71 PUSH1 0xE0 SHL PUSH1 0x0 MSTORE PUSH1 0x32 PUSH1 0x4 MSTORE PUSH1 0x24 PUSH1 0x0 REVERT JUMPDEST PUSH1 0x1 DUP2 DUP2 SHR SWAP1 DUP3 AND DUP1 PUSH3 0xE18 JUMPI PUSH1 0x7F DUP3 AND SWAP2 POP JUMPDEST PUSH1 0x20 DUP3 LT DUP2 SUB PUSH3 0xE39 JUMPI PUSH4 0x4E487B71 PUSH1 0xE0 SHL PUSH1 0x0 MSTORE PUSH1 0x22 PUSH1 0x4 MSTORE PUSH1 0x24 PUSH1 0x0 REVERT JUMPDEST POP SWAP2 SWAP1 POP JUMP JUMPDEST PUSH1 0x80 MLOAD PUSH1 0xA0 MLOAD PUSH1 0xC0 MLOAD PUSH1 0xE0 MLOAD PUSH2 0x100 MLOAD PUSH2 0x120 MLOAD PUSH2 0x140 MLOAD PUSH2 0x160 MLOAD PUSH2 0x180 MLOAD PUSH2 0x3A85 PUSH3 0xEE8 PUSH1 0x0 CODECOPY PUSH1 0x0 DUP2 DUP2 PUSH2 0x500 ADD MSTORE DUP2 DUP2 PUSH2 0x109E ADD MSTORE DUP2 DUP2 PUSH2 0x208A ADD MSTORE DUP2 DUP2 PUSH2 0x2212 ADD MSTORE PUSH2 0x224D ADD MSTORE PUSH1 0x0 DUP2 DUP2 PUSH2 0x3FB ADD MSTORE DUP2 DUP2 PUSH2 0x215D ADD MSTORE DUP2 DUP2 PUSH2 0x2E81 ADD MSTORE DUP2 DUP2 PUSH2 0x2F3A ADD MSTORE PUSH2 0x2F76 ADD MSTORE PUSH1 0x0 PUSH2 0x155F ADD MSTORE PUSH1 0x0 PUSH2 0x24A4 ADD MSTORE PUSH1 0x0 PUSH2 0x24F3 ADD MSTORE PUSH1 0x0 PUSH2 0x24CE ADD MSTORE PUSH1 0x0 PUSH2 0x2427 ADD MSTORE PUSH1 0x0 PUSH2 0x2451 ADD MSTORE PUSH1 0x0 PUSH2 0x247B ADD MSTORE PUSH2 0x3A85 PUSH1 0x0 RETURN INVALID PUSH1 0x80 PUSH1 0x40 MSTORE CALLVALUE DUP1 ISZERO PUSH2 0x10 JUMPI PUSH1 0x0 DUP1 REVERT JUMPDEST POP PUSH1 0x4 CALLDATASIZE LT PUSH2 0x399 JUMPI PUSH1 0x0 CALLDATALOAD PUSH1 0xE0 SHR DUP1 PUSH4 0x84A372B8 GT PUSH2 0x1E9 JUMPI DUP1 PUSH4 0xC0246668 GT PUSH2 0x10F JUMPI DUP1 PUSH4 0xEFDCD974 GT PUSH2 0xAD JUMPI DUP1 PUSH4 0xF2FDE38B GT PUSH2 0x7C JUMPI DUP1 PUSH4 0xF2FDE38B EQ PUSH2 0x819 JUMPI DUP1 PUSH4 0xF356CF90 EQ PUSH2 0x82C JUMPI DUP1 PUSH4 0xF9F92BE4 EQ PUSH2 0x83F JUMPI DUP1 PUSH4 0xFFB896EF EQ PUSH2 0x862 JUMPI PUSH1 0x0 DUP1 REVERT JUMPDEST DUP1 PUSH4 0xEFDCD974 EQ PUSH2 0x7A2 JUMPI DUP1 PUSH4 0xEFFB3C53 EQ PUSH2 0x7B5 JUMPI DUP1 PUSH4 0xF1127ED8 EQ PUSH2 0x7C9 JUMPI DUP1 PUSH4 0xF1BE9915 EQ PUSH2 0x806 JUMPI PUSH1 0x0 DUP1 REVERT JUMPDEST DUP1 PUSH4 0xDAC1DCFE GT PUSH2 0xE9 JUMPI DUP1 PUSH4 0xDAC1DCFE EQ PUSH2 0x72C JUMPI DUP1 PUSH4 0xDBE66CA0 EQ PUSH2 0x734 JUMPI DUP1 PUSH4 0xDD62ED3E EQ PUSH2 0x760 JUMPI DUP1 PUSH4 0xE2F45605 EQ PUSH2 0x799 JUMPI PUSH1 0x0 DUP1 REVERT JUMPDEST DUP1 PUSH4 0xC0246668 EQ PUSH2 0x6F3 JUMPI DUP1 PUSH4 0xC3CDA520 EQ PUSH2 0x706 JUMPI DUP1 PUSH4 0xD505ACCF EQ PUSH2 0x719 JUMPI PUSH1 0x0 DUP1 REVERT JUMPDEST DUP1 PUSH4 0x981B24D0 GT PUSH2 0x187 JUMPI DUP1 PUSH4 0xA9059CBB GT PUSH2 0x156 JUMPI DUP1 PUSH4 0xA9059CBB EQ PUSH2 0x6A8 JUMPI DUP1 PUSH4 0xABA7E64F EQ PUSH2 0x6BB JUMPI DUP1 PUSH4 0xB62496F5 EQ PUSH2 0x6C3 JUMPI DUP1 PUSH4 0xBBC0C742 EQ PUSH2 0x6E6 JUMPI PUSH1 0x0 DUP1 REVERT JUMPDEST DUP1 PUSH4 0x981B24D0 EQ PUSH2 0x65C JUMPI DUP1 PUSH4 0x9A7A23D6 EQ PUSH2 0x66F JUMPI DUP1 PUSH4 0x9AB24EB0 EQ PUSH2 0x682 JUMPI DUP1 PUSH4 0xA457C2D7 EQ PUSH2 0x695 JUMPI PUSH1 0x0 DUP1 REVERT JUMPDEST DUP1 PUSH4 0x8DA5CB5B GT PUSH2 0x1C3 JUMPI DUP1 PUSH4 0x8DA5CB5B EQ PUSH2 0x628 JUMPI DUP1 PUSH4 0x8E539E8C EQ PUSH2 0x639 JUMPI DUP1 PUSH4 0x95D89B41 EQ PUSH2 0x64C JUMPI DUP1 PUSH4 0x9711715A EQ PUSH2 0x654 JUMPI PUSH1 0x0 DUP1 REVERT JUMPDEST DUP1 PUSH4 0x84A372B8 EQ PUSH2 0x5FB JUMPI DUP1 PUSH4 0x871D0719 EQ PUSH2 0x60E JUMPI DUP1 PUSH4 0x8A8C523C EQ PUSH2 0x620 JUMPI PUSH1 0x0 DUP1 REVERT JUMPDEST DUP1 PUSH4 0x3EDA67CD GT PUSH2 0x2CE JUMPI DUP1 PUSH4 0x4EE2CD7E GT PUSH2 0x26C JUMPI DUP1 PUSH4 0x70A08231 GT PUSH2 0x23B JUMPI DUP1 PUSH4 0x70A08231 EQ PUSH2 0x5A4 JUMPI DUP1 PUSH4 0x715018A6 EQ PUSH2 0x5CD JUMPI DUP1 PUSH4 0x79CC6790 EQ PUSH2 0x5D5 JUMPI DUP1 PUSH4 0x7ECEBE00 EQ PUSH2 0x5E8 JUMPI PUSH1 0x0 DUP1 REVERT JUMPDEST DUP1 PUSH4 0x4EE2CD7E EQ PUSH2 0x52A JUMPI DUP1 PUSH4 0x587CDE1E EQ PUSH2 0x53D JUMPI DUP1 PUSH4 0x5C19A95C EQ PUSH2 0x569 JUMPI DUP1 PUSH4 0x6FCFFF45 EQ PUSH2 0x57C JUMPI PUSH1 0x0 DUP1 REVERT JUMPDEST DUP1 PUSH4 0x4546FF49 GT PUSH2 0x2A8 JUMPI DUP1 PUSH4 0x4546FF49 EQ PUSH2 0x4EA JUMPI DUP1 PUSH4 0x47062402 EQ PUSH2 0x4F2 JUMPI DUP1 PUSH4 0x49BD5A5E EQ PUSH2 0x4FB JUMPI DUP1 PUSH4 0x4C7D5656 EQ PUSH2 0x522 JUMPI PUSH1 0x0 DUP1 REVERT JUMPDEST DUP1 PUSH4 0x3EDA67CD EQ PUSH2 0x4BB JUMPI DUP1 PUSH4 0x3F8A6204 EQ PUSH2 0x4CE JUMPI DUP1 PUSH4 0x42966C68 EQ PUSH2 0x4D7 JUMPI PUSH1 0x0 DUP1 REVERT JUMPDEST DUP1 PUSH4 0x2D5A5D34 GT PUSH2 0x33B JUMPI DUP1 PUSH4 0x3644E515 GT PUSH2 0x315 JUMPI DUP1 PUSH4 0x3644E515 EQ PUSH2 0x485 JUMPI DUP1 PUSH4 0x3746391B EQ PUSH2 0x48D JUMPI DUP1 PUSH4 0x39509351 EQ PUSH2 0x495 JUMPI DUP1 PUSH4 0x3A46B1A8 EQ PUSH2 0x4A8 JUMPI PUSH1 0x0 DUP1 REVERT JUMPDEST DUP1 PUSH4 0x2D5A5D34 EQ PUSH2 0x459 JUMPI DUP1 PUSH4 0x313CE567 EQ PUSH2 0x46E JUMPI DUP1 PUSH4 0x334B5F99 EQ PUSH2 0x47D JUMPI PUSH1 0x0 DUP1 REVERT JUMPDEST DUP1 PUSH4 0x1694505E GT PUSH2 0x377 JUMPI DUP1 PUSH4 0x1694505E EQ PUSH2 0x3F6 JUMPI DUP1 PUSH4 0x18160DDD EQ PUSH2 0x435 JUMPI DUP1 PUSH4 0x23B872DD EQ PUSH2 0x43D JUMPI DUP1 PUSH4 0x2B14CA56 EQ PUSH2 0x450 JUMPI PUSH1 0x0 DUP1 REVERT JUMPDEST DUP1 PUSH4 0x6FDDE03 EQ PUSH2 0x39E JUMPI DUP1 PUSH4 0x95EA7B3 EQ PUSH2 0x3BC JUMPI DUP1 PUSH4 0xDD87157 EQ PUSH2 0x3DF JUMPI JUMPDEST PUSH1 0x0 DUP1 REVERT JUMPDEST PUSH2 0x3A6 PUSH2 0x875 JUMP JUMPDEST PUSH1 0x40 MLOAD PUSH2 0x3B3 SWAP2 SWAP1 PUSH2 0x361D JUMP JUMPDEST PUSH1 0x40 MLOAD DUP1 SWAP2 SUB SWAP1 RETURN JUMPDEST PUSH2 0x3CF PUSH2 0x3CA CALLDATASIZE PUSH1 0x4 PUSH2 0x3687 JUMP JUMPDEST PUSH2 0x907 JUMP JUMPDEST PUSH1 0x40 MLOAD SWAP1 ISZERO ISZERO DUP2 MSTORE PUSH1 0x20 ADD PUSH2 0x3B3 JUMP JUMPDEST PUSH2 0x3E8 PUSH1 0x12 SLOAD DUP2 JUMP JUMPDEST PUSH1 0x40 MLOAD SWAP1 DUP2 MSTORE PUSH1 0x20 ADD PUSH2 0x3B3 JUMP JUMPDEST PUSH2 0x41D PUSH32 0x0 DUP2 JUMP JUMPDEST PUSH1 0x40 MLOAD PUSH1 0x1 PUSH1 0x1 PUSH1 0xA0 SHL SUB SWAP1 SWAP2 AND DUP2 MSTORE PUSH1 0x20 ADD PUSH2 0x3B3 JUMP JUMPDEST PUSH1 0x2 SLOAD PUSH2 0x3E8 JUMP JUMPDEST PUSH2 0x3CF PUSH2 0x44B CALLDATASIZE PUSH1 0x4 PUSH2 0x36B3 JUMP JUMPDEST PUSH2 0x921 JUMP JUMPDEST PUSH2 0x3E8 PUSH1 0x15 SLOAD DUP2 JUMP JUMPDEST PUSH2 0x46C PUSH2 0x467 CALLDATASIZE PUSH1 0x4 PUSH2 0x36F4 JUMP JUMPDEST PUSH2 0x945 JUMP JUMPDEST STOP JUMPDEST PUSH1 0x40 MLOAD PUSH1 0x12 DUP2 MSTORE PUSH1 0x20 ADD PUSH2 0x3B3 JUMP JUMPDEST PUSH2 0x46C PUSH2 0x9A3 JUMP JUMPDEST PUSH2 0x3E8 PUSH2 0xA72 JUMP JUMPDEST PUSH2 0x46C PUSH2 0xA81 JUMP JUMPDEST PUSH2 0x3CF PUSH2 0x4A3 CALLDATASIZE PUSH1 0x4 PUSH2 0x3687 JUMP JUMPDEST PUSH2 0xB4C JUMP JUMPDEST PUSH2 0x3E8 PUSH2 0x4B6 CALLDATASIZE PUSH1 0x4 PUSH2 0x3687 JUMP JUMPDEST PUSH2 0xB8B JUMP JUMPDEST PUSH2 0x46C PUSH2 0x4C9 CALLDATASIZE PUSH1 0x4 PUSH2 0x3732 JUMP JUMPDEST PUSH2 0xC05 JUMP JUMPDEST PUSH2 0x3E8 PUSH1 0x16 SLOAD DUP2 JUMP JUMPDEST PUSH2 0x46C PUSH2 0x4E5 CALLDATASIZE PUSH1 0x4 PUSH2 0x3732 JUMP JUMPDEST PUSH2 0xC75 JUMP JUMPDEST PUSH2 0x46C PUSH2 0xC82 JUMP JUMPDEST PUSH2 0x3E8 PUSH1 0x14 SLOAD DUP2 JUMP JUMPDEST PUSH2 0x41D PUSH32 0x0 DUP2 JUMP JUMPDEST PUSH2 0x46C PUSH2 0xD4C JUMP JUMPDEST PUSH2 0x3E8 PUSH2 0x538 CALLDATASIZE PUSH1 0x4 PUSH2 0x3687 JUMP JUMPDEST PUSH2 0xE13 JUMP JUMPDEST PUSH2 0x41D PUSH2 0x54B CALLDATASIZE PUSH1 0x4 PUSH2 0x374B JUMP JUMPDEST PUSH1 0x1 PUSH1 0x1 PUSH1 0xA0 SHL SUB SWAP1 DUP2 AND PUSH1 0x0 SWAP1 DUP2 MSTORE PUSH1 0xB PUSH1 0x20 MSTORE PUSH1 0x40 SWAP1 KECCAK256 SLOAD AND SWAP1 JUMP JUMPDEST PUSH2 0x46C PUSH2 0x577 CALLDATASIZE PUSH1 0x4 PUSH2 0x374B JUMP JUMPDEST PUSH2 0xE6C JUMP JUMPDEST PUSH2 0x58F PUSH2 0x58A CALLDATASIZE PUSH1 0x4 PUSH2 0x374B JUMP JUMPDEST PUSH2 0xE76 JUMP JUMPDEST PUSH1 0x40 MLOAD PUSH4 0xFFFFFFFF SWAP1 SWAP2 AND DUP2 MSTORE PUSH1 0x20 ADD PUSH2 0x3B3 JUMP JUMPDEST PUSH2 0x3E8 PUSH2 0x5B2 CALLDATASIZE PUSH1 0x4 PUSH2 0x374B JUMP JUMPDEST PUSH1 0x1 PUSH1 0x1 PUSH1 0xA0 SHL SUB AND PUSH1 0x0 SWAP1 DUP2 MSTORE PUSH1 0x20 DUP2 SWAP1 MSTORE PUSH1 0x40 SWAP1 KECCAK256 SLOAD SWAP1 JUMP JUMPDEST PUSH2 0x46C PUSH2 0xE98 JUMP JUMPDEST PUSH2 0x46C PUSH2 0x5E3 CALLDATASIZE PUSH1 0x4 PUSH2 0x3687 JUMP JUMPDEST PUSH2 0xECE JUMP JUMPDEST PUSH2 0x3E8 PUSH2 0x5F6 CALLDATASIZE PUSH1 0x4 PUSH2 0x374B JUMP JUMPDEST PUSH2 0xEE7 JUMP JUMPDEST PUSH2 0x46C PUSH2 0x609 CALLDATASIZE PUSH1 0x4 PUSH2 0x3732 JUMP JUMPDEST PUSH2 0xF05 JUMP JUMPDEST PUSH1 0x13 SLOAD PUSH2 0x3CF SWAP1 PUSH2 0x100 SWAP1 DIV PUSH1 0xFF AND DUP2 JUMP JUMPDEST PUSH2 0x46C PUSH2 0xF6D JUMP JUMPDEST PUSH1 0x9 SLOAD PUSH1 0x1 PUSH1 0x1 PUSH1 0xA0 SHL SUB AND PUSH2 0x41D JUMP JUMPDEST PUSH2 0x3E8 PUSH2 0x647 CALLDATASIZE PUSH1 0x4 PUSH2 0x3732 JUMP JUMPDEST PUSH2 0xFAA JUMP JUMPDEST PUSH2 0x3A6 PUSH2 0x1006 JUMP JUMPDEST PUSH2 0x46C PUSH2 0x1015 JUMP JUMPDEST PUSH2 0x3E8 PUSH2 0x66A CALLDATASIZE PUSH1 0x4 PUSH2 0x3732 JUMP JUMPDEST PUSH2 0x1047 JUMP JUMPDEST PUSH2 0x46C PUSH2 0x67D CALLDATASIZE PUSH1 0x4 PUSH2 0x36F4 JUMP JUMPDEST PUSH2 0x1072 JUMP JUMPDEST PUSH2 0x3E8 PUSH2 0x690 CALLDATASIZE PUSH1 0x4 PUSH2 0x374B JUMP JUMPDEST PUSH2 0x114D JUMP JUMPDEST PUSH2 0x3CF PUSH2 0x6A3 CALLDATASIZE PUSH1 0x4 PUSH2 0x3687 JUMP JUMPDEST PUSH2 0x11D4 JUMP JUMPDEST PUSH2 0x3CF PUSH2 0x6B6 CALLDATASIZE PUSH1 0x4 PUSH2 0x3687 JUMP JUMPDEST PUSH2 0x1266 JUMP JUMPDEST PUSH2 0x46C PUSH2 0x1274 JUMP JUMPDEST PUSH2 0x3CF PUSH2 0x6D1 CALLDATASIZE PUSH1 0x4 PUSH2 0x374B JUMP JUMPDEST PUSH1 0x10 PUSH1 0x20 MSTORE PUSH1 0x0 SWAP1 DUP2 MSTORE PUSH1 0x40 SWAP1 KECCAK256 SLOAD PUSH1 0xFF AND DUP2 JUMP JUMPDEST PUSH1 0x13 SLOAD PUSH2 0x3CF SWAP1 PUSH1 0xFF AND DUP2 JUMP JUMPDEST PUSH2 0x46C PUSH2 0x701 CALLDATASIZE PUSH1 0x4 PUSH2 0x36F4 JUMP JUMPDEST PUSH2 0x134F JUMP JUMPDEST PUSH2 0x46C PUSH2 0x714 CALLDATASIZE PUSH1 0x4 PUSH2 0x3779 JUMP JUMPDEST PUSH2 0x13D5 JUMP JUMPDEST PUSH2 0x46C PUSH2 0x727 CALLDATASIZE PUSH1 0x4 PUSH2 0x37D3 JUMP JUMPDEST PUSH2 0x150B JUMP JUMPDEST PUSH2 0x46C PUSH2 0x166F JUMP JUMPDEST PUSH2 0x3CF PUSH2 0x742 CALLDATASIZE PUSH1 0x4 PUSH2 0x374B JUMP JUMPDEST PUSH1 0x1 PUSH1 0x1 PUSH1 0xA0 SHL SUB AND PUSH1 0x0 SWAP1 DUP2 MSTORE PUSH1 0xF PUSH1 0x20 MSTORE PUSH1 0x40 SWAP1 KECCAK256 SLOAD PUSH1 0xFF AND SWAP1 JUMP JUMPDEST PUSH2 0x3E8 PUSH2 0x76E CALLDATASIZE PUSH1 0x4 PUSH2 0x3841 JUMP JUMPDEST PUSH1 0x1 PUSH1 0x1 PUSH1 0xA0 SHL SUB SWAP2 DUP3 AND PUSH1 0x0 SWAP1 DUP2 MSTORE PUSH1 0x1 PUSH1 0x20 SWAP1 DUP2 MSTORE PUSH1 0x40 DUP1 DUP4 KECCAK256 SWAP4 SWAP1 SWAP5 AND DUP3 MSTORE SWAP2 SWAP1 SWAP2 MSTORE KECCAK256 SLOAD SWAP1 JUMP JUMPDEST PUSH2 0x3E8 PUSH1 0x17 SLOAD DUP2 JUMP JUMPDEST PUSH2 0x46C PUSH2 0x7B0 CALLDATASIZE PUSH1 0x4 PUSH2 0x374B JUMP JUMPDEST PUSH2 0x1749 JUMP JUMPDEST PUSH1 0x13 SLOAD PUSH2 0x3CF SWAP1 PUSH4 0x1000000 SWAP1 DIV PUSH1 0xFF AND DUP2 JUMP JUMPDEST PUSH2 0x7DC PUSH2 0x7D7 CALLDATASIZE PUSH1 0x4 PUSH2 0x386F JUMP JUMPDEST PUSH2 0x17FE JUMP JUMPDEST PUSH1 0x40 DUP1 MLOAD DUP3 MLOAD PUSH4 0xFFFFFFFF AND DUP2 MSTORE PUSH1 0x20 SWAP3 DUP4 ADD MLOAD PUSH1 0x1 PUSH1 0x1 PUSH1 0xE0 SHL SUB AND SWAP3 DUP2 ADD SWAP3 SWAP1 SWAP3 MSTORE ADD PUSH2 0x3B3 JUMP JUMPDEST PUSH2 0x46C PUSH2 0x814 CALLDATASIZE PUSH1 0x4 PUSH2 0x3732 JUMP JUMPDEST PUSH2 0x1882 JUMP JUMPDEST PUSH2 0x46C PUSH2 0x827 CALLDATASIZE PUSH1 0x4 PUSH2 0x374B JUMP JUMPDEST PUSH2 0x18EA JUMP JUMPDEST PUSH1 0x13 SLOAD PUSH2 0x3CF SWAP1 PUSH3 0x10000 SWAP1 DIV PUSH1 0xFF AND DUP2 JUMP JUMPDEST PUSH2 0x3CF PUSH2 0x84D CALLDATASIZE PUSH1 0x4 PUSH2 0x374B JUMP JUMPDEST PUSH1 0xE PUSH1 0x20 MSTORE PUSH1 0x0 SWAP1 DUP2 MSTORE PUSH1 0x40 SWAP1 KECCAK256 SLOAD PUSH1 0xFF AND DUP2 JUMP JUMPDEST PUSH1 0x11 SLOAD PUSH2 0x41D SWAP1 PUSH1 0x1 PUSH1 0x1 PUSH1 0xA0 SHL SUB AND DUP2 JUMP JUMPDEST PUSH1 0x60 PUSH1 0x3 DUP1 SLOAD PUSH2 0x884 SWAP1 PUSH2 0x38A6 JUMP JUMPDEST DUP1 PUSH1 0x1F ADD PUSH1 0x20 DUP1 SWAP2 DIV MUL PUSH1 0x20 ADD PUSH1 0x40 MLOAD SWAP1 DUP2 ADD PUSH1 0x40 MSTORE DUP1 SWAP3 SWAP2 SWAP1 DUP2 DUP2 MSTORE PUSH1 0x20 ADD DUP3 DUP1 SLOAD PUSH2 0x8B0 SWAP1 PUSH2 0x38A6 JUMP JUMPDEST DUP1 ISZERO PUSH2 0x8FD JUMPI DUP1 PUSH1 0x1F LT PUSH2 0x8D2 JUMPI PUSH2 0x100 DUP1 DUP4 SLOAD DIV MUL DUP4 MSTORE SWAP2 PUSH1 0x20 ADD SWAP2 PUSH2 0x8FD JUMP JUMPDEST DUP3 ADD SWAP2 SWAP1 PUSH1 0x0 MSTORE PUSH1 0x20 PUSH1 0x0 KECCAK256 SWAP1 JUMPDEST DUP2 SLOAD DUP2 MSTORE SWAP1 PUSH1 0x1 ADD SWAP1 PUSH1 0x20 ADD DUP1 DUP4 GT PUSH2 0x8E0 JUMPI DUP3 SWAP1 SUB PUSH1 0x1F AND DUP3 ADD SWAP2 JUMPDEST POP POP POP POP POP SWAP1 POP SWAP1 JUMP JUMPDEST PUSH1 0x0 CALLER PUSH2 0x915 DUP2 DUP6 DUP6 PUSH2 0x1C72 JUMP JUMPDEST PUSH1 0x1 SWAP2 POP POP JUMPDEST SWAP3 SWAP2 POP POP JUMP JUMPDEST PUSH1 0x0 CALLER PUSH2 0x92F DUP6 DUP3 DUP6 PUSH2 0x1D96 JUMP JUMPDEST PUSH2 0x93A DUP6 DUP6 DUP6 PUSH2 0x1E22 JUMP JUMPDEST POP PUSH1 0x1 SWAP5 SWAP4 POP POP POP POP JUMP JUMPDEST PUSH1 0x9 SLOAD PUSH1 0x1 PUSH1 0x1 PUSH1 0xA0 SHL SUB AND CALLER EQ PUSH2 0x978 JUMPI PUSH1 0x40 MLOAD PUSH3 0x461BCD PUSH1 0xE5 SHL DUP2 MSTORE PUSH1 0x4 ADD PUSH2 0x96F SWAP1 PUSH2 0x38DA JUMP JUMPDEST PUSH1 0x40 MLOAD DUP1 SWAP2 SUB SWAP1 REVERT JUMPDEST PUSH1 0x1 PUSH1 0x1 PUSH1 0xA0 SHL SUB SWAP2 SWAP1 SWAP2 AND PUSH1 0x0 SWAP1 DUP2 MSTORE PUSH1 0xE PUSH1 0x20 MSTORE PUSH1 0x40 SWAP1 KECCAK256 DUP1 SLOAD PUSH1 0xFF NOT AND SWAP2 ISZERO ISZERO SWAP2 SWAP1 SWAP2 OR SWAP1 SSTORE JUMP JUMPDEST PUSH1 0x9 SLOAD PUSH1 0x1 PUSH1 0x1 PUSH1 0xA0 SHL SUB AND CALLER EQ PUSH2 0x9CD JUMPI PUSH1 0x40 MLOAD PUSH3 0x461BCD PUSH1 0xE5 SHL DUP2 MSTORE PUSH1 0x4 ADD PUSH2 0x96F SWAP1 PUSH2 0x38DA JUMP JUMPDEST PUSH1 0x13 SLOAD PUSH3 0x10000 SWAP1 DIV PUSH1 0xFF AND ISZERO PUSH2 0xA36 JUMPI PUSH1 0x40 MLOAD PUSH3 0x461BCD PUSH1 0xE5 SHL DUP2 MSTORE PUSH1 0x20 PUSH1 0x4 DUP3 ADD MSTORE PUSH1 0x27 PUSH1 0x24 DUP3 ADD MSTORE PUSH32 0x656E61626C6553656C6C4665653A2073656C6C2066656520616C726561647920 PUSH1 0x44 DUP3 ADD MSTORE PUSH7 0x195B98589B1959 PUSH1 0xCA SHL PUSH1 0x64 DUP3 ADD MSTORE PUSH1 0x84 ADD PUSH2 0x96F JUMP JUMPDEST PUSH1 0x13 DUP1 SLOAD PUSH3 0xFF0000 NOT AND PUSH3 0x10000 OR SWAP1 SSTORE PUSH1 0x40 MLOAD PUSH32 0xEE444712A05782241031C97904D775DAE94B48624BADE4D83CBF701BAF28C52 SWAP1 PUSH1 0x0 SWAP1 LOG1 JUMP JUMPDEST PUSH1 0x0 PUSH2 0xA7C PUSH2 0x241A JUMP JUMPDEST SWAP1 POP SWAP1 JUMP JUMPDEST PUSH1 0x9 SLOAD PUSH1 0x1 PUSH1 0x1 PUSH1 0xA0 SHL SUB AND CALLER EQ PUSH2 0xAAB JUMPI PUSH1 0x40 MLOAD PUSH3 0x461BCD PUSH1 0xE5 SHL DUP2 MSTORE PUSH1 0x4 ADD PUSH2 0x96F SWAP1 PUSH2 0x38DA JUMP JUMPDEST PUSH1 0x13 SLOAD PUSH3 0x10000 SWAP1 DIV PUSH1 0xFF AND PUSH2 0xB15 JUMPI PUSH1 0x40 MLOAD PUSH3 0x461BCD PUSH1 0xE5 SHL DUP2 MSTORE PUSH1 0x20 PUSH1 0x4 DUP3 ADD MSTORE PUSH1 0x29 PUSH1 0x24 DUP3 ADD MSTORE PUSH32 0x64697361626C6553656C6C4665653A2073656C6C2066656520616C7265616479 PUSH1 0x44 DUP3 ADD MSTORE PUSH9 0x8191A5CD8589B1959 PUSH1 0xBA SHL PUSH1 0x64 DUP3 ADD MSTORE PUSH1 0x84 ADD PUSH2 0x96F JUMP JUMPDEST PUSH1 0x13 DUP1 SLOAD PUSH3 0xFF0000 NOT AND SWAP1 SSTORE PUSH1 0x40 MLOAD PUSH32 0x66D7ABEAE9BB5A48159E59D5F0BACDCBD0D7112C76A87733BAF345FFD2311726 SWAP1 PUSH1 0x0 SWAP1 LOG1 JUMP JUMPDEST CALLER PUSH1 0x0 DUP2 DUP2 MSTORE PUSH1 0x1 PUSH1 0x20 SWAP1 DUP2 MSTORE PUSH1 0x40 DUP1 DUP4 KECCAK256 PUSH1 0x1 PUSH1 0x1 PUSH1 0xA0 SHL SUB DUP8 AND DUP5 MSTORE SWAP1 SWAP2 MSTORE DUP2 KECCAK256 SLOAD SWAP1 SWAP2 SWAP1 PUSH2 0x915 SWAP1 DUP3 SWAP1 DUP7 SWAP1 PUSH2 0xB86 SWAP1 DUP8 SWAP1 PUSH2 0x3925 JUMP JUMPDEST PUSH2 0x1C72 JUMP JUMPDEST PUSH1 0x0 NUMBER DUP3 LT PUSH2 0xBDC JUMPI PUSH1 0x40 MLOAD PUSH3 0x461BCD PUSH1 0xE5 SHL DUP2 MSTORE PUSH1 0x20 PUSH1 0x4 DUP3 ADD MSTORE PUSH1 0x1F PUSH1 0x24 DUP3 ADD MSTORE PUSH32 0x4552433230566F7465733A20626C6F636B206E6F7420796574206D696E656400 PUSH1 0x44 DUP3 ADD MSTORE PUSH1 0x64 ADD PUSH2 0x96F JUMP JUMPDEST PUSH1 0x1 PUSH1 0x1 PUSH1 0xA0 SHL SUB DUP4 AND PUSH1 0x0 SWAP1 DUP2 MSTORE PUSH1 0xC PUSH1 0x20 MSTORE PUSH1 0x40 SWAP1 KECCAK256 PUSH2 0xBFE SWAP1 DUP4 PUSH2 0x2541 JUMP JUMPDEST SWAP4 SWAP3 POP POP POP JUMP JUMPDEST PUSH1 0x9 SLOAD PUSH1 0x1 PUSH1 0x1 PUSH1 0xA0 SHL SUB AND CALLER EQ PUSH2 0xC2F JUMPI PUSH1 0x40 MLOAD PUSH3 0x461BCD PUSH1 0xE5 SHL DUP2 MSTORE PUSH1 0x4 ADD PUSH2 0x96F SWAP1 PUSH2 0x38DA JUMP JUMPDEST PUSH1 0x17 DUP1 SLOAD SWAP1 DUP3 SWAP1 SSTORE PUSH1 0x40 DUP1 MLOAD DUP3 DUP2 MSTORE PUSH1 0x20 DUP2 ADD DUP5 SWAP1 MSTORE PUSH32 0x922219A8077B1E0BC8171F3AB0D886C1115631365ABF748DA063CE0692549DE SWAP2 ADD JUMPDEST PUSH1 0x40 MLOAD DUP1 SWAP2 SUB SWAP1 LOG1 POP POP JUMP JUMPDEST PUSH2 0xC7F CALLER DUP3 PUSH2 0x25FE JUMP JUMPDEST POP JUMP JUMPDEST PUSH1 0x9 SLOAD PUSH1 0x1 PUSH1 0x1 PUSH1 0xA0 SHL SUB AND CALLER EQ PUSH2 0xCAC JUMPI PUSH1 0x40 MLOAD PUSH3 0x461BCD PUSH1 0xE5 SHL DUP2 MSTORE PUSH1 0x4 ADD PUSH2 0x96F SWAP1 PUSH2 0x38DA JUMP JUMPDEST PUSH1 0x13 SLOAD PUSH2 0x100 SWAP1 DIV PUSH1 0xFF AND ISZERO PUSH2 0xD12 JUMPI PUSH1 0x40 MLOAD PUSH3 0x461BCD PUSH1 0xE5 SHL DUP2 MSTORE PUSH1 0x20 PUSH1 0x4 DUP3 ADD MSTORE PUSH1 0x25 PUSH1 0x24 DUP3 ADD MSTORE PUSH32 0x656E61626C654275794665653A206275792066656520616C726561647920656E PUSH1 0x44 DUP3 ADD MSTORE PUSH5 0x18589B1959 PUSH1 0xDA SHL PUSH1 0x64 DUP3 ADD MSTORE PUSH1 0x84 ADD PUSH2 0x96F JUMP JUMPDEST PUSH1 0x13 DUP1 SLOAD PUSH2 0xFF00 NOT AND PUSH2 0x100 OR SWAP1 SSTORE PUSH1 0x40 MLOAD PUSH32 0xDAA91B4779E6B2E8AC716915E4B1BB5870D8540C30F85E911F6C57F1CD23E44F SWAP1 PUSH1 0x0 SWAP1 LOG1 JUMP JUMPDEST PUSH1 0x9 SLOAD PUSH1 0x1 PUSH1 0x1 PUSH1 0xA0 SHL SUB AND CALLER EQ PUSH2 0xD76 JUMPI PUSH1 0x40 MLOAD PUSH3 0x461BCD PUSH1 0xE5 SHL DUP2 MSTORE PUSH1 0x4 ADD PUSH2 0x96F SWAP1 PUSH2 0x38DA JUMP JUMPDEST PUSH1 0x13 SLOAD PUSH2 0x100 SWAP1 DIV PUSH1 0xFF AND PUSH2 0xDDD JUMPI PUSH1 0x40 MLOAD PUSH3 0x461BCD PUSH1 0xE5 SHL DUP2 MSTORE PUSH1 0x20 PUSH1 0x4 DUP3 ADD MSTORE PUSH1 0x27 PUSH1 0x24 DUP3 ADD MSTORE PUSH32 0x64697361626C654275794665653A206275792066656520616C72656164792064 PUSH1 0x44 DUP3 ADD MSTORE PUSH7 0x1A5CD8589B1959 PUSH1 0xCA SHL PUSH1 0x64 DUP3 ADD MSTORE PUSH1 0x84 ADD PUSH2 0x96F JUMP JUMPDEST PUSH1 0x13 DUP1 SLOAD PUSH2 0xFF00 NOT AND SWAP1 SSTORE PUSH1 0x40 MLOAD PUSH32 0xF58EE7F74EAADF595DB494ABFC38D5C19B665FCAA092687B48A5C128FE375F67 SWAP1 PUSH1 0x0 SWAP1 LOG1 JUMP JUMPDEST PUSH1 0x1 PUSH1 0x1 PUSH1 0xA0 SHL SUB DUP3 AND PUSH1 0x0 SWAP1 DUP2 MSTORE PUSH1 0x5 PUSH1 0x20 MSTORE PUSH1 0x40 DUP2 KECCAK256 DUP2 SWAP1 DUP2 SWAP1 PUSH2 0xE3A SWAP1 DUP6 SWAP1 PUSH2 0x2608 JUMP JUMPDEST SWAP2 POP SWAP2 POP DUP2 PUSH2 0xE61 JUMPI PUSH1 0x1 PUSH1 0x1 PUSH1 0xA0 SHL SUB DUP6 AND PUSH1 0x0 SWAP1 DUP2 MSTORE PUSH1 0x20 DUP2 SWAP1 MSTORE PUSH1 0x40 SWAP1 KECCAK256 SLOAD PUSH2 0xE63 JUMP JUMPDEST DUP1 JUMPDEST SWAP6 SWAP5 POP POP POP POP POP JUMP JUMPDEST PUSH2 0xC7F CALLER DUP3 PUSH2 0x26FE JUMP JUMPDEST PUSH1 0x1 PUSH1 0x1 PUSH1 0xA0 SHL SUB DUP2 AND PUSH1 0x0 SWAP1 DUP2 MSTORE PUSH1 0xC PUSH1 0x20 MSTORE PUSH1 0x40 DUP2 KECCAK256 SLOAD PUSH2 0x91B SWAP1 PUSH2 0x1B7E JUMP JUMPDEST PUSH1 0x9 SLOAD PUSH1 0x1 PUSH1 0x1 PUSH1 0xA0 SHL SUB AND CALLER EQ PUSH2 0xEC2 JUMPI PUSH1 0x40 MLOAD PUSH3 0x461BCD PUSH1 0xE5 SHL DUP2 MSTORE PUSH1 0x4 ADD PUSH2 0x96F SWAP1 PUSH2 0x38DA JUMP JUMPDEST PUSH2 0xECC PUSH1 0x0 PUSH2 0x2777 JUMP JUMPDEST JUMP JUMPDEST PUSH2 0xED9 DUP3 CALLER DUP4 PUSH2 0x1D96 JUMP JUMPDEST PUSH2 0xEE3 DUP3 DUP3 PUSH2 0x25FE JUMP JUMPDEST POP POP JUMP JUMPDEST PUSH1 0x1 PUSH1 0x1 PUSH1 0xA0 SHL SUB DUP2 AND PUSH1 0x0 SWAP1 DUP2 MSTORE PUSH1 0xA PUSH1 0x20 MSTORE PUSH1 0x40 DUP2 KECCAK256 SLOAD PUSH2 0x91B JUMP JUMPDEST PUSH1 0x9 SLOAD PUSH1 0x1 PUSH1 0x1 PUSH1 0xA0 SHL SUB AND CALLER EQ PUSH2 0xF2F JUMPI PUSH1 0x40 MLOAD PUSH3 0x461BCD PUSH1 0xE5 SHL DUP2 MSTORE PUSH1 0x4 ADD PUSH2 0x96F SWAP1 PUSH2 0x38DA JUMP JUMPDEST PUSH1 0x15 DUP1 SLOAD SWAP1 DUP3 SWAP1 SSTORE PUSH1 0x40 DUP1 MLOAD DUP3 DUP2 MSTORE PUSH1 0x20 DUP2 ADD DUP5 SWAP1 MSTORE PUSH32 0x6CD6FCA2CFD4075F987D2D4E1A9C338A0DDF5563F7B722F53B1F60EDD3F60CB SWAP2 ADD PUSH2 0xC69 JUMP JUMPDEST PUSH1 0x9 SLOAD PUSH1 0x1 PUSH1 0x1 PUSH1 0xA0 SHL SUB AND CALLER EQ PUSH2 0xF97 JUMPI PUSH1 0x40 MLOAD PUSH3 0x461BCD PUSH1 0xE5 SHL DUP2 MSTORE PUSH1 0x4 ADD PUSH2 0x96F SWAP1 PUSH2 0x38DA JUMP JUMPDEST PUSH1 0x13 DUP1 SLOAD PUSH1 0xFF NOT AND PUSH1 0x1 OR SWAP1 SSTORE NUMBER PUSH1 0x18 SSTORE JUMP JUMPDEST PUSH1 0x0 NUMBER DUP3 LT PUSH2 0xFFB JUMPI PUSH1 0x40 MLOAD PUSH3 0x461BCD PUSH1 0xE5 SHL DUP2 MSTORE PUSH1 0x20 PUSH1 0x4 DUP3 ADD MSTORE PUSH1 0x1F PUSH1 0x24 DUP3 ADD MSTORE PUSH32 0x4552433230566F7465733A20626C6F636B206E6F7420796574206D696E656400 PUSH1 0x44 DUP3 ADD MSTORE PUSH1 0x64 ADD PUSH2 0x96F JUMP JUMPDEST PUSH2 0x91B PUSH1 0xD DUP4 PUSH2 0x2541 JUMP JUMPDEST PUSH1 0x60 PUSH1 0x4 DUP1 SLOAD PUSH2 0x884 SWAP1 PUSH2 0x38A6 JUMP JUMPDEST PUSH1 0x9 SLOAD PUSH1 0x1 PUSH1 0x1 PUSH1 0xA0 SHL SUB AND CALLER EQ PUSH2 0x103F JUMPI PUSH1 0x40 MLOAD PUSH3 0x461BCD PUSH1 0xE5 SHL DUP2 MSTORE PUSH1 0x4 ADD PUSH2 0x96F SWAP1 PUSH2 0x38DA JUMP JUMPDEST PUSH2 0xC7F PUSH2 0x27C9 JUMP JUMPDEST PUSH1 0x0 DUP1 PUSH1 0x0 PUSH2 0x1057 DUP5 PUSH1 0x6 PUSH2 0x2608 JUMP JUMPDEST SWAP2 POP SWAP2 POP DUP2 PUSH2 0x1068 JUMPI PUSH1 0x2 SLOAD PUSH2 0x106A JUMP JUMPDEST DUP1 JUMPDEST SWAP5 SWAP4 POP POP POP POP JUMP JUMPDEST PUSH1 0x9 SLOAD PUSH1 0x1 PUSH1 0x1 PUSH1 0xA0 SHL SUB AND CALLER EQ PUSH2 0x109C JUMPI PUSH1 0x40 MLOAD PUSH3 0x461BCD PUSH1 0xE5 SHL DUP2 MSTORE PUSH1 0x4 ADD PUSH2 0x96F SWAP1 PUSH2 0x38DA JUMP JUMPDEST PUSH32 0x0 PUSH1 0x1 PUSH1 0x1 PUSH1 0xA0 SHL SUB AND DUP3 PUSH1 0x1 PUSH1 0x1 PUSH1 0xA0 SHL SUB AND SUB PUSH2 0x1143 JUMPI PUSH1 0x40 MLOAD PUSH3 0x461BCD PUSH1 0xE5 SHL DUP2 MSTORE PUSH1 0x20 PUSH1 0x4 DUP3 ADD MSTORE PUSH1 0x39 PUSH1 0x24 DUP3 ADD MSTORE PUSH32 0x54686520706169722063616E6E6F742062652072656D6F7665642066726F6D20 PUSH1 0x44 DUP3 ADD MSTORE PUSH32 0x6175746F6D617465644D61726B65744D616B6572506169727300000000000000 PUSH1 0x64 DUP3 ADD MSTORE PUSH1 0x84 ADD PUSH2 0x96F JUMP JUMPDEST PUSH2 0xEE3 DUP3 DUP3 PUSH2 0x2823 JUMP JUMPDEST PUSH1 0x1 PUSH1 0x1 PUSH1 0xA0 SHL SUB DUP2 AND PUSH1 0x0 SWAP1 DUP2 MSTORE PUSH1 0xC PUSH1 0x20 MSTORE PUSH1 0x40 DUP2 KECCAK256 SLOAD DUP1 ISZERO PUSH2 0x11C1 JUMPI PUSH1 0x1 PUSH1 0x1 PUSH1 0xA0 SHL SUB DUP4 AND PUSH1 0x0 SWAP1 DUP2 MSTORE PUSH1 0xC PUSH1 0x20 MSTORE PUSH1 0x40 SWAP1 KECCAK256 PUSH2 0x118F PUSH1 0x1 DUP4 PUSH2 0x393D JUMP JUMPDEST DUP2 SLOAD DUP2 LT PUSH2 0x119F JUMPI PUSH2 0x119F PUSH2 0x3954 JUMP JUMPDEST PUSH1 0x0 SWAP2 DUP3 MSTORE PUSH1 0x20 SWAP1 SWAP2 KECCAK256 ADD SLOAD PUSH5 0x100000000 SWAP1 DIV PUSH1 0x1 PUSH1 0x1 PUSH1 0xE0 SHL SUB AND PUSH2 0x11C4 JUMP JUMPDEST PUSH1 0x0 JUMPDEST PUSH1 0x1 PUSH1 0x1 PUSH1 0xE0 SHL SUB AND SWAP4 SWAP3 POP POP POP JUMP JUMPDEST CALLER PUSH1 0x0 DUP2 DUP2 MSTORE PUSH1 0x1 PUSH1 0x20 SWAP1 DUP2 MSTORE PUSH1 0x40 DUP1 DUP4 KECCAK256 PUSH1 0x1 PUSH1 0x1 PUSH1 0xA0 SHL SUB DUP8 AND DUP5 MSTORE SWAP1 SWAP2 MSTORE DUP2 KECCAK256 SLOAD SWAP1 SWAP2 SWAP1 DUP4 DUP2 LT ISZERO PUSH2 0x1259 JUMPI PUSH1 0x40 MLOAD PUSH3 0x461BCD PUSH1 0xE5 SHL DUP2 MSTORE PUSH1 0x20 PUSH1 0x4 DUP3 ADD MSTORE PUSH1 0x25 PUSH1 0x24 DUP3 ADD MSTORE PUSH32 0x45524332303A2064656372656173656420616C6C6F77616E63652062656C6F77 PUSH1 0x44 DUP3 ADD MSTORE PUSH5 0x207A65726F PUSH1 0xD8 SHL PUSH1 0x64 DUP3 ADD MSTORE PUSH1 0x84 ADD PUSH2 0x96F JUMP JUMPDEST PUSH2 0x93A DUP3 DUP7 DUP7 DUP5 SUB PUSH2 0x1C72 JUMP JUMPDEST PUSH1 0x0 CALLER PUSH2 0x915 DUP2 DUP6 DUP6 PUSH2 0x1E22 JUMP JUMPDEST PUSH1 0x9 SLOAD PUSH1 0x1 PUSH1 0x1 PUSH1 0xA0 SHL SUB AND CALLER EQ PUSH2 0x129E JUMPI PUSH1 0x40 MLOAD PUSH3 0x461BCD PUSH1 0xE5 SHL DUP2 MSTORE PUSH1 0x4 ADD PUSH2 0x96F SWAP1 PUSH2 0x38DA JUMP JUMPDEST PUSH1 0x13 SLOAD PUSH4 0x1000000 SWAP1 DIV PUSH1 0xFF AND PUSH2 0x1311 JUMPI PUSH1 0x40 MLOAD PUSH3 0x461BCD PUSH1 0xE5 SHL DUP2 MSTORE PUSH1 0x20 PUSH1 0x4 DUP3 ADD MSTORE PUSH1 0x31 PUSH1 0x24 DUP3 ADD MSTORE PUSH32 0x64697361626C655472616E736665724665653A207472616E7366657220666565 PUSH1 0x44 DUP3 ADD MSTORE PUSH17 0x8185B1C9958591E48191A5CD8589B1959 PUSH1 0x7A SHL PUSH1 0x64 DUP3 ADD MSTORE PUSH1 0x84 ADD PUSH2 0x96F JUMP JUMPDEST PUSH1 0x13 DUP1 SLOAD PUSH4 0xFF000000 NOT AND PUSH4 0x1000000 OR SWAP1 SSTORE PUSH1 0x40 MLOAD PUSH32 0xEBB19AF92FFDA5F5BECC285F2154C85E6D48992942F15FBC7FB9AFD22580C142 SWAP1 PUSH1 0x0 SWAP1 LOG1 JUMP JUMPDEST PUSH1 0x9 SLOAD PUSH1 0x1 PUSH1 0x1 PUSH1 0xA0 SHL SUB AND CALLER EQ PUSH2 0x1379 JUMPI PUSH1 0x40 MLOAD PUSH3 0x461BCD PUSH1 0xE5 SHL DUP2 MSTORE PUSH1 0x4 ADD PUSH2 0x96F SWAP1 PUSH2 0x38DA JUMP JUMPDEST PUSH1 0x1 PUSH1 0x1 PUSH1 0xA0 SHL SUB DUP3 AND PUSH1 0x0 DUP2 DUP2 MSTORE PUSH1 0xF PUSH1 0x20 SWAP1 DUP2 MSTORE PUSH1 0x40 SWAP2 DUP3 SWAP1 KECCAK256 DUP1 SLOAD PUSH1 0xFF NOT AND DUP6 ISZERO ISZERO SWAP1 DUP2 OR SWAP1 SWAP2 SSTORE DUP3 MLOAD SWAP4 DUP5 MSTORE SWAP1 DUP4 ADD MSTORE PUSH32 0x3499BFCF9673677BA552F3FE2EA274EC7E6246DA31C3C87E115B45A9B0DB2EFB SWAP2 ADD PUSH2 0xC69 JUMP JUMPDEST DUP4 TIMESTAMP GT ISZERO PUSH2 0x1425 JUMPI PUSH1 0x40 MLOAD PUSH3 0x461BCD PUSH1 0xE5 SHL DUP2 MSTORE PUSH1 0x20 PUSH1 0x4 DUP3 ADD MSTORE PUSH1 0x1D PUSH1 0x24 DUP3 ADD MSTORE PUSH32 0x4552433230566F7465733A207369676E61747572652065787069726564000000 PUSH1 0x44 DUP3 ADD MSTORE PUSH1 0x64 ADD PUSH2 0x96F JUMP JUMPDEST PUSH1 0x40 DUP1 MLOAD PUSH32 0xE48329057BFD03D55E49B547132E39CFFD9C1820AD7B9D4C5307691425D15ADF PUSH1 0x20 DUP3 ADD MSTORE PUSH1 0x1 PUSH1 0x1 PUSH1 0xA0 SHL SUB DUP9 AND SWAP2 DUP2 ADD SWAP2 SWAP1 SWAP2 MSTORE PUSH1 0x60 DUP2 ADD DUP7 SWAP1 MSTORE PUSH1 0x80 DUP2 ADD DUP6 SWAP1 MSTORE PUSH1 0x0 SWAP1 PUSH2 0x149F SWAP1 PUSH2 0x1497 SWAP1 PUSH1 0xA0 ADD PUSH1 0x40 MLOAD PUSH1 0x20 DUP2 DUP4 SUB SUB DUP2 MSTORE SWAP1 PUSH1 0x40 MSTORE DUP1 MLOAD SWAP1 PUSH1 0x20 ADD KECCAK256 PUSH2 0x2877 JUMP JUMPDEST DUP6 DUP6 DUP6 PUSH2 0x28C5 JUMP JUMPDEST SWAP1 POP PUSH2 0x14AA DUP2 PUSH2 0x28ED JUMP JUMPDEST DUP7 EQ PUSH2 0x14F8 JUMPI PUSH1 0x40 MLOAD PUSH3 0x461BCD PUSH1 0xE5 SHL DUP2 MSTORE PUSH1 0x20 PUSH1 0x4 DUP3 ADD MSTORE PUSH1 0x19 PUSH1 0x24 DUP3 ADD MSTORE PUSH32 0x4552433230566F7465733A20696E76616C6964206E6F6E636500000000000000 PUSH1 0x44 DUP3 ADD MSTORE PUSH1 0x64 ADD PUSH2 0x96F JUMP JUMPDEST PUSH2 0x1502 DUP2 DUP9 PUSH2 0x26FE JUMP JUMPDEST POP POP POP POP POP POP POP JUMP JUMPDEST DUP4 TIMESTAMP GT ISZERO PUSH2 0x155B JUMPI PUSH1 0x40 MLOAD PUSH3 0x461BCD PUSH1 0xE5 SHL DUP2 MSTORE PUSH1 0x20 PUSH1 0x4 DUP3 ADD MSTORE PUSH1 0x1D PUSH1 0x24 DUP3 ADD MSTORE PUSH32 0x45524332305065726D69743A206578706972656420646561646C696E65000000 PUSH1 0x44 DUP3 ADD MSTORE PUSH1 0x64 ADD PUSH2 0x96F JUMP JUMPDEST PUSH1 0x0 PUSH32 0x0 DUP9 DUP9 DUP9 PUSH2 0x158A DUP13 PUSH2 0x28ED JUMP JUMPDEST PUSH1 0x40 DUP1 MLOAD PUSH1 0x20 DUP2 ADD SWAP7 SWAP1 SWAP7 MSTORE PUSH1 0x1 PUSH1 0x1 PUSH1 0xA0 SHL SUB SWAP5 DUP6 AND SWAP1 DUP7 ADD MSTORE SWAP3 SWAP1 SWAP2 AND PUSH1 0x60 DUP5 ADD MSTORE PUSH1 0x80 DUP4 ADD MSTORE PUSH1 0xA0 DUP3 ADD MSTORE PUSH1 0xC0 DUP2 ADD DUP7 SWAP1 MSTORE PUSH1 0xE0 ADD PUSH1 0x40 MLOAD PUSH1 0x20 DUP2 DUP4 SUB SUB DUP2 MSTORE SWAP1 PUSH1 0x40 MSTORE DUP1 MLOAD SWAP1 PUSH1 0x20 ADD KECCAK256 SWAP1 POP PUSH1 0x0 PUSH2 0x15E5 DUP3 PUSH2 0x2877 JUMP JUMPDEST SWAP1 POP PUSH1 0x0 PUSH2 0x15F5 DUP3 DUP8 DUP8 DUP8 PUSH2 0x28C5 JUMP JUMPDEST SWAP1 POP DUP10 PUSH1 0x1 PUSH1 0x1 PUSH1 0xA0 SHL SUB AND DUP2 PUSH1 0x1 PUSH1 0x1 PUSH1 0xA0 SHL SUB AND EQ PUSH2 0x1658 JUMPI PUSH1 0x40 MLOAD PUSH3 0x461BCD PUSH1 0xE5 SHL DUP2 MSTORE PUSH1 0x20 PUSH1 0x4 DUP3 ADD MSTORE PUSH1 0x1E PUSH1 0x24 DUP3 ADD MSTORE PUSH32 0x45524332305065726D69743A20696E76616C6964207369676E61747572650000 PUSH1 0x44 DUP3 ADD MSTORE PUSH1 0x64 ADD PUSH2 0x96F JUMP JUMPDEST PUSH2 0x1663 DUP11 DUP11 DUP11 PUSH2 0x1C72 JUMP JUMPDEST POP POP POP POP POP POP POP POP POP POP JUMP JUMPDEST PUSH1 0x9 SLOAD PUSH1 0x1 PUSH1 0x1 PUSH1 0xA0 SHL SUB AND CALLER EQ PUSH2 0x1699 JUMPI PUSH1 0x40 MLOAD PUSH3 0x461BCD PUSH1 0xE5 SHL DUP2 MSTORE PUSH1 0x4 ADD PUSH2 0x96F SWAP1 PUSH2 0x38DA JUMP JUMPDEST PUSH1 0x13 SLOAD PUSH4 0x1000000 SWAP1 DIV PUSH1 0xFF AND ISZERO PUSH2 0x170B JUMPI PUSH1 0x40 MLOAD PUSH3 0x461BCD PUSH1 0xE5 SHL DUP2 MSTORE PUSH1 0x20 PUSH1 0x4 DUP3 ADD MSTORE PUSH1 0x2F PUSH1 0x24 DUP3 ADD MSTORE PUSH32 0x656E61626C655472616E736665724665653A207472616E736665722066656520 PUSH1 0x44 DUP3 ADD MSTORE PUSH15 0x185B1C9958591E48195B98589B1959 PUSH1 0x8A SHL PUSH1 0x64 DUP3 ADD MSTORE PUSH1 0x84 ADD PUSH2 0x96F JUMP JUMPDEST PUSH1 0x13 DUP1 SLOAD PUSH4 0xFF000000 NOT AND PUSH4 0x1000000 OR SWAP1 SSTORE PUSH1 0x40 MLOAD PUSH32 0x97F84993D940E8E0FD1D2A188F5473251D6EDC3959C0F7CC8BF6D0D27BF60871 SWAP1 PUSH1 0x0 SWAP1 LOG1 JUMP JUMPDEST PUSH1 0x9 SLOAD PUSH1 0x1 PUSH1 0x1 PUSH1 0xA0 SHL SUB AND CALLER EQ PUSH2 0x1773 JUMPI PUSH1 0x40 MLOAD PUSH3 0x461BCD PUSH1 0xE5 SHL DUP2 MSTORE PUSH1 0x4 ADD PUSH2 0x96F SWAP1 PUSH2 0x38DA JUMP JUMPDEST PUSH1 0x1 PUSH1 0x1 PUSH1 0xA0 SHL SUB DUP2 AND PUSH2 0x17DC JUMPI PUSH1 0x40 MLOAD PUSH3 0x461BCD PUSH1 0xE5 SHL DUP2 MSTORE PUSH1 0x20 PUSH1 0x4 DUP3 ADD MSTORE PUSH1 0x2A PUSH1 0x24 DUP3 ADD MSTORE PUSH32 0x73657446656552656365697665723A2063616E6E6F742062652073657420746F PUSH1 0x44 DUP3 ADD MSTORE PUSH10 0x20302061646472657373 PUSH1 0xB0 SHL PUSH1 0x64 DUP3 ADD MSTORE PUSH1 0x84 ADD PUSH2 0x96F JUMP JUMPDEST PUSH1 0x11 DUP1 SLOAD PUSH1 0x1 PUSH1 0x1 PUSH1 0xA0 SHL SUB NOT AND PUSH1 0x1 PUSH1 0x1 PUSH1 0xA0 SHL SUB SWAP3 SWAP1 SWAP3 AND SWAP2 SWAP1 SWAP2 OR SWAP1 SSTORE JUMP JUMPDEST PUSH1 0x40 DUP1 MLOAD DUP1 DUP3 ADD SWAP1 SWAP2 MSTORE PUSH1 0x0 DUP1 DUP3 MSTORE PUSH1 0x20 DUP3 ADD MSTORE PUSH1 0x1 PUSH1 0x1 PUSH1 0xA0 SHL SUB DUP4 AND PUSH1 0x0 SWAP1 DUP2 MSTORE PUSH1 0xC PUSH1 0x20 MSTORE PUSH1 0x40 SWAP1 KECCAK256 DUP1 SLOAD PUSH4 0xFFFFFFFF DUP5 AND SWAP1 DUP2 LT PUSH2 0x1842 JUMPI PUSH2 0x1842 PUSH2 0x3954 JUMP JUMPDEST PUSH1 0x0 SWAP2 DUP3 MSTORE PUSH1 0x20 SWAP2 DUP3 SWAP1 KECCAK256 PUSH1 0x40 DUP1 MLOAD DUP1 DUP3 ADD SWAP1 SWAP2 MSTORE SWAP2 ADD SLOAD PUSH4 0xFFFFFFFF DUP2 AND DUP3 MSTORE PUSH5 0x100000000 SWAP1 DIV PUSH1 0x1 PUSH1 0x1 PUSH1 0xE0 SHL SUB AND SWAP2 DUP2 ADD SWAP2 SWAP1 SWAP2 MSTORE SWAP4 SWAP3 POP POP POP JUMP JUMPDEST PUSH1 0x9 SLOAD PUSH1 0x1 PUSH1 0x1 PUSH1 0xA0 SHL SUB AND CALLER EQ PUSH2 0x18AC JUMPI PUSH1 0x40 MLOAD PUSH3 0x461BCD PUSH1 0xE5 SHL DUP2 MSTORE PUSH1 0x4 ADD PUSH2 0x96F SWAP1 PUSH2 0x38DA JUMP JUMPDEST PUSH1 0x14 DUP1 SLOAD SWAP1 DUP3 SWAP1 SSTORE PUSH1 0x40 DUP1 MLOAD DUP3 DUP2 MSTORE PUSH1 0x20 DUP2 ADD DUP5 SWAP1 MSTORE PUSH32 0xC0179BDA8F211167ACD15F2051AB181163377759879F914702BD48E39E52DC8A SWAP2 ADD PUSH2 0xC69 JUMP JUMPDEST PUSH1 0x9 SLOAD PUSH1 0x1 PUSH1 0x1 PUSH1 0xA0 SHL SUB AND CALLER EQ PUSH2 0x1914 JUMPI PUSH1 0x40 MLOAD PUSH3 0x461BCD PUSH1 0xE5 SHL DUP2 MSTORE PUSH1 0x4 ADD PUSH2 0x96F SWAP1 PUSH2 0x38DA JUMP JUMPDEST PUSH1 0x1 PUSH1 0x1 PUSH1 0xA0 SHL SUB DUP2 AND PUSH2 0x1979 JUMPI PUSH1 0x40 MLOAD PUSH3 0x461BCD PUSH1 0xE5 SHL DUP2 MSTORE PUSH1 0x20 PUSH1 0x4 DUP3 ADD MSTORE PUSH1 0x26 PUSH1 0x24 DUP3 ADD MSTORE PUSH32 0x4F776E61626C653A206E6577206F776E657220697320746865207A65726F2061 PUSH1 0x44 DUP3 ADD MSTORE PUSH6 0x646472657373 PUSH1 0xD0 SHL PUSH1 0x64 DUP3 ADD MSTORE PUSH1 0x84 ADD PUSH2 0x96F JUMP JUMPDEST PUSH2 0xC7F DUP2 PUSH2 0x2777 JUMP JUMPDEST PUSH2 0x198C DUP3 DUP3 PUSH2 0x1A12 JUMP JUMPDEST PUSH1 0x2 SLOAD PUSH1 0x1 PUSH1 0x1 PUSH1 0xE0 SHL SUB LT ISZERO PUSH2 0x19FE JUMPI PUSH1 0x40 MLOAD PUSH3 0x461BCD PUSH1 0xE5 SHL DUP2 MSTORE PUSH1 0x20 PUSH1 0x4 DUP3 ADD MSTORE PUSH1 0x30 PUSH1 0x24 DUP3 ADD MSTORE PUSH32 0x4552433230566F7465733A20746F74616C20737570706C79207269736B73206F PUSH1 0x44 DUP3 ADD MSTORE PUSH16 0x766572666C6F77696E6720766F746573 PUSH1 0x80 SHL PUSH1 0x64 DUP3 ADD MSTORE PUSH1 0x84 ADD PUSH2 0x96F JUMP JUMPDEST PUSH2 0x1A0C PUSH1 0xD PUSH2 0x1B05 DUP4 PUSH2 0x2915 JUMP JUMPDEST POP POP POP POP JUMP JUMPDEST PUSH1 0x1 PUSH1 0x1 PUSH1 0xA0 SHL SUB DUP3 AND PUSH2 0x1A68 JUMPI PUSH1 0x40 MLOAD PUSH3 0x461BCD PUSH1 0xE5 SHL DUP2 MSTORE PUSH1 0x20 PUSH1 0x4 DUP3 ADD MSTORE PUSH1 0x1F PUSH1 0x24 DUP3 ADD MSTORE PUSH32 0x45524332303A206D696E7420746F20746865207A65726F206164647265737300 PUSH1 0x44 DUP3 ADD MSTORE PUSH1 0x64 ADD PUSH2 0x96F JUMP JUMPDEST PUSH2 0x1A74 PUSH1 0x0 DUP4 DUP4 PUSH2 0x2A8E JUMP JUMPDEST DUP1 PUSH1 0x2 PUSH1 0x0 DUP3 DUP3 SLOAD PUSH2 0x1A86 SWAP2 SWAP1 PUSH2 0x3925 JUMP JUMPDEST SWAP1 SWAP2 SSTORE POP POP PUSH1 0x1 PUSH1 0x1 PUSH1 0xA0 SHL SUB DUP3 AND PUSH1 0x0 SWAP1 DUP2 MSTORE PUSH1 0x20 DUP2 SWAP1 MSTORE PUSH1 0x40 DUP2 KECCAK256 DUP1 SLOAD DUP4 SWAP3 SWAP1 PUSH2 0x1AB3 SWAP1 DUP5 SWAP1 PUSH2 0x3925 JUMP JUMPDEST SWAP1 SWAP2 SSTORE POP POP PUSH1 0x40 MLOAD DUP2 DUP2 MSTORE PUSH1 0x1 PUSH1 0x1 PUSH1 0xA0 SHL SUB DUP4 AND SWAP1 PUSH1 0x0 SWAP1 PUSH32 0xDDF252AD1BE2C89B69C2B068FC378DAA952BA7F163C4A11628F55A4DF523B3EF SWAP1 PUSH1 0x20 ADD PUSH1 0x40 MLOAD DUP1 SWAP2 SUB SWAP1 LOG3 PUSH2 0xEE3 PUSH1 0x0 DUP4 DUP4 PUSH2 0x2A99 JUMP JUMPDEST PUSH1 0x0 PUSH2 0xBFE DUP3 DUP5 PUSH2 0x3925 JUMP JUMPDEST PUSH1 0x0 PUSH1 0x1 PUSH1 0x1 PUSH1 0xE0 SHL SUB DUP3 GT ISZERO PUSH2 0x1B7A JUMPI PUSH1 0x40 MLOAD PUSH3 0x461BCD PUSH1 0xE5 SHL DUP2 MSTORE PUSH1 0x20 PUSH1 0x4 DUP3 ADD MSTORE PUSH1 0x27 PUSH1 0x24 DUP3 ADD MSTORE PUSH32 0x53616665436173743A2076616C756520646F65736E27742066697420696E2032 PUSH1 0x44 DUP3 ADD MSTORE PUSH7 0x32342062697473 PUSH1 0xC8 SHL PUSH1 0x64 DUP3 ADD MSTORE PUSH1 0x84 ADD PUSH2 0x96F JUMP JUMPDEST POP SWAP1 JUMP JUMPDEST PUSH1 0x0 PUSH4 0xFFFFFFFF DUP3 GT ISZERO PUSH2 0x1B7A JUMPI PUSH1 0x40 MLOAD PUSH3 0x461BCD PUSH1 0xE5 SHL DUP2 MSTORE PUSH1 0x20 PUSH1 0x4 DUP3 ADD MSTORE PUSH1 0x26 PUSH1 0x24 DUP3 ADD MSTORE PUSH32 0x53616665436173743A2076616C756520646F65736E27742066697420696E2033 PUSH1 0x44 DUP3 ADD MSTORE PUSH6 0x322062697473 PUSH1 0xD0 SHL PUSH1 0x64 DUP3 ADD MSTORE PUSH1 0x84 ADD PUSH2 0x96F JUMP JUMPDEST PUSH1 0x1 PUSH1 0x1 PUSH1 0xA0 SHL SUB DUP4 AND PUSH2 0x1C07 JUMPI PUSH2 0x1BFA DUP3 PUSH2 0x2AA4 JUMP JUMPDEST PUSH2 0x1C02 PUSH2 0x2AD6 JUMP JUMPDEST POP POP POP JUMP JUMPDEST PUSH1 0x1 PUSH1 0x1 PUSH1 0xA0 SHL SUB DUP3 AND PUSH2 0x1C1E JUMPI PUSH2 0x1BFA DUP4 PUSH2 0x2AA4 JUMP JUMPDEST PUSH2 0x1C27 DUP4 PUSH2 0x2AA4 JUMP JUMPDEST PUSH2 0x1C02 DUP3 PUSH2 0x2AA4 JUMP JUMPDEST PUSH1 0x1 PUSH1 0x1 PUSH1 0xA0 SHL SUB DUP4 DUP2 AND PUSH1 0x0 SWAP1 DUP2 MSTORE PUSH1 0xB PUSH1 0x20 MSTORE PUSH1 0x40 DUP1 DUP3 KECCAK256 SLOAD DUP6 DUP5 AND DUP4 MSTORE SWAP2 KECCAK256 SLOAD PUSH2 0x1C02 SWAP3 SWAP2 DUP3 AND SWAP2 AND DUP4 PUSH2 0x2AE4 JUMP JUMPDEST PUSH1 0x0 PUSH2 0xBFE DUP3 DUP5 PUSH2 0x393D JUMP JUMPDEST SLOAD SWAP1 JUMP JUMPDEST PUSH1 0x1 PUSH1 0x1 PUSH1 0xA0 SHL SUB DUP4 AND PUSH2 0x1CD4 JUMPI PUSH1 0x40 MLOAD PUSH3 0x461BCD PUSH1 0xE5 SHL DUP2 MSTORE PUSH1 0x20 PUSH1 0x4 DUP3 ADD MSTORE PUSH1 0x24 DUP1 DUP3 ADD MSTORE PUSH32 0x45524332303A20617070726F76652066726F6D20746865207A65726F20616464 PUSH1 0x44 DUP3 ADD MSTORE PUSH4 0x72657373 PUSH1 0xE0 SHL PUSH1 0x64 DUP3 ADD MSTORE PUSH1 0x84 ADD PUSH2 0x96F JUMP JUMPDEST PUSH1 0x1 PUSH1 0x1 PUSH1 0xA0 SHL SUB DUP3 AND PUSH2 0x1D35 JUMPI PUSH1 0x40 MLOAD PUSH3 0x461BCD PUSH1 0xE5 SHL DUP2 MSTORE PUSH1 0x20 PUSH1 0x4 DUP3 ADD MSTORE PUSH1 0x22 PUSH1 0x24 DUP3 ADD MSTORE PUSH32 0x45524332303A20617070726F766520746F20746865207A65726F206164647265 PUSH1 0x44 DUP3 ADD MSTORE PUSH2 0x7373 PUSH1 0xF0 SHL PUSH1 0x64 DUP3 ADD MSTORE PUSH1 0x84 ADD PUSH2 0x96F JUMP JUMPDEST PUSH1 0x1 PUSH1 0x1 PUSH1 0xA0 SHL SUB DUP4 DUP2 AND PUSH1 0x0 DUP2 DUP2 MSTORE PUSH1 0x1 PUSH1 0x20 SWAP1 DUP2 MSTORE PUSH1 0x40 DUP1 DUP4 KECCAK256 SWAP5 DUP8 AND DUP1 DUP5 MSTORE SWAP5 DUP3 MSTORE SWAP2 DUP3 SWAP1 KECCAK256 DUP6 SWAP1 SSTORE SWAP1 MLOAD DUP5 DUP2 MSTORE PUSH32 0x8C5BE1E5EBEC7D5BD14F71427D1E84F3DD0314C0F7B2291E5B200AC8C7C3B925 SWAP2 ADD PUSH1 0x40 MLOAD DUP1 SWAP2 SUB SWAP1 LOG3 POP POP POP JUMP JUMPDEST PUSH1 0x1 PUSH1 0x1 PUSH1 0xA0 SHL SUB DUP4 DUP2 AND PUSH1 0x0 SWAP1 DUP2 MSTORE PUSH1 0x1 PUSH1 0x20 SWAP1 DUP2 MSTORE PUSH1 0x40 DUP1 DUP4 KECCAK256 SWAP4 DUP7 AND DUP4 MSTORE SWAP3 SWAP1 MSTORE KECCAK256 SLOAD PUSH1 0x0 NOT DUP2 EQ PUSH2 0x1A0C JUMPI DUP2 DUP2 LT ISZERO PUSH2 0x1E15 JUMPI PUSH1 0x40 MLOAD PUSH3 0x461BCD PUSH1 0xE5 SHL DUP2 MSTORE PUSH1 0x20 PUSH1 0x4 DUP3 ADD MSTORE PUSH1 0x1D PUSH1 0x24 DUP3 ADD MSTORE PUSH32 0x45524332303A20696E73756666696369656E7420616C6C6F77616E6365000000 PUSH1 0x44 DUP3 ADD MSTORE PUSH1 0x64 ADD PUSH2 0x96F JUMP JUMPDEST PUSH2 0x1A0C DUP5 DUP5 DUP5 DUP5 SUB PUSH2 0x1C72 JUMP JUMPDEST PUSH1 0x1 PUSH1 0x1 PUSH1 0xA0 SHL SUB DUP4 AND PUSH2 0x1E8A JUMPI PUSH1 0x40 MLOAD PUSH3 0x461BCD PUSH1 0xE5 SHL DUP2 MSTORE PUSH1 0x20 PUSH1 0x4 DUP3 ADD MSTORE PUSH1 0x29 PUSH1 0x24 DUP3 ADD MSTORE PUSH32 0x5F7472616E736665723A207472616E736665722066726F6D20746865207A6572 PUSH1 0x44 DUP3 ADD MSTORE PUSH9 0x6F2061646472657373 PUSH1 0xB8 SHL PUSH1 0x64 DUP3 ADD MSTORE PUSH1 0x84 ADD PUSH2 0x96F JUMP JUMPDEST PUSH1 0x1 PUSH1 0x1 PUSH1 0xA0 SHL SUB DUP3 AND PUSH2 0x1EF0 JUMPI PUSH1 0x40 MLOAD PUSH3 0x461BCD PUSH1 0xE5 SHL DUP2 MSTORE PUSH1 0x20 PUSH1 0x4 DUP3 ADD MSTORE PUSH1 0x27 PUSH1 0x24 DUP3 ADD MSTORE PUSH32 0x5F7472616E736665723A207472616E7366657220746F20746865207A65726F20 PUSH1 0x44 DUP3 ADD MSTORE PUSH7 0x61646472657373 PUSH1 0xC8 SHL PUSH1 0x64 DUP3 ADD MSTORE PUSH1 0x84 ADD PUSH2 0x96F JUMP JUMPDEST PUSH1 0x1 PUSH1 0x1 PUSH1 0xA0 SHL SUB DUP4 AND PUSH1 0x0 SWAP1 DUP2 MSTORE PUSH1 0xE PUSH1 0x20 MSTORE PUSH1 0x40 SWAP1 KECCAK256 SLOAD PUSH1 0xFF AND ISZERO PUSH2 0x1F59 JUMPI PUSH1 0x40 MLOAD PUSH3 0x461BCD PUSH1 0xE5 SHL DUP2 MSTORE PUSH1 0x20 PUSH1 0x4 DUP3 ADD DUP2 SWAP1 MSTORE PUSH1 0x24 DUP3 ADD MSTORE PUSH32 0x5F7472616E736665723A2053656E64657220697320626C61636B6C6973746564 PUSH1 0x44 DUP3 ADD MSTORE PUSH1 0x64 ADD PUSH2 0x96F JUMP JUMPDEST PUSH1 0x1 PUSH1 0x1 PUSH1 0xA0 SHL SUB DUP3 AND PUSH1 0x0 SWAP1 DUP2 MSTORE PUSH1 0xE PUSH1 0x20 MSTORE PUSH1 0x40 SWAP1 KECCAK256 SLOAD PUSH1 0xFF AND ISZERO PUSH2 0x1FCE JUMPI PUSH1 0x40 MLOAD PUSH3 0x461BCD PUSH1 0xE5 SHL DUP2 MSTORE PUSH1 0x20 PUSH1 0x4 DUP3 ADD MSTORE PUSH1 0x23 PUSH1 0x24 DUP3 ADD MSTORE PUSH32 0x5F7472616E736665723A20526563697069656E7420697320626C61636B6C6973 PUSH1 0x44 DUP3 ADD MSTORE PUSH3 0x1D1959 PUSH1 0xEA SHL PUSH1 0x64 DUP3 ADD MSTORE PUSH1 0x84 ADD PUSH2 0x96F JUMP JUMPDEST DUP1 PUSH1 0x0 SUB PUSH2 0x1FE2 JUMPI PUSH2 0x1C02 DUP4 DUP4 PUSH1 0x0 PUSH2 0x2C21 JUMP JUMPDEST PUSH1 0x13 SLOAD PUSH1 0xFF AND PUSH2 0x2070 JUMPI PUSH1 0x1 PUSH1 0x1 PUSH1 0xA0 SHL SUB DUP4 AND PUSH1 0x0 SWAP1 DUP2 MSTORE PUSH1 0xF PUSH1 0x20 MSTORE PUSH1 0x40 SWAP1 KECCAK256 SLOAD PUSH1 0xFF AND DUP1 PUSH2 0x202B JUMPI POP PUSH1 0x1 PUSH1 0x1 PUSH1 0xA0 SHL SUB DUP3 AND PUSH1 0x0 SWAP1 DUP2 MSTORE PUSH1 0xF PUSH1 0x20 MSTORE PUSH1 0x40 SWAP1 KECCAK256 SLOAD PUSH1 0xFF AND JUMPDEST PUSH2 0x2070 JUMPI PUSH1 0x40 MLOAD PUSH3 0x461BCD PUSH1 0xE5 SHL DUP2 MSTORE PUSH1 0x20 PUSH1 0x4 DUP3 ADD MSTORE PUSH1 0x16 PUSH1 0x24 DUP3 ADD MSTORE PUSH22 0x2A3930B234B7339034B9903737BA1030B1BA34BB3297 PUSH1 0x51 SHL PUSH1 0x44 DUP3 ADD MSTORE PUSH1 0x64 ADD PUSH2 0x96F JUMP JUMPDEST PUSH1 0x18 SLOAD PUSH2 0x207E SWAP1 PUSH1 0x1 PUSH2 0x3925 JUMP JUMPDEST NUMBER GT ISZERO DUP1 ISZERO PUSH2 0x20BF JUMPI POP PUSH32 0x0 PUSH1 0x1 PUSH1 0x1 PUSH1 0xA0 SHL SUB AND DUP3 PUSH1 0x1 PUSH1 0x1 PUSH1 0xA0 SHL SUB AND EQ ISZERO JUMPDEST DUP1 ISZERO PUSH2 0x20E8 JUMPI POP PUSH1 0x1 PUSH1 0x1 PUSH1 0xA0 SHL SUB DUP3 AND PUSH20 0x7A250D5630B4CF539739DF2C5DACB4C659F2488D EQ ISZERO JUMPDEST ISZERO PUSH2 0x2137 JUMPI PUSH1 0x1 PUSH1 0x1 PUSH1 0xA0 SHL SUB DUP3 AND PUSH1 0x0 DUP2 DUP2 MSTORE PUSH1 0xE PUSH1 0x20 MSTORE PUSH1 0x40 DUP1 DUP3 KECCAK256 DUP1 SLOAD PUSH1 0xFF NOT AND PUSH1 0x1 OR SWAP1 SSTORE MLOAD PUSH32 0xB90BADC1CF1C52268F4FA9AFB5276AEBF640BCCA3300CDFC9CF37DB17DAA13E2 SWAP2 SWAP1 LOG2 JUMPDEST PUSH1 0x1 PUSH1 0x1 PUSH1 0xA0 SHL SUB DUP4 AND PUSH1 0x0 SWAP1 DUP2 MSTORE PUSH1 0x10 PUSH1 0x20 MSTORE PUSH1 0x40 SWAP1 KECCAK256 SLOAD PUSH1 0xFF AND ISZERO DUP1 ISZERO PUSH2 0x2192 JUMPI POP PUSH32 0x0 PUSH1 0x1 PUSH1 0x1 PUSH1 0xA0 SHL SUB AND DUP4 PUSH1 0x1 PUSH1 0x1 PUSH1 0xA0 SHL SUB AND EQ ISZERO JUMPDEST DUP1 ISZERO PUSH2 0x21AC JUMPI POP PUSH1 0x9 SLOAD PUSH1 0x1 PUSH1 0x1 PUSH1 0xA0 SHL SUB DUP5 DUP2 AND SWAP2 AND EQ ISZERO JUMPDEST DUP1 ISZERO PUSH2 0x21C6 JUMPI POP PUSH1 0x9 SLOAD PUSH1 0x1 PUSH1 0x1 PUSH1 0xA0 SHL SUB DUP4 DUP2 AND SWAP2 AND EQ ISZERO JUMPDEST DUP1 ISZERO PUSH2 0x21DC JUMPI POP PUSH1 0x11 SLOAD PUSH1 0x1 PUSH1 0xA0 SHL SWAP1 DIV PUSH1 0xFF AND ISZERO JUMPDEST ISZERO PUSH2 0x220E JUMPI PUSH1 0x11 DUP1 SLOAD PUSH1 0xFF PUSH1 0xA0 SHL NOT AND PUSH1 0x1 PUSH1 0xA0 SHL OR SWAP1 SSTORE PUSH2 0x21FC PUSH2 0x2E00 JUMP JUMPDEST TIMESTAMP PUSH1 0x12 SSTORE PUSH1 0x11 DUP1 SLOAD PUSH1 0xFF PUSH1 0xA0 SHL NOT AND SWAP1 SSTORE JUMPDEST PUSH1 0x0 PUSH32 0x0 PUSH1 0x1 PUSH1 0x1 PUSH1 0xA0 SHL SUB AND DUP5 PUSH1 0x1 PUSH1 0x1 PUSH1 0xA0 SHL SUB AND EQ DUP1 PUSH2 0x2281 JUMPI POP PUSH32 0x0 PUSH1 0x1 PUSH1 0x1 PUSH1 0xA0 SHL SUB AND DUP4 PUSH1 0x1 PUSH1 0x1 PUSH1 0xA0 SHL SUB AND EQ JUMPDEST DUP1 PUSH2 0x22A4 JUMPI POP PUSH1 0x1 PUSH1 0x1 PUSH1 0xA0 SHL SUB DUP4 AND PUSH1 0x0 SWAP1 DUP2 MSTORE PUSH1 0x10 PUSH1 0x20 MSTORE PUSH1 0x40 SWAP1 KECCAK256 SLOAD PUSH1 0xFF AND JUMPDEST DUP1 PUSH2 0x22C7 JUMPI POP PUSH1 0x1 PUSH1 0x1 PUSH1 0xA0 SHL SUB DUP5 AND PUSH1 0x0 SWAP1 DUP2 MSTORE PUSH1 0x10 PUSH1 0x20 MSTORE PUSH1 0x40 SWAP1 KECCAK256 SLOAD PUSH1 0xFF AND JUMPDEST ISZERO PUSH2 0x22D0 JUMPI POP PUSH1 0x1 JUMPDEST PUSH1 0x13 SLOAD PUSH4 0x1000000 SWAP1 DIV PUSH1 0xFF AND ISZERO DUP1 PUSH2 0x22F2 JUMPI POP PUSH1 0x11 SLOAD PUSH1 0x1 PUSH1 0xA0 SHL SWAP1 DIV PUSH1 0xFF AND JUMPDEST DUP1 PUSH2 0x2315 JUMPI POP PUSH1 0x1 PUSH1 0x1 PUSH1 0xA0 SHL SUB DUP5 AND PUSH1 0x0 SWAP1 DUP2 MSTORE PUSH1 0xF PUSH1 0x20 MSTORE PUSH1 0x40 SWAP1 KECCAK256 SLOAD PUSH1 0xFF AND JUMPDEST DUP1 PUSH2 0x2338 JUMPI POP PUSH1 0x1 PUSH1 0x1 PUSH1 0xA0 SHL SUB DUP4 AND PUSH1 0x0 SWAP1 DUP2 MSTORE PUSH1 0xF PUSH1 0x20 MSTORE PUSH1 0x40 SWAP1 KECCAK256 SLOAD PUSH1 0xFF AND JUMPDEST ISZERO PUSH2 0x2341 JUMPI POP PUSH1 0x0 JUMPDEST DUP1 ISZERO PUSH2 0x240F JUMPI PUSH1 0x1 PUSH1 0x1 PUSH1 0xA0 SHL SUB DUP4 AND PUSH1 0x0 SWAP1 DUP2 MSTORE PUSH1 0x10 PUSH1 0x20 MSTORE PUSH1 0x40 DUP2 KECCAK256 SLOAD PUSH1 0xFF AND DUP1 ISZERO PUSH2 0x2377 JUMPI POP PUSH1 0x13 SLOAD PUSH3 0x10000 SWAP1 DIV PUSH1 0xFF AND JUMPDEST ISZERO PUSH2 0x239E JUMPI PUSH2 0x2710 PUSH1 0x15 SLOAD DUP5 PUSH2 0x238D SWAP2 SWAP1 PUSH2 0x396A JUMP JUMPDEST PUSH2 0x2397 SWAP2 SWAP1 PUSH2 0x3989 JUMP JUMPDEST SWAP1 POP PUSH2 0x23F0 JUMP JUMPDEST PUSH1 0x1 PUSH1 0x1 PUSH1 0xA0 SHL SUB DUP6 AND PUSH1 0x0 SWAP1 DUP2 MSTORE PUSH1 0x10 PUSH1 0x20 MSTORE PUSH1 0x40 SWAP1 KECCAK256 SLOAD PUSH1 0xFF AND DUP1 ISZERO PUSH2 0x23CD JUMPI POP PUSH1 0x13 SLOAD PUSH2 0x100 SWAP1 DIV PUSH1 0xFF AND JUMPDEST ISZERO PUSH2 0x23F0 JUMPI PUSH2 0x2710 PUSH1 0x14 SLOAD DUP5 PUSH2 0x23E3 SWAP2 SWAP1 PUSH2 0x396A JUMP JUMPDEST PUSH2 0x23ED SWAP2 SWAP1 PUSH2 0x3989 JUMP JUMPDEST SWAP1 POP JUMPDEST DUP1 ISZERO PUSH2 0x2401 JUMPI PUSH2 0x2401 DUP6 ADDRESS DUP4 PUSH2 0x2C21 JUMP JUMPDEST PUSH2 0x240B DUP2 DUP5 PUSH2 0x393D JUMP JUMPDEST SWAP3 POP POP JUMPDEST PUSH2 0x1A0C DUP5 DUP5 DUP5 PUSH2 0x2C21 JUMP JUMPDEST PUSH1 0x0 ADDRESS PUSH1 0x1 PUSH1 0x1 PUSH1 0xA0 SHL SUB PUSH32 0x0 AND EQ DUP1 ISZERO PUSH2 0x2473 JUMPI POP PUSH32 0x0 CHAINID EQ JUMPDEST ISZERO PUSH2 0x249D JUMPI POP PUSH32 0x0 SWAP1 JUMP JUMPDEST POP PUSH1 0x40 DUP1 MLOAD PUSH32 0x0 PUSH1 0x20 DUP1 DUP4 ADD SWAP2 SWAP1 SWAP2 MSTORE PUSH32 0x0 DUP3 DUP5 ADD MSTORE PUSH32 0x0 PUSH1 0x60 DUP4 ADD MSTORE CHAINID PUSH1 0x80 DUP4 ADD MSTORE ADDRESS PUSH1 0xA0 DUP1 DUP5 ADD SWAP2 SWAP1 SWAP2 MSTORE DUP4 MLOAD DUP1 DUP5 SUB SWAP1 SWAP2 ADD DUP2 MSTORE PUSH1 0xC0 SWAP1 SWAP3 ADD SWAP1 SWAP3 MSTORE DUP1 MLOAD SWAP2 ADD KECCAK256 SWAP1 JUMP JUMPDEST DUP2 SLOAD PUSH1 0x0 SWAP1 DUP2 JUMPDEST DUP2 DUP2 LT ISZERO PUSH2 0x25A5 JUMPI PUSH1 0x0 PUSH2 0x255C DUP3 DUP5 PUSH2 0x3082 JUMP JUMPDEST SWAP1 POP DUP5 DUP7 DUP3 DUP2 SLOAD DUP2 LT PUSH2 0x2571 JUMPI PUSH2 0x2571 PUSH2 0x3954 JUMP JUMPDEST PUSH1 0x0 SWAP2 DUP3 MSTORE PUSH1 0x20 SWAP1 SWAP2 KECCAK256 ADD SLOAD PUSH4 0xFFFFFFFF AND GT ISZERO PUSH2 0x2591 JUMPI DUP1 SWAP3 POP PUSH2 0x259F JUMP JUMPDEST PUSH2 0x259C DUP2 PUSH1 0x1 PUSH2 0x3925 JUMP JUMPDEST SWAP2 POP JUMPDEST POP PUSH2 0x2548 JUMP JUMPDEST DUP2 ISZERO PUSH2 0x25E9 JUMPI DUP5 PUSH2 0x25B7 PUSH1 0x1 DUP5 PUSH2 0x393D JUMP JUMPDEST DUP2 SLOAD DUP2 LT PUSH2 0x25C7 JUMPI PUSH2 0x25C7 PUSH2 0x3954 JUMP JUMPDEST PUSH1 0x0 SWAP2 DUP3 MSTORE PUSH1 0x20 SWAP1 SWAP2 KECCAK256 ADD SLOAD PUSH5 0x100000000 SWAP1 DIV PUSH1 0x1 PUSH1 0x1 PUSH1 0xE0 SHL SUB AND PUSH2 0x25EC JUMP JUMPDEST PUSH1 0x0 JUMPDEST PUSH1 0x1 PUSH1 0x1 PUSH1 0xE0 SHL SUB AND SWAP6 SWAP5 POP POP POP POP POP JUMP JUMPDEST PUSH2 0xEE3 DUP3 DUP3 PUSH2 0x309D JUMP JUMPDEST PUSH1 0x0 DUP1 PUSH1 0x0 DUP5 GT PUSH2 0x2654 JUMPI PUSH1 0x40 MLOAD PUSH3 0x461BCD PUSH1 0xE5 SHL DUP2 MSTORE PUSH1 0x20 PUSH1 0x4 DUP3 ADD MSTORE PUSH1 0x16 PUSH1 0x24 DUP3 ADD MSTORE PUSH22 0x4552433230536E617073686F743A206964206973203 PUSH1 0x54 SHL PUSH1 0x44 DUP3 ADD MSTORE PUSH1 0x64 ADD PUSH2 0x96F JUMP JUMPDEST PUSH2 0x265C PUSH2 0x30B5 JUMP JUMPDEST DUP5 GT ISZERO PUSH2 0x26AB JUMPI PUSH1 0x40 MLOAD PUSH3 0x461BCD PUSH1 0xE5 SHL DUP2 MSTORE PUSH1 0x20 PUSH1 0x4 DUP3 ADD MSTORE PUSH1 0x1D PUSH1 0x24 DUP3 ADD MSTORE PUSH32 0x4552433230536E617073686F743A206E6F6E6578697374656E74206964000000 PUSH1 0x44 DUP3 ADD MSTORE PUSH1 0x64 ADD PUSH2 0x96F JUMP JUMPDEST PUSH1 0x0 PUSH2 0x26B7 DUP5 DUP7 PUSH2 0x30C0 JUMP JUMPDEST DUP5 SLOAD SWAP1 SWAP2 POP DUP2 SUB PUSH2 0x26CF JUMPI PUSH1 0x0 DUP1 SWAP3 POP SWAP3 POP POP PUSH2 0x26F7 JUMP JUMPDEST PUSH1 0x1 DUP5 PUSH1 0x1 ADD DUP3 DUP2 SLOAD DUP2 LT PUSH2 0x26E6 JUMPI PUSH2 0x26E6 PUSH2 0x3954 JUMP JUMPDEST SWAP1 PUSH1 0x0 MSTORE PUSH1 0x20 PUSH1 0x0 KECCAK256 ADD SLOAD SWAP3 POP SWAP3 POP POP JUMPDEST SWAP3 POP SWAP3 SWAP1 POP JUMP JUMPDEST PUSH1 0x1 PUSH1 0x1 PUSH1 0xA0 SHL SUB DUP3 DUP2 AND PUSH1 0x0 DUP2 DUP2 MSTORE PUSH1 0xB PUSH1 0x20 DUP2 DUP2 MSTORE PUSH1 0x40 DUP1 DUP5 KECCAK256 DUP1 SLOAD DUP6 DUP5 MSTORE DUP3 DUP7 KECCAK256 SLOAD SWAP5 SWAP1 SWAP4 MSTORE DUP8 DUP8 AND PUSH1 0x1 PUSH1 0x1 PUSH1 0xA0 SHL SUB NOT DUP5 AND DUP2 OR SWAP1 SWAP2 SSTORE SWAP1 MLOAD SWAP2 SWAP1 SWAP6 AND SWAP5 SWAP2 SWAP4 SWAP2 SWAP3 DUP6 SWAP3 SWAP2 PUSH32 0x3134E8A2E6D97E929A7E54011EA5485D7D196DD5F0BA4D4EF95803E8E3FC257F SWAP2 SWAP1 LOG4 PUSH2 0x1A0C DUP3 DUP5 DUP4 PUSH2 0x2AE4 JUMP JUMPDEST PUSH1 0x9 DUP1 SLOAD PUSH1 0x1 PUSH1 0x1 PUSH1 0xA0 SHL SUB DUP4 DUP2 AND PUSH1 0x1 PUSH1 0x1 PUSH1 0xA0 SHL SUB NOT DUP4 AND DUP2 OR SWAP1 SWAP4 SSTORE PUSH1 0x40 MLOAD SWAP2 AND SWAP2 SWAP1 DUP3 SWAP1 PUSH32 0x8BE0079C531659141344CD1FD0A4F28419497F9722A3DAAFE3B4186F6B6457E0 SWAP1 PUSH1 0x0 SWAP1 LOG3 POP POP JUMP JUMPDEST PUSH1 0x0 PUSH2 0x27D9 PUSH1 0x8 DUP1 SLOAD PUSH1 0x1 ADD SWAP1 SSTORE JUMP JUMPDEST PUSH1 0x0 PUSH2 0x27E3 PUSH2 0x30B5 JUMP JUMPDEST SWAP1 POP PUSH32 0x8030E83B04D87BEF53480E26263266D6CA66863AA8506ACA6F2559D18AA1CB67 DUP2 PUSH1 0x40 MLOAD PUSH2 0x2816 SWAP2 DUP2 MSTORE PUSH1 0x20 ADD SWAP1 JUMP JUMPDEST PUSH1 0x40 MLOAD DUP1 SWAP2 SUB SWAP1 LOG1 SWAP2 SWAP1 POP JUMP JUMPDEST PUSH1 0x1 PUSH1 0x1 PUSH1 0xA0 SHL SUB DUP3 AND PUSH1 0x0 DUP2 DUP2 MSTORE PUSH1 0x10 PUSH1 0x20 MSTORE PUSH1 0x40 DUP1 DUP3 KECCAK256 DUP1 SLOAD PUSH1 0xFF NOT AND DUP6 ISZERO ISZERO SWAP1 DUP2 OR SWAP1 SWAP2 SSTORE SWAP1 MLOAD SWAP1 SWAP3 SWAP2 PUSH32 0xFFA9187BF1F18BF477BD0EA1BCBB64E93B6A98132473929EDFCE215CD9B16FAB SWAP2 LOG3 POP POP JUMP JUMPDEST PUSH1 0x0 PUSH2 0x91B PUSH2 0x2884 PUSH2 0x241A JUMP JUMPDEST DUP4 PUSH1 0x40 MLOAD PUSH2 0x1901 PUSH1 0xF0 SHL PUSH1 0x20 DUP3 ADD MSTORE PUSH1 0x22 DUP2 ADD DUP4 SWAP1 MSTORE PUSH1 0x42 DUP2 ADD DUP3 SWAP1 MSTORE PUSH1 0x0 SWAP1 PUSH1 0x62 ADD PUSH1 0x40 MLOAD PUSH1 0x20 DUP2 DUP4 SUB SUB DUP2 MSTORE SWAP1 PUSH1 0x40 MSTORE DUP1 MLOAD SWAP1 PUSH1 0x20 ADD KECCAK256 SWAP1 POP SWAP3 SWAP2 POP POP JUMP JUMPDEST PUSH1 0x0 DUP1 PUSH1 0x0 PUSH2 0x28D6 DUP8 DUP8 DUP8 DUP8 PUSH2 0x3185 JUMP JUMPDEST SWAP2 POP SWAP2 POP PUSH2 0x28E3 DUP2 PUSH2 0x3272 JUMP JUMPDEST POP SWAP6 SWAP5 POP POP POP POP POP JUMP JUMPDEST PUSH1 0x1 PUSH1 0x1 PUSH1 0xA0 SHL SUB DUP2 AND PUSH1 0x0 SWAP1 DUP2 MSTORE PUSH1 0xA PUSH1 0x20 MSTORE PUSH1 0x40 SWAP1 KECCAK256 DUP1 SLOAD PUSH1 0x1 DUP2 ADD DUP3 SSTORE SWAP1 JUMPDEST POP SWAP2 SWAP1 POP JUMP JUMPDEST DUP3 SLOAD PUSH1 0x0 SWAP1 DUP2 SWAP1 DUP1 ISZERO PUSH2 0x2960 JUMPI DUP6 PUSH2 0x292E PUSH1 0x1 DUP4 PUSH2 0x393D JUMP JUMPDEST DUP2 SLOAD DUP2 LT PUSH2 0x293E JUMPI PUSH2 0x293E PUSH2 0x3954 JUMP JUMPDEST PUSH1 0x0 SWAP2 DUP3 MSTORE PUSH1 0x20 SWAP1 SWAP2 KECCAK256 ADD SLOAD PUSH5 0x100000000 SWAP1 DIV PUSH1 0x1 PUSH1 0x1 PUSH1 0xE0 SHL SUB AND PUSH2 0x2963 JUMP JUMPDEST PUSH1 0x0 JUMPDEST PUSH1 0x1 PUSH1 0x1 PUSH1 0xE0 SHL SUB AND SWAP3 POP PUSH2 0x297C DUP4 DUP6 DUP8 PUSH4 0xFFFFFFFF AND JUMP JUMPDEST SWAP2 POP PUSH1 0x0 DUP2 GT DUP1 ISZERO PUSH2 0x29BA JUMPI POP NUMBER DUP7 PUSH2 0x2996 PUSH1 0x1 DUP5 PUSH2 0x393D JUMP JUMPDEST DUP2 SLOAD DUP2 LT PUSH2 0x29A6 JUMPI PUSH2 0x29A6 PUSH2 0x3954 JUMP JUMPDEST PUSH1 0x0 SWAP2 DUP3 MSTORE PUSH1 0x20 SWAP1 SWAP2 KECCAK256 ADD SLOAD PUSH4 0xFFFFFFFF AND EQ JUMPDEST ISZERO PUSH2 0x2A1A JUMPI PUSH2 0x29C8 DUP3 PUSH2 0x1B11 JUMP JUMPDEST DUP7 PUSH2 0x29D4 PUSH1 0x1 DUP5 PUSH2 0x393D JUMP JUMPDEST DUP2 SLOAD DUP2 LT PUSH2 0x29E4 JUMPI PUSH2 0x29E4 PUSH2 0x3954 JUMP JUMPDEST SWAP1 PUSH1 0x0 MSTORE PUSH1 0x20 PUSH1 0x0 KECCAK256 ADD PUSH1 0x0 ADD PUSH1 0x4 PUSH2 0x100 EXP DUP2 SLOAD DUP2 PUSH1 0x1 PUSH1 0x1 PUSH1 0xE0 SHL SUB MUL NOT AND SWAP1 DUP4 PUSH1 0x1 PUSH1 0x1 PUSH1 0xE0 SHL SUB AND MUL OR SWAP1 SSTORE POP PUSH2 0x2A85 JUMP JUMPDEST DUP6 PUSH1 0x40 MLOAD DUP1 PUSH1 0x40 ADD PUSH1 0x40 MSTORE DUP1 PUSH2 0x2A2F NUMBER PUSH2 0x1B7E JUMP JUMPDEST PUSH4 0xFFFFFFFF AND DUP2 MSTORE PUSH1 0x20 ADD PUSH2 0x2A43 DUP6 PUSH2 0x1B11 JUMP JUMPDEST PUSH1 0x1 PUSH1 0x1 PUSH1 0xE0 SHL SUB SWAP1 DUP2 AND SWAP1 SWAP2 MSTORE DUP3 SLOAD PUSH1 0x1 DUP2 ADD DUP5 SSTORE PUSH1 0x0 SWAP4 DUP5 MSTORE PUSH1 0x20 SWAP4 DUP5 SWAP1 KECCAK256 DUP4 MLOAD SWAP5 SWAP1 SWAP4 ADD MLOAD SWAP1 SWAP2 AND PUSH5 0x100000000 MUL PUSH4 0xFFFFFFFF SWAP1 SWAP4 AND SWAP3 SWAP1 SWAP3 OR SWAP2 ADD SSTORE JUMPDEST POP SWAP4 POP SWAP4 SWAP2 POP POP JUMP JUMPDEST PUSH2 0x1C02 DUP4 DUP4 DUP4 PUSH2 0x1BE3 JUMP JUMPDEST PUSH2 0x1C02 DUP4 DUP4 DUP4 PUSH2 0x1C30 JUMP JUMPDEST PUSH1 0x1 PUSH1 0x1 PUSH1 0xA0 SHL SUB DUP2 AND PUSH1 0x0 SWAP1 DUP2 MSTORE PUSH1 0x5 PUSH1 0x20 SWAP1 DUP2 MSTORE PUSH1 0x40 DUP1 DUP4 KECCAK256 SWAP2 DUP4 SWAP1 MSTORE SWAP1 SWAP2 KECCAK256 SLOAD PUSH2 0xC7F SWAP2 SWAP1 PUSH2 0x3428 JUMP JUMPDEST PUSH2 0x3428 JUMP JUMPDEST PUSH2 0xECC PUSH1 0x6 PUSH2 0x2AD1 PUSH1 0x2 SLOAD SWAP1 JUMP JUMPDEST DUP2 PUSH1 0x1 PUSH1 0x1 PUSH1 0xA0 SHL SUB AND DUP4 PUSH1 0x1 PUSH1 0x1 PUSH1 0xA0 SHL SUB AND EQ ISZERO DUP1 ISZERO PUSH2 0x2B06 JUMPI POP PUSH1 0x0 DUP2 GT JUMPDEST ISZERO PUSH2 0x1C02 JUMPI PUSH1 0x1 PUSH1 0x1 PUSH1 0xA0 SHL SUB DUP4 AND ISZERO PUSH2 0x2B94 JUMPI PUSH1 0x1 PUSH1 0x1 PUSH1 0xA0 SHL SUB DUP4 AND PUSH1 0x0 SWAP1 DUP2 MSTORE PUSH1 0xC PUSH1 0x20 MSTORE PUSH1 0x40 DUP2 KECCAK256 DUP2 SWAP1 PUSH2 0x2B41 SWAP1 PUSH2 0x1C62 DUP6 PUSH2 0x2915 JUMP JUMPDEST SWAP2 POP SWAP2 POP DUP5 PUSH1 0x1 PUSH1 0x1 PUSH1 0xA0 SHL SUB AND PUSH32 0xDEC2BACDD2F05B59DE34DA9B523DFF8BE42E5E38E818C82FDB0BAE774387A724 DUP4 DUP4 PUSH1 0x40 MLOAD PUSH2 0x2B89 SWAP3 SWAP2 SWAP1 SWAP2 DUP3 MSTORE PUSH1 0x20 DUP3 ADD MSTORE PUSH1 0x40 ADD SWAP1 JUMP JUMPDEST PUSH1 0x40 MLOAD DUP1 SWAP2 SUB SWAP1 LOG2 POP POP JUMPDEST PUSH1 0x1 PUSH1 0x1 PUSH1 0xA0 SHL SUB DUP3 AND ISZERO PUSH2 0x1C02 JUMPI PUSH1 0x1 PUSH1 0x1 PUSH1 0xA0 SHL SUB DUP3 AND PUSH1 0x0 SWAP1 DUP2 MSTORE PUSH1 0xC PUSH1 0x20 MSTORE PUSH1 0x40 DUP2 KECCAK256 DUP2 SWAP1 PUSH2 0x2BCA SWAP1 PUSH2 0x1B05 DUP6 PUSH2 0x2915 JUMP JUMPDEST SWAP2 POP SWAP2 POP DUP4 PUSH1 0x1 PUSH1 0x1 PUSH1 0xA0 SHL SUB AND PUSH32 0xDEC2BACDD2F05B59DE34DA9B523DFF8BE42E5E38E818C82FDB0BAE774387A724 DUP4 DUP4 PUSH1 0x40 MLOAD PUSH2 0x2C12 SWAP3 SWAP2 SWAP1 SWAP2 DUP3 MSTORE PUSH1 0x20 DUP3 ADD MSTORE PUSH1 0x40 ADD SWAP1 JUMP JUMPDEST PUSH1 0x40 MLOAD DUP1 SWAP2 SUB SWAP1 LOG2 POP POP POP POP POP JUMP JUMPDEST PUSH1 0x1 PUSH1 0x1 PUSH1 0xA0 SHL SUB DUP4 AND PUSH2 0x2C85 JUMPI PUSH1 0x40 MLOAD PUSH3 0x461BCD PUSH1 0xE5 SHL DUP2 MSTORE PUSH1 0x20 PUSH1 0x4 DUP3 ADD MSTORE PUSH1 0x25 PUSH1 0x24 DUP3 ADD MSTORE PUSH32 0x45524332303A207472616E736665722066726F6D20746865207A65726F206164 PUSH1 0x44 DUP3 ADD MSTORE PUSH5 0x6472657373 PUSH1 0xD8 SHL PUSH1 0x64 DUP3 ADD MSTORE PUSH1 0x84 ADD PUSH2 0x96F JUMP JUMPDEST PUSH1 0x1 PUSH1 0x1 PUSH1 0xA0 SHL SUB DUP3 AND PUSH2 0x2CE7 JUMPI PUSH1 0x40 MLOAD PUSH3 0x461BCD PUSH1 0xE5 SHL DUP2 MSTORE PUSH1 0x20 PUSH1 0x4 DUP3 ADD MSTORE PUSH1 0x23 PUSH1 0x24 DUP3 ADD MSTORE PUSH32 0x45524332303A207472616E7366657220746F20746865207A65726F2061646472 PUSH1 0x44 DUP3 ADD MSTORE PUSH3 0x657373 PUSH1 0xE8 SHL PUSH1 0x64 DUP3 ADD MSTORE PUSH1 0x84 ADD PUSH2 0x96F JUMP JUMPDEST PUSH2 0x2CF2 DUP4 DUP4 DUP4 PUSH2 0x2A8E JUMP JUMPDEST PUSH1 0x1 PUSH1 0x1 PUSH1 0xA0 SHL SUB DUP4 AND PUSH1 0x0 SWAP1 DUP2 MSTORE PUSH1 0x20 DUP2 SWAP1 MSTORE PUSH1 0x40 SWAP1 KECCAK256 SLOAD DUP2 DUP2 LT ISZERO PUSH2 0x2D6A JUMPI PUSH1 0x40 MLOAD PUSH3 0x461BCD PUSH1 0xE5 SHL DUP2 MSTORE PUSH1 0x20 PUSH1 0x4 DUP3 ADD MSTORE PUSH1 0x26 PUSH1 0x24 DUP3 ADD MSTORE PUSH32 0x45524332303A207472616E7366657220616D6F756E7420657863656564732062 PUSH1 0x44 DUP3 ADD MSTORE PUSH6 0x616C616E6365 PUSH1 0xD0 SHL PUSH1 0x64 DUP3 ADD MSTORE PUSH1 0x84 ADD PUSH2 0x96F JUMP JUMPDEST PUSH1 0x1 PUSH1 0x1 PUSH1 0xA0 SHL SUB DUP1 DUP6 AND PUSH1 0x0 SWAP1 DUP2 MSTORE PUSH1 0x20 DUP2 SWAP1 MSTORE PUSH1 0x40 DUP1 DUP3 KECCAK256 DUP6 DUP6 SUB SWAP1 SSTORE SWAP2 DUP6 AND DUP2 MSTORE SWAP1 DUP2 KECCAK256 DUP1 SLOAD DUP5 SWAP3 SWAP1 PUSH2 0x2DA1 SWAP1 DUP5 SWAP1 PUSH2 0x3925 JUMP JUMPDEST SWAP3 POP POP DUP2 SWAP1 SSTORE POP DUP3 PUSH1 0x1 PUSH1 0x1 PUSH1 0xA0 SHL SUB AND DUP5 PUSH1 0x1 PUSH1 0x1 PUSH1 0xA0 SHL SUB AND PUSH32 0xDDF252AD1BE2C89B69C2B068FC378DAA952BA7F163C4A11628F55A4DF523B3EF DUP5 PUSH1 0x40 MLOAD PUSH2 0x2DED SWAP2 DUP2 MSTORE PUSH1 0x20 ADD SWAP1 JUMP JUMPDEST PUSH1 0x40 MLOAD DUP1 SWAP2 SUB SWAP1 LOG3 PUSH2 0x1A0C DUP5 DUP5 DUP5 PUSH2 0x2A99 JUMP JUMPDEST ADDRESS PUSH1 0x0 SWAP1 DUP2 MSTORE PUSH1 0x20 DUP2 SWAP1 MSTORE PUSH1 0x40 SWAP1 KECCAK256 SLOAD DUP1 ISZERO DUP1 PUSH2 0x2E1E JUMPI POP PUSH1 0x17 SLOAD DUP2 LT JUMPDEST ISZERO PUSH2 0x2E26 JUMPI POP JUMP JUMPDEST PUSH1 0x40 DUP1 MLOAD PUSH1 0x2 DUP1 DUP3 MSTORE PUSH1 0x60 DUP3 ADD DUP4 MSTORE PUSH1 0x0 SWAP3 DUP4 SWAP3 SWAP2 SWAP1 PUSH1 0x20 DUP4 ADD SWAP1 DUP1 CALLDATASIZE DUP4 CALLDATACOPY ADD SWAP1 POP POP SWAP1 POP ADDRESS DUP2 PUSH1 0x0 DUP2 MLOAD DUP2 LT PUSH2 0x2E5F JUMPI PUSH2 0x2E5F PUSH2 0x3954 JUMP JUMPDEST PUSH1 0x20 MUL PUSH1 0x20 ADD ADD SWAP1 PUSH1 0x1 PUSH1 0x1 PUSH1 0xA0 SHL SUB AND SWAP1 DUP2 PUSH1 0x1 PUSH1 0x1 PUSH1 0xA0 SHL SUB AND DUP2 MSTORE POP POP PUSH32 0x0 PUSH1 0x1 PUSH1 0x1 PUSH1 0xA0 SHL SUB AND PUSH4 0xAD5C4648 PUSH1 0x40 MLOAD DUP2 PUSH4 0xFFFFFFFF AND PUSH1 0xE0 SHL DUP2 MSTORE PUSH1 0x4 ADD PUSH1 0x20 PUSH1 0x40 MLOAD DUP1 DUP4 SUB DUP2 DUP7 GAS STATICCALL ISZERO DUP1 ISZERO PUSH2 0x2EDD JUMPI RETURNDATASIZE PUSH1 0x0 DUP1 RETURNDATACOPY RETURNDATASIZE PUSH1 0x0 REVERT JUMPDEST POP POP POP POP PUSH1 0x40 MLOAD RETURNDATASIZE PUSH1 0x1F NOT PUSH1 0x1F DUP3 ADD AND DUP3 ADD DUP1 PUSH1 0x40 MSTORE POP DUP2 ADD SWAP1 PUSH2 0x2F01 SWAP2 SWAP1 PUSH2 0x39AB JUMP JUMPDEST DUP2 PUSH1 0x1 DUP2 MLOAD DUP2 LT PUSH2 0x2F14 JUMPI PUSH2 0x2F14 PUSH2 0x3954 JUMP JUMPDEST PUSH1 0x20 MUL PUSH1 0x20 ADD ADD SWAP1 PUSH1 0x1 PUSH1 0x1 PUSH1 0xA0 SHL SUB AND SWAP1 DUP2 PUSH1 0x1 PUSH1 0x1 PUSH1 0xA0 SHL SUB AND DUP2 MSTORE POP POP PUSH2 0x2F5F ADDRESS PUSH32 0x0 DUP6 PUSH2 0x1C72 JUMP JUMPDEST PUSH1 0x40 MLOAD PUSH4 0x791AC947 PUSH1 0xE0 SHL DUP2 MSTORE PUSH1 0x1 PUSH1 0x1 PUSH1 0xA0 SHL SUB PUSH32 0x0 AND SWAP1 PUSH4 0x791AC947 SWAP1 PUSH2 0x2FB4 SWAP1 DUP7 SWAP1 PUSH1 0x0 SWAP1 DUP7 SWAP1 ADDRESS SWAP1 TIMESTAMP SWAP1 PUSH1 0x4 ADD PUSH2 0x39C8 JUMP JUMPDEST PUSH1 0x0 PUSH1 0x40 MLOAD DUP1 DUP4 SUB DUP2 PUSH1 0x0 DUP8 DUP1 EXTCODESIZE ISZERO DUP1 ISZERO PUSH2 0x2FCE JUMPI PUSH1 0x0 DUP1 REVERT JUMPDEST POP GAS CALL ISZERO DUP1 ISZERO PUSH2 0x2FE2 JUMPI RETURNDATASIZE PUSH1 0x0 DUP1 RETURNDATACOPY RETURNDATASIZE PUSH1 0x0 REVERT JUMPDEST POP POP PUSH1 0x11 SLOAD PUSH1 0x40 MLOAD PUSH1 0x1 PUSH1 0x1 PUSH1 0xA0 SHL SUB SWAP1 SWAP2 AND SWAP3 POP SELFBALANCE SWAP2 POP PUSH1 0x0 DUP2 DUP2 DUP2 DUP6 DUP8 GAS CALL SWAP3 POP POP POP RETURNDATASIZE DUP1 PUSH1 0x0 DUP2 EQ PUSH2 0x3033 JUMPI PUSH1 0x40 MLOAD SWAP2 POP PUSH1 0x1F NOT PUSH1 0x3F RETURNDATASIZE ADD AND DUP3 ADD PUSH1 0x40 MSTORE RETURNDATASIZE DUP3 MSTORE RETURNDATASIZE PUSH1 0x0 PUSH1 0x20 DUP5 ADD RETURNDATACOPY PUSH2 0x3038 JUMP JUMPDEST PUSH1 0x60 SWAP2 POP JUMPDEST POP POP PUSH1 0x11 SLOAD PUSH1 0x40 MLOAD PUSH1 0x1 PUSH1 0x1 PUSH1 0xA0 SHL SUB SWAP1 SWAP2 AND DUP2 MSTORE SWAP1 SWAP3 POP PUSH32 0xB9C470FFA69E4030438AEC612991E2431AFEA5300DD0B4E4195EB87D8769C305 SWAP1 PUSH1 0x20 ADD PUSH1 0x40 MLOAD DUP1 SWAP2 SUB SWAP1 LOG1 POP POP POP JUMP JUMPDEST PUSH1 0x0 PUSH2 0x3091 PUSH1 0x2 DUP5 DUP5 XOR PUSH2 0x3989 JUMP JUMPDEST PUSH2 0xBFE SWAP1 DUP5 DUP5 AND PUSH2 0x3925 JUMP JUMPDEST PUSH2 0x30A7 DUP3 DUP3 PUSH2 0x3472 JUMP JUMPDEST PUSH2 0x1A0C PUSH1 0xD PUSH2 0x1C62 DUP4 PUSH2 0x2915 JUMP JUMPDEST PUSH1 0x0 PUSH2 0xA7C PUSH1 0x8 SLOAD SWAP1 JUMP JUMPDEST DUP2 SLOAD PUSH1 0x0 SWAP1 DUP2 SUB PUSH2 0x30D3 JUMPI POP PUSH1 0x0 PUSH2 0x91B JUMP JUMPDEST DUP3 SLOAD PUSH1 0x0 SWAP1 JUMPDEST DUP1 DUP3 LT ISZERO PUSH2 0x312F JUMPI PUSH1 0x0 PUSH2 0x30ED DUP4 DUP4 PUSH2 0x3082 JUMP JUMPDEST SWAP1 POP DUP5 DUP7 DUP3 DUP2 SLOAD DUP2 LT PUSH2 0x3102 JUMPI PUSH2 0x3102 PUSH2 0x3954 JUMP JUMPDEST SWAP1 PUSH1 0x0 MSTORE PUSH1 0x20 PUSH1 0x0 KECCAK256 ADD SLOAD GT ISZERO PUSH2 0x311B JUMPI DUP1 SWAP2 POP PUSH2 0x3129 JUMP JUMPDEST PUSH2 0x3126 DUP2 PUSH1 0x1 PUSH2 0x3925 JUMP JUMPDEST SWAP3 POP JUMPDEST POP PUSH2 0x30D9 JUMP JUMPDEST PUSH1 0x0 DUP3 GT DUP1 ISZERO PUSH2 0x3164 JUMPI POP DUP4 DUP6 PUSH2 0x3147 PUSH1 0x1 DUP6 PUSH2 0x393D JUMP JUMPDEST DUP2 SLOAD DUP2 LT PUSH2 0x3157 JUMPI PUSH2 0x3157 PUSH2 0x3954 JUMP JUMPDEST SWAP1 PUSH1 0x0 MSTORE PUSH1 0x20 PUSH1 0x0 KECCAK256 ADD SLOAD EQ JUMPDEST ISZERO PUSH2 0x317D JUMPI PUSH2 0x3174 PUSH1 0x1 DUP4 PUSH2 0x393D JUMP JUMPDEST SWAP3 POP POP POP PUSH2 0x91B JUMP JUMPDEST POP SWAP1 POP PUSH2 0x91B JUMP JUMPDEST PUSH1 0x0 DUP1 PUSH32 0x7FFFFFFFFFFFFFFFFFFFFFFFFFFFFFFF5D576E7357A4501DDFE92F46681B20A0 DUP4 GT ISZERO PUSH2 0x31BC JUMPI POP PUSH1 0x0 SWAP1 POP PUSH1 0x3 PUSH2 0x3269 JUMP JUMPDEST DUP5 PUSH1 0xFF AND PUSH1 0x1B EQ ISZERO DUP1 ISZERO PUSH2 0x31D4 JUMPI POP DUP5 PUSH1 0xFF AND PUSH1 0x1C EQ ISZERO JUMPDEST ISZERO PUSH2 0x31E5 JUMPI POP PUSH1 0x0 SWAP1 POP PUSH1 0x4 PUSH2 0x3269 JUMP JUMPDEST PUSH1 0x40 DUP1 MLOAD PUSH1 0x0 DUP1 DUP3 MSTORE PUSH1 0x20 DUP3 ADD DUP1 DUP5 MSTORE DUP10 SWAP1 MSTORE PUSH1 0xFF DUP9 AND SWAP3 DUP3 ADD SWAP3 SWAP1 SWAP3 MSTORE PUSH1 0x60 DUP2 ADD DUP7 SWAP1 MSTORE PUSH1 0x80 DUP2 ADD DUP6 SWAP1 MSTORE PUSH1 0x1 SWAP1 PUSH1 0xA0 ADD PUSH1 0x20 PUSH1 0x40 MLOAD PUSH1 0x20 DUP2 SUB SWAP1 DUP1 DUP5 SUB SWAP1 DUP6 GAS STATICCALL ISZERO DUP1 ISZERO PUSH2 0x3239 JUMPI RETURNDATASIZE PUSH1 0x0 DUP1 RETURNDATACOPY RETURNDATASIZE PUSH1 0x0 REVERT JUMPDEST POP POP PUSH1 0x40 MLOAD PUSH1 0x1F NOT ADD MLOAD SWAP2 POP POP PUSH1 0x1 PUSH1 0x1 PUSH1 0xA0 SHL SUB DUP2 AND PUSH2 0x3262 JUMPI PUSH1 0x0 PUSH1 0x1 SWAP3 POP SWAP3 POP POP PUSH2 0x3269 JUMP JUMPDEST SWAP2 POP PUSH1 0x0 SWAP1 POP JUMPDEST SWAP5 POP SWAP5 SWAP3 POP POP POP JUMP JUMPDEST PUSH1 0x0 DUP2 PUSH1 0x4 DUP2 GT ISZERO PUSH2 0x3286 JUMPI PUSH2 0x3286 PUSH2 0x3A39 JUMP JUMPDEST SUB PUSH2 0x328E JUMPI POP JUMP JUMPDEST PUSH1 0x1 DUP2 PUSH1 0x4 DUP2 GT ISZERO PUSH2 0x32A2 JUMPI PUSH2 0x32A2 PUSH2 0x3A39 JUMP JUMPDEST SUB PUSH2 0x32EF JUMPI PUSH1 0x40 MLOAD PUSH3 0x461BCD PUSH1 0xE5 SHL DUP2 MSTORE PUSH1 0x20 PUSH1 0x4 DUP3 ADD MSTORE PUSH1 0x18 PUSH1 0x24 DUP3 ADD MSTORE PUSH32 0x45434453413A20696E76616C6964207369676E61747572650000000000000000 PUSH1 0x44 DUP3 ADD MSTORE PUSH1 0x64 ADD PUSH2 0x96F JUMP JUMPDEST PUSH1 0x2 DUP2 PUSH1 0x4 DUP2 GT ISZERO PUSH2 0x3303 JUMPI PUSH2 0x3303 PUSH2 0x3A39 JUMP JUMPDEST SUB PUSH2 0x3350 JUMPI PUSH1 0x40 MLOAD PUSH3 0x461BCD PUSH1 0xE5 SHL DUP2 MSTORE PUSH1 0x20 PUSH1 0x4 DUP3 ADD MSTORE PUSH1 0x1F PUSH1 0x24 DUP3 ADD MSTORE PUSH32 0x45434453413A20696E76616C6964207369676E6174757265206C656E67746800 PUSH1 0x44 DUP3 ADD MSTORE PUSH1 0x64 ADD PUSH2 0x96F JUMP JUMPDEST PUSH1 0x3 DUP2 PUSH1 0x4 DUP2 GT ISZERO PUSH2 0x3364 JUMPI PUSH2 0x3364 PUSH2 0x3A39 JUMP JUMPDEST SUB PUSH2 0x33BC JUMPI PUSH1 0x40 MLOAD PUSH3 0x461BCD PUSH1 0xE5 SHL DUP2 MSTORE PUSH1 0x20 PUSH1 0x4 DUP3 ADD MSTORE PUSH1 0x22 PUSH1 0x24 DUP3 ADD MSTORE PUSH32 0x45434453413A20696E76616C6964207369676E6174757265202773272076616C PUSH1 0x44 DUP3 ADD MSTORE PUSH2 0x7565 PUSH1 0xF0 SHL PUSH1 0x64 DUP3 ADD MSTORE PUSH1 0x84 ADD PUSH2 0x96F JUMP JUMPDEST PUSH1 0x4 DUP2 PUSH1 0x4 DUP2 GT ISZERO PUSH2 0x33D0 JUMPI PUSH2 0x33D0 PUSH2 0x3A39 JUMP JUMPDEST SUB PUSH2 0xC7F JUMPI PUSH1 0x40 MLOAD PUSH3 0x461BCD PUSH1 0xE5 SHL DUP2 MSTORE PUSH1 0x20 PUSH1 0x4 DUP3 ADD MSTORE PUSH1 0x22 PUSH1 0x24 DUP3 ADD MSTORE PUSH32 0x45434453413A20696E76616C6964207369676E6174757265202776272076616C PUSH1 0x44 DUP3 ADD MSTORE PUSH2 0x7565 PUSH1 0xF0 SHL PUSH1 0x64 DUP3 ADD MSTORE PUSH1 0x84 ADD PUSH2 0x96F JUMP JUMPDEST PUSH1 0x0 PUSH2 0x3432 PUSH2 0x30B5 JUMP JUMPDEST SWAP1 POP DUP1 PUSH2 0x343E DUP5 PUSH2 0x35D3 JUMP JUMPDEST LT ISZERO PUSH2 0x1C02 JUMPI DUP3 SLOAD PUSH1 0x1 DUP1 DUP3 ADD DUP6 SSTORE PUSH1 0x0 DUP6 DUP2 MSTORE PUSH1 0x20 DUP1 DUP3 KECCAK256 SWAP1 SWAP4 ADD SWAP4 SWAP1 SWAP4 SSTORE SWAP4 DUP5 ADD DUP1 SLOAD SWAP5 DUP6 ADD DUP2 SSTORE DUP3 MSTORE SWAP1 KECCAK256 SWAP1 SWAP2 ADD SSTORE JUMP JUMPDEST PUSH1 0x1 PUSH1 0x1 PUSH1 0xA0 SHL SUB DUP3 AND PUSH2 0x34D2 JUMPI PUSH1 0x40 MLOAD PUSH3 0x461BCD PUSH1 0xE5 SHL DUP2 MSTORE PUSH1 0x20 PUSH1 0x4 DUP3 ADD MSTORE PUSH1 0x21 PUSH1 0x24 DUP3 ADD MSTORE PUSH32 0x45524332303A206275726E2066726F6D20746865207A65726F20616464726573 PUSH1 0x44 DUP3 ADD MSTORE PUSH1 0x73 PUSH1 0xF8 SHL PUSH1 0x64 DUP3 ADD MSTORE PUSH1 0x84 ADD PUSH2 0x96F JUMP JUMPDEST PUSH2 0x34DE DUP3 PUSH1 0x0 DUP4 PUSH2 0x2A8E JUMP JUMPDEST PUSH1 0x1 PUSH1 0x1 PUSH1 0xA0 SHL SUB DUP3 AND PUSH1 0x0 SWAP1 DUP2 MSTORE PUSH1 0x20 DUP2 SWAP1 MSTORE PUSH1 0x40 SWAP1 KECCAK256 SLOAD DUP2 DUP2 LT ISZERO PUSH2 0x3552 JUMPI PUSH1 0x40 MLOAD PUSH3 0x461BCD PUSH1 0xE5 SHL DUP2 MSTORE PUSH1 0x20 PUSH1 0x4 DUP3 ADD MSTORE PUSH1 0x22 PUSH1 0x24 DUP3 ADD MSTORE PUSH32 0x45524332303A206275726E20616D6F756E7420657863656564732062616C616E PUSH1 0x44 DUP3 ADD MSTORE PUSH2 0x6365 PUSH1 0xF0 SHL PUSH1 0x64 DUP3 ADD MSTORE PUSH1 0x84 ADD PUSH2 0x96F JUMP JUMPDEST PUSH1 0x1 PUSH1 0x1 PUSH1 0xA0 SHL SUB DUP4 AND PUSH1 0x0 SWAP1 DUP2 MSTORE PUSH1 0x20 DUP2 SWAP1 MSTORE PUSH1 0x40 DUP2 KECCAK256 DUP4 DUP4 SUB SWAP1 SSTORE PUSH1 0x2 DUP1 SLOAD DUP5 SWAP3 SWAP1 PUSH2 0x3581 SWAP1 DUP5 SWAP1 PUSH2 0x393D JUMP JUMPDEST SWAP1 SWAP2 SSTORE POP POP PUSH1 0x40 MLOAD DUP3 DUP2 MSTORE PUSH1 0x0 SWAP1 PUSH1 0x1 PUSH1 0x1 PUSH1 0xA0 SHL SUB DUP6 AND SWAP1 PUSH32 0xDDF252AD1BE2C89B69C2B068FC378DAA952BA7F163C4A11628F55A4DF523B3EF SWAP1 PUSH1 0x20 ADD PUSH1 0x40 MLOAD DUP1 SWAP2 SUB SWAP1 LOG3 PUSH2 0x1C02 DUP4 PUSH1 0x0 DUP5 PUSH2 0x2A99 JUMP JUMPDEST DUP1 SLOAD PUSH1 0x0 SWAP1 DUP2 SUB PUSH2 0x35E6 JUMPI POP PUSH1 0x0 SWAP2 SWAP1 POP JUMP JUMPDEST DUP2 SLOAD DUP3 SWAP1 PUSH2 0x35F6 SWAP1 PUSH1 0x1 SWAP1 PUSH2 0x393D JUMP JUMPDEST DUP2 SLOAD DUP2 LT PUSH2 0x3606 JUMPI PUSH2 0x3606 PUSH2 0x3954 JUMP JUMPDEST SWAP1 PUSH1 0x0 MSTORE PUSH1 0x20 PUSH1 0x0 KECCAK256 ADD SLOAD SWAP1 POP SWAP2 SWAP1 POP JUMP JUMPDEST SWAP2 SWAP1 POP JUMP JUMPDEST PUSH1 0x0 PUSH1 0x20 DUP1 DUP4 MSTORE DUP4 MLOAD DUP1 DUP3 DUP6 ADD MSTORE PUSH1 0x0 JUMPDEST DUP2 DUP2 LT ISZERO PUSH2 0x364A JUMPI DUP6 DUP2 ADD DUP4 ADD MLOAD DUP6 DUP3 ADD PUSH1 0x40 ADD MSTORE DUP3 ADD PUSH2 0x362E JUMP JUMPDEST DUP2 DUP2 GT ISZERO PUSH2 0x365C JUMPI PUSH1 0x0 PUSH1 0x40 DUP4 DUP8 ADD ADD MSTORE JUMPDEST POP PUSH1 0x1F ADD PUSH1 0x1F NOT AND SWAP3 SWAP1 SWAP3 ADD PUSH1 0x40 ADD SWAP4 SWAP3 POP POP POP JUMP JUMPDEST PUSH1 0x1 PUSH1 0x1 PUSH1 0xA0 SHL SUB DUP2 AND DUP2 EQ PUSH2 0xC7F JUMPI PUSH1 0x0 DUP1 REVERT JUMPDEST PUSH1 0x0 DUP1 PUSH1 0x40 DUP4 DUP6 SUB SLT ISZERO PUSH2 0x369A JUMPI PUSH1 0x0 DUP1 REVERT JUMPDEST DUP3 CALLDATALOAD PUSH2 0x36A5 DUP2 PUSH2 0x3672 JUMP JUMPDEST SWAP5 PUSH1 0x20 SWAP4 SWAP1 SWAP4 ADD CALLDATALOAD SWAP4 POP POP POP JUMP JUMPDEST PUSH1 0x0 DUP1 PUSH1 0x0 PUSH1 0x60 DUP5 DUP7 SUB SLT ISZERO PUSH2 0x36C8 JUMPI PUSH1 0x0 DUP1 REVERT JUMPDEST DUP4 CALLDATALOAD PUSH2 0x36D3 DUP2 PUSH2 0x3672 JUMP JUMPDEST SWAP3 POP PUSH1 0x20 DUP5 ADD CALLDATALOAD PUSH2 0x36E3 DUP2 PUSH2 0x3672 JUMP JUMPDEST SWAP3 SWAP6 SWAP3 SWAP5 POP POP POP PUSH1 0x40 SWAP2 SWAP1 SWAP2 ADD CALLDATALOAD SWAP1 JUMP JUMPDEST PUSH1 0x0 DUP1 PUSH1 0x40 DUP4 DUP6 SUB SLT ISZERO PUSH2 0x3707 JUMPI PUSH1 0x0 DUP1 REVERT JUMPDEST DUP3 CALLDATALOAD PUSH2 0x3712 DUP2 PUSH2 0x3672 JUMP JUMPDEST SWAP2 POP PUSH1 0x20 DUP4 ADD CALLDATALOAD DUP1 ISZERO ISZERO DUP2 EQ PUSH2 0x3727 JUMPI PUSH1 0x0 DUP1 REVERT JUMPDEST DUP1 SWAP2 POP POP SWAP3 POP SWAP3 SWAP1 POP JUMP JUMPDEST PUSH1 0x0 PUSH1 0x20 DUP3 DUP5 SUB SLT ISZERO PUSH2 0x3744 JUMPI PUSH1 0x0 DUP1 REVERT JUMPDEST POP CALLDATALOAD SWAP2 SWAP1 POP JUMP JUMPDEST PUSH1 0x0 PUSH1 0x20 DUP3 DUP5 SUB SLT ISZERO PUSH2 0x375D JUMPI PUSH1 0x0 DUP1 REVERT JUMPDEST DUP2 CALLDATALOAD PUSH2 0xBFE DUP2 PUSH2 0x3672 JUMP JUMPDEST DUP1 CALLDATALOAD PUSH1 0xFF DUP2 AND DUP2 EQ PUSH2 0x3618 JUMPI PUSH1 0x0 DUP1 REVERT JUMPDEST PUSH1 0x0 DUP1 PUSH1 0x0 DUP1 PUSH1 0x0 DUP1 PUSH1 0xC0 DUP8 DUP10 SUB SLT ISZERO PUSH2 0x3792 JUMPI PUSH1 0x0 DUP1 REVERT JUMPDEST DUP7 CALLDATALOAD PUSH2 0x379D DUP2 PUSH2 0x3672 JUMP JUMPDEST SWAP6 POP PUSH1 0x20 DUP8 ADD CALLDATALOAD SWAP5 POP PUSH1 0x40 DUP8 ADD CALLDATALOAD SWAP4 POP PUSH2 0x37B9 PUSH1 0x60 DUP9 ADD PUSH2 0x3768 JUMP JUMPDEST SWAP3 POP PUSH1 0x80 DUP8 ADD CALLDATALOAD SWAP2 POP PUSH1 0xA0 DUP8 ADD CALLDATALOAD SWAP1 POP SWAP3 SWAP6 POP SWAP3 SWAP6 POP SWAP3 SWAP6 JUMP JUMPDEST PUSH1 0x0 DUP1 PUSH1 0x0 DUP1 PUSH1 0x0 DUP1 PUSH1 0x0 PUSH1 0xE0 DUP9 DUP11 SUB SLT ISZERO PUSH2 0x37EE JUMPI PUSH1 0x0 DUP1 REVERT JUMPDEST DUP8 CALLDATALOAD PUSH2 0x37F9 DUP2 PUSH2 0x3672 JUMP JUMPDEST SWAP7 POP PUSH1 0x20 DUP9 ADD CALLDATALOAD PUSH2 0x3809 DUP2 PUSH2 0x3672 JUMP JUMPDEST SWAP6 POP PUSH1 0x40 DUP9 ADD CALLDATALOAD SWAP5 POP PUSH1 0x60 DUP9 ADD CALLDATALOAD SWAP4 POP PUSH2 0x3825 PUSH1 0x80 DUP10 ADD PUSH2 0x3768 JUMP JUMPDEST SWAP3 POP PUSH1 0xA0 DUP9 ADD CALLDATALOAD SWAP2 POP PUSH1 0xC0 DUP9 ADD CALLDATALOAD SWAP1 POP SWAP3 SWAP6 SWAP9 SWAP2 SWAP5 SWAP8 POP SWAP3 SWAP6 POP JUMP JUMPDEST PUSH1 0x0 DUP1 PUSH1 0x40 DUP4 DUP6 SUB SLT ISZERO PUSH2 0x3854 JUMPI PUSH1 0x0 DUP1 REVERT JUMPDEST DUP3 CALLDATALOAD PUSH2 0x385F DUP2 PUSH2 0x3672 JUMP JUMPDEST SWAP2 POP PUSH1 0x20 DUP4 ADD CALLDATALOAD PUSH2 0x3727 DUP2 PUSH2 0x3672 JUMP JUMPDEST PUSH1 0x0 DUP1 PUSH1 0x40 DUP4 DUP6 SUB SLT ISZERO PUSH2 0x3882 JUMPI PUSH1 0x0 DUP1 REVERT JUMPDEST DUP3 CALLDATALOAD PUSH2 0x388D DUP2 PUSH2 0x3672 JUMP JUMPDEST SWAP2 POP PUSH1 0x20 DUP4 ADD CALLDATALOAD PUSH4 0xFFFFFFFF DUP2 AND DUP2 EQ PUSH2 0x3727 JUMPI PUSH1 0x0 DUP1 REVERT JUMPDEST PUSH1 0x1 DUP2 DUP2 SHR SWAP1 DUP3 AND DUP1 PUSH2 0x38BA JUMPI PUSH1 0x7F DUP3 AND SWAP2 POP JUMPDEST PUSH1 0x20 DUP3 LT DUP2 SUB PUSH2 0x290F JUMPI PUSH4 0x4E487B71 PUSH1 0xE0 SHL PUSH1 0x0 MSTORE PUSH1 0x22 PUSH1 0x4 MSTORE PUSH1 0x24 PUSH1 0x0 REVERT JUMPDEST PUSH1 0x20 DUP1 DUP3 MSTORE DUP2 DUP2 ADD MSTORE PUSH32 0x4F776E61626C653A2063616C6C6572206973206E6F7420746865206F776E6572 PUSH1 0x40 DUP3 ADD MSTORE PUSH1 0x60 ADD SWAP1 JUMP JUMPDEST PUSH4 0x4E487B71 PUSH1 0xE0 SHL PUSH1 0x0 MSTORE PUSH1 0x11 PUSH1 0x4 MSTORE PUSH1 0x24 PUSH1 0x0 REVERT JUMPDEST PUSH1 0x0 DUP3 NOT DUP3 GT ISZERO PUSH2 0x3938 JUMPI PUSH2 0x3938 PUSH2 0x390F JUMP JUMPDEST POP ADD SWAP1 JUMP JUMPDEST PUSH1 0x0 DUP3 DUP3 LT ISZERO PUSH2 0x394F JUMPI PUSH2 0x394F PUSH2 0x390F JUMP JUMPDEST POP SUB SWAP1 JUMP JUMPDEST PUSH4 0x4E487B71 PUSH1 0xE0 SHL PUSH1 0x0 MSTORE PUSH1 0x32 PUSH1 0x4 MSTORE PUSH1 0x24 PUSH1 0x0 REVERT JUMPDEST PUSH1 0x0 DUP2 PUSH1 0x0 NOT DIV DUP4 GT DUP3 ISZERO ISZERO AND ISZERO PUSH2 0x3984 JUMPI PUSH2 0x3984 PUSH2 0x390F JUMP JUMPDEST POP MUL SWAP1 JUMP JUMPDEST PUSH1 0x0 DUP3 PUSH2 0x39A6 JUMPI PUSH4 0x4E487B71 PUSH1 0xE0 SHL PUSH1 0x0 MSTORE PUSH1 0x12 PUSH1 0x4 MSTORE PUSH1 0x24 PUSH1 0x0 REVERT JUMPDEST POP DIV SWAP1 JUMP JUMPDEST PUSH1 0x0 PUSH1 0x20 DUP3 DUP5 SUB SLT ISZERO PUSH2 0x39BD JUMPI PUSH1 0x0 DUP1 REVERT JUMPDEST DUP2 MLOAD PUSH2 0xBFE DUP2 PUSH2 0x3672 JUMP JUMPDEST PUSH1 0x0 PUSH1 0xA0 DUP3 ADD DUP8 DUP4 MSTORE PUSH1 0x20 DUP8 DUP2 DUP6 ADD MSTORE PUSH1 0xA0 PUSH1 0x40 DUP6 ADD MSTORE DUP2 DUP8 MLOAD DUP1 DUP5 MSTORE PUSH1 0xC0 DUP7 ADD SWAP2 POP DUP3 DUP10 ADD SWAP4 POP PUSH1 0x0 JUMPDEST DUP2 DUP2 LT ISZERO PUSH2 0x3A18 JUMPI DUP5 MLOAD PUSH1 0x1 PUSH1 0x1 PUSH1 0xA0 SHL SUB AND DUP4 MSTORE SWAP4 DUP4 ADD SWAP4 SWAP2 DUP4 ADD SWAP2 PUSH1 0x1 ADD PUSH2 0x39F3 JUMP JUMPDEST POP POP PUSH1 0x1 PUSH1 0x1 PUSH1 0xA0 SHL SUB SWAP7 SWAP1 SWAP7 AND PUSH1 0x60 DUP6 ADD MSTORE POP POP POP PUSH1 0x80 ADD MSTORE SWAP4 SWAP3 POP POP POP JUMP JUMPDEST PUSH4 0x4E487B71 PUSH1 0xE0 SHL PUSH1 0x0 MSTORE PUSH1 0x21 PUSH1 0x4 MSTORE PUSH1 0x24 PUSH1 0x0 REVERT INVALID LOG2 PUSH5 0x6970667358 0x22 SLT KECCAK256 MUL 0xEB DUP2 PUSH28 0x37F6588A814DAD941313E8C1BF1F9F6108F83D48B1C2F03461F4825B PUSH5 0x736F6C6343 STOP ADDMOD 0xD STOP CALLER 0xDE 0xC2 0xBA 0xCD 0xD2 CREATE JUMPDEST MSIZE 0xDE CALLVALUE 0xDA SWAP12 MSTORE RETURNDATASIZE SELFDESTRUCT DUP12 0xE4 0x2E 0x5E CODESIZE 0xE8 XOR 0xC8 0x2F 0xDB SIGNEXTEND 0xAE PUSH24 0x4387A7240000000000000000000000000000000000000000 "
		},
		"gasEstimates": {
			"creation": {
				"codeDepositCost": "2996200",
				"executionCost": "infinite",
				"totalCost": "infinite"
			},
			"external": {
				"DOMAIN_SEPARATOR()": "infinite",
				"allowance(address,address)": "infinite",
				"approve(address,uint256)": "24691",
				"automatedMarketMakerPairs(address)": "2636",
				"balanceOf(address)": "2601",
				"balanceOfAt(address,uint256)": "infinite",
				"blacklist(address)": "2635",
				"blacklistAccount(address,bool)": "26897",
				"burn(uint256)": "infinite",
				"burnFrom(address,uint256)": "infinite",
				"buyFee()": "2385",
				"buyFeeEnabled()": "2412",
				"checkpoints(address,uint32)": "5148",
				"decimals()": "268",
				"decreaseAllowance(address,uint256)": "27028",
				"delegate(address)": "infinite",
				"delegateBySig(address,uint256,uint256,uint8,bytes32,bytes32)": "infinite",
				"delegates(address)": "2651",
				"disableBuyFee()": "29538",
				"disableSellFee()": "29494",
				"disableTransferFee()": "29499",
				"enableBuyFee()": "29481",
				"enableSellFee()": "29526",
				"enableTrading()": "48726",
				"enableTransferFee()": "29480",
				"excludeFromFees(address,bool)": "28243",
				"excludedFromFees(address)": "2632",
				"feeNativeReceiver()": "2469",
				"getPastTotalSupply(uint256)": "infinite",
				"getPastVotes(address,uint256)": "7251",
				"getVotes(address)": "7185",
				"increaseAllowance(address,uint256)": "27055",
				"lastSwapTime()": "2409",
				"modifyBuyFee(uint256)": "28059",
				"modifySellFee(uint256)": "27995",
				"modifySwapTokensAmount(uint256)": "27984",
				"name()": "infinite",
				"nonces(address)": "2698",
				"numCheckpoints(address)": "2798",
				"owner()": "2399",
				"permit(address,address,uint256,uint256,uint8,bytes32,bytes32)": "infinite",
				"renounceOwnership()": "28206",
				"sellFee()": "2430",
				"sellFeeEnabled()": "2409",
				"setAutomatedMarketMakerPair(address,bool)": "infinite",
				"setFeeReceiver(address)": "26807",
				"snapshot()": "29915",
				"swapTokensAtAmount()": "2428",
				"symbol()": "infinite",
				"tokensForFees()": "2386",
				"totalSupply()": "2383",
				"totalSupplyAt(uint256)": "infinite",
				"tradingActive()": "2443",
				"transfer(address,uint256)": "infinite",
				"transferFeesEnabled()": "2410",
				"transferFrom(address,address,uint256)": "infinite",
				"transferOwnership(address)": "infinite",
				"uniswapV2Pair()": "infinite",
				"uniswapV2Router()": "infinite"
			},
			"internal": {
				"_afterTokenTransfer(address,address,uint256)": "infinite",
				"_beforeTokenTransfer(address,address,uint256)": "infinite",
				"_burn(address,uint256)": "infinite",
				"_executeSwap()": "infinite",
				"_mint(address,uint256)": "infinite",
				"_setAutomatedMarketMakerPair(address,bool)": "25872",
				"_transfer(address,address,uint256)": "infinite"
			}
		},
		"methodIdentifiers": {
			"DOMAIN_SEPARATOR()": "3644e515",
			"allowance(address,address)": "dd62ed3e",
			"approve(address,uint256)": "095ea7b3",
			"automatedMarketMakerPairs(address)": "b62496f5",
			"balanceOf(address)": "70a08231",
			"balanceOfAt(address,uint256)": "4ee2cd7e",
			"blacklist(address)": "f9f92be4",
			"blacklistAccount(address,bool)": "2d5a5d34",
			"burn(uint256)": "42966c68",
			"burnFrom(address,uint256)": "79cc6790",
			"buyFee()": "47062402",
			"buyFeeEnabled()": "871d0719",
			"checkpoints(address,uint32)": "f1127ed8",
			"decimals()": "313ce567",
			"decreaseAllowance(address,uint256)": "a457c2d7",
			"delegate(address)": "5c19a95c",
			"delegateBySig(address,uint256,uint256,uint8,bytes32,bytes32)": "c3cda520",
			"delegates(address)": "587cde1e",
			"disableBuyFee()": "4c7d5656",
			"disableSellFee()": "3746391b",
			"disableTransferFee()": "aba7e64f",
			"enableBuyFee()": "4546ff49",
			"enableSellFee()": "334b5f99",
			"enableTrading()": "8a8c523c",
			"enableTransferFee()": "dac1dcfe",
			"excludeFromFees(address,bool)": "c0246668",
			"excludedFromFees(address)": "dbe66ca0",
			"feeNativeReceiver()": "ffb896ef",
			"getPastTotalSupply(uint256)": "8e539e8c",
			"getPastVotes(address,uint256)": "3a46b1a8",
			"getVotes(address)": "9ab24eb0",
			"increaseAllowance(address,uint256)": "39509351",
			"lastSwapTime()": "0dd87157",
			"modifyBuyFee(uint256)": "f1be9915",
			"modifySellFee(uint256)": "84a372b8",
			"modifySwapTokensAmount(uint256)": "3eda67cd",
			"name()": "06fdde03",
			"nonces(address)": "7ecebe00",
			"numCheckpoints(address)": "6fcfff45",
			"owner()": "8da5cb5b",
			"permit(address,address,uint256,uint256,uint8,bytes32,bytes32)": "d505accf",
			"renounceOwnership()": "715018a6",
			"sellFee()": "2b14ca56",
			"sellFeeEnabled()": "f356cf90",
			"setAutomatedMarketMakerPair(address,bool)": "9a7a23d6",
			"setFeeReceiver(address)": "efdcd974",
			"snapshot()": "9711715a",
			"swapTokensAtAmount()": "e2f45605",
			"symbol()": "95d89b41",
			"tokensForFees()": "3f8a6204",
			"totalSupply()": "18160ddd",
			"totalSupplyAt(uint256)": "981b24d0",
			"tradingActive()": "bbc0c742",
			"transfer(address,uint256)": "a9059cbb",
			"transferFeesEnabled()": "effb3c53",
			"transferFrom(address,address,uint256)": "23b872dd",
			"transferOwnership(address)": "f2fde38b",
			"uniswapV2Pair()": "49bd5a5e",
			"uniswapV2Router()": "1694505e"
		}
	},
	"abi": [
		{
			"inputs": [
				{
					"internalType": "address",
					"name": "_feeNativeReceiver",
					"type": "address"
				}
			],
			"stateMutability": "nonpayable",
			"type": "constructor"
		},
		{
			"anonymous": false,
			"inputs": [
				{
					"indexed": true,
					"internalType": "address",
					"name": "owner",
					"type": "address"
				},
				{
					"indexed": true,
					"internalType": "address",
					"name": "spender",
					"type": "address"
				},
				{
					"indexed": false,
					"internalType": "uint256",
					"name": "value",
					"type": "uint256"
				}
			],
			"name": "Approval",
			"type": "event"
		},
		{
			"anonymous": false,
			"inputs": [
				{
					"indexed": true,
					"internalType": "address",
					"name": "sniper",
					"type": "address"
				}
			],
			"name": "BoughtEarly",
			"type": "event"
		},
		{
			"anonymous": false,
			"inputs": [],
			"name": "BuyFeeDisabled",
			"type": "event"
		},
		{
			"anonymous": false,
			"inputs": [],
			"name": "BuyFeeEnabled",
			"type": "event"
		},
		{
			"anonymous": false,
			"inputs": [
				{
					"indexed": true,
					"internalType": "address",
					"name": "delegator",
					"type": "address"
				},
				{
					"indexed": true,
					"internalType": "address",
					"name": "fromDelegate",
					"type": "address"
				},
				{
					"indexed": true,
					"internalType": "address",
					"name": "toDelegate",
					"type": "address"
				}
			],
			"name": "DelegateChanged",
			"type": "event"
		},
		{
			"anonymous": false,
			"inputs": [
				{
					"indexed": true,
					"internalType": "address",
					"name": "delegate",
					"type": "address"
				},
				{
					"indexed": false,
					"internalType": "uint256",
					"name": "previousBalance",
					"type": "uint256"
				},
				{
					"indexed": false,
					"internalType": "uint256",
					"name": "newBalance",
					"type": "uint256"
				}
			],
			"name": "DelegateVotesChanged",
			"type": "event"
		},
		{
			"anonymous": false,
			"inputs": [
				{
					"indexed": false,
					"internalType": "address",
					"name": "account",
					"type": "address"
				},
				{
					"indexed": false,
					"internalType": "bool",
					"name": "excluded",
					"type": "bool"
				}
			],
			"name": "ExcludedFromFees",
			"type": "event"
		},
		{
			"anonymous": false,
			"inputs": [
				{
					"indexed": false,
					"internalType": "uint256",
					"name": "oldAmount",
					"type": "uint256"
				},
				{
					"indexed": false,
					"internalType": "uint256",
					"name": "newAmount",
					"type": "uint256"
				}
			],
			"name": "ModifiedBuyFee",
			"type": "event"
		},
		{
			"anonymous": false,
			"inputs": [
				{
					"indexed": false,
					"internalType": "uint256",
					"name": "oldAmount",
					"type": "uint256"
				},
				{
					"indexed": false,
					"internalType": "uint256",
					"name": "newAmount",
					"type": "uint256"
				}
			],
			"name": "ModifiedSellFee",
			"type": "event"
		},
		{
			"anonymous": false,
			"inputs": [
				{
					"indexed": false,
					"internalType": "uint256",
					"name": "oldAmount",
					"type": "uint256"
				},
				{
					"indexed": false,
					"internalType": "uint256",
					"name": "newAmount",
					"type": "uint256"
				}
			],
			"name": "ModifiedSwapTokensAtAmount",
			"type": "event"
		},
		{
			"anonymous": false,
			"inputs": [
				{
					"indexed": true,
					"internalType": "address",
					"name": "previousOwner",
					"type": "address"
				},
				{
					"indexed": true,
					"internalType": "address",
					"name": "newOwner",
					"type": "address"
				}
			],
			"name": "OwnershipTransferred",
			"type": "event"
		},
		{
			"anonymous": false,
			"inputs": [],
			"name": "SellFeeDisabled",
			"type": "event"
		},
		{
			"anonymous": false,
			"inputs": [],
			"name": "SellFeeEnabled",
			"type": "event"
		},
		{
			"anonymous": false,
			"inputs": [
				{
					"indexed": true,
					"internalType": "address",
					"name": "pair",
					"type": "address"
				},
				{
					"indexed": true,
					"internalType": "bool",
					"name": "value",
					"type": "bool"
				}
			],
			"name": "SetAutomatedMarketMakerPair",
			"type": "event"
		},
		{
			"anonymous": false,
			"inputs": [
				{
					"indexed": false,
					"internalType": "uint256",
					"name": "id",
					"type": "uint256"
				}
			],
			"name": "Snapshot",
			"type": "event"
		},
		{
			"anonymous": false,
			"inputs": [
				{
					"indexed": false,
					"internalType": "address",
					"name": "recipient",
					"type": "address"
				}
			],
			"name": "TaxesSwappedForNative",
			"type": "event"
		},
		{
			"anonymous": false,
			"inputs": [
				{
					"indexed": true,
					"internalType": "address",
					"name": "from",
					"type": "address"
				},
				{
					"indexed": true,
					"internalType": "address",
					"name": "to",
					"type": "address"
				},
				{
					"indexed": false,
					"internalType": "uint256",
					"name": "value",
					"type": "uint256"
				}
			],
			"name": "Transfer",
			"type": "event"
		},
		{
			"anonymous": false,
			"inputs": [],
			"name": "TransferFeeDisabled",
			"type": "event"
		},
		{
			"anonymous": false,
			"inputs": [],
			"name": "TransferFeeEnabled",
			"type": "event"
		},
		{
			"inputs": [],
			"name": "DOMAIN_SEPARATOR",
			"outputs": [
				{
					"internalType": "bytes32",
					"name": "",
					"type": "bytes32"
				}
			],
			"stateMutability": "view",
			"type": "function"
		},
		{
			"inputs": [
				{
					"internalType": "address",
					"name": "owner",
					"type": "address"
				},
				{
					"internalType": "address",
					"name": "spender",
					"type": "address"
				}
			],
			"name": "allowance",
			"outputs": [
				{
					"internalType": "uint256",
					"name": "",
					"type": "uint256"
				}
			],
			"stateMutability": "view",
			"type": "function"
		},
		{
			"inputs": [
				{
					"internalType": "address",
					"name": "spender",
					"type": "address"
				},
				{
					"internalType": "uint256",
					"name": "amount",
					"type": "uint256"
				}
			],
			"name": "approve",
			"outputs": [
				{
					"internalType": "bool",
					"name": "",
					"type": "bool"
				}
			],
			"stateMutability": "nonpayable",
			"type": "function"
		},
		{
			"inputs": [
				{
					"internalType": "address",
					"name": "",
					"type": "address"
				}
			],
			"name": "automatedMarketMakerPairs",
			"outputs": [
				{
					"internalType": "bool",
					"name": "",
					"type": "bool"
				}
			],
			"stateMutability": "view",
			"type": "function"
		},
		{
			"inputs": [
				{
					"internalType": "address",
					"name": "account",
					"type": "address"
				}
			],
			"name": "balanceOf",
			"outputs": [
				{
					"internalType": "uint256",
					"name": "",
					"type": "uint256"
				}
			],
			"stateMutability": "view",
			"type": "function"
		},
		{
			"inputs": [
				{
					"internalType": "address",
					"name": "account",
					"type": "address"
				},
				{
					"internalType": "uint256",
					"name": "snapshotId",
					"type": "uint256"
				}
			],
			"name": "balanceOfAt",
			"outputs": [
				{
					"internalType": "uint256",
					"name": "",
					"type": "uint256"
				}
			],
			"stateMutability": "view",
			"type": "function"
		},
		{
			"inputs": [
				{
					"internalType": "address",
					"name": "",
					"type": "address"
				}
			],
			"name": "blacklist",
			"outputs": [
				{
					"internalType": "bool",
					"name": "",
					"type": "bool"
				}
			],
			"stateMutability": "view",
			"type": "function"
		},
		{
			"inputs": [
				{
					"internalType": "address",
					"name": "account",
					"type": "address"
				},
				{
					"internalType": "bool",
					"name": "isBlacklisted",
					"type": "bool"
				}
			],
			"name": "blacklistAccount",
			"outputs": [],
			"stateMutability": "nonpayable",
			"type": "function"
		},
		{
			"inputs": [
				{
					"internalType": "uint256",
					"name": "amount",
					"type": "uint256"
				}
			],
			"name": "burn",
			"outputs": [],
			"stateMutability": "nonpayable",
			"type": "function"
		},
		{
			"inputs": [
				{
					"internalType": "address",
					"name": "account",
					"type": "address"
				},
				{
					"internalType": "uint256",
					"name": "amount",
					"type": "uint256"
				}
			],
			"name": "burnFrom",
			"outputs": [],
			"stateMutability": "nonpayable",
			"type": "function"
		},
		{
			"inputs": [],
			"name": "buyFee",
			"outputs": [
				{
					"internalType": "uint256",
					"name": "",
					"type": "uint256"
				}
			],
			"stateMutability": "view",
			"type": "function"
		},
		{
			"inputs": [],
			"name": "buyFeeEnabled",
			"outputs": [
				{
					"internalType": "bool",
					"name": "",
					"type": "bool"
				}
			],
			"stateMutability": "view",
			"type": "function"
		},
		{
			"inputs": [
				{
					"internalType": "address",
					"name": "account",
					"type": "address"
				},
				{
					"internalType": "uint32",
					"name": "pos",
					"type": "uint32"
				}
			],
			"name": "checkpoints",
			"outputs": [
				{
					"components": [
						{
							"internalType": "uint32",
							"name": "fromBlock",
							"type": "uint32"
						},
						{
							"internalType": "uint224",
							"name": "votes",
							"type": "uint224"
						}
					],
					"internalType": "struct ERC20Votes.Checkpoint",
					"name": "",
					"type": "tuple"
				}
			],
			"stateMutability": "view",
			"type": "function"
		},
		{
			"inputs": [],
			"name": "decimals",
			"outputs": [
				{
					"internalType": "uint8",
					"name": "",
					"type": "uint8"
				}
			],
			"stateMutability": "view",
			"type": "function"
		},
		{
			"inputs": [
				{
					"internalType": "address",
					"name": "spender",
					"type": "address"
				},
				{
					"internalType": "uint256",
					"name": "subtractedValue",
					"type": "uint256"
				}
			],
			"name": "decreaseAllowance",
			"outputs": [
				{
					"internalType": "bool",
					"name": "",
					"type": "bool"
				}
			],
			"stateMutability": "nonpayable",
			"type": "function"
		},
		{
			"inputs": [
				{
					"internalType": "address",
					"name": "delegatee",
					"type": "address"
				}
			],
			"name": "delegate",
			"outputs": [],
			"stateMutability": "nonpayable",
			"type": "function"
		},
		{
			"inputs": [
				{
					"internalType": "address",
					"name": "delegatee",
					"type": "address"
				},
				{
					"internalType": "uint256",
					"name": "nonce",
					"type": "uint256"
				},
				{
					"internalType": "uint256",
					"name": "expiry",
					"type": "uint256"
				},
				{
					"internalType": "uint8",
					"name": "v",
					"type": "uint8"
				},
				{
					"internalType": "bytes32",
					"name": "r",
					"type": "bytes32"
				},
				{
					"internalType": "bytes32",
					"name": "s",
					"type": "bytes32"
				}
			],
			"name": "delegateBySig",
			"outputs": [],
			"stateMutability": "nonpayable",
			"type": "function"
		},
		{
			"inputs": [
				{
					"internalType": "address",
					"name": "account",
					"type": "address"
				}
			],
			"name": "delegates",
			"outputs": [
				{
					"internalType": "address",
					"name": "",
					"type": "address"
				}
			],
			"stateMutability": "view",
			"type": "function"
		},
		{
			"inputs": [],
			"name": "disableBuyFee",
			"outputs": [],
			"stateMutability": "nonpayable",
			"type": "function"
		},
		{
			"inputs": [],
			"name": "disableSellFee",
			"outputs": [],
			"stateMutability": "nonpayable",
			"type": "function"
		},
		{
			"inputs": [],
			"name": "disableTransferFee",
			"outputs": [],
			"stateMutability": "nonpayable",
			"type": "function"
		},
		{
			"inputs": [],
			"name": "enableBuyFee",
			"outputs": [],
			"stateMutability": "nonpayable",
			"type": "function"
		},
		{
			"inputs": [],
			"name": "enableSellFee",
			"outputs": [],
			"stateMutability": "nonpayable",
			"type": "function"
		},
		{
			"inputs": [],
			"name": "enableTrading",
			"outputs": [],
			"stateMutability": "nonpayable",
			"type": "function"
		},
		{
			"inputs": [],
			"name": "enableTransferFee",
			"outputs": [],
			"stateMutability": "nonpayable",
			"type": "function"
		},
		{
			"inputs": [
				{
					"internalType": "address",
					"name": "account",
					"type": "address"
				},
				{
					"internalType": "bool",
					"name": "excluded",
					"type": "bool"
				}
			],
			"name": "excludeFromFees",
			"outputs": [],
			"stateMutability": "nonpayable",
			"type": "function"
		},
		{
			"inputs": [
				{
					"internalType": "address",
					"name": "account",
					"type": "address"
				}
			],
			"name": "excludedFromFees",
			"outputs": [
				{
					"internalType": "bool",
					"name": "",
					"type": "bool"
				}
			],
			"stateMutability": "view",
			"type": "function"
		},
		{
			"inputs": [],
			"name": "feeNativeReceiver",
			"outputs": [
				{
					"internalType": "address",
					"name": "",
					"type": "address"
				}
			],
			"stateMutability": "view",
			"type": "function"
		},
		{
			"inputs": [
				{
					"internalType": "uint256",
					"name": "blockNumber",
					"type": "uint256"
				}
			],
			"name": "getPastTotalSupply",
			"outputs": [
				{
					"internalType": "uint256",
					"name": "",
					"type": "uint256"
				}
			],
			"stateMutability": "view",
			"type": "function"
		},
		{
			"inputs": [
				{
					"internalType": "address",
					"name": "account",
					"type": "address"
				},
				{
					"internalType": "uint256",
					"name": "blockNumber",
					"type": "uint256"
				}
			],
			"name": "getPastVotes",
			"outputs": [
				{
					"internalType": "uint256",
					"name": "",
					"type": "uint256"
				}
			],
			"stateMutability": "view",
			"type": "function"
		},
		{
			"inputs": [
				{
					"internalType": "address",
					"name": "account",
					"type": "address"
				}
			],
			"name": "getVotes",
			"outputs": [
				{
					"internalType": "uint256",
					"name": "",
					"type": "uint256"
				}
			],
			"stateMutability": "view",
			"type": "function"
		},
		{
			"inputs": [
				{
					"internalType": "address",
					"name": "spender",
					"type": "address"
				},
				{
					"internalType": "uint256",
					"name": "addedValue",
					"type": "uint256"
				}
			],
			"name": "increaseAllowance",
			"outputs": [
				{
					"internalType": "bool",
					"name": "",
					"type": "bool"
				}
			],
			"stateMutability": "nonpayable",
			"type": "function"
		},
		{
			"inputs": [],
			"name": "lastSwapTime",
			"outputs": [
				{
					"internalType": "uint256",
					"name": "",
					"type": "uint256"
				}
			],
			"stateMutability": "view",
			"type": "function"
		},
		{
			"inputs": [
				{
					"internalType": "uint256",
					"name": "newAmount",
					"type": "uint256"
				}
			],
			"name": "modifyBuyFee",
			"outputs": [],
			"stateMutability": "nonpayable",
			"type": "function"
		},
		{
			"inputs": [
				{
					"internalType": "uint256",
					"name": "newAmount",
					"type": "uint256"
				}
			],
			"name": "modifySellFee",
			"outputs": [],
			"stateMutability": "nonpayable",
			"type": "function"
		},
		{
			"inputs": [
				{
					"internalType": "uint256",
					"name": "newAmount",
					"type": "uint256"
				}
			],
			"name": "modifySwapTokensAmount",
			"outputs": [],
			"stateMutability": "nonpayable",
			"type": "function"
		},
		{
			"inputs": [],
			"name": "name",
			"outputs": [
				{
					"internalType": "string",
					"name": "",
					"type": "string"
				}
			],
			"stateMutability": "view",
			"type": "function"
		},
		{
			"inputs": [
				{
					"internalType": "address",
					"name": "owner",
					"type": "address"
				}
			],
			"name": "nonces",
			"outputs": [
				{
					"internalType": "uint256",
					"name": "",
					"type": "uint256"
				}
			],
			"stateMutability": "view",
			"type": "function"
		},
		{
			"inputs": [
				{
					"internalType": "address",
					"name": "account",
					"type": "address"
				}
			],
			"name": "numCheckpoints",
			"outputs": [
				{
					"internalType": "uint32",
					"name": "",
					"type": "uint32"
				}
			],
			"stateMutability": "view",
			"type": "function"
		},
		{
			"inputs": [],
			"name": "owner",
			"outputs": [
				{
					"internalType": "address",
					"name": "",
					"type": "address"
				}
			],
			"stateMutability": "view",
			"type": "function"
		},
		{
			"inputs": [
				{
					"internalType": "address",
					"name": "owner",
					"type": "address"
				},
				{
					"internalType": "address",
					"name": "spender",
					"type": "address"
				},
				{
					"internalType": "uint256",
					"name": "value",
					"type": "uint256"
				},
				{
					"internalType": "uint256",
					"name": "deadline",
					"type": "uint256"
				},
				{
					"internalType": "uint8",
					"name": "v",
					"type": "uint8"
				},
				{
					"internalType": "bytes32",
					"name": "r",
					"type": "bytes32"
				},
				{
					"internalType": "bytes32",
					"name": "s",
					"type": "bytes32"
				}
			],
			"name": "permit",
			"outputs": [],
			"stateMutability": "nonpayable",
			"type": "function"
		},
		{
			"inputs": [],
			"name": "renounceOwnership",
			"outputs": [],
			"stateMutability": "nonpayable",
			"type": "function"
		},
		{
			"inputs": [],
			"name": "sellFee",
			"outputs": [
				{
					"internalType": "uint256",
					"name": "",
					"type": "uint256"
				}
			],
			"stateMutability": "view",
			"type": "function"
		},
		{
			"inputs": [],
			"name": "sellFeeEnabled",
			"outputs": [
				{
					"internalType": "bool",
					"name": "",
					"type": "bool"
				}
			],
			"stateMutability": "view",
			"type": "function"
		},
		{
			"inputs": [
				{
					"internalType": "address",
					"name": "pair",
					"type": "address"
				},
				{
					"internalType": "bool",
					"name": "enabled",
					"type": "bool"
				}
			],
			"name": "setAutomatedMarketMakerPair",
			"outputs": [],
			"stateMutability": "nonpayable",
			"type": "function"
		},
		{
			"inputs": [
				{
					"internalType": "address",
					"name": "newWallet",
					"type": "address"
				}
			],
			"name": "setFeeReceiver",
			"outputs": [],
			"stateMutability": "nonpayable",
			"type": "function"
		},
		{
			"inputs": [],
			"name": "snapshot",
			"outputs": [],
			"stateMutability": "nonpayable",
			"type": "function"
		},
		{
			"inputs": [],
			"name": "swapTokensAtAmount",
			"outputs": [
				{
					"internalType": "uint256",
					"name": "",
					"type": "uint256"
				}
			],
			"stateMutability": "view",
			"type": "function"
		},
		{
			"inputs": [],
			"name": "symbol",
			"outputs": [
				{
					"internalType": "string",
					"name": "",
					"type": "string"
				}
			],
			"stateMutability": "view",
			"type": "function"
		},
		{
			"inputs": [],
			"name": "tokensForFees",
			"outputs": [
				{
					"internalType": "uint256",
					"name": "",
					"type": "uint256"
				}
			],
			"stateMutability": "view",
			"type": "function"
		},
		{
			"inputs": [],
			"name": "totalSupply",
			"outputs": [
				{
					"internalType": "uint256",
					"name": "",
					"type": "uint256"
				}
			],
			"stateMutability": "view",
			"type": "function"
		},
		{
			"inputs": [
				{
					"internalType": "uint256",
					"name": "snapshotId",
					"type": "uint256"
				}
			],
			"name": "totalSupplyAt",
			"outputs": [
				{
					"internalType": "uint256",
					"name": "",
					"type": "uint256"
				}
			],
			"stateMutability": "view",
			"type": "function"
		},
		{
			"inputs": [],
			"name": "tradingActive",
			"outputs": [
				{
					"internalType": "bool",
					"name": "",
					"type": "bool"
				}
			],
			"stateMutability": "view",
			"type": "function"
		},
		{
			"inputs": [
				{
					"internalType": "address",
					"name": "to",
					"type": "address"
				},
				{
					"internalType": "uint256",
					"name": "amount",
					"type": "uint256"
				}
			],
			"name": "transfer",
			"outputs": [
				{
					"internalType": "bool",
					"name": "",
					"type": "bool"
				}
			],
			"stateMutability": "nonpayable",
			"type": "function"
		},
		{
			"inputs": [],
			"name": "transferFeesEnabled",
			"outputs": [
				{
					"internalType": "bool",
					"name": "",
					"type": "bool"
				}
			],
			"stateMutability": "view",
			"type": "function"
		},
		{
			"inputs": [
				{
					"internalType": "address",
					"name": "from",
					"type": "address"
				},
				{
					"internalType": "address",
					"name": "to",
					"type": "address"
				},
				{
					"internalType": "uint256",
					"name": "amount",
					"type": "uint256"
				}
			],
			"name": "transferFrom",
			"outputs": [
				{
					"internalType": "bool",
					"name": "",
					"type": "bool"
				}
			],
			"stateMutability": "nonpayable",
			"type": "function"
		},
		{
			"inputs": [
				{
					"internalType": "address",
					"name": "newOwner",
					"type": "address"
				}
			],
			"name": "transferOwnership",
			"outputs": [],
			"stateMutability": "nonpayable",
			"type": "function"
		},
		{
			"inputs": [],
			"name": "uniswapV2Pair",
			"outputs": [
				{
					"internalType": "address",
					"name": "",
					"type": "address"
				}
			],
			"stateMutability": "view",
			"type": "function"
		},
		{
			"inputs": [],
			"name": "uniswapV2Router",
			"outputs": [
				{
					"internalType": "contract IUniswapV2Router02",
					"name": "",
					"type": "address"
				}
			],
			"stateMutability": "view",
			"type": "function"
		}
	]
}