{
  "_format": "hh-sol-artifact-1",
  "contractName": "Token",
  "sourceName": "contracts/Token.sol",
  "abi": [
    {
      "inputs": [
        {
          "internalType": "string",
          "name": "name_",
          "type": "string"
        },
        {
          "internalType": "string",
          "name": "symbol_",
          "type": "string"
        },
        {
          "internalType": "address",
          "name": "reserveAddress",
          "type": "address"
        },
        {
          "internalType": "uint256",
          "name": "reserveAmount",
          "type": "uint256"
        },
        {
          "internalType": "address",
          "name": "integrationAddress",
          "type": "address"
        },
        {
          "internalType": "uint256",
          "name": "integrationAmount",
          "type": "uint256"
        },
        {
          "internalType": "uint256",
          "name": "remainderAmount",
          "type": "uint256"
        }
      ],
      "stateMutability": "nonpayable",
      "type": "constructor"
    },
    {
      "anonymous": false,
      "inputs": [
        {
          "indexed": true,
          "internalType": "address",
          "name": "owner",
          "type": "address"
        },
        {
          "indexed": true,
          "internalType": "address",
          "name": "spender",
          "type": "address"
        },
        {
          "indexed": false,
          "internalType": "uint256",
          "name": "value",
          "type": "uint256"
        }
      ],
      "name": "Approval",
      "type": "event"
    },
    {
      "anonymous": false,
      "inputs": [
        {
          "indexed": true,
          "internalType": "address",
          "name": "previousOwner",
          "type": "address"
        },
        {
          "indexed": true,
          "internalType": "address",
          "name": "newOwner",
          "type": "address"
        }
      ],
      "name": "OwnershipTransferred",
      "type": "event"
    },
    {
      "anonymous": false,
      "inputs": [
        {
          "indexed": true,
          "internalType": "address",
          "name": "from",
          "type": "address"
        },
        {
          "indexed": true,
          "internalType": "address",
          "name": "to",
          "type": "address"
        },
        {
          "indexed": false,
          "internalType": "uint256",
          "name": "value",
          "type": "uint256"
        }
      ],
      "name": "Transfer",
      "type": "event"
    },
    {
      "inputs": [
        {
          "internalType": "address",
          "name": "owner",
          "type": "address"
        },
        {
          "internalType": "address",
          "name": "spender",
          "type": "address"
        }
      ],
      "name": "allowance",
      "outputs": [
        {
          "internalType": "uint256",
          "name": "",
          "type": "uint256"
        }
      ],
      "stateMutability": "view",
      "type": "function"
    },
    {
      "inputs": [
        {
          "internalType": "address",
          "name": "spender",
          "type": "address"
        },
        {
          "internalType": "uint256",
          "name": "amount",
          "type": "uint256"
        }
      ],
      "name": "approve",
      "outputs": [
        {
          "internalType": "bool",
          "name": "",
          "type": "bool"
        }
      ],
      "stateMutability": "nonpayable",
      "type": "function"
    },
    {
      "inputs": [
        {
          "internalType": "address",
          "name": "account",
          "type": "address"
        }
      ],
      "name": "balanceOf",
      "outputs": [
        {
          "internalType": "uint256",
          "name": "",
          "type": "uint256"
        }
      ],
      "stateMutability": "view",
      "type": "function"
    },
    {
      "inputs": [],
      "name": "decimals",
      "outputs": [
        {
          "internalType": "uint8",
          "name": "",
          "type": "uint8"
        }
      ],
      "stateMutability": "view",
      "type": "function"
    },
    {
      "inputs": [
        {
          "internalType": "address",
          "name": "spender",
          "type": "address"
        },
        {
          "internalType": "uint256",
          "name": "subtractedValue",
          "type": "uint256"
        }
      ],
      "name": "decreaseAllowance",
      "outputs": [
        {
          "internalType": "bool",
          "name": "",
          "type": "bool"
        }
      ],
      "stateMutability": "nonpayable",
      "type": "function"
    },
    {
      "inputs": [
        {
          "internalType": "address",
          "name": "spender",
          "type": "address"
        },
        {
          "internalType": "uint256",
          "name": "addedValue",
          "type": "uint256"
        }
      ],
      "name": "increaseAllowance",
      "outputs": [
        {
          "internalType": "bool",
          "name": "",
          "type": "bool"
        }
      ],
      "stateMutability": "nonpayable",
      "type": "function"
    },
    {
      "inputs": [
        {
          "internalType": "address",
          "name": "contractAddress",
          "type": "address"
        },
        {
          "internalType": "uint256",
          "name": "airdropAmount",
          "type": "uint256"
        }
      ],
      "name": "mintAirdrop",
      "outputs": [],
      "stateMutability": "nonpayable",
      "type": "function"
    },
    {
      "inputs": [],
      "name": "name",
      "outputs": [
        {
          "internalType": "string",
          "name": "",
          "type": "string"
        }
      ],
      "stateMutability": "view",
      "type": "function"
    },
    {
      "inputs": [],
      "name": "owner",
      "outputs": [
        {
          "internalType": "address",
          "name": "",
          "type": "address"
        }
      ],
      "stateMutability": "view",
      "type": "function"
    },
    {
      "inputs": [],
      "name": "renounceOwnership",
      "outputs": [],
      "stateMutability": "nonpayable",
      "type": "function"
    },
    {
      "inputs": [],
      "name": "symbol",
      "outputs": [
        {
          "internalType": "string",
          "name": "",
          "type": "string"
        }
      ],
      "stateMutability": "view",
      "type": "function"
    },
    {
      "inputs": [],
      "name": "totalSupply",
      "outputs": [
        {
          "internalType": "uint256",
          "name": "",
          "type": "uint256"
        }
      ],
      "stateMutability": "view",
      "type": "function"
    },
    {
      "inputs": [
        {
          "internalType": "address",
          "name": "recipient",
          "type": "address"
        },
        {
          "internalType": "uint256",
          "name": "amount",
          "type": "uint256"
        }
      ],
      "name": "transfer",
      "outputs": [
        {
          "internalType": "bool",
          "name": "",
          "type": "bool"
        }
      ],
      "stateMutability": "nonpayable",
      "type": "function"
    },
    {
      "inputs": [
        {
          "internalType": "address",
          "name": "sender",
          "type": "address"
        },
        {
          "internalType": "address",
          "name": "recipient",
          "type": "address"
        },
        {
          "internalType": "uint256",
          "name": "amount",
          "type": "uint256"
        }
      ],
      "name": "transferFrom",
      "outputs": [
        {
          "internalType": "bool",
          "name": "",
          "type": "bool"
        }
      ],
      "stateMutability": "nonpayable",
      "type": "function"
    },
    {
      "inputs": [
        {
          "internalType": "address",
          "name": "newOwner",
          "type": "address"
        }
      ],
      "name": "transferOwnership",
      "outputs": [],
      "stateMutability": "nonpayable",
      "type": "function"
    }
  ],
  "bytecode": "0x60806040526000600560146101000a81548160ff0219169083151502179055503480156200002c57600080fd5b50604051620023e7380380620023e7833981810160405281019062000052919062000629565b868681600390805190602001906200006c9291906200033c565b508060049080519060200190620000859291906200033c565b505050620000a86200009c620000eb60201b60201c565b620000f360201b60201c565b620000ba8585620001b960201b60201c565b620000cc8383620001b960201b60201c565b620000de3382620001b960201b60201c565b50505050505050620008bc565b600033905090565b6000600560009054906101000a900473ffffffffffffffffffffffffffffffffffffffff16905081600560006101000a81548173ffffffffffffffffffffffffffffffffffffffff021916908373ffffffffffffffffffffffffffffffffffffffff1602179055508173ffffffffffffffffffffffffffffffffffffffff168173ffffffffffffffffffffffffffffffffffffffff167f8be0079c531659141344cd1fd0a4f28419497f9722a3daafe3b4186f6b6457e060405160405180910390a35050565b600073ffffffffffffffffffffffffffffffffffffffff168273ffffffffffffffffffffffffffffffffffffffff1614156200022c576040517f08c379a000000000000000000000000000000000000000000000000000000000815260040162000223906200077b565b60405180910390fd5b62000240600083836200033260201b60201c565b8060026000828254620002549190620007cc565b92505081905550806000808473ffffffffffffffffffffffffffffffffffffffff1673ffffffffffffffffffffffffffffffffffffffff1681526020019081526020016000206000828254620002ab9190620007cc565b925050819055508173ffffffffffffffffffffffffffffffffffffffff16600073ffffffffffffffffffffffffffffffffffffffff167fddf252ad1be2c89b69c2b068fc378daa952ba7f163c4a11628f55a4df523b3ef836040516200031291906200083a565b60405180910390a36200032e600083836200033760201b60201c565b5050565b505050565b505050565b8280546200034a9062000886565b90600052602060002090601f0160209004810192826200036e5760008555620003ba565b82601f106200038957805160ff1916838001178555620003ba565b82800160010185558215620003ba579182015b82811115620003b95782518255916020019190600101906200039c565b5b509050620003c99190620003cd565b5090565b5b80821115620003e8576000816000905550600101620003ce565b5090565b6000604051905090565b600080fd5b600080fd5b600080fd5b600080fd5b6000601f19601f8301169050919050565b7f4e487b7100000000000000000000000000000000000000000000000000000000600052604160045260246000fd5b62000455826200040a565b810181811067ffffffffffffffff821117156200047757620004766200041b565b5b80604052505050565b60006200048c620003ec565b90506200049a82826200044a565b919050565b600067ffffffffffffffff821115620004bd57620004bc6200041b565b5b620004c8826200040a565b9050602081019050919050565b60005b83811015620004f5578082015181840152602081019050620004d8565b8381111562000505576000848401525b50505050565b6000620005226200051c846200049f565b62000480565b90508281526020810184848401111562000541576200054062000405565b5b6200054e848285620004d5565b509392505050565b600082601f8301126200056e576200056d62000400565b5b8151620005808482602086016200050b565b91505092915050565b600073ffffffffffffffffffffffffffffffffffffffff82169050919050565b6000620005b68262000589565b9050919050565b620005c881620005a9565b8114620005d457600080fd5b50565b600081519050620005e881620005bd565b92915050565b6000819050919050565b6200060381620005ee565b81146200060f57600080fd5b50565b6000815190506200062381620005f8565b92915050565b600080600080600080600060e0888a0312156200064b576200064a620003f6565b5b600088015167ffffffffffffffff8111156200066c576200066b620003fb565b5b6200067a8a828b0162000556565b975050602088015167ffffffffffffffff8111156200069e576200069d620003fb565b5b620006ac8a828b0162000556565b9650506040620006bf8a828b01620005d7565b9550506060620006d28a828b0162000612565b9450506080620006e58a828b01620005d7565b93505060a0620006f88a828b0162000612565b92505060c06200070b8a828b0162000612565b91505092959891949750929550565b600082825260208201905092915050565b7f45524332303a206d696e7420746f20746865207a65726f206164647265737300600082015250565b600062000763601f836200071a565b915062000770826200072b565b602082019050919050565b60006020820190508181036000830152620007968162000754565b9050919050565b7f4e487b7100000000000000000000000000000000000000000000000000000000600052601160045260246000fd5b6000620007d982620005ee565b9150620007e683620005ee565b9250827fffffffffffffffffffffffffffffffffffffffffffffffffffffffffffffffff038211156200081e576200081d6200079d565b5b828201905092915050565b6200083481620005ee565b82525050565b600060208201905062000851600083018462000829565b92915050565b7f4e487b7100000000000000000000000000000000000000000000000000000000600052602260045260246000fd5b600060028204905060018216806200089f57607f821691505b60208210811415620008b657620008b562000857565b5b50919050565b611b1b80620008cc6000396000f3fe608060405234801561001057600080fd5b50600436106100f55760003560e01c8063715018a611610097578063a9059cbb11610066578063a9059cbb1461028a578063dd62ed3e146102ba578063f2fde38b146102ea578063fdd7c40214610306576100f5565b8063715018a6146102145780638da5cb5b1461021e57806395d89b411461023c578063a457c2d71461025a576100f5565b806323b872dd116100d357806323b872dd14610166578063313ce5671461019657806339509351146101b457806370a08231146101e4576100f5565b806306fdde03146100fa578063095ea7b31461011857806318160ddd14610148575b600080fd5b610102610322565b60405161010f91906111af565b60405180910390f35b610132600480360381019061012d919061126a565b6103b4565b60405161013f91906112c5565b60405180910390f35b6101506103d2565b60405161015d91906112ef565b60405180910390f35b610180600480360381019061017b919061130a565b6103dc565b60405161018d91906112c5565b60405180910390f35b61019e6104d4565b6040516101ab9190611379565b60405180910390f35b6101ce60048036038101906101c9919061126a565b6104dd565b6040516101db91906112c5565b60405180910390f35b6101fe60048036038101906101f99190611394565b610589565b60405161020b91906112ef565b60405180910390f35b61021c6105d1565b005b610226610659565b60405161023391906113d0565b60405180910390f35b610244610683565b60405161025191906111af565b60405180910390f35b610274600480360381019061026f919061126a565b610715565b60405161028191906112c5565b60405180910390f35b6102a4600480360381019061029f919061126a565b610800565b6040516102b191906112c5565b60405180910390f35b6102d460048036038101906102cf91906113eb565b61081e565b6040516102e191906112ef565b60405180910390f35b61030460048036038101906102ff9190611394565b6108a5565b005b610320600480360381019061031b919061126a565b61099d565b005b6060600380546103319061145a565b80601f016020809104026020016040519081016040528092919081815260200182805461035d9061145a565b80156103aa5780601f1061037f576101008083540402835291602001916103aa565b820191906000526020600020905b81548152906001019060200180831161038d57829003601f168201915b5050505050905090565b60006103c86103c1610a92565b8484610a9a565b6001905092915050565b6000600254905090565b60006103e9848484610c65565b6000600160008673ffffffffffffffffffffffffffffffffffffffff1673ffffffffffffffffffffffffffffffffffffffff1681526020019081526020016000206000610434610a92565b73ffffffffffffffffffffffffffffffffffffffff1673ffffffffffffffffffffffffffffffffffffffff168152602001908152602001600020549050828110156104b4576040517f08c379a00000000000000000000000000000000000000000000000000000000081526004016104ab906114fe565b60405180910390fd5b6104c8856104c0610a92565b858403610a9a565b60019150509392505050565b60006012905090565b600061057f6104ea610a92565b8484600160006104f8610a92565b73ffffffffffffffffffffffffffffffffffffffff1673ffffffffffffffffffffffffffffffffffffffff16815260200190815260200160002060008873ffffffffffffffffffffffffffffffffffffffff1673ffffffffffffffffffffffffffffffffffffffff1681526020019081526020016000205461057a919061154d565b610a9a565b6001905092915050565b60008060008373ffffffffffffffffffffffffffffffffffffffff1673ffffffffffffffffffffffffffffffffffffffff168152602001908152602001600020549050919050565b6105d9610a92565b73ffffffffffffffffffffffffffffffffffffffff166105f7610659565b73ffffffffffffffffffffffffffffffffffffffff161461064d576040517f08c379a0000000000000000000000000000000000000000000000000000000008152600401610644906115ef565b60405180910390fd5b6106576000610ee6565b565b6000600560009054906101000a900473ffffffffffffffffffffffffffffffffffffffff16905090565b6060600480546106929061145a565b80601f01602080910402602001604051908101604052809291908181526020018280546106be9061145a565b801561070b5780601f106106e05761010080835404028352916020019161070b565b820191906000526020600020905b8154815290600101906020018083116106ee57829003601f168201915b5050505050905090565b60008060016000610724610a92565b73ffffffffffffffffffffffffffffffffffffffff1673ffffffffffffffffffffffffffffffffffffffff16815260200190815260200160002060008573ffffffffffffffffffffffffffffffffffffffff1673ffffffffffffffffffffffffffffffffffffffff168152602001908152602001600020549050828110156107e1576040517f08c379a00000000000000000000000000000000000000000000000000000000081526004016107d890611681565b60405180910390fd5b6107f56107ec610a92565b85858403610a9a565b600191505092915050565b600061081461080d610a92565b8484610c65565b6001905092915050565b6000600160008473ffffffffffffffffffffffffffffffffffffffff1673ffffffffffffffffffffffffffffffffffffffff16815260200190815260200160002060008373ffffffffffffffffffffffffffffffffffffffff1673ffffffffffffffffffffffffffffffffffffffff16815260200190815260200160002054905092915050565b6108ad610a92565b73ffffffffffffffffffffffffffffffffffffffff166108cb610659565b73ffffffffffffffffffffffffffffffffffffffff1614610921576040517f08c379a0000000000000000000000000000000000000000000000000000000008152600401610918906115ef565b60405180910390fd5b600073ffffffffffffffffffffffffffffffffffffffff168173ffffffffffffffffffffffffffffffffffffffff161415610991576040517f08c379a000000000000000000000000000000000000000000000000000000000815260040161098890611713565b60405180910390fd5b61099a81610ee6565b50565b6109a5610a92565b73ffffffffffffffffffffffffffffffffffffffff166109c3610659565b73ffffffffffffffffffffffffffffffffffffffff1614610a19576040517f08c379a0000000000000000000000000000000000000000000000000000000008152600401610a10906115ef565b60405180910390fd5b600560149054906101000a900460ff1615610a69576040517f08c379a0000000000000000000000000000000000000000000000000000000008152600401610a609061177f565b60405180910390fd5b6001600560146101000a81548160ff021916908315150217905550610a8e8282610fac565b5050565b600033905090565b600073ffffffffffffffffffffffffffffffffffffffff168373ffffffffffffffffffffffffffffffffffffffff161415610b0a576040517f08c379a0000000000000000000000000000000000000000000000000000000008152600401610b0190611811565b60405180910390fd5b600073ffffffffffffffffffffffffffffffffffffffff168273ffffffffffffffffffffffffffffffffffffffff161415610b7a576040517f08c379a0000000000000000000000000000000000000000000000000000000008152600401610b71906118a3565b60405180910390fd5b80600160008573ffffffffffffffffffffffffffffffffffffffff1673ffffffffffffffffffffffffffffffffffffffff16815260200190815260200160002060008473ffffffffffffffffffffffffffffffffffffffff1673ffffffffffffffffffffffffffffffffffffffff168152602001908152602001600020819055508173ffffffffffffffffffffffffffffffffffffffff168373ffffffffffffffffffffffffffffffffffffffff167f8c5be1e5ebec7d5bd14f71427d1e84f3dd0314c0f7b2291e5b200ac8c7c3b92583604051610c5891906112ef565b60405180910390a3505050565b600073ffffffffffffffffffffffffffffffffffffffff168373ffffffffffffffffffffffffffffffffffffffff161415610cd5576040517f08c379a0000000000000000000000000000000000000000000000000000000008152600401610ccc90611935565b60405180910390fd5b600073ffffffffffffffffffffffffffffffffffffffff168273ffffffffffffffffffffffffffffffffffffffff161415610d45576040517f08c379a0000000000000000000000000000000000000000000000000000000008152600401610d3c906119c7565b60405180910390fd5b610d5083838361110c565b60008060008573ffffffffffffffffffffffffffffffffffffffff1673ffffffffffffffffffffffffffffffffffffffff16815260200190815260200160002054905081811015610dd6576040517f08c379a0000000000000000000000000000000000000000000000000000000008152600401610dcd90611a59565b60405180910390fd5b8181036000808673ffffffffffffffffffffffffffffffffffffffff1673ffffffffffffffffffffffffffffffffffffffff16815260200190815260200160002081905550816000808573ffffffffffffffffffffffffffffffffffffffff1673ffffffffffffffffffffffffffffffffffffffff1681526020019081526020016000206000828254610e69919061154d565b925050819055508273ffffffffffffffffffffffffffffffffffffffff168473ffffffffffffffffffffffffffffffffffffffff167fddf252ad1be2c89b69c2b068fc378daa952ba7f163c4a11628f55a4df523b3ef84604051610ecd91906112ef565b60405180910390a3610ee0848484611111565b50505050565b6000600560009054906101000a900473ffffffffffffffffffffffffffffffffffffffff16905081600560006101000a81548173ffffffffffffffffffffffffffffffffffffffff021916908373ffffffffffffffffffffffffffffffffffffffff1602179055508173ffffffffffffffffffffffffffffffffffffffff168173ffffffffffffffffffffffffffffffffffffffff167f8be0079c531659141344cd1fd0a4f28419497f9722a3daafe3b4186f6b6457e060405160405180910390a35050565b600073ffffffffffffffffffffffffffffffffffffffff168273ffffffffffffffffffffffffffffffffffffffff16141561101c576040517f08c379a000000000000000000000000000000000000000000000000000000000815260040161101390611ac5565b60405180910390fd5b6110286000838361110c565b806002600082825461103a919061154d565b92505081905550806000808473ffffffffffffffffffffffffffffffffffffffff1673ffffffffffffffffffffffffffffffffffffffff168152602001908152602001600020600082825461108f919061154d565b925050819055508173ffffffffffffffffffffffffffffffffffffffff16600073ffffffffffffffffffffffffffffffffffffffff167fddf252ad1be2c89b69c2b068fc378daa952ba7f163c4a11628f55a4df523b3ef836040516110f491906112ef565b60405180910390a361110860008383611111565b5050565b505050565b505050565b600081519050919050565b600082825260208201905092915050565b60005b83811015611150578082015181840152602081019050611135565b8381111561115f576000848401525b50505050565b6000601f19601f8301169050919050565b600061118182611116565b61118b8185611121565b935061119b818560208601611132565b6111a481611165565b840191505092915050565b600060208201905081810360008301526111c98184611176565b905092915050565b600080fd5b600073ffffffffffffffffffffffffffffffffffffffff82169050919050565b6000611201826111d6565b9050919050565b611211816111f6565b811461121c57600080fd5b50565b60008135905061122e81611208565b92915050565b6000819050919050565b61124781611234565b811461125257600080fd5b50565b6000813590506112648161123e565b92915050565b60008060408385031215611281576112806111d1565b5b600061128f8582860161121f565b92505060206112a085828601611255565b9150509250929050565b60008115159050919050565b6112bf816112aa565b82525050565b60006020820190506112da60008301846112b6565b92915050565b6112e981611234565b82525050565b600060208201905061130460008301846112e0565b92915050565b600080600060608486031215611323576113226111d1565b5b60006113318682870161121f565b93505060206113428682870161121f565b925050604061135386828701611255565b9150509250925092565b600060ff82169050919050565b6113738161135d565b82525050565b600060208201905061138e600083018461136a565b92915050565b6000602082840312156113aa576113a96111d1565b5b60006113b88482850161121f565b91505092915050565b6113ca816111f6565b82525050565b60006020820190506113e560008301846113c1565b92915050565b60008060408385031215611402576114016111d1565b5b60006114108582860161121f565b92505060206114218582860161121f565b9150509250929050565b7f4e487b7100000000000000000000000000000000000000000000000000000000600052602260045260246000fd5b6000600282049050600182168061147257607f821691505b602082108114156114865761148561142b565b5b50919050565b7f45524332303a207472616e7366657220616d6f756e742065786365656473206160008201527f6c6c6f77616e6365000000000000000000000000000000000000000000000000602082015250565b60006114e8602883611121565b91506114f38261148c565b604082019050919050565b60006020820190508181036000830152611517816114db565b9050919050565b7f4e487b7100000000000000000000000000000000000000000000000000000000600052601160045260246000fd5b600061155882611234565b915061156383611234565b9250827fffffffffffffffffffffffffffffffffffffffffffffffffffffffffffffffff038211156115985761159761151e565b5b828201905092915050565b7f4f776e61626c653a2063616c6c6572206973206e6f7420746865206f776e6572600082015250565b60006115d9602083611121565b91506115e4826115a3565b602082019050919050565b60006020820190508181036000830152611608816115cc565b9050919050565b7f45524332303a2064656372656173656420616c6c6f77616e63652062656c6f7760008201527f207a65726f000000000000000000000000000000000000000000000000000000602082015250565b600061166b602583611121565b91506116768261160f565b604082019050919050565b6000602082019050818103600083015261169a8161165e565b9050919050565b7f4f776e61626c653a206e6577206f776e657220697320746865207a65726f206160008201527f6464726573730000000000000000000000000000000000000000000000000000602082015250565b60006116fd602683611121565b9150611708826116a1565b604082019050919050565b6000602082019050818103600083015261172c816116f0565b9050919050565b7f41697264726f7020616c7265616479206d696e7465642e000000000000000000600082015250565b6000611769601783611121565b915061177482611733565b602082019050919050565b600060208201905081810360008301526117988161175c565b9050919050565b7f45524332303a20617070726f76652066726f6d20746865207a65726f2061646460008201527f7265737300000000000000000000000000000000000000000000000000000000602082015250565b60006117fb602483611121565b91506118068261179f565b604082019050919050565b6000602082019050818103600083015261182a816117ee565b9050919050565b7f45524332303a20617070726f766520746f20746865207a65726f20616464726560008201527f7373000000000000000000000000000000000000000000000000000000000000602082015250565b600061188d602283611121565b915061189882611831565b604082019050919050565b600060208201905081810360008301526118bc81611880565b9050919050565b7f45524332303a207472616e736665722066726f6d20746865207a65726f20616460008201527f6472657373000000000000000000000000000000000000000000000000000000602082015250565b600061191f602583611121565b915061192a826118c3565b604082019050919050565b6000602082019050818103600083015261194e81611912565b9050919050565b7f45524332303a207472616e7366657220746f20746865207a65726f206164647260008201527f6573730000000000000000000000000000000000000000000000000000000000602082015250565b60006119b1602383611121565b91506119bc82611955565b604082019050919050565b600060208201905081810360008301526119e0816119a4565b9050919050565b7f45524332303a207472616e7366657220616d6f756e742065786365656473206260008201527f616c616e63650000000000000000000000000000000000000000000000000000602082015250565b6000611a43602683611121565b9150611a4e826119e7565b604082019050919050565b60006020820190508181036000830152611a7281611a36565b9050919050565b7f45524332303a206d696e7420746f20746865207a65726f206164647265737300600082015250565b6000611aaf601f83611121565b9150611aba82611a79565b602082019050919050565b60006020820190508181036000830152611ade81611aa2565b905091905056fea26469706673582212201678ee6dcd64c9bd41cd55ac4fe1230655a76e2dab9a30bdf1c4d9796b69e5bf64736f6c634300080a0033",
  "linkReferences": {},
  "deployedLinkReferences": {}
}