{
  "contractName": "SATAMintableBurnable",
  "abi": [
    {
      "anonymous": false,
      "inputs": [
        {
          "indexed": true,
          "internalType": "address",
          "name": "owner",
          "type": "address"
        },
        {
          "indexed": true,
          "internalType": "address",
          "name": "spender",
          "type": "address"
        },
        {
          "indexed": false,
          "internalType": "uint256",
          "name": "value",
          "type": "uint256"
        }
      ],
      "name": "Approval",
      "type": "event"
    },
    {
      "anonymous": false,
      "inputs": [
        {
          "indexed": true,
          "internalType": "address",
          "name": "from",
          "type": "address"
        },
        {
          "indexed": true,
          "internalType": "address",
          "name": "to",
          "type": "address"
        },
        {
          "indexed": false,
          "internalType": "uint256",
          "name": "value",
          "type": "uint256"
        }
      ],
      "name": "Transfer",
      "type": "event"
    },
    {
      "inputs": [
        {
          "internalType": "address",
          "name": "owner",
          "type": "address"
        },
        {
          "internalType": "address",
          "name": "spender",
          "type": "address"
        }
      ],
      "name": "allowance",
      "outputs": [
        {
          "internalType": "uint256",
          "name": "",
          "type": "uint256"
        }
      ],
      "stateMutability": "view",
      "type": "function"
    },
    {
      "inputs": [
        {
          "internalType": "address",
          "name": "spender",
          "type": "address"
        },
        {
          "internalType": "uint256",
          "name": "amount",
          "type": "uint256"
        }
      ],
      "name": "approve",
      "outputs": [
        {
          "internalType": "bool",
          "name": "",
          "type": "bool"
        }
      ],
      "stateMutability": "nonpayable",
      "type": "function"
    },
    {
      "inputs": [
        {
          "internalType": "address",
          "name": "account",
          "type": "address"
        }
      ],
      "name": "balanceOf",
      "outputs": [
        {
          "internalType": "uint256",
          "name": "",
          "type": "uint256"
        }
      ],
      "stateMutability": "view",
      "type": "function"
    },
    {
      "inputs": [],
      "name": "decimals",
      "outputs": [
        {
          "internalType": "uint8",
          "name": "",
          "type": "uint8"
        }
      ],
      "stateMutability": "view",
      "type": "function"
    },
    {
      "inputs": [
        {
          "internalType": "address",
          "name": "spender",
          "type": "address"
        },
        {
          "internalType": "uint256",
          "name": "subtractedValue",
          "type": "uint256"
        }
      ],
      "name": "decreaseAllowance",
      "outputs": [
        {
          "internalType": "bool",
          "name": "",
          "type": "bool"
        }
      ],
      "stateMutability": "nonpayable",
      "type": "function"
    },
    {
      "inputs": [
        {
          "internalType": "address",
          "name": "spender",
          "type": "address"
        },
        {
          "internalType": "uint256",
          "name": "addedValue",
          "type": "uint256"
        }
      ],
      "name": "increaseAllowance",
      "outputs": [
        {
          "internalType": "bool",
          "name": "",
          "type": "bool"
        }
      ],
      "stateMutability": "nonpayable",
      "type": "function"
    },
    {
      "inputs": [],
      "name": "name",
      "outputs": [
        {
          "internalType": "string",
          "name": "",
          "type": "string"
        }
      ],
      "stateMutability": "view",
      "type": "function"
    },
    {
      "inputs": [],
      "name": "symbol",
      "outputs": [
        {
          "internalType": "string",
          "name": "",
          "type": "string"
        }
      ],
      "stateMutability": "view",
      "type": "function"
    },
    {
      "inputs": [],
      "name": "totalSupply",
      "outputs": [
        {
          "internalType": "uint256",
          "name": "",
          "type": "uint256"
        }
      ],
      "stateMutability": "view",
      "type": "function"
    },
    {
      "inputs": [
        {
          "internalType": "address",
          "name": "recipient",
          "type": "address"
        },
        {
          "internalType": "uint256",
          "name": "amount",
          "type": "uint256"
        }
      ],
      "name": "transfer",
      "outputs": [
        {
          "internalType": "bool",
          "name": "",
          "type": "bool"
        }
      ],
      "stateMutability": "nonpayable",
      "type": "function"
    },
    {
      "inputs": [
        {
          "internalType": "address",
          "name": "sender",
          "type": "address"
        },
        {
          "internalType": "address",
          "name": "recipient",
          "type": "address"
        },
        {
          "internalType": "uint256",
          "name": "amount",
          "type": "uint256"
        }
      ],
      "name": "transferFrom",
      "outputs": [
        {
          "internalType": "bool",
          "name": "",
          "type": "bool"
        }
      ],
      "stateMutability": "nonpayable",
      "type": "function"
    },
    {
      "inputs": [],
      "name": "initialize",
      "outputs": [],
      "stateMutability": "nonpayable",
      "type": "function"
    }
  ],
  "bytecode": "0x608060405234801561001057600080fd5b50611b0b806100206000396000f3fe608060405234801561001057600080fd5b50600436106100b45760003560e01c806370a082311161007157806370a08231146101a35780638129fc1c146101d357806395d89b41146101dd578063a457c2d7146101fb578063a9059cbb1461022b578063dd62ed3e1461025b576100b4565b806306fdde03146100b9578063095ea7b3146100d757806318160ddd1461010757806323b872dd14610125578063313ce567146101555780633950935114610173575b600080fd5b6100c161028b565b6040516100ce91906114ee565b60405180910390f35b6100f160048036038101906100ec91906112f2565b61031d565b6040516100fe91906114d3565b60405180910390f35b61010f61033b565b60405161011c9190611630565b60405180910390f35b61013f600480360381019061013a919061129f565b610345565b60405161014c91906114d3565b60405180910390f35b61015d61043d565b60405161016a919061164b565b60405180910390f35b61018d600480360381019061018891906112f2565b610446565b60405161019a91906114d3565b60405180910390f35b6101bd60048036038101906101b89190611232565b6104f2565b6040516101ca9190611630565b60405180910390f35b6101db61053b565b005b6101e56106a4565b6040516101f291906114ee565b60405180910390f35b610215600480360381019061021091906112f2565b610736565b60405161022291906114d3565b60405180910390f35b610245600480360381019061024091906112f2565b610821565b60405161025291906114d3565b60405180910390f35b6102756004803603810190610270919061125f565b61083f565b6040516102829190611630565b60405180910390f35b60606036805461029a90611760565b80601f01602080910402602001604051908101604052809291908181526020018280546102c690611760565b80156103135780601f106102e857610100808354040283529160200191610313565b820191906000526020600020905b8154815290600101906020018083116102f657829003601f168201915b5050505050905090565b600061033161032a6108c6565b84846108ce565b6001905092915050565b6000603554905090565b6000610352848484610a99565b6000603460008673ffffffffffffffffffffffffffffffffffffffff1673ffffffffffffffffffffffffffffffffffffffff168152602001908152602001600020600061039d6108c6565b73ffffffffffffffffffffffffffffffffffffffff1673ffffffffffffffffffffffffffffffffffffffff1681526020019081526020016000205490508281101561041d576040517f08c379a000000000000000000000000000000000000000000000000000000000815260040161041490611590565b60405180910390fd5b610431856104296108c6565b8584036108ce565b60019150509392505050565b60006012905090565b60006104e86104536108c6565b8484603460006104616108c6565b73ffffffffffffffffffffffffffffffffffffffff1673ffffffffffffffffffffffffffffffffffffffff16815260200190815260200160002060008873ffffffffffffffffffffffffffffffffffffffff1673ffffffffffffffffffffffffffffffffffffffff168152602001908152602001600020546104e39190611682565b6108ce565b6001905092915050565b6000603360008373ffffffffffffffffffffffffffffffffffffffff1673ffffffffffffffffffffffffffffffffffffffff168152602001908152602001600020549050919050565b600060019054906101000a900460ff1680610561575060008054906101000a900460ff16155b6105a0576040517f08c379a000000000000000000000000000000000000000000000000000000000815260040161059790611570565b60405180910390fd5b60008060019054906101000a900460ff1615905080156105f0576001600060016101000a81548160ff02191690831515021790555060016000806101000a81548160ff0219169083151502179055505b6106646040518060400160405280600781526020017f5369676e617461000000000000000000000000000000000000000000000000008152506040518060400160405280600481526020017f5341544100000000000000000000000000000000000000000000000000000000815250610d1d565b61068061066f6108c6565b6a084595161401484a000000610e0a565b80156106a15760008060016101000a81548160ff0219169083151502179055505b50565b6060603780546106b390611760565b80601f01602080910402602001604051908101604052809291908181526020018280546106df90611760565b801561072c5780601f106107015761010080835404028352916020019161072c565b820191906000526020600020905b81548152906001019060200180831161070f57829003601f168201915b5050505050905090565b600080603460006107456108c6565b73ffffffffffffffffffffffffffffffffffffffff1673ffffffffffffffffffffffffffffffffffffffff16815260200190815260200160002060008573ffffffffffffffffffffffffffffffffffffffff1673ffffffffffffffffffffffffffffffffffffffff16815260200190815260200160002054905082811015610802576040517f08c379a00000000000000000000000000000000000000000000000000000000081526004016107f9906115f0565b60405180910390fd5b61081661080d6108c6565b858584036108ce565b600191505092915050565b600061083561082e6108c6565b8484610a99565b6001905092915050565b6000603460008473ffffffffffffffffffffffffffffffffffffffff1673ffffffffffffffffffffffffffffffffffffffff16815260200190815260200160002060008373ffffffffffffffffffffffffffffffffffffffff1673ffffffffffffffffffffffffffffffffffffffff16815260200190815260200160002054905092915050565b600033905090565b600073ffffffffffffffffffffffffffffffffffffffff168373ffffffffffffffffffffffffffffffffffffffff16141561093e576040517f08c379a0000000000000000000000000000000000000000000000000000000008152600401610935906115d0565b60405180910390fd5b600073ffffffffffffffffffffffffffffffffffffffff168273ffffffffffffffffffffffffffffffffffffffff1614156109ae576040517f08c379a00000000000000000000000000000000000000000000000000000000081526004016109a590611530565b60405180910390fd5b80603460008573ffffffffffffffffffffffffffffffffffffffff1673ffffffffffffffffffffffffffffffffffffffff16815260200190815260200160002060008473ffffffffffffffffffffffffffffffffffffffff1673ffffffffffffffffffffffffffffffffffffffff168152602001908152602001600020819055508173ffffffffffffffffffffffffffffffffffffffff168373ffffffffffffffffffffffffffffffffffffffff167f8c5be1e5ebec7d5bd14f71427d1e84f3dd0314c0f7b2291e5b200ac8c7c3b92583604051610a8c9190611630565b60405180910390a3505050565b600073ffffffffffffffffffffffffffffffffffffffff168373ffffffffffffffffffffffffffffffffffffffff161415610b09576040517f08c379a0000000000000000000000000000000000000000000000000000000008152600401610b00906115b0565b60405180910390fd5b600073ffffffffffffffffffffffffffffffffffffffff168273ffffffffffffffffffffffffffffffffffffffff161415610b79576040517f08c379a0000000000000000000000000000000000000000000000000000000008152600401610b7090611510565b60405180910390fd5b610b84838383610e18565b6000603360008573ffffffffffffffffffffffffffffffffffffffff1673ffffffffffffffffffffffffffffffffffffffff16815260200190815260200160002054905081811015610c0b576040517f08c379a0000000000000000000000000000000000000000000000000000000008152600401610c0290611550565b60405180910390fd5b818103603360008673ffffffffffffffffffffffffffffffffffffffff1673ffffffffffffffffffffffffffffffffffffffff1681526020019081526020016000208190555081603360008573ffffffffffffffffffffffffffffffffffffffff1673ffffffffffffffffffffffffffffffffffffffff1681526020019081526020016000206000828254610ca09190611682565b925050819055508273ffffffffffffffffffffffffffffffffffffffff168473ffffffffffffffffffffffffffffffffffffffff167fddf252ad1be2c89b69c2b068fc378daa952ba7f163c4a11628f55a4df523b3ef84604051610d049190611630565b60405180910390a3610d17848484610e1d565b50505050565b600060019054906101000a900460ff1680610d43575060008054906101000a900460ff16155b610d82576040517f08c379a0000000000000000000000000000000000000000000000000000000008152600401610d7990611570565b60405180910390fd5b60008060019054906101000a900460ff161590508015610dd2576001600060016101000a81548160ff02191690831515021790555060016000806101000a81548160ff0219169083151502179055505b610dda610e22565b610de48383610efb565b8015610e055760008060016101000a81548160ff0219169083151502179055505b505050565b610e148282611004565b5050565b505050565b505050565b600060019054906101000a900460ff1680610e48575060008054906101000a900460ff16155b610e87576040517f08c379a0000000000000000000000000000000000000000000000000000000008152600401610e7e90611570565b60405180910390fd5b60008060019054906101000a900460ff161590508015610ed7576001600060016101000a81548160ff02191690831515021790555060016000806101000a81548160ff0219169083151502179055505b8015610ef85760008060016101000a81548160ff0219169083151502179055505b50565b600060019054906101000a900460ff1680610f21575060008054906101000a900460ff16155b610f60576040517f08c379a0000000000000000000000000000000000000000000000000000000008152600401610f5790611570565b60405180910390fd5b60008060019054906101000a900460ff161590508015610fb0576001600060016101000a81548160ff02191690831515021790555060016000806101000a81548160ff0219169083151502179055505b8260369080519060200190610fc6929190611165565b508160379080519060200190610fdd929190611165565b508015610fff5760008060016101000a81548160ff0219169083151502179055505b505050565b600073ffffffffffffffffffffffffffffffffffffffff168273ffffffffffffffffffffffffffffffffffffffff161415611074576040517f08c379a000000000000000000000000000000000000000000000000000000000815260040161106b90611610565b60405180910390fd5b61108060008383610e18565b80603560008282546110929190611682565b9250508190555080603360008473ffffffffffffffffffffffffffffffffffffffff1673ffffffffffffffffffffffffffffffffffffffff16815260200190815260200160002060008282546110e89190611682565b925050819055508173ffffffffffffffffffffffffffffffffffffffff16600073ffffffffffffffffffffffffffffffffffffffff167fddf252ad1be2c89b69c2b068fc378daa952ba7f163c4a11628f55a4df523b3ef8360405161114d9190611630565b60405180910390a361116160008383610e1d565b5050565b82805461117190611760565b90600052602060002090601f01602090048101928261119357600085556111da565b82601f106111ac57805160ff19168380011785556111da565b828001600101855582156111da579182015b828111156111d95782518255916020019190600101906111be565b5b5090506111e791906111eb565b5090565b5b808211156112045760008160009055506001016111ec565b5090565b60008135905061121781611aa7565b92915050565b60008135905061122c81611abe565b92915050565b600060208284031215611248576112476117f0565b5b600061125684828501611208565b91505092915050565b60008060408385031215611276576112756117f0565b5b600061128485828601611208565b925050602061129585828601611208565b9150509250929050565b6000806000606084860312156112b8576112b76117f0565b5b60006112c686828701611208565b93505060206112d786828701611208565b92505060406112e88682870161121d565b9150509250925092565b60008060408385031215611309576113086117f0565b5b600061131785828601611208565b92505060206113288582860161121d565b9150509250929050565b61133b816116ea565b82525050565b600061134c82611666565b6113568185611671565b935061136681856020860161172d565b61136f816117f5565b840191505092915050565b6000611387602383611671565b915061139282611806565b604082019050919050565b60006113aa602283611671565b91506113b582611855565b604082019050919050565b60006113cd602683611671565b91506113d8826118a4565b604082019050919050565b60006113f0602e83611671565b91506113fb826118f3565b604082019050919050565b6000611413602883611671565b915061141e82611942565b604082019050919050565b6000611436602583611671565b915061144182611991565b604082019050919050565b6000611459602483611671565b9150611464826119e0565b604082019050919050565b600061147c602583611671565b915061148782611a2f565b604082019050919050565b600061149f601f83611671565b91506114aa82611a7e565b602082019050919050565b6114be81611716565b82525050565b6114cd81611720565b82525050565b60006020820190506114e86000830184611332565b92915050565b600060208201905081810360008301526115088184611341565b905092915050565b600060208201905081810360008301526115298161137a565b9050919050565b600060208201905081810360008301526115498161139d565b9050919050565b60006020820190508181036000830152611569816113c0565b9050919050565b60006020820190508181036000830152611589816113e3565b9050919050565b600060208201905081810360008301526115a981611406565b9050919050565b600060208201905081810360008301526115c981611429565b9050919050565b600060208201905081810360008301526115e98161144c565b9050919050565b600060208201905081810360008301526116098161146f565b9050919050565b6000602082019050818103600083015261162981611492565b9050919050565b600060208201905061164560008301846114b5565b92915050565b600060208201905061166060008301846114c4565b92915050565b600081519050919050565b600082825260208201905092915050565b600061168d82611716565b915061169883611716565b9250827fffffffffffffffffffffffffffffffffffffffffffffffffffffffffffffffff038211156116cd576116cc611792565b5b828201905092915050565b60006116e3826116f6565b9050919050565b60008115159050919050565b600073ffffffffffffffffffffffffffffffffffffffff82169050919050565b6000819050919050565b600060ff82169050919050565b60005b8381101561174b578082015181840152602081019050611730565b8381111561175a576000848401525b50505050565b6000600282049050600182168061177857607f821691505b6020821081141561178c5761178b6117c1565b5b50919050565b7f4e487b7100000000000000000000000000000000000000000000000000000000600052601160045260246000fd5b7f4e487b7100000000000000000000000000000000000000000000000000000000600052602260045260246000fd5b600080fd5b6000601f19601f8301169050919050565b7f45524332303a207472616e7366657220746f20746865207a65726f206164647260008201527f6573730000000000000000000000000000000000000000000000000000000000602082015250565b7f45524332303a20617070726f766520746f20746865207a65726f20616464726560008201527f7373000000000000000000000000000000000000000000000000000000000000602082015250565b7f45524332303a207472616e7366657220616d6f756e742065786365656473206260008201527f616c616e63650000000000000000000000000000000000000000000000000000602082015250565b7f496e697469616c697a61626c653a20636f6e747261637420697320616c72656160008201527f647920696e697469616c697a6564000000000000000000000000000000000000602082015250565b7f45524332303a207472616e7366657220616d6f756e742065786365656473206160008201527f6c6c6f77616e6365000000000000000000000000000000000000000000000000602082015250565b7f45524332303a207472616e736665722066726f6d20746865207a65726f20616460008201527f6472657373000000000000000000000000000000000000000000000000000000602082015250565b7f45524332303a20617070726f76652066726f6d20746865207a65726f2061646460008201527f7265737300000000000000000000000000000000000000000000000000000000602082015250565b7f45524332303a2064656372656173656420616c6c6f77616e63652062656c6f7760008201527f207a65726f000000000000000000000000000000000000000000000000000000602082015250565b7f45524332303a206d696e7420746f20746865207a65726f206164647265737300600082015250565b611ab0816116d8565b8114611abb57600080fd5b50565b611ac781611716565b8114611ad257600080fd5b5056fea264697066735822122089f2f177ef31bdbb6560abcb7c447e2c4f96b73edd64ca4ef71820b20853d5ec64736f6c63430008070033",
  "immutableReferences": {},
  "source": "// SPDX-License-Identifier: MIT\r\npragma solidity 0.8.7;\r\n\r\nimport \"@openzeppelin/contracts-upgradeable/token/ERC20/ERC20Upgradeable.sol\";\r\n// import \"@openzeppelin/contracts-upgradeable/access/Ownable.sol\";\r\nimport \"@openzeppelin/contracts-upgradeable/proxy/utils/Initializable.sol\";\r\nimport \"@openzeppelin/contracts-upgradeable/token/ERC20/extensions/ERC20BurnableUpgradeable.sol\";\r\n\r\ncontract SATAMintableBurnable is\r\n  Initializable,\r\n  ERC20Upgradeable {\r\n\r\n  function initialize() public virtual initializer {\r\n    __ERC20_init(\"Signata\", \"SATA\");\r\n    _mint(_msgSender(), 10000000000000000000000000); // 10 million\r\n  }\r\n\r\n  function _mint(address to, uint256 amount) internal override(ERC20Upgradeable) {\r\n    super._mint(to, amount);\r\n  }\r\n\r\n  function _burn(address account, uint256 amount) internal override(ERC20Upgradeable) {\r\n    super._burn(account, amount);\r\n  }\r\n}\r\n",
  "sourcePath": "C:\\Users\\tim\\Projects\\GitHub\\sata-contracts-v1\\contracts\\SATAMintableBurnable.sol",
  "compiler": {
    "name": "solc",
    "version": "0.8.7+commit.e28d00a7.Emscripten.clang"
  },
  "schemaVersion": "3.4.3",
  "updatedAt": "2021-09-16T12:31:55.489Z",
  "devdoc": {
    "kind": "dev",
    "methods": {
      "allowance(address,address)": {
        "details": "See {IERC20-allowance}."
      },
      "approve(address,uint256)": {
        "details": "See {IERC20-approve}. Requirements: - `spender` cannot be the zero address."
      },
      "balanceOf(address)": {
        "details": "See {IERC20-balanceOf}."
      },
      "decimals()": {
        "details": "Returns the number of decimals used to get its user representation. For example, if `decimals` equals `2`, a balance of `505` tokens should be displayed to a user as `5.05` (`505 / 10 ** 2`). Tokens usually opt for a value of 18, imitating the relationship between Ether and Wei. This is the value {ERC20} uses, unless this function is overridden; NOTE: This information is only used for _display_ purposes: it in no way affects any of the arithmetic of the contract, including {IERC20-balanceOf} and {IERC20-transfer}."
      },
      "decreaseAllowance(address,uint256)": {
        "details": "Atomically decreases the allowance granted to `spender` by the caller. This is an alternative to {approve} that can be used as a mitigation for problems described in {IERC20-approve}. Emits an {Approval} event indicating the updated allowance. Requirements: - `spender` cannot be the zero address. - `spender` must have allowance for the caller of at least `subtractedValue`."
      },
      "increaseAllowance(address,uint256)": {
        "details": "Atomically increases the allowance granted to `spender` by the caller. This is an alternative to {approve} that can be used as a mitigation for problems described in {IERC20-approve}. Emits an {Approval} event indicating the updated allowance. Requirements: - `spender` cannot be the zero address."
      },
      "name()": {
        "details": "Returns the name of the token."
      },
      "symbol()": {
        "details": "Returns the symbol of the token, usually a shorter version of the name."
      },
      "totalSupply()": {
        "details": "See {IERC20-totalSupply}."
      },
      "transfer(address,uint256)": {
        "details": "See {IERC20-transfer}. Requirements: - `recipient` cannot be the zero address. - the caller must have a balance of at least `amount`."
      },
      "transferFrom(address,address,uint256)": {
        "details": "See {IERC20-transferFrom}. Emits an {Approval} event indicating the updated allowance. This is not required by the EIP. See the note at the beginning of {ERC20}. Requirements: - `sender` and `recipient` cannot be the zero address. - `sender` must have a balance of at least `amount`. - the caller must have allowance for ``sender``'s tokens of at least `amount`."
      }
    },
    "version": 1
  },
  "userdoc": {
    "kind": "user",
    "methods": {},
    "version": 1
  }
}