{
  "contractName": "SATAUpgradeable",
  "abi": [
    {
      "anonymous": false,
      "inputs": [
        {
          "indexed": true,
          "internalType": "address",
          "name": "owner",
          "type": "address"
        },
        {
          "indexed": true,
          "internalType": "address",
          "name": "spender",
          "type": "address"
        },
        {
          "indexed": false,
          "internalType": "uint256",
          "name": "value",
          "type": "uint256"
        }
      ],
      "name": "Approval",
      "type": "event"
    },
    {
      "anonymous": false,
      "inputs": [
        {
          "indexed": true,
          "internalType": "address",
          "name": "from",
          "type": "address"
        },
        {
          "indexed": true,
          "internalType": "address",
          "name": "to",
          "type": "address"
        },
        {
          "indexed": false,
          "internalType": "uint256",
          "name": "value",
          "type": "uint256"
        }
      ],
      "name": "Transfer",
      "type": "event"
    },
    {
      "inputs": [
        {
          "internalType": "address",
          "name": "owner",
          "type": "address"
        },
        {
          "internalType": "address",
          "name": "spender",
          "type": "address"
        }
      ],
      "name": "allowance",
      "outputs": [
        {
          "internalType": "uint256",
          "name": "",
          "type": "uint256"
        }
      ],
      "stateMutability": "view",
      "type": "function"
    },
    {
      "inputs": [
        {
          "internalType": "address",
          "name": "spender",
          "type": "address"
        },
        {
          "internalType": "uint256",
          "name": "amount",
          "type": "uint256"
        }
      ],
      "name": "approve",
      "outputs": [
        {
          "internalType": "bool",
          "name": "",
          "type": "bool"
        }
      ],
      "stateMutability": "nonpayable",
      "type": "function"
    },
    {
      "inputs": [
        {
          "internalType": "address",
          "name": "account",
          "type": "address"
        }
      ],
      "name": "balanceOf",
      "outputs": [
        {
          "internalType": "uint256",
          "name": "",
          "type": "uint256"
        }
      ],
      "stateMutability": "view",
      "type": "function"
    },
    {
      "inputs": [
        {
          "internalType": "uint256",
          "name": "amount",
          "type": "uint256"
        }
      ],
      "name": "burn",
      "outputs": [],
      "stateMutability": "nonpayable",
      "type": "function"
    },
    {
      "inputs": [
        {
          "internalType": "address",
          "name": "account",
          "type": "address"
        },
        {
          "internalType": "uint256",
          "name": "amount",
          "type": "uint256"
        }
      ],
      "name": "burnFrom",
      "outputs": [],
      "stateMutability": "nonpayable",
      "type": "function"
    },
    {
      "inputs": [],
      "name": "decimals",
      "outputs": [
        {
          "internalType": "uint8",
          "name": "",
          "type": "uint8"
        }
      ],
      "stateMutability": "view",
      "type": "function"
    },
    {
      "inputs": [
        {
          "internalType": "address",
          "name": "spender",
          "type": "address"
        },
        {
          "internalType": "uint256",
          "name": "subtractedValue",
          "type": "uint256"
        }
      ],
      "name": "decreaseAllowance",
      "outputs": [
        {
          "internalType": "bool",
          "name": "",
          "type": "bool"
        }
      ],
      "stateMutability": "nonpayable",
      "type": "function"
    },
    {
      "inputs": [
        {
          "internalType": "address",
          "name": "spender",
          "type": "address"
        },
        {
          "internalType": "uint256",
          "name": "addedValue",
          "type": "uint256"
        }
      ],
      "name": "increaseAllowance",
      "outputs": [
        {
          "internalType": "bool",
          "name": "",
          "type": "bool"
        }
      ],
      "stateMutability": "nonpayable",
      "type": "function"
    },
    {
      "inputs": [],
      "name": "name",
      "outputs": [
        {
          "internalType": "string",
          "name": "",
          "type": "string"
        }
      ],
      "stateMutability": "view",
      "type": "function"
    },
    {
      "inputs": [],
      "name": "symbol",
      "outputs": [
        {
          "internalType": "string",
          "name": "",
          "type": "string"
        }
      ],
      "stateMutability": "view",
      "type": "function"
    },
    {
      "inputs": [],
      "name": "totalSupply",
      "outputs": [
        {
          "internalType": "uint256",
          "name": "",
          "type": "uint256"
        }
      ],
      "stateMutability": "view",
      "type": "function"
    },
    {
      "inputs": [
        {
          "internalType": "address",
          "name": "recipient",
          "type": "address"
        },
        {
          "internalType": "uint256",
          "name": "amount",
          "type": "uint256"
        }
      ],
      "name": "transfer",
      "outputs": [
        {
          "internalType": "bool",
          "name": "",
          "type": "bool"
        }
      ],
      "stateMutability": "nonpayable",
      "type": "function"
    },
    {
      "inputs": [
        {
          "internalType": "address",
          "name": "sender",
          "type": "address"
        },
        {
          "internalType": "address",
          "name": "recipient",
          "type": "address"
        },
        {
          "internalType": "uint256",
          "name": "amount",
          "type": "uint256"
        }
      ],
      "name": "transferFrom",
      "outputs": [
        {
          "internalType": "bool",
          "name": "",
          "type": "bool"
        }
      ],
      "stateMutability": "nonpayable",
      "type": "function"
    },
    {
      "inputs": [
        {
          "internalType": "uint256",
          "name": "initialSupply",
          "type": "uint256"
        }
      ],
      "name": "initialize",
      "outputs": [],
      "stateMutability": "nonpayable",
      "type": "function"
    }
  ],
  "bytecode": "0x608060405234801561001057600080fd5b50611ff2806100206000396000f3fe608060405234801561001057600080fd5b50600436106100ea5760003560e01c806370a082311161008c578063a457c2d711610066578063a457c2d71461025f578063a9059cbb1461028f578063dd62ed3e146102bf578063fe4b84df146102ef576100ea565b806370a08231146101f557806379cc67901461022557806395d89b4114610241576100ea565b806323b872dd116100c857806323b872dd1461015b578063313ce5671461018b57806339509351146101a957806342966c68146101d9576100ea565b806306fdde03146100ef578063095ea7b31461010d57806318160ddd1461013d575b600080fd5b6100f761030b565b6040516101049190611854565b60405180910390f35b610127600480360381019061012291906115c2565b61039d565b6040516101349190611839565b60405180910390f35b6101456103bb565b60405161015291906119f6565b60405180910390f35b6101756004803603810190610170919061156f565b6103c5565b6040516101829190611839565b60405180910390f35b6101936104bd565b6040516101a09190611a11565b60405180910390f35b6101c360048036038101906101be91906115c2565b6104c6565b6040516101d09190611839565b60405180910390f35b6101f360048036038101906101ee9190611602565b610572565b005b61020f600480360381019061020a9190611502565b610586565b60405161021c91906119f6565b60405180910390f35b61023f600480360381019061023a91906115c2565b6105cf565b005b61024961064a565b6040516102569190611854565b60405180910390f35b610279600480360381019061027491906115c2565b6106dc565b6040516102869190611839565b60405180910390f35b6102a960048036038101906102a491906115c2565b6107c7565b6040516102b69190611839565b60405180910390f35b6102d960048036038101906102d4919061152f565b6107e5565b6040516102e691906119f6565b60405180910390f35b61030960048036038101906103049190611602565b61086c565b005b60606036805461031a90611b5a565b80601f016020809104026020016040519081016040528092919081815260200182805461034690611b5a565b80156103935780601f1061036857610100808354040283529160200191610393565b820191906000526020600020905b81548152906001019060200180831161037657829003601f168201915b5050505050905090565b60006103b16103aa6109cb565b84846109d3565b6001905092915050565b6000603554905090565b60006103d2848484610b9e565b6000603460008673ffffffffffffffffffffffffffffffffffffffff1673ffffffffffffffffffffffffffffffffffffffff168152602001908152602001600020600061041d6109cb565b73ffffffffffffffffffffffffffffffffffffffff1673ffffffffffffffffffffffffffffffffffffffff1681526020019081526020016000205490508281101561049d576040517f08c379a000000000000000000000000000000000000000000000000000000000815260040161049490611916565b60405180910390fd5b6104b1856104a96109cb565b8584036109d3565b60019150509392505050565b60006012905090565b60006105686104d36109cb565b8484603460006104e16109cb565b73ffffffffffffffffffffffffffffffffffffffff1673ffffffffffffffffffffffffffffffffffffffff16815260200190815260200160002060008873ffffffffffffffffffffffffffffffffffffffff1673ffffffffffffffffffffffffffffffffffffffff168152602001908152602001600020546105639190611a48565b6109d3565b6001905092915050565b61058361057d6109cb565b82610e22565b50565b6000603360008373ffffffffffffffffffffffffffffffffffffffff1673ffffffffffffffffffffffffffffffffffffffff168152602001908152602001600020549050919050565b60006105e2836105dd6109cb565b6107e5565b905081811015610627576040517f08c379a000000000000000000000000000000000000000000000000000000000815260040161061e90611936565b60405180910390fd5b61063b836106336109cb565b8484036109d3565b6106458383610e22565b505050565b60606037805461065990611b5a565b80601f016020809104026020016040519081016040528092919081815260200182805461068590611b5a565b80156106d25780601f106106a7576101008083540402835291602001916106d2565b820191906000526020600020905b8154815290600101906020018083116106b557829003601f168201915b5050505050905090565b600080603460006106eb6109cb565b73ffffffffffffffffffffffffffffffffffffffff1673ffffffffffffffffffffffffffffffffffffffff16815260200190815260200160002060008573ffffffffffffffffffffffffffffffffffffffff1673ffffffffffffffffffffffffffffffffffffffff168152602001908152602001600020549050828110156107a8576040517f08c379a000000000000000000000000000000000000000000000000000000000815260040161079f906119b6565b60405180910390fd5b6107bc6107b36109cb565b858584036109d3565b600191505092915050565b60006107db6107d46109cb565b8484610b9e565b6001905092915050565b6000603460008473ffffffffffffffffffffffffffffffffffffffff1673ffffffffffffffffffffffffffffffffffffffff16815260200190815260200160002060008373ffffffffffffffffffffffffffffffffffffffff1673ffffffffffffffffffffffffffffffffffffffff16815260200190815260200160002054905092915050565b600060019054906101000a900460ff1680610892575060008054906101000a900460ff16155b6108d1576040517f08c379a00000000000000000000000000000000000000000000000000000000081526004016108c8906118f6565b60405180910390fd5b60008060019054906101000a900460ff161590508015610921576001600060016101000a81548160ff02191690831515021790555060016000806101000a81548160ff0219169083151502179055505b6109956040518060400160405280600781526020017f5369676e617461000000000000000000000000000000000000000000000000008152506040518060400160405280600481526020017f5341544100000000000000000000000000000000000000000000000000000000815250610ffb565b6109a66109a06109cb565b836110e8565b80156109c75760008060016101000a81548160ff0219169083151502179055505b5050565b600033905090565b600073ffffffffffffffffffffffffffffffffffffffff168373ffffffffffffffffffffffffffffffffffffffff161415610a43576040517f08c379a0000000000000000000000000000000000000000000000000000000008152600401610a3a90611996565b60405180910390fd5b600073ffffffffffffffffffffffffffffffffffffffff168273ffffffffffffffffffffffffffffffffffffffff161415610ab3576040517f08c379a0000000000000000000000000000000000000000000000000000000008152600401610aaa906118b6565b60405180910390fd5b80603460008573ffffffffffffffffffffffffffffffffffffffff1673ffffffffffffffffffffffffffffffffffffffff16815260200190815260200160002060008473ffffffffffffffffffffffffffffffffffffffff1673ffffffffffffffffffffffffffffffffffffffff168152602001908152602001600020819055508173ffffffffffffffffffffffffffffffffffffffff168373ffffffffffffffffffffffffffffffffffffffff167f8c5be1e5ebec7d5bd14f71427d1e84f3dd0314c0f7b2291e5b200ac8c7c3b92583604051610b9191906119f6565b60405180910390a3505050565b600073ffffffffffffffffffffffffffffffffffffffff168373ffffffffffffffffffffffffffffffffffffffff161415610c0e576040517f08c379a0000000000000000000000000000000000000000000000000000000008152600401610c0590611976565b60405180910390fd5b600073ffffffffffffffffffffffffffffffffffffffff168273ffffffffffffffffffffffffffffffffffffffff161415610c7e576040517f08c379a0000000000000000000000000000000000000000000000000000000008152600401610c7590611876565b60405180910390fd5b610c89838383611249565b6000603360008573ffffffffffffffffffffffffffffffffffffffff1673ffffffffffffffffffffffffffffffffffffffff16815260200190815260200160002054905081811015610d10576040517f08c379a0000000000000000000000000000000000000000000000000000000008152600401610d07906118d6565b60405180910390fd5b818103603360008673ffffffffffffffffffffffffffffffffffffffff1673ffffffffffffffffffffffffffffffffffffffff1681526020019081526020016000208190555081603360008573ffffffffffffffffffffffffffffffffffffffff1673ffffffffffffffffffffffffffffffffffffffff1681526020019081526020016000206000828254610da59190611a48565b925050819055508273ffffffffffffffffffffffffffffffffffffffff168473ffffffffffffffffffffffffffffffffffffffff167fddf252ad1be2c89b69c2b068fc378daa952ba7f163c4a11628f55a4df523b3ef84604051610e0991906119f6565b60405180910390a3610e1c84848461124e565b50505050565b600073ffffffffffffffffffffffffffffffffffffffff168273ffffffffffffffffffffffffffffffffffffffff161415610e92576040517f08c379a0000000000000000000000000000000000000000000000000000000008152600401610e8990611956565b60405180910390fd5b610e9e82600083611249565b6000603360008473ffffffffffffffffffffffffffffffffffffffff1673ffffffffffffffffffffffffffffffffffffffff16815260200190815260200160002054905081811015610f25576040517f08c379a0000000000000000000000000000000000000000000000000000000008152600401610f1c90611896565b60405180910390fd5b818103603360008573ffffffffffffffffffffffffffffffffffffffff1673ffffffffffffffffffffffffffffffffffffffff168152602001908152602001600020819055508160356000828254610f7d9190611a9e565b92505081905550600073ffffffffffffffffffffffffffffffffffffffff168373ffffffffffffffffffffffffffffffffffffffff167fddf252ad1be2c89b69c2b068fc378daa952ba7f163c4a11628f55a4df523b3ef84604051610fe291906119f6565b60405180910390a3610ff68360008461124e565b505050565b600060019054906101000a900460ff1680611021575060008054906101000a900460ff16155b611060576040517f08c379a0000000000000000000000000000000000000000000000000000000008152600401611057906118f6565b60405180910390fd5b60008060019054906101000a900460ff1615905080156110b0576001600060016101000a81548160ff02191690831515021790555060016000806101000a81548160ff0219169083151502179055505b6110b8611253565b6110c2838361132c565b80156110e35760008060016101000a81548160ff0219169083151502179055505b505050565b600073ffffffffffffffffffffffffffffffffffffffff168273ffffffffffffffffffffffffffffffffffffffff161415611158576040517f08c379a000000000000000000000000000000000000000000000000000000000815260040161114f906119d6565b60405180910390fd5b61116460008383611249565b80603560008282546111769190611a48565b9250508190555080603360008473ffffffffffffffffffffffffffffffffffffffff1673ffffffffffffffffffffffffffffffffffffffff16815260200190815260200160002060008282546111cc9190611a48565b925050819055508173ffffffffffffffffffffffffffffffffffffffff16600073ffffffffffffffffffffffffffffffffffffffff167fddf252ad1be2c89b69c2b068fc378daa952ba7f163c4a11628f55a4df523b3ef8360405161123191906119f6565b60405180910390a36112456000838361124e565b5050565b505050565b505050565b600060019054906101000a900460ff1680611279575060008054906101000a900460ff16155b6112b8576040517f08c379a00000000000000000000000000000000000000000000000000000000081526004016112af906118f6565b60405180910390fd5b60008060019054906101000a900460ff161590508015611308576001600060016101000a81548160ff02191690831515021790555060016000806101000a81548160ff0219169083151502179055505b80156113295760008060016101000a81548160ff0219169083151502179055505b50565b600060019054906101000a900460ff1680611352575060008054906101000a900460ff16155b611391576040517f08c379a0000000000000000000000000000000000000000000000000000000008152600401611388906118f6565b60405180910390fd5b60008060019054906101000a900460ff1615905080156113e1576001600060016101000a81548160ff02191690831515021790555060016000806101000a81548160ff0219169083151502179055505b82603690805190602001906113f7929190611435565b50816037908051906020019061140e929190611435565b5080156114305760008060016101000a81548160ff0219169083151502179055505b505050565b82805461144190611b5a565b90600052602060002090601f01602090048101928261146357600085556114aa565b82601f1061147c57805160ff19168380011785556114aa565b828001600101855582156114aa579182015b828111156114a957825182559160200191906001019061148e565b5b5090506114b791906114bb565b5090565b5b808211156114d45760008160009055506001016114bc565b5090565b6000813590506114e781611f8e565b92915050565b6000813590506114fc81611fa5565b92915050565b60006020828403121561151857611517611bea565b5b6000611526848285016114d8565b91505092915050565b6000806040838503121561154657611545611bea565b5b6000611554858286016114d8565b9250506020611565858286016114d8565b9150509250929050565b60008060006060848603121561158857611587611bea565b5b6000611596868287016114d8565b93505060206115a7868287016114d8565b92505060406115b8868287016114ed565b9150509250925092565b600080604083850312156115d9576115d8611bea565b5b60006115e7858286016114d8565b92505060206115f8858286016114ed565b9150509250929050565b60006020828403121561161857611617611bea565b5b6000611626848285016114ed565b91505092915050565b61163881611ae4565b82525050565b600061164982611a2c565b6116538185611a37565b9350611663818560208601611b27565b61166c81611bef565b840191505092915050565b6000611684602383611a37565b915061168f82611c00565b604082019050919050565b60006116a7602283611a37565b91506116b282611c4f565b604082019050919050565b60006116ca602283611a37565b91506116d582611c9e565b604082019050919050565b60006116ed602683611a37565b91506116f882611ced565b604082019050919050565b6000611710602e83611a37565b915061171b82611d3c565b604082019050919050565b6000611733602883611a37565b915061173e82611d8b565b604082019050919050565b6000611756602483611a37565b915061176182611dda565b604082019050919050565b6000611779602183611a37565b915061178482611e29565b604082019050919050565b600061179c602583611a37565b91506117a782611e78565b604082019050919050565b60006117bf602483611a37565b91506117ca82611ec7565b604082019050919050565b60006117e2602583611a37565b91506117ed82611f16565b604082019050919050565b6000611805601f83611a37565b915061181082611f65565b602082019050919050565b61182481611b10565b82525050565b61183381611b1a565b82525050565b600060208201905061184e600083018461162f565b92915050565b6000602082019050818103600083015261186e818461163e565b905092915050565b6000602082019050818103600083015261188f81611677565b9050919050565b600060208201905081810360008301526118af8161169a565b9050919050565b600060208201905081810360008301526118cf816116bd565b9050919050565b600060208201905081810360008301526118ef816116e0565b9050919050565b6000602082019050818103600083015261190f81611703565b9050919050565b6000602082019050818103600083015261192f81611726565b9050919050565b6000602082019050818103600083015261194f81611749565b9050919050565b6000602082019050818103600083015261196f8161176c565b9050919050565b6000602082019050818103600083015261198f8161178f565b9050919050565b600060208201905081810360008301526119af816117b2565b9050919050565b600060208201905081810360008301526119cf816117d5565b9050919050565b600060208201905081810360008301526119ef816117f8565b9050919050565b6000602082019050611a0b600083018461181b565b92915050565b6000602082019050611a26600083018461182a565b92915050565b600081519050919050565b600082825260208201905092915050565b6000611a5382611b10565b9150611a5e83611b10565b9250827fffffffffffffffffffffffffffffffffffffffffffffffffffffffffffffffff03821115611a9357611a92611b8c565b5b828201905092915050565b6000611aa982611b10565b9150611ab483611b10565b925082821015611ac757611ac6611b8c565b5b828203905092915050565b6000611add82611af0565b9050919050565b60008115159050919050565b600073ffffffffffffffffffffffffffffffffffffffff82169050919050565b6000819050919050565b600060ff82169050919050565b60005b83811015611b45578082015181840152602081019050611b2a565b83811115611b54576000848401525b50505050565b60006002820490506001821680611b7257607f821691505b60208210811415611b8657611b85611bbb565b5b50919050565b7f4e487b7100000000000000000000000000000000000000000000000000000000600052601160045260246000fd5b7f4e487b7100000000000000000000000000000000000000000000000000000000600052602260045260246000fd5b600080fd5b6000601f19601f8301169050919050565b7f45524332303a207472616e7366657220746f20746865207a65726f206164647260008201527f6573730000000000000000000000000000000000000000000000000000000000602082015250565b7f45524332303a206275726e20616d6f756e7420657863656564732062616c616e60008201527f6365000000000000000000000000000000000000000000000000000000000000602082015250565b7f45524332303a20617070726f766520746f20746865207a65726f20616464726560008201527f7373000000000000000000000000000000000000000000000000000000000000602082015250565b7f45524332303a207472616e7366657220616d6f756e742065786365656473206260008201527f616c616e63650000000000000000000000000000000000000000000000000000602082015250565b7f496e697469616c697a61626c653a20636f6e747261637420697320616c72656160008201527f647920696e697469616c697a6564000000000000000000000000000000000000602082015250565b7f45524332303a207472616e7366657220616d6f756e742065786365656473206160008201527f6c6c6f77616e6365000000000000000000000000000000000000000000000000602082015250565b7f45524332303a206275726e20616d6f756e74206578636565647320616c6c6f7760008201527f616e636500000000000000000000000000000000000000000000000000000000602082015250565b7f45524332303a206275726e2066726f6d20746865207a65726f2061646472657360008201527f7300000000000000000000000000000000000000000000000000000000000000602082015250565b7f45524332303a207472616e736665722066726f6d20746865207a65726f20616460008201527f6472657373000000000000000000000000000000000000000000000000000000602082015250565b7f45524332303a20617070726f76652066726f6d20746865207a65726f2061646460008201527f7265737300000000000000000000000000000000000000000000000000000000602082015250565b7f45524332303a2064656372656173656420616c6c6f77616e63652062656c6f7760008201527f207a65726f000000000000000000000000000000000000000000000000000000602082015250565b7f45524332303a206d696e7420746f20746865207a65726f206164647265737300600082015250565b611f9781611ad2565b8114611fa257600080fd5b50565b611fae81611b10565b8114611fb957600080fd5b5056fea264697066735822122033c190b24d351c2eeac29007a0996b88d6236a78972b633f09d77c271c0b953f64736f6c63430008070033",
  "immutableReferences": {},
  "source": "// SPDX-License-Identifier: MIT\r\npragma solidity 0.8.7;\r\n\r\nimport \"@openzeppelin/contracts-upgradeable/token/ERC20/ERC20Upgradeable.sol\";\r\n// import \"@openzeppelin/contracts-upgradeable/access/Ownable.sol\";\r\nimport \"@openzeppelin/contracts-upgradeable/proxy/utils/Initializable.sol\";\r\nimport \"@openzeppelin/contracts-upgradeable/token/ERC20/extensions/ERC20BurnableUpgradeable.sol\";\r\n\r\ncontract SATAUpgradeable is\r\n  Initializable,\r\n  ERC20Upgradeable,\r\n  ERC20BurnableUpgradeable {\r\n\r\n  function initialize(uint256 initialSupply) public virtual initializer {\r\n    __ERC20_init(\"Signata\", \"SATA\");\r\n    _mint(_msgSender(), initialSupply);\r\n  }\r\n}\r\n",
  "sourcePath": "C:\\Users\\tim\\Projects\\GitHub\\sata-contracts-v1\\contracts\\SATAUpgradeable.sol",
  "compiler": {
    "name": "solc",
    "version": "0.8.7+commit.e28d00a7.Emscripten.clang"
  },
  "schemaVersion": "3.4.3",
  "updatedAt": "2021-09-16T12:31:55.495Z",
  "devdoc": {
    "kind": "dev",
    "methods": {
      "allowance(address,address)": {
        "details": "See {IERC20-allowance}."
      },
      "approve(address,uint256)": {
        "details": "See {IERC20-approve}. Requirements: - `spender` cannot be the zero address."
      },
      "balanceOf(address)": {
        "details": "See {IERC20-balanceOf}."
      },
      "burn(uint256)": {
        "details": "Destroys `amount` tokens from the caller. See {ERC20-_burn}."
      },
      "burnFrom(address,uint256)": {
        "details": "Destroys `amount` tokens from `account`, deducting from the caller's allowance. See {ERC20-_burn} and {ERC20-allowance}. Requirements: - the caller must have allowance for ``accounts``'s tokens of at least `amount`."
      },
      "decimals()": {
        "details": "Returns the number of decimals used to get its user representation. For example, if `decimals` equals `2`, a balance of `505` tokens should be displayed to a user as `5.05` (`505 / 10 ** 2`). Tokens usually opt for a value of 18, imitating the relationship between Ether and Wei. This is the value {ERC20} uses, unless this function is overridden; NOTE: This information is only used for _display_ purposes: it in no way affects any of the arithmetic of the contract, including {IERC20-balanceOf} and {IERC20-transfer}."
      },
      "decreaseAllowance(address,uint256)": {
        "details": "Atomically decreases the allowance granted to `spender` by the caller. This is an alternative to {approve} that can be used as a mitigation for problems described in {IERC20-approve}. Emits an {Approval} event indicating the updated allowance. Requirements: - `spender` cannot be the zero address. - `spender` must have allowance for the caller of at least `subtractedValue`."
      },
      "increaseAllowance(address,uint256)": {
        "details": "Atomically increases the allowance granted to `spender` by the caller. This is an alternative to {approve} that can be used as a mitigation for problems described in {IERC20-approve}. Emits an {Approval} event indicating the updated allowance. Requirements: - `spender` cannot be the zero address."
      },
      "name()": {
        "details": "Returns the name of the token."
      },
      "symbol()": {
        "details": "Returns the symbol of the token, usually a shorter version of the name."
      },
      "totalSupply()": {
        "details": "See {IERC20-totalSupply}."
      },
      "transfer(address,uint256)": {
        "details": "See {IERC20-transfer}. Requirements: - `recipient` cannot be the zero address. - the caller must have a balance of at least `amount`."
      },
      "transferFrom(address,address,uint256)": {
        "details": "See {IERC20-transferFrom}. Emits an {Approval} event indicating the updated allowance. This is not required by the EIP. See the note at the beginning of {ERC20}. Requirements: - `sender` and `recipient` cannot be the zero address. - `sender` must have a balance of at least `amount`. - the caller must have allowance for ``sender``'s tokens of at least `amount`."
      }
    },
    "version": 1
  },
  "userdoc": {
    "kind": "user",
    "methods": {},
    "version": 1
  }
}