{
  "contractName": "SATAAirdropV1",
  "abi": [
    {
      "inputs": [
        {
          "internalType": "address",
          "name": "_token",
          "type": "address"
        },
        {
          "internalType": "uint256",
          "name": "_airdropAmount",
          "type": "uint256"
        },
        {
          "internalType": "uint256",
          "name": "_minBalance",
          "type": "uint256"
        }
      ],
      "stateMutability": "nonpayable",
      "type": "constructor"
    },
    {
      "anonymous": false,
      "inputs": [
        {
          "indexed": true,
          "internalType": "address",
          "name": "previousOwner",
          "type": "address"
        },
        {
          "indexed": true,
          "internalType": "address",
          "name": "newOwner",
          "type": "address"
        }
      ],
      "name": "OwnershipTransferred",
      "type": "event"
    },
    {
      "inputs": [
        {
          "internalType": "address",
          "name": "",
          "type": "address"
        }
      ],
      "name": "claimedAddresses",
      "outputs": [
        {
          "internalType": "bool",
          "name": "",
          "type": "bool"
        }
      ],
      "stateMutability": "view",
      "type": "function",
      "constant": true
    },
    {
      "inputs": [],
      "name": "owner",
      "outputs": [
        {
          "internalType": "address",
          "name": "",
          "type": "address"
        }
      ],
      "stateMutability": "view",
      "type": "function",
      "constant": true
    },
    {
      "inputs": [],
      "name": "renounceOwnership",
      "outputs": [],
      "stateMutability": "nonpayable",
      "type": "function"
    },
    {
      "inputs": [],
      "name": "token",
      "outputs": [
        {
          "internalType": "contract IERC20",
          "name": "",
          "type": "address"
        }
      ],
      "stateMutability": "view",
      "type": "function",
      "constant": true
    },
    {
      "inputs": [
        {
          "internalType": "address",
          "name": "newOwner",
          "type": "address"
        }
      ],
      "name": "transferOwnership",
      "outputs": [],
      "stateMutability": "nonpayable",
      "type": "function"
    },
    {
      "inputs": [
        {
          "internalType": "address",
          "name": "recipient",
          "type": "address"
        }
      ],
      "name": "endAirdrop",
      "outputs": [],
      "stateMutability": "nonpayable",
      "type": "function"
    },
    {
      "inputs": [],
      "name": "availableTokens",
      "outputs": [
        {
          "internalType": "uint256",
          "name": "",
          "type": "uint256"
        }
      ],
      "stateMutability": "view",
      "type": "function",
      "constant": true
    },
    {
      "inputs": [],
      "name": "claim",
      "outputs": [],
      "stateMutability": "nonpayable",
      "type": "function"
    }
  ],
  "bytecode": "0x60a06040523480156200001157600080fd5b506040516200124c3803806200124c83398181016040528101906200003791906200016b565b6000620000496200013560201b60201c565b9050806000806101000a81548173ffffffffffffffffffffffffffffffffffffffff021916908373ffffffffffffffffffffffffffffffffffffffff1602179055508073ffffffffffffffffffffffffffffffffffffffff16600073ffffffffffffffffffffffffffffffffffffffff167f8be0079c531659141344cd1fd0a4f28419497f9722a3daafe3b4186f6b6457e060405160405180910390a3508273ffffffffffffffffffffffffffffffffffffffff1660808173ffffffffffffffffffffffffffffffffffffffff1660601b81525050816001819055508060028190555050505062000233565b600033905090565b6000815190506200014e81620001ff565b92915050565b600081519050620001658162000219565b92915050565b6000806000606084860312156200018157600080fd5b600062000191868287016200013d565b9350506020620001a48682870162000154565b9250506040620001b78682870162000154565b9150509250925092565b6000620001ce82620001d5565b9050919050565b600073ffffffffffffffffffffffffffffffffffffffff82169050919050565b6000819050919050565b6200020a81620001c1565b81146200021657600080fd5b50565b6200022481620001f5565b81146200023057600080fd5b50565b60805160601c610fd06200027c600039600081816101e3015281816102cc015281816103090152818161042801528181610653015281816107070152610ae10152610fd06000f3fe608060405234801561001057600080fd5b50600436106100885760003560e01c80638da5cb5b1161005b5780638da5cb5b146100db578063f1429a96146100f9578063f2fde38b14610129578063fc0c546a1461014557610088565b80631970853c1461008d5780634e71d92d146100a957806369bb4dc2146100b3578063715018a6146100d1575b600080fd5b6100a760048036038101906100a29190610b4a565b610163565b005b6100b1610423565b005b6100bb610703565b6040516100c89190610dca565b60405180910390f35b6100d96107b3565b005b6100e36108ed565b6040516100f09190610cb0565b60405180910390f35b610113600480360381019061010e9190610b4a565b610916565b6040516101209190610cf4565b60405180910390f35b610143600480360381019061013e9190610b4a565b610936565b005b61014d610adf565b60405161015a9190610d0f565b60405180910390f35b61016b610b03565b73ffffffffffffffffffffffffffffffffffffffff166101896108ed565b73ffffffffffffffffffffffffffffffffffffffff16146101df576040517f08c379a00000000000000000000000000000000000000000000000000000000081526004016101d690610d8a565b60405180910390fd5b60007f000000000000000000000000000000000000000000000000000000000000000073ffffffffffffffffffffffffffffffffffffffff166370a08231306040518263ffffffff1660e01b815260040161023a9190610cb0565b60206040518083038186803b15801561025257600080fd5b505afa158015610266573d6000803e3d6000fd5b505050506040513d601f19601f8201168201806040525081019061028a9190610b9c565b116102ca576040517f08c379a00000000000000000000000000000000000000000000000000000000081526004016102c190610daa565b60405180910390fd5b7f000000000000000000000000000000000000000000000000000000000000000073ffffffffffffffffffffffffffffffffffffffff1663a9059cbb827f000000000000000000000000000000000000000000000000000000000000000073ffffffffffffffffffffffffffffffffffffffff166370a08231306040518263ffffffff1660e01b81526004016103609190610cb0565b60206040518083038186803b15801561037857600080fd5b505afa15801561038c573d6000803e3d6000fd5b505050506040513d601f19601f820116820180604052508101906103b09190610b9c565b6040518363ffffffff1660e01b81526004016103cd929190610ccb565b602060405180830381600087803b1580156103e757600080fd5b505af11580156103fb573d6000803e3d6000fd5b505050506040513d601f19601f8201168201806040525081019061041f9190610b73565b5050565b6001547f000000000000000000000000000000000000000000000000000000000000000073ffffffffffffffffffffffffffffffffffffffff166370a08231306040518263ffffffff1660e01b815260040161047f9190610cb0565b60206040518083038186803b15801561049757600080fd5b505afa1580156104ab573d6000803e3d6000fd5b505050506040513d601f19601f820116820180604052508101906104cf9190610b9c565b1015610510576040517f08c379a000000000000000000000000000000000000000000000000000000000815260040161050790610daa565b60405180910390fd5b600360003373ffffffffffffffffffffffffffffffffffffffff1673ffffffffffffffffffffffffffffffffffffffff16815260200190815260200160002060009054906101000a900460ff161561059d576040517f08c379a000000000000000000000000000000000000000000000000000000000815260040161059490610d2a565b60405180910390fd5b6002543373ffffffffffffffffffffffffffffffffffffffff163110156105f9576040517f08c379a00000000000000000000000000000000000000000000000000000000081526004016105f090610d4a565b60405180910390fd5b6001600360003373ffffffffffffffffffffffffffffffffffffffff1673ffffffffffffffffffffffffffffffffffffffff16815260200190815260200160002060006101000a81548160ff0219169083151502179055507f000000000000000000000000000000000000000000000000000000000000000073ffffffffffffffffffffffffffffffffffffffff1663a9059cbb336001546040518363ffffffff1660e01b81526004016106ae929190610ccb565b602060405180830381600087803b1580156106c857600080fd5b505af11580156106dc573d6000803e3d6000fd5b505050506040513d601f19601f820116820180604052508101906107009190610b73565b50565b60007f000000000000000000000000000000000000000000000000000000000000000073ffffffffffffffffffffffffffffffffffffffff166370a08231306040518263ffffffff1660e01b815260040161075e9190610cb0565b60206040518083038186803b15801561077657600080fd5b505afa15801561078a573d6000803e3d6000fd5b505050506040513d601f19601f820116820180604052508101906107ae9190610b9c565b905090565b6107bb610b03565b73ffffffffffffffffffffffffffffffffffffffff166107d96108ed565b73ffffffffffffffffffffffffffffffffffffffff161461082f576040517f08c379a000000000000000000000000000000000000000000000000000000000815260040161082690610d8a565b60405180910390fd5b600073ffffffffffffffffffffffffffffffffffffffff1660008054906101000a900473ffffffffffffffffffffffffffffffffffffffff1673ffffffffffffffffffffffffffffffffffffffff167f8be0079c531659141344cd1fd0a4f28419497f9722a3daafe3b4186f6b6457e060405160405180910390a360008060006101000a81548173ffffffffffffffffffffffffffffffffffffffff021916908373ffffffffffffffffffffffffffffffffffffffff160217905550565b60008060009054906101000a900473ffffffffffffffffffffffffffffffffffffffff16905090565b60036020528060005260406000206000915054906101000a900460ff1681565b61093e610b03565b73ffffffffffffffffffffffffffffffffffffffff1661095c6108ed565b73ffffffffffffffffffffffffffffffffffffffff16146109b2576040517f08c379a00000000000000000000000000000000000000000000000000000000081526004016109a990610d8a565b60405180910390fd5b600073ffffffffffffffffffffffffffffffffffffffff168173ffffffffffffffffffffffffffffffffffffffff161415610a22576040517f08c379a0000000000000000000000000000000000000000000000000000000008152600401610a1990610d6a565b60405180910390fd5b8073ffffffffffffffffffffffffffffffffffffffff1660008054906101000a900473ffffffffffffffffffffffffffffffffffffffff1673ffffffffffffffffffffffffffffffffffffffff167f8be0079c531659141344cd1fd0a4f28419497f9722a3daafe3b4186f6b6457e060405160405180910390a3806000806101000a81548173ffffffffffffffffffffffffffffffffffffffff021916908373ffffffffffffffffffffffffffffffffffffffff16021790555050565b7f000000000000000000000000000000000000000000000000000000000000000081565b600033905090565b600081359050610b1a81610f55565b92915050565b600081519050610b2f81610f6c565b92915050565b600081519050610b4481610f83565b92915050565b600060208284031215610b5c57600080fd5b6000610b6a84828501610b0b565b91505092915050565b600060208284031215610b8557600080fd5b6000610b9384828501610b20565b91505092915050565b600060208284031215610bae57600080fd5b6000610bbc84828501610b35565b91505092915050565b610bce81610df6565b82525050565b610bdd81610e08565b82525050565b610bec81610e3e565b82525050565b6000610bff601883610de5565b9150610c0a82610e62565b602082019050919050565b6000610c22601083610de5565b9150610c2d82610e8b565b602082019050919050565b6000610c45602683610de5565b9150610c5082610eb4565b604082019050919050565b6000610c68602083610de5565b9150610c7382610f03565b602082019050919050565b6000610c8b601183610de5565b9150610c9682610f2c565b602082019050919050565b610caa81610e34565b82525050565b6000602082019050610cc56000830184610bc5565b92915050565b6000604082019050610ce06000830185610bc5565b610ced6020830184610ca1565b9392505050565b6000602082019050610d096000830184610bd4565b92915050565b6000602082019050610d246000830184610be3565b92915050565b60006020820190508181036000830152610d4381610bf2565b9050919050565b60006020820190508181036000830152610d6381610c15565b9050919050565b60006020820190508181036000830152610d8381610c38565b9050919050565b60006020820190508181036000830152610da381610c5b565b9050919050565b60006020820190508181036000830152610dc381610c7e565b9050919050565b6000602082019050610ddf6000830184610ca1565b92915050565b600082825260208201905092915050565b6000610e0182610e14565b9050919050565b60008115159050919050565b600073ffffffffffffffffffffffffffffffffffffffff82169050919050565b6000819050919050565b6000610e4982610e50565b9050919050565b6000610e5b82610e14565b9050919050565b7f41697264726f7020616c726561647920636c61696d65642e0000000000000000600082015250565b7f496e76616c6964206163636f756e742e00000000000000000000000000000000600082015250565b7f4f776e61626c653a206e6577206f776e657220697320746865207a65726f206160008201527f6464726573730000000000000000000000000000000000000000000000000000602082015250565b7f4f776e61626c653a2063616c6c6572206973206e6f7420746865206f776e6572600082015250565b7f41697264726f70206465706c657465642e000000000000000000000000000000600082015250565b610f5e81610df6565b8114610f6957600080fd5b50565b610f7581610e08565b8114610f8057600080fd5b50565b610f8c81610e34565b8114610f9757600080fd5b5056fea26469706673582212207c160577ae349cabe15865f77e97ec80bb6fdcd5fdaa66ae536dcbf4b2f340ec64736f6c63430008030033",
  "immutableReferences": {
    "12": [
      {
        "length": 32,
        "start": 483
      },
      {
        "length": 32,
        "start": 716
      },
      {
        "length": 32,
        "start": 777
      },
      {
        "length": 32,
        "start": 1064
      },
      {
        "length": 32,
        "start": 1619
      },
      {
        "length": 32,
        "start": 1799
      },
      {
        "length": 32,
        "start": 2785
      }
    ]
  },
  "source": "// SPDX-License-Identifier: MIT\npragma solidity 0.8.3;\n\nimport \"@openzeppelin/contracts/access/Ownable.sol\";\nimport \"@openzeppelin/contracts/token/ERC20/IERC20.sol\";\n\ncontract SATAAirdropV1 is Ownable {\n  uint256 private airdropAmount;\n  uint256 private reqEthBalance; // 100000000000000000 for 0.1 ETH\n  IERC20 public immutable token;\n  mapping (address => bool) public claimedAddresses;\n\n  constructor(address _token, uint256 _airdropAmount, uint256 _minBalance) {\n    token = IERC20(_token);\n    airdropAmount = _airdropAmount;\n    reqEthBalance = _minBalance;\n  }\n\n  function endAirdrop(address recipient) external onlyOwner {\n    require(token.balanceOf(address(this)) > 0, \"Airdrop depleted.\");\n    // return the remaining tokens to the specified address\n    token.transfer(recipient, token.balanceOf(address(this)));\n  }\n\n  function availableTokens() external view returns (uint256) {\n    return token.balanceOf(address(this));\n  }\n\n  function claim() external {\n    // claim eligibility checks\n    require(token.balanceOf(address(this)) >= airdropAmount, \"Airdrop depleted.\");\n    require(!claimedAddresses[msg.sender], \"Airdrop already claimed.\");\n    require(msg.sender.balance >= reqEthBalance, \"Invalid account.\"); // 0.1 ETH Required\n\n    // add the requestor to the array\n    claimedAddresses[msg.sender] = true;\n\n    // send them tokens\n    token.transfer(msg.sender, airdropAmount);\n  }\n}\n",
  "sourcePath": "C:/Users/tim/Projects/Github/sata-contracts-v1/contracts/Airdrop.sol",
  "compiler": {
    "name": "solc",
    "version": "0.8.3+commit.8d00100c.Emscripten.clang"
  },
  "schemaVersion": "3.3.4",
  "updatedAt": "2021-03-31T08:55:41.554Z",
  "networkType": "ethereum",
  "devdoc": {
    "kind": "dev",
    "methods": {
      "owner()": {
        "details": "Returns the address of the current owner."
      },
      "renounceOwnership()": {
        "details": "Leaves the contract without owner. It will not be possible to call `onlyOwner` functions anymore. Can only be called by the current owner. NOTE: Renouncing ownership will leave the contract without an owner, thereby removing any functionality that is only available to the owner."
      },
      "transferOwnership(address)": {
        "details": "Transfers ownership of the contract to a new account (`newOwner`). Can only be called by the current owner."
      }
    },
    "version": 1
  },
  "userdoc": {
    "kind": "user",
    "methods": {},
    "version": 1
  }
}