{
  "contractName": "SATADynamic",
  "abi": [
    {
      "inputs": [
        {
          "internalType": "address",
          "name": "supplyController_",
          "type": "address"
        },
        {
          "internalType": "uint256",
          "name": "initialSupply",
          "type": "uint256"
        }
      ],
      "stateMutability": "nonpayable",
      "type": "constructor"
    },
    {
      "anonymous": false,
      "inputs": [
        {
          "indexed": true,
          "internalType": "address",
          "name": "owner",
          "type": "address"
        },
        {
          "indexed": true,
          "internalType": "address",
          "name": "spender",
          "type": "address"
        },
        {
          "indexed": false,
          "internalType": "uint256",
          "name": "value",
          "type": "uint256"
        }
      ],
      "name": "Approval",
      "type": "event"
    },
    {
      "anonymous": false,
      "inputs": [
        {
          "indexed": true,
          "internalType": "address",
          "name": "previousOwner",
          "type": "address"
        },
        {
          "indexed": true,
          "internalType": "address",
          "name": "newOwner",
          "type": "address"
        }
      ],
      "name": "OwnershipTransferred",
      "type": "event"
    },
    {
      "anonymous": false,
      "inputs": [
        {
          "indexed": true,
          "internalType": "address",
          "name": "from",
          "type": "address"
        },
        {
          "indexed": true,
          "internalType": "address",
          "name": "to",
          "type": "address"
        },
        {
          "indexed": false,
          "internalType": "uint256",
          "name": "value",
          "type": "uint256"
        }
      ],
      "name": "Transfer",
      "type": "event"
    },
    {
      "inputs": [
        {
          "internalType": "address",
          "name": "owner",
          "type": "address"
        },
        {
          "internalType": "address",
          "name": "spender",
          "type": "address"
        }
      ],
      "name": "allowance",
      "outputs": [
        {
          "internalType": "uint256",
          "name": "",
          "type": "uint256"
        }
      ],
      "stateMutability": "view",
      "type": "function"
    },
    {
      "inputs": [
        {
          "internalType": "address",
          "name": "spender",
          "type": "address"
        },
        {
          "internalType": "uint256",
          "name": "amount",
          "type": "uint256"
        }
      ],
      "name": "approve",
      "outputs": [
        {
          "internalType": "bool",
          "name": "",
          "type": "bool"
        }
      ],
      "stateMutability": "nonpayable",
      "type": "function"
    },
    {
      "inputs": [
        {
          "internalType": "address",
          "name": "account",
          "type": "address"
        }
      ],
      "name": "balanceOf",
      "outputs": [
        {
          "internalType": "uint256",
          "name": "",
          "type": "uint256"
        }
      ],
      "stateMutability": "view",
      "type": "function"
    },
    {
      "inputs": [],
      "name": "decimals",
      "outputs": [
        {
          "internalType": "uint8",
          "name": "",
          "type": "uint8"
        }
      ],
      "stateMutability": "view",
      "type": "function"
    },
    {
      "inputs": [
        {
          "internalType": "address",
          "name": "spender",
          "type": "address"
        },
        {
          "internalType": "uint256",
          "name": "subtractedValue",
          "type": "uint256"
        }
      ],
      "name": "decreaseAllowance",
      "outputs": [
        {
          "internalType": "bool",
          "name": "",
          "type": "bool"
        }
      ],
      "stateMutability": "nonpayable",
      "type": "function"
    },
    {
      "inputs": [
        {
          "internalType": "address",
          "name": "spender",
          "type": "address"
        },
        {
          "internalType": "uint256",
          "name": "addedValue",
          "type": "uint256"
        }
      ],
      "name": "increaseAllowance",
      "outputs": [
        {
          "internalType": "bool",
          "name": "",
          "type": "bool"
        }
      ],
      "stateMutability": "nonpayable",
      "type": "function"
    },
    {
      "inputs": [],
      "name": "name",
      "outputs": [
        {
          "internalType": "string",
          "name": "",
          "type": "string"
        }
      ],
      "stateMutability": "view",
      "type": "function"
    },
    {
      "inputs": [],
      "name": "owner",
      "outputs": [
        {
          "internalType": "address",
          "name": "",
          "type": "address"
        }
      ],
      "stateMutability": "view",
      "type": "function"
    },
    {
      "inputs": [],
      "name": "renounceOwnership",
      "outputs": [],
      "stateMutability": "nonpayable",
      "type": "function"
    },
    {
      "inputs": [],
      "name": "symbol",
      "outputs": [
        {
          "internalType": "string",
          "name": "",
          "type": "string"
        }
      ],
      "stateMutability": "view",
      "type": "function"
    },
    {
      "inputs": [],
      "name": "totalSupply",
      "outputs": [
        {
          "internalType": "uint256",
          "name": "",
          "type": "uint256"
        }
      ],
      "stateMutability": "view",
      "type": "function"
    },
    {
      "inputs": [
        {
          "internalType": "address",
          "name": "recipient",
          "type": "address"
        },
        {
          "internalType": "uint256",
          "name": "amount",
          "type": "uint256"
        }
      ],
      "name": "transfer",
      "outputs": [
        {
          "internalType": "bool",
          "name": "",
          "type": "bool"
        }
      ],
      "stateMutability": "nonpayable",
      "type": "function"
    },
    {
      "inputs": [
        {
          "internalType": "address",
          "name": "sender",
          "type": "address"
        },
        {
          "internalType": "address",
          "name": "recipient",
          "type": "address"
        },
        {
          "internalType": "uint256",
          "name": "amount",
          "type": "uint256"
        }
      ],
      "name": "transferFrom",
      "outputs": [
        {
          "internalType": "bool",
          "name": "",
          "type": "bool"
        }
      ],
      "stateMutability": "nonpayable",
      "type": "function"
    },
    {
      "inputs": [
        {
          "internalType": "address",
          "name": "newOwner",
          "type": "address"
        }
      ],
      "name": "transferOwnership",
      "outputs": [],
      "stateMutability": "nonpayable",
      "type": "function"
    },
    {
      "inputs": [
        {
          "internalType": "address",
          "name": "newSupplyController",
          "type": "address"
        }
      ],
      "name": "changeSupplyController",
      "outputs": [],
      "stateMutability": "nonpayable",
      "type": "function"
    },
    {
      "inputs": [],
      "name": "enableSupplyControl",
      "outputs": [],
      "stateMutability": "nonpayable",
      "type": "function"
    },
    {
      "inputs": [],
      "name": "disableSupplyControl",
      "outputs": [],
      "stateMutability": "nonpayable",
      "type": "function"
    },
    {
      "inputs": [
        {
          "internalType": "address",
          "name": "account",
          "type": "address"
        },
        {
          "internalType": "uint256",
          "name": "amount",
          "type": "uint256"
        }
      ],
      "name": "mint",
      "outputs": [],
      "stateMutability": "nonpayable",
      "type": "function"
    },
    {
      "inputs": [
        {
          "internalType": "address",
          "name": "account",
          "type": "address"
        },
        {
          "internalType": "uint256",
          "name": "amount",
          "type": "uint256"
        }
      ],
      "name": "burn",
      "outputs": [],
      "stateMutability": "nonpayable",
      "type": "function"
    }
  ],
  "bytecode": "0x60806040526000600560146101000a81548160ff0219169083151502179055503480156200002c57600080fd5b5060405162002b0d38038062002b0d8339818101604052810190620000529190620004a1565b6040518060400160405280600781526020017f5369676e617461000000000000000000000000000000000000000000000000008152506040518060400160405280600481526020017f53415441000000000000000000000000000000000000000000000000000000008152508160039080519060200190620000d6929190620003c3565b508060049080519060200190620000ef929190620003c3565b50505062000112620001066200017260201b60201c565b6200017a60201b60201c565b81600660006101000a81548173ffffffffffffffffffffffffffffffffffffffff021916908373ffffffffffffffffffffffffffffffffffffffff1602179055506200016a33826200024060201b62000e941760201c565b505062000701565b600033905090565b6000600560009054906101000a900473ffffffffffffffffffffffffffffffffffffffff16905081600560006101000a81548173ffffffffffffffffffffffffffffffffffffffff021916908373ffffffffffffffffffffffffffffffffffffffff1602179055508173ffffffffffffffffffffffffffffffffffffffff168173ffffffffffffffffffffffffffffffffffffffff167f8be0079c531659141344cd1fd0a4f28419497f9722a3daafe3b4186f6b6457e060405160405180910390a35050565b600073ffffffffffffffffffffffffffffffffffffffff168273ffffffffffffffffffffffffffffffffffffffff161415620002b3576040517f08c379a0000000000000000000000000000000000000000000000000000000008152600401620002aa9062000520565b60405180910390fd5b620002c760008383620003b960201b60201c565b8060026000828254620002db919062000570565b92505081905550806000808473ffffffffffffffffffffffffffffffffffffffff1673ffffffffffffffffffffffffffffffffffffffff168152602001908152602001600020600082825462000332919062000570565b925050819055508173ffffffffffffffffffffffffffffffffffffffff16600073ffffffffffffffffffffffffffffffffffffffff167fddf252ad1be2c89b69c2b068fc378daa952ba7f163c4a11628f55a4df523b3ef8360405162000399919062000542565b60405180910390a3620003b560008383620003be60201b60201c565b5050565b505050565b505050565b828054620003d1906200060b565b90600052602060002090601f016020900481019282620003f5576000855562000441565b82601f106200041057805160ff191683800117855562000441565b8280016001018555821562000441579182015b828111156200044057825182559160200191906001019062000423565b5b50905062000450919062000454565b5090565b5b808211156200046f57600081600090555060010162000455565b5090565b6000815190506200048481620006cd565b92915050565b6000815190506200049b81620006e7565b92915050565b60008060408385031215620004bb57620004ba6200069f565b5b6000620004cb8582860162000473565b9250506020620004de858286016200048a565b9150509250929050565b6000620004f7601f836200055f565b91506200050482620006a4565b602082019050919050565b6200051a8162000601565b82525050565b600060208201905081810360008301526200053b81620004e8565b9050919050565b60006020820190506200055960008301846200050f565b92915050565b600082825260208201905092915050565b60006200057d8262000601565b91506200058a8362000601565b9250827fffffffffffffffffffffffffffffffffffffffffffffffffffffffffffffffff03821115620005c257620005c162000641565b5b828201905092915050565b6000620005da82620005e1565b9050919050565b600073ffffffffffffffffffffffffffffffffffffffff82169050919050565b6000819050919050565b600060028204905060018216806200062457607f821691505b602082108114156200063b576200063a62000670565b5b50919050565b7f4e487b7100000000000000000000000000000000000000000000000000000000600052601160045260246000fd5b7f4e487b7100000000000000000000000000000000000000000000000000000000600052602260045260246000fd5b600080fd5b7f45524332303a206d696e7420746f20746865207a65726f206164647265737300600082015250565b620006d881620005cd565b8114620006e457600080fd5b50565b620006f28162000601565b8114620006fe57600080fd5b50565b6123fc80620007116000396000f3fe608060405234801561001057600080fd5b50600436106101215760003560e01c8063715018a6116100ad578063a4012b2111610071578063a4012b21146102d2578063a457c2d7146102ee578063a9059cbb1461031e578063dd62ed3e1461034e578063f2fde38b1461037e57610121565b8063715018a6146102665780638da5cb5b1461027057806391f070141461028e57806395d89b41146102985780639dc29fac146102b657610121565b806323b872dd116100f457806323b872dd1461019c578063313ce567146101cc57806339509351146101ea57806340c10f191461021a57806370a082311461023657610121565b806306fdde0314610126578063095ea7b31461014457806318160ddd146101745780631883685414610192575b600080fd5b61012e61039a565b60405161013b9190611b17565b60405180910390f35b61015e600480360381019061015991906117d9565b61042c565b60405161016b9190611afc565b60405180910390f35b61017c61044a565b6040516101899190611d59565b60405180910390f35b61019a610454565b005b6101b660048036038101906101b19190611786565b610550565b6040516101c39190611afc565b60405180910390f35b6101d4610648565b6040516101e19190611d74565b60405180910390f35b61020460048036038101906101ff91906117d9565b610651565b6040516102119190611afc565b60405180910390f35b610234600480360381019061022f91906117d9565b6106fd565b005b610250600480360381019061024b9190611719565b6107d6565b60405161025d9190611d59565b60405180910390f35b61026e61081e565b005b6102786108a6565b6040516102859190611ae1565b60405180910390f35b6102966108d0565b005b6102a06109cd565b6040516102ad9190611b17565b60405180910390f35b6102d060048036038101906102cb91906117d9565b610a5f565b005b6102ec60048036038101906102e79190611719565b610b38565b005b610308600480360381019061030391906117d9565b610c0c565b6040516103159190611afc565b60405180910390f35b610338600480360381019061033391906117d9565b610cf7565b6040516103459190611afc565b60405180910390f35b61036860048036038101906103639190611746565b610d15565b6040516103759190611d59565b60405180910390f35b61039860048036038101906103939190611719565b610d9c565b005b6060600380546103a990611ebd565b80601f01602080910402602001604051908101604052809291908181526020018280546103d590611ebd565b80156104225780601f106103f757610100808354040283529160200191610422565b820191906000526020600020905b81548152906001019060200180831161040557829003601f168201915b5050505050905090565b6000610440610439610ff4565b8484610ffc565b6001905092915050565b6000600254905090565b600660009054906101000a900473ffffffffffffffffffffffffffffffffffffffff1673ffffffffffffffffffffffffffffffffffffffff163373ffffffffffffffffffffffffffffffffffffffff16146104e4576040517f08c379a00000000000000000000000000000000000000000000000000000000081526004016104db90611bf9565b60405180910390fd5b600560149054906101000a900460ff16610533576040517f08c379a000000000000000000000000000000000000000000000000000000000815260040161052a90611c59565b60405180910390fd5b6000600560146101000a81548160ff021916908315150217905550565b600061055d8484846111c7565b6000600160008673ffffffffffffffffffffffffffffffffffffffff1673ffffffffffffffffffffffffffffffffffffffff16815260200190815260200160002060006105a8610ff4565b73ffffffffffffffffffffffffffffffffffffffff1673ffffffffffffffffffffffffffffffffffffffff16815260200190815260200160002054905082811015610628576040517f08c379a000000000000000000000000000000000000000000000000000000000815260040161061f90611c19565b60405180910390fd5b61063c85610634610ff4565b858403610ffc565b60019150509392505050565b60006012905090565b60006106f361065e610ff4565b84846001600061066c610ff4565b73ffffffffffffffffffffffffffffffffffffffff1673ffffffffffffffffffffffffffffffffffffffff16815260200190815260200160002060008873ffffffffffffffffffffffffffffffffffffffff1673ffffffffffffffffffffffffffffffffffffffff168152602001908152602001600020546106ee9190611dab565b610ffc565b6001905092915050565b610705610ff4565b73ffffffffffffffffffffffffffffffffffffffff166107236108a6565b73ffffffffffffffffffffffffffffffffffffffff1614610779576040517f08c379a000000000000000000000000000000000000000000000000000000000815260040161077090611c39565b60405180910390fd5b600560149054906101000a900460ff166107c8576040517f08c379a00000000000000000000000000000000000000000000000000000000081526004016107bf90611cd9565b60405180910390fd5b6107d28282610e94565b5050565b60008060008373ffffffffffffffffffffffffffffffffffffffff1673ffffffffffffffffffffffffffffffffffffffff168152602001908152602001600020549050919050565b610826610ff4565b73ffffffffffffffffffffffffffffffffffffffff166108446108a6565b73ffffffffffffffffffffffffffffffffffffffff161461089a576040517f08c379a000000000000000000000000000000000000000000000000000000000815260040161089190611c39565b60405180910390fd5b6108a46000611448565b565b6000600560009054906101000a900473ffffffffffffffffffffffffffffffffffffffff16905090565b600660009054906101000a900473ffffffffffffffffffffffffffffffffffffffff1673ffffffffffffffffffffffffffffffffffffffff163373ffffffffffffffffffffffffffffffffffffffff1614610960576040517f08c379a000000000000000000000000000000000000000000000000000000000815260040161095790611bf9565b60405180910390fd5b600560149054906101000a900460ff16156109b0576040517f08c379a00000000000000000000000000000000000000000000000000000000081526004016109a790611d39565b60405180910390fd5b6001600560146101000a81548160ff021916908315150217905550565b6060600480546109dc90611ebd565b80601f0160208091040260200160405190810160405280929190818152602001828054610a0890611ebd565b8015610a555780601f10610a2a57610100808354040283529160200191610a55565b820191906000526020600020905b815481529060010190602001808311610a3857829003601f168201915b5050505050905090565b610a67610ff4565b73ffffffffffffffffffffffffffffffffffffffff16610a856108a6565b73ffffffffffffffffffffffffffffffffffffffff1614610adb576040517f08c379a0000000000000000000000000000000000000000000000000000000008152600401610ad290611c39565b60405180910390fd5b600560149054906101000a900460ff16610b2a576040517f08c379a0000000000000000000000000000000000000000000000000000000008152600401610b2190611cd9565b60405180910390fd5b610b34828261150e565b5050565b600660009054906101000a900473ffffffffffffffffffffffffffffffffffffffff1673ffffffffffffffffffffffffffffffffffffffff163373ffffffffffffffffffffffffffffffffffffffff1614610bc8576040517f08c379a0000000000000000000000000000000000000000000000000000000008152600401610bbf90611bd9565b60405180910390fd5b80600660006101000a81548173ffffffffffffffffffffffffffffffffffffffff021916908373ffffffffffffffffffffffffffffffffffffffff16021790555050565b60008060016000610c1b610ff4565b73ffffffffffffffffffffffffffffffffffffffff1673ffffffffffffffffffffffffffffffffffffffff16815260200190815260200160002060008573ffffffffffffffffffffffffffffffffffffffff1673ffffffffffffffffffffffffffffffffffffffff16815260200190815260200160002054905082811015610cd8576040517f08c379a0000000000000000000000000000000000000000000000000000000008152600401610ccf90611cf9565b60405180910390fd5b610cec610ce3610ff4565b85858403610ffc565b600191505092915050565b6000610d0b610d04610ff4565b84846111c7565b6001905092915050565b6000600160008473ffffffffffffffffffffffffffffffffffffffff1673ffffffffffffffffffffffffffffffffffffffff16815260200190815260200160002060008373ffffffffffffffffffffffffffffffffffffffff1673ffffffffffffffffffffffffffffffffffffffff16815260200190815260200160002054905092915050565b610da4610ff4565b73ffffffffffffffffffffffffffffffffffffffff16610dc26108a6565b73ffffffffffffffffffffffffffffffffffffffff1614610e18576040517f08c379a0000000000000000000000000000000000000000000000000000000008152600401610e0f90611c39565b60405180910390fd5b600073ffffffffffffffffffffffffffffffffffffffff168173ffffffffffffffffffffffffffffffffffffffff161415610e88576040517f08c379a0000000000000000000000000000000000000000000000000000000008152600401610e7f90611b79565b60405180910390fd5b610e9181611448565b50565b600073ffffffffffffffffffffffffffffffffffffffff168273ffffffffffffffffffffffffffffffffffffffff161415610f04576040517f08c379a0000000000000000000000000000000000000000000000000000000008152600401610efb90611d19565b60405180910390fd5b610f10600083836116e5565b8060026000828254610f229190611dab565b92505081905550806000808473ffffffffffffffffffffffffffffffffffffffff1673ffffffffffffffffffffffffffffffffffffffff1681526020019081526020016000206000828254610f779190611dab565b925050819055508173ffffffffffffffffffffffffffffffffffffffff16600073ffffffffffffffffffffffffffffffffffffffff167fddf252ad1be2c89b69c2b068fc378daa952ba7f163c4a11628f55a4df523b3ef83604051610fdc9190611d59565b60405180910390a3610ff0600083836116ea565b5050565b600033905090565b600073ffffffffffffffffffffffffffffffffffffffff168373ffffffffffffffffffffffffffffffffffffffff16141561106c576040517f08c379a000000000000000000000000000000000000000000000000000000000815260040161106390611cb9565b60405180910390fd5b600073ffffffffffffffffffffffffffffffffffffffff168273ffffffffffffffffffffffffffffffffffffffff1614156110dc576040517f08c379a00000000000000000000000000000000000000000000000000000000081526004016110d390611b99565b60405180910390fd5b80600160008573ffffffffffffffffffffffffffffffffffffffff1673ffffffffffffffffffffffffffffffffffffffff16815260200190815260200160002060008473ffffffffffffffffffffffffffffffffffffffff1673ffffffffffffffffffffffffffffffffffffffff168152602001908152602001600020819055508173ffffffffffffffffffffffffffffffffffffffff168373ffffffffffffffffffffffffffffffffffffffff167f8c5be1e5ebec7d5bd14f71427d1e84f3dd0314c0f7b2291e5b200ac8c7c3b925836040516111ba9190611d59565b60405180910390a3505050565b600073ffffffffffffffffffffffffffffffffffffffff168373ffffffffffffffffffffffffffffffffffffffff161415611237576040517f08c379a000000000000000000000000000000000000000000000000000000000815260040161122e90611c99565b60405180910390fd5b600073ffffffffffffffffffffffffffffffffffffffff168273ffffffffffffffffffffffffffffffffffffffff1614156112a7576040517f08c379a000000000000000000000000000000000000000000000000000000000815260040161129e90611b39565b60405180910390fd5b6112b28383836116e5565b60008060008573ffffffffffffffffffffffffffffffffffffffff1673ffffffffffffffffffffffffffffffffffffffff16815260200190815260200160002054905081811015611338576040517f08c379a000000000000000000000000000000000000000000000000000000000815260040161132f90611bb9565b60405180910390fd5b8181036000808673ffffffffffffffffffffffffffffffffffffffff1673ffffffffffffffffffffffffffffffffffffffff16815260200190815260200160002081905550816000808573ffffffffffffffffffffffffffffffffffffffff1673ffffffffffffffffffffffffffffffffffffffff16815260200190815260200160002060008282546113cb9190611dab565b925050819055508273ffffffffffffffffffffffffffffffffffffffff168473ffffffffffffffffffffffffffffffffffffffff167fddf252ad1be2c89b69c2b068fc378daa952ba7f163c4a11628f55a4df523b3ef8460405161142f9190611d59565b60405180910390a36114428484846116ea565b50505050565b6000600560009054906101000a900473ffffffffffffffffffffffffffffffffffffffff16905081600560006101000a81548173ffffffffffffffffffffffffffffffffffffffff021916908373ffffffffffffffffffffffffffffffffffffffff1602179055508173ffffffffffffffffffffffffffffffffffffffff168173ffffffffffffffffffffffffffffffffffffffff167f8be0079c531659141344cd1fd0a4f28419497f9722a3daafe3b4186f6b6457e060405160405180910390a35050565b600073ffffffffffffffffffffffffffffffffffffffff168273ffffffffffffffffffffffffffffffffffffffff16141561157e576040517f08c379a000000000000000000000000000000000000000000000000000000000815260040161157590611c79565b60405180910390fd5b61158a826000836116e5565b60008060008473ffffffffffffffffffffffffffffffffffffffff1673ffffffffffffffffffffffffffffffffffffffff16815260200190815260200160002054905081811015611610576040517f08c379a000000000000000000000000000000000000000000000000000000000815260040161160790611b59565b60405180910390fd5b8181036000808573ffffffffffffffffffffffffffffffffffffffff1673ffffffffffffffffffffffffffffffffffffffff1681526020019081526020016000208190555081600260008282546116679190611e01565b92505081905550600073ffffffffffffffffffffffffffffffffffffffff168373ffffffffffffffffffffffffffffffffffffffff167fddf252ad1be2c89b69c2b068fc378daa952ba7f163c4a11628f55a4df523b3ef846040516116cc9190611d59565b60405180910390a36116e0836000846116ea565b505050565b505050565b505050565b6000813590506116fe81612398565b92915050565b600081359050611713816123af565b92915050565b60006020828403121561172f5761172e611f4d565b5b600061173d848285016116ef565b91505092915050565b6000806040838503121561175d5761175c611f4d565b5b600061176b858286016116ef565b925050602061177c858286016116ef565b9150509250929050565b60008060006060848603121561179f5761179e611f4d565b5b60006117ad868287016116ef565b93505060206117be868287016116ef565b92505060406117cf86828701611704565b9150509250925092565b600080604083850312156117f0576117ef611f4d565b5b60006117fe858286016116ef565b925050602061180f85828601611704565b9150509250929050565b61182281611e35565b82525050565b61183181611e47565b82525050565b600061184282611d8f565b61184c8185611d9a565b935061185c818560208601611e8a565b61186581611f52565b840191505092915050565b600061187d602383611d9a565b915061188882611f63565b604082019050919050565b60006118a0602283611d9a565b91506118ab82611fb2565b604082019050919050565b60006118c3602683611d9a565b91506118ce82612001565b604082019050919050565b60006118e6602283611d9a565b91506118f182612050565b604082019050919050565b6000611909602683611d9a565b91506119148261209f565b604082019050919050565b600061192c600f83611d9a565b9150611937826120ee565b602082019050919050565b600061194f601683611d9a565b915061195a82612117565b602082019050919050565b6000611972602883611d9a565b915061197d82612140565b604082019050919050565b6000611995602083611d9a565b91506119a08261218f565b602082019050919050565b60006119b8602083611d9a565b91506119c3826121b8565b602082019050919050565b60006119db602183611d9a565b91506119e6826121e1565b604082019050919050565b60006119fe602583611d9a565b9150611a0982612230565b604082019050919050565b6000611a21602483611d9a565b9150611a2c8261227f565b604082019050919050565b6000611a44601883611d9a565b9150611a4f826122ce565b602082019050919050565b6000611a67602583611d9a565b9150611a72826122f7565b604082019050919050565b6000611a8a601f83611d9a565b9150611a9582612346565b602082019050919050565b6000611aad601f83611d9a565b9150611ab88261236f565b602082019050919050565b611acc81611e73565b82525050565b611adb81611e7d565b82525050565b6000602082019050611af66000830184611819565b92915050565b6000602082019050611b116000830184611828565b92915050565b60006020820190508181036000830152611b318184611837565b905092915050565b60006020820190508181036000830152611b5281611870565b9050919050565b60006020820190508181036000830152611b7281611893565b9050919050565b60006020820190508181036000830152611b92816118b6565b9050919050565b60006020820190508181036000830152611bb2816118d9565b9050919050565b60006020820190508181036000830152611bd2816118fc565b9050919050565b60006020820190508181036000830152611bf28161191f565b9050919050565b60006020820190508181036000830152611c1281611942565b9050919050565b60006020820190508181036000830152611c3281611965565b9050919050565b60006020820190508181036000830152611c5281611988565b9050919050565b60006020820190508181036000830152611c72816119ab565b9050919050565b60006020820190508181036000830152611c92816119ce565b9050919050565b60006020820190508181036000830152611cb2816119f1565b9050919050565b60006020820190508181036000830152611cd281611a14565b9050919050565b60006020820190508181036000830152611cf281611a37565b9050919050565b60006020820190508181036000830152611d1281611a5a565b9050919050565b60006020820190508181036000830152611d3281611a7d565b9050919050565b60006020820190508181036000830152611d5281611aa0565b9050919050565b6000602082019050611d6e6000830184611ac3565b92915050565b6000602082019050611d896000830184611ad2565b92915050565b600081519050919050565b600082825260208201905092915050565b6000611db682611e73565b9150611dc183611e73565b9250827fffffffffffffffffffffffffffffffffffffffffffffffffffffffffffffffff03821115611df657611df5611eef565b5b828201905092915050565b6000611e0c82611e73565b9150611e1783611e73565b925082821015611e2a57611e29611eef565b5b828203905092915050565b6000611e4082611e53565b9050919050565b60008115159050919050565b600073ffffffffffffffffffffffffffffffffffffffff82169050919050565b6000819050919050565b600060ff82169050919050565b60005b83811015611ea8578082015181840152602081019050611e8d565b83811115611eb7576000848401525b50505050565b60006002820490506001821680611ed557607f821691505b60208210811415611ee957611ee8611f1e565b5b50919050565b7f4e487b7100000000000000000000000000000000000000000000000000000000600052601160045260246000fd5b7f4e487b7100000000000000000000000000000000000000000000000000000000600052602260045260246000fd5b600080fd5b6000601f19601f8301169050919050565b7f45524332303a207472616e7366657220746f20746865207a65726f206164647260008201527f6573730000000000000000000000000000000000000000000000000000000000602082015250565b7f45524332303a206275726e20616d6f756e7420657863656564732062616c616e60008201527f6365000000000000000000000000000000000000000000000000000000000000602082015250565b7f4f776e61626c653a206e6577206f776e657220697320746865207a65726f206160008201527f6464726573730000000000000000000000000000000000000000000000000000602082015250565b7f45524332303a20617070726f766520746f20746865207a65726f20616464726560008201527f7373000000000000000000000000000000000000000000000000000000000000602082015250565b7f45524332303a207472616e7366657220616d6f756e742065786365656473206260008201527f616c616e63650000000000000000000000000000000000000000000000000000602082015250565b7f4e6f7420417574686f72697a65642e0000000000000000000000000000000000600082015250565b7f4e6f7420537570706c7920436f6e74726f6c6c65722e00000000000000000000600082015250565b7f45524332303a207472616e7366657220616d6f756e742065786365656473206160008201527f6c6c6f77616e6365000000000000000000000000000000000000000000000000602082015250565b7f4f776e61626c653a2063616c6c6572206973206e6f7420746865206f776e6572600082015250565b7f537570706c7920436f6e74726f6c20416c72656164792044697361626c65642e600082015250565b7f45524332303a206275726e2066726f6d20746865207a65726f2061646472657360008201527f7300000000000000000000000000000000000000000000000000000000000000602082015250565b7f45524332303a207472616e736665722066726f6d20746865207a65726f20616460008201527f6472657373000000000000000000000000000000000000000000000000000000602082015250565b7f45524332303a20617070726f76652066726f6d20746865207a65726f2061646460008201527f7265737300000000000000000000000000000000000000000000000000000000602082015250565b7f537570706c7920436f6e74726f6c2044697361626c65642e0000000000000000600082015250565b7f45524332303a2064656372656173656420616c6c6f77616e63652062656c6f7760008201527f207a65726f000000000000000000000000000000000000000000000000000000602082015250565b7f45524332303a206d696e7420746f20746865207a65726f206164647265737300600082015250565b7f537570706c7920436f6e74726f6c20416c726561647920456e61626c65642e00600082015250565b6123a181611e35565b81146123ac57600080fd5b50565b6123b881611e73565b81146123c357600080fd5b5056fea2646970667358221220ab566bd2fe657890b8cb77f858f1baa6c30a124eae5a6bba08e552047887f82364736f6c63430008070033",
  "immutableReferences": {},
  "source": "// SPDX-License-Identifier: MIT\r\npragma solidity 0.8.7;\r\n\r\nimport \"@openzeppelin/contracts/token/ERC20/ERC20.sol\";\r\nimport \"@openzeppelin/contracts/access/Ownable.sol\";\r\n\r\ncontract SATADynamic is ERC20, Ownable {\r\n  bool private supplyControlEnabled = false;\r\n  address private supplyController;\r\n\r\n  constructor(address supplyController_, uint256 initialSupply)\r\n    ERC20(\"Signata\", \"SATA\")\r\n  {\r\n    supplyController = supplyController_;\r\n    super._mint(msg.sender, initialSupply);\r\n  }\r\n\r\n  function changeSupplyController(address newSupplyController) public virtual {\r\n    require(msg.sender == supplyController, \"Not Authorized.\");\r\n\r\n    supplyController = newSupplyController;\r\n  }\r\n\r\n  function enableSupplyControl() public virtual {\r\n    require(msg.sender == supplyController, \"Not Supply Controller.\");\r\n    require(!supplyControlEnabled, \"Supply Control Already Enabled.\");\r\n\r\n    supplyControlEnabled = true;\r\n  }\r\n\r\n  function disableSupplyControl() public virtual {\r\n    require(msg.sender == supplyController, \"Not Supply Controller.\");\r\n    require(supplyControlEnabled, \"Supply Control Already Disabled.\");\r\n\r\n    supplyControlEnabled = false;\r\n  }\r\n\r\n  function mint(address account, uint256 amount) public virtual onlyOwner {\r\n    require(supplyControlEnabled, \"Supply Control Disabled.\");\r\n\r\n    super._mint(account, amount);\r\n  }\r\n\r\n  function burn(address account, uint256 amount) public virtual onlyOwner {\r\n    require(supplyControlEnabled, \"Supply Control Disabled.\");\r\n\r\n    super._burn(account, amount);\r\n  }\r\n}\r\n",
  "sourcePath": "C:\\Users\\tim\\Projects\\GitHub\\sata-contracts-v1\\contracts\\SATADynamic.sol",
  "compiler": {
    "name": "solc",
    "version": "0.8.7+commit.e28d00a7.Emscripten.clang"
  },
  "schemaVersion": "3.4.3",
  "updatedAt": "2021-09-16T15:09:20.279Z",
  "devdoc": {
    "kind": "dev",
    "methods": {
      "allowance(address,address)": {
        "details": "See {IERC20-allowance}."
      },
      "approve(address,uint256)": {
        "details": "See {IERC20-approve}. Requirements: - `spender` cannot be the zero address."
      },
      "balanceOf(address)": {
        "details": "See {IERC20-balanceOf}."
      },
      "decimals()": {
        "details": "Returns the number of decimals used to get its user representation. For example, if `decimals` equals `2`, a balance of `505` tokens should be displayed to a user as `5.05` (`505 / 10 ** 2`). Tokens usually opt for a value of 18, imitating the relationship between Ether and Wei. This is the value {ERC20} uses, unless this function is overridden; NOTE: This information is only used for _display_ purposes: it in no way affects any of the arithmetic of the contract, including {IERC20-balanceOf} and {IERC20-transfer}."
      },
      "decreaseAllowance(address,uint256)": {
        "details": "Atomically decreases the allowance granted to `spender` by the caller. This is an alternative to {approve} that can be used as a mitigation for problems described in {IERC20-approve}. Emits an {Approval} event indicating the updated allowance. Requirements: - `spender` cannot be the zero address. - `spender` must have allowance for the caller of at least `subtractedValue`."
      },
      "increaseAllowance(address,uint256)": {
        "details": "Atomically increases the allowance granted to `spender` by the caller. This is an alternative to {approve} that can be used as a mitigation for problems described in {IERC20-approve}. Emits an {Approval} event indicating the updated allowance. Requirements: - `spender` cannot be the zero address."
      },
      "name()": {
        "details": "Returns the name of the token."
      },
      "owner()": {
        "details": "Returns the address of the current owner."
      },
      "renounceOwnership()": {
        "details": "Leaves the contract without owner. It will not be possible to call `onlyOwner` functions anymore. Can only be called by the current owner. NOTE: Renouncing ownership will leave the contract without an owner, thereby removing any functionality that is only available to the owner."
      },
      "symbol()": {
        "details": "Returns the symbol of the token, usually a shorter version of the name."
      },
      "totalSupply()": {
        "details": "See {IERC20-totalSupply}."
      },
      "transfer(address,uint256)": {
        "details": "See {IERC20-transfer}. Requirements: - `recipient` cannot be the zero address. - the caller must have a balance of at least `amount`."
      },
      "transferFrom(address,address,uint256)": {
        "details": "See {IERC20-transferFrom}. Emits an {Approval} event indicating the updated allowance. This is not required by the EIP. See the note at the beginning of {ERC20}. Requirements: - `sender` and `recipient` cannot be the zero address. - `sender` must have a balance of at least `amount`. - the caller must have allowance for ``sender``'s tokens of at least `amount`."
      },
      "transferOwnership(address)": {
        "details": "Transfers ownership of the contract to a new account (`newOwner`). Can only be called by the current owner."
      }
    },
    "version": 1
  },
  "userdoc": {
    "kind": "user",
    "methods": {},
    "version": 1
  }
}