{
  "contractName": "SATAAirdropV1",
  "abi": [
    {
      "inputs": [
        {
          "internalType": "address",
          "name": "_token",
          "type": "address"
        },
        {
          "internalType": "uint256",
          "name": "_airdropAmount",
          "type": "uint256"
        },
        {
          "internalType": "uint256",
          "name": "_minBalance",
          "type": "uint256"
        }
      ],
      "stateMutability": "nonpayable",
      "type": "constructor"
    },
    {
      "anonymous": false,
      "inputs": [
        {
          "indexed": true,
          "internalType": "address",
          "name": "previousOwner",
          "type": "address"
        },
        {
          "indexed": true,
          "internalType": "address",
          "name": "newOwner",
          "type": "address"
        }
      ],
      "name": "OwnershipTransferred",
      "type": "event"
    },
    {
      "inputs": [
        {
          "internalType": "address",
          "name": "",
          "type": "address"
        }
      ],
      "name": "claimedAddresses",
      "outputs": [
        {
          "internalType": "bool",
          "name": "",
          "type": "bool"
        }
      ],
      "stateMutability": "view",
      "type": "function"
    },
    {
      "inputs": [],
      "name": "owner",
      "outputs": [
        {
          "internalType": "address",
          "name": "",
          "type": "address"
        }
      ],
      "stateMutability": "view",
      "type": "function"
    },
    {
      "inputs": [],
      "name": "renounceOwnership",
      "outputs": [],
      "stateMutability": "nonpayable",
      "type": "function"
    },
    {
      "inputs": [],
      "name": "token",
      "outputs": [
        {
          "internalType": "contract IERC20",
          "name": "",
          "type": "address"
        }
      ],
      "stateMutability": "view",
      "type": "function"
    },
    {
      "inputs": [
        {
          "internalType": "address",
          "name": "newOwner",
          "type": "address"
        }
      ],
      "name": "transferOwnership",
      "outputs": [],
      "stateMutability": "nonpayable",
      "type": "function"
    },
    {
      "inputs": [
        {
          "internalType": "address",
          "name": "recipient",
          "type": "address"
        }
      ],
      "name": "endAirdrop",
      "outputs": [],
      "stateMutability": "nonpayable",
      "type": "function"
    },
    {
      "inputs": [],
      "name": "availableTokens",
      "outputs": [
        {
          "internalType": "uint256",
          "name": "",
          "type": "uint256"
        }
      ],
      "stateMutability": "view",
      "type": "function"
    },
    {
      "inputs": [],
      "name": "claim",
      "outputs": [],
      "stateMutability": "nonpayable",
      "type": "function"
    }
  ],
  "bytecode": "0x60a06040523480156200001157600080fd5b506040516200120f3803806200120f83398181016040528101906200003791906200019f565b620000576200004b620000a560201b60201c565b620000ad60201b60201c565b8273ffffffffffffffffffffffffffffffffffffffff1660808173ffffffffffffffffffffffffffffffffffffffff1660601b81525050816001819055508060028190555050505062000272565b600033905090565b60008060009054906101000a900473ffffffffffffffffffffffffffffffffffffffff169050816000806101000a81548173ffffffffffffffffffffffffffffffffffffffff021916908373ffffffffffffffffffffffffffffffffffffffff1602179055508173ffffffffffffffffffffffffffffffffffffffff168173ffffffffffffffffffffffffffffffffffffffff167f8be0079c531659141344cd1fd0a4f28419497f9722a3daafe3b4186f6b6457e060405160405180910390a35050565b60008151905062000182816200023e565b92915050565b600081519050620001998162000258565b92915050565b600080600060608486031215620001bb57620001ba62000239565b5b6000620001cb8682870162000171565b9350506020620001de8682870162000188565b9250506040620001f18682870162000188565b9150509250925092565b600062000208826200020f565b9050919050565b600073ffffffffffffffffffffffffffffffffffffffff82169050919050565b6000819050919050565b600080fd5b6200024981620001fb565b81146200025557600080fd5b50565b62000263816200022f565b81146200026f57600080fd5b50565b60805160601c610f54620002bb600039600081816101e3015281816102cc01528181610309015281816104280152818161065301528181610707015261097e0152610f546000f3fe608060405234801561001057600080fd5b50600436106100885760003560e01c80638da5cb5b1161005b5780638da5cb5b146100db578063f1429a96146100f9578063f2fde38b14610129578063fc0c546a1461014557610088565b80631970853c1461008d5780634e71d92d146100a957806369bb4dc2146100b3578063715018a6146100d1575b600080fd5b6100a760048036038101906100a29190610aab565b610163565b005b6100b1610423565b005b6100bb610703565b6040516100c89190610d37565b60405180910390f35b6100d96107b3565b005b6100e361083b565b6040516100f09190610c1d565b60405180910390f35b610113600480360381019061010e9190610aab565b610864565b6040516101209190610c61565b60405180910390f35b610143600480360381019061013e9190610aab565b610884565b005b61014d61097c565b60405161015a9190610c7c565b60405180910390f35b61016b6109a0565b73ffffffffffffffffffffffffffffffffffffffff1661018961083b565b73ffffffffffffffffffffffffffffffffffffffff16146101df576040517f08c379a00000000000000000000000000000000000000000000000000000000081526004016101d690610cf7565b60405180910390fd5b60007f000000000000000000000000000000000000000000000000000000000000000073ffffffffffffffffffffffffffffffffffffffff166370a08231306040518263ffffffff1660e01b815260040161023a9190610c1d565b60206040518083038186803b15801561025257600080fd5b505afa158015610266573d6000803e3d6000fd5b505050506040513d601f19601f8201168201806040525081019061028a9190610b05565b116102ca576040517f08c379a00000000000000000000000000000000000000000000000000000000081526004016102c190610d17565b60405180910390fd5b7f000000000000000000000000000000000000000000000000000000000000000073ffffffffffffffffffffffffffffffffffffffff1663a9059cbb827f000000000000000000000000000000000000000000000000000000000000000073ffffffffffffffffffffffffffffffffffffffff166370a08231306040518263ffffffff1660e01b81526004016103609190610c1d565b60206040518083038186803b15801561037857600080fd5b505afa15801561038c573d6000803e3d6000fd5b505050506040513d601f19601f820116820180604052508101906103b09190610b05565b6040518363ffffffff1660e01b81526004016103cd929190610c38565b602060405180830381600087803b1580156103e757600080fd5b505af11580156103fb573d6000803e3d6000fd5b505050506040513d601f19601f8201168201806040525081019061041f9190610ad8565b5050565b6001547f000000000000000000000000000000000000000000000000000000000000000073ffffffffffffffffffffffffffffffffffffffff166370a08231306040518263ffffffff1660e01b815260040161047f9190610c1d565b60206040518083038186803b15801561049757600080fd5b505afa1580156104ab573d6000803e3d6000fd5b505050506040513d601f19601f820116820180604052508101906104cf9190610b05565b1015610510576040517f08c379a000000000000000000000000000000000000000000000000000000000815260040161050790610d17565b60405180910390fd5b600360003373ffffffffffffffffffffffffffffffffffffffff1673ffffffffffffffffffffffffffffffffffffffff16815260200190815260200160002060009054906101000a900460ff161561059d576040517f08c379a000000000000000000000000000000000000000000000000000000000815260040161059490610c97565b60405180910390fd5b6002543373ffffffffffffffffffffffffffffffffffffffff163110156105f9576040517f08c379a00000000000000000000000000000000000000000000000000000000081526004016105f090610cb7565b60405180910390fd5b6001600360003373ffffffffffffffffffffffffffffffffffffffff1673ffffffffffffffffffffffffffffffffffffffff16815260200190815260200160002060006101000a81548160ff0219169083151502179055507f000000000000000000000000000000000000000000000000000000000000000073ffffffffffffffffffffffffffffffffffffffff1663a9059cbb336001546040518363ffffffff1660e01b81526004016106ae929190610c38565b602060405180830381600087803b1580156106c857600080fd5b505af11580156106dc573d6000803e3d6000fd5b505050506040513d601f19601f820116820180604052508101906107009190610ad8565b50565b60007f000000000000000000000000000000000000000000000000000000000000000073ffffffffffffffffffffffffffffffffffffffff166370a08231306040518263ffffffff1660e01b815260040161075e9190610c1d565b60206040518083038186803b15801561077657600080fd5b505afa15801561078a573d6000803e3d6000fd5b505050506040513d601f19601f820116820180604052508101906107ae9190610b05565b905090565b6107bb6109a0565b73ffffffffffffffffffffffffffffffffffffffff166107d961083b565b73ffffffffffffffffffffffffffffffffffffffff161461082f576040517f08c379a000000000000000000000000000000000000000000000000000000000815260040161082690610cf7565b60405180910390fd5b61083960006109a8565b565b60008060009054906101000a900473ffffffffffffffffffffffffffffffffffffffff16905090565b60036020528060005260406000206000915054906101000a900460ff1681565b61088c6109a0565b73ffffffffffffffffffffffffffffffffffffffff166108aa61083b565b73ffffffffffffffffffffffffffffffffffffffff1614610900576040517f08c379a00000000000000000000000000000000000000000000000000000000081526004016108f790610cf7565b60405180910390fd5b600073ffffffffffffffffffffffffffffffffffffffff168173ffffffffffffffffffffffffffffffffffffffff161415610970576040517f08c379a000000000000000000000000000000000000000000000000000000000815260040161096790610cd7565b60405180910390fd5b610979816109a8565b50565b7f000000000000000000000000000000000000000000000000000000000000000081565b600033905090565b60008060009054906101000a900473ffffffffffffffffffffffffffffffffffffffff169050816000806101000a81548173ffffffffffffffffffffffffffffffffffffffff021916908373ffffffffffffffffffffffffffffffffffffffff1602179055508173ffffffffffffffffffffffffffffffffffffffff168173ffffffffffffffffffffffffffffffffffffffff167f8be0079c531659141344cd1fd0a4f28419497f9722a3daafe3b4186f6b6457e060405160405180910390a35050565b600081359050610a7b81610ed9565b92915050565b600081519050610a9081610ef0565b92915050565b600081519050610aa581610f07565b92915050565b600060208284031215610ac157610ac0610de1565b5b6000610acf84828501610a6c565b91505092915050565b600060208284031215610aee57610aed610de1565b5b6000610afc84828501610a81565b91505092915050565b600060208284031215610b1b57610b1a610de1565b5b6000610b2984828501610a96565b91505092915050565b610b3b81610d63565b82525050565b610b4a81610d75565b82525050565b610b5981610dab565b82525050565b6000610b6c601883610d52565b9150610b7782610de6565b602082019050919050565b6000610b8f601083610d52565b9150610b9a82610e0f565b602082019050919050565b6000610bb2602683610d52565b9150610bbd82610e38565b604082019050919050565b6000610bd5602083610d52565b9150610be082610e87565b602082019050919050565b6000610bf8601183610d52565b9150610c0382610eb0565b602082019050919050565b610c1781610da1565b82525050565b6000602082019050610c326000830184610b32565b92915050565b6000604082019050610c4d6000830185610b32565b610c5a6020830184610c0e565b9392505050565b6000602082019050610c766000830184610b41565b92915050565b6000602082019050610c916000830184610b50565b92915050565b60006020820190508181036000830152610cb081610b5f565b9050919050565b60006020820190508181036000830152610cd081610b82565b9050919050565b60006020820190508181036000830152610cf081610ba5565b9050919050565b60006020820190508181036000830152610d1081610bc8565b9050919050565b60006020820190508181036000830152610d3081610beb565b9050919050565b6000602082019050610d4c6000830184610c0e565b92915050565b600082825260208201905092915050565b6000610d6e82610d81565b9050919050565b60008115159050919050565b600073ffffffffffffffffffffffffffffffffffffffff82169050919050565b6000819050919050565b6000610db682610dbd565b9050919050565b6000610dc882610dcf565b9050919050565b6000610dda82610d81565b9050919050565b600080fd5b7f41697264726f7020616c726561647920636c61696d65642e0000000000000000600082015250565b7f496e76616c6964206163636f756e742e00000000000000000000000000000000600082015250565b7f4f776e61626c653a206e6577206f776e657220697320746865207a65726f206160008201527f6464726573730000000000000000000000000000000000000000000000000000602082015250565b7f4f776e61626c653a2063616c6c6572206973206e6f7420746865206f776e6572600082015250565b7f41697264726f70206465706c657465642e000000000000000000000000000000600082015250565b610ee281610d63565b8114610eed57600080fd5b50565b610ef981610d75565b8114610f0457600080fd5b50565b610f1081610da1565b8114610f1b57600080fd5b5056fea2646970667358221220e926bd3223b5ab2c950759903919f0421eef23ac26b2213d3aa4cb741d28e90764736f6c63430008070033",
  "immutableReferences": {
    "787": [
      {
        "length": 32,
        "start": 483
      },
      {
        "length": 32,
        "start": 716
      },
      {
        "length": 32,
        "start": 777
      },
      {
        "length": 32,
        "start": 1064
      },
      {
        "length": 32,
        "start": 1619
      },
      {
        "length": 32,
        "start": 1799
      },
      {
        "length": 32,
        "start": 2430
      }
    ]
  },
  "source": "// SPDX-License-Identifier: MIT\r\npragma solidity 0.8.7;\r\n\r\nimport \"@openzeppelin/contracts/access/Ownable.sol\";\r\nimport \"@openzeppelin/contracts/token/ERC20/IERC20.sol\";\r\n\r\ncontract SATAAirdropV1 is Ownable {\r\n  uint256 private airdropAmount;\r\n  uint256 private reqEthBalance; // 100000000000000000 for 0.1 ETH\r\n  IERC20 public immutable token;\r\n  mapping (address => bool) public claimedAddresses;\r\n\r\n  constructor(address _token, uint256 _airdropAmount, uint256 _minBalance) {\r\n    token = IERC20(_token);\r\n    airdropAmount = _airdropAmount;\r\n    reqEthBalance = _minBalance;\r\n  }\r\n\r\n  function endAirdrop(address recipient) external onlyOwner {\r\n    require(token.balanceOf(address(this)) > 0, \"Airdrop depleted.\");\r\n    // return the remaining tokens to the specified address\r\n    token.transfer(recipient, token.balanceOf(address(this)));\r\n  }\r\n\r\n  function availableTokens() external view returns (uint256) {\r\n    return token.balanceOf(address(this));\r\n  }\r\n\r\n  function claim() external {\r\n    // claim eligibility checks\r\n    require(token.balanceOf(address(this)) >= airdropAmount, \"Airdrop depleted.\");\r\n    require(!claimedAddresses[msg.sender], \"Airdrop already claimed.\");\r\n    require(msg.sender.balance >= reqEthBalance, \"Invalid account.\"); // 0.1 ETH Required\r\n\r\n    // add the requestor to the array\r\n    claimedAddresses[msg.sender] = true;\r\n\r\n    // send them tokens\r\n    token.transfer(msg.sender, airdropAmount);\r\n  }\r\n}\r\n",
  "sourcePath": "C:\\Users\\tim\\Projects\\GitHub\\sata-contracts-v1\\contracts\\Airdrop.sol",
  "compiler": {
    "name": "solc",
    "version": "0.8.7+commit.e28d00a7.Emscripten.clang"
  },
  "schemaVersion": "3.4.3",
  "updatedAt": "2021-09-16T15:29:42.825Z",
  "devdoc": {
    "kind": "dev",
    "methods": {
      "owner()": {
        "details": "Returns the address of the current owner."
      },
      "renounceOwnership()": {
        "details": "Leaves the contract without owner. It will not be possible to call `onlyOwner` functions anymore. Can only be called by the current owner. NOTE: Renouncing ownership will leave the contract without an owner, thereby removing any functionality that is only available to the owner."
      },
      "transferOwnership(address)": {
        "details": "Transfers ownership of the contract to a new account (`newOwner`). Can only be called by the current owner."
      }
    },
    "version": 1
  },
  "userdoc": {
    "kind": "user",
    "methods": {},
    "version": 1
  }
}