{
  "contractName": "SignataIdentity",
  "abi": [
    {
      "inputs": [
        {
          "internalType": "uint256",
          "name": "chainId",
          "type": "uint256"
        }
      ],
      "stateMutability": "nonpayable",
      "type": "constructor"
    },
    {
      "anonymous": false,
      "inputs": [
        {
          "indexed": true,
          "internalType": "address",
          "name": "identity",
          "type": "address"
        },
        {
          "indexed": true,
          "internalType": "address",
          "name": "delegateKey",
          "type": "address"
        },
        {
          "indexed": true,
          "internalType": "address",
          "name": "securityKey",
          "type": "address"
        }
      ],
      "name": "Create",
      "type": "event"
    },
    {
      "anonymous": false,
      "inputs": [
        {
          "indexed": true,
          "internalType": "address",
          "name": "identity",
          "type": "address"
        }
      ],
      "name": "Destroy",
      "type": "event"
    },
    {
      "anonymous": false,
      "inputs": [
        {
          "indexed": true,
          "internalType": "address",
          "name": "identity",
          "type": "address"
        }
      ],
      "name": "Lock",
      "type": "event"
    },
    {
      "anonymous": false,
      "inputs": [
        {
          "indexed": true,
          "internalType": "address",
          "name": "identity",
          "type": "address"
        },
        {
          "indexed": true,
          "internalType": "address",
          "name": "delegateKey",
          "type": "address"
        },
        {
          "indexed": true,
          "internalType": "address",
          "name": "securityKey",
          "type": "address"
        }
      ],
      "name": "Rollover",
      "type": "event"
    },
    {
      "anonymous": false,
      "inputs": [
        {
          "indexed": true,
          "internalType": "address",
          "name": "identity",
          "type": "address"
        }
      ],
      "name": "Unlock",
      "type": "event"
    },
    {
      "inputs": [
        {
          "internalType": "uint8",
          "name": "identityV",
          "type": "uint8"
        },
        {
          "internalType": "bytes32",
          "name": "identityR",
          "type": "bytes32"
        },
        {
          "internalType": "bytes32",
          "name": "identityS",
          "type": "bytes32"
        },
        {
          "internalType": "address",
          "name": "delegateKey",
          "type": "address"
        },
        {
          "internalType": "address",
          "name": "securityKey",
          "type": "address"
        }
      ],
      "name": "create",
      "outputs": [],
      "stateMutability": "nonpayable",
      "type": "function"
    },
    {
      "inputs": [
        {
          "internalType": "address",
          "name": "identity",
          "type": "address"
        },
        {
          "internalType": "uint8",
          "name": "delegateV",
          "type": "uint8"
        },
        {
          "internalType": "bytes32",
          "name": "delegateR",
          "type": "bytes32"
        },
        {
          "internalType": "bytes32",
          "name": "delegateS",
          "type": "bytes32"
        },
        {
          "internalType": "uint8",
          "name": "securityV",
          "type": "uint8"
        },
        {
          "internalType": "bytes32",
          "name": "securityR",
          "type": "bytes32"
        },
        {
          "internalType": "bytes32",
          "name": "securityS",
          "type": "bytes32"
        }
      ],
      "name": "destroy",
      "outputs": [],
      "stateMutability": "nonpayable",
      "type": "function"
    },
    {
      "inputs": [
        {
          "internalType": "address",
          "name": "identity",
          "type": "address"
        }
      ],
      "name": "lock",
      "outputs": [],
      "stateMutability": "nonpayable",
      "type": "function"
    },
    {
      "inputs": [
        {
          "internalType": "address",
          "name": "identity",
          "type": "address"
        }
      ],
      "name": "getDelegate",
      "outputs": [
        {
          "internalType": "address",
          "name": "",
          "type": "address"
        }
      ],
      "stateMutability": "view",
      "type": "function"
    },
    {
      "inputs": [
        {
          "internalType": "address",
          "name": "delegateKey",
          "type": "address"
        }
      ],
      "name": "getIdentity",
      "outputs": [
        {
          "internalType": "address",
          "name": "",
          "type": "address"
        }
      ],
      "stateMutability": "view",
      "type": "function"
    },
    {
      "inputs": [
        {
          "internalType": "address",
          "name": "identity",
          "type": "address"
        }
      ],
      "name": "getLockCount",
      "outputs": [
        {
          "internalType": "uint256",
          "name": "",
          "type": "uint256"
        }
      ],
      "stateMutability": "view",
      "type": "function"
    },
    {
      "inputs": [
        {
          "internalType": "address",
          "name": "identity",
          "type": "address"
        }
      ],
      "name": "getRolloverCount",
      "outputs": [
        {
          "internalType": "uint256",
          "name": "",
          "type": "uint256"
        }
      ],
      "stateMutability": "view",
      "type": "function"
    },
    {
      "inputs": [
        {
          "internalType": "address",
          "name": "identity",
          "type": "address"
        }
      ],
      "name": "isLocked",
      "outputs": [
        {
          "internalType": "bool",
          "name": "",
          "type": "bool"
        }
      ],
      "stateMutability": "view",
      "type": "function"
    },
    {
      "inputs": [
        {
          "internalType": "address",
          "name": "identity",
          "type": "address"
        },
        {
          "internalType": "uint8",
          "name": "delegateV",
          "type": "uint8"
        },
        {
          "internalType": "bytes32",
          "name": "delegateR",
          "type": "bytes32"
        },
        {
          "internalType": "bytes32",
          "name": "delegateS",
          "type": "bytes32"
        },
        {
          "internalType": "uint8",
          "name": "securityV",
          "type": "uint8"
        },
        {
          "internalType": "bytes32",
          "name": "securityR",
          "type": "bytes32"
        },
        {
          "internalType": "bytes32",
          "name": "securityS",
          "type": "bytes32"
        },
        {
          "internalType": "address",
          "name": "newDelegateKey",
          "type": "address"
        },
        {
          "internalType": "address",
          "name": "newSecurityKey",
          "type": "address"
        }
      ],
      "name": "rollover",
      "outputs": [],
      "stateMutability": "nonpayable",
      "type": "function"
    },
    {
      "inputs": [
        {
          "internalType": "address",
          "name": "identity",
          "type": "address"
        },
        {
          "internalType": "uint8",
          "name": "delegateV",
          "type": "uint8"
        },
        {
          "internalType": "bytes32",
          "name": "delegateR",
          "type": "bytes32"
        },
        {
          "internalType": "bytes32",
          "name": "delegateS",
          "type": "bytes32"
        },
        {
          "internalType": "uint8",
          "name": "securityV",
          "type": "uint8"
        },
        {
          "internalType": "bytes32",
          "name": "securityR",
          "type": "bytes32"
        },
        {
          "internalType": "bytes32",
          "name": "securityS",
          "type": "bytes32"
        }
      ],
      "name": "unlock",
      "outputs": [],
      "stateMutability": "nonpayable",
      "type": "function"
    }
  ],
  "bytecode": "0x60a06040523480156200001157600080fd5b5060405162003f8238038062003f8283398181016040528101906200003791906200011b565b7fd87cd6ef79d4e2b95e15ce8abf732db51ec771f1ca2edccf22a46c729ac5647260001b7ffc8e166e81add347414f67a8064c94523802ae76625708af4cddc107b656844f60001b7fc89efdaa54c0f20c7adf612882df0950f5a951637e0307cdcb4c672f298b8bc660001b83307f233cdb81615d25013bb0519fbe69c16ddc77f9fa6a9395bd2aecfdfc1c0896e360001b604051602001620000e09695949392919062000180565b60405160208183030381529060405280519060200120608081815250505062000268565b60008151905062000115816200024e565b92915050565b60006020828403121562000134576200013362000249565b5b6000620001448482850162000104565b91505092915050565b6200015881620001ed565b82525050565b620001698162000221565b82525050565b6200017a8162000217565b82525050565b600060c0820190506200019760008301896200014d565b620001a660208301886200014d565b620001b560408301876200014d565b620001c460608301866200016f565b620001d360808301856200015e565b620001e260a08301846200014d565b979650505050505050565b6000819050919050565b600073ffffffffffffffffffffffffffffffffffffffff82169050919050565b6000819050919050565b60006200022e8262000235565b9050919050565b60006200024282620001f7565b9050919050565b600080fd5b620002598162000217565b81146200026557600080fd5b50565b608051613ce962000299600039600081816106ea015281816112ee01528181611b75015261220d0152613ce96000f3fe608060405234801561001057600080fd5b506004361061009e5760003560e01c80639c8fce2c116100665780639c8fce2c1461017f578063ad315025146101af578063b5f531a6146101cb578063c325f3e0146101e7578063f435f5a7146102035761009e565b806323c1ee43146100a35780632fea7b81146100d35780634a4fbeec146101035780634f91e97414610133578063544d85641461014f575b600080fd5b6100bd60048036038101906100b89190612b56565b61021f565b6040516100ca919061345a565b60405180910390f35b6100ed60048036038101906100e89190612b56565b610381565b6040516100fa91906130bf565b60405180910390f35b61011d60048036038101906101189190612b56565b61045e565b60405161012a91906130da565b60405180910390f35b61014d60048036038101906101489190612b83565b6105cd565b005b61016960048036038101906101649190612b56565b610c5d565b60405161017691906130bf565b60405180910390f35b61019960048036038101906101949190612b56565b610ddf565b6040516101a6919061345a565b60405180910390f35b6101c960048036038101906101c49190612b83565b610f41565b005b6101e560048036038101906101e09190612c25565b6116a8565b005b61020160048036038101906101fc9190612cef565b61213c565b005b61021d60048036038101906102189190612b56565b61271b565b005b6000600660008373ffffffffffffffffffffffffffffffffffffffff1673ffffffffffffffffffffffffffffffffffffffff16815260200190815260200160002060009054906101000a900460ff166102ad576040517f08c379a00000000000000000000000000000000000000000000000000000000081526004016102a49061333a565b60405180910390fd5b600560008373ffffffffffffffffffffffffffffffffffffffff1673ffffffffffffffffffffffffffffffffffffffff16815260200190815260200160002060009054906101000a900460ff161561033a576040517f08c379a0000000000000000000000000000000000000000000000000000000008152600401610331906133da565b60405180910390fd5b600160008373ffffffffffffffffffffffffffffffffffffffff1673ffffffffffffffffffffffffffffffffffffffff168152602001908152602001600020549050919050565b6000806000808473ffffffffffffffffffffffffffffffffffffffff1673ffffffffffffffffffffffffffffffffffffffff16815260200190815260200160002060009054906101000a900473ffffffffffffffffffffffffffffffffffffffff169050600073ffffffffffffffffffffffffffffffffffffffff168173ffffffffffffffffffffffffffffffffffffffff161415610455576040517f08c379a000000000000000000000000000000000000000000000000000000000815260040161044c906132da565b60405180910390fd5b80915050919050565b6000600660008373ffffffffffffffffffffffffffffffffffffffff1673ffffffffffffffffffffffffffffffffffffffff16815260200190815260200160002060009054906101000a900460ff166104ec576040517f08c379a00000000000000000000000000000000000000000000000000000000081526004016104e39061333a565b60405180910390fd5b600560008373ffffffffffffffffffffffffffffffffffffffff1673ffffffffffffffffffffffffffffffffffffffff16815260200190815260200160002060009054906101000a900460ff1615610579576040517f08c379a0000000000000000000000000000000000000000000000000000000008152600401610570906133da565b60405180910390fd5b600760008373ffffffffffffffffffffffffffffffffffffffff1673ffffffffffffffffffffffffffffffffffffffff16815260200190815260200160002060009054906101000a900460ff169050919050565b600660008873ffffffffffffffffffffffffffffffffffffffff1673ffffffffffffffffffffffffffffffffffffffff16815260200190815260200160002060009054906101000a900460ff16610659576040517f08c379a00000000000000000000000000000000000000000000000000000000081526004016106509061333a565b60405180910390fd5b600560008873ffffffffffffffffffffffffffffffffffffffff1673ffffffffffffffffffffffffffffffffffffffff16815260200190815260200160002060009054906101000a900460ff16156106e6576040517f08c379a00000000000000000000000000000000000000000000000000000000081526004016106dd9061339a565b60405180910390fd5b60007f00000000000000000000000000000000000000000000000000000000000000007f21459c8977584463672e32d031e5caf426140890a0f0d2172da41491b70ef9f560001b60405160200161073d91906130f5565b60405160208183030381529060405280519060200120604051602001610764929190613088565b6040516020818303038152906040528051906020012090506000600182898989604051600081526020016040526040516107a194939291906131b5565b6020604051602081039080840390855afa1580156107c3573d6000803e3d6000fd5b5050506020604051035190508073ffffffffffffffffffffffffffffffffffffffff16600460008b73ffffffffffffffffffffffffffffffffffffffff1673ffffffffffffffffffffffffffffffffffffffff16815260200190815260200160002060009054906101000a900473ffffffffffffffffffffffffffffffffffffffff1673ffffffffffffffffffffffffffffffffffffffff161461089c576040517f08c379a00000000000000000000000000000000000000000000000000000000081526004016108939061335a565b60405180910390fd5b6000600183878787604051600081526020016040526040516108c194939291906131b5565b6020604051602081039080840390855afa1580156108e3573d6000803e3d6000fd5b5050506020604051035190508073ffffffffffffffffffffffffffffffffffffffff16600360008c73ffffffffffffffffffffffffffffffffffffffff1673ffffffffffffffffffffffffffffffffffffffff16815260200190815260200160002060009054906101000a900473ffffffffffffffffffffffffffffffffffffffff1673ffffffffffffffffffffffffffffffffffffffff16146109bc576040517f08c379a00000000000000000000000000000000000000000000000000000000081526004016109b3906133ba565b60405180910390fd5b6001600560008c73ffffffffffffffffffffffffffffffffffffffff1673ffffffffffffffffffffffffffffffffffffffff16815260200190815260200160002060006101000a81548160ff0219169083151502179055506000808373ffffffffffffffffffffffffffffffffffffffff1673ffffffffffffffffffffffffffffffffffffffff16815260200190815260200160002060006101000a81549073ffffffffffffffffffffffffffffffffffffffff0219169055600160008b73ffffffffffffffffffffffffffffffffffffffff1673ffffffffffffffffffffffffffffffffffffffff16815260200190815260200160002060009055600260008b73ffffffffffffffffffffffffffffffffffffffff1673ffffffffffffffffffffffffffffffffffffffff16815260200190815260200160002060009055600360008b73ffffffffffffffffffffffffffffffffffffffff1673ffffffffffffffffffffffffffffffffffffffff16815260200190815260200160002060006101000a81549073ffffffffffffffffffffffffffffffffffffffff0219169055600460008b73ffffffffffffffffffffffffffffffffffffffff1673ffffffffffffffffffffffffffffffffffffffff16815260200190815260200160002060006101000a81549073ffffffffffffffffffffffffffffffffffffffff0219169055600760008b73ffffffffffffffffffffffffffffffffffffffff1673ffffffffffffffffffffffffffffffffffffffff16815260200190815260200160002060006101000a81549060ff02191690558973ffffffffffffffffffffffffffffffffffffffff167f1784cfb685928018dc24751ec5bf75fbdc0549441a271950dc0b15c92be3d16860405160405180910390a250505050505050505050565b6000600660008373ffffffffffffffffffffffffffffffffffffffff1673ffffffffffffffffffffffffffffffffffffffff16815260200190815260200160002060009054906101000a900460ff16610ceb576040517f08c379a0000000000000000000000000000000000000000000000000000000008152600401610ce29061333a565b60405180910390fd5b600560008373ffffffffffffffffffffffffffffffffffffffff1673ffffffffffffffffffffffffffffffffffffffff16815260200190815260200160002060009054906101000a900460ff1615610d78576040517f08c379a0000000000000000000000000000000000000000000000000000000008152600401610d6f906133da565b60405180910390fd5b600460008373ffffffffffffffffffffffffffffffffffffffff1673ffffffffffffffffffffffffffffffffffffffff16815260200190815260200160002060009054906101000a900473ffffffffffffffffffffffffffffffffffffffff169050919050565b6000600660008373ffffffffffffffffffffffffffffffffffffffff1673ffffffffffffffffffffffffffffffffffffffff16815260200190815260200160002060009054906101000a900460ff16610e6d576040517f08c379a0000000000000000000000000000000000000000000000000000000008152600401610e649061333a565b60405180910390fd5b600560008373ffffffffffffffffffffffffffffffffffffffff1673ffffffffffffffffffffffffffffffffffffffff16815260200190815260200160002060009054906101000a900460ff1615610efa576040517f08c379a0000000000000000000000000000000000000000000000000000000008152600401610ef1906133da565b60405180910390fd5b600260008373ffffffffffffffffffffffffffffffffffffffff1673ffffffffffffffffffffffffffffffffffffffff168152602001908152602001600020549050919050565b600660008873ffffffffffffffffffffffffffffffffffffffff1673ffffffffffffffffffffffffffffffffffffffff16815260200190815260200160002060009054906101000a900460ff16610fcd576040517f08c379a0000000000000000000000000000000000000000000000000000000008152600401610fc49061333a565b60405180910390fd5b600560008873ffffffffffffffffffffffffffffffffffffffff1673ffffffffffffffffffffffffffffffffffffffff16815260200190815260200160002060009054906101000a900460ff161561105a576040517f08c379a0000000000000000000000000000000000000000000000000000000008152600401611051906133da565b60405180910390fd5b600760008873ffffffffffffffffffffffffffffffffffffffff1673ffffffffffffffffffffffffffffffffffffffff16815260200190815260200160002060009054906101000a900460ff166110e6576040517f08c379a00000000000000000000000000000000000000000000000000000000081526004016110dd906132ba565b60405180910390fd5b7fffffffffffffffffffffffffffffffffffffffffffffffffffffffffffffffff600160008973ffffffffffffffffffffffffffffffffffffffff1673ffffffffffffffffffffffffffffffffffffffff168152602001908152602001600020541415611188576040517f08c379a000000000000000000000000000000000000000000000000000000000815260040161117f9061329a565b60405180910390fd5b600460008873ffffffffffffffffffffffffffffffffffffffff1673ffffffffffffffffffffffffffffffffffffffff16815260200190815260200160002060009054906101000a900473ffffffffffffffffffffffffffffffffffffffff1673ffffffffffffffffffffffffffffffffffffffff163373ffffffffffffffffffffffffffffffffffffffff1614806112ab5750600360008873ffffffffffffffffffffffffffffffffffffffff1673ffffffffffffffffffffffffffffffffffffffff16815260200190815260200160002060009054906101000a900473ffffffffffffffffffffffffffffffffffffffff1673ffffffffffffffffffffffffffffffffffffffff163373ffffffffffffffffffffffffffffffffffffffff16145b6112ea576040517f08c379a00000000000000000000000000000000000000000000000000000000081526004016112e19061331a565b60405180910390fd5b60007f00000000000000000000000000000000000000000000000000000000000000007fd814812ff462bae7ba452aadd08061fe1b4bda9916c0c4a84c25a78985670a7b60001b600160008b73ffffffffffffffffffffffffffffffffffffffff1673ffffffffffffffffffffffffffffffffffffffff1681526020019081526020016000205460405160200161138292919061318c565b604051602081830303815290604052805190602001206040516020016113a9929190613088565b6040516020818303038152906040528051906020012090506000600182898989604051600081526020016040526040516113e694939291906131b5565b6020604051602081039080840390855afa158015611408573d6000803e3d6000fd5b5050506020604051035190508073ffffffffffffffffffffffffffffffffffffffff16600460008b73ffffffffffffffffffffffffffffffffffffffff1673ffffffffffffffffffffffffffffffffffffffff16815260200190815260200160002060009054906101000a900473ffffffffffffffffffffffffffffffffffffffff1673ffffffffffffffffffffffffffffffffffffffff16146114e1576040517f08c379a00000000000000000000000000000000000000000000000000000000081526004016114d89061335a565b60405180910390fd5b60006001838787876040516000815260200160405260405161150694939291906131b5565b6020604051602081039080840390855afa158015611528573d6000803e3d6000fd5b5050506020604051035190508073ffffffffffffffffffffffffffffffffffffffff16600360008c73ffffffffffffffffffffffffffffffffffffffff1673ffffffffffffffffffffffffffffffffffffffff16815260200190815260200160002060009054906101000a900473ffffffffffffffffffffffffffffffffffffffff1673ffffffffffffffffffffffffffffffffffffffff1614611601576040517f08c379a00000000000000000000000000000000000000000000000000000000081526004016115f8906133ba565b60405180910390fd5b6000600760008c73ffffffffffffffffffffffffffffffffffffffff1673ffffffffffffffffffffffffffffffffffffffff16815260200190815260200160002060006101000a81548160ff0219169083151502179055508973ffffffffffffffffffffffffffffffffffffffff167f0be774851955c26a1d6a32b13b020663a069006b4a3b643ff0b809d31826057260405160405180910390a250505050505050505050565b600660008a73ffffffffffffffffffffffffffffffffffffffff1673ffffffffffffffffffffffffffffffffffffffff16815260200190815260200160002060009054906101000a900460ff16611734576040517f08c379a000000000000000000000000000000000000000000000000000000000815260040161172b9061333a565b60405180910390fd5b600560008a73ffffffffffffffffffffffffffffffffffffffff1673ffffffffffffffffffffffffffffffffffffffff16815260200190815260200160002060009054906101000a900460ff16156117c1576040517f08c379a00000000000000000000000000000000000000000000000000000000081526004016117b8906133da565b60405180910390fd5b8173ffffffffffffffffffffffffffffffffffffffff168973ffffffffffffffffffffffffffffffffffffffff161415801561182957508073ffffffffffffffffffffffffffffffffffffffff168973ffffffffffffffffffffffffffffffffffffffff1614155b801561186157508073ffffffffffffffffffffffffffffffffffffffff168273ffffffffffffffffffffffffffffffffffffffff1614155b6118a0576040517f08c379a00000000000000000000000000000000000000000000000000000000081526004016118979061343a565b60405180910390fd5b600073ffffffffffffffffffffffffffffffffffffffff166000808473ffffffffffffffffffffffffffffffffffffffff1673ffffffffffffffffffffffffffffffffffffffff16815260200190815260200160002060009054906101000a900473ffffffffffffffffffffffffffffffffffffffff1673ffffffffffffffffffffffffffffffffffffffff161461196d576040517f08c379a0000000000000000000000000000000000000000000000000000000008152600401611964906133fa565b60405180910390fd5b600460008a73ffffffffffffffffffffffffffffffffffffffff1673ffffffffffffffffffffffffffffffffffffffff16815260200190815260200160002060009054906101000a900473ffffffffffffffffffffffffffffffffffffffff1673ffffffffffffffffffffffffffffffffffffffff163373ffffffffffffffffffffffffffffffffffffffff161480611a905750600360008a73ffffffffffffffffffffffffffffffffffffffff1673ffffffffffffffffffffffffffffffffffffffff16815260200190815260200160002060009054906101000a900473ffffffffffffffffffffffffffffffffffffffff1673ffffffffffffffffffffffffffffffffffffffff163373ffffffffffffffffffffffffffffffffffffffff16145b611acf576040517f08c379a0000000000000000000000000000000000000000000000000000000008152600401611ac69061323a565b60405180910390fd5b7fffffffffffffffffffffffffffffffffffffffffffffffffffffffffffffffff600260008b73ffffffffffffffffffffffffffffffffffffffff1673ffffffffffffffffffffffffffffffffffffffff168152602001908152602001600020541415611b71576040517f08c379a0000000000000000000000000000000000000000000000000000000008152600401611b689061327a565b60405180910390fd5b60007f00000000000000000000000000000000000000000000000000000000000000007f3925a5eeb744076e798ef9df4a1d3e1d70bcca2f478f6df9e6f0496d7de53e1e60001b8484600260008f73ffffffffffffffffffffffffffffffffffffffff1673ffffffffffffffffffffffffffffffffffffffff16815260200190815260200160002054604051602001611c0d9493929190613147565b60405160208183030381529060405280519060200120604051602001611c34929190613088565b60405160208183030381529060405280519060200120905060006001828b8b8b60405160008152602001604052604051611c7194939291906131b5565b6020604051602081039080840390855afa158015611c93573d6000803e3d6000fd5b5050506020604051035190508073ffffffffffffffffffffffffffffffffffffffff16600460008d73ffffffffffffffffffffffffffffffffffffffff1673ffffffffffffffffffffffffffffffffffffffff16815260200190815260200160002060009054906101000a900473ffffffffffffffffffffffffffffffffffffffff1673ffffffffffffffffffffffffffffffffffffffff1614611d6c576040517f08c379a0000000000000000000000000000000000000000000000000000000008152600401611d639061335a565b60405180910390fd5b600060018389898960405160008152602001604052604051611d9194939291906131b5565b6020604051602081039080840390855afa158015611db3573d6000803e3d6000fd5b5050506020604051035190508073ffffffffffffffffffffffffffffffffffffffff16600360008e73ffffffffffffffffffffffffffffffffffffffff1673ffffffffffffffffffffffffffffffffffffffff16815260200190815260200160002060009054906101000a900473ffffffffffffffffffffffffffffffffffffffff1673ffffffffffffffffffffffffffffffffffffffff1614611e8c576040517f08c379a0000000000000000000000000000000000000000000000000000000008152600401611e839061335a565b60405180910390fd5b6000808373ffffffffffffffffffffffffffffffffffffffff1673ffffffffffffffffffffffffffffffffffffffff16815260200190815260200160002060006101000a81549073ffffffffffffffffffffffffffffffffffffffff02191690558b6000808773ffffffffffffffffffffffffffffffffffffffff1673ffffffffffffffffffffffffffffffffffffffff16815260200190815260200160002060006101000a81548173ffffffffffffffffffffffffffffffffffffffff021916908373ffffffffffffffffffffffffffffffffffffffff16021790555084600460008e73ffffffffffffffffffffffffffffffffffffffff1673ffffffffffffffffffffffffffffffffffffffff16815260200190815260200160002060006101000a81548173ffffffffffffffffffffffffffffffffffffffff021916908373ffffffffffffffffffffffffffffffffffffffff16021790555083600360008e73ffffffffffffffffffffffffffffffffffffffff1673ffffffffffffffffffffffffffffffffffffffff16815260200190815260200160002060006101000a81548173ffffffffffffffffffffffffffffffffffffffff021916908373ffffffffffffffffffffffffffffffffffffffff1602179055506001600260008e73ffffffffffffffffffffffffffffffffffffffff1673ffffffffffffffffffffffffffffffffffffffff16815260200190815260200160002060008282546120b69190613491565b925050819055508373ffffffffffffffffffffffffffffffffffffffff168573ffffffffffffffffffffffffffffffffffffffff168d73ffffffffffffffffffffffffffffffffffffffff167fe729dce079e210300d45fb8f49226fe84d6d51175a2b74a6c17752037022e27960405160405180910390a4505050505050505050505050565b600073ffffffffffffffffffffffffffffffffffffffff166000808473ffffffffffffffffffffffffffffffffffffffff1673ffffffffffffffffffffffffffffffffffffffff16815260200190815260200160002060009054906101000a900473ffffffffffffffffffffffffffffffffffffffff1673ffffffffffffffffffffffffffffffffffffffff1614612209576040517f08c379a00000000000000000000000000000000000000000000000000000000081526004016122009061321a565b60405180910390fd5b60007f00000000000000000000000000000000000000000000000000000000000000007f469a26f6afcc5806677c064ceb4b952f409123d7e70ab1fd0a51e86205b9937b60001b848460405160200161226493929190613110565b6040516020818303038152906040528051906020012060405160200161228b929190613088565b6040516020818303038152906040528051906020012090506000600182888888604051600081526020016040526040516122c894939291906131b5565b6020604051602081039080840390855afa1580156122ea573d6000803e3d6000fd5b5050506020604051035190508073ffffffffffffffffffffffffffffffffffffffff163373ffffffffffffffffffffffffffffffffffffffff1614612364576040517f08c379a000000000000000000000000000000000000000000000000000000000815260040161235b906131fa565b60405180910390fd5b8373ffffffffffffffffffffffffffffffffffffffff168173ffffffffffffffffffffffffffffffffffffffff16141580156123cc57508273ffffffffffffffffffffffffffffffffffffffff168173ffffffffffffffffffffffffffffffffffffffff1614155b801561240457508273ffffffffffffffffffffffffffffffffffffffff168473ffffffffffffffffffffffffffffffffffffffff1614155b612443576040517f08c379a000000000000000000000000000000000000000000000000000000000815260040161243a9061337a565b60405180910390fd5b600660008273ffffffffffffffffffffffffffffffffffffffff1673ffffffffffffffffffffffffffffffffffffffff16815260200190815260200160002060009054906101000a900460ff16156124d0576040517f08c379a00000000000000000000000000000000000000000000000000000000081526004016124c79061341a565b60405180910390fd5b806000808673ffffffffffffffffffffffffffffffffffffffff1673ffffffffffffffffffffffffffffffffffffffff16815260200190815260200160002060006101000a81548173ffffffffffffffffffffffffffffffffffffffff021916908373ffffffffffffffffffffffffffffffffffffffff16021790555083600460008373ffffffffffffffffffffffffffffffffffffffff1673ffffffffffffffffffffffffffffffffffffffff16815260200190815260200160002060006101000a81548173ffffffffffffffffffffffffffffffffffffffff021916908373ffffffffffffffffffffffffffffffffffffffff1602179055506001600660008373ffffffffffffffffffffffffffffffffffffffff1673ffffffffffffffffffffffffffffffffffffffff16815260200190815260200160002060006101000a81548160ff02191690831515021790555082600360008373ffffffffffffffffffffffffffffffffffffffff1673ffffffffffffffffffffffffffffffffffffffff16815260200190815260200160002060006101000a81548173ffffffffffffffffffffffffffffffffffffffff021916908373ffffffffffffffffffffffffffffffffffffffff1602179055508273ffffffffffffffffffffffffffffffffffffffff168473ffffffffffffffffffffffffffffffffffffffff168273ffffffffffffffffffffffffffffffffffffffff167fb224da6575b2c2ffd42454faedb236f7dbe5f92a0c96bb99c0273dbe98464c7e60405160405180910390a450505050505050565b600660008273ffffffffffffffffffffffffffffffffffffffff1673ffffffffffffffffffffffffffffffffffffffff16815260200190815260200160002060009054906101000a900460ff166127a7576040517f08c379a000000000000000000000000000000000000000000000000000000000815260040161279e9061333a565b60405180910390fd5b600560008273ffffffffffffffffffffffffffffffffffffffff1673ffffffffffffffffffffffffffffffffffffffff16815260200190815260200160002060009054906101000a900460ff1615612834576040517f08c379a000000000000000000000000000000000000000000000000000000000815260040161282b906133da565b60405180910390fd5b600760008273ffffffffffffffffffffffffffffffffffffffff1673ffffffffffffffffffffffffffffffffffffffff16815260200190815260200160002060009054906101000a900460ff16156128c1576040517f08c379a00000000000000000000000000000000000000000000000000000000081526004016128b8906132fa565b60405180910390fd5b600460008273ffffffffffffffffffffffffffffffffffffffff1673ffffffffffffffffffffffffffffffffffffffff16815260200190815260200160002060009054906101000a900473ffffffffffffffffffffffffffffffffffffffff1673ffffffffffffffffffffffffffffffffffffffff163373ffffffffffffffffffffffffffffffffffffffff1614806129e45750600360008273ffffffffffffffffffffffffffffffffffffffff1673ffffffffffffffffffffffffffffffffffffffff16815260200190815260200160002060009054906101000a900473ffffffffffffffffffffffffffffffffffffffff1673ffffffffffffffffffffffffffffffffffffffff163373ffffffffffffffffffffffffffffffffffffffff16145b612a23576040517f08c379a0000000000000000000000000000000000000000000000000000000008152600401612a1a9061325a565b60405180910390fd5b6001600760008373ffffffffffffffffffffffffffffffffffffffff1673ffffffffffffffffffffffffffffffffffffffff16815260200190815260200160002060006101000a81548160ff02191690831515021790555060018060008373ffffffffffffffffffffffffffffffffffffffff1673ffffffffffffffffffffffffffffffffffffffff1681526020019081526020016000206000828254612aca9190613491565b925050819055508073ffffffffffffffffffffffffffffffffffffffff167fc1b5f12cea7c200ad495a43bf2d4c7ba1a753343c06c339093937849de84d91360405160405180910390a250565b600081359050612b2681613c6e565b92915050565b600081359050612b3b81613c85565b92915050565b600081359050612b5081613c9c565b92915050565b600060208284031215612b6c57612b6b61357f565b5b6000612b7a84828501612b17565b91505092915050565b600080600080600080600060e0888a031215612ba257612ba161357f565b5b6000612bb08a828b01612b17565b9750506020612bc18a828b01612b41565b9650506040612bd28a828b01612b2c565b9550506060612be38a828b01612b2c565b9450506080612bf48a828b01612b41565b93505060a0612c058a828b01612b2c565b92505060c0612c168a828b01612b2c565b91505092959891949750929550565b60008060008060008060008060006101208a8c031215612c4857612c4761357f565b5b6000612c568c828d01612b17565b9950506020612c678c828d01612b41565b9850506040612c788c828d01612b2c565b9750506060612c898c828d01612b2c565b9650506080612c9a8c828d01612b41565b95505060a0612cab8c828d01612b2c565b94505060c0612cbc8c828d01612b2c565b93505060e0612ccd8c828d01612b17565b925050610100612cdf8c828d01612b17565b9150509295985092959850929598565b600080600080600060a08688031215612d0b57612d0a61357f565b5b6000612d1988828901612b41565b9550506020612d2a88828901612b2c565b9450506040612d3b88828901612b2c565b9350506060612d4c88828901612b17565b9250506080612d5d88828901612b17565b9150509295509295909350565b612d73816134e7565b82525050565b612d82816134f9565b82525050565b612d9181613505565b82525050565b612da8612da382613505565b613546565b82525050565b6000612dbb600283613486565b9150612dc682613584565b600282019050919050565b6000612dde605183613475565b9150612de9826135ad565b606082019050919050565b6000612e01603983613475565b9150612e0c82613622565b604082019050919050565b6000612e24604583613475565b9150612e2f82613671565b606082019050919050565b6000612e47603d83613475565b9150612e52826136e6565b604082019050919050565b6000612e6a605a83613475565b9150612e7582613735565b606082019050919050565b6000612e8d603483613475565b9150612e98826137aa565b604082019050919050565b6000612eb0603283613475565b9150612ebb826137f9565b604082019050919050565b6000612ed3605183613475565b9150612ede82613848565b606082019050919050565b6000612ef6603683613475565b9150612f01826138bd565b604082019050919050565b6000612f19604383613475565b9150612f248261390c565b606082019050919050565b6000612f3c602983613475565b9150612f4782613981565b604082019050919050565b6000612f5f603983613475565b9150612f6a826139d0565b604082019050919050565b6000612f82602583613475565b9150612f8d82613a1f565b604082019050919050565b6000612fa5603983613475565b9150612fb082613a6e565b604082019050919050565b6000612fc8603983613475565b9150612fd382613abd565b604082019050919050565b6000612feb603183613475565b9150612ff682613b0c565b604082019050919050565b600061300e604183613475565b915061301982613b5b565b606082019050919050565b6000613031603583613475565b915061303c82613bd0565b604082019050919050565b6000613054602983613475565b915061305f82613c1f565b604082019050919050565b6130738161352f565b82525050565b61308281613539565b82525050565b600061309382612dae565b915061309f8285612d97565b6020820191506130af8284612d97565b6020820191508190509392505050565b60006020820190506130d46000830184612d6a565b92915050565b60006020820190506130ef6000830184612d79565b92915050565b600060208201905061310a6000830184612d88565b92915050565b60006060820190506131256000830186612d88565b6131326020830185612d6a565b61313f6040830184612d6a565b949350505050565b600060808201905061315c6000830187612d88565b6131696020830186612d6a565b6131766040830185612d6a565b613183606083018461306a565b95945050505050565b60006040820190506131a16000830185612d88565b6131ae602083018461306a565b9392505050565b60006080820190506131ca6000830187612d88565b6131d76020830186613079565b6131e46040830185612d88565b6131f16060830184612d88565b95945050505050565b6000602082019050818103600083015261321381612dd1565b9050919050565b6000602082019050818103600083015261323381612df4565b9050919050565b6000602082019050818103600083015261325381612e17565b9050919050565b6000602082019050818103600083015261327381612e3a565b9050919050565b6000602082019050818103600083015261329381612e5d565b9050919050565b600060208201905081810360008301526132b381612e80565b9050919050565b600060208201905081810360008301526132d381612ea3565b9050919050565b600060208201905081810360008301526132f381612ec6565b9050919050565b6000602082019050818103600083015261331381612ee9565b9050919050565b6000602082019050818103600083015261333381612f0c565b9050919050565b6000602082019050818103600083015261335381612f2f565b9050919050565b6000602082019050818103600083015261337381612f52565b9050919050565b6000602082019050818103600083015261339381612f75565b9050919050565b600060208201905081810360008301526133b381612f98565b9050919050565b600060208201905081810360008301526133d381612fbb565b9050919050565b600060208201905081810360008301526133f381612fde565b9050919050565b6000602082019050818103600083015261341381613001565b9050919050565b6000602082019050818103600083015261343381613024565b9050919050565b6000602082019050818103600083015261345381613047565b9050919050565b600060208201905061346f600083018461306a565b92915050565b600082825260208201905092915050565b600081905092915050565b600061349c8261352f565b91506134a78361352f565b9250827fffffffffffffffffffffffffffffffffffffffffffffffffffffffffffffffff038211156134dc576134db613550565b5b828201905092915050565b60006134f28261350f565b9050919050565b60008115159050919050565b6000819050919050565b600073ffffffffffffffffffffffffffffffffffffffff82169050919050565b6000819050919050565b600060ff82169050919050565b6000819050919050565b7f4e487b7100000000000000000000000000000000000000000000000000000000600052601160045260246000fd5b600080fd5b7f1901000000000000000000000000000000000000000000000000000000000000600082015250565b7f5369676e6174614964656e746974793a20546865206964656e7469747920746f60008201527f2062652063726561746564206d757374206d617463682074686520616464726560208201527f7373206f66207468652073656e6465722e000000000000000000000000000000604082015250565b7f5369676e6174614964656e746974793a2044656c6567617465206b6579206d7560008201527f7374206e6f7420616c726561647920626520696e207573652e00000000000000602082015250565b7f5369676e6174614964656e746974793a205468652073656e646572206973207560008201527f6e617574686f726973656420746f20726f6c6c6f76657220746865206964656e60208201527f746974792e000000000000000000000000000000000000000000000000000000604082015250565b7f5369676e6174614964656e746974793a205468652073656e646572206973207560008201527f6e617574686f726973656420746f206c6f636b206964656e746974792e000000602082015250565b7f5369676e6174614964656e746974793a20546865206964656e7469747920686160008201527f7320616c7265616479207265616368656420746865206d6178696d756d206e7560208201527f6d626572206f6620726f6c6c6f7665727320616c6c6f7765642e000000000000604082015250565b7f5369676e6174614964656e746974793a20546865206964656e7469747920697360008201527f207065726d616e656e746c79206c6f636b65642e000000000000000000000000602082015250565b7f5369676e6174614964656e746974793a20546865206964656e7469747920697360008201527f20616c726561647920756e6c6f636b65642e0000000000000000000000000000602082015250565b7f5369676e6174614964656e746974793a205468652064656c6567617465206b6560008201527f792070726f7669646564206973206e6f74206c696e6b656420746f20616e206560208201527f78697374696e67206964656e746974792e000000000000000000000000000000604082015250565b7f5369676e6174614964656e746974793a20546865206964656e7469747920686160008201527f7320616c7265616479206265656e206c6f636b65642e00000000000000000000602082015250565b7f5369676e6174614964656e746974793a205468652073656e646572206973207560008201527f6e617574686f726973656420746f20756e6c6f636b20746865206964656e746960208201527f74792e0000000000000000000000000000000000000000000000000000000000604082015250565b7f5369676e6174614964656e746974793a20546865206964656e74697479206d7560008201527f73742065786973742e0000000000000000000000000000000000000000000000602082015250565b7f5369676e6174614964656e746974793a20496e76616c69642064656c6567617460008201527f65206b6579207369676e61747572652070726f76696465642e00000000000000602082015250565b7f5369676e6174614964656e746974793a204b657973206d75737420626520756e60008201527f697175652e000000000000000000000000000000000000000000000000000000602082015250565b7f5369676e6174614964656e746974793a20546865206964656e7469747920686160008201527f7320616c7265616479206265656e2064657374726f7965642e00000000000000602082015250565b7f5369676e6174614964656e746974793a20496e76616c6964207365637572697460008201527f79206b6579207369676e61747572652070726f76696465642e00000000000000602082015250565b7f5369676e6174614964656e746974793a20546865206964656e7469747920686160008201527f73206265656e2064657374726f7965642e000000000000000000000000000000602082015250565b7f5369676e6174614964656e746974793a20546865206e65772064656c6567617460008201527f65206b6579206d757374206e6f7420616c726561647920626520696e2075736560208201527f2e00000000000000000000000000000000000000000000000000000000000000604082015250565b7f5369676e6174614964656e746974793a20546865206964656e74697479206d7560008201527f7374206e6f7420616c72656164792065786973742e0000000000000000000000602082015250565b7f5369676e6174614964656e746974793a20546865206b657973206d757374206260008201527f6520756e697175652e0000000000000000000000000000000000000000000000602082015250565b613c77816134e7565b8114613c8257600080fd5b50565b613c8e81613505565b8114613c9957600080fd5b50565b613ca581613539565b8114613cb057600080fd5b5056fea26469706673582212203c638ee45dba4871dde001a378680a4efca413f4678371a2f3454e3df7762a5764736f6c63430008050033",
  "immutableReferences": {
    "34": [
      {
        "length": 32,
        "start": 1770
      },
      {
        "length": 32,
        "start": 4846
      },
      {
        "length": 32,
        "start": 7029
      },
      {
        "length": 32,
        "start": 8717
      }
    ]
  },
  "source": "// SPDX-License-Identifier: MIT\r\n\r\npragma solidity 0.8.5;\r\n\r\ncontract SignataIdentity {\r\n    uint256 private constant MAX_UINT256 = type(uint256).max;\r\n    \r\n    // keccak256(\"EIP712Domain(string name,string version,uint256 chainId,address verifyingContract,bytes32 salt)\")\r\n    bytes32 private constant EIP712DOMAINTYPE_DIGEST = 0xd87cd6ef79d4e2b95e15ce8abf732db51ec771f1ca2edccf22a46c729ac56472;\r\n    \r\n    // keccak256(\"Signata\")\r\n    bytes32 private constant NAME_DIGEST = 0xfc8e166e81add347414f67a8064c94523802ae76625708af4cddc107b656844f;\r\n    \r\n    // keccak256(\"1\")\r\n    bytes32 private constant VERSION_DIGEST = 0xc89efdaa54c0f20c7adf612882df0950f5a951637e0307cdcb4c672f298b8bc6;\r\n    \r\n    bytes32 private constant SALT = 0x233cdb81615d25013bb0519fbe69c16ddc77f9fa6a9395bd2aecfdfc1c0896e3;\r\n    \r\n    // keccak256(\"SignataIdentityCreateTransaction(address delegateKey, address securityKey)\")\r\n    bytes32 private constant TXTYPE_CREATE_DIGEST = 0x469a26f6afcc5806677c064ceb4b952f409123d7e70ab1fd0a51e86205b9937b;   \r\n    \r\n    // keccak256(\"SignataIdentityRolloverTransaction(address identity, address newDelegateKey, address newSecurityKey, uint256 rolloverCount)\")\r\n    bytes32 private constant TXTYPE_ROLLOVER_DIGEST = 0x3925a5eeb744076e798ef9df4a1d3e1d70bcca2f478f6df9e6f0496d7de53e1e;\r\n    \r\n    // keccak256(\"SignataIdentityUnlockTransaction(uint256 lockCount)\")\r\n    bytes32 private constant TXTYPE_UNLOCK_DIGEST = 0xd814812ff462bae7ba452aadd08061fe1b4bda9916c0c4a84c25a78985670a7b;\r\n    \r\n    // keccak256(\"SignataIdentityDestroyTransaction()\");\r\n    bytes32 private constant TXTYPE_DESTROY_DIGEST = 0x21459c8977584463672e32d031e5caf426140890a0f0d2172da41491b70ef9f5;\r\n    \r\n    bytes32 private immutable _domainSeperator;\r\n    \r\n    // storage\r\n    mapping(address => address) private _delegateKeyToIdentity;\r\n    mapping(address => uint256) private _identityLockCount;\r\n    mapping(address => uint256) private _identityRolloverCount;\r\n    mapping(address => address) private _identityToSecurityKey;\r\n    mapping(address => address) private _identityToDelegateKey;\r\n    mapping(address => bool) private _identityDestroyed;\r\n    mapping(address => bool) private _identityExists;\r\n    mapping(address => bool) private _identityLocked;\r\n    \r\n    constructor(uint256 chainId) {\r\n        _domainSeperator = keccak256(\r\n            abi.encode(\r\n                EIP712DOMAINTYPE_DIGEST,\r\n                NAME_DIGEST,\r\n                VERSION_DIGEST,\r\n                chainId,\r\n                this,\r\n                SALT\r\n            )\r\n        );\r\n    }\r\n    \r\n    event Create(address indexed identity, address indexed delegateKey, address indexed securityKey);\r\n    event Destroy(address indexed identity);\r\n    event Lock(address indexed identity);\r\n    event Rollover(address indexed identity, address indexed delegateKey, address indexed securityKey);\r\n    event Unlock(address indexed identity);\r\n    \r\n    function create(\r\n        uint8 identityV, \r\n        bytes32 identityR, \r\n        bytes32 identityS, \r\n        address delegateKey, \r\n        address securityKey\r\n    ) external {\r\n        require(\r\n            _delegateKeyToIdentity[delegateKey] == address(0),\r\n            \"SignataIdentity: Delegate key must not already be in use.\"\r\n        );\r\n        \r\n        bytes32 digest = keccak256(\r\n            abi.encodePacked(\r\n                \"\\x19\\x01\",\r\n                _domainSeperator,\r\n                keccak256(\r\n                    abi.encode(\r\n                        TXTYPE_CREATE_DIGEST,\r\n                        delegateKey,\r\n                        securityKey\r\n                    )\r\n                )\r\n            )\r\n        );\r\n        \r\n        address identity = ecrecover(digest, identityV, identityR, identityS);\r\n        \r\n        require(\r\n            msg.sender == identity,\r\n            \"SignataIdentity: The identity to be created must match the address of the sender.\"\r\n        );\r\n        \r\n        require(\r\n            identity != delegateKey && identity != securityKey && delegateKey != securityKey,\r\n            \"SignataIdentity: Keys must be unique.\"\r\n        );\r\n        \r\n        require(\r\n            !_identityExists[identity],\r\n            \"SignataIdentity: The identity must not already exist.\"\r\n        );\r\n        \r\n        _delegateKeyToIdentity[delegateKey] = identity;\r\n        _identityToDelegateKey[identity] = delegateKey;\r\n        _identityExists[identity] = true;\r\n        _identityToSecurityKey[identity] = securityKey;\r\n        \r\n        emit Create(identity, delegateKey, securityKey);\r\n    }\r\n    \r\n    function destroy(\r\n        address identity,\r\n        uint8 delegateV,\r\n        bytes32 delegateR, \r\n        bytes32 delegateS,\r\n        uint8 securityV,\r\n        bytes32 securityR, \r\n        bytes32 securityS\r\n    ) external {\r\n        require(\r\n            _identityExists[identity],\r\n            \"SignataIdentity: The identity must exist.\"\r\n        );\r\n        \r\n        require(\r\n            !_identityDestroyed[identity],\r\n            \"SignataIdentity: The identity has already been destroyed.\"\r\n        );\r\n        \r\n        bytes32 digest = keccak256(\r\n            abi.encodePacked(\r\n                \"\\x19\\x01\",\r\n                _domainSeperator,\r\n                keccak256(abi.encode(TXTYPE_DESTROY_DIGEST))\r\n            )\r\n        );\r\n        \r\n        address delegateKey = ecrecover(digest, delegateV, delegateR, delegateS);\r\n        \r\n        require(\r\n            _identityToDelegateKey[identity] == delegateKey,\r\n            \"SignataIdentity: Invalid delegate key signature provided.\"\r\n        );\r\n        \r\n        address securityKey = ecrecover(digest, securityV, securityR, securityS);\r\n        \r\n        require(\r\n            _identityToSecurityKey[identity] == securityKey,\r\n            \"SignataIdentity: Invalid security key signature provided.\"\r\n        );\r\n        \r\n        _identityDestroyed[identity] = true;\r\n        \r\n        delete _delegateKeyToIdentity[delegateKey];\r\n        delete _identityLockCount[identity];\r\n        delete _identityRolloverCount[identity];\r\n        delete _identityToSecurityKey[identity];\r\n        delete _identityToDelegateKey[identity];\r\n        delete _identityLocked[identity];\r\n        \r\n        emit Destroy(identity);\r\n    }\r\n    \r\n    function lock(address identity) external {\r\n        require(\r\n            _identityExists[identity],\r\n            \"SignataIdentity: The identity must exist.\"\r\n        );\r\n        \r\n        require(\r\n            !_identityDestroyed[identity],\r\n            \"SignataIdentity: The identity has been destroyed.\"\r\n        );\r\n        \r\n        require(\r\n            !_identityLocked[identity],\r\n            \"SignataIdentity: The identity has already been locked.\"\r\n        );\r\n        \r\n        require(\r\n            msg.sender == _identityToDelegateKey[identity] || msg.sender == _identityToSecurityKey[identity],\r\n            \"SignataIdentity: The sender is unauthorised to lock identity.\"\r\n        );\r\n        \r\n        _identityLocked[identity] = true;\r\n        _identityLockCount[identity] += 1;\r\n        \r\n        emit Lock(identity);\r\n    }\r\n    \r\n    function getDelegate(address identity) external view returns (address) {\r\n        require(\r\n            _identityExists[identity],\r\n            \"SignataIdentity: The identity must exist.\"\r\n        );\r\n        \r\n        require(\r\n            !_identityDestroyed[identity],\r\n            \"SignataIdentity: The identity has been destroyed.\"\r\n        );\r\n        \r\n        return _identityToDelegateKey[identity];\r\n    }\r\n    \r\n    function getIdentity(address delegateKey) \r\n        external\r\n        view \r\n        returns (address) \r\n    {\r\n        address identity = _delegateKeyToIdentity[delegateKey];\r\n        \r\n        require(\r\n            identity != address(0),\r\n            \"SignataIdentity: The delegate key provided is not linked to an existing identity.\"\r\n        );\r\n        \r\n        return identity;\r\n    }\r\n\r\n    function getLockCount(address identity)\r\n        external\r\n        view\r\n        returns (uint256) \r\n    {\r\n         require(\r\n            _identityExists[identity],\r\n            \"SignataIdentity: The identity must exist.\"\r\n        );\r\n        \r\n        require(\r\n            !_identityDestroyed[identity],\r\n            \"SignataIdentity: The identity has been destroyed.\"\r\n        );\r\n        \r\n        return _identityLockCount[identity];\r\n    }    \r\n    \r\n    function getRolloverCount(address identity)\r\n        external\r\n        view\r\n        returns (uint256) \r\n    {\r\n        require(\r\n            _identityExists[identity],\r\n            \"SignataIdentity: The identity must exist.\"\r\n        );\r\n        \r\n        require(\r\n            !_identityDestroyed[identity],\r\n            \"SignataIdentity: The identity has been destroyed.\"\r\n        );\r\n        \r\n        return _identityRolloverCount[identity];\r\n    }\r\n    \r\n    function isLocked(address identity)\r\n        external\r\n        view\r\n        returns (bool) \r\n    {\r\n        require(\r\n            _identityExists[identity],\r\n            \"SignataIdentity: The identity must exist.\"\r\n        );\r\n        \r\n        require(\r\n            !_identityDestroyed[identity],\r\n            \"SignataIdentity: The identity has been destroyed.\"\r\n        );\r\n        \r\n        return _identityLocked[identity];\r\n    }\r\n    \r\n    function rollover(\r\n        address identity,\r\n        uint8 delegateV, \r\n        bytes32 delegateR, \r\n        bytes32 delegateS, \r\n        uint8 securityV, \r\n        bytes32 securityR, \r\n        bytes32 securityS,\r\n        address newDelegateKey, \r\n        address newSecurityKey\r\n    ) \r\n        external \r\n    {\r\n        require(\r\n            _identityExists[identity],\r\n            \"SignataIdentity: The identity must exist.\"\r\n        );\r\n        \r\n        require(\r\n            !_identityDestroyed[identity],\r\n            \"SignataIdentity: The identity has been destroyed.\"\r\n        );\r\n        \r\n        require(\r\n            identity != newDelegateKey && identity != newSecurityKey && newDelegateKey != newSecurityKey,\r\n            \"SignataIdentity: The keys must be unique.\"\r\n        );\r\n        \r\n        require(\r\n            _delegateKeyToIdentity[newDelegateKey] == address(0),\r\n            \"SignataIdentity: The new delegate key must not already be in use.\"\r\n        );\r\n        \r\n        require(\r\n            msg.sender == _identityToDelegateKey[identity] || msg.sender == _identityToSecurityKey[identity],\r\n            \"SignataIdentity: The sender is unauthorised to rollover the identity.\"\r\n        );\r\n        \r\n        require(\r\n            _identityRolloverCount[identity] != MAX_UINT256,\r\n            \"SignataIdentity: The identity has already reached the maximum number of rollovers allowed.\"\r\n        );\r\n        \r\n        bytes32 digest = keccak256(\r\n            abi.encodePacked(\r\n                \"\\x19\\x01\",\r\n                _domainSeperator,\r\n                keccak256(\r\n                    abi.encode(\r\n                        TXTYPE_ROLLOVER_DIGEST,\r\n                        newDelegateKey,\r\n                        newSecurityKey,\r\n                        _identityRolloverCount[identity]\r\n                    )\r\n                )\r\n            )\r\n        );\r\n        \r\n        address delegateKey = ecrecover(digest, delegateV, delegateR, delegateS);\r\n        \r\n        require(\r\n            _identityToDelegateKey[identity] == delegateKey,\r\n            \"SignataIdentity: Invalid delegate key signature provided.\"\r\n        );\r\n        \r\n        address securityKey = ecrecover(digest, securityV, securityR, securityS);\r\n        \r\n        require(\r\n            _identityToSecurityKey[identity] == securityKey,\r\n            \"SignataIdentity: Invalid delegate key signature provided.\"\r\n        );\r\n        \r\n        delete _delegateKeyToIdentity[delegateKey];\r\n        \r\n        _delegateKeyToIdentity[newDelegateKey] = identity;\r\n        _identityToDelegateKey[identity] = newDelegateKey;\r\n        _identityToSecurityKey[identity] = newSecurityKey;\r\n        _identityRolloverCount[identity] += 1;\r\n        \r\n        emit Rollover(identity, newDelegateKey, newSecurityKey);\r\n    }\r\n    \r\n    function unlock(\r\n        address identity,\r\n        uint8 delegateV, \r\n        bytes32 delegateR, \r\n        bytes32 delegateS, \r\n        uint8 securityV, \r\n        bytes32 securityR, \r\n        bytes32 securityS\r\n    ) \r\n        external \r\n    {\r\n        require(\r\n            _identityExists[identity],\r\n            \"SignataIdentity: The identity must exist.\"\r\n        );\r\n        \r\n        require(\r\n            !_identityDestroyed[identity],\r\n            \"SignataIdentity: The identity has been destroyed.\"\r\n        );\r\n        \r\n        require(\r\n            _identityLocked[identity],\r\n            \"SignataIdentity: The identity is already unlocked.\"\r\n        );\r\n        \r\n        require(\r\n            _identityLockCount[identity] != MAX_UINT256,\r\n            \"SignataIdentity: The identity is permanently locked.\"\r\n        );\r\n        \r\n        require(\r\n            msg.sender == _identityToDelegateKey[identity] || msg.sender == _identityToSecurityKey[identity],\r\n            \"SignataIdentity: The sender is unauthorised to unlock the identity.\"\r\n        );\r\n        \r\n        bytes32 digest = keccak256(\r\n            abi.encodePacked(\r\n                \"\\x19\\x01\",\r\n                _domainSeperator,\r\n                keccak256(\r\n                    abi.encode(\r\n                        TXTYPE_UNLOCK_DIGEST,\r\n                        _identityLockCount[identity]\r\n                    )\r\n                )\r\n            )\r\n        );\r\n        \r\n        address delegateKey = ecrecover(digest, delegateV, delegateR, delegateS);\r\n        \r\n        require(\r\n            _identityToDelegateKey[identity] == delegateKey,\r\n            \"SignataIdentity: Invalid delegate key signature provided.\"\r\n        );\r\n        \r\n        address securityKey = ecrecover(digest, securityV, securityR, securityS);\r\n        \r\n        require(\r\n            _identityToSecurityKey[identity] == securityKey,\r\n            \"SignataIdentity: Invalid security key signature provided.\"\r\n        );\r\n        \r\n        _identityLocked[identity] = false;\r\n        \r\n        emit Unlock(identity);\r\n    }\r\n}",
  "sourcePath": "C:/Users/Tim/Projects/GitHub/sata-contracts-v1/contracts/SignataIdentity.sol",
  "compiler": {
    "name": "solc",
    "version": "0.8.5+commit.a4f2e591.Emscripten.clang"
  },
  "schemaVersion": "3.3.4",
  "updatedAt": "2021-06-29T05:04:54.138Z",
  "devdoc": {
    "kind": "dev",
    "methods": {},
    "version": 1
  },
  "userdoc": {
    "kind": "user",
    "methods": {},
    "version": 1
  }
}