{
  "contractName": "SignataRight",
  "abi": [
    {
      "inputs": [
        {
          "internalType": "string",
          "name": "name_",
          "type": "string"
        },
        {
          "internalType": "string",
          "name": "symbol_",
          "type": "string"
        },
        {
          "internalType": "address",
          "name": "signataIdentity_",
          "type": "address"
        },
        {
          "internalType": "string",
          "name": "mintingSchemaURI_",
          "type": "string"
        }
      ],
      "stateMutability": "nonpayable",
      "type": "constructor"
    },
    {
      "anonymous": false,
      "inputs": [
        {
          "indexed": true,
          "internalType": "address",
          "name": "owner",
          "type": "address"
        },
        {
          "indexed": true,
          "internalType": "address",
          "name": "approved",
          "type": "address"
        },
        {
          "indexed": true,
          "internalType": "uint256",
          "name": "tokenId",
          "type": "uint256"
        }
      ],
      "name": "Approval",
      "type": "event"
    },
    {
      "anonymous": false,
      "inputs": [
        {
          "indexed": true,
          "internalType": "address",
          "name": "owner",
          "type": "address"
        },
        {
          "indexed": true,
          "internalType": "address",
          "name": "operator",
          "type": "address"
        },
        {
          "indexed": false,
          "internalType": "bool",
          "name": "approved",
          "type": "bool"
        }
      ],
      "name": "ApprovalForAll",
      "type": "event"
    },
    {
      "anonymous": false,
      "inputs": [
        {
          "indexed": true,
          "internalType": "uint256",
          "name": "schemaId",
          "type": "uint256"
        },
        {
          "indexed": true,
          "internalType": "uint256",
          "name": "rightId",
          "type": "uint256"
        },
        {
          "indexed": true,
          "internalType": "bool",
          "name": "unbound",
          "type": "bool"
        }
      ],
      "name": "MintRight",
      "type": "event"
    },
    {
      "anonymous": false,
      "inputs": [
        {
          "indexed": true,
          "internalType": "uint256",
          "name": "schemaId",
          "type": "uint256"
        },
        {
          "indexed": true,
          "internalType": "uint256",
          "name": "mintingRightId",
          "type": "uint256"
        },
        {
          "indexed": true,
          "internalType": "bytes32",
          "name": "uriHash",
          "type": "bytes32"
        }
      ],
      "name": "MintSchema",
      "type": "event"
    },
    {
      "anonymous": false,
      "inputs": [
        {
          "indexed": true,
          "internalType": "uint256",
          "name": "rightId",
          "type": "uint256"
        }
      ],
      "name": "Revoke",
      "type": "event"
    },
    {
      "anonymous": false,
      "inputs": [
        {
          "indexed": true,
          "internalType": "address",
          "name": "from",
          "type": "address"
        },
        {
          "indexed": true,
          "internalType": "address",
          "name": "to",
          "type": "address"
        },
        {
          "indexed": true,
          "internalType": "uint256",
          "name": "tokenId",
          "type": "uint256"
        }
      ],
      "name": "Transfer",
      "type": "event"
    },
    {
      "inputs": [
        {
          "internalType": "bytes4",
          "name": "interfaceId",
          "type": "bytes4"
        }
      ],
      "name": "supportsInterface",
      "outputs": [
        {
          "internalType": "bool",
          "name": "",
          "type": "bool"
        }
      ],
      "stateMutability": "pure",
      "type": "function"
    },
    {
      "inputs": [
        {
          "internalType": "address",
          "name": "minter",
          "type": "address"
        },
        {
          "internalType": "bool",
          "name": "schemaTransferable",
          "type": "bool"
        },
        {
          "internalType": "bool",
          "name": "schemaRevocable",
          "type": "bool"
        },
        {
          "internalType": "string",
          "name": "schemaURI",
          "type": "string"
        }
      ],
      "name": "mintSchema",
      "outputs": [
        {
          "internalType": "uint256",
          "name": "",
          "type": "uint256"
        }
      ],
      "stateMutability": "nonpayable",
      "type": "function"
    },
    {
      "inputs": [
        {
          "internalType": "uint256",
          "name": "schemaId",
          "type": "uint256"
        },
        {
          "internalType": "address",
          "name": "to",
          "type": "address"
        },
        {
          "internalType": "bool",
          "name": "unbound",
          "type": "bool"
        }
      ],
      "name": "mintRight",
      "outputs": [],
      "stateMutability": "nonpayable",
      "type": "function"
    },
    {
      "inputs": [
        {
          "internalType": "address",
          "name": "owner",
          "type": "address"
        }
      ],
      "name": "balanceOf",
      "outputs": [
        {
          "internalType": "uint256",
          "name": "",
          "type": "uint256"
        }
      ],
      "stateMutability": "view",
      "type": "function"
    },
    {
      "inputs": [
        {
          "internalType": "uint256",
          "name": "tokenId",
          "type": "uint256"
        }
      ],
      "name": "ownerOf",
      "outputs": [
        {
          "internalType": "address",
          "name": "",
          "type": "address"
        }
      ],
      "stateMutability": "view",
      "type": "function"
    },
    {
      "inputs": [],
      "name": "name",
      "outputs": [
        {
          "internalType": "string",
          "name": "",
          "type": "string"
        }
      ],
      "stateMutability": "view",
      "type": "function"
    },
    {
      "inputs": [],
      "name": "symbol",
      "outputs": [
        {
          "internalType": "string",
          "name": "",
          "type": "string"
        }
      ],
      "stateMutability": "view",
      "type": "function"
    },
    {
      "inputs": [
        {
          "internalType": "uint256",
          "name": "tokenId",
          "type": "uint256"
        }
      ],
      "name": "tokenURI",
      "outputs": [
        {
          "internalType": "string",
          "name": "",
          "type": "string"
        }
      ],
      "stateMutability": "view",
      "type": "function"
    },
    {
      "inputs": [
        {
          "internalType": "address",
          "name": "to",
          "type": "address"
        },
        {
          "internalType": "uint256",
          "name": "tokenId",
          "type": "uint256"
        }
      ],
      "name": "approve",
      "outputs": [],
      "stateMutability": "nonpayable",
      "type": "function"
    },
    {
      "inputs": [
        {
          "internalType": "uint256",
          "name": "tokenId",
          "type": "uint256"
        }
      ],
      "name": "revoke",
      "outputs": [],
      "stateMutability": "nonpayable",
      "type": "function"
    },
    {
      "inputs": [
        {
          "internalType": "uint256",
          "name": "tokenId",
          "type": "uint256"
        }
      ],
      "name": "isRevoked",
      "outputs": [
        {
          "internalType": "bool",
          "name": "",
          "type": "bool"
        }
      ],
      "stateMutability": "view",
      "type": "function"
    },
    {
      "inputs": [
        {
          "internalType": "uint256",
          "name": "tokenId",
          "type": "uint256"
        }
      ],
      "name": "getApproved",
      "outputs": [
        {
          "internalType": "address",
          "name": "",
          "type": "address"
        }
      ],
      "stateMutability": "view",
      "type": "function"
    },
    {
      "inputs": [
        {
          "internalType": "address",
          "name": "operator",
          "type": "address"
        },
        {
          "internalType": "bool",
          "name": "approved",
          "type": "bool"
        }
      ],
      "name": "setApprovalForAll",
      "outputs": [],
      "stateMutability": "nonpayable",
      "type": "function"
    },
    {
      "inputs": [
        {
          "internalType": "address",
          "name": "owner",
          "type": "address"
        },
        {
          "internalType": "address",
          "name": "operator",
          "type": "address"
        }
      ],
      "name": "isApprovedForAll",
      "outputs": [
        {
          "internalType": "bool",
          "name": "",
          "type": "bool"
        }
      ],
      "stateMutability": "view",
      "type": "function"
    },
    {
      "inputs": [
        {
          "internalType": "address",
          "name": "from",
          "type": "address"
        },
        {
          "internalType": "address",
          "name": "to",
          "type": "address"
        },
        {
          "internalType": "uint256",
          "name": "tokenId",
          "type": "uint256"
        }
      ],
      "name": "transferFrom",
      "outputs": [],
      "stateMutability": "nonpayable",
      "type": "function"
    },
    {
      "inputs": [
        {
          "internalType": "address",
          "name": "from",
          "type": "address"
        },
        {
          "internalType": "address",
          "name": "to",
          "type": "address"
        },
        {
          "internalType": "uint256",
          "name": "tokenId",
          "type": "uint256"
        }
      ],
      "name": "safeTransferFrom",
      "outputs": [],
      "stateMutability": "nonpayable",
      "type": "function"
    },
    {
      "inputs": [
        {
          "internalType": "address",
          "name": "from",
          "type": "address"
        },
        {
          "internalType": "address",
          "name": "to",
          "type": "address"
        },
        {
          "internalType": "uint256",
          "name": "tokenId",
          "type": "uint256"
        },
        {
          "internalType": "bytes",
          "name": "_data",
          "type": "bytes"
        }
      ],
      "name": "safeTransferFrom",
      "outputs": [],
      "stateMutability": "nonpayable",
      "type": "function"
    },
    {
      "inputs": [
        {
          "internalType": "address",
          "name": "owner",
          "type": "address"
        },
        {
          "internalType": "uint256",
          "name": "index",
          "type": "uint256"
        }
      ],
      "name": "tokenOfOwnerByIndex",
      "outputs": [
        {
          "internalType": "uint256",
          "name": "",
          "type": "uint256"
        }
      ],
      "stateMutability": "view",
      "type": "function"
    },
    {
      "inputs": [],
      "name": "totalSupply",
      "outputs": [
        {
          "internalType": "uint256",
          "name": "",
          "type": "uint256"
        }
      ],
      "stateMutability": "view",
      "type": "function"
    },
    {
      "inputs": [
        {
          "internalType": "uint256",
          "name": "index",
          "type": "uint256"
        }
      ],
      "name": "tokenByIndex",
      "outputs": [
        {
          "internalType": "uint256",
          "name": "",
          "type": "uint256"
        }
      ],
      "stateMutability": "view",
      "type": "function"
    },
    {
      "inputs": [
        {
          "internalType": "uint256",
          "name": "tokenId",
          "type": "uint256"
        }
      ],
      "name": "schemaOf",
      "outputs": [
        {
          "internalType": "uint256",
          "name": "",
          "type": "uint256"
        }
      ],
      "stateMutability": "view",
      "type": "function"
    },
    {
      "inputs": [
        {
          "internalType": "uint256",
          "name": "schemaId",
          "type": "uint256"
        }
      ],
      "name": "minterOf",
      "outputs": [
        {
          "internalType": "address",
          "name": "",
          "type": "address"
        }
      ],
      "stateMutability": "view",
      "type": "function"
    },
    {
      "inputs": [
        {
          "internalType": "address",
          "name": "holder",
          "type": "address"
        },
        {
          "internalType": "uint256",
          "name": "schemaId",
          "type": "uint256"
        }
      ],
      "name": "holdsTokenOfSchema",
      "outputs": [
        {
          "internalType": "bool",
          "name": "",
          "type": "bool"
        }
      ],
      "stateMutability": "view",
      "type": "function"
    },
    {
      "inputs": [],
      "name": "totalSchemas",
      "outputs": [
        {
          "internalType": "uint256",
          "name": "",
          "type": "uint256"
        }
      ],
      "stateMutability": "view",
      "type": "function"
    },
    {
      "inputs": [
        {
          "internalType": "uint256",
          "name": "schemaId",
          "type": "uint256"
        }
      ],
      "name": "totalMintedFor",
      "outputs": [
        {
          "internalType": "uint256",
          "name": "",
          "type": "uint256"
        }
      ],
      "stateMutability": "view",
      "type": "function"
    },
    {
      "inputs": [
        {
          "internalType": "uint256",
          "name": "schemaId",
          "type": "uint256"
        },
        {
          "internalType": "uint256",
          "name": "index",
          "type": "uint256"
        }
      ],
      "name": "tokenOfSchemaByIndex",
      "outputs": [
        {
          "internalType": "uint256",
          "name": "",
          "type": "uint256"
        }
      ],
      "stateMutability": "view",
      "type": "function"
    }
  ],
  "bytecode": "0x60806040523480156200001157600080fd5b50604051620063db380380620063db8339818101604052810190620000379190620006bf565b60003090506000828051906020012090508560009080519060200190620000609291906200040d565b508460019080519060200190620000799291906200040d565b5083600260006101000a81548173ffffffffffffffffffffffffffffffffffffffff021916908373ffffffffffffffffffffffffffffffffffffffff1602179055506001600360006001815260200190815260200160002081905550600160046000600181526020019081526020016000206000808152602001908152602001600020819055506000600560006001815260200190815260200160002060006101000a81548160ff0219169083151502179055506001600660006001815260200190815260200160002060006101000a81548160ff0219169083151502179055508260076000600181526020019081526020016000209080519060200190620001849291906200040d565b506001600860008381526020019081526020016000208190555060016009600060018152602001908152602001600020819055506001600a60008473ffffffffffffffffffffffffffffffffffffffff1673ffffffffffffffffffffffffffffffffffffffff168152602001908152602001600020600060018152602001908152602001600020819055506001600b8190555081600c60006001815260200190815260200160002060006101000a81548173ffffffffffffffffffffffffffffffffffffffff021916908373ffffffffffffffffffffffffffffffffffffffff1602179055506001600d60008473ffffffffffffffffffffffffffffffffffffffff1673ffffffffffffffffffffffffffffffffffffffff1681526020019081526020016000208190555060016010600060018152602001908152602001600020819055506001601260008473ffffffffffffffffffffffffffffffffffffffff1673ffffffffffffffffffffffffffffffffffffffff16815260200190815260200160002060008081526020019081526020016000208190555060006013600060018152602001908152602001600020819055506001601481905550806001807fd32db21119d6bb7b885911e2ee1bab864d0c59dbaa980004bcba4cd5edd864ce60405160405180910390a4600015156001807ff2cac345b81a4b8f2cd1bba64a5ec23eb639ea55383727cd3111e88693c1215660405160405180910390a460018273ffffffffffffffffffffffffffffffffffffffff16600073ffffffffffffffffffffffffffffffffffffffff167fddf252ad1be2c89b69c2b068fc378daa952ba7f163c4a11628f55a4df523b3ef60405160405180910390a4505050505050620007f3565b8280546200041b90620007bd565b90600052602060002090601f0160209004810192826200043f57600085556200048b565b82601f106200045a57805160ff19168380011785556200048b565b828001600101855582156200048b579182015b828111156200048a5782518255916020019190600101906200046d565b5b5090506200049a91906200049e565b5090565b5b80821115620004b95760008160009055506001016200049f565b5090565b6000604051905090565b600080fd5b600080fd5b600080fd5b600080fd5b6000601f19601f8301169050919050565b7f4e487b7100000000000000000000000000000000000000000000000000000000600052604160045260246000fd5b6200052682620004db565b810181811067ffffffffffffffff82111715620005485762000547620004ec565b5b80604052505050565b60006200055d620004bd565b90506200056b82826200051b565b919050565b600067ffffffffffffffff8211156200058e576200058d620004ec565b5b6200059982620004db565b9050602081019050919050565b60005b83811015620005c6578082015181840152602081019050620005a9565b83811115620005d6576000848401525b50505050565b6000620005f3620005ed8462000570565b62000551565b905082815260208101848484011115620006125762000611620004d6565b5b6200061f848285620005a6565b509392505050565b600082601f8301126200063f576200063e620004d1565b5b815162000651848260208601620005dc565b91505092915050565b600073ffffffffffffffffffffffffffffffffffffffff82169050919050565b600062000687826200065a565b9050919050565b62000699816200067a565b8114620006a557600080fd5b50565b600081519050620006b9816200068e565b92915050565b60008060008060808587031215620006dc57620006db620004c7565b5b600085015167ffffffffffffffff811115620006fd57620006fc620004cc565b5b6200070b8782880162000627565b945050602085015167ffffffffffffffff8111156200072f576200072e620004cc565b5b6200073d8782880162000627565b93505060406200075087828801620006a8565b925050606085015167ffffffffffffffff811115620007745762000773620004cc565b5b620007828782880162000627565b91505092959194509250565b7f4e487b7100000000000000000000000000000000000000000000000000000000600052602260045260246000fd5b60006002820490506001821680620007d657607f821691505b60208210811415620007ed57620007ec6200078e565b5b50919050565b615bd880620008036000396000f3fe608060405234801561001057600080fd5b506004361061018e5760003560e01c806362f96998116100de5780639e942ace11610097578063b88d4fde11610071578063b88d4fde14610505578063b8c7724a14610521578063c87b56dd1461053f578063e985e9c51461056f5761018e565b80639e942ace14610489578063a22cb465146104b9578063b4b44b41146104d55761018e565b806362f969981461037b5780636352211e146103ab5780636b4c399a146103db57806370a082311461040b57806395d89b411461043b57806398b97790146104595761018e565b806320c5429b1161014b57806342842e0e1161012557806342842e0e146102e35780634f6ccce7146102ff578063520901701461032f5780635ccc561e1461034b5761018e565b806320c5429b1461027b57806323b872dd146102975780632f745c59146102b35761018e565b806301ffc9a71461019357806306fdde03146101c3578063081812fc146101e1578063095ea7b3146102115780630ecd76331461022d57806318160ddd1461025d575b600080fd5b6101ad60048036038101906101a89190614294565b61059f565b6040516101ba91906142dc565b60405180910390f35b6101cb6107a9565b6040516101d89190614390565b60405180910390f35b6101fb60048036038101906101f691906143e8565b61083b565b6040516102089190614456565b60405180910390f35b61022b6004803603810190610226919061449d565b61091a565b005b610247600480360381019061024291906144dd565b610d7b565b604051610254919061452c565b60405180910390f35b610265610e55565b604051610272919061452c565b60405180910390f35b610295600480360381019061029091906143e8565b610e5f565b005b6102b160048036038101906102ac9190614547565b6112d6565b005b6102cd60048036038101906102c8919061449d565b611f51565b6040516102da919061452c565b60405180910390f35b6102fd60048036038101906102f89190614547565b6120fa565b005b610319600480360381019061031491906143e8565b61211a565b604051610326919061452c565b60405180910390f35b610349600480360381019061034491906145c6565b612174565b005b610365600480360381019061036091906143e8565b6129ad565b60405161037291906142dc565b60405180910390f35b610395600480360381019061039091906143e8565b612a79565b6040516103a2919061452c565b60405180910390f35b6103c560048036038101906103c091906143e8565b612aec565b6040516103d29190614456565b60405180910390f35b6103f560048036038101906103f091906143e8565b612c67565b604051610402919061452c565b60405180910390f35b61042560048036038101906104209190614619565b612d26565b604051610432919061452c565b60405180910390f35b610443612e76565b6040516104509190614390565b60405180910390f35b610473600480360381019061046e919061449d565b612f08565b60405161048091906142dc565b60405180910390f35b6104a3600480360381019061049e91906143e8565b61308a565b6040516104b09190614456565b60405180910390f35b6104d360048036038101906104ce9190614646565b6131f3565b005b6104ef60048036038101906104ea91906146eb565b613578565b6040516104fc919061452c565b60405180910390f35b61051f600480360381019061051a91906148a3565b613cd2565b005b610529613d2e565b604051610536919061452c565b60405180910390f35b610559600480360381019061055491906143e8565b613d38565b6040516105669190614390565b60405180910390f35b61058960048036038101906105849190614926565b613e93565b60405161059691906142dc565b60405180910390f35b60007f01ffc9a7000000000000000000000000000000000000000000000000000000007bffffffffffffffffffffffffffffffffffffffffffffffffffffffff1916827bffffffffffffffffffffffffffffffffffffffffffffffffffffffff1916148061066a57507f80ac58cd000000000000000000000000000000000000000000000000000000007bffffffffffffffffffffffffffffffffffffffffffffffffffffffff1916827bffffffffffffffffffffffffffffffffffffffffffffffffffffffff1916145b806106d257507f780e9d63000000000000000000000000000000000000000000000000000000007bffffffffffffffffffffffffffffffffffffffffffffffffffffffff1916827bffffffffffffffffffffffffffffffffffffffffffffffffffffffff1916145b8061073a57507f5b5e139f000000000000000000000000000000000000000000000000000000007bffffffffffffffffffffffffffffffffffffffffffffffffffffffff1916827bffffffffffffffffffffffffffffffffffffffffffffffffffffffff1916145b806107a257507fb9920925000000000000000000000000000000000000000000000000000000007bffffffffffffffffffffffffffffffffffffffffffffffffffffffff1916827bffffffffffffffffffffffffffffffffffffffffffffffffffffffff1916145b9050919050565b6060600080546107b890614995565b80601f01602080910402602001604051908101604052809291908181526020018280546107e490614995565b80156108315780601f1061080657610100808354040283529160200191610831565b820191906000526020600020905b81548152906001019060200180831161081457829003601f168201915b5050505050905090565b60008073ffffffffffffffffffffffffffffffffffffffff16600c600084815260200190815260200160002060009054906101000a900473ffffffffffffffffffffffffffffffffffffffff1673ffffffffffffffffffffffffffffffffffffffff1614156108df576040517f08c379a00000000000000000000000000000000000000000000000000000000081526004016108d690614a39565b60405180910390fd5b600e600083815260200190815260200160002060009054906101000a900473ffffffffffffffffffffffffffffffffffffffff169050919050565b6000600c600083815260200190815260200160002060009054906101000a900473ffffffffffffffffffffffffffffffffffffffff169050600073ffffffffffffffffffffffffffffffffffffffff168173ffffffffffffffffffffffffffffffffffffffff1614156109c2576040517f08c379a00000000000000000000000000000000000000000000000000000000081526004016109b990614a39565b60405180910390fd5b8073ffffffffffffffffffffffffffffffffffffffff168373ffffffffffffffffffffffffffffffffffffffff161415610a31576040517f08c379a0000000000000000000000000000000000000000000000000000000008152600401610a2890614af1565b60405180910390fd5b6000610a528273ffffffffffffffffffffffffffffffffffffffff16613ff1565b15610a5f57819050610c49565b600260009054906101000a900473ffffffffffffffffffffffffffffffffffffffff1673ffffffffffffffffffffffffffffffffffffffff1663544d8564836040518263ffffffff1660e01b8152600401610aba9190614456565b602060405180830381865afa158015610ad7573d6000803e3d6000fd5b505050506040513d601f19601f82011682018060405250810190610afb9190614b26565b90508073ffffffffffffffffffffffffffffffffffffffff168473ffffffffffffffffffffffffffffffffffffffff161415610b6c576040517f08c379a0000000000000000000000000000000000000000000000000000000008152600401610b6390614af1565b60405180910390fd5b600260009054906101000a900473ffffffffffffffffffffffffffffffffffffffff1673ffffffffffffffffffffffffffffffffffffffff16634a4fbeec836040518263ffffffff1660e01b8152600401610bc79190614456565b602060405180830381865afa158015610be4573d6000803e3d6000fd5b505050506040513d601f19601f82011682018060405250810190610c089190614b68565b15610c48576040517f08c379a0000000000000000000000000000000000000000000000000000000008152600401610c3f90614c07565b60405180910390fd5b5b8073ffffffffffffffffffffffffffffffffffffffff163373ffffffffffffffffffffffffffffffffffffffff161480610c895750610c888233613e93565b5b610cc8576040517f08c379a0000000000000000000000000000000000000000000000000000000008152600401610cbf90614c99565b60405180910390fd5b83600e600085815260200190815260200160002060006101000a81548173ffffffffffffffffffffffffffffffffffffffff021916908373ffffffffffffffffffffffffffffffffffffffff160217905550828473ffffffffffffffffffffffffffffffffffffffff168273ffffffffffffffffffffffffffffffffffffffff167f8c5be1e5ebec7d5bd14f71427d1e84f3dd0314c0f7b2291e5b200ac8c7c3b92560405160405180910390a450505050565b60008060096000858152602001908152602001600020541415610dd3576040517f08c379a0000000000000000000000000000000000000000000000000000000008152600401610dca90614d2b565b60405180910390fd5b60036000848152602001908152602001600020548210610e28576040517f08c379a0000000000000000000000000000000000000000000000000000000008152600401610e1f90614de3565b60405180910390fd5b60046000848152602001908152602001600020600083815260200190815260200160002054905092915050565b6000601454905090565b600073ffffffffffffffffffffffffffffffffffffffff16600c600083815260200190815260200160002060009054906101000a900473ffffffffffffffffffffffffffffffffffffffff1673ffffffffffffffffffffffffffffffffffffffff161415610f02576040517f08c379a0000000000000000000000000000000000000000000000000000000008152600401610ef990614e75565b60405180910390fd5b6000601060008381526020019081526020016000205490506005600082815260200190815260200160002060009054906101000a900460ff16610f7a576040517f08c379a0000000000000000000000000000000000000000000000000000000008152600401610f7190614f07565b60405180910390fd5b6000600c60006009600085815260200190815260200160002054815260200190815260200160002060009054906101000a900473ffffffffffffffffffffffffffffffffffffffff1690506000610fe68273ffffffffffffffffffffffffffffffffffffffff16613ff1565b15610ff35781905061116e565b600260009054906101000a900473ffffffffffffffffffffffffffffffffffffffff1673ffffffffffffffffffffffffffffffffffffffff1663544d8564836040518263ffffffff1660e01b815260040161104e9190614456565b602060405180830381865afa15801561106b573d6000803e3d6000fd5b505050506040513d601f19601f8201168201806040525081019061108f9190614b26565b9050600260009054906101000a900473ffffffffffffffffffffffffffffffffffffffff1673ffffffffffffffffffffffffffffffffffffffff16634a4fbeec836040518263ffffffff1660e01b81526004016110ec9190614456565b602060405180830381865afa158015611109573d6000803e3d6000fd5b505050506040513d601f19601f8201168201806040525081019061112d9190614b68565b1561116d576040517f08c379a000000000000000000000000000000000000000000000000000000000815260040161116490614f99565b60405180910390fd5b5b8073ffffffffffffffffffffffffffffffffffffffff163373ffffffffffffffffffffffffffffffffffffffff16146111dc576040517f08c379a00000000000000000000000000000000000000000000000000000000081526004016111d39061502b565b60405180910390fd5b6001600f600086815260200190815260200160002060006101000a81548160ff0219169083151502179055506001600a6000600c600088815260200190815260200160002060009054906101000a900473ffffffffffffffffffffffffffffffffffffffff1673ffffffffffffffffffffffffffffffffffffffff1673ffffffffffffffffffffffffffffffffffffffff1681526020019081526020016000206000858152602001908152602001600020600082825461129c919061507a565b92505081905550837fdb43aa42235c8d63908794a952603e8d43a549383d13123c3d893a3fc2e6249560405160405180910390a250505050565b600073ffffffffffffffffffffffffffffffffffffffff16600c600083815260200190815260200160002060009054906101000a900473ffffffffffffffffffffffffffffffffffffffff1673ffffffffffffffffffffffffffffffffffffffff161415611379576040517f08c379a000000000000000000000000000000000000000000000000000000000815260040161137090614a39565b60405180910390fd5b6000601060008381526020019081526020016000205490506006600082815260200190815260200160002060009054906101000a900460ff166113f1576040517f08c379a00000000000000000000000000000000000000000000000000000000081526004016113e890615120565b60405180910390fd5b600f600083815260200190815260200160002060009054906101000a900460ff1615611452576040517f08c379a0000000000000000000000000000000000000000000000000000000008152600401611449906151b2565b60405180910390fd5b600073ffffffffffffffffffffffffffffffffffffffff168373ffffffffffffffffffffffffffffffffffffffff1614156114c2576040517f08c379a00000000000000000000000000000000000000000000000000000000081526004016114b990615244565b60405180910390fd5b60006114e38573ffffffffffffffffffffffffffffffffffffffff16613ff1565b156114f05784905061166b565b600260009054906101000a900473ffffffffffffffffffffffffffffffffffffffff1673ffffffffffffffffffffffffffffffffffffffff16632fea7b81866040518263ffffffff1660e01b815260040161154b9190614456565b602060405180830381865afa158015611568573d6000803e3d6000fd5b505050506040513d601f19601f8201168201806040525081019061158c9190614b26565b9050600260009054906101000a900473ffffffffffffffffffffffffffffffffffffffff1673ffffffffffffffffffffffffffffffffffffffff16634a4fbeec826040518263ffffffff1660e01b81526004016115e99190614456565b602060405180830381865afa158015611606573d6000803e3d6000fd5b505050506040513d601f19601f8201168201806040525081019061162a9190614b68565b1561166a576040517f08c379a000000000000000000000000000000000000000000000000000000000815260040161166190614c07565b60405180910390fd5b5b8073ffffffffffffffffffffffffffffffffffffffff16600c600085815260200190815260200160002060009054906101000a900473ffffffffffffffffffffffffffffffffffffffff1673ffffffffffffffffffffffffffffffffffffffff161461170c576040517f08c379a000000000000000000000000000000000000000000000000000000000815260040161170390615322565b60405180910390fd5b8073ffffffffffffffffffffffffffffffffffffffff163373ffffffffffffffffffffffffffffffffffffffff1614806117a45750600e600084815260200190815260200160002060009054906101000a900473ffffffffffffffffffffffffffffffffffffffff1673ffffffffffffffffffffffffffffffffffffffff163373ffffffffffffffffffffffffffffffffffffffff16145b806118355750601160008273ffffffffffffffffffffffffffffffffffffffff1673ffffffffffffffffffffffffffffffffffffffff16815260200190815260200160002060003373ffffffffffffffffffffffffffffffffffffffff1673ffffffffffffffffffffffffffffffffffffffff16815260200190815260200160002060009054906101000a900460ff165b611874576040517f08c379a000000000000000000000000000000000000000000000000000000000815260040161186b906153da565b60405180910390fd5b60006118958573ffffffffffffffffffffffffffffffffffffffff16613ff1565b156118a257849050611a1d565b600260009054906101000a900473ffffffffffffffffffffffffffffffffffffffff1673ffffffffffffffffffffffffffffffffffffffff16632fea7b81866040518263ffffffff1660e01b81526004016118fd9190614456565b602060405180830381865afa15801561191a573d6000803e3d6000fd5b505050506040513d601f19601f8201168201806040525081019061193e9190614b26565b9050600260009054906101000a900473ffffffffffffffffffffffffffffffffffffffff1673ffffffffffffffffffffffffffffffffffffffff16634a4fbeec826040518263ffffffff1660e01b815260040161199b9190614456565b602060405180830381865afa1580156119b8573d6000803e3d6000fd5b505050506040513d601f19601f820116820180604052508101906119dc9190614b68565b15611a1c576040517f08c379a0000000000000000000000000000000000000000000000000000000008152600401611a139061546c565b60405180910390fd5b5b60006001600d60008573ffffffffffffffffffffffffffffffffffffffff1673ffffffffffffffffffffffffffffffffffffffff16815260200190815260200160002054611a6b919061507a565b9050600060136000878152602001908152602001600020549050818114611b50576000601260008673ffffffffffffffffffffffffffffffffffffffff1673ffffffffffffffffffffffffffffffffffffffff168152602001908152602001600020600084815260200190815260200160002054905080601260008773ffffffffffffffffffffffffffffffffffffffff1673ffffffffffffffffffffffffffffffffffffffff168152602001908152602001600020600084815260200190815260200160002081905550816013600083815260200190815260200160002081905550505b601260008573ffffffffffffffffffffffffffffffffffffffff1673ffffffffffffffffffffffffffffffffffffffff16815260200190815260200160002060008381526020019081526020016000206000905560136000878152602001908152602001600020600090556001600a60008673ffffffffffffffffffffffffffffffffffffffff1673ffffffffffffffffffffffffffffffffffffffff16815260200190815260200160002060008781526020019081526020016000206000828254611c1c919061507a565b925050819055506000600d60008573ffffffffffffffffffffffffffffffffffffffff1673ffffffffffffffffffffffffffffffffffffffff16815260200190815260200160002054905086601260008673ffffffffffffffffffffffffffffffffffffffff1673ffffffffffffffffffffffffffffffffffffffff1681526020019081526020016000206000838152602001908152602001600020819055508060136000898152602001908152602001600020819055506000600e600089815260200190815260200160002060006101000a81548173ffffffffffffffffffffffffffffffffffffffff021916908373ffffffffffffffffffffffffffffffffffffffff16021790555086600073ffffffffffffffffffffffffffffffffffffffff168a73ffffffffffffffffffffffffffffffffffffffff167f8c5be1e5ebec7d5bd14f71427d1e84f3dd0314c0f7b2291e5b200ac8c7c3b92560405160405180910390a46001600d60008773ffffffffffffffffffffffffffffffffffffffff1673ffffffffffffffffffffffffffffffffffffffff1681526020019081526020016000206000828254611dd3919061507a565b925050819055506001600d60008673ffffffffffffffffffffffffffffffffffffffff1673ffffffffffffffffffffffffffffffffffffffff1681526020019081526020016000206000828254611e2a919061548c565b9250508190555083600c600089815260200190815260200160002060006101000a81548173ffffffffffffffffffffffffffffffffffffffff021916908373ffffffffffffffffffffffffffffffffffffffff1602179055506001600a60008673ffffffffffffffffffffffffffffffffffffffff1673ffffffffffffffffffffffffffffffffffffffff16815260200190815260200160002060008881526020019081526020016000206000828254611ee4919061548c565b92505081905550868873ffffffffffffffffffffffffffffffffffffffff168a73ffffffffffffffffffffffffffffffffffffffff167fddf252ad1be2c89b69c2b068fc378daa952ba7f163c4a11628f55a4df523b3ef60405160405180910390a4505050505050505050565b600080611f738473ffffffffffffffffffffffffffffffffffffffff16613ff1565b15611f805783905061201f565b600260009054906101000a900473ffffffffffffffffffffffffffffffffffffffff1673ffffffffffffffffffffffffffffffffffffffff16632fea7b81856040518263ffffffff1660e01b8152600401611fdb9190614456565b602060405180830381865afa158015611ff8573d6000803e3d6000fd5b505050506040513d601f19601f8201168201806040525081019061201c9190614b26565b90505b600d60008273ffffffffffffffffffffffffffffffffffffffff1673ffffffffffffffffffffffffffffffffffffffff1681526020019081526020016000205483106120a0576040517f08c379a000000000000000000000000000000000000000000000000000000000815260040161209790614de3565b60405180910390fd5b601260008273ffffffffffffffffffffffffffffffffffffffff1673ffffffffffffffffffffffffffffffffffffffff16815260200190815260200160002060008481526020019081526020016000205491505092915050565b61211583838360405180602001604052806000815250613cd2565b505050565b60006014548210612160576040517f08c379a000000000000000000000000000000000000000000000000000000000815260040161215790615554565b60405180910390fd5b60018261216d919061548c565b9050919050565b7fffffffffffffffffffffffffffffffffffffffffffffffffffffffffffffffff60145414156121d9576040517f08c379a00000000000000000000000000000000000000000000000000000000081526004016121d0906155e6565b60405180910390fd5b600060096000858152602001908152602001600020541415612230576040517f08c379a000000000000000000000000000000000000000000000000000000000815260040161222790614d2b565b60405180910390fd5b60006122513373ffffffffffffffffffffffffffffffffffffffff16613ff1565b1561225e573390506123d9565b600260009054906101000a900473ffffffffffffffffffffffffffffffffffffffff1673ffffffffffffffffffffffffffffffffffffffff16632fea7b81336040518263ffffffff1660e01b81526004016122b99190614456565b602060405180830381865afa1580156122d6573d6000803e3d6000fd5b505050506040513d601f19601f820116820180604052508101906122fa9190614b26565b9050600260009054906101000a900473ffffffffffffffffffffffffffffffffffffffff1673ffffffffffffffffffffffffffffffffffffffff16634a4fbeec826040518263ffffffff1660e01b81526004016123579190614456565b602060405180830381865afa158015612374573d6000803e3d6000fd5b505050506040513d601f19601f820116820180604052508101906123989190614b68565b156123d8576040517f08c379a00000000000000000000000000000000000000000000000000000000081526004016123cf90615678565b60405180910390fd5b5b600c60006009600087815260200190815260200160002054815260200190815260200160002060009054906101000a900473ffffffffffffffffffffffffffffffffffffffff1673ffffffffffffffffffffffffffffffffffffffff168173ffffffffffffffffffffffffffffffffffffffff161461248d576040517f08c379a000000000000000000000000000000000000000000000000000000000815260040161248490615730565b60405180910390fd5b60006124ae8473ffffffffffffffffffffffffffffffffffffffff16613ff1565b156124bb5783905061264c565b6001151583151514156124d05783905061264b565b600260009054906101000a900473ffffffffffffffffffffffffffffffffffffffff1673ffffffffffffffffffffffffffffffffffffffff16632fea7b81856040518263ffffffff1660e01b815260040161252b9190614456565b602060405180830381865afa158015612548573d6000803e3d6000fd5b505050506040513d601f19601f8201168201806040525081019061256c9190614b26565b9050600260009054906101000a900473ffffffffffffffffffffffffffffffffffffffff1673ffffffffffffffffffffffffffffffffffffffff16634a4fbeec836040518263ffffffff1660e01b81526004016125c99190614456565b602060405180830381865afa1580156125e6573d6000803e3d6000fd5b505050506040513d601f19601f8201168201806040525081019061260a9190614b68565b1561264a576040517f08c379a000000000000000000000000000000000000000000000000000000000815260040161264190615678565b60405180910390fd5b5b5b60016014600082825461265f919061548c565b9250508190555080600c6000601454815260200190815260200160002060006101000a81548173ffffffffffffffffffffffffffffffffffffffff021916908373ffffffffffffffffffffffffffffffffffffffff160217905550846010600060145481526020019081526020016000208190555060006003600087815260200190815260200160002054905060145460046000888152602001908152602001600020600083815260200190815260200160002081905550600160036000888152602001908152602001600020600082825461273b919061548c565b925050819055506001600a60008473ffffffffffffffffffffffffffffffffffffffff1673ffffffffffffffffffffffffffffffffffffffff168152602001908152602001600020600088815260200190815260200160002060008282546127a3919061548c565b925050819055506000600d60008473ffffffffffffffffffffffffffffffffffffffff1673ffffffffffffffffffffffffffffffffffffffff168152602001908152602001600020549050601454601260008573ffffffffffffffffffffffffffffffffffffffff1673ffffffffffffffffffffffffffffffffffffffff16815260200190815260200160002060008381526020019081526020016000208190555080601360006014548152602001908152602001600020819055506001600d60008573ffffffffffffffffffffffffffffffffffffffff1673ffffffffffffffffffffffffffffffffffffffff16815260200190815260200160002060008282546128af919061548c565b925050819055506128d460008460145460405180602001604052806000815250614004565b612913576040517f08c379a000000000000000000000000000000000000000000000000000000000815260040161290a9061580e565b60405180910390fd5b841515601454887ff2cac345b81a4b8f2cd1bba64a5ec23eb639ea55383727cd3111e88693c1215660405160405180910390a46014548673ffffffffffffffffffffffffffffffffffffffff16600073ffffffffffffffffffffffffffffffffffffffff167fddf252ad1be2c89b69c2b068fc378daa952ba7f163c4a11628f55a4df523b3ef60405160405180910390a450505050505050565b60008073ffffffffffffffffffffffffffffffffffffffff16600c600084815260200190815260200160002060009054906101000a900473ffffffffffffffffffffffffffffffffffffffff1673ffffffffffffffffffffffffffffffffffffffff161415612a51576040517f08c379a0000000000000000000000000000000000000000000000000000000008152600401612a4890614a39565b60405180910390fd5b600f600083815260200190815260200160002060009054906101000a900460ff169050919050565b60008060096000848152602001908152602001600020541415612ad1576040517f08c379a0000000000000000000000000000000000000000000000000000000008152600401612ac890614d2b565b60405180910390fd5b60036000838152602001908152602001600020549050919050565b600080600c600084815260200190815260200160002060009054906101000a900473ffffffffffffffffffffffffffffffffffffffff169050600073ffffffffffffffffffffffffffffffffffffffff168173ffffffffffffffffffffffffffffffffffffffff161415612b95576040517f08c379a0000000000000000000000000000000000000000000000000000000008152600401612b8c90614a39565b60405180910390fd5b612bb48173ffffffffffffffffffffffffffffffffffffffff16613ff1565b15612bc25780915050612c62565b600260009054906101000a900473ffffffffffffffffffffffffffffffffffffffff1673ffffffffffffffffffffffffffffffffffffffff1663544d8564826040518263ffffffff1660e01b8152600401612c1d9190614456565b602060405180830381865afa158015612c3a573d6000803e3d6000fd5b505050506040513d601f19601f82011682018060405250810190612c5e9190614b26565b9150505b919050565b60008073ffffffffffffffffffffffffffffffffffffffff16600c600084815260200190815260200160002060009054906101000a900473ffffffffffffffffffffffffffffffffffffffff1673ffffffffffffffffffffffffffffffffffffffff161415612d0b576040517f08c379a0000000000000000000000000000000000000000000000000000000008152600401612d0290614a39565b60405180910390fd5b60106000838152602001908152602001600020549050919050565b6000612d478273ffffffffffffffffffffffffffffffffffffffff16613ff1565b15612d9357600d60008373ffffffffffffffffffffffffffffffffffffffff1673ffffffffffffffffffffffffffffffffffffffff168152602001908152602001600020549050612e71565b600d6000600260009054906101000a900473ffffffffffffffffffffffffffffffffffffffff1673ffffffffffffffffffffffffffffffffffffffff16632fea7b81856040518263ffffffff1660e01b8152600401612df29190614456565b602060405180830381865afa158015612e0f573d6000803e3d6000fd5b505050506040513d601f19601f82011682018060405250810190612e339190614b26565b73ffffffffffffffffffffffffffffffffffffffff1673ffffffffffffffffffffffffffffffffffffffff1681526020019081526020016000205490505b919050565b606060018054612e8590614995565b80601f0160208091040260200160405190810160405280929190818152602001828054612eb190614995565b8015612efe5780601f10612ed357610100808354040283529160200191612efe565b820191906000526020600020905b815481529060010190602001808311612ee157829003601f168201915b5050505050905090565b60008060096000848152602001908152602001600020541415612f60576040517f08c379a0000000000000000000000000000000000000000000000000000000008152600401612f5790614d2b565b60405180910390fd5b6000612f818173ffffffffffffffffffffffffffffffffffffffff16613ff1565b15612f8e5783905061302d565b600260009054906101000a900473ffffffffffffffffffffffffffffffffffffffff1673ffffffffffffffffffffffffffffffffffffffff16632fea7b81856040518263ffffffff1660e01b8152600401612fe99190614456565b602060405180830381865afa158015613006573d6000803e3d6000fd5b505050506040513d601f19601f8201168201806040525081019061302a9190614b26565b90505b6000600a60008373ffffffffffffffffffffffffffffffffffffffff1673ffffffffffffffffffffffffffffffffffffffff1681526020019081526020016000206000858152602001908152602001600020541191505092915050565b6000806009600084815260200190815260200160002054905060008114156130e7576040517f08c379a00000000000000000000000000000000000000000000000000000000081526004016130de90614d2b565b60405180910390fd5b6000600c600083815260200190815260200160002060009054906101000a900473ffffffffffffffffffffffffffffffffffffffff16905061313e8173ffffffffffffffffffffffffffffffffffffffff16613ff1565b1561314d5780925050506131ee565b600260009054906101000a900473ffffffffffffffffffffffffffffffffffffffff1673ffffffffffffffffffffffffffffffffffffffff1663544d8564826040518263ffffffff1660e01b81526004016131a89190614456565b602060405180830381865afa1580156131c5573d6000803e3d6000fd5b505050506040513d601f19601f820116820180604052508101906131e99190614b26565b925050505b919050565b60003373ffffffffffffffffffffffffffffffffffffffff168373ffffffffffffffffffffffffffffffffffffffff161415613264576040517f08c379a000000000000000000000000000000000000000000000000000000000815260040161325b906158a0565b60405180910390fd5b6132833373ffffffffffffffffffffffffffffffffffffffff16613ff1565b156132905733905061347a565b600260009054906101000a900473ffffffffffffffffffffffffffffffffffffffff1673ffffffffffffffffffffffffffffffffffffffff16632fea7b81336040518263ffffffff1660e01b81526004016132eb9190614456565b602060405180830381865afa158015613308573d6000803e3d6000fd5b505050506040513d601f19601f8201168201806040525081019061332c9190614b26565b90508073ffffffffffffffffffffffffffffffffffffffff168373ffffffffffffffffffffffffffffffffffffffff16141561339d576040517f08c379a0000000000000000000000000000000000000000000000000000000008152600401613394906158a0565b60405180910390fd5b600260009054906101000a900473ffffffffffffffffffffffffffffffffffffffff1673ffffffffffffffffffffffffffffffffffffffff16634a4fbeec826040518263ffffffff1660e01b81526004016133f89190614456565b602060405180830381865afa158015613415573d6000803e3d6000fd5b505050506040513d601f19601f820116820180604052508101906134399190614b68565b15613479576040517f08c379a000000000000000000000000000000000000000000000000000000000815260040161347090614c07565b60405180910390fd5b5b81601160008373ffffffffffffffffffffffffffffffffffffffff1673ffffffffffffffffffffffffffffffffffffffff16815260200190815260200160002060008573ffffffffffffffffffffffffffffffffffffffff1673ffffffffffffffffffffffffffffffffffffffff16815260200190815260200160002060006101000a81548160ff0219169083151502179055508273ffffffffffffffffffffffffffffffffffffffff168173ffffffffffffffffffffffffffffffffffffffff167f17307eab39ab6107e8899845ad3d59bd9653f200f220920489ca2b5937696c318460405161356b91906142dc565b60405180910390a3505050565b60007fffffffffffffffffffffffffffffffffffffffffffffffffffffffffffffffff600b5414156135df576040517f08c379a00000000000000000000000000000000000000000000000000000000081526004016135d690615932565b60405180910390fd5b7fffffffffffffffffffffffffffffffffffffffffffffffffffffffffffffffff6014541415613644576040517f08c379a000000000000000000000000000000000000000000000000000000000815260040161363b906159c4565b60405180910390fd5b60008383604051613656929190615a14565b6040518091039020905060006008600083815260200190815260200160002054146136b6576040517f08c379a00000000000000000000000000000000000000000000000000000000081526004016136ad90615a9f565b60405180910390fd5b60006136d78873ffffffffffffffffffffffffffffffffffffffff16613ff1565b156136e45787905061385f565b600260009054906101000a900473ffffffffffffffffffffffffffffffffffffffff1673ffffffffffffffffffffffffffffffffffffffff16632fea7b81896040518263ffffffff1660e01b815260040161373f9190614456565b602060405180830381865afa15801561375c573d6000803e3d6000fd5b505050506040513d601f19601f820116820180604052508101906137809190614b26565b9050600260009054906101000a900473ffffffffffffffffffffffffffffffffffffffff1673ffffffffffffffffffffffffffffffffffffffff16634a4fbeec826040518263ffffffff1660e01b81526004016137dd9190614456565b602060405180830381865afa1580156137fa573d6000803e3d6000fd5b505050506040513d601f19601f8201168201806040525081019061381e9190614b68565b1561385e576040517f08c379a000000000000000000000000000000000000000000000000000000000815260040161385590615678565b60405180910390fd5b5b600160146000828254613872919061548c565b9250508190555080600c6000601454815260200190815260200160002060006101000a81548173ffffffffffffffffffffffffffffffffffffffff021916908373ffffffffffffffffffffffffffffffffffffffff160217905550600160106000601454815260200190815260200160002081905550600060036000600181526020019081526020016000205490506014546004600060018152602001908152602001600020600083815260200190815260200160002081905550600160036000600181526020019081526020016000206000828254613952919061548c565b925050819055506001600a60008473ffffffffffffffffffffffffffffffffffffffff1673ffffffffffffffffffffffffffffffffffffffff16815260200190815260200160002060006001815260200190815260200160002060008282546139bb919061548c565b925050819055506000600d60008473ffffffffffffffffffffffffffffffffffffffff1673ffffffffffffffffffffffffffffffffffffffff168152602001908152602001600020549050601454601260008573ffffffffffffffffffffffffffffffffffffffff1673ffffffffffffffffffffffffffffffffffffffff16815260200190815260200160002060008381526020019081526020016000208190555080601360006014548152602001908152602001600020819055506001600d60008573ffffffffffffffffffffffffffffffffffffffff1673ffffffffffffffffffffffffffffffffffffffff1681526020019081526020016000206000828254613ac7919061548c565b925050819055506001600b6000828254613ae1919061548c565b9250508190555060145460096000600b54815260200190815260200160002081905550868660076000600b5481526020019081526020016000209190613b28929190614185565b50600b5460086000868152602001908152602001600020819055508860066000600b54815260200190815260200160002060006101000a81548160ff0219169083151502179055508760056000600b54815260200190815260200160002060006101000a81548160ff021916908315150217905550613bbb60008460145460405180602001604052806000815250614004565b613bfa576040517f08c379a0000000000000000000000000000000000000000000000000000000008152600401613bf19061580e565b60405180910390fd5b6000151560145460017ff2cac345b81a4b8f2cd1bba64a5ec23eb639ea55383727cd3111e88693c1215660405160405180910390a46014548a73ffffffffffffffffffffffffffffffffffffffff16600073ffffffffffffffffffffffffffffffffffffffff167fddf252ad1be2c89b69c2b068fc378daa952ba7f163c4a11628f55a4df523b3ef60405160405180910390a483601454600b547fd32db21119d6bb7b885911e2ee1bab864d0c59dbaa980004bcba4cd5edd864ce60405160405180910390a4600b5494505050505095945050505050565b613cdd8484846112d6565b613ce984848484614004565b613d28576040517f08c379a0000000000000000000000000000000000000000000000000000000008152600401613d1f9061580e565b60405180910390fd5b50505050565b6000600b54905090565b6060600073ffffffffffffffffffffffffffffffffffffffff16600c600084815260200190815260200160002060009054906101000a900473ffffffffffffffffffffffffffffffffffffffff1673ffffffffffffffffffffffffffffffffffffffff161415613ddd576040517f08c379a0000000000000000000000000000000000000000000000000000000008152600401613dd490614a39565b60405180910390fd5b60076000601060008581526020019081526020016000205481526020019081526020016000208054613e0e90614995565b80601f0160208091040260200160405190810160405280929190818152602001828054613e3a90614995565b8015613e875780601f10613e5c57610100808354040283529160200191613e87565b820191906000526020600020905b815481529060010190602001808311613e6a57829003601f168201915b50505050509050919050565b600080613eb58473ffffffffffffffffffffffffffffffffffffffff16613ff1565b613f5a57600260009054906101000a900473ffffffffffffffffffffffffffffffffffffffff1673ffffffffffffffffffffffffffffffffffffffff16632fea7b81336040518263ffffffff1660e01b8152600401613f149190614456565b602060405180830381865afa158015613f31573d6000803e3d6000fd5b505050506040513d601f19601f82011682018060405250810190613f559190614b26565b613f5c565b835b9050601160008273ffffffffffffffffffffffffffffffffffffffff1673ffffffffffffffffffffffffffffffffffffffff16815260200190815260200160002060008473ffffffffffffffffffffffffffffffffffffffff1673ffffffffffffffffffffffffffffffffffffffff16815260200190815260200160002060009054906101000a900460ff1691505092915050565b600080823b905060008111915050919050565b60006140258473ffffffffffffffffffffffffffffffffffffffff16613ff1565b15614178578373ffffffffffffffffffffffffffffffffffffffff1663150b7a02338786866040518563ffffffff1660e01b81526004016140699493929190615b14565b6020604051808303816000875af19250505080156140a557506040513d601f19601f820116820180604052508101906140a29190615b75565b60015b614128573d80600081146140d5576040519150601f19603f3d011682016040523d82523d6000602084013e6140da565b606091505b50600081511415614120576040517f08c379a00000000000000000000000000000000000000000000000000000000081526004016141179061580e565b60405180910390fd5b805181602001fd5b63150b7a0260e01b7bffffffffffffffffffffffffffffffffffffffffffffffffffffffff1916817bffffffffffffffffffffffffffffffffffffffffffffffffffffffff19161491505061417d565b600190505b949350505050565b82805461419190614995565b90600052602060002090601f0160209004810192826141b357600085556141fa565b82601f106141cc57803560ff19168380011785556141fa565b828001600101855582156141fa579182015b828111156141f95782358255916020019190600101906141de565b5b509050614207919061420b565b5090565b5b8082111561422457600081600090555060010161420c565b5090565b6000604051905090565b600080fd5b600080fd5b60007fffffffff0000000000000000000000000000000000000000000000000000000082169050919050565b6142718161423c565b811461427c57600080fd5b50565b60008135905061428e81614268565b92915050565b6000602082840312156142aa576142a9614232565b5b60006142b88482850161427f565b91505092915050565b60008115159050919050565b6142d6816142c1565b82525050565b60006020820190506142f160008301846142cd565b92915050565b600081519050919050565b600082825260208201905092915050565b60005b83811015614331578082015181840152602081019050614316565b83811115614340576000848401525b50505050565b6000601f19601f8301169050919050565b6000614362826142f7565b61436c8185614302565b935061437c818560208601614313565b61438581614346565b840191505092915050565b600060208201905081810360008301526143aa8184614357565b905092915050565b6000819050919050565b6143c5816143b2565b81146143d057600080fd5b50565b6000813590506143e2816143bc565b92915050565b6000602082840312156143fe576143fd614232565b5b600061440c848285016143d3565b91505092915050565b600073ffffffffffffffffffffffffffffffffffffffff82169050919050565b600061444082614415565b9050919050565b61445081614435565b82525050565b600060208201905061446b6000830184614447565b92915050565b61447a81614435565b811461448557600080fd5b50565b60008135905061449781614471565b92915050565b600080604083850312156144b4576144b3614232565b5b60006144c285828601614488565b92505060206144d3858286016143d3565b9150509250929050565b600080604083850312156144f4576144f3614232565b5b6000614502858286016143d3565b9250506020614513858286016143d3565b9150509250929050565b614526816143b2565b82525050565b6000602082019050614541600083018461451d565b92915050565b6000806000606084860312156145605761455f614232565b5b600061456e86828701614488565b935050602061457f86828701614488565b9250506040614590868287016143d3565b9150509250925092565b6145a3816142c1565b81146145ae57600080fd5b50565b6000813590506145c08161459a565b92915050565b6000806000606084860312156145df576145de614232565b5b60006145ed868287016143d3565b93505060206145fe86828701614488565b925050604061460f868287016145b1565b9150509250925092565b60006020828403121561462f5761462e614232565b5b600061463d84828501614488565b91505092915050565b6000806040838503121561465d5761465c614232565b5b600061466b85828601614488565b925050602061467c858286016145b1565b9150509250929050565b600080fd5b600080fd5b600080fd5b60008083601f8401126146ab576146aa614686565b5b8235905067ffffffffffffffff8111156146c8576146c761468b565b5b6020830191508360018202830111156146e4576146e3614690565b5b9250929050565b60008060008060006080868803121561470757614706614232565b5b600061471588828901614488565b9550506020614726888289016145b1565b9450506040614737888289016145b1565b935050606086013567ffffffffffffffff81111561475857614757614237565b5b61476488828901614695565b92509250509295509295909350565b600080fd5b7f4e487b7100000000000000000000000000000000000000000000000000000000600052604160045260246000fd5b6147b082614346565b810181811067ffffffffffffffff821117156147cf576147ce614778565b5b80604052505050565b60006147e2614228565b90506147ee82826147a7565b919050565b600067ffffffffffffffff82111561480e5761480d614778565b5b61481782614346565b9050602081019050919050565b82818337600083830152505050565b6000614846614841846147f3565b6147d8565b90508281526020810184848401111561486257614861614773565b5b61486d848285614824565b509392505050565b600082601f83011261488a57614889614686565b5b813561489a848260208601614833565b91505092915050565b600080600080608085870312156148bd576148bc614232565b5b60006148cb87828801614488565b94505060206148dc87828801614488565b93505060406148ed878288016143d3565b925050606085013567ffffffffffffffff81111561490e5761490d614237565b5b61491a87828801614875565b91505092959194509250565b6000806040838503121561493d5761493c614232565b5b600061494b85828601614488565b925050602061495c85828601614488565b9150509250929050565b7f4e487b7100000000000000000000000000000000000000000000000000000000600052602260045260246000fd5b600060028204905060018216806149ad57607f821691505b602082108114156149c1576149c0614966565b5b50919050565b7f5369676e61746152696768743a20546f6b656e204944206d75737420636f727260008201527f6573706f6e6420746f20616e206578697374696e672072696768742e00000000602082015250565b6000614a23603c83614302565b9150614a2e826149c7565b604082019050919050565b60006020820190508181036000830152614a5281614a16565b9050919050565b7f5369676e61746152696768743a20417070726f76616c206973206e6f7420726560008201527f71756972656420666f7220746865206f776e6572206f6620746865207269676860208201527f742e000000000000000000000000000000000000000000000000000000000000604082015250565b6000614adb604283614302565b9150614ae682614a59565b606082019050919050565b60006020820190508181036000830152614b0a81614ace565b9050919050565b600081519050614b2081614471565b92915050565b600060208284031215614b3c57614b3b614232565b5b6000614b4a84828501614b11565b91505092915050565b600081519050614b628161459a565b92915050565b600060208284031215614b7e57614b7d614232565b5b6000614b8c84828501614b53565b91505092915050565b7f5369676e61746152696768743a20546865206f776e65722773206163636f756e60008201527f74206973206c6f636b65642e0000000000000000000000000000000000000000602082015250565b6000614bf1602c83614302565b9150614bfc82614b95565b604082019050919050565b60006020820190508181036000830152614c2081614be4565b9050919050565b7f5369676e61746152696768743a205468652073656e646572206973206e6f742060008201527f617574686f726973656420746f2070726f7669646520617070726f76616c732e602082015250565b6000614c83604083614302565b9150614c8e82614c27565b604082019050919050565b60006020820190508181036000830152614cb281614c76565b9050919050565b7f5369676e61746152696768743a20536368656d61204944206d75737420636f7260008201527f726573706f6e6420746f20616e206578697374696e6720736368656d612e0000602082015250565b6000614d15603e83614302565b9150614d2082614cb9565b604082019050919050565b60006020820190508181036000830152614d4481614d08565b9050919050565b7f5369676e61746152696768743a2054686520696e6465782070726f766964656460008201527f206973206f7574206f6620626f756e647320666f7220746865206f776e65722060208201527f7370656369666965642e00000000000000000000000000000000000000000000604082015250565b6000614dcd604a83614302565b9150614dd882614d4b565b606082019050919050565b60006020820190508181036000830152614dfc81614dc0565b9050919050565b7f5369676e61746152696768743a205269676874204944206d75737420636f727260008201527f6573706f6e6420746f20616e206578697374696e672072696768742e00000000602082015250565b6000614e5f603c83614302565b9150614e6a82614e03565b604082019050919050565b60006020820190508181036000830152614e8e81614e52565b9050919050565b7f5369676e61746152696768743a2054686520726967687420737065636966696560008201527f64206973206e6f74207265766f6361626c652e00000000000000000000000000602082015250565b6000614ef1603383614302565b9150614efc82614e95565b604082019050919050565b60006020820190508181036000830152614f2081614ee4565b9050919050565b7f5369676e61746152696768743a20546865206d696e7465722773206163636f7560008201527f6e74206973206c6f636b65642e00000000000000000000000000000000000000602082015250565b6000614f83602d83614302565b9150614f8e82614f27565b604082019050919050565b60006020820190508181036000830152614fb281614f76565b9050919050565b7f5369676e61746152696768743a205468652073656e646572206973206e6f742060008201527f617574686f726973656420746f207265766f6b65207468652072696768742e00602082015250565b6000615015603f83614302565b915061502082614fb9565b604082019050919050565b6000602082019050818103600083015261504481615008565b9050919050565b7f4e487b7100000000000000000000000000000000000000000000000000000000600052601160045260246000fd5b6000615085826143b2565b9150615090836143b2565b9250828210156150a3576150a261504b565b5b828203905092915050565b7f5369676e61746152696768743a2054686973207269676874206973206e6f6e2d60008201527f7472616e7366657261626c652e00000000000000000000000000000000000000602082015250565b600061510a602d83614302565b9150615115826150ae565b604082019050919050565b60006020820190508181036000830152615139816150fd565b9050919050565b7f5369676e61746152696768743a2054686973207269676874206861732062656560008201527f6e207265766f6b65642e00000000000000000000000000000000000000000000602082015250565b600061519c602a83614302565b91506151a782615140565b604082019050919050565b600060208201905081810360008301526151cb8161518f565b9050919050565b7f5369676e61746152696768743a205472616e736665727320746f20746865207a60008201527f65726f206164647265737320617265206e6f7420616c6c6f7765642e00000000602082015250565b600061522e603c83614302565b9150615239826151d2565b604082019050919050565b6000602082019050818103600083015261525d81615221565b9050919050565b7f5369676e61746152696768743a20546865206163636f756e742073706563696660008201527f69656420646f6573206e6f7420686f6c642074686520726967687420636f727260208201527f6573706f6e64696e6720746f2074686520546f6b656e2049442070726f76696460408201527f65642e0000000000000000000000000000000000000000000000000000000000606082015250565b600061530c606383614302565b915061531782615264565b608082019050919050565b6000602082019050818103600083015261533b816152ff565b9050919050565b7f5369676e61746152696768743a205468652073656e646572206973206e6f742060008201527f617574686f726973656420746f207472616e736665722074686973207269676860208201527f742e000000000000000000000000000000000000000000000000000000000000604082015250565b60006153c4604283614302565b91506153cf82615342565b606082019050919050565b600060208201905081810360008301526153f3816153b7565b9050919050565b7f5369676e61746152696768743a2054686520726563697069656e74277320616360008201527f636f756e74206973206c6f636b65642e00000000000000000000000000000000602082015250565b6000615456603083614302565b9150615461826153fa565b604082019050919050565b6000602082019050818103600083015261548581615449565b9050919050565b6000615497826143b2565b91506154a2836143b2565b9250827fffffffffffffffffffffffffffffffffffffffffffffffffffffffffffffffff038211156154d7576154d661504b565b5b828201905092915050565b7f5369676e61746152696768743a2054686520696e6465782070726f766964656460008201527f206973206f7574206f6620626f756e64732e0000000000000000000000000000602082015250565b600061553e603283614302565b9150615549826154e2565b604082019050919050565b6000602082019050818103600083015261556d81615531565b9050919050565b7f5369676e61746152696768743a204d6178696d756d20616d6f756e74206f662060008201527f746f6b656e7320616c7265616479206d696e7465642e00000000000000000000602082015250565b60006155d0603683614302565b91506155db82615574565b604082019050919050565b600060208201905081810360008301526155ff816155c3565b9050919050565b7f5369676e61746152696768743a205468652073656e6465722773206163636f7560008201527f6e74206973206c6f636b65642e00000000000000000000000000000000000000602082015250565b6000615662602d83614302565b915061566d82615606565b604082019050919050565b6000602082019050818103600083015261569181615655565b9050919050565b7f5369676e61746152696768743a205468652073656e646572206973206e6f742060008201527f746865206d696e74657220666f722074686520736368656d612073706563696660208201527f6965642e00000000000000000000000000000000000000000000000000000000604082015250565b600061571a604483614302565b915061572582615698565b606082019050919050565b600060208201905081810360008301526157498161570d565b9050919050565b7f5369676e61746152696768743a206d757374206f6e6c79207472616e7366657260008201527f20746f20455243373231526563656976657220696d706c656d656e746572732060208201527f7768656e20726563697069656e74206973206120736d61727420636f6e74726160408201527f63742e0000000000000000000000000000000000000000000000000000000000606082015250565b60006157f8606383614302565b915061580382615750565b608082019050919050565b60006020820190508181036000830152615827816157eb565b9050919050565b7f5369676e61746152696768743a2053656c662d617070726f76616c206973206e60008201527f6f742072657175697265642e0000000000000000000000000000000000000000602082015250565b600061588a602c83614302565b91506158958261582e565b604082019050919050565b600060208201905081810360008301526158b98161587d565b9050919050565b7f5369676e61746152696768743a204d6178696d756d20616d6f756e74206f662060008201527f736368656d617320616c7265616479206d696e7465642e000000000000000000602082015250565b600061591c603783614302565b9150615927826158c0565b604082019050919050565b6000602082019050818103600083015261594b8161590f565b9050919050565b7f5369676e61746152696768743a204d6178696d756d20616d6f756e74206f662060008201527f72696768747320616c7265616479206d696e7465642e00000000000000000000602082015250565b60006159ae603683614302565b91506159b982615952565b604082019050919050565b600060208201905081810360008301526159dd816159a1565b9050919050565b600081905092915050565b60006159fb83856159e4565b9350615a08838584614824565b82840190509392505050565b6000615a218284866159ef565b91508190509392505050565b7f5369676e61746152696768743a20546865205552492070726f7669646564206660008201527f6f722074686520736368656d61206973206e6f7420756e697175652e00000000602082015250565b6000615a89603c83614302565b9150615a9482615a2d565b604082019050919050565b60006020820190508181036000830152615ab881615a7c565b9050919050565b600081519050919050565b600082825260208201905092915050565b6000615ae682615abf565b615af08185615aca565b9350615b00818560208601614313565b615b0981614346565b840191505092915050565b6000608082019050615b296000830187614447565b615b366020830186614447565b615b43604083018561451d565b8181036060830152615b558184615adb565b905095945050505050565b600081519050615b6f81614268565b92915050565b600060208284031215615b8b57615b8a614232565b5b6000615b9984828501615b60565b9150509291505056fea26469706673582212200b48d2789022c915cdf7e076468c725d3645c04cc1c7e774dabe23e4860f95d864736f6c634300080a0033",
  "immutableReferences": {},
  "source": "// SPDX-License-Identifier: MIT\r\npragma solidity 0.8.10;\r\n\r\nimport \"./tokens/IERC165.sol\";\r\nimport \"./tokens/IERC721.sol\";\r\nimport \"./tokens/IERC721Enumerable.sol\";\r\nimport \"./tokens/IERC721Metadata.sol\";\r\nimport \"./tokens/IERC721Receiver.sol\";\r\nimport \"./tokens/IERC721Schema.sol\";\r\n\r\nimport \"./SignataIdentity.sol\";\r\n\r\nimport \"./types/extensions/Address.sol\";\r\n\r\ncontract SignataRight is IERC721Schema {\r\n    using Address for address;\r\n    \r\n    event MintSchema(uint256 indexed schemaId, uint256 indexed mintingRightId, bytes32 indexed uriHash);\r\n    \r\n    event MintRight(uint256 indexed schemaId, uint256 indexed rightId, bool indexed unbound);\r\n    \r\n    event Revoke(uint256 indexed rightId);\r\n    \r\n    uint256 private constant MAX_UINT256 = type(uint256).max;\r\n    \r\n    bytes4 private constant INTERFACE_ID_ERC165 = type(IERC165).interfaceId;\r\n    bytes4 private constant INTERFACE_ID_ERC721 = type(IERC721).interfaceId;\r\n    bytes4 private constant INTERFACE_ID_ERC721_ENUMERABLE = type(IERC721Enumerable).interfaceId;\r\n    bytes4 private constant INTERFACE_ID_ERC721_METADATA = type(IERC721Metadata).interfaceId;\r\n    bytes4 private constant INTERFACE_ID_ERC721_SCHEMA = type(IERC721Schema).interfaceId;\r\n\r\n    string private _name;\r\n    string private _symbol;\r\n    SignataIdentity private _signataIdentity;\r\n    \r\n    // Schema Storage\r\n    mapping(uint256 => uint256) private _schemaToRightBalance;\r\n    mapping(uint256 => mapping(uint256 => uint256)) private _schemaToRights;\r\n    mapping(uint256 => bool) _schemaRevocable;\r\n    mapping(uint256 => bool) _schemaTransferable;\r\n    mapping(uint256 => string) private _schemaToURI;\r\n    mapping(bytes32 => uint256) private _uriHashToSchema;\r\n    mapping(uint256 => uint256) private _schemaToMintingRight;\r\n    mapping(address => mapping(uint256 => uint256)) _ownerToSchemaBalance;\r\n    uint256 private _schemasTotal;\r\n    \r\n    // Rights Storage\r\n    mapping(uint256 => address) private _rightToOwner;\r\n    mapping(address => uint256) private _ownerToRightBalance;\r\n    mapping(uint256 => address) private _rightToApprovedAddress;\r\n    mapping(uint256 => bool) private _rightToRevocationStatus;\r\n    mapping(uint256 => uint256) private _rightToSchema;\r\n    mapping(address => mapping (address => bool)) private _ownerToOperatorStatuses;\r\n    mapping(address => mapping(uint256 => uint256)) private _ownerToRights;\r\n    mapping(uint256 => uint256) _rightToOwnerRightsIndex;\r\n    uint256 private _rightsTotal;\r\n    \r\n    constructor(\r\n        string memory name_, \r\n        string memory symbol_,\r\n        address signataIdentity_,\r\n        string memory mintingSchemaURI_\r\n    ) {\r\n        address thisContract = address(this);\r\n        bytes32 uriHash = keccak256(bytes(mintingSchemaURI_));\r\n\r\n        _name = name_;\r\n        _symbol = symbol_;\r\n\r\n        _signataIdentity = SignataIdentity(signataIdentity_);\r\n\r\n        _schemaToRightBalance[1] = 1;\r\n        _schemaToRights[1][0] = 1;\r\n        _schemaRevocable[1] = false;\r\n        _schemaTransferable[1] = true;\r\n        _schemaToURI[1] = mintingSchemaURI_;\r\n        _uriHashToSchema[uriHash] = 1;\r\n        _schemaToMintingRight[1] = 1;\r\n        _ownerToSchemaBalance[thisContract][1] = 1;\r\n        _schemasTotal = 1;\r\n\r\n        _rightToOwner[1] = thisContract;\r\n        _ownerToRightBalance[thisContract] = 1;\r\n        _rightToSchema[1] = 1;\r\n        _ownerToRights[thisContract][0] = 1;\r\n        _rightToOwnerRightsIndex[1] = 0;\r\n        _rightsTotal = 1;\r\n        \r\n        emit MintSchema(1, 1, uriHash);\r\n        \r\n        emit MintRight(1, 1, false);\r\n        \r\n        emit Transfer(address(0), thisContract, 1);\r\n    }\r\n\r\n    function supportsInterface(bytes4 interfaceId) public pure override returns (bool) {\r\n        return interfaceId == INTERFACE_ID_ERC165\r\n            || interfaceId == INTERFACE_ID_ERC721\r\n            || interfaceId == INTERFACE_ID_ERC721_ENUMERABLE\r\n            || interfaceId == INTERFACE_ID_ERC721_METADATA\r\n            || interfaceId == INTERFACE_ID_ERC721_SCHEMA;\r\n    }\r\n    \r\n    function mintSchema(\r\n        address minter,\r\n        bool schemaTransferable, \r\n        bool schemaRevocable, \r\n        string calldata schemaURI\r\n    ) external returns (uint256) {\r\n        require(\r\n            _schemasTotal != MAX_UINT256,\r\n            \"SignataRight: Maximum amount of schemas already minted.\"\r\n        );\r\n        \r\n        require(\r\n            _rightsTotal != MAX_UINT256,\r\n            \"SignataRight: Maximum amount of rights already minted.\"\r\n        );\r\n        \r\n        bytes32 uriHash = keccak256(bytes(schemaURI));\r\n        \r\n        require(\r\n            _uriHashToSchema[uriHash] == 0,\r\n            \"SignataRight: The URI provided for the schema is not unique.\"\r\n        );\r\n        \r\n        address recipient;\r\n        \r\n        if (minter.isContract()) {\r\n            recipient = minter;\r\n        } else {\r\n            recipient = _signataIdentity.getIdentity(minter);\r\n            \r\n            require(\r\n                !_signataIdentity.isLocked(recipient),\r\n                \"SignataRight: The sender's account is locked.\"\r\n            );\r\n        }\r\n        \r\n        _rightsTotal += 1;\r\n        _rightToOwner[_rightsTotal] = recipient;\r\n        _rightToSchema[_rightsTotal] = 1;\r\n        \r\n        uint256 schemaToRightsLength = _schemaToRightBalance[1];\r\n\r\n        _schemaToRights[1][schemaToRightsLength] = _rightsTotal;\r\n        _schemaToRightBalance[1] += 1;\r\n        _ownerToSchemaBalance[recipient][1] += 1;\r\n\r\n        uint256 ownerToRightsLength = _ownerToRightBalance[recipient];\r\n        \r\n        _ownerToRights[recipient][ownerToRightsLength] = _rightsTotal;\r\n        _rightToOwnerRightsIndex[_rightsTotal] = ownerToRightsLength;\r\n        _ownerToRightBalance[recipient] += 1;\r\n        \r\n        _schemasTotal += 1;\r\n        _schemaToMintingRight[_schemasTotal] = _rightsTotal;\r\n        _schemaToURI[_schemasTotal] = schemaURI;\r\n        _uriHashToSchema[uriHash] = _schemasTotal;\r\n        _schemaTransferable[_schemasTotal] = schemaTransferable;\r\n        _schemaRevocable[_schemasTotal] = schemaRevocable;\r\n        \r\n        require(\r\n            _isSafeToTransfer(address(0), recipient, _rightsTotal, \"\"),\r\n            \"SignataRight: must only transfer to ERC721Receiver implementers when recipient is a smart contract.\"\r\n        );\r\n        \r\n        emit MintRight(1, _rightsTotal, false);\r\n        \r\n        emit Transfer(address(0), minter, _rightsTotal);\r\n        \r\n        emit MintSchema(_schemasTotal, _rightsTotal, uriHash);\r\n        \r\n        return _schemasTotal;\r\n    }\r\n    \r\n    function mintRight(uint256 schemaId, address to, bool unbound) external {\r\n        require(\r\n            _rightsTotal != MAX_UINT256,\r\n            \"SignataRight: Maximum amount of tokens already minted.\"\r\n        );\r\n        \r\n        require(\r\n            _schemaToMintingRight[schemaId] != 0,\r\n            \"SignataRight: Schema ID must correspond to an existing schema.\"\r\n        );\r\n\r\n        address minter;\r\n        \r\n        if (msg.sender.isContract()) {\r\n            minter = msg.sender;\r\n        } else {\r\n            minter = _signataIdentity.getIdentity(msg.sender);\r\n            \r\n            require(\r\n                !_signataIdentity.isLocked(minter),\r\n                \"SignataRight: The sender's account is locked.\"\r\n            );\r\n        }\r\n        \r\n        require(\r\n            minter == _rightToOwner[_schemaToMintingRight[schemaId]],\r\n            \"SignataRight: The sender is not the minter for the schema specified.\"\r\n        );\r\n        \r\n        address recipient;\r\n        \r\n        if (to.isContract()) {\r\n            recipient = to;\r\n        } else if (unbound == true) {\r\n            recipient = to;\r\n        } else {\r\n            recipient = _signataIdentity.getIdentity(to);\r\n            \r\n            require(\r\n                !_signataIdentity.isLocked(minter),\r\n                \"SignataRight: The sender's account is locked.\"\r\n            );\r\n        }\r\n        \r\n        _rightsTotal += 1;\r\n        _rightToOwner[_rightsTotal] = recipient;\r\n        _rightToSchema[_rightsTotal] = schemaId;\r\n        \r\n        uint256 schemaToRightsLength = _schemaToRightBalance[schemaId];\r\n\r\n        _schemaToRights[schemaId][schemaToRightsLength] = _rightsTotal;\r\n        _schemaToRightBalance[schemaId] += 1;\r\n        _ownerToSchemaBalance[recipient][schemaId] += 1;\r\n\r\n        uint256 ownerToRightsLength = _ownerToRightBalance[recipient];\r\n        \r\n        _ownerToRights[recipient][ownerToRightsLength] = _rightsTotal;\r\n        _rightToOwnerRightsIndex[_rightsTotal] = ownerToRightsLength;\r\n        _ownerToRightBalance[recipient] += 1;\r\n        \r\n        require(\r\n            _isSafeToTransfer(address(0), recipient, _rightsTotal, \"\"),\r\n            \"SignataRight: must only transfer to ERC721Receiver implementers when recipient is a smart contract.\"\r\n        );\r\n        \r\n        emit MintRight(schemaId, _rightsTotal, unbound);\r\n        \r\n        emit Transfer(address(0), to, _rightsTotal);\r\n    }\r\n\r\n    function balanceOf(address owner) public view override returns (uint256) {\r\n        if (owner.isContract()) {\r\n            return _ownerToRightBalance[owner];\r\n        }\r\n        \r\n        return _ownerToRightBalance[_signataIdentity.getIdentity(owner)];\r\n    }\r\n\r\n    function ownerOf(uint256 tokenId) public view override returns (address) {\r\n        address owner = _rightToOwner[tokenId];\r\n        \r\n        require(\r\n            owner != address(0),\r\n            \"SignataRight: Token ID must correspond to an existing right.\"\r\n        );\r\n        \r\n        if (owner.isContract()) {\r\n            return owner;\r\n        }\r\n        \r\n        return _signataIdentity.getDelegate(owner);\r\n    }\r\n\r\n    function name() public view override returns (string memory) {\r\n        return _name;\r\n    }\r\n\r\n    function symbol() public view override returns (string memory) {\r\n        return _symbol;\r\n    }\r\n\r\n    function tokenURI(uint256 tokenId) external view override returns (string memory) {\r\n        require(\r\n            _rightToOwner[tokenId] != address(0), \r\n            \"SignataRight: Token ID must correspond to an existing right.\"\r\n        );\r\n\r\n        return _schemaToURI[_rightToSchema[tokenId]];\r\n    }\r\n\r\n    function approve(address to, uint256 tokenId) external override {\r\n        address owner = _rightToOwner[tokenId];\r\n        \r\n        require(\r\n            owner != address(0),\r\n            \"SignataRight: Token ID must correspond to an existing right.\"\r\n        );\r\n        \r\n        require(\r\n            to != owner, \r\n            \"SignataRight: Approval is not required for the owner of the right.\"\r\n        );\r\n        \r\n        address controller;\r\n        \r\n        if (owner.isContract()) {\r\n            controller = owner;\r\n        } else {\r\n            controller = _signataIdentity.getDelegate(owner);\r\n            \r\n            require(\r\n                to != controller, \r\n                \"SignataRight: Approval is not required for the owner of the right.\"\r\n            );\r\n            \r\n            require(\r\n                !_signataIdentity.isLocked(owner),\r\n                \"SignataRight: The owner's account is locked.\"\r\n            );\r\n        }\r\n            \r\n        require(\r\n            msg.sender == controller || isApprovedForAll(owner, msg.sender),\r\n            \"SignataRight: The sender is not authorised to provide approvals.\"\r\n        );\r\n        \r\n        _rightToApprovedAddress[tokenId] = to;\r\n    \r\n        emit Approval(controller, to, tokenId);\r\n    }\r\n    \r\n    function revoke(uint256 tokenId) external {\r\n        require(\r\n            _rightToOwner[tokenId] != address(0),\r\n            \"SignataRight: Right ID must correspond to an existing right.\"\r\n        );\r\n        \r\n        uint256 schemaId = _rightToSchema[tokenId];\r\n        \r\n        require(\r\n            _schemaRevocable[schemaId],\r\n            \"SignataRight: The right specified is not revocable.\"\r\n        );\r\n        \r\n        address minter = _rightToOwner[_schemaToMintingRight[schemaId]];\r\n        \r\n        address controller;\r\n        \r\n        if (minter.isContract()) {\r\n            controller = minter;\r\n        } else {\r\n            controller = _signataIdentity.getDelegate(minter);\r\n            \r\n            require(\r\n                !_signataIdentity.isLocked(minter),\r\n                \"SignataRight: The minter's account is locked.\"\r\n            );\r\n        }\r\n            \r\n        require(\r\n            msg.sender == controller,\r\n            \"SignataRight: The sender is not authorised to revoke the right.\"\r\n        );\r\n        \r\n        _rightToRevocationStatus[tokenId] = true;\r\n\r\n        _ownerToSchemaBalance[_rightToOwner[tokenId]][schemaId] -= 1;\r\n    \r\n        emit Revoke(tokenId);        \r\n    }\r\n    \r\n    function isRevoked(uint256 tokenId) external view returns (bool) {\r\n        require(\r\n            _rightToOwner[tokenId] != address(0),\r\n            \"SignataRight: Token ID must correspond to an existing right.\"\r\n        );\r\n        \r\n        return _rightToRevocationStatus[tokenId];\r\n    }\r\n\r\n    function getApproved(uint256 tokenId) public view override returns (address) {\r\n        require(\r\n            _rightToOwner[tokenId] != address(0),\r\n            \"SignataRight: Token ID must correspond to an existing right.\"\r\n        );\r\n\r\n        return _rightToApprovedAddress[tokenId];\r\n    }\r\n\r\n    function setApprovalForAll(address operator, bool approved) public override {\r\n        address owner;\r\n        \r\n        require(\r\n            operator != msg.sender, \r\n            \"SignataRight: Self-approval is not required.\"\r\n        );\r\n        \r\n        if (msg.sender.isContract()) {\r\n            owner = msg.sender;\r\n        } else {\r\n            owner = _signataIdentity.getIdentity(msg.sender);\r\n            \r\n            require(\r\n                operator != owner, \r\n                \"SignataRight: Self-approval is not required.\"\r\n            );\r\n            \r\n            require(\r\n                !_signataIdentity.isLocked(owner),\r\n                \"SignataRight: The owner's account is locked.\"\r\n            );\r\n        }\r\n\r\n        _ownerToOperatorStatuses[owner][operator] = approved;\r\n        \r\n        emit ApprovalForAll(owner, operator, approved);\r\n    }\r\n\r\n    function isApprovedForAll(address owner, address operator) public view override returns (bool) {\r\n        address owner_ = (owner.isContract())\r\n            ? owner\r\n            :_signataIdentity.getIdentity(msg.sender);\r\n            \r\n        return _ownerToOperatorStatuses[owner_][operator];\r\n    }\r\n\r\n    function transferFrom(address from, address to, uint256 tokenId) public override {\r\n        require(\r\n            _rightToOwner[tokenId] != address(0),\r\n            \"SignataRight: Token ID must correspond to an existing right.\"\r\n        );\r\n        \r\n        uint256 schemaId = _rightToSchema[tokenId];\r\n        \r\n        require(\r\n            _schemaTransferable[schemaId],\r\n            \"SignataRight: This right is non-transferable.\"\r\n        );\r\n        \r\n        require(\r\n            !_rightToRevocationStatus[tokenId],\r\n            \"SignataRight: This right has been revoked.\"\r\n        );\r\n        \r\n        require(\r\n            to != address(0), \r\n            \"SignataRight: Transfers to the zero address are not allowed.\"\r\n        );\r\n        \r\n        address owner;\r\n        \r\n        if (from.isContract()) {\r\n            owner = from;\r\n        } else {\r\n            owner = _signataIdentity.getIdentity(from);\r\n            \r\n            require(\r\n                !_signataIdentity.isLocked(owner),\r\n                \"SignataRight: The owner's account is locked.\"\r\n            );\r\n        }\r\n        \r\n        require(\r\n            _rightToOwner[tokenId] == owner,\r\n            \"SignataRight: The account specified does not hold the right corresponding to the Token ID provided.\"\r\n        );\r\n        \r\n\r\n        require(\r\n            msg.sender == owner || msg.sender == _rightToApprovedAddress[tokenId] || _ownerToOperatorStatuses[owner][msg.sender],\r\n            \"SignataRight: The sender is not authorised to transfer this right.\"\r\n        );\r\n        \r\n        address recipient;\r\n\r\n        if (to.isContract()) {\r\n            recipient = to;\r\n        } else {\r\n            recipient = _signataIdentity.getIdentity(to);\r\n            \r\n            require(\r\n                !_signataIdentity.isLocked(recipient),\r\n                \"SignataRight: The recipient's account is locked.\"\r\n            );\r\n        }\r\n        \r\n        uint256 lastRightIndex = _ownerToRightBalance[owner] - 1;\r\n        uint256 rightIndex = _rightToOwnerRightsIndex[tokenId];\r\n\r\n        if (rightIndex != lastRightIndex) {\r\n            uint256 lastTokenId = _ownerToRights[owner][lastRightIndex];\r\n\r\n            _ownerToRights[owner][rightIndex] = lastTokenId;\r\n            _rightToOwnerRightsIndex[lastTokenId] = rightIndex;\r\n        }\r\n\r\n        delete _ownerToRights[owner][lastRightIndex];\r\n        delete _rightToOwnerRightsIndex[tokenId];\r\n        \r\n        _ownerToSchemaBalance[owner][schemaId] -= 1;\r\n        \r\n        uint256 length = _ownerToRightBalance[recipient];\r\n        \r\n        _ownerToRights[recipient][length] = tokenId;\r\n        _rightToOwnerRightsIndex[tokenId] = length;\r\n        \r\n        _rightToApprovedAddress[tokenId] = address(0);\r\n        \r\n        emit Approval(from, address(0), tokenId);\r\n\r\n        _ownerToRightBalance[owner] -= 1;\r\n        _ownerToRightBalance[recipient] += 1;\r\n        _rightToOwner[tokenId] = recipient;\r\n        \r\n        _ownerToSchemaBalance[recipient][schemaId] += 1;\r\n\r\n        emit Transfer(from, to, tokenId);\r\n    }\r\n\r\n    function safeTransferFrom(address from, address to, uint256 tokenId) external override {\r\n        safeTransferFrom(from, to, tokenId, \"\");\r\n    }\r\n\r\n    function safeTransferFrom(address from, address to, uint256 tokenId, bytes memory _data) public override {\r\n        transferFrom(from, to, tokenId);\r\n        \r\n        require(\r\n            _isSafeToTransfer(from, to, tokenId, _data),\r\n            \"SignataRight: must only transfer to ERC721Receiver implementers when recipient is a smart contract.\"\r\n        );\r\n    }\r\n    \r\n    function tokenOfOwnerByIndex(address owner, uint256 index) public view override returns (uint256) {\r\n        address holder;\r\n        \r\n        if (owner.isContract()) {\r\n            holder = owner;\r\n        } else {\r\n            holder = _signataIdentity.getIdentity(owner);\r\n        }\r\n        \r\n        require(\r\n            index < _ownerToRightBalance[holder], \r\n            \"SignataRight: The index provided is out of bounds for the owner specified.\"\r\n        );\r\n        \r\n        return _ownerToRights[holder][index];\r\n    }\r\n\r\n    function totalSupply() public view override returns (uint256) {\r\n        return _rightsTotal;\r\n    }\r\n\r\n    function tokenByIndex(uint256 index) public view override returns (uint256) {\r\n        require(\r\n            index < _rightsTotal, \r\n            \"SignataRight: The index provided is out of bounds.\"\r\n        );\r\n        \r\n        return index + 1;\r\n    }\r\n    \r\n    function schemaOf(uint256 tokenId) external view override returns (uint256) {\r\n        require(\r\n            _rightToOwner[tokenId] != address(0),\r\n            \"SignataRight: Token ID must correspond to an existing right.\"\r\n        );\r\n\r\n        return _rightToSchema[tokenId];    \r\n    }\r\n\r\n    function minterOf(uint256 schemaId) external view override returns (address) {\r\n        uint256 mintingToken = _schemaToMintingRight[schemaId];\r\n        \r\n        require(\r\n            mintingToken != 0,\r\n            \"SignataRight: Schema ID must correspond to an existing schema.\"\r\n        );\r\n        \r\n        address owner = _rightToOwner[mintingToken];\r\n\r\n        if (owner.isContract()) {\r\n            return owner;\r\n        }\r\n        \r\n        return _signataIdentity.getDelegate(owner);        \r\n    }\r\n    \r\n    function holdsTokenOfSchema(address holder, uint256 schemaId) external view override returns (bool) {\r\n        require(\r\n            _schemaToMintingRight[schemaId] != 0,\r\n            \"SignataRight: Schema ID must correspond to an existing schema.\"\r\n        );\r\n        \r\n        address owner;\r\n\r\n        if (owner.isContract()) {\r\n            owner = holder;\r\n        } else {\r\n            owner = _signataIdentity.getIdentity(holder);\r\n        }\r\n        \r\n        return _ownerToSchemaBalance[owner][schemaId] > 0;\r\n    }\r\n    \r\n    function totalSchemas() external view override returns (uint256) {\r\n        return _schemasTotal;\r\n    }\r\n    \r\n    function totalMintedFor(uint256 schemaId) external view override returns (uint256) {\r\n        require(\r\n            _schemaToMintingRight[schemaId] != 0,\r\n            \"SignataRight: Schema ID must correspond to an existing schema.\"\r\n        );\r\n        \r\n        return _schemaToRightBalance[schemaId];\r\n    }\r\n\r\n    function tokenOfSchemaByIndex(uint256 schemaId, uint256 index) external view override returns (uint256) {\r\n        require(\r\n            _schemaToMintingRight[schemaId] != 0,\r\n            \"SignataRight: Schema ID must correspond to an existing schema.\"\r\n        );\r\n        \r\n        require(\r\n            index < _schemaToRightBalance[schemaId], \r\n            \"SignataRight: The index provided is out of bounds for the owner specified.\"\r\n        );\r\n        \r\n        return _schemaToRights[schemaId][index];       \r\n    }\r\n        \r\n    function _isSafeToTransfer(address from, address to, uint256 tokenId, bytes memory _data) private returns (bool)\r\n    {\r\n        if (to.isContract()) {\r\n            try IERC721Receiver(to).onERC721Received(msg.sender, from, tokenId, _data) returns (bytes4 retval) {\r\n                return retval == IERC721Receiver(to).onERC721Received.selector;\r\n            } catch (bytes memory reason) {\r\n                if (reason.length == 0) {\r\n                    revert(\"SignataRight: must only transfer to ERC721Receiver implementers when recipient is a smart contract.\");\r\n                } else {\r\n                    assembly {\r\n                        revert(add(32, reason), mload(reason))\r\n                    }\r\n                }\r\n            }\r\n        } else {\r\n            return true;\r\n        }\r\n    }\r\n}",
  "sourcePath": "C:\\Users\\tim\\Projects\\GitHub\\sata-contracts-v1\\contracts\\SignataRight.sol",
  "compiler": {
    "name": "solc",
    "version": "0.8.10+commit.fc410830.Emscripten.clang"
  },
  "schemaVersion": "3.4.3",
  "updatedAt": "2021-12-20T12:16:39.987Z",
  "devdoc": {
    "kind": "dev",
    "methods": {},
    "version": 1
  },
  "userdoc": {
    "kind": "user",
    "methods": {},
    "version": 1
  }
}