{
  "contractName": "SignataRight",
  "abi": [
    {
      "inputs": [
        {
          "internalType": "string",
          "name": "name_",
          "type": "string"
        },
        {
          "internalType": "string",
          "name": "symbol_",
          "type": "string"
        },
        {
          "internalType": "address",
          "name": "signataIdentity_",
          "type": "address"
        },
        {
          "internalType": "string",
          "name": "mintingSchemaURI_",
          "type": "string"
        }
      ],
      "stateMutability": "nonpayable",
      "type": "constructor"
    },
    {
      "anonymous": false,
      "inputs": [
        {
          "indexed": true,
          "internalType": "address",
          "name": "owner",
          "type": "address"
        },
        {
          "indexed": true,
          "internalType": "address",
          "name": "approved",
          "type": "address"
        },
        {
          "indexed": true,
          "internalType": "uint256",
          "name": "tokenId",
          "type": "uint256"
        }
      ],
      "name": "Approval",
      "type": "event"
    },
    {
      "anonymous": false,
      "inputs": [
        {
          "indexed": true,
          "internalType": "address",
          "name": "owner",
          "type": "address"
        },
        {
          "indexed": true,
          "internalType": "address",
          "name": "operator",
          "type": "address"
        },
        {
          "indexed": false,
          "internalType": "bool",
          "name": "approved",
          "type": "bool"
        }
      ],
      "name": "ApprovalForAll",
      "type": "event"
    },
    {
      "anonymous": false,
      "inputs": [
        {
          "indexed": true,
          "internalType": "uint256",
          "name": "schemaId",
          "type": "uint256"
        },
        {
          "indexed": true,
          "internalType": "uint256",
          "name": "rightId",
          "type": "uint256"
        }
      ],
      "name": "MintRight",
      "type": "event"
    },
    {
      "anonymous": false,
      "inputs": [
        {
          "indexed": true,
          "internalType": "uint256",
          "name": "schemaId",
          "type": "uint256"
        },
        {
          "indexed": true,
          "internalType": "uint256",
          "name": "mintingRightId",
          "type": "uint256"
        },
        {
          "indexed": true,
          "internalType": "bytes32",
          "name": "uriHash",
          "type": "bytes32"
        }
      ],
      "name": "MintSchema",
      "type": "event"
    },
    {
      "anonymous": false,
      "inputs": [
        {
          "indexed": true,
          "internalType": "uint256",
          "name": "rightId",
          "type": "uint256"
        }
      ],
      "name": "Revoke",
      "type": "event"
    },
    {
      "anonymous": false,
      "inputs": [
        {
          "indexed": true,
          "internalType": "address",
          "name": "from",
          "type": "address"
        },
        {
          "indexed": true,
          "internalType": "address",
          "name": "to",
          "type": "address"
        },
        {
          "indexed": true,
          "internalType": "uint256",
          "name": "tokenId",
          "type": "uint256"
        }
      ],
      "name": "Transfer",
      "type": "event"
    },
    {
      "inputs": [
        {
          "internalType": "bytes4",
          "name": "interfaceId",
          "type": "bytes4"
        }
      ],
      "name": "supportsInterface",
      "outputs": [
        {
          "internalType": "bool",
          "name": "",
          "type": "bool"
        }
      ],
      "stateMutability": "pure",
      "type": "function"
    },
    {
      "inputs": [
        {
          "internalType": "address",
          "name": "minter",
          "type": "address"
        },
        {
          "internalType": "bool",
          "name": "schemaTransferable",
          "type": "bool"
        },
        {
          "internalType": "bool",
          "name": "schemaRevocable",
          "type": "bool"
        },
        {
          "internalType": "string",
          "name": "schemaURI",
          "type": "string"
        }
      ],
      "name": "mintSchema",
      "outputs": [
        {
          "internalType": "uint256",
          "name": "",
          "type": "uint256"
        }
      ],
      "stateMutability": "nonpayable",
      "type": "function"
    },
    {
      "inputs": [
        {
          "internalType": "uint256",
          "name": "schemaId",
          "type": "uint256"
        },
        {
          "internalType": "address",
          "name": "to",
          "type": "address"
        }
      ],
      "name": "mintRight",
      "outputs": [],
      "stateMutability": "nonpayable",
      "type": "function"
    },
    {
      "inputs": [
        {
          "internalType": "address",
          "name": "owner",
          "type": "address"
        }
      ],
      "name": "balanceOf",
      "outputs": [
        {
          "internalType": "uint256",
          "name": "",
          "type": "uint256"
        }
      ],
      "stateMutability": "view",
      "type": "function"
    },
    {
      "inputs": [
        {
          "internalType": "uint256",
          "name": "tokenId",
          "type": "uint256"
        }
      ],
      "name": "ownerOf",
      "outputs": [
        {
          "internalType": "address",
          "name": "",
          "type": "address"
        }
      ],
      "stateMutability": "view",
      "type": "function"
    },
    {
      "inputs": [],
      "name": "name",
      "outputs": [
        {
          "internalType": "string",
          "name": "",
          "type": "string"
        }
      ],
      "stateMutability": "view",
      "type": "function"
    },
    {
      "inputs": [],
      "name": "symbol",
      "outputs": [
        {
          "internalType": "string",
          "name": "",
          "type": "string"
        }
      ],
      "stateMutability": "view",
      "type": "function"
    },
    {
      "inputs": [
        {
          "internalType": "uint256",
          "name": "tokenId",
          "type": "uint256"
        }
      ],
      "name": "tokenURI",
      "outputs": [
        {
          "internalType": "string",
          "name": "",
          "type": "string"
        }
      ],
      "stateMutability": "view",
      "type": "function"
    },
    {
      "inputs": [
        {
          "internalType": "address",
          "name": "to",
          "type": "address"
        },
        {
          "internalType": "uint256",
          "name": "tokenId",
          "type": "uint256"
        }
      ],
      "name": "approve",
      "outputs": [],
      "stateMutability": "nonpayable",
      "type": "function"
    },
    {
      "inputs": [
        {
          "internalType": "uint256",
          "name": "tokenId",
          "type": "uint256"
        }
      ],
      "name": "revoke",
      "outputs": [],
      "stateMutability": "nonpayable",
      "type": "function"
    },
    {
      "inputs": [
        {
          "internalType": "uint256",
          "name": "tokenId",
          "type": "uint256"
        }
      ],
      "name": "isRevoked",
      "outputs": [
        {
          "internalType": "bool",
          "name": "",
          "type": "bool"
        }
      ],
      "stateMutability": "view",
      "type": "function"
    },
    {
      "inputs": [
        {
          "internalType": "uint256",
          "name": "tokenId",
          "type": "uint256"
        }
      ],
      "name": "getApproved",
      "outputs": [
        {
          "internalType": "address",
          "name": "",
          "type": "address"
        }
      ],
      "stateMutability": "view",
      "type": "function"
    },
    {
      "inputs": [
        {
          "internalType": "address",
          "name": "operator",
          "type": "address"
        },
        {
          "internalType": "bool",
          "name": "approved",
          "type": "bool"
        }
      ],
      "name": "setApprovalForAll",
      "outputs": [],
      "stateMutability": "nonpayable",
      "type": "function"
    },
    {
      "inputs": [
        {
          "internalType": "address",
          "name": "owner",
          "type": "address"
        },
        {
          "internalType": "address",
          "name": "operator",
          "type": "address"
        }
      ],
      "name": "isApprovedForAll",
      "outputs": [
        {
          "internalType": "bool",
          "name": "",
          "type": "bool"
        }
      ],
      "stateMutability": "view",
      "type": "function"
    },
    {
      "inputs": [
        {
          "internalType": "address",
          "name": "from",
          "type": "address"
        },
        {
          "internalType": "address",
          "name": "to",
          "type": "address"
        },
        {
          "internalType": "uint256",
          "name": "tokenId",
          "type": "uint256"
        }
      ],
      "name": "transferFrom",
      "outputs": [],
      "stateMutability": "nonpayable",
      "type": "function"
    },
    {
      "inputs": [
        {
          "internalType": "address",
          "name": "from",
          "type": "address"
        },
        {
          "internalType": "address",
          "name": "to",
          "type": "address"
        },
        {
          "internalType": "uint256",
          "name": "tokenId",
          "type": "uint256"
        }
      ],
      "name": "safeTransferFrom",
      "outputs": [],
      "stateMutability": "nonpayable",
      "type": "function"
    },
    {
      "inputs": [
        {
          "internalType": "address",
          "name": "from",
          "type": "address"
        },
        {
          "internalType": "address",
          "name": "to",
          "type": "address"
        },
        {
          "internalType": "uint256",
          "name": "tokenId",
          "type": "uint256"
        },
        {
          "internalType": "bytes",
          "name": "_data",
          "type": "bytes"
        }
      ],
      "name": "safeTransferFrom",
      "outputs": [],
      "stateMutability": "nonpayable",
      "type": "function"
    },
    {
      "inputs": [
        {
          "internalType": "address",
          "name": "owner",
          "type": "address"
        },
        {
          "internalType": "uint256",
          "name": "index",
          "type": "uint256"
        }
      ],
      "name": "tokenOfOwnerByIndex",
      "outputs": [
        {
          "internalType": "uint256",
          "name": "",
          "type": "uint256"
        }
      ],
      "stateMutability": "view",
      "type": "function"
    },
    {
      "inputs": [],
      "name": "totalSupply",
      "outputs": [
        {
          "internalType": "uint256",
          "name": "",
          "type": "uint256"
        }
      ],
      "stateMutability": "view",
      "type": "function"
    },
    {
      "inputs": [
        {
          "internalType": "uint256",
          "name": "index",
          "type": "uint256"
        }
      ],
      "name": "tokenByIndex",
      "outputs": [
        {
          "internalType": "uint256",
          "name": "",
          "type": "uint256"
        }
      ],
      "stateMutability": "view",
      "type": "function"
    },
    {
      "inputs": [
        {
          "internalType": "uint256",
          "name": "tokenId",
          "type": "uint256"
        }
      ],
      "name": "schemaOf",
      "outputs": [
        {
          "internalType": "uint256",
          "name": "",
          "type": "uint256"
        }
      ],
      "stateMutability": "view",
      "type": "function"
    },
    {
      "inputs": [
        {
          "internalType": "uint256",
          "name": "schemaId",
          "type": "uint256"
        }
      ],
      "name": "minterOf",
      "outputs": [
        {
          "internalType": "address",
          "name": "",
          "type": "address"
        }
      ],
      "stateMutability": "view",
      "type": "function"
    },
    {
      "inputs": [
        {
          "internalType": "address",
          "name": "holder",
          "type": "address"
        },
        {
          "internalType": "uint256",
          "name": "schemaId",
          "type": "uint256"
        }
      ],
      "name": "holdsTokenOfSchema",
      "outputs": [
        {
          "internalType": "bool",
          "name": "",
          "type": "bool"
        }
      ],
      "stateMutability": "view",
      "type": "function"
    },
    {
      "inputs": [],
      "name": "totalSchemas",
      "outputs": [
        {
          "internalType": "uint256",
          "name": "",
          "type": "uint256"
        }
      ],
      "stateMutability": "view",
      "type": "function"
    },
    {
      "inputs": [
        {
          "internalType": "uint256",
          "name": "schemaId",
          "type": "uint256"
        }
      ],
      "name": "totalMintedFor",
      "outputs": [
        {
          "internalType": "uint256",
          "name": "",
          "type": "uint256"
        }
      ],
      "stateMutability": "view",
      "type": "function"
    },
    {
      "inputs": [
        {
          "internalType": "uint256",
          "name": "schemaId",
          "type": "uint256"
        },
        {
          "internalType": "uint256",
          "name": "index",
          "type": "uint256"
        }
      ],
      "name": "tokenOfSchemaByIndex",
      "outputs": [
        {
          "internalType": "uint256",
          "name": "",
          "type": "uint256"
        }
      ],
      "stateMutability": "view",
      "type": "function"
    }
  ],
  "bytecode": "0x60806040523480156200001157600080fd5b50604051620064ff380380620064ff83398181016040528101906200003791906200054e565b600030905060008280519060200120905085600090805190602001906200006092919062000409565b5084600190805190602001906200007992919062000409565b5083600260006101000a81548173ffffffffffffffffffffffffffffffffffffffff021916908373ffffffffffffffffffffffffffffffffffffffff1602179055506001600360006001815260200190815260200160002081905550600160046000600181526020019081526020016000206000808152602001908152602001600020819055506000600560006001815260200190815260200160002060006101000a81548160ff0219169083151502179055506001600660006001815260200190815260200160002060006101000a81548160ff02191690831515021790555082600760006001815260200190815260200160002090805190602001906200018492919062000409565b506001600860008381526020019081526020016000208190555060016009600060018152602001908152602001600020819055506001600a60008473ffffffffffffffffffffffffffffffffffffffff1673ffffffffffffffffffffffffffffffffffffffff168152602001908152602001600020600060018152602001908152602001600020819055506001600b8190555081600c60006001815260200190815260200160002060006101000a81548173ffffffffffffffffffffffffffffffffffffffff021916908373ffffffffffffffffffffffffffffffffffffffff1602179055506001600d60008473ffffffffffffffffffffffffffffffffffffffff1673ffffffffffffffffffffffffffffffffffffffff1681526020019081526020016000208190555060016010600060018152602001908152602001600020819055506001601260008473ffffffffffffffffffffffffffffffffffffffff1673ffffffffffffffffffffffffffffffffffffffff16815260200190815260200160002060008081526020019081526020016000208190555060006013600060018152602001908152602001600020819055506001601481905550806001807fd32db21119d6bb7b885911e2ee1bab864d0c59dbaa980004bcba4cd5edd864ce60405160405180910390a46001807f5773658e7589a9cbf3c57537cba0844edd2646ba6485b545f559b81cedc4281360405160405180910390a360018273ffffffffffffffffffffffffffffffffffffffff16600073ffffffffffffffffffffffffffffffffffffffff167fddf252ad1be2c89b69c2b068fc378daa952ba7f163c4a11628f55a4df523b3ef60405160405180910390a4505050505050620007ef565b8280546200041790620006e6565b90600052602060002090601f0160209004810192826200043b576000855562000487565b82601f106200045657805160ff191683800117855562000487565b8280016001018555821562000487579182015b828111156200048657825182559160200191906001019062000469565b5b5090506200049691906200049a565b5090565b5b80821115620004b55760008160009055506001016200049b565b5090565b6000620004d0620004ca8462000646565b6200061d565b905082815260208101848484011115620004ef57620004ee620007b5565b5b620004fc848285620006b0565b509392505050565b6000815190506200051581620007d5565b92915050565b600082601f830112620005335762000532620007b0565b5b815162000545848260208601620004b9565b91505092915050565b600080600080608085870312156200056b576200056a620007bf565b5b600085015167ffffffffffffffff8111156200058c576200058b620007ba565b5b6200059a878288016200051b565b945050602085015167ffffffffffffffff811115620005be57620005bd620007ba565b5b620005cc878288016200051b565b9350506040620005df8782880162000504565b925050606085015167ffffffffffffffff811115620006035762000602620007ba565b5b62000611878288016200051b565b91505092959194509250565b6000620006296200063c565b90506200063782826200071c565b919050565b6000604051905090565b600067ffffffffffffffff82111562000664576200066362000781565b5b6200066f82620007c4565b9050602081019050919050565b6000620006898262000690565b9050919050565b600073ffffffffffffffffffffffffffffffffffffffff82169050919050565b60005b83811015620006d0578082015181840152602081019050620006b3565b83811115620006e0576000848401525b50505050565b60006002820490506001821680620006ff57607f821691505b6020821081141562000716576200071562000752565b5b50919050565b6200072782620007c4565b810181811067ffffffffffffffff8211171562000749576200074862000781565b5b80604052505050565b7f4e487b7100000000000000000000000000000000000000000000000000000000600052602260045260246000fd5b7f4e487b7100000000000000000000000000000000000000000000000000000000600052604160045260246000fd5b600080fd5b600080fd5b600080fd5b600080fd5b6000601f19601f8301169050919050565b620007e0816200067c565b8114620007ec57600080fd5b50565b615d0080620007ff6000396000f3fe608060405234801561001057600080fd5b506004361061018e5760003560e01c80636352211e116100de5780639e942ace11610097578063b88d4fde11610071578063b88d4fde14610505578063b8c7724a14610521578063c87b56dd1461053f578063e985e9c51461056f5761018e565b80639e942ace14610489578063a22cb465146104b9578063b4b44b41146104d55761018e565b80636352211e1461038f5780636b4c399a146103bf57806370a08231146103ef578063715c02c51461041f57806395d89b411461043b57806398b97790146104595761018e565b806320c5429b1161014b57806342842e0e1161012557806342842e0e146102e35780634f6ccce7146102ff5780635ccc561e1461032f57806362f969981461035f5761018e565b806320c5429b1461027b57806323b872dd146102975780632f745c59146102b35761018e565b806301ffc9a71461019357806306fdde03146101c3578063081812fc146101e1578063095ea7b3146102115780630ecd76331461022d57806318160ddd1461025d575b600080fd5b6101ad60048036038101906101a89190614761565b61059f565b6040516101ba9190614d17565b60405180910390f35b6101cb6107a9565b6040516101d89190614d32565b60405180910390f35b6101fb60048036038101906101f691906147bb565b61083b565b6040516102089190614cb0565b60405180910390f35b61022b600480360381019061022691906146f4565b61091a565b005b61024760048036038101906102429190614828565b610d99565b6040516102549190615074565b60405180910390f35b610265610e73565b6040516102729190615074565b60405180910390f35b610295600480360381019061029091906147bb565b610e7d565b005b6102b160048036038101906102ac9190614556565b611312565b005b6102cd60048036038101906102c891906146f4565b611fc9565b6040516102da9190615074565b60405180910390f35b6102fd60048036038101906102f89190614556565b612181565b005b610319600480360381019061031491906147bb565b6121a1565b6040516103269190615074565b60405180910390f35b610349600480360381019061034491906147bb565b6121fb565b6040516103569190614d17565b60405180910390f35b610379600480360381019061037491906147bb565b6122c7565b6040516103869190615074565b60405180910390f35b6103a960048036038101906103a491906147bb565b61233a565b6040516103b69190614cb0565b60405180910390f35b6103d960048036038101906103d491906147bb565b6124c4565b6040516103e69190615074565b60405180910390f35b610409600480360381019061040491906144bc565b612583565b6040516104169190615074565b60405180910390f35b610439600480360381019061043491906147e8565b6126e2565b005b610443612f3d565b6040516104509190614d32565b60405180910390f35b610473600480360381019061046e91906146f4565b612fcf565b6040516104809190614d17565b60405180910390f35b6104a3600480360381019061049e91906147bb565b613160565b6040516104b09190614cb0565b60405180910390f35b6104d360048036038101906104ce919061462c565b6132d8565b005b6104ef60048036038101906104ea919061466c565b61367b565b6040516104fc9190615074565b60405180910390f35b61051f600480360381019061051a91906145a9565b613def565b005b610529613e4b565b6040516105369190615074565b60405180910390f35b610559600480360381019061055491906147bb565b613e55565b6040516105669190614d32565b60405180910390f35b61058960048036038101906105849190614516565b613fb0565b6040516105969190614d17565b60405180910390f35b60007f01ffc9a7000000000000000000000000000000000000000000000000000000007bffffffffffffffffffffffffffffffffffffffffffffffffffffffff1916827bffffffffffffffffffffffffffffffffffffffffffffffffffffffff1916148061066a57507f80ac58cd000000000000000000000000000000000000000000000000000000007bffffffffffffffffffffffffffffffffffffffffffffffffffffffff1916827bffffffffffffffffffffffffffffffffffffffffffffffffffffffff1916145b806106d257507f780e9d63000000000000000000000000000000000000000000000000000000007bffffffffffffffffffffffffffffffffffffffffffffffffffffffff1916827bffffffffffffffffffffffffffffffffffffffffffffffffffffffff1916145b8061073a57507f5b5e139f000000000000000000000000000000000000000000000000000000007bffffffffffffffffffffffffffffffffffffffffffffffffffffffff1916827bffffffffffffffffffffffffffffffffffffffffffffffffffffffff1916145b806107a257507fb9920925000000000000000000000000000000000000000000000000000000007bffffffffffffffffffffffffffffffffffffffffffffffffffffffff1916827bffffffffffffffffffffffffffffffffffffffffffffffffffffffff1916145b9050919050565b6060600080546107b890615268565b80601f01602080910402602001604051908101604052809291908181526020018280546107e490615268565b80156108315780601f1061080657610100808354040283529160200191610831565b820191906000526020600020905b81548152906001019060200180831161081457829003601f168201915b5050505050905090565b60008073ffffffffffffffffffffffffffffffffffffffff16600c600084815260200190815260200160002060009054906101000a900473ffffffffffffffffffffffffffffffffffffffff1673ffffffffffffffffffffffffffffffffffffffff1614156108df576040517f08c379a00000000000000000000000000000000000000000000000000000000081526004016108d690615014565b60405180910390fd5b600e600083815260200190815260200160002060009054906101000a900473ffffffffffffffffffffffffffffffffffffffff169050919050565b6000600c600083815260200190815260200160002060009054906101000a900473ffffffffffffffffffffffffffffffffffffffff169050600073ffffffffffffffffffffffffffffffffffffffff168173ffffffffffffffffffffffffffffffffffffffff1614156109c2576040517f08c379a00000000000000000000000000000000000000000000000000000000081526004016109b990615014565b60405180910390fd5b8073ffffffffffffffffffffffffffffffffffffffff168373ffffffffffffffffffffffffffffffffffffffff161415610a31576040517f08c379a0000000000000000000000000000000000000000000000000000000008152600401610a2890614eb4565b60405180910390fd5b6000610a528273ffffffffffffffffffffffffffffffffffffffff1661411d565b15610a5f57819050610c67565b600260009054906101000a900473ffffffffffffffffffffffffffffffffffffffff1673ffffffffffffffffffffffffffffffffffffffff1663544d8564836040518263ffffffff1660e01b8152600401610aba9190614cb0565b60206040518083038186803b158015610ad257600080fd5b505afa158015610ae6573d6000803e3d6000fd5b505050506040513d601f19601f82011682018060405250810190610b0a91906144e9565b90508073ffffffffffffffffffffffffffffffffffffffff168473ffffffffffffffffffffffffffffffffffffffff161415610b7b576040517f08c379a0000000000000000000000000000000000000000000000000000000008152600401610b7290614eb4565b60405180910390fd5b600260009054906101000a900473ffffffffffffffffffffffffffffffffffffffff1673ffffffffffffffffffffffffffffffffffffffff16634a4fbeec836040518263ffffffff1660e01b8152600401610bd69190614cb0565b60206040518083038186803b158015610bee57600080fd5b505afa158015610c02573d6000803e3d6000fd5b505050506040513d601f19601f82011682018060405250810190610c269190614734565b15610c66576040517f08c379a0000000000000000000000000000000000000000000000000000000008152600401610c5d90614d54565b60405180910390fd5b5b8073ffffffffffffffffffffffffffffffffffffffff163373ffffffffffffffffffffffffffffffffffffffff161480610ca75750610ca68233613fb0565b5b610ce6576040517f08c379a0000000000000000000000000000000000000000000000000000000008152600401610cdd90614fb4565b60405180910390fd5b83600e600085815260200190815260200160002060006101000a81548173ffffffffffffffffffffffffffffffffffffffff021916908373ffffffffffffffffffffffffffffffffffffffff160217905550828473ffffffffffffffffffffffffffffffffffffffff168273ffffffffffffffffffffffffffffffffffffffff167f8c5be1e5ebec7d5bd14f71427d1e84f3dd0314c0f7b2291e5b200ac8c7c3b92560405160405180910390a450505050565b60008060096000858152602001908152602001600020541415610df1576040517f08c379a0000000000000000000000000000000000000000000000000000000008152600401610de890614d94565b60405180910390fd5b60036000848152602001908152602001600020548210610e46576040517f08c379a0000000000000000000000000000000000000000000000000000000008152600401610e3d90614e54565b60405180910390fd5b60046000848152602001908152602001600020600083815260200190815260200160002054905092915050565b6000601454905090565b600073ffffffffffffffffffffffffffffffffffffffff16600c600083815260200190815260200160002060009054906101000a900473ffffffffffffffffffffffffffffffffffffffff1673ffffffffffffffffffffffffffffffffffffffff161415610f20576040517f08c379a0000000000000000000000000000000000000000000000000000000008152600401610f1790614ed4565b60405180910390fd5b6000601060008381526020019081526020016000205490506005600082815260200190815260200160002060009054906101000a900460ff16610f98576040517f08c379a0000000000000000000000000000000000000000000000000000000008152600401610f8f90614dd4565b60405180910390fd5b6000600c60006009600085815260200190815260200160002054815260200190815260200160002060009054906101000a900473ffffffffffffffffffffffffffffffffffffffff16905060006110048273ffffffffffffffffffffffffffffffffffffffff1661411d565b15611011578190506111aa565b600260009054906101000a900473ffffffffffffffffffffffffffffffffffffffff1673ffffffffffffffffffffffffffffffffffffffff1663544d8564836040518263ffffffff1660e01b815260040161106c9190614cb0565b60206040518083038186803b15801561108457600080fd5b505afa158015611098573d6000803e3d6000fd5b505050506040513d601f19601f820116820180604052508101906110bc91906144e9565b9050600260009054906101000a900473ffffffffffffffffffffffffffffffffffffffff1673ffffffffffffffffffffffffffffffffffffffff16634a4fbeec836040518263ffffffff1660e01b81526004016111199190614cb0565b60206040518083038186803b15801561113157600080fd5b505afa158015611145573d6000803e3d6000fd5b505050506040513d601f19601f820116820180604052508101906111699190614734565b156111a9576040517f08c379a00000000000000000000000000000000000000000000000000000000081526004016111a090614fd4565b60405180910390fd5b5b8073ffffffffffffffffffffffffffffffffffffffff163373ffffffffffffffffffffffffffffffffffffffff1614611218576040517f08c379a000000000000000000000000000000000000000000000000000000000815260040161120f90614f54565b60405180910390fd5b6001600f600086815260200190815260200160002060006101000a81548160ff0219169083151502179055506001600a6000600c600088815260200190815260200160002060009054906101000a900473ffffffffffffffffffffffffffffffffffffffff1673ffffffffffffffffffffffffffffffffffffffff1673ffffffffffffffffffffffffffffffffffffffff168152602001908152602001600020600085815260200190815260200160002060008282546112d8919061517e565b92505081905550837fdb43aa42235c8d63908794a952603e8d43a549383d13123c3d893a3fc2e6249560405160405180910390a250505050565b600073ffffffffffffffffffffffffffffffffffffffff16600c600083815260200190815260200160002060009054906101000a900473ffffffffffffffffffffffffffffffffffffffff1673ffffffffffffffffffffffffffffffffffffffff1614156113b5576040517f08c379a00000000000000000000000000000000000000000000000000000000081526004016113ac90615014565b60405180910390fd5b6000601060008381526020019081526020016000205490506006600082815260200190815260200160002060009054906101000a900460ff1661142d576040517f08c379a000000000000000000000000000000000000000000000000000000000815260040161142490614f74565b60405180910390fd5b600f600083815260200190815260200160002060009054906101000a900460ff161561148e576040517f08c379a000000000000000000000000000000000000000000000000000000000815260040161148590614d74565b60405180910390fd5b600073ffffffffffffffffffffffffffffffffffffffff168373ffffffffffffffffffffffffffffffffffffffff1614156114fe576040517f08c379a00000000000000000000000000000000000000000000000000000000081526004016114f590614df4565b60405180910390fd5b600061151f8573ffffffffffffffffffffffffffffffffffffffff1661411d565b1561152c578490506116c5565b600260009054906101000a900473ffffffffffffffffffffffffffffffffffffffff1673ffffffffffffffffffffffffffffffffffffffff16632fea7b81866040518263ffffffff1660e01b81526004016115879190614cb0565b60206040518083038186803b15801561159f57600080fd5b505afa1580156115b3573d6000803e3d6000fd5b505050506040513d601f19601f820116820180604052508101906115d791906144e9565b9050600260009054906101000a900473ffffffffffffffffffffffffffffffffffffffff1673ffffffffffffffffffffffffffffffffffffffff16634a4fbeec826040518263ffffffff1660e01b81526004016116349190614cb0565b60206040518083038186803b15801561164c57600080fd5b505afa158015611660573d6000803e3d6000fd5b505050506040513d601f19601f820116820180604052508101906116849190614734565b156116c4576040517f08c379a00000000000000000000000000000000000000000000000000000000081526004016116bb90614d54565b60405180910390fd5b5b8073ffffffffffffffffffffffffffffffffffffffff16600c600085815260200190815260200160002060009054906101000a900473ffffffffffffffffffffffffffffffffffffffff1673ffffffffffffffffffffffffffffffffffffffff1614611766576040517f08c379a000000000000000000000000000000000000000000000000000000000815260040161175d90614f34565b60405180910390fd5b8073ffffffffffffffffffffffffffffffffffffffff163373ffffffffffffffffffffffffffffffffffffffff1614806117fe5750600e600084815260200190815260200160002060009054906101000a900473ffffffffffffffffffffffffffffffffffffffff1673ffffffffffffffffffffffffffffffffffffffff163373ffffffffffffffffffffffffffffffffffffffff16145b8061188f5750601160008273ffffffffffffffffffffffffffffffffffffffff1673ffffffffffffffffffffffffffffffffffffffff16815260200190815260200160002060003373ffffffffffffffffffffffffffffffffffffffff1673ffffffffffffffffffffffffffffffffffffffff16815260200190815260200160002060009054906101000a900460ff165b6118ce576040517f08c379a00000000000000000000000000000000000000000000000000000000081526004016118c590614e14565b60405180910390fd5b60006118ef8573ffffffffffffffffffffffffffffffffffffffff1661411d565b156118fc57849050611a95565b600260009054906101000a900473ffffffffffffffffffffffffffffffffffffffff1673ffffffffffffffffffffffffffffffffffffffff16632fea7b81866040518263ffffffff1660e01b81526004016119579190614cb0565b60206040518083038186803b15801561196f57600080fd5b505afa158015611983573d6000803e3d6000fd5b505050506040513d601f19601f820116820180604052508101906119a791906144e9565b9050600260009054906101000a900473ffffffffffffffffffffffffffffffffffffffff1673ffffffffffffffffffffffffffffffffffffffff16634a4fbeec826040518263ffffffff1660e01b8152600401611a049190614cb0565b60206040518083038186803b158015611a1c57600080fd5b505afa158015611a30573d6000803e3d6000fd5b505050506040513d601f19601f82011682018060405250810190611a549190614734565b15611a94576040517f08c379a0000000000000000000000000000000000000000000000000000000008152600401611a8b90614e74565b60405180910390fd5b5b60006001600d60008573ffffffffffffffffffffffffffffffffffffffff1673ffffffffffffffffffffffffffffffffffffffff16815260200190815260200160002054611ae3919061517e565b9050600060136000878152602001908152602001600020549050818114611bc8576000601260008673ffffffffffffffffffffffffffffffffffffffff1673ffffffffffffffffffffffffffffffffffffffff168152602001908152602001600020600084815260200190815260200160002054905080601260008773ffffffffffffffffffffffffffffffffffffffff1673ffffffffffffffffffffffffffffffffffffffff168152602001908152602001600020600084815260200190815260200160002081905550816013600083815260200190815260200160002081905550505b601260008573ffffffffffffffffffffffffffffffffffffffff1673ffffffffffffffffffffffffffffffffffffffff16815260200190815260200160002060008381526020019081526020016000206000905560136000878152602001908152602001600020600090556001600a60008673ffffffffffffffffffffffffffffffffffffffff1673ffffffffffffffffffffffffffffffffffffffff16815260200190815260200160002060008781526020019081526020016000206000828254611c94919061517e565b925050819055506000600d60008573ffffffffffffffffffffffffffffffffffffffff1673ffffffffffffffffffffffffffffffffffffffff16815260200190815260200160002054905086601260008673ffffffffffffffffffffffffffffffffffffffff1673ffffffffffffffffffffffffffffffffffffffff1681526020019081526020016000206000838152602001908152602001600020819055508060136000898152602001908152602001600020819055506000600e600089815260200190815260200160002060006101000a81548173ffffffffffffffffffffffffffffffffffffffff021916908373ffffffffffffffffffffffffffffffffffffffff16021790555086600073ffffffffffffffffffffffffffffffffffffffff168a73ffffffffffffffffffffffffffffffffffffffff167f8c5be1e5ebec7d5bd14f71427d1e84f3dd0314c0f7b2291e5b200ac8c7c3b92560405160405180910390a46001600d60008773ffffffffffffffffffffffffffffffffffffffff1673ffffffffffffffffffffffffffffffffffffffff1681526020019081526020016000206000828254611e4b919061517e565b925050819055506001600d60008673ffffffffffffffffffffffffffffffffffffffff1673ffffffffffffffffffffffffffffffffffffffff1681526020019081526020016000206000828254611ea29190615128565b9250508190555083600c600089815260200190815260200160002060006101000a81548173ffffffffffffffffffffffffffffffffffffffff021916908373ffffffffffffffffffffffffffffffffffffffff1602179055506001600a60008673ffffffffffffffffffffffffffffffffffffffff1673ffffffffffffffffffffffffffffffffffffffff16815260200190815260200160002060008881526020019081526020016000206000828254611f5c9190615128565b92505081905550868873ffffffffffffffffffffffffffffffffffffffff168a73ffffffffffffffffffffffffffffffffffffffff167fddf252ad1be2c89b69c2b068fc378daa952ba7f163c4a11628f55a4df523b3ef60405160405180910390a4505050505050505050565b600080611feb8473ffffffffffffffffffffffffffffffffffffffff1661411d565b15611ff8578390506120a6565b600260009054906101000a900473ffffffffffffffffffffffffffffffffffffffff1673ffffffffffffffffffffffffffffffffffffffff16632fea7b81856040518263ffffffff1660e01b81526004016120539190614cb0565b60206040518083038186803b15801561206b57600080fd5b505afa15801561207f573d6000803e3d6000fd5b505050506040513d601f19601f820116820180604052508101906120a391906144e9565b90505b600d60008273ffffffffffffffffffffffffffffffffffffffff1673ffffffffffffffffffffffffffffffffffffffff168152602001908152602001600020548310612127576040517f08c379a000000000000000000000000000000000000000000000000000000000815260040161211e90614e54565b60405180910390fd5b601260008273ffffffffffffffffffffffffffffffffffffffff1673ffffffffffffffffffffffffffffffffffffffff16815260200190815260200160002060008481526020019081526020016000205491505092915050565b61219c83838360405180602001604052806000815250613def565b505050565b600060145482106121e7576040517f08c379a00000000000000000000000000000000000000000000000000000000081526004016121de90614e94565b60405180910390fd5b6001826121f49190615128565b9050919050565b60008073ffffffffffffffffffffffffffffffffffffffff16600c600084815260200190815260200160002060009054906101000a900473ffffffffffffffffffffffffffffffffffffffff1673ffffffffffffffffffffffffffffffffffffffff16141561229f576040517f08c379a000000000000000000000000000000000000000000000000000000000815260040161229690615014565b60405180910390fd5b600f600083815260200190815260200160002060009054906101000a900460ff169050919050565b6000806009600084815260200190815260200160002054141561231f576040517f08c379a000000000000000000000000000000000000000000000000000000000815260040161231690614d94565b60405180910390fd5b60036000838152602001908152602001600020549050919050565b600080600c600084815260200190815260200160002060009054906101000a900473ffffffffffffffffffffffffffffffffffffffff169050600073ffffffffffffffffffffffffffffffffffffffff168173ffffffffffffffffffffffffffffffffffffffff1614156123e3576040517f08c379a00000000000000000000000000000000000000000000000000000000081526004016123da90615014565b60405180910390fd5b6124028173ffffffffffffffffffffffffffffffffffffffff1661411d565b1561241057809150506124bf565b600260009054906101000a900473ffffffffffffffffffffffffffffffffffffffff1673ffffffffffffffffffffffffffffffffffffffff1663544d8564826040518263ffffffff1660e01b815260040161246b9190614cb0565b60206040518083038186803b15801561248357600080fd5b505afa158015612497573d6000803e3d6000fd5b505050506040513d601f19601f820116820180604052508101906124bb91906144e9565b9150505b919050565b60008073ffffffffffffffffffffffffffffffffffffffff16600c600084815260200190815260200160002060009054906101000a900473ffffffffffffffffffffffffffffffffffffffff1673ffffffffffffffffffffffffffffffffffffffff161415612568576040517f08c379a000000000000000000000000000000000000000000000000000000000815260040161255f90615014565b60405180910390fd5b60106000838152602001908152602001600020549050919050565b60006125a48273ffffffffffffffffffffffffffffffffffffffff1661411d565b156125f057600d60008373ffffffffffffffffffffffffffffffffffffffff1673ffffffffffffffffffffffffffffffffffffffff1681526020019081526020016000205490506126dd565b600d6000600260009054906101000a900473ffffffffffffffffffffffffffffffffffffffff1673ffffffffffffffffffffffffffffffffffffffff16632fea7b81856040518263ffffffff1660e01b815260040161264f9190614cb0565b60206040518083038186803b15801561266757600080fd5b505afa15801561267b573d6000803e3d6000fd5b505050506040513d601f19601f8201168201806040525081019061269f91906144e9565b73ffffffffffffffffffffffffffffffffffffffff1673ffffffffffffffffffffffffffffffffffffffff1681526020019081526020016000205490505b919050565b7fffffffffffffffffffffffffffffffffffffffffffffffffffffffffffffffff6014541415612747576040517f08c379a000000000000000000000000000000000000000000000000000000000815260040161273e90615054565b60405180910390fd5b60006009600084815260200190815260200160002054141561279e576040517f08c379a000000000000000000000000000000000000000000000000000000000815260040161279590614d94565b60405180910390fd5b60006127bf3373ffffffffffffffffffffffffffffffffffffffff1661411d565b156127cc57339050612965565b600260009054906101000a900473ffffffffffffffffffffffffffffffffffffffff1673ffffffffffffffffffffffffffffffffffffffff16632fea7b81336040518263ffffffff1660e01b81526004016128279190614cb0565b60206040518083038186803b15801561283f57600080fd5b505afa158015612853573d6000803e3d6000fd5b505050506040513d601f19601f8201168201806040525081019061287791906144e9565b9050600260009054906101000a900473ffffffffffffffffffffffffffffffffffffffff1673ffffffffffffffffffffffffffffffffffffffff16634a4fbeec826040518263ffffffff1660e01b81526004016128d49190614cb0565b60206040518083038186803b1580156128ec57600080fd5b505afa158015612900573d6000803e3d6000fd5b505050506040513d601f19601f820116820180604052508101906129249190614734565b15612964576040517f08c379a000000000000000000000000000000000000000000000000000000000815260040161295b90615034565b60405180910390fd5b5b600c60006009600086815260200190815260200160002054815260200190815260200160002060009054906101000a900473ffffffffffffffffffffffffffffffffffffffff1673ffffffffffffffffffffffffffffffffffffffff168173ffffffffffffffffffffffffffffffffffffffff1614612a19576040517f08c379a0000000000000000000000000000000000000000000000000000000008152600401612a1090614db4565b60405180910390fd5b6000612a3a8373ffffffffffffffffffffffffffffffffffffffff1661411d565b15612a4757829050612be0565b600260009054906101000a900473ffffffffffffffffffffffffffffffffffffffff1673ffffffffffffffffffffffffffffffffffffffff16632fea7b81846040518263ffffffff1660e01b8152600401612aa29190614cb0565b60206040518083038186803b158015612aba57600080fd5b505afa158015612ace573d6000803e3d6000fd5b505050506040513d601f19601f82011682018060405250810190612af291906144e9565b9050600260009054906101000a900473ffffffffffffffffffffffffffffffffffffffff1673ffffffffffffffffffffffffffffffffffffffff16634a4fbeec836040518263ffffffff1660e01b8152600401612b4f9190614cb0565b60206040518083038186803b158015612b6757600080fd5b505afa158015612b7b573d6000803e3d6000fd5b505050506040513d601f19601f82011682018060405250810190612b9f9190614734565b15612bdf576040517f08c379a0000000000000000000000000000000000000000000000000000000008152600401612bd690615034565b60405180910390fd5b5b600160146000828254612bf39190615128565b9250508190555080600c6000601454815260200190815260200160002060006101000a81548173ffffffffffffffffffffffffffffffffffffffff021916908373ffffffffffffffffffffffffffffffffffffffff1602179055508360106000601454815260200190815260200160002081905550600060036000868152602001908152602001600020549050601454600460008781526020019081526020016000206000838152602001908152602001600020819055506001600360008781526020019081526020016000206000828254612ccf9190615128565b925050819055506001600a60008473ffffffffffffffffffffffffffffffffffffffff1673ffffffffffffffffffffffffffffffffffffffff16815260200190815260200160002060008781526020019081526020016000206000828254612d379190615128565b925050819055506000600d60008473ffffffffffffffffffffffffffffffffffffffff1673ffffffffffffffffffffffffffffffffffffffff168152602001908152602001600020549050601454601260008573ffffffffffffffffffffffffffffffffffffffff1673ffffffffffffffffffffffffffffffffffffffff16815260200190815260200160002060008381526020019081526020016000208190555080601360006014548152602001908152602001600020819055506001600d60008573ffffffffffffffffffffffffffffffffffffffff1673ffffffffffffffffffffffffffffffffffffffff1681526020019081526020016000206000828254612e439190615128565b92505081905550612e6860008460145460405180602001604052806000815250614130565b612ea7576040517f08c379a0000000000000000000000000000000000000000000000000000000008152600401612e9e90614ef4565b60405180910390fd5b601454867f5773658e7589a9cbf3c57537cba0844edd2646ba6485b545f559b81cedc4281360405160405180910390a36014548573ffffffffffffffffffffffffffffffffffffffff16600073ffffffffffffffffffffffffffffffffffffffff167fddf252ad1be2c89b69c2b068fc378daa952ba7f163c4a11628f55a4df523b3ef60405160405180910390a4505050505050565b606060018054612f4c90615268565b80601f0160208091040260200160405190810160405280929190818152602001828054612f7890615268565b8015612fc55780601f10612f9a57610100808354040283529160200191612fc5565b820191906000526020600020905b815481529060010190602001808311612fa857829003601f168201915b5050505050905090565b60008060096000848152602001908152602001600020541415613027576040517f08c379a000000000000000000000000000000000000000000000000000000000815260040161301e90614d94565b60405180910390fd5b60006130488173ffffffffffffffffffffffffffffffffffffffff1661411d565b1561305557839050613103565b600260009054906101000a900473ffffffffffffffffffffffffffffffffffffffff1673ffffffffffffffffffffffffffffffffffffffff16632fea7b81856040518263ffffffff1660e01b81526004016130b09190614cb0565b60206040518083038186803b1580156130c857600080fd5b505afa1580156130dc573d6000803e3d6000fd5b505050506040513d601f19601f8201168201806040525081019061310091906144e9565b90505b6000600a60008373ffffffffffffffffffffffffffffffffffffffff1673ffffffffffffffffffffffffffffffffffffffff1681526020019081526020016000206000858152602001908152602001600020541191505092915050565b6000806009600084815260200190815260200160002054905060008114156131bd576040517f08c379a00000000000000000000000000000000000000000000000000000000081526004016131b490614d94565b60405180910390fd5b6000600c600083815260200190815260200160002060009054906101000a900473ffffffffffffffffffffffffffffffffffffffff1690506132148173ffffffffffffffffffffffffffffffffffffffff1661411d565b156132235780925050506132d3565b600260009054906101000a900473ffffffffffffffffffffffffffffffffffffffff1673ffffffffffffffffffffffffffffffffffffffff1663544d8564826040518263ffffffff1660e01b815260040161327e9190614cb0565b60206040518083038186803b15801561329657600080fd5b505afa1580156132aa573d6000803e3d6000fd5b505050506040513d601f19601f820116820180604052508101906132ce91906144e9565b925050505b919050565b60003373ffffffffffffffffffffffffffffffffffffffff168373ffffffffffffffffffffffffffffffffffffffff161415613349576040517f08c379a000000000000000000000000000000000000000000000000000000000815260040161334090614ff4565b60405180910390fd5b6133683373ffffffffffffffffffffffffffffffffffffffff1661411d565b156133755733905061357d565b600260009054906101000a900473ffffffffffffffffffffffffffffffffffffffff1673ffffffffffffffffffffffffffffffffffffffff16632fea7b81336040518263ffffffff1660e01b81526004016133d09190614cb0565b60206040518083038186803b1580156133e857600080fd5b505afa1580156133fc573d6000803e3d6000fd5b505050506040513d601f19601f8201168201806040525081019061342091906144e9565b90508073ffffffffffffffffffffffffffffffffffffffff168373ffffffffffffffffffffffffffffffffffffffff161415613491576040517f08c379a000000000000000000000000000000000000000000000000000000000815260040161348890614ff4565b60405180910390fd5b600260009054906101000a900473ffffffffffffffffffffffffffffffffffffffff1673ffffffffffffffffffffffffffffffffffffffff16634a4fbeec826040518263ffffffff1660e01b81526004016134ec9190614cb0565b60206040518083038186803b15801561350457600080fd5b505afa158015613518573d6000803e3d6000fd5b505050506040513d601f19601f8201168201806040525081019061353c9190614734565b1561357c576040517f08c379a000000000000000000000000000000000000000000000000000000000815260040161357390614d54565b60405180910390fd5b5b81601160008373ffffffffffffffffffffffffffffffffffffffff1673ffffffffffffffffffffffffffffffffffffffff16815260200190815260200160002060008573ffffffffffffffffffffffffffffffffffffffff1673ffffffffffffffffffffffffffffffffffffffff16815260200190815260200160002060006101000a81548160ff0219169083151502179055508273ffffffffffffffffffffffffffffffffffffffff168173ffffffffffffffffffffffffffffffffffffffff167f17307eab39ab6107e8899845ad3d59bd9653f200f220920489ca2b5937696c318460405161366e9190614d17565b60405180910390a3505050565b60007fffffffffffffffffffffffffffffffffffffffffffffffffffffffffffffffff600b5414156136e2576040517f08c379a00000000000000000000000000000000000000000000000000000000081526004016136d990614f14565b60405180910390fd5b7fffffffffffffffffffffffffffffffffffffffffffffffffffffffffffffffff6014541415613747576040517f08c379a000000000000000000000000000000000000000000000000000000000815260040161373e90614e34565b60405180910390fd5b60008383604051613759929190614c97565b6040518091039020905060006008600083815260200190815260200160002054146137b9576040517f08c379a00000000000000000000000000000000000000000000000000000000081526004016137b090614f94565b60405180910390fd5b60006137da8873ffffffffffffffffffffffffffffffffffffffff1661411d565b156137e757879050613980565b600260009054906101000a900473ffffffffffffffffffffffffffffffffffffffff1673ffffffffffffffffffffffffffffffffffffffff16632fea7b81896040518263ffffffff1660e01b81526004016138429190614cb0565b60206040518083038186803b15801561385a57600080fd5b505afa15801561386e573d6000803e3d6000fd5b505050506040513d601f19601f8201168201806040525081019061389291906144e9565b9050600260009054906101000a900473ffffffffffffffffffffffffffffffffffffffff1673ffffffffffffffffffffffffffffffffffffffff16634a4fbeec826040518263ffffffff1660e01b81526004016138ef9190614cb0565b60206040518083038186803b15801561390757600080fd5b505afa15801561391b573d6000803e3d6000fd5b505050506040513d601f19601f8201168201806040525081019061393f9190614734565b1561397f576040517f08c379a000000000000000000000000000000000000000000000000000000000815260040161397690615034565b60405180910390fd5b5b6001601460008282546139939190615128565b9250508190555080600c6000601454815260200190815260200160002060006101000a81548173ffffffffffffffffffffffffffffffffffffffff021916908373ffffffffffffffffffffffffffffffffffffffff160217905550600160106000601454815260200190815260200160002081905550600060036000600181526020019081526020016000205490506014546004600060018152602001908152602001600020600083815260200190815260200160002081905550600160036000600181526020019081526020016000206000828254613a739190615128565b925050819055506001600a60008473ffffffffffffffffffffffffffffffffffffffff1673ffffffffffffffffffffffffffffffffffffffff1681526020019081526020016000206000600181526020019081526020016000206000828254613adc9190615128565b925050819055506000600d60008473ffffffffffffffffffffffffffffffffffffffff1673ffffffffffffffffffffffffffffffffffffffff168152602001908152602001600020549050601454601260008573ffffffffffffffffffffffffffffffffffffffff1673ffffffffffffffffffffffffffffffffffffffff16815260200190815260200160002060008381526020019081526020016000208190555080601360006014548152602001908152602001600020819055506001600d60008573ffffffffffffffffffffffffffffffffffffffff1673ffffffffffffffffffffffffffffffffffffffff1681526020019081526020016000206000828254613be89190615128565b925050819055506001600b6000828254613c029190615128565b9250508190555060145460096000600b54815260200190815260200160002081905550868660076000600b5481526020019081526020016000209190613c499291906142c0565b50600b5460086000868152602001908152602001600020819055508860066000600b54815260200190815260200160002060006101000a81548160ff0219169083151502179055508760056000600b54815260200190815260200160002060006101000a81548160ff021916908315150217905550613cdc60008460145460405180602001604052806000815250614130565b613d1b576040517f08c379a0000000000000000000000000000000000000000000000000000000008152600401613d1290614ef4565b60405180910390fd5b60145460017f5773658e7589a9cbf3c57537cba0844edd2646ba6485b545f559b81cedc4281360405160405180910390a36014548a73ffffffffffffffffffffffffffffffffffffffff16600073ffffffffffffffffffffffffffffffffffffffff167fddf252ad1be2c89b69c2b068fc378daa952ba7f163c4a11628f55a4df523b3ef60405160405180910390a483601454600b547fd32db21119d6bb7b885911e2ee1bab864d0c59dbaa980004bcba4cd5edd864ce60405160405180910390a4600b5494505050505095945050505050565b613dfa848484611312565b613e0684848484614130565b613e45576040517f08c379a0000000000000000000000000000000000000000000000000000000008152600401613e3c90614ef4565b60405180910390fd5b50505050565b6000600b54905090565b6060600073ffffffffffffffffffffffffffffffffffffffff16600c600084815260200190815260200160002060009054906101000a900473ffffffffffffffffffffffffffffffffffffffff1673ffffffffffffffffffffffffffffffffffffffff161415613efa576040517f08c379a0000000000000000000000000000000000000000000000000000000008152600401613ef190615014565b60405180910390fd5b60076000601060008581526020019081526020016000205481526020019081526020016000208054613f2b90615268565b80601f0160208091040260200160405190810160405280929190818152602001828054613f5790615268565b8015613fa45780601f10613f7957610100808354040283529160200191613fa4565b820191906000526020600020905b815481529060010190602001808311613f8757829003601f168201915b50505050509050919050565b600080613fd28473ffffffffffffffffffffffffffffffffffffffff1661411d565b61408657600260009054906101000a900473ffffffffffffffffffffffffffffffffffffffff1673ffffffffffffffffffffffffffffffffffffffff16632fea7b81336040518263ffffffff1660e01b81526004016140319190614cb0565b60206040518083038186803b15801561404957600080fd5b505afa15801561405d573d6000803e3d6000fd5b505050506040513d601f19601f8201168201806040525081019061408191906144e9565b614088565b835b9050601160008273ffffffffffffffffffffffffffffffffffffffff1673ffffffffffffffffffffffffffffffffffffffff16815260200190815260200160002060008473ffffffffffffffffffffffffffffffffffffffff1673ffffffffffffffffffffffffffffffffffffffff16815260200190815260200160002060009054906101000a900460ff1691505092915050565b600080823b905060008111915050919050565b60006141518473ffffffffffffffffffffffffffffffffffffffff1661411d565b156142b3578373ffffffffffffffffffffffffffffffffffffffff1663150b7a02338786866040518563ffffffff1660e01b81526004016141959493929190614ccb565b602060405180830381600087803b1580156141af57600080fd5b505af19250505080156141e057506040513d601f19601f820116820180604052508101906141dd919061478e565b60015b614263573d8060008114614210576040519150601f19603f3d011682016040523d82523d6000602084013e614215565b606091505b5060008151141561425b576040517f08c379a000000000000000000000000000000000000000000000000000000000815260040161425290614ef4565b60405180910390fd5b805181602001fd5b63150b7a0260e01b7bffffffffffffffffffffffffffffffffffffffffffffffffffffffff1916817bffffffffffffffffffffffffffffffffffffffffffffffffffffffff1916149150506142b8565b600190505b949350505050565b8280546142cc90615268565b90600052602060002090601f0160209004810192826142ee5760008555614335565b82601f1061430757803560ff1916838001178555614335565b82800160010185558215614335579182015b82811115614334578235825591602001919060010190614319565b5b5090506143429190614346565b5090565b5b8082111561435f576000816000905550600101614347565b5090565b6000614376614371846150b4565b61508f565b90508281526020810184848401111561439257614391615367565b5b61439d848285615226565b509392505050565b6000813590506143b481615c6e565b92915050565b6000815190506143c981615c6e565b92915050565b6000813590506143de81615c85565b92915050565b6000815190506143f381615c85565b92915050565b60008135905061440881615c9c565b92915050565b60008151905061441d81615c9c565b92915050565b600082601f8301126144385761443761535d565b5b8135614448848260208601614363565b91505092915050565b60008083601f8401126144675761446661535d565b5b8235905067ffffffffffffffff81111561448457614483615358565b5b6020830191508360018202830111156144a05761449f615362565b5b9250929050565b6000813590506144b681615cb3565b92915050565b6000602082840312156144d2576144d1615371565b5b60006144e0848285016143a5565b91505092915050565b6000602082840312156144ff576144fe615371565b5b600061450d848285016143ba565b91505092915050565b6000806040838503121561452d5761452c615371565b5b600061453b858286016143a5565b925050602061454c858286016143a5565b9150509250929050565b60008060006060848603121561456f5761456e615371565b5b600061457d868287016143a5565b935050602061458e868287016143a5565b925050604061459f868287016144a7565b9150509250925092565b600080600080608085870312156145c3576145c2615371565b5b60006145d1878288016143a5565b94505060206145e2878288016143a5565b93505060406145f3878288016144a7565b925050606085013567ffffffffffffffff8111156146145761461361536c565b5b61462087828801614423565b91505092959194509250565b6000806040838503121561464357614642615371565b5b6000614651858286016143a5565b9250506020614662858286016143cf565b9150509250929050565b60008060008060006080868803121561468857614687615371565b5b6000614696888289016143a5565b95505060206146a7888289016143cf565b94505060406146b8888289016143cf565b935050606086013567ffffffffffffffff8111156146d9576146d861536c565b5b6146e588828901614451565b92509250509295509295909350565b6000806040838503121561470b5761470a615371565b5b6000614719858286016143a5565b925050602061472a858286016144a7565b9150509250929050565b60006020828403121561474a57614749615371565b5b6000614758848285016143e4565b91505092915050565b60006020828403121561477757614776615371565b5b6000614785848285016143f9565b91505092915050565b6000602082840312156147a4576147a3615371565b5b60006147b28482850161440e565b91505092915050565b6000602082840312156147d1576147d0615371565b5b60006147df848285016144a7565b91505092915050565b600080604083850312156147ff576147fe615371565b5b600061480d858286016144a7565b925050602061481e858286016143a5565b9150509250929050565b6000806040838503121561483f5761483e615371565b5b600061484d858286016144a7565b925050602061485e858286016144a7565b9150509250929050565b614871816151b2565b82525050565b614880816151c4565b82525050565b6000614892838561510c565b935061489f838584615226565b82840190509392505050565b60006148b6826150e5565b6148c081856150fb565b93506148d0818560208601615235565b6148d981615376565b840191505092915050565b60006148ef826150f0565b6148f98185615117565b9350614909818560208601615235565b61491281615376565b840191505092915050565b600061492a602c83615117565b915061493582615387565b604082019050919050565b600061494d602a83615117565b9150614958826153d6565b604082019050919050565b6000614970603e83615117565b915061497b82615425565b604082019050919050565b6000614993604483615117565b915061499e82615474565b606082019050919050565b60006149b6603383615117565b91506149c1826154e9565b604082019050919050565b60006149d9603c83615117565b91506149e482615538565b604082019050919050565b60006149fc604283615117565b9150614a0782615587565b606082019050919050565b6000614a1f603683615117565b9150614a2a826155fc565b604082019050919050565b6000614a42604a83615117565b9150614a4d8261564b565b606082019050919050565b6000614a65603083615117565b9150614a70826156c0565b604082019050919050565b6000614a88603283615117565b9150614a938261570f565b604082019050919050565b6000614aab604283615117565b9150614ab68261575e565b606082019050919050565b6000614ace603c83615117565b9150614ad9826157d3565b604082019050919050565b6000614af1606383615117565b9150614afc82615822565b608082019050919050565b6000614b14603783615117565b9150614b1f826158bd565b604082019050919050565b6000614b37606383615117565b9150614b428261590c565b608082019050919050565b6000614b5a603f83615117565b9150614b65826159a7565b604082019050919050565b6000614b7d602d83615117565b9150614b88826159f6565b604082019050919050565b6000614ba0603c83615117565b9150614bab82615a45565b604082019050919050565b6000614bc3604083615117565b9150614bce82615a94565b604082019050919050565b6000614be6602d83615117565b9150614bf182615ae3565b604082019050919050565b6000614c09602c83615117565b9150614c1482615b32565b604082019050919050565b6000614c2c603c83615117565b9150614c3782615b81565b604082019050919050565b6000614c4f602d83615117565b9150614c5a82615bd0565b604082019050919050565b6000614c72603683615117565b9150614c7d82615c1f565b604082019050919050565b614c918161521c565b82525050565b6000614ca4828486614886565b91508190509392505050565b6000602082019050614cc56000830184614868565b92915050565b6000608082019050614ce06000830187614868565b614ced6020830186614868565b614cfa6040830185614c88565b8181036060830152614d0c81846148ab565b905095945050505050565b6000602082019050614d2c6000830184614877565b92915050565b60006020820190508181036000830152614d4c81846148e4565b905092915050565b60006020820190508181036000830152614d6d8161491d565b9050919050565b60006020820190508181036000830152614d8d81614940565b9050919050565b60006020820190508181036000830152614dad81614963565b9050919050565b60006020820190508181036000830152614dcd81614986565b9050919050565b60006020820190508181036000830152614ded816149a9565b9050919050565b60006020820190508181036000830152614e0d816149cc565b9050919050565b60006020820190508181036000830152614e2d816149ef565b9050919050565b60006020820190508181036000830152614e4d81614a12565b9050919050565b60006020820190508181036000830152614e6d81614a35565b9050919050565b60006020820190508181036000830152614e8d81614a58565b9050919050565b60006020820190508181036000830152614ead81614a7b565b9050919050565b60006020820190508181036000830152614ecd81614a9e565b9050919050565b60006020820190508181036000830152614eed81614ac1565b9050919050565b60006020820190508181036000830152614f0d81614ae4565b9050919050565b60006020820190508181036000830152614f2d81614b07565b9050919050565b60006020820190508181036000830152614f4d81614b2a565b9050919050565b60006020820190508181036000830152614f6d81614b4d565b9050919050565b60006020820190508181036000830152614f8d81614b70565b9050919050565b60006020820190508181036000830152614fad81614b93565b9050919050565b60006020820190508181036000830152614fcd81614bb6565b9050919050565b60006020820190508181036000830152614fed81614bd9565b9050919050565b6000602082019050818103600083015261500d81614bfc565b9050919050565b6000602082019050818103600083015261502d81614c1f565b9050919050565b6000602082019050818103600083015261504d81614c42565b9050919050565b6000602082019050818103600083015261506d81614c65565b9050919050565b60006020820190506150896000830184614c88565b92915050565b60006150996150aa565b90506150a5828261529a565b919050565b6000604051905090565b600067ffffffffffffffff8211156150cf576150ce615329565b5b6150d882615376565b9050602081019050919050565b600081519050919050565b600081519050919050565b600082825260208201905092915050565b600081905092915050565b600082825260208201905092915050565b60006151338261521c565b915061513e8361521c565b9250827fffffffffffffffffffffffffffffffffffffffffffffffffffffffffffffffff03821115615173576151726152cb565b5b828201905092915050565b60006151898261521c565b91506151948361521c565b9250828210156151a7576151a66152cb565b5b828203905092915050565b60006151bd826151fc565b9050919050565b60008115159050919050565b60007fffffffff0000000000000000000000000000000000000000000000000000000082169050919050565b600073ffffffffffffffffffffffffffffffffffffffff82169050919050565b6000819050919050565b82818337600083830152505050565b60005b83811015615253578082015181840152602081019050615238565b83811115615262576000848401525b50505050565b6000600282049050600182168061528057607f821691505b60208210811415615294576152936152fa565b5b50919050565b6152a382615376565b810181811067ffffffffffffffff821117156152c2576152c1615329565b5b80604052505050565b7f4e487b7100000000000000000000000000000000000000000000000000000000600052601160045260246000fd5b7f4e487b7100000000000000000000000000000000000000000000000000000000600052602260045260246000fd5b7f4e487b7100000000000000000000000000000000000000000000000000000000600052604160045260246000fd5b600080fd5b600080fd5b600080fd5b600080fd5b600080fd5b600080fd5b6000601f19601f8301169050919050565b7f5369676e61746152696768743a20546865206f776e65722773206163636f756e60008201527f74206973206c6f636b65642e0000000000000000000000000000000000000000602082015250565b7f5369676e61746152696768743a2054686973207269676874206861732062656560008201527f6e207265766f6b65642e00000000000000000000000000000000000000000000602082015250565b7f5369676e61746152696768743a20536368656d61204944206d75737420636f7260008201527f726573706f6e6420746f20616e206578697374696e6720736368656d612e0000602082015250565b7f5369676e61746152696768743a205468652073656e646572206973206e6f742060008201527f746865206d696e74657220666f722074686520736368656d612073706563696660208201527f6965642e00000000000000000000000000000000000000000000000000000000604082015250565b7f5369676e61746152696768743a2054686520726967687420737065636966696560008201527f64206973206e6f74207265766f6361626c652e00000000000000000000000000602082015250565b7f5369676e61746152696768743a205472616e736665727320746f20746865207a60008201527f65726f206164647265737320617265206e6f7420616c6c6f7765642e00000000602082015250565b7f5369676e61746152696768743a205468652073656e646572206973206e6f742060008201527f617574686f726973656420746f207472616e736665722074686973207269676860208201527f742e000000000000000000000000000000000000000000000000000000000000604082015250565b7f5369676e61746152696768743a204d6178696d756d20616d6f756e74206f662060008201527f72696768747320616c7265616479206d696e7465642e00000000000000000000602082015250565b7f5369676e61746152696768743a2054686520696e6465782070726f766964656460008201527f206973206f7574206f6620626f756e647320666f7220746865206f776e65722060208201527f7370656369666965642e00000000000000000000000000000000000000000000604082015250565b7f5369676e61746152696768743a2054686520726563697069656e74277320616360008201527f636f756e74206973206c6f636b65642e00000000000000000000000000000000602082015250565b7f5369676e61746152696768743a2054686520696e6465782070726f766964656460008201527f206973206f7574206f6620626f756e64732e0000000000000000000000000000602082015250565b7f5369676e61746152696768743a20417070726f76616c206973206e6f7420726560008201527f71756972656420666f7220746865206f776e6572206f6620746865207269676860208201527f742e000000000000000000000000000000000000000000000000000000000000604082015250565b7f5369676e61746152696768743a205269676874204944206d75737420636f727260008201527f6573706f6e6420746f20616e206578697374696e672072696768742e00000000602082015250565b7f5369676e61746152696768743a206d757374206f6e6c79207472616e7366657260008201527f20746f20455243373231526563656976657220696d706c656d656e746572732060208201527f7768656e20726563697069656e74206973206120736d61727420636f6e74726160408201527f63742e0000000000000000000000000000000000000000000000000000000000606082015250565b7f5369676e61746152696768743a204d6178696d756d20616d6f756e74206f662060008201527f736368656d617320616c7265616479206d696e7465642e000000000000000000602082015250565b7f5369676e61746152696768743a20546865206163636f756e742073706563696660008201527f69656420646f6573206e6f7420686f6c642074686520726967687420636f727260208201527f6573706f6e64696e6720746f2074686520546f6b656e2049442070726f76696460408201527f65642e0000000000000000000000000000000000000000000000000000000000606082015250565b7f5369676e61746152696768743a205468652073656e646572206973206e6f742060008201527f617574686f726973656420746f207265766f6b65207468652072696768742e00602082015250565b7f5369676e61746152696768743a2054686973207269676874206973206e6f6e2d60008201527f7472616e7366657261626c652e00000000000000000000000000000000000000602082015250565b7f5369676e61746152696768743a20546865205552492070726f7669646564206660008201527f6f722074686520736368656d61206973206e6f7420756e697175652e00000000602082015250565b7f5369676e61746152696768743a205468652073656e646572206973206e6f742060008201527f617574686f726973656420746f2070726f7669646520617070726f76616c732e602082015250565b7f5369676e61746152696768743a20546865206d696e7465722773206163636f7560008201527f6e74206973206c6f636b65642e00000000000000000000000000000000000000602082015250565b7f5369676e61746152696768743a2053656c662d617070726f76616c206973206e60008201527f6f742072657175697265642e0000000000000000000000000000000000000000602082015250565b7f5369676e61746152696768743a20546f6b656e204944206d75737420636f727260008201527f6573706f6e6420746f20616e206578697374696e672072696768742e00000000602082015250565b7f5369676e61746152696768743a205468652073656e6465722773206163636f7560008201527f6e74206973206c6f636b65642e00000000000000000000000000000000000000602082015250565b7f5369676e61746152696768743a204d6178696d756d20616d6f756e74206f662060008201527f746f6b656e7320616c7265616479206d696e7465642e00000000000000000000602082015250565b615c77816151b2565b8114615c8257600080fd5b50565b615c8e816151c4565b8114615c9957600080fd5b50565b615ca5816151d0565b8114615cb057600080fd5b50565b615cbc8161521c565b8114615cc757600080fd5b5056fea2646970667358221220c235e55b8e542b113a058deef2b64184d272ea7cce01b3f51dea62616db5654964736f6c63430008070033",
  "immutableReferences": {},
  "source": "// SPDX-License-Identifier: MIT\r\n\r\npragma solidity 0.8.7;\r\n\r\nimport \"./tokens/IERC165.sol\";\r\nimport \"./tokens/IERC721.sol\";\r\nimport \"./tokens/IERC721Enumerable.sol\";\r\nimport \"./tokens/IERC721Metadata.sol\";\r\nimport \"./tokens/IERC721Receiver.sol\";\r\nimport \"./tokens/IERC721Schema.sol\";\r\n\r\nimport \"./SignataIdentity.sol\";\r\n\r\nimport \"./types/extensions/Address.sol\";\r\n\r\ncontract SignataRight is IERC721Schema {\r\n    using Address for address;\r\n    \r\n    event MintSchema(uint256 indexed schemaId, uint256 indexed mintingRightId, bytes32 indexed uriHash);\r\n    \r\n    event MintRight(uint256 indexed schemaId, uint256 indexed rightId);\r\n    \r\n    event Revoke(uint256 indexed rightId);\r\n    \r\n    uint256 private constant MAX_UINT256 = type(uint256).max;\r\n    \r\n    bytes4 private constant INTERFACE_ID_ERC165 = type(IERC165).interfaceId;\r\n    bytes4 private constant INTERFACE_ID_ERC721 = type(IERC721).interfaceId;\r\n    bytes4 private constant INTERFACE_ID_ERC721_ENUMERABLE = type(IERC721Enumerable).interfaceId;\r\n    bytes4 private constant INTERFACE_ID_ERC721_METADATA = type(IERC721Metadata).interfaceId;\r\n    bytes4 private constant INTERFACE_ID_ERC721_SCHEMA = type(IERC721Schema).interfaceId;\r\n\r\n    string private _name;\r\n    string private _symbol;\r\n    SignataIdentity private _signataIdentity;\r\n    \r\n    // Schema Storage\r\n    mapping(uint256 => uint256) private _schemaToRightBalance;\r\n    mapping(uint256 => mapping(uint256 => uint256)) private _schemaToRights;\r\n    mapping(uint256 => bool) _schemaRevocable;\r\n    mapping(uint256 => bool) _schemaTransferable;\r\n    mapping(uint256 => string) private _schemaToURI;\r\n    mapping(bytes32 => uint256) private _uriHashToSchema;\r\n    mapping(uint256 => uint256) private _schemaToMintingRight;\r\n    mapping(address => mapping(uint256 => uint256)) _ownerToSchemaBalance;\r\n    uint256 private _schemasTotal;\r\n    \r\n    // Rights Storage\r\n    mapping(uint256 => address) private _rightToOwner;\r\n    mapping(address => uint256) private _ownerToRightBalance;\r\n    mapping(uint256 => address) private _rightToApprovedAddress;\r\n    mapping(uint256 => bool) private _rightToRevocationStatus;\r\n    mapping(uint256 => uint256) private _rightToSchema;\r\n    mapping(address => mapping (address => bool)) private _ownerToOperatorStatuses;\r\n    mapping(address => mapping(uint256 => uint256)) private _ownerToRights;\r\n    mapping(uint256 => uint256) _rightToOwnerRightsIndex;\r\n    uint256 private _rightsTotal;\r\n    \r\n    constructor(\r\n        string memory name_, \r\n        string memory symbol_,\r\n        address signataIdentity_,\r\n        string memory mintingSchemaURI_\r\n    ) {\r\n        address thisContract = address(this);\r\n        bytes32 uriHash = keccak256(bytes(mintingSchemaURI_));\r\n\r\n        _name = name_;\r\n        _symbol = symbol_;\r\n\r\n        _signataIdentity = SignataIdentity(signataIdentity_);\r\n\r\n        _schemaToRightBalance[1] = 1;\r\n        _schemaToRights[1][0] = 1;\r\n        _schemaRevocable[1] = false;\r\n        _schemaTransferable[1] = true;\r\n        _schemaToURI[1] = mintingSchemaURI_;\r\n        _uriHashToSchema[uriHash] = 1;\r\n        _schemaToMintingRight[1] = 1;\r\n        _ownerToSchemaBalance[thisContract][1] = 1;\r\n        _schemasTotal = 1;\r\n\r\n        _rightToOwner[1] = thisContract;\r\n        _ownerToRightBalance[thisContract] = 1;\r\n        _rightToSchema[1] = 1;\r\n        _ownerToRights[thisContract][0] = 1;\r\n        _rightToOwnerRightsIndex[1] = 0;\r\n        _rightsTotal = 1;\r\n        \r\n        emit MintSchema(1, 1, uriHash);\r\n        \r\n        emit MintRight(1, 1);\r\n        \r\n        emit Transfer(address(0), thisContract, 1);\r\n    }\r\n\r\n    function supportsInterface(bytes4 interfaceId) public pure override returns (bool) {\r\n        return interfaceId == INTERFACE_ID_ERC165\r\n            || interfaceId == INTERFACE_ID_ERC721\r\n            || interfaceId == INTERFACE_ID_ERC721_ENUMERABLE\r\n            || interfaceId == INTERFACE_ID_ERC721_METADATA\r\n            || interfaceId == INTERFACE_ID_ERC721_SCHEMA;\r\n    }\r\n    \r\n    function mintSchema(\r\n        address minter,\r\n        bool schemaTransferable, \r\n        bool schemaRevocable, \r\n        string calldata schemaURI\r\n    ) external returns (uint256) {\r\n        require(\r\n            _schemasTotal != MAX_UINT256,\r\n            \"SignataRight: Maximum amount of schemas already minted.\"\r\n        );\r\n        \r\n        require(\r\n            _rightsTotal != MAX_UINT256,\r\n            \"SignataRight: Maximum amount of rights already minted.\"\r\n        );\r\n        \r\n        bytes32 uriHash = keccak256(bytes(schemaURI));\r\n        \r\n        require(\r\n            _uriHashToSchema[uriHash] == 0,\r\n            \"SignataRight: The URI provided for the schema is not unique.\"\r\n        );\r\n        \r\n        address recipient;\r\n        \r\n        if (minter.isContract()) {\r\n            recipient = minter;\r\n        } else {\r\n            recipient = _signataIdentity.getIdentity(minter);\r\n            \r\n            require(\r\n                !_signataIdentity.isLocked(recipient),\r\n                \"SignataRight: The sender's account is locked.\"\r\n            );\r\n        }\r\n        \r\n        _rightsTotal += 1;\r\n        _rightToOwner[_rightsTotal] = recipient;\r\n        _rightToSchema[_rightsTotal] = 1;\r\n        \r\n        uint256 schemaToRightsLength = _schemaToRightBalance[1];\r\n\r\n        _schemaToRights[1][schemaToRightsLength] = _rightsTotal;\r\n        _schemaToRightBalance[1] += 1;\r\n        _ownerToSchemaBalance[recipient][1] += 1;\r\n\r\n        uint256 ownerToRightsLength = _ownerToRightBalance[recipient];\r\n        \r\n        _ownerToRights[recipient][ownerToRightsLength] = _rightsTotal;\r\n        _rightToOwnerRightsIndex[_rightsTotal] = ownerToRightsLength;\r\n        _ownerToRightBalance[recipient] += 1;\r\n        \r\n        _schemasTotal += 1;\r\n        _schemaToMintingRight[_schemasTotal] = _rightsTotal;\r\n        _schemaToURI[_schemasTotal] = schemaURI;\r\n        _uriHashToSchema[uriHash] = _schemasTotal;\r\n        _schemaTransferable[_schemasTotal] = schemaTransferable;\r\n        _schemaRevocable[_schemasTotal] = schemaRevocable;\r\n        \r\n        require(\r\n            _isSafeToTransfer(address(0), recipient, _rightsTotal, \"\"),\r\n            \"SignataRight: must only transfer to ERC721Receiver implementers when recipient is a smart contract.\"\r\n        );\r\n        \r\n        emit MintRight(1, _rightsTotal);\r\n        \r\n        emit Transfer(address(0), minter, _rightsTotal);\r\n        \r\n        emit MintSchema(_schemasTotal, _rightsTotal, uriHash);\r\n        \r\n        return _schemasTotal;\r\n    }\r\n    \r\n    function mintRight(uint256 schemaId, address to) external {\r\n        require(\r\n            _rightsTotal != MAX_UINT256,\r\n            \"SignataRight: Maximum amount of tokens already minted.\"\r\n        );\r\n        \r\n        require(\r\n            _schemaToMintingRight[schemaId] != 0,\r\n            \"SignataRight: Schema ID must correspond to an existing schema.\"\r\n        );\r\n\r\n        address minter;\r\n        \r\n        if (msg.sender.isContract()) {\r\n            minter = msg.sender;\r\n        } else {\r\n            minter = _signataIdentity.getIdentity(msg.sender);\r\n            \r\n            require(\r\n                !_signataIdentity.isLocked(minter),\r\n                \"SignataRight: The sender's account is locked.\"\r\n            );\r\n        }\r\n        \r\n        require(\r\n            minter == _rightToOwner[_schemaToMintingRight[schemaId]],\r\n            \"SignataRight: The sender is not the minter for the schema specified.\"\r\n        );\r\n        \r\n        address recipient;\r\n        \r\n        if (to.isContract()) {\r\n            recipient = to;\r\n        } else {\r\n            recipient = _signataIdentity.getIdentity(to);\r\n            \r\n            require(\r\n                !_signataIdentity.isLocked(minter),\r\n                \"SignataRight: The sender's account is locked.\"\r\n            );\r\n        }\r\n        \r\n        _rightsTotal += 1;\r\n        _rightToOwner[_rightsTotal] = recipient;\r\n        _rightToSchema[_rightsTotal] = schemaId;\r\n        \r\n        uint256 schemaToRightsLength = _schemaToRightBalance[schemaId];\r\n\r\n        _schemaToRights[schemaId][schemaToRightsLength] = _rightsTotal;\r\n        _schemaToRightBalance[schemaId] += 1;\r\n        _ownerToSchemaBalance[recipient][schemaId] += 1;\r\n\r\n        uint256 ownerToRightsLength = _ownerToRightBalance[recipient];\r\n        \r\n        _ownerToRights[recipient][ownerToRightsLength] = _rightsTotal;\r\n        _rightToOwnerRightsIndex[_rightsTotal] = ownerToRightsLength;\r\n        _ownerToRightBalance[recipient] += 1;\r\n        \r\n        require(\r\n            _isSafeToTransfer(address(0), recipient, _rightsTotal, \"\"),\r\n            \"SignataRight: must only transfer to ERC721Receiver implementers when recipient is a smart contract.\"\r\n        );\r\n        \r\n        emit MintRight(schemaId, _rightsTotal);\r\n        \r\n        emit Transfer(address(0), to, _rightsTotal);\r\n    }\r\n\r\n    function balanceOf(address owner) public view override returns (uint256) {\r\n        if (owner.isContract()) {\r\n            return _ownerToRightBalance[owner];\r\n        }\r\n        \r\n        return _ownerToRightBalance[_signataIdentity.getIdentity(owner)];\r\n    }\r\n\r\n    function ownerOf(uint256 tokenId) public view override returns (address) {\r\n        address owner = _rightToOwner[tokenId];\r\n        \r\n        require(\r\n            owner != address(0),\r\n            \"SignataRight: Token ID must correspond to an existing right.\"\r\n        );\r\n        \r\n        if (owner.isContract()) {\r\n            return owner;\r\n        }\r\n        \r\n        return _signataIdentity.getDelegate(owner);\r\n    }\r\n\r\n    function name() public view override returns (string memory) {\r\n        return _name;\r\n    }\r\n\r\n    function symbol() public view override returns (string memory) {\r\n        return _symbol;\r\n    }\r\n\r\n    function tokenURI(uint256 tokenId) external view override returns (string memory) {\r\n        require(\r\n            _rightToOwner[tokenId] != address(0), \r\n            \"SignataRight: Token ID must correspond to an existing right.\"\r\n        );\r\n\r\n        return _schemaToURI[_rightToSchema[tokenId]];\r\n    }\r\n\r\n    function approve(address to, uint256 tokenId) external override {\r\n        address owner = _rightToOwner[tokenId];\r\n        \r\n        require(\r\n            owner != address(0),\r\n            \"SignataRight: Token ID must correspond to an existing right.\"\r\n        );\r\n        \r\n        require(\r\n            to != owner, \r\n            \"SignataRight: Approval is not required for the owner of the right.\"\r\n        );\r\n        \r\n        address controller;\r\n        \r\n        if (owner.isContract()) {\r\n            controller = owner;\r\n        } else {\r\n            controller = _signataIdentity.getDelegate(owner);\r\n            \r\n            require(\r\n                to != controller, \r\n                \"SignataRight: Approval is not required for the owner of the right.\"\r\n            );\r\n            \r\n            require(\r\n                !_signataIdentity.isLocked(owner),\r\n                \"SignataRight: The owner's account is locked.\"\r\n            );\r\n        }\r\n            \r\n        require(\r\n            msg.sender == controller || isApprovedForAll(owner, msg.sender),\r\n            \"SignataRight: The sender is not authorised to provide approvals.\"\r\n        );\r\n        \r\n        _rightToApprovedAddress[tokenId] = to;\r\n    \r\n        emit Approval(controller, to, tokenId);\r\n    }\r\n    \r\n    function revoke(uint256 tokenId) external {\r\n        require(\r\n            _rightToOwner[tokenId] != address(0),\r\n            \"SignataRight: Right ID must correspond to an existing right.\"\r\n        );\r\n        \r\n        uint256 schemaId = _rightToSchema[tokenId];\r\n        \r\n        require(\r\n            _schemaRevocable[schemaId],\r\n            \"SignataRight: The right specified is not revocable.\"\r\n        );\r\n        \r\n        address minter = _rightToOwner[_schemaToMintingRight[schemaId]];\r\n        \r\n        address controller;\r\n        \r\n        if (minter.isContract()) {\r\n            controller = minter;\r\n        } else {\r\n            controller = _signataIdentity.getDelegate(minter);\r\n            \r\n            require(\r\n                !_signataIdentity.isLocked(minter),\r\n                \"SignataRight: The minter's account is locked.\"\r\n            );\r\n        }\r\n            \r\n        require(\r\n            msg.sender == controller,\r\n            \"SignataRight: The sender is not authorised to revoke the right.\"\r\n        );\r\n        \r\n        _rightToRevocationStatus[tokenId] = true;\r\n\r\n        _ownerToSchemaBalance[_rightToOwner[tokenId]][schemaId] -= 1;\r\n    \r\n        emit Revoke(tokenId);        \r\n    }\r\n    \r\n    function isRevoked(uint256 tokenId) external view returns (bool) {\r\n        require(\r\n            _rightToOwner[tokenId] != address(0),\r\n            \"SignataRight: Token ID must correspond to an existing right.\"\r\n        );\r\n        \r\n        return _rightToRevocationStatus[tokenId];\r\n    }\r\n\r\n    function getApproved(uint256 tokenId) public view override returns (address) {\r\n        require(\r\n            _rightToOwner[tokenId] != address(0),\r\n            \"SignataRight: Token ID must correspond to an existing right.\"\r\n        );\r\n\r\n        return _rightToApprovedAddress[tokenId];\r\n    }\r\n\r\n    function setApprovalForAll(address operator, bool approved) public override {\r\n        address owner;\r\n        \r\n        require(\r\n            operator != msg.sender, \r\n            \"SignataRight: Self-approval is not required.\"\r\n        );\r\n        \r\n        if (msg.sender.isContract()) {\r\n            owner = msg.sender;\r\n        } else {\r\n            owner = _signataIdentity.getIdentity(msg.sender);\r\n            \r\n            require(\r\n                operator != owner, \r\n                \"SignataRight: Self-approval is not required.\"\r\n            );\r\n            \r\n            require(\r\n                !_signataIdentity.isLocked(owner),\r\n                \"SignataRight: The owner's account is locked.\"\r\n            );\r\n        }\r\n\r\n        _ownerToOperatorStatuses[owner][operator] = approved;\r\n        \r\n        emit ApprovalForAll(owner, operator, approved);\r\n    }\r\n\r\n    function isApprovedForAll(address owner, address operator) public view override returns (bool) {\r\n        address owner_ = (owner.isContract())\r\n            ? owner\r\n            :_signataIdentity.getIdentity(msg.sender);\r\n            \r\n        return _ownerToOperatorStatuses[owner_][operator];\r\n    }\r\n\r\n    function transferFrom(address from, address to, uint256 tokenId) public override {\r\n        require(\r\n            _rightToOwner[tokenId] != address(0),\r\n            \"SignataRight: Token ID must correspond to an existing right.\"\r\n        );\r\n        \r\n        uint256 schemaId = _rightToSchema[tokenId];\r\n        \r\n        require(\r\n            _schemaTransferable[schemaId],\r\n            \"SignataRight: This right is non-transferable.\"\r\n        );\r\n        \r\n        require(\r\n            !_rightToRevocationStatus[tokenId],\r\n            \"SignataRight: This right has been revoked.\"\r\n        );\r\n        \r\n        require(\r\n            to != address(0), \r\n            \"SignataRight: Transfers to the zero address are not allowed.\"\r\n        );\r\n        \r\n        address owner;\r\n        \r\n        if (from.isContract()) {\r\n            owner = from;\r\n        } else {\r\n            owner = _signataIdentity.getIdentity(from);\r\n            \r\n            require(\r\n                !_signataIdentity.isLocked(owner),\r\n                \"SignataRight: The owner's account is locked.\"\r\n            );\r\n        }\r\n        \r\n        require(\r\n            _rightToOwner[tokenId] == owner,\r\n            \"SignataRight: The account specified does not hold the right corresponding to the Token ID provided.\"\r\n        );\r\n        \r\n\r\n        require(\r\n            msg.sender == owner || msg.sender == _rightToApprovedAddress[tokenId] || _ownerToOperatorStatuses[owner][msg.sender],\r\n            \"SignataRight: The sender is not authorised to transfer this right.\"\r\n        );\r\n        \r\n        address recipient;\r\n\r\n        if (to.isContract()) {\r\n            recipient = to;\r\n        } else {\r\n            recipient = _signataIdentity.getIdentity(to);\r\n            \r\n            require(\r\n                !_signataIdentity.isLocked(recipient),\r\n                \"SignataRight: The recipient's account is locked.\"\r\n            );\r\n        }\r\n        \r\n        uint256 lastRightIndex = _ownerToRightBalance[owner] - 1;\r\n        uint256 rightIndex = _rightToOwnerRightsIndex[tokenId];\r\n\r\n        if (rightIndex != lastRightIndex) {\r\n            uint256 lastTokenId = _ownerToRights[owner][lastRightIndex];\r\n\r\n            _ownerToRights[owner][rightIndex] = lastTokenId;\r\n            _rightToOwnerRightsIndex[lastTokenId] = rightIndex;\r\n        }\r\n\r\n        delete _ownerToRights[owner][lastRightIndex];\r\n        delete _rightToOwnerRightsIndex[tokenId];\r\n        \r\n        _ownerToSchemaBalance[owner][schemaId] -= 1;\r\n        \r\n        uint256 length = _ownerToRightBalance[recipient];\r\n        \r\n        _ownerToRights[recipient][length] = tokenId;\r\n        _rightToOwnerRightsIndex[tokenId] = length;\r\n        \r\n        _rightToApprovedAddress[tokenId] = address(0);\r\n        \r\n        emit Approval(from, address(0), tokenId);\r\n\r\n        _ownerToRightBalance[owner] -= 1;\r\n        _ownerToRightBalance[recipient] += 1;\r\n        _rightToOwner[tokenId] = recipient;\r\n        \r\n        _ownerToSchemaBalance[recipient][schemaId] += 1;\r\n\r\n        emit Transfer(from, to, tokenId);\r\n    }\r\n\r\n    function safeTransferFrom(address from, address to, uint256 tokenId) external override {\r\n        safeTransferFrom(from, to, tokenId, \"\");\r\n    }\r\n\r\n    function safeTransferFrom(address from, address to, uint256 tokenId, bytes memory _data) public override {\r\n        transferFrom(from, to, tokenId);\r\n        \r\n        require(\r\n            _isSafeToTransfer(from, to, tokenId, _data),\r\n            \"SignataRight: must only transfer to ERC721Receiver implementers when recipient is a smart contract.\"\r\n        );\r\n    }\r\n    \r\n    function tokenOfOwnerByIndex(address owner, uint256 index) public view override returns (uint256) {\r\n        address holder;\r\n        \r\n        if (owner.isContract()) {\r\n            holder = owner;\r\n        } else {\r\n            holder = _signataIdentity.getIdentity(owner);\r\n        }\r\n        \r\n        require(\r\n            index < _ownerToRightBalance[holder], \r\n            \"SignataRight: The index provided is out of bounds for the owner specified.\"\r\n        );\r\n        \r\n        return _ownerToRights[holder][index];\r\n    }\r\n\r\n    function totalSupply() public view override returns (uint256) {\r\n        return _rightsTotal;\r\n    }\r\n\r\n    function tokenByIndex(uint256 index) public view override returns (uint256) {\r\n        require(\r\n            index < _rightsTotal, \r\n            \"SignataRight: The index provided is out of bounds.\"\r\n        );\r\n        \r\n        return index + 1;\r\n    }\r\n    \r\n    function schemaOf(uint256 tokenId) external view override returns (uint256) {\r\n        require(\r\n            _rightToOwner[tokenId] != address(0),\r\n            \"SignataRight: Token ID must correspond to an existing right.\"\r\n        );\r\n\r\n        return _rightToSchema[tokenId];    \r\n    }\r\n\r\n    function minterOf(uint256 schemaId) external view override returns (address) {\r\n        uint256 mintingToken = _schemaToMintingRight[schemaId];\r\n        \r\n        require(\r\n            mintingToken != 0,\r\n            \"SignataRight: Schema ID must correspond to an existing schema.\"\r\n        );\r\n        \r\n        address owner = _rightToOwner[mintingToken];\r\n\r\n        if (owner.isContract()) {\r\n            return owner;\r\n        }\r\n        \r\n        return _signataIdentity.getDelegate(owner);        \r\n    }\r\n    \r\n    function holdsTokenOfSchema(address holder, uint256 schemaId) external view override returns (bool) {\r\n        require(\r\n            _schemaToMintingRight[schemaId] != 0,\r\n            \"SignataRight: Schema ID must correspond to an existing schema.\"\r\n        );\r\n        \r\n        address owner;\r\n\r\n        if (owner.isContract()) {\r\n            owner = holder;\r\n        } else {\r\n            owner = _signataIdentity.getIdentity(holder);\r\n        }\r\n        \r\n        return _ownerToSchemaBalance[owner][schemaId] > 0;\r\n    }\r\n    \r\n    function totalSchemas() external view override returns (uint256) {\r\n        return _schemasTotal;\r\n    }\r\n    \r\n    function totalMintedFor(uint256 schemaId) external view override returns (uint256) {\r\n        require(\r\n            _schemaToMintingRight[schemaId] != 0,\r\n            \"SignataRight: Schema ID must correspond to an existing schema.\"\r\n        );\r\n        \r\n        return _schemaToRightBalance[schemaId];\r\n    }\r\n\r\n    function tokenOfSchemaByIndex(uint256 schemaId, uint256 index) external view override returns (uint256) {\r\n        require(\r\n            _schemaToMintingRight[schemaId] != 0,\r\n            \"SignataRight: Schema ID must correspond to an existing schema.\"\r\n        );\r\n        \r\n        require(\r\n            index < _schemaToRightBalance[schemaId], \r\n            \"SignataRight: The index provided is out of bounds for the owner specified.\"\r\n        );\r\n        \r\n        return _schemaToRights[schemaId][index];       \r\n    }\r\n        \r\n    function _isSafeToTransfer(address from, address to, uint256 tokenId, bytes memory _data) private returns (bool)\r\n    {\r\n        if (to.isContract()) {\r\n            try IERC721Receiver(to).onERC721Received(msg.sender, from, tokenId, _data) returns (bytes4 retval) {\r\n                return retval == IERC721Receiver(to).onERC721Received.selector;\r\n            } catch (bytes memory reason) {\r\n                if (reason.length == 0) {\r\n                    revert(\"SignataRight: must only transfer to ERC721Receiver implementers when recipient is a smart contract.\");\r\n                } else {\r\n                    assembly {\r\n                        revert(add(32, reason), mload(reason))\r\n                    }\r\n                }\r\n            }\r\n        } else {\r\n            return true;\r\n        }\r\n    }\r\n}",
  "sourcePath": "C:\\Users\\tim\\Projects\\GitHub\\sata-contracts-v1\\contracts\\SignataRight.sol",
  "compiler": {
    "name": "solc",
    "version": "0.8.7+commit.e28d00a7.Emscripten.clang"
  },
  "schemaVersion": "3.4.3",
  "updatedAt": "2021-09-16T15:29:42.906Z",
  "devdoc": {
    "kind": "dev",
    "methods": {},
    "version": 1
  },
  "userdoc": {
    "kind": "user",
    "methods": {},
    "version": 1
  }
}