{
  "contractName": "SignataIdentity",
  "abi": [
    {
      "inputs": [
        {
          "internalType": "uint256",
          "name": "chainId",
          "type": "uint256"
        }
      ],
      "stateMutability": "nonpayable",
      "type": "constructor"
    },
    {
      "anonymous": false,
      "inputs": [
        {
          "indexed": true,
          "internalType": "address",
          "name": "identity",
          "type": "address"
        },
        {
          "indexed": true,
          "internalType": "address",
          "name": "delegateKey",
          "type": "address"
        },
        {
          "indexed": true,
          "internalType": "address",
          "name": "securityKey",
          "type": "address"
        }
      ],
      "name": "Create",
      "type": "event"
    },
    {
      "anonymous": false,
      "inputs": [
        {
          "indexed": true,
          "internalType": "address",
          "name": "identity",
          "type": "address"
        }
      ],
      "name": "Destroy",
      "type": "event"
    },
    {
      "anonymous": false,
      "inputs": [
        {
          "indexed": true,
          "internalType": "address",
          "name": "identity",
          "type": "address"
        }
      ],
      "name": "Lock",
      "type": "event"
    },
    {
      "anonymous": false,
      "inputs": [
        {
          "indexed": true,
          "internalType": "address",
          "name": "identity",
          "type": "address"
        },
        {
          "indexed": true,
          "internalType": "address",
          "name": "delegateKey",
          "type": "address"
        },
        {
          "indexed": true,
          "internalType": "address",
          "name": "securityKey",
          "type": "address"
        }
      ],
      "name": "Rollover",
      "type": "event"
    },
    {
      "anonymous": false,
      "inputs": [
        {
          "indexed": true,
          "internalType": "address",
          "name": "identity",
          "type": "address"
        }
      ],
      "name": "Unlock",
      "type": "event"
    },
    {
      "inputs": [
        {
          "internalType": "uint8",
          "name": "identityV",
          "type": "uint8"
        },
        {
          "internalType": "bytes32",
          "name": "identityR",
          "type": "bytes32"
        },
        {
          "internalType": "bytes32",
          "name": "identityS",
          "type": "bytes32"
        },
        {
          "internalType": "address",
          "name": "delegateKey",
          "type": "address"
        },
        {
          "internalType": "address",
          "name": "securityKey",
          "type": "address"
        }
      ],
      "name": "create",
      "outputs": [],
      "stateMutability": "nonpayable",
      "type": "function"
    },
    {
      "inputs": [
        {
          "internalType": "address",
          "name": "identity",
          "type": "address"
        },
        {
          "internalType": "uint8",
          "name": "delegateV",
          "type": "uint8"
        },
        {
          "internalType": "bytes32",
          "name": "delegateR",
          "type": "bytes32"
        },
        {
          "internalType": "bytes32",
          "name": "delegateS",
          "type": "bytes32"
        },
        {
          "internalType": "uint8",
          "name": "securityV",
          "type": "uint8"
        },
        {
          "internalType": "bytes32",
          "name": "securityR",
          "type": "bytes32"
        },
        {
          "internalType": "bytes32",
          "name": "securityS",
          "type": "bytes32"
        }
      ],
      "name": "destroy",
      "outputs": [],
      "stateMutability": "nonpayable",
      "type": "function"
    },
    {
      "inputs": [
        {
          "internalType": "address",
          "name": "identity",
          "type": "address"
        }
      ],
      "name": "lock",
      "outputs": [],
      "stateMutability": "nonpayable",
      "type": "function"
    },
    {
      "inputs": [
        {
          "internalType": "address",
          "name": "identity",
          "type": "address"
        }
      ],
      "name": "getDelegate",
      "outputs": [
        {
          "internalType": "address",
          "name": "",
          "type": "address"
        }
      ],
      "stateMutability": "view",
      "type": "function"
    },
    {
      "inputs": [
        {
          "internalType": "address",
          "name": "delegateKey",
          "type": "address"
        }
      ],
      "name": "getIdentity",
      "outputs": [
        {
          "internalType": "address",
          "name": "",
          "type": "address"
        }
      ],
      "stateMutability": "view",
      "type": "function"
    },
    {
      "inputs": [
        {
          "internalType": "address",
          "name": "identity",
          "type": "address"
        }
      ],
      "name": "getLockCount",
      "outputs": [
        {
          "internalType": "uint256",
          "name": "",
          "type": "uint256"
        }
      ],
      "stateMutability": "view",
      "type": "function"
    },
    {
      "inputs": [
        {
          "internalType": "address",
          "name": "identity",
          "type": "address"
        }
      ],
      "name": "getRolloverCount",
      "outputs": [
        {
          "internalType": "uint256",
          "name": "",
          "type": "uint256"
        }
      ],
      "stateMutability": "view",
      "type": "function"
    },
    {
      "inputs": [
        {
          "internalType": "address",
          "name": "identity",
          "type": "address"
        }
      ],
      "name": "isLocked",
      "outputs": [
        {
          "internalType": "bool",
          "name": "",
          "type": "bool"
        }
      ],
      "stateMutability": "view",
      "type": "function"
    },
    {
      "inputs": [
        {
          "internalType": "address",
          "name": "identity",
          "type": "address"
        },
        {
          "internalType": "uint8",
          "name": "delegateV",
          "type": "uint8"
        },
        {
          "internalType": "bytes32",
          "name": "delegateR",
          "type": "bytes32"
        },
        {
          "internalType": "bytes32",
          "name": "delegateS",
          "type": "bytes32"
        },
        {
          "internalType": "uint8",
          "name": "securityV",
          "type": "uint8"
        },
        {
          "internalType": "bytes32",
          "name": "securityR",
          "type": "bytes32"
        },
        {
          "internalType": "bytes32",
          "name": "securityS",
          "type": "bytes32"
        },
        {
          "internalType": "address",
          "name": "newDelegateKey",
          "type": "address"
        },
        {
          "internalType": "address",
          "name": "newSecurityKey",
          "type": "address"
        }
      ],
      "name": "rollover",
      "outputs": [],
      "stateMutability": "nonpayable",
      "type": "function"
    },
    {
      "inputs": [
        {
          "internalType": "address",
          "name": "identity",
          "type": "address"
        },
        {
          "internalType": "uint8",
          "name": "delegateV",
          "type": "uint8"
        },
        {
          "internalType": "bytes32",
          "name": "delegateR",
          "type": "bytes32"
        },
        {
          "internalType": "bytes32",
          "name": "delegateS",
          "type": "bytes32"
        },
        {
          "internalType": "uint8",
          "name": "securityV",
          "type": "uint8"
        },
        {
          "internalType": "bytes32",
          "name": "securityR",
          "type": "bytes32"
        },
        {
          "internalType": "bytes32",
          "name": "securityS",
          "type": "bytes32"
        }
      ],
      "name": "unlock",
      "outputs": [],
      "stateMutability": "nonpayable",
      "type": "function"
    }
  ],
  "bytecode": "0x60a06040523480156200001157600080fd5b5060405162003fb438038062003fb4833981810160405281019062000037919062000144565b7fd87cd6ef79d4e2b95e15ce8abf732db51ec771f1ca2edccf22a46c729ac5647260001b7ffc8e166e81add347414f67a8064c94523802ae76625708af4cddc107b656844f60001b7fc89efdaa54c0f20c7adf612882df0950f5a951637e0307cdcb4c672f298b8bc660001b83307f233cdb81615d25013bb0519fbe69c16ddc77f9fa6a9395bd2aecfdfc1c0896e360001b604051602001620000e0969594939291906200022d565b6040516020818303038152906040528051906020012060808181525050506200029a565b600080fd5b6000819050919050565b6200011e8162000109565b81146200012a57600080fd5b50565b6000815190506200013e8162000113565b92915050565b6000602082840312156200015d576200015c62000104565b5b60006200016d848285016200012d565b91505092915050565b6000819050919050565b6200018b8162000176565b82525050565b6200019c8162000109565b82525050565b600073ffffffffffffffffffffffffffffffffffffffff82169050919050565b6000819050919050565b6000620001ed620001e7620001e184620001a2565b620001c2565b620001a2565b9050919050565b60006200020182620001cc565b9050919050565b60006200021582620001f4565b9050919050565b620002278162000208565b82525050565b600060c08201905062000244600083018962000180565b62000253602083018862000180565b62000262604083018762000180565b62000271606083018662000191565b6200028060808301856200021c565b6200028f60a083018462000180565b979650505050505050565b608051613ce9620002cb600039600081816106ea015281816112ee01528181611b75015261220d0152613ce96000f3fe608060405234801561001057600080fd5b506004361061009e5760003560e01c80639c8fce2c116100665780639c8fce2c1461017f578063ad315025146101af578063b5f531a6146101cb578063c325f3e0146101e7578063f435f5a7146102035761009e565b806323c1ee43146100a35780632fea7b81146100d35780634a4fbeec146101035780634f91e97414610133578063544d85641461014f575b600080fd5b6100bd60048036038101906100b89190612b7a565b61021f565b6040516100ca9190612bc0565b60405180910390f35b6100ed60048036038101906100e89190612b7a565b610381565b6040516100fa9190612bea565b60405180910390f35b61011d60048036038101906101189190612b7a565b61045e565b60405161012a9190612c20565b60405180910390f35b61014d60048036038101906101489190612caa565b6105cd565b005b61016960048036038101906101649190612b7a565b610c5d565b6040516101769190612bea565b60405180910390f35b61019960048036038101906101949190612b7a565b610ddf565b6040516101a69190612bc0565b60405180910390f35b6101c960048036038101906101c49190612caa565b610f41565b005b6101e560048036038101906101e09190612d4c565b6116a8565b005b61020160048036038101906101fc9190612e16565b61213c565b005b61021d60048036038101906102189190612b7a565b61271b565b005b6000600660008373ffffffffffffffffffffffffffffffffffffffff1673ffffffffffffffffffffffffffffffffffffffff16815260200190815260200160002060009054906101000a900460ff166102ad576040517f08c379a00000000000000000000000000000000000000000000000000000000081526004016102a490612f14565b60405180910390fd5b600560008373ffffffffffffffffffffffffffffffffffffffff1673ffffffffffffffffffffffffffffffffffffffff16815260200190815260200160002060009054906101000a900460ff161561033a576040517f08c379a000000000000000000000000000000000000000000000000000000000815260040161033190612fa6565b60405180910390fd5b600160008373ffffffffffffffffffffffffffffffffffffffff1673ffffffffffffffffffffffffffffffffffffffff168152602001908152602001600020549050919050565b6000806000808473ffffffffffffffffffffffffffffffffffffffff1673ffffffffffffffffffffffffffffffffffffffff16815260200190815260200160002060009054906101000a900473ffffffffffffffffffffffffffffffffffffffff169050600073ffffffffffffffffffffffffffffffffffffffff168173ffffffffffffffffffffffffffffffffffffffff161415610455576040517f08c379a000000000000000000000000000000000000000000000000000000000815260040161044c9061305e565b60405180910390fd5b80915050919050565b6000600660008373ffffffffffffffffffffffffffffffffffffffff1673ffffffffffffffffffffffffffffffffffffffff16815260200190815260200160002060009054906101000a900460ff166104ec576040517f08c379a00000000000000000000000000000000000000000000000000000000081526004016104e390612f14565b60405180910390fd5b600560008373ffffffffffffffffffffffffffffffffffffffff1673ffffffffffffffffffffffffffffffffffffffff16815260200190815260200160002060009054906101000a900460ff1615610579576040517f08c379a000000000000000000000000000000000000000000000000000000000815260040161057090612fa6565b60405180910390fd5b600760008373ffffffffffffffffffffffffffffffffffffffff1673ffffffffffffffffffffffffffffffffffffffff16815260200190815260200160002060009054906101000a900460ff169050919050565b600660008873ffffffffffffffffffffffffffffffffffffffff1673ffffffffffffffffffffffffffffffffffffffff16815260200190815260200160002060009054906101000a900460ff16610659576040517f08c379a000000000000000000000000000000000000000000000000000000000815260040161065090612f14565b60405180910390fd5b600560008873ffffffffffffffffffffffffffffffffffffffff1673ffffffffffffffffffffffffffffffffffffffff16815260200190815260200160002060009054906101000a900460ff16156106e6576040517f08c379a00000000000000000000000000000000000000000000000000000000081526004016106dd906130f0565b60405180910390fd5b60007f00000000000000000000000000000000000000000000000000000000000000007f21459c8977584463672e32d031e5caf426140890a0f0d2172da41491b70ef9f560001b60405160200161073d919061311f565b604051602081830303815290604052805190602001206040516020016107649291906131b2565b6040516020818303038152906040528051906020012090506000600182898989604051600081526020016040526040516107a194939291906131f8565b6020604051602081039080840390855afa1580156107c3573d6000803e3d6000fd5b5050506020604051035190508073ffffffffffffffffffffffffffffffffffffffff16600460008b73ffffffffffffffffffffffffffffffffffffffff1673ffffffffffffffffffffffffffffffffffffffff16815260200190815260200160002060009054906101000a900473ffffffffffffffffffffffffffffffffffffffff1673ffffffffffffffffffffffffffffffffffffffff161461089c576040517f08c379a0000000000000000000000000000000000000000000000000000000008152600401610893906132af565b60405180910390fd5b6000600183878787604051600081526020016040526040516108c194939291906131f8565b6020604051602081039080840390855afa1580156108e3573d6000803e3d6000fd5b5050506020604051035190508073ffffffffffffffffffffffffffffffffffffffff16600360008c73ffffffffffffffffffffffffffffffffffffffff1673ffffffffffffffffffffffffffffffffffffffff16815260200190815260200160002060009054906101000a900473ffffffffffffffffffffffffffffffffffffffff1673ffffffffffffffffffffffffffffffffffffffff16146109bc576040517f08c379a00000000000000000000000000000000000000000000000000000000081526004016109b390613341565b60405180910390fd5b6001600560008c73ffffffffffffffffffffffffffffffffffffffff1673ffffffffffffffffffffffffffffffffffffffff16815260200190815260200160002060006101000a81548160ff0219169083151502179055506000808373ffffffffffffffffffffffffffffffffffffffff1673ffffffffffffffffffffffffffffffffffffffff16815260200190815260200160002060006101000a81549073ffffffffffffffffffffffffffffffffffffffff0219169055600160008b73ffffffffffffffffffffffffffffffffffffffff1673ffffffffffffffffffffffffffffffffffffffff16815260200190815260200160002060009055600260008b73ffffffffffffffffffffffffffffffffffffffff1673ffffffffffffffffffffffffffffffffffffffff16815260200190815260200160002060009055600360008b73ffffffffffffffffffffffffffffffffffffffff1673ffffffffffffffffffffffffffffffffffffffff16815260200190815260200160002060006101000a81549073ffffffffffffffffffffffffffffffffffffffff0219169055600460008b73ffffffffffffffffffffffffffffffffffffffff1673ffffffffffffffffffffffffffffffffffffffff16815260200190815260200160002060006101000a81549073ffffffffffffffffffffffffffffffffffffffff0219169055600760008b73ffffffffffffffffffffffffffffffffffffffff1673ffffffffffffffffffffffffffffffffffffffff16815260200190815260200160002060006101000a81549060ff02191690558973ffffffffffffffffffffffffffffffffffffffff167f1784cfb685928018dc24751ec5bf75fbdc0549441a271950dc0b15c92be3d16860405160405180910390a250505050505050505050565b6000600660008373ffffffffffffffffffffffffffffffffffffffff1673ffffffffffffffffffffffffffffffffffffffff16815260200190815260200160002060009054906101000a900460ff16610ceb576040517f08c379a0000000000000000000000000000000000000000000000000000000008152600401610ce290612f14565b60405180910390fd5b600560008373ffffffffffffffffffffffffffffffffffffffff1673ffffffffffffffffffffffffffffffffffffffff16815260200190815260200160002060009054906101000a900460ff1615610d78576040517f08c379a0000000000000000000000000000000000000000000000000000000008152600401610d6f90612fa6565b60405180910390fd5b600460008373ffffffffffffffffffffffffffffffffffffffff1673ffffffffffffffffffffffffffffffffffffffff16815260200190815260200160002060009054906101000a900473ffffffffffffffffffffffffffffffffffffffff169050919050565b6000600660008373ffffffffffffffffffffffffffffffffffffffff1673ffffffffffffffffffffffffffffffffffffffff16815260200190815260200160002060009054906101000a900460ff16610e6d576040517f08c379a0000000000000000000000000000000000000000000000000000000008152600401610e6490612f14565b60405180910390fd5b600560008373ffffffffffffffffffffffffffffffffffffffff1673ffffffffffffffffffffffffffffffffffffffff16815260200190815260200160002060009054906101000a900460ff1615610efa576040517f08c379a0000000000000000000000000000000000000000000000000000000008152600401610ef190612fa6565b60405180910390fd5b600260008373ffffffffffffffffffffffffffffffffffffffff1673ffffffffffffffffffffffffffffffffffffffff168152602001908152602001600020549050919050565b600660008873ffffffffffffffffffffffffffffffffffffffff1673ffffffffffffffffffffffffffffffffffffffff16815260200190815260200160002060009054906101000a900460ff16610fcd576040517f08c379a0000000000000000000000000000000000000000000000000000000008152600401610fc490612f14565b60405180910390fd5b600560008873ffffffffffffffffffffffffffffffffffffffff1673ffffffffffffffffffffffffffffffffffffffff16815260200190815260200160002060009054906101000a900460ff161561105a576040517f08c379a000000000000000000000000000000000000000000000000000000000815260040161105190612fa6565b60405180910390fd5b600760008873ffffffffffffffffffffffffffffffffffffffff1673ffffffffffffffffffffffffffffffffffffffff16815260200190815260200160002060009054906101000a900460ff166110e6576040517f08c379a00000000000000000000000000000000000000000000000000000000081526004016110dd906133d3565b60405180910390fd5b7fffffffffffffffffffffffffffffffffffffffffffffffffffffffffffffffff600160008973ffffffffffffffffffffffffffffffffffffffff1673ffffffffffffffffffffffffffffffffffffffff168152602001908152602001600020541415611188576040517f08c379a000000000000000000000000000000000000000000000000000000000815260040161117f90613465565b60405180910390fd5b600460008873ffffffffffffffffffffffffffffffffffffffff1673ffffffffffffffffffffffffffffffffffffffff16815260200190815260200160002060009054906101000a900473ffffffffffffffffffffffffffffffffffffffff1673ffffffffffffffffffffffffffffffffffffffff163373ffffffffffffffffffffffffffffffffffffffff1614806112ab5750600360008873ffffffffffffffffffffffffffffffffffffffff1673ffffffffffffffffffffffffffffffffffffffff16815260200190815260200160002060009054906101000a900473ffffffffffffffffffffffffffffffffffffffff1673ffffffffffffffffffffffffffffffffffffffff163373ffffffffffffffffffffffffffffffffffffffff16145b6112ea576040517f08c379a00000000000000000000000000000000000000000000000000000000081526004016112e19061351d565b60405180910390fd5b60007f00000000000000000000000000000000000000000000000000000000000000007fd814812ff462bae7ba452aadd08061fe1b4bda9916c0c4a84c25a78985670a7b60001b600160008b73ffffffffffffffffffffffffffffffffffffffff1673ffffffffffffffffffffffffffffffffffffffff1681526020019081526020016000205460405160200161138292919061353d565b604051602081830303815290604052805190602001206040516020016113a99291906131b2565b6040516020818303038152906040528051906020012090506000600182898989604051600081526020016040526040516113e694939291906131f8565b6020604051602081039080840390855afa158015611408573d6000803e3d6000fd5b5050506020604051035190508073ffffffffffffffffffffffffffffffffffffffff16600460008b73ffffffffffffffffffffffffffffffffffffffff1673ffffffffffffffffffffffffffffffffffffffff16815260200190815260200160002060009054906101000a900473ffffffffffffffffffffffffffffffffffffffff1673ffffffffffffffffffffffffffffffffffffffff16146114e1576040517f08c379a00000000000000000000000000000000000000000000000000000000081526004016114d8906132af565b60405180910390fd5b60006001838787876040516000815260200160405260405161150694939291906131f8565b6020604051602081039080840390855afa158015611528573d6000803e3d6000fd5b5050506020604051035190508073ffffffffffffffffffffffffffffffffffffffff16600360008c73ffffffffffffffffffffffffffffffffffffffff1673ffffffffffffffffffffffffffffffffffffffff16815260200190815260200160002060009054906101000a900473ffffffffffffffffffffffffffffffffffffffff1673ffffffffffffffffffffffffffffffffffffffff1614611601576040517f08c379a00000000000000000000000000000000000000000000000000000000081526004016115f890613341565b60405180910390fd5b6000600760008c73ffffffffffffffffffffffffffffffffffffffff1673ffffffffffffffffffffffffffffffffffffffff16815260200190815260200160002060006101000a81548160ff0219169083151502179055508973ffffffffffffffffffffffffffffffffffffffff167f0be774851955c26a1d6a32b13b020663a069006b4a3b643ff0b809d31826057260405160405180910390a250505050505050505050565b600660008a73ffffffffffffffffffffffffffffffffffffffff1673ffffffffffffffffffffffffffffffffffffffff16815260200190815260200160002060009054906101000a900460ff16611734576040517f08c379a000000000000000000000000000000000000000000000000000000000815260040161172b90612f14565b60405180910390fd5b600560008a73ffffffffffffffffffffffffffffffffffffffff1673ffffffffffffffffffffffffffffffffffffffff16815260200190815260200160002060009054906101000a900460ff16156117c1576040517f08c379a00000000000000000000000000000000000000000000000000000000081526004016117b890612fa6565b60405180910390fd5b8173ffffffffffffffffffffffffffffffffffffffff168973ffffffffffffffffffffffffffffffffffffffff161415801561182957508073ffffffffffffffffffffffffffffffffffffffff168973ffffffffffffffffffffffffffffffffffffffff1614155b801561186157508073ffffffffffffffffffffffffffffffffffffffff168273ffffffffffffffffffffffffffffffffffffffff1614155b6118a0576040517f08c379a0000000000000000000000000000000000000000000000000000000008152600401611897906135d8565b60405180910390fd5b600073ffffffffffffffffffffffffffffffffffffffff166000808473ffffffffffffffffffffffffffffffffffffffff1673ffffffffffffffffffffffffffffffffffffffff16815260200190815260200160002060009054906101000a900473ffffffffffffffffffffffffffffffffffffffff1673ffffffffffffffffffffffffffffffffffffffff161461196d576040517f08c379a000000000000000000000000000000000000000000000000000000000815260040161196490613690565b60405180910390fd5b600460008a73ffffffffffffffffffffffffffffffffffffffff1673ffffffffffffffffffffffffffffffffffffffff16815260200190815260200160002060009054906101000a900473ffffffffffffffffffffffffffffffffffffffff1673ffffffffffffffffffffffffffffffffffffffff163373ffffffffffffffffffffffffffffffffffffffff161480611a905750600360008a73ffffffffffffffffffffffffffffffffffffffff1673ffffffffffffffffffffffffffffffffffffffff16815260200190815260200160002060009054906101000a900473ffffffffffffffffffffffffffffffffffffffff1673ffffffffffffffffffffffffffffffffffffffff163373ffffffffffffffffffffffffffffffffffffffff16145b611acf576040517f08c379a0000000000000000000000000000000000000000000000000000000008152600401611ac690613748565b60405180910390fd5b7fffffffffffffffffffffffffffffffffffffffffffffffffffffffffffffffff600260008b73ffffffffffffffffffffffffffffffffffffffff1673ffffffffffffffffffffffffffffffffffffffff168152602001908152602001600020541415611b71576040517f08c379a0000000000000000000000000000000000000000000000000000000008152600401611b6890613800565b60405180910390fd5b60007f00000000000000000000000000000000000000000000000000000000000000007f3925a5eeb744076e798ef9df4a1d3e1d70bcca2f478f6df9e6f0496d7de53e1e60001b8484600260008f73ffffffffffffffffffffffffffffffffffffffff1673ffffffffffffffffffffffffffffffffffffffff16815260200190815260200160002054604051602001611c0d9493929190613820565b60405160208183030381529060405280519060200120604051602001611c349291906131b2565b60405160208183030381529060405280519060200120905060006001828b8b8b60405160008152602001604052604051611c7194939291906131f8565b6020604051602081039080840390855afa158015611c93573d6000803e3d6000fd5b5050506020604051035190508073ffffffffffffffffffffffffffffffffffffffff16600460008d73ffffffffffffffffffffffffffffffffffffffff1673ffffffffffffffffffffffffffffffffffffffff16815260200190815260200160002060009054906101000a900473ffffffffffffffffffffffffffffffffffffffff1673ffffffffffffffffffffffffffffffffffffffff1614611d6c576040517f08c379a0000000000000000000000000000000000000000000000000000000008152600401611d63906132af565b60405180910390fd5b600060018389898960405160008152602001604052604051611d9194939291906131f8565b6020604051602081039080840390855afa158015611db3573d6000803e3d6000fd5b5050506020604051035190508073ffffffffffffffffffffffffffffffffffffffff16600360008e73ffffffffffffffffffffffffffffffffffffffff1673ffffffffffffffffffffffffffffffffffffffff16815260200190815260200160002060009054906101000a900473ffffffffffffffffffffffffffffffffffffffff1673ffffffffffffffffffffffffffffffffffffffff1614611e8c576040517f08c379a0000000000000000000000000000000000000000000000000000000008152600401611e83906132af565b60405180910390fd5b6000808373ffffffffffffffffffffffffffffffffffffffff1673ffffffffffffffffffffffffffffffffffffffff16815260200190815260200160002060006101000a81549073ffffffffffffffffffffffffffffffffffffffff02191690558b6000808773ffffffffffffffffffffffffffffffffffffffff1673ffffffffffffffffffffffffffffffffffffffff16815260200190815260200160002060006101000a81548173ffffffffffffffffffffffffffffffffffffffff021916908373ffffffffffffffffffffffffffffffffffffffff16021790555084600460008e73ffffffffffffffffffffffffffffffffffffffff1673ffffffffffffffffffffffffffffffffffffffff16815260200190815260200160002060006101000a81548173ffffffffffffffffffffffffffffffffffffffff021916908373ffffffffffffffffffffffffffffffffffffffff16021790555083600360008e73ffffffffffffffffffffffffffffffffffffffff1673ffffffffffffffffffffffffffffffffffffffff16815260200190815260200160002060006101000a81548173ffffffffffffffffffffffffffffffffffffffff021916908373ffffffffffffffffffffffffffffffffffffffff1602179055506001600260008e73ffffffffffffffffffffffffffffffffffffffff1673ffffffffffffffffffffffffffffffffffffffff16815260200190815260200160002060008282546120b69190613894565b925050819055508373ffffffffffffffffffffffffffffffffffffffff168573ffffffffffffffffffffffffffffffffffffffff168d73ffffffffffffffffffffffffffffffffffffffff167fe729dce079e210300d45fb8f49226fe84d6d51175a2b74a6c17752037022e27960405160405180910390a4505050505050505050505050565b600073ffffffffffffffffffffffffffffffffffffffff166000808473ffffffffffffffffffffffffffffffffffffffff1673ffffffffffffffffffffffffffffffffffffffff16815260200190815260200160002060009054906101000a900473ffffffffffffffffffffffffffffffffffffffff1673ffffffffffffffffffffffffffffffffffffffff1614612209576040517f08c379a00000000000000000000000000000000000000000000000000000000081526004016122009061395c565b60405180910390fd5b60007f00000000000000000000000000000000000000000000000000000000000000007f469a26f6afcc5806677c064ceb4b952f409123d7e70ab1fd0a51e86205b9937b60001b84846040516020016122649392919061397c565b6040516020818303038152906040528051906020012060405160200161228b9291906131b2565b6040516020818303038152906040528051906020012090506000600182888888604051600081526020016040526040516122c894939291906131f8565b6020604051602081039080840390855afa1580156122ea573d6000803e3d6000fd5b5050506020604051035190508073ffffffffffffffffffffffffffffffffffffffff163373ffffffffffffffffffffffffffffffffffffffff1614612364576040517f08c379a000000000000000000000000000000000000000000000000000000000815260040161235b90613a4b565b60405180910390fd5b8373ffffffffffffffffffffffffffffffffffffffff168173ffffffffffffffffffffffffffffffffffffffff16141580156123cc57508273ffffffffffffffffffffffffffffffffffffffff168173ffffffffffffffffffffffffffffffffffffffff1614155b801561240457508273ffffffffffffffffffffffffffffffffffffffff168473ffffffffffffffffffffffffffffffffffffffff1614155b612443576040517f08c379a000000000000000000000000000000000000000000000000000000000815260040161243a90613add565b60405180910390fd5b600660008273ffffffffffffffffffffffffffffffffffffffff1673ffffffffffffffffffffffffffffffffffffffff16815260200190815260200160002060009054906101000a900460ff16156124d0576040517f08c379a00000000000000000000000000000000000000000000000000000000081526004016124c790613b6f565b60405180910390fd5b806000808673ffffffffffffffffffffffffffffffffffffffff1673ffffffffffffffffffffffffffffffffffffffff16815260200190815260200160002060006101000a81548173ffffffffffffffffffffffffffffffffffffffff021916908373ffffffffffffffffffffffffffffffffffffffff16021790555083600460008373ffffffffffffffffffffffffffffffffffffffff1673ffffffffffffffffffffffffffffffffffffffff16815260200190815260200160002060006101000a81548173ffffffffffffffffffffffffffffffffffffffff021916908373ffffffffffffffffffffffffffffffffffffffff1602179055506001600660008373ffffffffffffffffffffffffffffffffffffffff1673ffffffffffffffffffffffffffffffffffffffff16815260200190815260200160002060006101000a81548160ff02191690831515021790555082600360008373ffffffffffffffffffffffffffffffffffffffff1673ffffffffffffffffffffffffffffffffffffffff16815260200190815260200160002060006101000a81548173ffffffffffffffffffffffffffffffffffffffff021916908373ffffffffffffffffffffffffffffffffffffffff1602179055508273ffffffffffffffffffffffffffffffffffffffff168473ffffffffffffffffffffffffffffffffffffffff168273ffffffffffffffffffffffffffffffffffffffff167fb224da6575b2c2ffd42454faedb236f7dbe5f92a0c96bb99c0273dbe98464c7e60405160405180910390a450505050505050565b600660008273ffffffffffffffffffffffffffffffffffffffff1673ffffffffffffffffffffffffffffffffffffffff16815260200190815260200160002060009054906101000a900460ff166127a7576040517f08c379a000000000000000000000000000000000000000000000000000000000815260040161279e90612f14565b60405180910390fd5b600560008273ffffffffffffffffffffffffffffffffffffffff1673ffffffffffffffffffffffffffffffffffffffff16815260200190815260200160002060009054906101000a900460ff1615612834576040517f08c379a000000000000000000000000000000000000000000000000000000000815260040161282b90612fa6565b60405180910390fd5b600760008273ffffffffffffffffffffffffffffffffffffffff1673ffffffffffffffffffffffffffffffffffffffff16815260200190815260200160002060009054906101000a900460ff16156128c1576040517f08c379a00000000000000000000000000000000000000000000000000000000081526004016128b890613c01565b60405180910390fd5b600460008273ffffffffffffffffffffffffffffffffffffffff1673ffffffffffffffffffffffffffffffffffffffff16815260200190815260200160002060009054906101000a900473ffffffffffffffffffffffffffffffffffffffff1673ffffffffffffffffffffffffffffffffffffffff163373ffffffffffffffffffffffffffffffffffffffff1614806129e45750600360008273ffffffffffffffffffffffffffffffffffffffff1673ffffffffffffffffffffffffffffffffffffffff16815260200190815260200160002060009054906101000a900473ffffffffffffffffffffffffffffffffffffffff1673ffffffffffffffffffffffffffffffffffffffff163373ffffffffffffffffffffffffffffffffffffffff16145b612a23576040517f08c379a0000000000000000000000000000000000000000000000000000000008152600401612a1a90613c93565b60405180910390fd5b6001600760008373ffffffffffffffffffffffffffffffffffffffff1673ffffffffffffffffffffffffffffffffffffffff16815260200190815260200160002060006101000a81548160ff02191690831515021790555060018060008373ffffffffffffffffffffffffffffffffffffffff1673ffffffffffffffffffffffffffffffffffffffff1681526020019081526020016000206000828254612aca9190613894565b925050819055508073ffffffffffffffffffffffffffffffffffffffff167fc1b5f12cea7c200ad495a43bf2d4c7ba1a753343c06c339093937849de84d91360405160405180910390a250565b600080fd5b600073ffffffffffffffffffffffffffffffffffffffff82169050919050565b6000612b4782612b1c565b9050919050565b612b5781612b3c565b8114612b6257600080fd5b50565b600081359050612b7481612b4e565b92915050565b600060208284031215612b9057612b8f612b17565b5b6000612b9e84828501612b65565b91505092915050565b6000819050919050565b612bba81612ba7565b82525050565b6000602082019050612bd56000830184612bb1565b92915050565b612be481612b3c565b82525050565b6000602082019050612bff6000830184612bdb565b92915050565b60008115159050919050565b612c1a81612c05565b82525050565b6000602082019050612c356000830184612c11565b92915050565b600060ff82169050919050565b612c5181612c3b565b8114612c5c57600080fd5b50565b600081359050612c6e81612c48565b92915050565b6000819050919050565b612c8781612c74565b8114612c9257600080fd5b50565b600081359050612ca481612c7e565b92915050565b600080600080600080600060e0888a031215612cc957612cc8612b17565b5b6000612cd78a828b01612b65565b9750506020612ce88a828b01612c5f565b9650506040612cf98a828b01612c95565b9550506060612d0a8a828b01612c95565b9450506080612d1b8a828b01612c5f565b93505060a0612d2c8a828b01612c95565b92505060c0612d3d8a828b01612c95565b91505092959891949750929550565b60008060008060008060008060006101208a8c031215612d6f57612d6e612b17565b5b6000612d7d8c828d01612b65565b9950506020612d8e8c828d01612c5f565b9850506040612d9f8c828d01612c95565b9750506060612db08c828d01612c95565b9650506080612dc18c828d01612c5f565b95505060a0612dd28c828d01612c95565b94505060c0612de38c828d01612c95565b93505060e0612df48c828d01612b65565b925050610100612e068c828d01612b65565b9150509295985092959850929598565b600080600080600060a08688031215612e3257612e31612b17565b5b6000612e4088828901612c5f565b9550506020612e5188828901612c95565b9450506040612e6288828901612c95565b9350506060612e7388828901612b65565b9250506080612e8488828901612b65565b9150509295509295909350565b600082825260208201905092915050565b7f5369676e6174614964656e746974793a20546865206964656e74697479206d7560008201527f73742065786973742e0000000000000000000000000000000000000000000000602082015250565b6000612efe602983612e91565b9150612f0982612ea2565b604082019050919050565b60006020820190508181036000830152612f2d81612ef1565b9050919050565b7f5369676e6174614964656e746974793a20546865206964656e7469747920686160008201527f73206265656e2064657374726f7965642e000000000000000000000000000000602082015250565b6000612f90603183612e91565b9150612f9b82612f34565b604082019050919050565b60006020820190508181036000830152612fbf81612f83565b9050919050565b7f5369676e6174614964656e746974793a205468652064656c6567617465206b6560008201527f792070726f7669646564206973206e6f74206c696e6b656420746f20616e206560208201527f78697374696e67206964656e746974792e000000000000000000000000000000604082015250565b6000613048605183612e91565b915061305382612fc6565b606082019050919050565b600060208201905081810360008301526130778161303b565b9050919050565b7f5369676e6174614964656e746974793a20546865206964656e7469747920686160008201527f7320616c7265616479206265656e2064657374726f7965642e00000000000000602082015250565b60006130da603983612e91565b91506130e58261307e565b604082019050919050565b60006020820190508181036000830152613109816130cd565b9050919050565b61311981612c74565b82525050565b60006020820190506131346000830184613110565b92915050565b600081905092915050565b7f1901000000000000000000000000000000000000000000000000000000000000600082015250565b600061317b60028361313a565b915061318682613145565b600282019050919050565b6000819050919050565b6131ac6131a782612c74565b613191565b82525050565b60006131bd8261316e565b91506131c9828561319b565b6020820191506131d9828461319b565b6020820191508190509392505050565b6131f281612c3b565b82525050565b600060808201905061320d6000830187613110565b61321a60208301866131e9565b6132276040830185613110565b6132346060830184613110565b95945050505050565b7f5369676e6174614964656e746974793a20496e76616c69642064656c6567617460008201527f65206b6579207369676e61747572652070726f76696465642e00000000000000602082015250565b6000613299603983612e91565b91506132a48261323d565b604082019050919050565b600060208201905081810360008301526132c88161328c565b9050919050565b7f5369676e6174614964656e746974793a20496e76616c6964207365637572697460008201527f79206b6579207369676e61747572652070726f76696465642e00000000000000602082015250565b600061332b603983612e91565b9150613336826132cf565b604082019050919050565b6000602082019050818103600083015261335a8161331e565b9050919050565b7f5369676e6174614964656e746974793a20546865206964656e7469747920697360008201527f20616c726561647920756e6c6f636b65642e0000000000000000000000000000602082015250565b60006133bd603283612e91565b91506133c882613361565b604082019050919050565b600060208201905081810360008301526133ec816133b0565b9050919050565b7f5369676e6174614964656e746974793a20546865206964656e7469747920697360008201527f207065726d616e656e746c79206c6f636b65642e000000000000000000000000602082015250565b600061344f603483612e91565b915061345a826133f3565b604082019050919050565b6000602082019050818103600083015261347e81613442565b9050919050565b7f5369676e6174614964656e746974793a205468652073656e646572206973207560008201527f6e617574686f726973656420746f20756e6c6f636b20746865206964656e746960208201527f74792e0000000000000000000000000000000000000000000000000000000000604082015250565b6000613507604383612e91565b915061351282613485565b606082019050919050565b60006020820190508181036000830152613536816134fa565b9050919050565b60006040820190506135526000830185613110565b61355f6020830184612bb1565b9392505050565b7f5369676e6174614964656e746974793a20546865206b657973206d757374206260008201527f6520756e697175652e0000000000000000000000000000000000000000000000602082015250565b60006135c2602983612e91565b91506135cd82613566565b604082019050919050565b600060208201905081810360008301526135f1816135b5565b9050919050565b7f5369676e6174614964656e746974793a20546865206e65772064656c6567617460008201527f65206b6579206d757374206e6f7420616c726561647920626520696e2075736560208201527f2e00000000000000000000000000000000000000000000000000000000000000604082015250565b600061367a604183612e91565b9150613685826135f8565b606082019050919050565b600060208201905081810360008301526136a98161366d565b9050919050565b7f5369676e6174614964656e746974793a205468652073656e646572206973207560008201527f6e617574686f726973656420746f20726f6c6c6f76657220746865206964656e60208201527f746974792e000000000000000000000000000000000000000000000000000000604082015250565b6000613732604583612e91565b915061373d826136b0565b606082019050919050565b6000602082019050818103600083015261376181613725565b9050919050565b7f5369676e6174614964656e746974793a20546865206964656e7469747920686160008201527f7320616c7265616479207265616368656420746865206d6178696d756d206e7560208201527f6d626572206f6620726f6c6c6f7665727320616c6c6f7765642e000000000000604082015250565b60006137ea605a83612e91565b91506137f582613768565b606082019050919050565b60006020820190508181036000830152613819816137dd565b9050919050565b60006080820190506138356000830187613110565b6138426020830186612bdb565b61384f6040830185612bdb565b61385c6060830184612bb1565b95945050505050565b7f4e487b7100000000000000000000000000000000000000000000000000000000600052601160045260246000fd5b600061389f82612ba7565b91506138aa83612ba7565b9250827fffffffffffffffffffffffffffffffffffffffffffffffffffffffffffffffff038211156138df576138de613865565b5b828201905092915050565b7f5369676e6174614964656e746974793a2044656c6567617465206b6579206d7560008201527f7374206e6f7420616c726561647920626520696e207573652e00000000000000602082015250565b6000613946603983612e91565b9150613951826138ea565b604082019050919050565b6000602082019050818103600083015261397581613939565b9050919050565b60006060820190506139916000830186613110565b61399e6020830185612bdb565b6139ab6040830184612bdb565b949350505050565b7f5369676e6174614964656e746974793a20546865206964656e7469747920746f60008201527f2062652063726561746564206d757374206d617463682074686520616464726560208201527f7373206f66207468652073656e6465722e000000000000000000000000000000604082015250565b6000613a35605183612e91565b9150613a40826139b3565b606082019050919050565b60006020820190508181036000830152613a6481613a28565b9050919050565b7f5369676e6174614964656e746974793a204b657973206d75737420626520756e60008201527f697175652e000000000000000000000000000000000000000000000000000000602082015250565b6000613ac7602583612e91565b9150613ad282613a6b565b604082019050919050565b60006020820190508181036000830152613af681613aba565b9050919050565b7f5369676e6174614964656e746974793a20546865206964656e74697479206d7560008201527f7374206e6f7420616c72656164792065786973742e0000000000000000000000602082015250565b6000613b59603583612e91565b9150613b6482613afd565b604082019050919050565b60006020820190508181036000830152613b8881613b4c565b9050919050565b7f5369676e6174614964656e746974793a20546865206964656e7469747920686160008201527f7320616c7265616479206265656e206c6f636b65642e00000000000000000000602082015250565b6000613beb603683612e91565b9150613bf682613b8f565b604082019050919050565b60006020820190508181036000830152613c1a81613bde565b9050919050565b7f5369676e6174614964656e746974793a205468652073656e646572206973207560008201527f6e617574686f726973656420746f206c6f636b206964656e746974792e000000602082015250565b6000613c7d603d83612e91565b9150613c8882613c21565b604082019050919050565b60006020820190508181036000830152613cac81613c70565b905091905056fea2646970667358221220f1e615cccf1ee6d01bfe4c785fc2d4de29b5b80aeed49c7ee32173cde19a9efb64736f6c634300080a0033",
  "immutableReferences": {
    "2227": [
      {
        "length": 32,
        "start": 1770
      },
      {
        "length": 32,
        "start": 4846
      },
      {
        "length": 32,
        "start": 7029
      },
      {
        "length": 32,
        "start": 8717
      }
    ]
  },
  "source": "// SPDX-License-Identifier: MIT\r\n\r\npragma solidity 0.8.10;\r\n\r\ncontract SignataIdentity {\r\n    uint256 private constant MAX_UINT256 = type(uint256).max;\r\n    \r\n    // keccak256(\"EIP712Domain(string name,string version,uint256 chainId,address verifyingContract,bytes32 salt)\")\r\n    bytes32 private constant EIP712DOMAINTYPE_DIGEST = 0xd87cd6ef79d4e2b95e15ce8abf732db51ec771f1ca2edccf22a46c729ac56472;\r\n    \r\n    // keccak256(\"Signata\")\r\n    bytes32 private constant NAME_DIGEST = 0xfc8e166e81add347414f67a8064c94523802ae76625708af4cddc107b656844f;\r\n    \r\n    // keccak256(\"1\")\r\n    bytes32 private constant VERSION_DIGEST = 0xc89efdaa54c0f20c7adf612882df0950f5a951637e0307cdcb4c672f298b8bc6;\r\n    \r\n    bytes32 private constant SALT = 0x233cdb81615d25013bb0519fbe69c16ddc77f9fa6a9395bd2aecfdfc1c0896e3;\r\n    \r\n    // keccak256(\"SignataIdentityCreateTransaction(address delegateKey, address securityKey)\")\r\n    bytes32 private constant TXTYPE_CREATE_DIGEST = 0x469a26f6afcc5806677c064ceb4b952f409123d7e70ab1fd0a51e86205b9937b;   \r\n    \r\n    // keccak256(\"SignataIdentityRolloverTransaction(address identity, address newDelegateKey, address newSecurityKey, uint256 rolloverCount)\")\r\n    bytes32 private constant TXTYPE_ROLLOVER_DIGEST = 0x3925a5eeb744076e798ef9df4a1d3e1d70bcca2f478f6df9e6f0496d7de53e1e;\r\n    \r\n    // keccak256(\"SignataIdentityUnlockTransaction(uint256 lockCount)\")\r\n    bytes32 private constant TXTYPE_UNLOCK_DIGEST = 0xd814812ff462bae7ba452aadd08061fe1b4bda9916c0c4a84c25a78985670a7b;\r\n    \r\n    // keccak256(\"SignataIdentityDestroyTransaction()\");\r\n    bytes32 private constant TXTYPE_DESTROY_DIGEST = 0x21459c8977584463672e32d031e5caf426140890a0f0d2172da41491b70ef9f5;\r\n    \r\n    bytes32 private immutable _domainSeperator;\r\n    \r\n    // storage\r\n    mapping(address => address) private _delegateKeyToIdentity;\r\n    mapping(address => uint256) private _identityLockCount;\r\n    mapping(address => uint256) private _identityRolloverCount;\r\n    mapping(address => address) private _identityToSecurityKey;\r\n    mapping(address => address) private _identityToDelegateKey;\r\n    mapping(address => bool) private _identityDestroyed;\r\n    mapping(address => bool) private _identityExists;\r\n    mapping(address => bool) private _identityLocked;\r\n    \r\n    constructor(uint256 chainId) {\r\n        _domainSeperator = keccak256(\r\n            abi.encode(\r\n                EIP712DOMAINTYPE_DIGEST,\r\n                NAME_DIGEST,\r\n                VERSION_DIGEST,\r\n                chainId,\r\n                this,\r\n                SALT\r\n            )\r\n        );\r\n    }\r\n    \r\n    event Create(address indexed identity, address indexed delegateKey, address indexed securityKey);\r\n    event Destroy(address indexed identity);\r\n    event Lock(address indexed identity);\r\n    event Rollover(address indexed identity, address indexed delegateKey, address indexed securityKey);\r\n    event Unlock(address indexed identity);\r\n    \r\n    function create(\r\n        uint8 identityV, \r\n        bytes32 identityR, \r\n        bytes32 identityS, \r\n        address delegateKey, \r\n        address securityKey\r\n    ) external {\r\n        require(\r\n            _delegateKeyToIdentity[delegateKey] == address(0),\r\n            \"SignataIdentity: Delegate key must not already be in use.\"\r\n        );\r\n        \r\n        bytes32 digest = keccak256(\r\n            abi.encodePacked(\r\n                \"\\x19\\x01\",\r\n                _domainSeperator,\r\n                keccak256(\r\n                    abi.encode(\r\n                        TXTYPE_CREATE_DIGEST,\r\n                        delegateKey,\r\n                        securityKey\r\n                    )\r\n                )\r\n            )\r\n        );\r\n        \r\n        address identity = ecrecover(digest, identityV, identityR, identityS);\r\n        \r\n        require(\r\n            msg.sender == identity,\r\n            \"SignataIdentity: The identity to be created must match the address of the sender.\"\r\n        );\r\n        \r\n        require(\r\n            identity != delegateKey && identity != securityKey && delegateKey != securityKey,\r\n            \"SignataIdentity: Keys must be unique.\"\r\n        );\r\n        \r\n        require(\r\n            !_identityExists[identity],\r\n            \"SignataIdentity: The identity must not already exist.\"\r\n        );\r\n        \r\n        _delegateKeyToIdentity[delegateKey] = identity;\r\n        _identityToDelegateKey[identity] = delegateKey;\r\n        _identityExists[identity] = true;\r\n        _identityToSecurityKey[identity] = securityKey;\r\n        \r\n        emit Create(identity, delegateKey, securityKey);\r\n    }\r\n    \r\n    function destroy(\r\n        address identity,\r\n        uint8 delegateV,\r\n        bytes32 delegateR, \r\n        bytes32 delegateS,\r\n        uint8 securityV,\r\n        bytes32 securityR, \r\n        bytes32 securityS\r\n    ) external {\r\n        require(\r\n            _identityExists[identity],\r\n            \"SignataIdentity: The identity must exist.\"\r\n        );\r\n        \r\n        require(\r\n            !_identityDestroyed[identity],\r\n            \"SignataIdentity: The identity has already been destroyed.\"\r\n        );\r\n        \r\n        bytes32 digest = keccak256(\r\n            abi.encodePacked(\r\n                \"\\x19\\x01\",\r\n                _domainSeperator,\r\n                keccak256(abi.encode(TXTYPE_DESTROY_DIGEST))\r\n            )\r\n        );\r\n        \r\n        address delegateKey = ecrecover(digest, delegateV, delegateR, delegateS);\r\n        \r\n        require(\r\n            _identityToDelegateKey[identity] == delegateKey,\r\n            \"SignataIdentity: Invalid delegate key signature provided.\"\r\n        );\r\n        \r\n        address securityKey = ecrecover(digest, securityV, securityR, securityS);\r\n        \r\n        require(\r\n            _identityToSecurityKey[identity] == securityKey,\r\n            \"SignataIdentity: Invalid security key signature provided.\"\r\n        );\r\n        \r\n        _identityDestroyed[identity] = true;\r\n        \r\n        delete _delegateKeyToIdentity[delegateKey];\r\n        delete _identityLockCount[identity];\r\n        delete _identityRolloverCount[identity];\r\n        delete _identityToSecurityKey[identity];\r\n        delete _identityToDelegateKey[identity];\r\n        delete _identityLocked[identity];\r\n        \r\n        emit Destroy(identity);\r\n    }\r\n    \r\n    function lock(address identity) external {\r\n        require(\r\n            _identityExists[identity],\r\n            \"SignataIdentity: The identity must exist.\"\r\n        );\r\n        \r\n        require(\r\n            !_identityDestroyed[identity],\r\n            \"SignataIdentity: The identity has been destroyed.\"\r\n        );\r\n        \r\n        require(\r\n            !_identityLocked[identity],\r\n            \"SignataIdentity: The identity has already been locked.\"\r\n        );\r\n        \r\n        require(\r\n            msg.sender == _identityToDelegateKey[identity] || msg.sender == _identityToSecurityKey[identity],\r\n            \"SignataIdentity: The sender is unauthorised to lock identity.\"\r\n        );\r\n        \r\n        _identityLocked[identity] = true;\r\n        _identityLockCount[identity] += 1;\r\n        \r\n        emit Lock(identity);\r\n    }\r\n    \r\n    function getDelegate(address identity)\r\n        external\r\n        view\r\n        returns (address)\r\n    {\r\n        require(\r\n            _identityExists[identity],\r\n            \"SignataIdentity: The identity must exist.\"\r\n        );\r\n        \r\n        require(\r\n            !_identityDestroyed[identity],\r\n            \"SignataIdentity: The identity has been destroyed.\"\r\n        );\r\n        \r\n        return _identityToDelegateKey[identity];\r\n    }\r\n    \r\n    function getIdentity(address delegateKey) \r\n        external\r\n        view \r\n        returns (address) \r\n    {\r\n        address identity = _delegateKeyToIdentity[delegateKey];\r\n        \r\n        require(\r\n            identity != address(0),\r\n            \"SignataIdentity: The delegate key provided is not linked to an existing identity.\"\r\n        );\r\n        \r\n        return identity;\r\n    }\r\n\r\n    function getLockCount(address identity)\r\n        external\r\n        view\r\n        returns (uint256) \r\n    {\r\n         require(\r\n            _identityExists[identity],\r\n            \"SignataIdentity: The identity must exist.\"\r\n        );\r\n        \r\n        require(\r\n            !_identityDestroyed[identity],\r\n            \"SignataIdentity: The identity has been destroyed.\"\r\n        );\r\n        \r\n        return _identityLockCount[identity];\r\n    }    \r\n    \r\n    function getRolloverCount(address identity)\r\n        external\r\n        view\r\n        returns (uint256) \r\n    {\r\n        require(\r\n            _identityExists[identity],\r\n            \"SignataIdentity: The identity must exist.\"\r\n        );\r\n        \r\n        require(\r\n            !_identityDestroyed[identity],\r\n            \"SignataIdentity: The identity has been destroyed.\"\r\n        );\r\n        \r\n        return _identityRolloverCount[identity];\r\n    }\r\n    \r\n    function isLocked(address identity)\r\n        external\r\n        view\r\n        returns (bool) \r\n    {\r\n        require(\r\n            _identityExists[identity],\r\n            \"SignataIdentity: The identity must exist.\"\r\n        );\r\n        \r\n        require(\r\n            !_identityDestroyed[identity],\r\n            \"SignataIdentity: The identity has been destroyed.\"\r\n        );\r\n        \r\n        return _identityLocked[identity];\r\n    }\r\n    \r\n    function rollover(\r\n        address identity,\r\n        uint8 delegateV, \r\n        bytes32 delegateR, \r\n        bytes32 delegateS, \r\n        uint8 securityV, \r\n        bytes32 securityR, \r\n        bytes32 securityS,\r\n        address newDelegateKey, \r\n        address newSecurityKey\r\n    ) \r\n        external \r\n    {\r\n        require(\r\n            _identityExists[identity],\r\n            \"SignataIdentity: The identity must exist.\"\r\n        );\r\n        \r\n        require(\r\n            !_identityDestroyed[identity],\r\n            \"SignataIdentity: The identity has been destroyed.\"\r\n        );\r\n        \r\n        require(\r\n            identity != newDelegateKey && identity != newSecurityKey && newDelegateKey != newSecurityKey,\r\n            \"SignataIdentity: The keys must be unique.\"\r\n        );\r\n        \r\n        require(\r\n            _delegateKeyToIdentity[newDelegateKey] == address(0),\r\n            \"SignataIdentity: The new delegate key must not already be in use.\"\r\n        );\r\n        \r\n        require(\r\n            msg.sender == _identityToDelegateKey[identity] || msg.sender == _identityToSecurityKey[identity],\r\n            \"SignataIdentity: The sender is unauthorised to rollover the identity.\"\r\n        );\r\n        \r\n        require(\r\n            _identityRolloverCount[identity] != MAX_UINT256,\r\n            \"SignataIdentity: The identity has already reached the maximum number of rollovers allowed.\"\r\n        );\r\n        \r\n        bytes32 digest = keccak256(\r\n            abi.encodePacked(\r\n                \"\\x19\\x01\",\r\n                _domainSeperator,\r\n                keccak256(\r\n                    abi.encode(\r\n                        TXTYPE_ROLLOVER_DIGEST,\r\n                        newDelegateKey,\r\n                        newSecurityKey,\r\n                        _identityRolloverCount[identity]\r\n                    )\r\n                )\r\n            )\r\n        );\r\n        \r\n        address delegateKey = ecrecover(digest, delegateV, delegateR, delegateS);\r\n        \r\n        require(\r\n            _identityToDelegateKey[identity] == delegateKey,\r\n            \"SignataIdentity: Invalid delegate key signature provided.\"\r\n        );\r\n        \r\n        address securityKey = ecrecover(digest, securityV, securityR, securityS);\r\n        \r\n        require(\r\n            _identityToSecurityKey[identity] == securityKey,\r\n            \"SignataIdentity: Invalid delegate key signature provided.\"\r\n        );\r\n        \r\n        delete _delegateKeyToIdentity[delegateKey];\r\n        \r\n        _delegateKeyToIdentity[newDelegateKey] = identity;\r\n        _identityToDelegateKey[identity] = newDelegateKey;\r\n        _identityToSecurityKey[identity] = newSecurityKey;\r\n        _identityRolloverCount[identity] += 1;\r\n        \r\n        emit Rollover(identity, newDelegateKey, newSecurityKey);\r\n    }\r\n    \r\n    function unlock(\r\n        address identity,\r\n        uint8 delegateV, \r\n        bytes32 delegateR, \r\n        bytes32 delegateS, \r\n        uint8 securityV, \r\n        bytes32 securityR, \r\n        bytes32 securityS\r\n    ) \r\n        external \r\n    {\r\n        require(\r\n            _identityExists[identity],\r\n            \"SignataIdentity: The identity must exist.\"\r\n        );\r\n        \r\n        require(\r\n            !_identityDestroyed[identity],\r\n            \"SignataIdentity: The identity has been destroyed.\"\r\n        );\r\n        \r\n        require(\r\n            _identityLocked[identity],\r\n            \"SignataIdentity: The identity is already unlocked.\"\r\n        );\r\n        \r\n        require(\r\n            _identityLockCount[identity] != MAX_UINT256,\r\n            \"SignataIdentity: The identity is permanently locked.\"\r\n        );\r\n        \r\n        require(\r\n            msg.sender == _identityToDelegateKey[identity] || msg.sender == _identityToSecurityKey[identity],\r\n            \"SignataIdentity: The sender is unauthorised to unlock the identity.\"\r\n        );\r\n        \r\n        bytes32 digest = keccak256(\r\n            abi.encodePacked(\r\n                \"\\x19\\x01\",\r\n                _domainSeperator,\r\n                keccak256(\r\n                    abi.encode(\r\n                        TXTYPE_UNLOCK_DIGEST,\r\n                        _identityLockCount[identity]\r\n                    )\r\n                )\r\n            )\r\n        );\r\n        \r\n        address delegateKey = ecrecover(digest, delegateV, delegateR, delegateS);\r\n        \r\n        require(\r\n            _identityToDelegateKey[identity] == delegateKey,\r\n            \"SignataIdentity: Invalid delegate key signature provided.\"\r\n        );\r\n        \r\n        address securityKey = ecrecover(digest, securityV, securityR, securityS);\r\n        \r\n        require(\r\n            _identityToSecurityKey[identity] == securityKey,\r\n            \"SignataIdentity: Invalid security key signature provided.\"\r\n        );\r\n        \r\n        _identityLocked[identity] = false;\r\n        \r\n        emit Unlock(identity);\r\n    }\r\n}",
  "sourcePath": "C:\\Users\\tim\\Projects\\GitHub\\sata-contracts-v1\\contracts\\SignataIdentity.sol",
  "compiler": {
    "name": "solc",
    "version": "0.8.10+commit.fc410830.Emscripten.clang"
  },
  "schemaVersion": "3.4.3",
  "updatedAt": "2021-12-20T12:16:39.957Z",
  "devdoc": {
    "kind": "dev",
    "methods": {},
    "version": 1
  },
  "userdoc": {
    "kind": "user",
    "methods": {},
    "version": 1
  }
}