{
  "contractName": "SignataAvatar",
  "abi": [
    {
      "inputs": [
        {
          "internalType": "string",
          "name": "name_",
          "type": "string"
        },
        {
          "internalType": "string",
          "name": "symbol_",
          "type": "string"
        },
        {
          "internalType": "string",
          "name": "minterSchemeURI_",
          "type": "string"
        },
        {
          "internalType": "address",
          "name": "rootAdmin_",
          "type": "address"
        },
        {
          "internalType": "address",
          "name": "signataIdentity_",
          "type": "address"
        },
        {
          "internalType": "address",
          "name": "signataRight_",
          "type": "address"
        }
      ],
      "stateMutability": "nonpayable",
      "type": "constructor"
    },
    {
      "anonymous": false,
      "inputs": [
        {
          "indexed": true,
          "internalType": "address",
          "name": "owner",
          "type": "address"
        },
        {
          "indexed": true,
          "internalType": "address",
          "name": "approved",
          "type": "address"
        },
        {
          "indexed": true,
          "internalType": "uint256",
          "name": "tokenId",
          "type": "uint256"
        }
      ],
      "name": "Approval",
      "type": "event"
    },
    {
      "anonymous": false,
      "inputs": [
        {
          "indexed": true,
          "internalType": "address",
          "name": "owner",
          "type": "address"
        },
        {
          "indexed": true,
          "internalType": "address",
          "name": "operator",
          "type": "address"
        },
        {
          "indexed": false,
          "internalType": "bool",
          "name": "approved",
          "type": "bool"
        }
      ],
      "name": "ApprovalForAll",
      "type": "event"
    },
    {
      "anonymous": false,
      "inputs": [
        {
          "indexed": true,
          "internalType": "uint256",
          "name": "avatarId",
          "type": "uint256"
        },
        {
          "indexed": false,
          "internalType": "bytes",
          "name": "avatar",
          "type": "bytes"
        }
      ],
      "name": "MintAvatar",
      "type": "event"
    },
    {
      "anonymous": false,
      "inputs": [
        {
          "indexed": true,
          "internalType": "address",
          "name": "identity",
          "type": "address"
        },
        {
          "indexed": true,
          "internalType": "uint256",
          "name": "avatarId",
          "type": "uint256"
        }
      ],
      "name": "SetPrimary",
      "type": "event"
    },
    {
      "anonymous": false,
      "inputs": [
        {
          "indexed": true,
          "internalType": "address",
          "name": "from",
          "type": "address"
        },
        {
          "indexed": true,
          "internalType": "address",
          "name": "to",
          "type": "address"
        },
        {
          "indexed": true,
          "internalType": "uint256",
          "name": "tokenId",
          "type": "uint256"
        }
      ],
      "name": "Transfer",
      "type": "event"
    },
    {
      "inputs": [
        {
          "internalType": "bytes4",
          "name": "interfaceId",
          "type": "bytes4"
        }
      ],
      "name": "supportsInterface",
      "outputs": [
        {
          "internalType": "bool",
          "name": "",
          "type": "bool"
        }
      ],
      "stateMutability": "pure",
      "type": "function"
    },
    {
      "inputs": [],
      "name": "getMintingSchema",
      "outputs": [
        {
          "internalType": "uint256",
          "name": "",
          "type": "uint256"
        }
      ],
      "stateMutability": "view",
      "type": "function"
    },
    {
      "inputs": [
        {
          "internalType": "address",
          "name": "to",
          "type": "address"
        },
        {
          "internalType": "bytes",
          "name": "avatar",
          "type": "bytes"
        }
      ],
      "name": "mintAvatar",
      "outputs": [
        {
          "internalType": "uint256",
          "name": "",
          "type": "uint256"
        }
      ],
      "stateMutability": "nonpayable",
      "type": "function"
    },
    {
      "inputs": [
        {
          "internalType": "address",
          "name": "delegate",
          "type": "address"
        }
      ],
      "name": "getPrimaryAvatar",
      "outputs": [
        {
          "internalType": "uint256",
          "name": "",
          "type": "uint256"
        }
      ],
      "stateMutability": "view",
      "type": "function"
    },
    {
      "inputs": [
        {
          "internalType": "uint256",
          "name": "avatarId",
          "type": "uint256"
        }
      ],
      "name": "setPrimaryAvatar",
      "outputs": [],
      "stateMutability": "nonpayable",
      "type": "function"
    },
    {
      "inputs": [
        {
          "internalType": "address",
          "name": "owner",
          "type": "address"
        }
      ],
      "name": "balanceOf",
      "outputs": [
        {
          "internalType": "uint256",
          "name": "",
          "type": "uint256"
        }
      ],
      "stateMutability": "view",
      "type": "function"
    },
    {
      "inputs": [
        {
          "internalType": "uint256",
          "name": "tokenId",
          "type": "uint256"
        }
      ],
      "name": "ownerOf",
      "outputs": [
        {
          "internalType": "address",
          "name": "",
          "type": "address"
        }
      ],
      "stateMutability": "view",
      "type": "function"
    },
    {
      "inputs": [],
      "name": "name",
      "outputs": [
        {
          "internalType": "string",
          "name": "",
          "type": "string"
        }
      ],
      "stateMutability": "view",
      "type": "function"
    },
    {
      "inputs": [],
      "name": "symbol",
      "outputs": [
        {
          "internalType": "string",
          "name": "",
          "type": "string"
        }
      ],
      "stateMutability": "view",
      "type": "function"
    },
    {
      "inputs": [
        {
          "internalType": "uint256",
          "name": "tokenId",
          "type": "uint256"
        }
      ],
      "name": "tokenURI",
      "outputs": [
        {
          "internalType": "string",
          "name": "",
          "type": "string"
        }
      ],
      "stateMutability": "view",
      "type": "function"
    },
    {
      "inputs": [
        {
          "internalType": "address",
          "name": "to",
          "type": "address"
        },
        {
          "internalType": "uint256",
          "name": "tokenId",
          "type": "uint256"
        }
      ],
      "name": "approve",
      "outputs": [],
      "stateMutability": "nonpayable",
      "type": "function"
    },
    {
      "inputs": [
        {
          "internalType": "uint256",
          "name": "tokenId",
          "type": "uint256"
        }
      ],
      "name": "getApproved",
      "outputs": [
        {
          "internalType": "address",
          "name": "",
          "type": "address"
        }
      ],
      "stateMutability": "view",
      "type": "function"
    },
    {
      "inputs": [
        {
          "internalType": "address",
          "name": "operator",
          "type": "address"
        },
        {
          "internalType": "bool",
          "name": "approved",
          "type": "bool"
        }
      ],
      "name": "setApprovalForAll",
      "outputs": [],
      "stateMutability": "nonpayable",
      "type": "function"
    },
    {
      "inputs": [
        {
          "internalType": "address",
          "name": "owner",
          "type": "address"
        },
        {
          "internalType": "address",
          "name": "operator",
          "type": "address"
        }
      ],
      "name": "isApprovedForAll",
      "outputs": [
        {
          "internalType": "bool",
          "name": "",
          "type": "bool"
        }
      ],
      "stateMutability": "view",
      "type": "function"
    },
    {
      "inputs": [
        {
          "internalType": "address",
          "name": "from",
          "type": "address"
        },
        {
          "internalType": "address",
          "name": "to",
          "type": "address"
        },
        {
          "internalType": "uint256",
          "name": "tokenId",
          "type": "uint256"
        }
      ],
      "name": "transferFrom",
      "outputs": [],
      "stateMutability": "nonpayable",
      "type": "function"
    },
    {
      "inputs": [
        {
          "internalType": "address",
          "name": "from",
          "type": "address"
        },
        {
          "internalType": "address",
          "name": "to",
          "type": "address"
        },
        {
          "internalType": "uint256",
          "name": "tokenId",
          "type": "uint256"
        }
      ],
      "name": "safeTransferFrom",
      "outputs": [],
      "stateMutability": "nonpayable",
      "type": "function"
    },
    {
      "inputs": [
        {
          "internalType": "address",
          "name": "from",
          "type": "address"
        },
        {
          "internalType": "address",
          "name": "to",
          "type": "address"
        },
        {
          "internalType": "uint256",
          "name": "tokenId",
          "type": "uint256"
        },
        {
          "internalType": "bytes",
          "name": "_data",
          "type": "bytes"
        }
      ],
      "name": "safeTransferFrom",
      "outputs": [],
      "stateMutability": "nonpayable",
      "type": "function"
    },
    {
      "inputs": [
        {
          "internalType": "address",
          "name": "owner",
          "type": "address"
        },
        {
          "internalType": "uint256",
          "name": "index",
          "type": "uint256"
        }
      ],
      "name": "tokenOfOwnerByIndex",
      "outputs": [
        {
          "internalType": "uint256",
          "name": "",
          "type": "uint256"
        }
      ],
      "stateMutability": "view",
      "type": "function"
    },
    {
      "inputs": [],
      "name": "totalSupply",
      "outputs": [
        {
          "internalType": "uint256",
          "name": "",
          "type": "uint256"
        }
      ],
      "stateMutability": "view",
      "type": "function"
    },
    {
      "inputs": [
        {
          "internalType": "uint256",
          "name": "index",
          "type": "uint256"
        }
      ],
      "name": "tokenByIndex",
      "outputs": [
        {
          "internalType": "uint256",
          "name": "",
          "type": "uint256"
        }
      ],
      "stateMutability": "view",
      "type": "function"
    }
  ],
  "bytecode": "0x60a06040523480156200001157600080fd5b50604051620050fd380380620050fd833981810160405281019062000037919062000314565b85600090805190602001906200004f929190620001b8565b50846001908051906020019062000068929190620001b8565b5081600260006101000a81548173ffffffffffffffffffffffffffffffffffffffff021916908373ffffffffffffffffffffffffffffffffffffffff16021790555080600360006101000a81548173ffffffffffffffffffffffffffffffffffffffff021916908373ffffffffffffffffffffffffffffffffffffffff160217905550600360009054906101000a900473ffffffffffffffffffffffffffffffffffffffff1673ffffffffffffffffffffffffffffffffffffffff1663b4b44b4184600180886040518563ffffffff1660e01b81526004016200014f9493929190620004a2565b602060405180830381600087803b1580156200016a57600080fd5b505af11580156200017f573d6000803e3d6000fd5b505050506040513d601f19601f82011682018060405250810190620001a591906200040d565b6080818152505050505050505062000714565b828054620001c690620005f1565b90600052602060002090601f016020900481019282620001ea576000855562000236565b82601f106200020557805160ff191683800117855562000236565b8280016001018555821562000236579182015b828111156200023557825182559160200191906001019062000218565b5b50905062000245919062000249565b5090565b5b80821115620002645760008160009055506001016200024a565b5090565b60006200027f62000279846200051f565b620004f6565b9050828152602081018484840111156200029e576200029d620006c0565b5b620002ab848285620005bb565b509392505050565b600081519050620002c481620006e0565b92915050565b600082601f830112620002e257620002e1620006bb565b5b8151620002f484826020860162000268565b91505092915050565b6000815190506200030e81620006fa565b92915050565b60008060008060008060c08789031215620003345762000333620006ca565b5b600087015167ffffffffffffffff811115620003555762000354620006c5565b5b6200036389828a01620002ca565b965050602087015167ffffffffffffffff811115620003875762000386620006c5565b5b6200039589828a01620002ca565b955050604087015167ffffffffffffffff811115620003b957620003b8620006c5565b5b620003c789828a01620002ca565b9450506060620003da89828a01620002b3565b9350506080620003ed89828a01620002b3565b92505060a06200040089828a01620002b3565b9150509295509295509295565b600060208284031215620004265762000425620006ca565b5b60006200043684828501620002fd565b91505092915050565b6200044a8162000571565b82525050565b6200045b8162000585565b82525050565b60006200046e8262000555565b6200047a818562000560565b93506200048c818560208601620005bb565b6200049781620006cf565b840191505092915050565b6000608082019050620004b960008301876200043f565b620004c8602083018662000450565b620004d7604083018562000450565b8181036060830152620004eb818462000461565b905095945050505050565b60006200050262000515565b905062000510828262000627565b919050565b6000604051905090565b600067ffffffffffffffff8211156200053d576200053c6200068c565b5b6200054882620006cf565b9050602081019050919050565b600081519050919050565b600082825260208201905092915050565b60006200057e8262000591565b9050919050565b60008115159050919050565b600073ffffffffffffffffffffffffffffffffffffffff82169050919050565b6000819050919050565b60005b83811015620005db578082015181840152602081019050620005be565b83811115620005eb576000848401525b50505050565b600060028204905060018216806200060a57607f821691505b602082108114156200062157620006206200065d565b5b50919050565b6200063282620006cf565b810181811067ffffffffffffffff821117156200065457620006536200068c565b5b80604052505050565b7f4e487b7100000000000000000000000000000000000000000000000000000000600052602260045260246000fd5b7f4e487b7100000000000000000000000000000000000000000000000000000000600052604160045260246000fd5b600080fd5b600080fd5b600080fd5b600080fd5b6000601f19601f8301169050919050565b620006eb8162000571565b8114620006f757600080fd5b50565b6200070581620005b1565b81146200071157600080fd5b50565b6080516149c66200073760003960008181610bc70152611de101526149c66000f3fe608060405234801561001057600080fd5b506004361061012c5760003560e01c80635923276d116100ad578063b75cb9be11610071578063b75cb9be14610369578063b88d4fde14610399578063c87b56dd146103b5578063e985e9c5146103e5578063ef449b37146104155761012c565b80635923276d1461029f5780636352211e146102cf57806370a08231146102ff57806395d89b411461032f578063a22cb4651461034d5761012c565b806318160ddd116100f457806318160ddd146101e957806323b872dd146102075780632f745c591461022357806342842e0e146102535780634f6ccce71461026f5761012c565b806301ffc9a71461013157806306fdde0314610161578063081812fc1461017f578063095ea7b3146101af578063098b9341146101cb575b600080fd5b61014b60048036038101906101469190613744565b610431565b6040516101589190613bfe565b60405180910390f35b6101696105d3565b6040516101769190613c3d565b60405180910390f35b6101996004803603810190610194919061379e565b610665565b6040516101a69190613b6e565b60405180910390f35b6101c960048036038101906101c491906136d7565b610744565b005b6101d3610bc3565b6040516101e09190613ebf565b60405180910390f35b6101f1610beb565b6040516101fe9190613ebf565b60405180910390f35b610221600480360381019061021c9190613561565b610bf8565b005b61023d600480360381019061023891906136d7565b611888565b60405161024a9190613ebf565b60405180910390f35b61026d60048036038101906102689190613561565b611a40565b005b6102896004803603810190610284919061379e565b611a60565b6040516102969190613ebf565b60405180910390f35b6102b960048036038101906102b49190613677565b611acf565b6040516102c69190613ebf565b60405180910390f35b6102e960048036038101906102e4919061379e565b6122f5565b6040516102f69190613b6e565b60405180910390f35b610319600480360381019061031491906134c7565b61247f565b6040516103269190613ebf565b60405180910390f35b6103376125de565b6040516103449190613c3d565b60405180910390f35b61036760048036038101906103629190613637565b612670565b005b610383600480360381019061037e91906134c7565b612a13565b6040516103909190613ebf565b60405180910390f35b6103b360048036038101906103ae91906135b4565b612b38565b005b6103cf60048036038101906103ca919061379e565b612b94565b6040516103dc9190613c3d565b60405180910390f35b6103ff60048036038101906103fa9190613521565b612cdc565b60405161040c9190613bfe565b60405180910390f35b61042f600480360381019061042a919061379e565b612e49565b005b60007f01ffc9a7000000000000000000000000000000000000000000000000000000007bffffffffffffffffffffffffffffffffffffffffffffffffffffffff1916827bffffffffffffffffffffffffffffffffffffffffffffffffffffffff191614806104fc57507f80ac58cd000000000000000000000000000000000000000000000000000000007bffffffffffffffffffffffffffffffffffffffffffffffffffffffff1916827bffffffffffffffffffffffffffffffffffffffffffffffffffffffff1916145b8061056457507f780e9d63000000000000000000000000000000000000000000000000000000007bffffffffffffffffffffffffffffffffffffffffffffffffffffffff1916827bffffffffffffffffffffffffffffffffffffffffffffffffffffffff1916145b806105cc57507f5b5e139f000000000000000000000000000000000000000000000000000000007bffffffffffffffffffffffffffffffffffffffffffffffffffffffff1916827bffffffffffffffffffffffffffffffffffffffffffffffffffffffff1916145b9050919050565b6060600080546105e2906140b3565b80601f016020809104026020016040519081016040528092919081815260200182805461060e906140b3565b801561065b5780601f106106305761010080835404028352916020019161065b565b820191906000526020600020905b81548152906001019060200180831161063e57829003601f168201915b5050505050905090565b60008073ffffffffffffffffffffffffffffffffffffffff166004600084815260200190815260200160002060009054906101000a900473ffffffffffffffffffffffffffffffffffffffff1673ffffffffffffffffffffffffffffffffffffffff161415610709576040517f08c379a000000000000000000000000000000000000000000000000000000000815260040161070090613e7f565b60405180910390fd5b6007600083815260200190815260200160002060009054906101000a900473ffffffffffffffffffffffffffffffffffffffff169050919050565b60006004600083815260200190815260200160002060009054906101000a900473ffffffffffffffffffffffffffffffffffffffff169050600073ffffffffffffffffffffffffffffffffffffffff168173ffffffffffffffffffffffffffffffffffffffff1614156107ec576040517f08c379a00000000000000000000000000000000000000000000000000000000081526004016107e390613d1f565b60405180910390fd5b8073ffffffffffffffffffffffffffffffffffffffff168373ffffffffffffffffffffffffffffffffffffffff16141561085b576040517f08c379a000000000000000000000000000000000000000000000000000000000815260040161085290613c9f565b60405180910390fd5b600061087c8273ffffffffffffffffffffffffffffffffffffffff166131cb565b1561088957819050610a91565b600260009054906101000a900473ffffffffffffffffffffffffffffffffffffffff1673ffffffffffffffffffffffffffffffffffffffff1663544d8564836040518263ffffffff1660e01b81526004016108e49190613b6e565b60206040518083038186803b1580156108fc57600080fd5b505afa158015610910573d6000803e3d6000fd5b505050506040513d601f19601f8201168201806040525081019061093491906134f4565b90508073ffffffffffffffffffffffffffffffffffffffff168473ffffffffffffffffffffffffffffffffffffffff1614156109a5576040517f08c379a000000000000000000000000000000000000000000000000000000000815260040161099c90613c9f565b60405180910390fd5b600260009054906101000a900473ffffffffffffffffffffffffffffffffffffffff1673ffffffffffffffffffffffffffffffffffffffff16634a4fbeec826040518263ffffffff1660e01b8152600401610a009190613b6e565b60206040518083038186803b158015610a1857600080fd5b505afa158015610a2c573d6000803e3d6000fd5b505050506040513d601f19601f82011682018060405250810190610a509190613717565b15610a90576040517f08c379a0000000000000000000000000000000000000000000000000000000008152600401610a8790613c5f565b60405180910390fd5b5b8073ffffffffffffffffffffffffffffffffffffffff163373ffffffffffffffffffffffffffffffffffffffff161480610ad15750610ad08233612cdc565b5b610b10576040517f08c379a0000000000000000000000000000000000000000000000000000000008152600401610b0790613e3f565b60405180910390fd5b836007600085815260200190815260200160002060006101000a81548173ffffffffffffffffffffffffffffffffffffffff021916908373ffffffffffffffffffffffffffffffffffffffff160217905550828473ffffffffffffffffffffffffffffffffffffffff168273ffffffffffffffffffffffffffffffffffffffff167f8c5be1e5ebec7d5bd14f71427d1e84f3dd0314c0f7b2291e5b200ac8c7c3b92560405160405180910390a450505050565b60007f0000000000000000000000000000000000000000000000000000000000000000905090565b6000600c80549050905090565b600080600073ffffffffffffffffffffffffffffffffffffffff166004600085815260200190815260200160002060009054906101000a900473ffffffffffffffffffffffffffffffffffffffff1673ffffffffffffffffffffffffffffffffffffffff161415610c9e576040517f08c379a0000000000000000000000000000000000000000000000000000000008152600401610c9590613e7f565b60405180910390fd5b600073ffffffffffffffffffffffffffffffffffffffff168473ffffffffffffffffffffffffffffffffffffffff161415610d0e576040517f08c379a0000000000000000000000000000000000000000000000000000000008152600401610d0590613cdf565b60405180910390fd5b610d2d8573ffffffffffffffffffffffffffffffffffffffff166131cb565b15610d3a57849150610ed3565b600260009054906101000a900473ffffffffffffffffffffffffffffffffffffffff1673ffffffffffffffffffffffffffffffffffffffff16632fea7b81866040518263ffffffff1660e01b8152600401610d959190613b6e565b60206040518083038186803b158015610dad57600080fd5b505afa158015610dc1573d6000803e3d6000fd5b505050506040513d601f19601f82011682018060405250810190610de591906134f4565b9150600260009054906101000a900473ffffffffffffffffffffffffffffffffffffffff1673ffffffffffffffffffffffffffffffffffffffff16634a4fbeec836040518263ffffffff1660e01b8152600401610e429190613b6e565b60206040518083038186803b158015610e5a57600080fd5b505afa158015610e6e573d6000803e3d6000fd5b505050506040513d601f19601f82011682018060405250810190610e929190613717565b15610ed2576040517f08c379a0000000000000000000000000000000000000000000000000000000008152600401610ec990613c5f565b60405180910390fd5b5b8173ffffffffffffffffffffffffffffffffffffffff166004600085815260200190815260200160002060009054906101000a900473ffffffffffffffffffffffffffffffffffffffff1673ffffffffffffffffffffffffffffffffffffffff1614610f74576040517f08c379a0000000000000000000000000000000000000000000000000000000008152600401610f6b90613cbf565b60405180910390fd5b8173ffffffffffffffffffffffffffffffffffffffff163373ffffffffffffffffffffffffffffffffffffffff16148061100c57506007600084815260200190815260200160002060009054906101000a900473ffffffffffffffffffffffffffffffffffffffff1673ffffffffffffffffffffffffffffffffffffffff163373ffffffffffffffffffffffffffffffffffffffff16145b8061109d5750600960008373ffffffffffffffffffffffffffffffffffffffff1673ffffffffffffffffffffffffffffffffffffffff16815260200190815260200160002060003373ffffffffffffffffffffffffffffffffffffffff1673ffffffffffffffffffffffffffffffffffffffff16815260200190815260200160002060009054906101000a900460ff165b6110dc576040517f08c379a00000000000000000000000000000000000000000000000000000000081526004016110d390613cff565b60405180910390fd5b6110fb8473ffffffffffffffffffffffffffffffffffffffff166131cb565b15611108578390506112a1565b600260009054906101000a900473ffffffffffffffffffffffffffffffffffffffff1673ffffffffffffffffffffffffffffffffffffffff16632fea7b81856040518263ffffffff1660e01b81526004016111639190613b6e565b60206040518083038186803b15801561117b57600080fd5b505afa15801561118f573d6000803e3d6000fd5b505050506040513d601f19601f820116820180604052508101906111b391906134f4565b9050600260009054906101000a900473ffffffffffffffffffffffffffffffffffffffff1673ffffffffffffffffffffffffffffffffffffffff16634a4fbeec826040518263ffffffff1660e01b81526004016112109190613b6e565b60206040518083038186803b15801561122857600080fd5b505afa15801561123c573d6000803e3d6000fd5b505050506040513d601f19601f820116820180604052508101906112609190613717565b156112a0576040517f08c379a000000000000000000000000000000000000000000000000000000000815260040161129790613d5f565b60405180910390fd5b5b82600560008473ffffffffffffffffffffffffffffffffffffffff1673ffffffffffffffffffffffffffffffffffffffff16815260200190815260200160002054141561137157600560008373ffffffffffffffffffffffffffffffffffffffff1673ffffffffffffffffffffffffffffffffffffffff1681526020019081526020016000206000905560008273ffffffffffffffffffffffffffffffffffffffff167f419eff8031cf010a000369ea097d6d7e80ef25afac84982c47a45719ffeac9f660405160405180910390a35b60006001600660008573ffffffffffffffffffffffffffffffffffffffff1673ffffffffffffffffffffffffffffffffffffffff168152602001908152602001600020546113bf9190613fc9565b90506000600b60008681526020019081526020016000205490508181146114a4576000600a60008673ffffffffffffffffffffffffffffffffffffffff1673ffffffffffffffffffffffffffffffffffffffff168152602001908152602001600020600084815260200190815260200160002054905080600a60008773ffffffffffffffffffffffffffffffffffffffff1673ffffffffffffffffffffffffffffffffffffffff16815260200190815260200160002060008481526020019081526020016000208190555081600b600083815260200190815260200160002081905550505b600a60008573ffffffffffffffffffffffffffffffffffffffff1673ffffffffffffffffffffffffffffffffffffffff168152602001908152602001600020600083815260200190815260200160002060009055600b6000868152602001908152602001600020600090556000600660008573ffffffffffffffffffffffffffffffffffffffff1673ffffffffffffffffffffffffffffffffffffffff16815260200190815260200160002054905085600a60008673ffffffffffffffffffffffffffffffffffffffff1673ffffffffffffffffffffffffffffffffffffffff16815260200190815260200160002060008381526020019081526020016000208190555080600b6000888152602001908152602001600020819055506007600087815260200190815260200160002060006101000a81549073ffffffffffffffffffffffffffffffffffffffff021916905585600073ffffffffffffffffffffffffffffffffffffffff168973ffffffffffffffffffffffffffffffffffffffff167f8c5be1e5ebec7d5bd14f71427d1e84f3dd0314c0f7b2291e5b200ac8c7c3b92560405160405180910390a46001600660008773ffffffffffffffffffffffffffffffffffffffff1673ffffffffffffffffffffffffffffffffffffffff16815260200190815260200160002060008282546116a29190613fc9565b925050819055506001600660008673ffffffffffffffffffffffffffffffffffffffff1673ffffffffffffffffffffffffffffffffffffffff16815260200190815260200160002060008282546116f99190613f73565b92505081905550836004600088815260200190815260200160002060006101000a81548173ffffffffffffffffffffffffffffffffffffffff021916908373ffffffffffffffffffffffffffffffffffffffff160217905550858773ffffffffffffffffffffffffffffffffffffffff168973ffffffffffffffffffffffffffffffffffffffff167fddf252ad1be2c89b69c2b068fc378daa952ba7f163c4a11628f55a4df523b3ef60405160405180910390a46001600660008673ffffffffffffffffffffffffffffffffffffffff1673ffffffffffffffffffffffffffffffffffffffff16815260200190815260200160002054141561187e5785600560008673ffffffffffffffffffffffffffffffffffffffff1673ffffffffffffffffffffffffffffffffffffffff16815260200190815260200160002081905550858573ffffffffffffffffffffffffffffffffffffffff167f419eff8031cf010a000369ea097d6d7e80ef25afac84982c47a45719ffeac9f660405160405180910390a35b5050505050505050565b6000806118aa8473ffffffffffffffffffffffffffffffffffffffff166131cb565b156118b757839050611965565b600260009054906101000a900473ffffffffffffffffffffffffffffffffffffffff1673ffffffffffffffffffffffffffffffffffffffff16632fea7b81856040518263ffffffff1660e01b81526004016119129190613b6e565b60206040518083038186803b15801561192a57600080fd5b505afa15801561193e573d6000803e3d6000fd5b505050506040513d601f19601f8201168201806040525081019061196291906134f4565b90505b600660008273ffffffffffffffffffffffffffffffffffffffff1673ffffffffffffffffffffffffffffffffffffffff1681526020019081526020016000205483106119e6576040517f08c379a00000000000000000000000000000000000000000000000000000000081526004016119dd90613d3f565b60405180910390fd5b600a60008273ffffffffffffffffffffffffffffffffffffffff1673ffffffffffffffffffffffffffffffffffffffff16815260200190815260200160002060008481526020019081526020016000205491505092915050565b611a5b83838360405180602001604052806000815250612b38565b505050565b6000600c805490508210611aa9576040517f08c379a0000000000000000000000000000000000000000000000000000000008152600401611aa090613d7f565b60405180910390fd5b600c8281548110611abd57611abc614174565b5b90600052602060002001549050919050565b60006102408383905014611b18576040517f08c379a0000000000000000000000000000000000000000000000000000000008152600401611b0f90613ddf565b60405180910390fd5b60008383604051611b2a929190613b55565b604051809103902060001c9050600073ffffffffffffffffffffffffffffffffffffffff166004600083815260200190815260200160002060009054906101000a900473ffffffffffffffffffffffffffffffffffffffff1673ffffffffffffffffffffffffffffffffffffffff1614611bd9576040517f08c379a0000000000000000000000000000000000000000000000000000000008152600401611bd090613e1f565b60405180910390fd5b6000611bfa3373ffffffffffffffffffffffffffffffffffffffff166131cb565b15611c0757339050611da0565b600260009054906101000a900473ffffffffffffffffffffffffffffffffffffffff1673ffffffffffffffffffffffffffffffffffffffff16632fea7b81336040518263ffffffff1660e01b8152600401611c629190613b6e565b60206040518083038186803b158015611c7a57600080fd5b505afa158015611c8e573d6000803e3d6000fd5b505050506040513d601f19601f82011682018060405250810190611cb291906134f4565b9050600260009054906101000a900473ffffffffffffffffffffffffffffffffffffffff1673ffffffffffffffffffffffffffffffffffffffff16634a4fbeec826040518263ffffffff1660e01b8152600401611d0f9190613b6e565b60206040518083038186803b158015611d2757600080fd5b505afa158015611d3b573d6000803e3d6000fd5b505050506040513d601f19601f82011682018060405250810190611d5f9190613717565b15611d9f576040517f08c379a0000000000000000000000000000000000000000000000000000000008152600401611d9690613e9f565b60405180910390fd5b5b600360009054906101000a900473ffffffffffffffffffffffffffffffffffffffff1673ffffffffffffffffffffffffffffffffffffffff166398b97790827f00000000000000000000000000000000000000000000000000000000000000006040518363ffffffff1660e01b8152600401611e1d929190613bd5565b60206040518083038186803b158015611e3557600080fd5b505afa158015611e49573d6000803e3d6000fd5b505050506040513d601f19601f82011682018060405250810190611e6d9190613717565b611eac576040517f08c379a0000000000000000000000000000000000000000000000000000000008152600401611ea390613dbf565b60405180910390fd5b6000611ecd8773ffffffffffffffffffffffffffffffffffffffff166131cb565b15611eda57869050612073565b600260009054906101000a900473ffffffffffffffffffffffffffffffffffffffff1673ffffffffffffffffffffffffffffffffffffffff16632fea7b81886040518263ffffffff1660e01b8152600401611f359190613b6e565b60206040518083038186803b158015611f4d57600080fd5b505afa158015611f61573d6000803e3d6000fd5b505050506040513d601f19601f82011682018060405250810190611f8591906134f4565b9050600260009054906101000a900473ffffffffffffffffffffffffffffffffffffffff1673ffffffffffffffffffffffffffffffffffffffff16634a4fbeec836040518263ffffffff1660e01b8152600401611fe29190613b6e565b60206040518083038186803b158015611ffa57600080fd5b505afa15801561200e573d6000803e3d6000fd5b505050506040513d601f19601f820116820180604052508101906120329190613717565b15612072576040517f08c379a000000000000000000000000000000000000000000000000000000000815260040161206990613e9f565b60405180910390fd5b5b600c839080600181540180825580915050600190039060005260206000200160009091909190915055806004600085815260200190815260200160002060006101000a81548173ffffffffffffffffffffffffffffffffffffffff021916908373ffffffffffffffffffffffffffffffffffffffff1602179055506000600660008373ffffffffffffffffffffffffffffffffffffffff1673ffffffffffffffffffffffffffffffffffffffff16815260200190815260200160002054905083600a60008473ffffffffffffffffffffffffffffffffffffffff1673ffffffffffffffffffffffffffffffffffffffff16815260200190815260200160002060008381526020019081526020016000208190555080600b6000868152602001908152602001600020819055506001600660008473ffffffffffffffffffffffffffffffffffffffff1673ffffffffffffffffffffffffffffffffffffffff16815260200190815260200160002060008282546121ef9190613f73565b9250508190555061221260008386604051806020016040528060008152506131de565b612251576040517f08c379a000000000000000000000000000000000000000000000000000000000815260040161224890613dff565b60405180910390fd5b837f1cc298ae984918ed1719cf63cb020b62a3a65a6d2d4e9a118fea9726b3c9c4b68888604051612283929190613c19565b60405180910390a2838873ffffffffffffffffffffffffffffffffffffffff16600073ffffffffffffffffffffffffffffffffffffffff167fddf252ad1be2c89b69c2b068fc378daa952ba7f163c4a11628f55a4df523b3ef60405160405180910390a4839450505050509392505050565b6000806004600084815260200190815260200160002060009054906101000a900473ffffffffffffffffffffffffffffffffffffffff169050600073ffffffffffffffffffffffffffffffffffffffff168173ffffffffffffffffffffffffffffffffffffffff16141561239e576040517f08c379a000000000000000000000000000000000000000000000000000000000815260040161239590613e7f565b60405180910390fd5b6123bd8173ffffffffffffffffffffffffffffffffffffffff166131cb565b156123cb578091505061247a565b600260009054906101000a900473ffffffffffffffffffffffffffffffffffffffff1673ffffffffffffffffffffffffffffffffffffffff1663544d8564826040518263ffffffff1660e01b81526004016124269190613b6e565b60206040518083038186803b15801561243e57600080fd5b505afa158015612452573d6000803e3d6000fd5b505050506040513d601f19601f8201168201806040525081019061247691906134f4565b9150505b919050565b60006124a08273ffffffffffffffffffffffffffffffffffffffff166131cb565b156124ec57600660008373ffffffffffffffffffffffffffffffffffffffff1673ffffffffffffffffffffffffffffffffffffffff1681526020019081526020016000205490506125d9565b60066000600260009054906101000a900473ffffffffffffffffffffffffffffffffffffffff1673ffffffffffffffffffffffffffffffffffffffff16632fea7b81856040518263ffffffff1660e01b815260040161254b9190613b6e565b60206040518083038186803b15801561256357600080fd5b505afa158015612577573d6000803e3d6000fd5b505050506040513d601f19601f8201168201806040525081019061259b91906134f4565b73ffffffffffffffffffffffffffffffffffffffff1673ffffffffffffffffffffffffffffffffffffffff1681526020019081526020016000205490505b919050565b6060600180546125ed906140b3565b80601f0160208091040260200160405190810160405280929190818152602001828054612619906140b3565b80156126665780601f1061263b57610100808354040283529160200191612666565b820191906000526020600020905b81548152906001019060200180831161264957829003601f168201915b5050505050905090565b60003373ffffffffffffffffffffffffffffffffffffffff168373ffffffffffffffffffffffffffffffffffffffff1614156126e1576040517f08c379a00000000000000000000000000000000000000000000000000000000081526004016126d890613e5f565b60405180910390fd5b6127003373ffffffffffffffffffffffffffffffffffffffff166131cb565b1561270d57339050612915565b600260009054906101000a900473ffffffffffffffffffffffffffffffffffffffff1673ffffffffffffffffffffffffffffffffffffffff16632fea7b81336040518263ffffffff1660e01b81526004016127689190613b6e565b60206040518083038186803b15801561278057600080fd5b505afa158015612794573d6000803e3d6000fd5b505050506040513d601f19601f820116820180604052508101906127b891906134f4565b90508073ffffffffffffffffffffffffffffffffffffffff168373ffffffffffffffffffffffffffffffffffffffff161415612829576040517f08c379a000000000000000000000000000000000000000000000000000000000815260040161282090613e5f565b60405180910390fd5b600260009054906101000a900473ffffffffffffffffffffffffffffffffffffffff1673ffffffffffffffffffffffffffffffffffffffff16634a4fbeec826040518263ffffffff1660e01b81526004016128849190613b6e565b60206040518083038186803b15801561289c57600080fd5b505afa1580156128b0573d6000803e3d6000fd5b505050506040513d601f19601f820116820180604052508101906128d49190613717565b15612914576040517f08c379a000000000000000000000000000000000000000000000000000000000815260040161290b90613c5f565b60405180910390fd5b5b81600960008373ffffffffffffffffffffffffffffffffffffffff1673ffffffffffffffffffffffffffffffffffffffff16815260200190815260200160002060008573ffffffffffffffffffffffffffffffffffffffff1673ffffffffffffffffffffffffffffffffffffffff16815260200190815260200160002060006101000a81548160ff0219169083151502179055508273ffffffffffffffffffffffffffffffffffffffff168173ffffffffffffffffffffffffffffffffffffffff167f17307eab39ab6107e8899845ad3d59bd9653f200f220920489ca2b5937696c3184604051612a069190613bfe565b60405180910390a3505050565b600080612a358373ffffffffffffffffffffffffffffffffffffffff166131cb565b15612a4257829050612af0565b600260009054906101000a900473ffffffffffffffffffffffffffffffffffffffff1673ffffffffffffffffffffffffffffffffffffffff16632fea7b81846040518263ffffffff1660e01b8152600401612a9d9190613b6e565b60206040518083038186803b158015612ab557600080fd5b505afa158015612ac9573d6000803e3d6000fd5b505050506040513d601f19601f82011682018060405250810190612aed91906134f4565b90505b600560008273ffffffffffffffffffffffffffffffffffffffff1673ffffffffffffffffffffffffffffffffffffffff16815260200190815260200160002054915050919050565b612b43848484610bf8565b612b4f848484846131de565b612b8e576040517f08c379a0000000000000000000000000000000000000000000000000000000008152600401612b8590613dff565b60405180910390fd5b50505050565b6060600073ffffffffffffffffffffffffffffffffffffffff166004600084815260200190815260200160002060009054906101000a900473ffffffffffffffffffffffffffffffffffffffff1673ffffffffffffffffffffffffffffffffffffffff161415612c39576040517f08c379a0000000000000000000000000000000000000000000000000000000008152600401612c3090613d1f565b60405180910390fd5b600860008381526020019081526020016000208054612c57906140b3565b80601f0160208091040260200160405190810160405280929190818152602001828054612c83906140b3565b8015612cd05780601f10612ca557610100808354040283529160200191612cd0565b820191906000526020600020905b815481529060010190602001808311612cb357829003601f168201915b50505050509050919050565b600080612cfe8473ffffffffffffffffffffffffffffffffffffffff166131cb565b612db257600260009054906101000a900473ffffffffffffffffffffffffffffffffffffffff1673ffffffffffffffffffffffffffffffffffffffff16632fea7b81336040518263ffffffff1660e01b8152600401612d5d9190613b6e565b60206040518083038186803b158015612d7557600080fd5b505afa158015612d89573d6000803e3d6000fd5b505050506040513d601f19601f82011682018060405250810190612dad91906134f4565b612db4565b835b9050600960008273ffffffffffffffffffffffffffffffffffffffff1673ffffffffffffffffffffffffffffffffffffffff16815260200190815260200160002060008473ffffffffffffffffffffffffffffffffffffffff1673ffffffffffffffffffffffffffffffffffffffff16815260200190815260200160002060009054906101000a900460ff1691505092915050565b6000612e6a3373ffffffffffffffffffffffffffffffffffffffff166131cb565b15612e7757339050613010565b600260009054906101000a900473ffffffffffffffffffffffffffffffffffffffff1673ffffffffffffffffffffffffffffffffffffffff16632fea7b81336040518263ffffffff1660e01b8152600401612ed29190613b6e565b60206040518083038186803b158015612eea57600080fd5b505afa158015612efe573d6000803e3d6000fd5b505050506040513d601f19601f82011682018060405250810190612f2291906134f4565b9050600260009054906101000a900473ffffffffffffffffffffffffffffffffffffffff1673ffffffffffffffffffffffffffffffffffffffff16634a4fbeec826040518263ffffffff1660e01b8152600401612f7f9190613b6e565b60206040518083038186803b158015612f9757600080fd5b505afa158015612fab573d6000803e3d6000fd5b505050506040513d601f19601f82011682018060405250810190612fcf9190613717565b1561300f576040517f08c379a000000000000000000000000000000000000000000000000000000000815260040161300690613d5f565b60405180910390fd5b5b600082148061307e57508073ffffffffffffffffffffffffffffffffffffffff166004600084815260200190815260200160002060009054906101000a900473ffffffffffffffffffffffffffffffffffffffff1673ffffffffffffffffffffffffffffffffffffffff1614155b6130bd576040517f08c379a00000000000000000000000000000000000000000000000000000000081526004016130b490613c7f565b60405180910390fd5b81600560008373ffffffffffffffffffffffffffffffffffffffff1673ffffffffffffffffffffffffffffffffffffffff16815260200190815260200160002054141561313f576040517f08c379a000000000000000000000000000000000000000000000000000000000815260040161313690613d9f565b60405180910390fd5b81600560008373ffffffffffffffffffffffffffffffffffffffff1673ffffffffffffffffffffffffffffffffffffffff16815260200190815260200160002081905550818173ffffffffffffffffffffffffffffffffffffffff167f419eff8031cf010a000369ea097d6d7e80ef25afac84982c47a45719ffeac9f660405160405180910390a35050565b600080823b905060008111915050919050565b60006131ff8473ffffffffffffffffffffffffffffffffffffffff166131cb565b15613361578373ffffffffffffffffffffffffffffffffffffffff1663150b7a02338786866040518563ffffffff1660e01b81526004016132439493929190613b89565b602060405180830381600087803b15801561325d57600080fd5b505af192505050801561328e57506040513d601f19601f8201168201806040525081019061328b9190613771565b60015b613311573d80600081146132be576040519150601f19603f3d011682016040523d82523d6000602084013e6132c3565b606091505b50600081511415613309576040517f08c379a000000000000000000000000000000000000000000000000000000000815260040161330090613dff565b60405180910390fd5b805181602001fd5b63150b7a0260e01b7bffffffffffffffffffffffffffffffffffffffffffffffffffffffff1916817bffffffffffffffffffffffffffffffffffffffffffffffffffffffff191614915050613366565b600190505b949350505050565b600061338161337c84613eff565b613eda565b90508281526020810184848401111561339d5761339c6141e1565b5b6133a8848285614071565b509392505050565b6000813590506133bf81614934565b92915050565b6000815190506133d481614934565b92915050565b6000813590506133e98161494b565b92915050565b6000815190506133fe8161494b565b92915050565b60008135905061341381614962565b92915050565b60008151905061342881614962565b92915050565b60008083601f840112613444576134436141d7565b5b8235905067ffffffffffffffff811115613461576134606141d2565b5b60208301915083600182028301111561347d5761347c6141dc565b5b9250929050565b600082601f830112613499576134986141d7565b5b81356134a984826020860161336e565b91505092915050565b6000813590506134c181614979565b92915050565b6000602082840312156134dd576134dc6141eb565b5b60006134eb848285016133b0565b91505092915050565b60006020828403121561350a576135096141eb565b5b6000613518848285016133c5565b91505092915050565b60008060408385031215613538576135376141eb565b5b6000613546858286016133b0565b9250506020613557858286016133b0565b9150509250929050565b60008060006060848603121561357a576135796141eb565b5b6000613588868287016133b0565b9350506020613599868287016133b0565b92505060406135aa868287016134b2565b9150509250925092565b600080600080608085870312156135ce576135cd6141eb565b5b60006135dc878288016133b0565b94505060206135ed878288016133b0565b93505060406135fe878288016134b2565b925050606085013567ffffffffffffffff81111561361f5761361e6141e6565b5b61362b87828801613484565b91505092959194509250565b6000806040838503121561364e5761364d6141eb565b5b600061365c858286016133b0565b925050602061366d858286016133da565b9150509250929050565b6000806000604084860312156136905761368f6141eb565b5b600061369e868287016133b0565b935050602084013567ffffffffffffffff8111156136bf576136be6141e6565b5b6136cb8682870161342e565b92509250509250925092565b600080604083850312156136ee576136ed6141eb565b5b60006136fc858286016133b0565b925050602061370d858286016134b2565b9150509250929050565b60006020828403121561372d5761372c6141eb565b5b600061373b848285016133ef565b91505092915050565b60006020828403121561375a576137596141eb565b5b600061376884828501613404565b91505092915050565b600060208284031215613787576137866141eb565b5b600061379584828501613419565b91505092915050565b6000602082840312156137b4576137b36141eb565b5b60006137c2848285016134b2565b91505092915050565b6137d481613ffd565b82525050565b6137e38161400f565b82525050565b60006137f58385613f46565b9350613802838584614071565b61380b836141f0565b840190509392505050565b60006138228385613f57565b935061382f838584614071565b82840190509392505050565b600061384682613f30565b6138508185613f46565b9350613860818560208601614080565b613869816141f0565b840191505092915050565b600061387f82613f3b565b6138898185613f62565b9350613899818560208601614080565b6138a2816141f0565b840191505092915050565b60006138ba602c83613f62565b91506138c582614201565b604082019050919050565b60006138dd603c83613f62565b91506138e882614250565b604082019050919050565b6000613900604383613f62565b915061390b8261429f565b606082019050919050565b6000613923606483613f62565b915061392e82614314565b608082019050919050565b6000613946603c83613f62565b9150613951826143af565b604082019050919050565b6000613969604283613f62565b9150613974826143fe565b606082019050919050565b600061398c603d83613f62565b915061399782614473565b604082019050919050565b60006139af604a83613f62565b91506139ba826144c2565b606082019050919050565b60006139d2603083613f62565b91506139dd82614537565b604082019050919050565b60006139f5603283613f62565b9150613a0082614586565b604082019050919050565b6000613a18604c83613f62565b9150613a23826145d5565b606082019050919050565b6000613a3b604583613f62565b9150613a468261464a565b606082019050919050565b6000613a5e602783613f62565b9150613a69826146bf565b604082019050919050565b6000613a81606383613f62565b9150613a8c8261470e565b608082019050919050565b6000613aa4602583613f62565b9150613aaf826147a9565b604082019050919050565b6000613ac7604083613f62565b9150613ad2826147f8565b604082019050919050565b6000613aea602c83613f62565b9150613af582614847565b604082019050919050565b6000613b0d603c83613f62565b9150613b1882614896565b604082019050919050565b6000613b30602d83613f62565b9150613b3b826148e5565b604082019050919050565b613b4f81614067565b82525050565b6000613b62828486613816565b91508190509392505050565b6000602082019050613b8360008301846137cb565b92915050565b6000608082019050613b9e60008301876137cb565b613bab60208301866137cb565b613bb86040830185613b46565b8181036060830152613bca818461383b565b905095945050505050565b6000604082019050613bea60008301856137cb565b613bf76020830184613b46565b9392505050565b6000602082019050613c1360008301846137da565b92915050565b60006020820190508181036000830152613c348184866137e9565b90509392505050565b60006020820190508181036000830152613c578184613874565b905092915050565b60006020820190508181036000830152613c78816138ad565b9050919050565b60006020820190508181036000830152613c98816138d0565b9050919050565b60006020820190508181036000830152613cb8816138f3565b9050919050565b60006020820190508181036000830152613cd881613916565b9050919050565b60006020820190508181036000830152613cf881613939565b9050919050565b60006020820190508181036000830152613d188161395c565b9050919050565b60006020820190508181036000830152613d388161397f565b9050919050565b60006020820190508181036000830152613d58816139a2565b9050919050565b60006020820190508181036000830152613d78816139c5565b9050919050565b60006020820190508181036000830152613d98816139e8565b9050919050565b60006020820190508181036000830152613db881613a0b565b9050919050565b60006020820190508181036000830152613dd881613a2e565b9050919050565b60006020820190508181036000830152613df881613a51565b9050919050565b60006020820190508181036000830152613e1881613a74565b9050919050565b60006020820190508181036000830152613e3881613a97565b9050919050565b60006020820190508181036000830152613e5881613aba565b9050919050565b60006020820190508181036000830152613e7881613add565b9050919050565b60006020820190508181036000830152613e9881613b00565b9050919050565b60006020820190508181036000830152613eb881613b23565b9050919050565b6000602082019050613ed46000830184613b46565b92915050565b6000613ee4613ef5565b9050613ef082826140e5565b919050565b6000604051905090565b600067ffffffffffffffff821115613f1a57613f196141a3565b5b613f23826141f0565b9050602081019050919050565b600081519050919050565b600081519050919050565b600082825260208201905092915050565b600081905092915050565b600082825260208201905092915050565b6000613f7e82614067565b9150613f8983614067565b9250827fffffffffffffffffffffffffffffffffffffffffffffffffffffffffffffffff03821115613fbe57613fbd614116565b5b828201905092915050565b6000613fd482614067565b9150613fdf83614067565b925082821015613ff257613ff1614116565b5b828203905092915050565b600061400882614047565b9050919050565b60008115159050919050565b60007fffffffff0000000000000000000000000000000000000000000000000000000082169050919050565b600073ffffffffffffffffffffffffffffffffffffffff82169050919050565b6000819050919050565b82818337600083830152505050565b60005b8381101561409e578082015181840152602081019050614083565b838111156140ad576000848401525b50505050565b600060028204905060018216806140cb57607f821691505b602082108114156140df576140de614145565b5b50919050565b6140ee826141f0565b810181811067ffffffffffffffff8211171561410d5761410c6141a3565b5b80604052505050565b7f4e487b7100000000000000000000000000000000000000000000000000000000600052601160045260246000fd5b7f4e487b7100000000000000000000000000000000000000000000000000000000600052602260045260246000fd5b7f4e487b7100000000000000000000000000000000000000000000000000000000600052603260045260246000fd5b7f4e487b7100000000000000000000000000000000000000000000000000000000600052604160045260246000fd5b600080fd5b600080fd5b600080fd5b600080fd5b600080fd5b600080fd5b6000601f19601f8301169050919050565b7f5369676e61746152696768743a20546865206f776e65722773206163636f756e60008201527f74206973206c6f636b65642e0000000000000000000000000000000000000000602082015250565b7f5369676e6174614176617461723a205468652073656e64657220646f6573206e60008201527f6f74206f776e2074686520617661746172207370656369666965642e00000000602082015250565b7f5369676e61746152696768743a20417070726f76616c206973206e6f7420726560008201527f71756972656420666f7220746865206f776e6572206f6620746865206176617460208201527f61722e0000000000000000000000000000000000000000000000000000000000604082015250565b7f5369676e61746152696768743a20546865206163636f756e742073706563696660008201527f69656420646f6573206e6f7420686f6c64207468652061766174617220636f7260208201527f726573706f6e64696e6720746f2074686520546f6b656e2049442070726f766960408201527f6465642e00000000000000000000000000000000000000000000000000000000606082015250565b7f5369676e61746152696768743a205472616e736665727320746f20746865207a60008201527f65726f206164647265737320617265206e6f7420616c6c6f7765642e00000000602082015250565b7f5369676e61746152696768743a205468652073656e646572206973206e6f742060008201527f617574686f726973656420746f207472616e736665722074686973207269676860208201527f742e000000000000000000000000000000000000000000000000000000000000604082015250565b7f5369676e61746152696768743a20546f6b656e204944206d75737420636f727260008201527f6573706f6e6420746f20616e206578697374696e67206176617461722e000000602082015250565b7f5369676e61746152696768743a2054686520696e6465782070726f766964656460008201527f206973206f7574206f6620626f756e647320666f7220746865206f776e65722060208201527f7370656369666965642e00000000000000000000000000000000000000000000604082015250565b7f5369676e61746152696768743a2054686520726563697069656e74277320616360008201527f636f756e74206973206c6f636b65642e00000000000000000000000000000000602082015250565b7f5369676e61746152696768743a2054686520696e6465782070726f766964656460008201527f206973206f7574206f6620626f756e64732e0000000000000000000000000000602082015250565b7f5369676e6174614176617461723a20546865206176617461722073706563696660008201527f69656420697320616c726561647920736574206173207072696d61727920666f60208201527f7220746865206f776e65722e0000000000000000000000000000000000000000604082015250565b7f5369676e61746152696768743a205468652073656e6465722773206163636f7560008201527f6e74206973206e6f7420617574686f726973656420746f206d696e742041766160208201527f746172732e000000000000000000000000000000000000000000000000000000604082015250565b7f5369676e6174614176617461723a20496e76616c69642061766174617220707260008201527f6f76696465642e00000000000000000000000000000000000000000000000000602082015250565b7f5369676e61746152696768743a206d757374206f6e6c79207472616e7366657260008201527f20746f20455243373231526563656976657220696d706c656d656e746572732060208201527f7768656e20726563697069656e74206973206120736d61727420636f6e74726160408201527f63742e0000000000000000000000000000000000000000000000000000000000606082015250565b7f5369676e6174614176617461723a2041766174617220616c726561647920657860008201527f697374732e000000000000000000000000000000000000000000000000000000602082015250565b7f5369676e61746152696768743a205468652073656e646572206973206e6f742060008201527f617574686f726973656420746f2070726f7669646520617070726f76616c732e602082015250565b7f5369676e61746152696768743a2053656c662d617070726f76616c206973206e60008201527f6f742072657175697265642e0000000000000000000000000000000000000000602082015250565b7f5369676e61746152696768743a20546f6b656e204944206d75737420636f727260008201527f6573706f6e6420746f20616e206578697374696e672072696768742e00000000602082015250565b7f5369676e61746152696768743a205468652073656e6465722773206163636f7560008201527f6e74206973206c6f636b65642e00000000000000000000000000000000000000602082015250565b61493d81613ffd565b811461494857600080fd5b50565b6149548161400f565b811461495f57600080fd5b50565b61496b8161401b565b811461497657600080fd5b50565b61498281614067565b811461498d57600080fd5b5056fea26469706673582212200fe0a98722bc109f6691cf7e0ec266d3d0f87b54f6e51bffad31f0bf3f16e46464736f6c63430008070033",
  "immutableReferences": {
    "1052": [
      {
        "length": 32,
        "start": 3015
      },
      {
        "length": 32,
        "start": 7649
      }
    ]
  },
  "source": "// SPDX-License-Identifier: MIT\r\n\r\npragma solidity 0.8.7;\r\n\r\nimport \"./tokens/IERC165.sol\";\r\nimport \"./tokens/IERC721.sol\";\r\nimport \"./tokens/IERC721Enumerable.sol\";\r\nimport \"./tokens/IERC721Metadata.sol\";\r\nimport \"./tokens/IERC721Receiver.sol\";\r\nimport \"./tokens/IERC721Schema.sol\";\r\n\r\nimport \"./SignataIdentity.sol\";\r\nimport \"./SignataRight.sol\";\r\n\r\nimport \"./types/extensions/Address.sol\";\r\n\r\ncontract SignataAvatar is IERC721Enumerable, IERC721Metadata {\r\n    using Address for address;\r\n    \r\n    event MintAvatar(uint256 indexed avatarId, bytes avatar);\r\n    \r\n    event SetPrimary(address indexed identity, uint256 indexed avatarId);\r\n    \r\n    bytes4 private constant INTERFACE_ID_ERC165 = type(IERC165).interfaceId;\r\n    bytes4 private constant INTERFACE_ID_ERC721 = type(IERC721).interfaceId;\r\n    bytes4 private constant INTERFACE_ID_ERC721_ENUMERABLE = type(IERC721Enumerable).interfaceId;\r\n    bytes4 private constant INTERFACE_ID_ERC721_METADATA = type(IERC721Metadata).interfaceId;\r\n    \r\n    string private _name;\r\n    string private _symbol;\r\n    \r\n    SignataIdentity private _signataIdentity;\r\n    SignataRight private _signataRight;\r\n\r\n    mapping(uint256 => address) private _avatarToOwner;\r\n    mapping(address => uint256) private _ownerToPrimaryAvatar;\r\n    mapping(address => uint256) private _ownerToAvatarBalance;\r\n    mapping(uint256 => address) private _avatarToApprovedAddress;\r\n    mapping(uint256 => string) private _avatarToURI;\r\n    mapping(address => mapping (address => bool)) private  _ownerToOperatorStatuses;\r\n    mapping(address => mapping(uint256 => uint256)) private _ownerToAvatars;\r\n    mapping(uint256 => uint256) private _avatarToOwnersAvatarsIndex;\r\n    uint256[] private _avatars;\r\n    \r\n    uint256 private immutable _mintingTokenSchema;\r\n\r\n    constructor(\r\n        string memory name_,\r\n        string memory symbol_, \r\n        string memory minterSchemeURI_,\r\n        address rootAdmin_,\r\n        address signataIdentity_,\r\n        address signataRight_\r\n    ) {\r\n        _name = name_;\r\n        _symbol = symbol_;\r\n        \r\n        _signataIdentity = SignataIdentity(signataIdentity_);\r\n        _signataRight = SignataRight(signataRight_);\r\n        \r\n        _mintingTokenSchema = _signataRight.mintSchema(\r\n            rootAdmin_,\r\n            true, \r\n            true, \r\n            minterSchemeURI_\r\n        );\r\n    }\r\n\r\n    function supportsInterface(bytes4 interfaceId) public pure override returns (bool) {\r\n        return interfaceId == INTERFACE_ID_ERC165\r\n            || interfaceId == INTERFACE_ID_ERC721\r\n            || interfaceId == INTERFACE_ID_ERC721_ENUMERABLE\r\n            || interfaceId == INTERFACE_ID_ERC721_METADATA;\r\n    }\r\n    \r\n    function getMintingSchema() external view returns (uint256) {\r\n        return _mintingTokenSchema;\r\n    }\r\n\r\n    function mintAvatar(address to, bytes calldata avatar) external returns (uint256) {\r\n        require(\r\n            avatar.length == 576,\r\n            \"SignataAvatar: Invalid avatar provided.\"\r\n        );\r\n        \r\n        uint256 avatarId = uint256(keccak256(avatar));\r\n        \r\n        require(\r\n            _avatarToOwner[avatarId] == address(0),\r\n            \"SignataAvatar: Avatar already exists.\"\r\n        );\r\n        \r\n        address minter;\r\n        \r\n        if (msg.sender.isContract()) {\r\n            minter = msg.sender;\r\n        } else {\r\n            minter = _signataIdentity.getIdentity(msg.sender);\r\n            \r\n            require(\r\n                !_signataIdentity.isLocked(minter),\r\n                \"SignataRight: The sender's account is locked.\"\r\n            );\r\n        }\r\n        \r\n        require(\r\n            _signataRight.holdsTokenOfSchema(minter, _mintingTokenSchema),\r\n            \"SignataRight: The sender's account is not authorised to mint Avatars.\"\r\n        );\r\n        \r\n        address recipient;\r\n        \r\n        if (to.isContract()) {\r\n            recipient = to;\r\n        } else {\r\n            recipient = _signataIdentity.getIdentity(to);\r\n            \r\n            require(\r\n                !_signataIdentity.isLocked(minter),\r\n                \"SignataRight: The sender's account is locked.\"\r\n            );\r\n        }\r\n        \r\n        _avatars.push(avatarId);\r\n        _avatarToOwner[avatarId] = recipient;\r\n\r\n        uint256 ownerToAvatarsLength = _ownerToAvatarBalance[recipient];\r\n        \r\n        _ownerToAvatars[recipient][ownerToAvatarsLength] = avatarId;\r\n        _avatarToOwnersAvatarsIndex[avatarId] = ownerToAvatarsLength;\r\n        _ownerToAvatarBalance[recipient] += 1;\r\n        \r\n        require(\r\n            _isSafeToTransfer(address(0), recipient, avatarId, \"\"),\r\n            \"SignataRight: must only transfer to ERC721Receiver implementers when recipient is a smart contract.\"\r\n        );\r\n        \r\n        emit MintAvatar(avatarId, avatar);\r\n        \r\n        emit Transfer(address(0), to, avatarId);\r\n        \r\n        return avatarId;\r\n    }\r\n    \r\n    function getPrimaryAvatar(address delegate) external view returns (uint256) {\r\n        address owner;\r\n        \r\n        if (delegate.isContract()) {\r\n            owner = delegate;\r\n        } else {\r\n            owner = _signataIdentity.getIdentity(delegate);\r\n        }\r\n        \r\n        return _ownerToPrimaryAvatar[owner];\r\n    }\r\n    \r\n    function setPrimaryAvatar(uint256 avatarId) external {\r\n        address owner;\r\n        \r\n        if (msg.sender.isContract()) {\r\n            owner = msg.sender;\r\n        } else {\r\n            owner = _signataIdentity.getIdentity(msg.sender);\r\n            \r\n            require(\r\n                !_signataIdentity.isLocked(owner),\r\n                \"SignataRight: The recipient's account is locked.\"\r\n            );\r\n        }\r\n        \r\n        require(\r\n            avatarId == 0 || _avatarToOwner[avatarId] != owner,\r\n            \"SignataAvatar: The sender does not own the avatar specified.\"\r\n        );\r\n        \r\n        require(\r\n            _ownerToPrimaryAvatar[owner] != avatarId,\r\n            \"SignataAvatar: The avatar specified is already set as primary for the owner.\"\r\n        );\r\n        \r\n        _ownerToPrimaryAvatar[owner] = avatarId;\r\n        \r\n        emit SetPrimary(owner, avatarId);\r\n    }\r\n\r\n    function balanceOf(address owner) public view override returns (uint256) {\r\n        if (owner.isContract()) {\r\n            return _ownerToAvatarBalance[owner];\r\n        }\r\n        \r\n        return _ownerToAvatarBalance[_signataIdentity.getIdentity(owner)];\r\n    }\r\n\r\n    function ownerOf(uint256 tokenId) public view override returns (address) {\r\n        address owner = _avatarToOwner[tokenId];\r\n        \r\n        require(\r\n            owner != address(0),\r\n            \"SignataRight: Token ID must correspond to an existing right.\"\r\n        );\r\n        \r\n        if (owner.isContract()) {\r\n            return owner;\r\n        }\r\n        \r\n        return _signataIdentity.getDelegate(owner);\r\n    }\r\n\r\n    function name() public view override returns (string memory) {\r\n        return _name;\r\n    }\r\n\r\n    function symbol() public view override returns (string memory) {\r\n        return _symbol;\r\n    }\r\n\r\n    function tokenURI(uint256 tokenId) external view override returns (string memory) {\r\n        require(\r\n            _avatarToOwner[tokenId] != address(0), \r\n            \"SignataRight: Token ID must correspond to an existing avatar.\"\r\n        );\r\n\r\n        return _avatarToURI[tokenId];\r\n    }\r\n\r\n    function approve(address to, uint256 tokenId) external override {\r\n        address owner = _avatarToOwner[tokenId];\r\n        \r\n        require(\r\n            owner != address(0),\r\n            \"SignataRight: Token ID must correspond to an existing avatar.\"\r\n        );\r\n        \r\n        require(\r\n            to != owner, \r\n            \"SignataRight: Approval is not required for the owner of the avatar.\"\r\n        );\r\n        \r\n        address controller;\r\n        \r\n        if (owner.isContract()) {\r\n            controller = owner;\r\n        } else {\r\n            controller = _signataIdentity.getDelegate(owner);\r\n            \r\n            require(\r\n                to != controller, \r\n                \"SignataRight: Approval is not required for the owner of the avatar.\"\r\n            );\r\n            \r\n            require(\r\n                !_signataIdentity.isLocked(controller),\r\n                \"SignataRight: The owner's account is locked.\"\r\n            );\r\n        }\r\n            \r\n        require(\r\n            msg.sender == controller || isApprovedForAll(owner, msg.sender),\r\n            \"SignataRight: The sender is not authorised to provide approvals.\"\r\n        );\r\n        \r\n        _avatarToApprovedAddress[tokenId] = to;\r\n    \r\n        emit Approval(controller, to, tokenId);\r\n    }\r\n\r\n    function getApproved(uint256 tokenId) public view override returns (address) {\r\n        require(\r\n            _avatarToOwner[tokenId] != address(0),\r\n            \"SignataRight: Token ID must correspond to an existing right.\"\r\n        );\r\n\r\n        return _avatarToApprovedAddress[tokenId];\r\n    }\r\n\r\n    function setApprovalForAll(address operator, bool approved) public override {\r\n        address owner;\r\n        \r\n        require(\r\n            operator != msg.sender, \r\n            \"SignataRight: Self-approval is not required.\"\r\n        );\r\n        \r\n        if (msg.sender.isContract()) {\r\n            owner = msg.sender;\r\n        } else {\r\n            owner = _signataIdentity.getIdentity(msg.sender);\r\n            \r\n            require(\r\n                operator != owner, \r\n                \"SignataRight: Self-approval is not required.\"\r\n            );\r\n            \r\n            require(\r\n                !_signataIdentity.isLocked(owner),\r\n                \"SignataRight: The owner's account is locked.\"\r\n            );\r\n        }\r\n\r\n        _ownerToOperatorStatuses[owner][operator] = approved;\r\n        \r\n        emit ApprovalForAll(owner, operator, approved);\r\n    }\r\n\r\n    function isApprovedForAll(address owner, address operator) public view override returns (bool) {\r\n        address owner_ = (owner.isContract())\r\n            ? owner\r\n            :_signataIdentity.getIdentity(msg.sender);\r\n            \r\n        return _ownerToOperatorStatuses[owner_][operator];\r\n    }\r\n\r\n    function transferFrom(address from, address to, uint256 tokenId) public override {\r\n        address owner;\r\n        address recipient;\r\n        \r\n        require(\r\n            _avatarToOwner[tokenId] != address(0),\r\n            \"SignataRight: Token ID must correspond to an existing right.\"\r\n        );\r\n        \r\n        require(\r\n            to != address(0), \r\n            \"SignataRight: Transfers to the zero address are not allowed.\"\r\n        );\r\n        \r\n        if (from.isContract()) {\r\n            owner = from;\r\n        } else {\r\n            owner = _signataIdentity.getIdentity(from);\r\n            \r\n            require(\r\n                !_signataIdentity.isLocked(owner),\r\n                \"SignataRight: The owner's account is locked.\"\r\n            );\r\n        }\r\n        \r\n        require(\r\n            _avatarToOwner[tokenId] == owner,\r\n            \"SignataRight: The account specified does not hold the avatar corresponding to the Token ID provided.\"\r\n        );\r\n        \r\n\r\n        require(\r\n            msg.sender == owner || msg.sender == _avatarToApprovedAddress[tokenId] || _ownerToOperatorStatuses[owner][msg.sender],\r\n            \"SignataRight: The sender is not authorised to transfer this right.\"\r\n        );\r\n\r\n        if (to.isContract()) {\r\n            recipient = to;\r\n        } else {\r\n            recipient = _signataIdentity.getIdentity(to);\r\n            \r\n            require(\r\n                !_signataIdentity.isLocked(recipient),\r\n                \"SignataRight: The recipient's account is locked.\"\r\n            );\r\n        }\r\n        \r\n        if (_ownerToPrimaryAvatar[owner] == tokenId) {\r\n            delete _ownerToPrimaryAvatar[owner];\r\n            \r\n            emit SetPrimary(owner, 0);\r\n        }\r\n        \r\n        uint256 lastAvatarIndex = _ownerToAvatarBalance[owner] - 1;\r\n        uint256 avatarIndex = _avatarToOwnersAvatarsIndex[tokenId];\r\n\r\n        if (avatarIndex != lastAvatarIndex) {\r\n            uint256 lastAvatarId = _ownerToAvatars[owner][lastAvatarIndex];\r\n\r\n            _ownerToAvatars[owner][avatarIndex] = lastAvatarId;\r\n            _avatarToOwnersAvatarsIndex[lastAvatarId] = avatarIndex;\r\n        }\r\n\r\n        delete _ownerToAvatars[owner][lastAvatarIndex];\r\n        delete _avatarToOwnersAvatarsIndex[tokenId];\r\n        \r\n        uint256 length = _ownerToAvatarBalance[recipient];\r\n        \r\n        _ownerToAvatars[recipient][length] = tokenId;\r\n        _avatarToOwnersAvatarsIndex[tokenId] = length;\r\n        \r\n        delete _avatarToApprovedAddress[tokenId];\r\n        \r\n        emit Approval(from, address(0), tokenId);\r\n\r\n        _ownerToAvatarBalance[owner] -= 1;\r\n        _ownerToAvatarBalance[recipient] += 1;\r\n        _avatarToOwner[tokenId] = recipient;\r\n\r\n        emit Transfer(from, to, tokenId);\r\n        \r\n        if (_ownerToAvatarBalance[recipient] == 1) {\r\n            _ownerToPrimaryAvatar[recipient] = tokenId;\r\n            \r\n            emit SetPrimary(owner, tokenId);          \r\n        }\r\n    }\r\n\r\n    function safeTransferFrom(address from, address to, uint256 tokenId) external override {\r\n        safeTransferFrom(from, to, tokenId, \"\");\r\n    }\r\n\r\n    function safeTransferFrom(address from, address to, uint256 tokenId, bytes memory _data) public override {\r\n        transferFrom(from, to, tokenId);\r\n        \r\n        require(\r\n            _isSafeToTransfer(from, to, tokenId, _data),\r\n            \"SignataRight: must only transfer to ERC721Receiver implementers when recipient is a smart contract.\"\r\n        );\r\n    }\r\n    \r\n    function tokenOfOwnerByIndex(address owner, uint256 index) public view override returns (uint256) {\r\n        address holder;\r\n        \r\n        if (owner.isContract()) {\r\n            holder = owner;\r\n        } else {\r\n            holder = _signataIdentity.getIdentity(owner);\r\n        }\r\n        \r\n        require(\r\n            index < _ownerToAvatarBalance[holder], \r\n            \"SignataRight: The index provided is out of bounds for the owner specified.\"\r\n        );\r\n        \r\n        return _ownerToAvatars[holder][index];\r\n    }\r\n\r\n    function totalSupply() public view override returns (uint256) {\r\n        return _avatars.length;\r\n    }\r\n\r\n    function tokenByIndex(uint256 index) public view override returns (uint256) {\r\n        require(\r\n            index < _avatars.length, \r\n            \"SignataRight: The index provided is out of bounds.\"\r\n        );\r\n        \r\n        return _avatars[index];\r\n    }\r\n        \r\n    function _isSafeToTransfer(address from, address to, uint256 tokenId, bytes memory _data) private returns (bool)\r\n    {\r\n        if (to.isContract()) {\r\n            try IERC721Receiver(to).onERC721Received(msg.sender, from, tokenId, _data) returns (bytes4 retval) {\r\n                return retval == IERC721Receiver(to).onERC721Received.selector;\r\n            } catch (bytes memory reason) {\r\n                if (reason.length == 0) {\r\n                    revert(\"SignataRight: must only transfer to ERC721Receiver implementers when recipient is a smart contract.\");\r\n                } else {\r\n                    assembly {\r\n                        revert(add(32, reason), mload(reason))\r\n                    }\r\n                }\r\n            }\r\n        } else {\r\n            return true;\r\n        }\r\n    }\r\n}",
  "sourcePath": "C:\\Users\\tim\\Projects\\GitHub\\sata-contracts-v1\\contracts\\SignataAvatar.sol",
  "compiler": {
    "name": "solc",
    "version": "0.8.7+commit.e28d00a7.Emscripten.clang"
  },
  "schemaVersion": "3.4.3",
  "updatedAt": "2021-09-16T15:29:42.842Z",
  "devdoc": {
    "kind": "dev",
    "methods": {},
    "version": 1
  },
  "userdoc": {
    "kind": "user",
    "methods": {},
    "version": 1
  }
}