{
  "contractName": "TokenDynamic",
  "abi": [
    {
      "inputs": [
        {
          "internalType": "address",
          "name": "supplyController_",
          "type": "address"
        },
        {
          "internalType": "uint256",
          "name": "initialSupply",
          "type": "uint256"
        }
      ],
      "stateMutability": "nonpayable",
      "type": "constructor"
    },
    {
      "anonymous": false,
      "inputs": [
        {
          "indexed": true,
          "internalType": "address",
          "name": "owner",
          "type": "address"
        },
        {
          "indexed": true,
          "internalType": "address",
          "name": "spender",
          "type": "address"
        },
        {
          "indexed": false,
          "internalType": "uint256",
          "name": "value",
          "type": "uint256"
        }
      ],
      "name": "Approval",
      "type": "event"
    },
    {
      "anonymous": false,
      "inputs": [
        {
          "indexed": true,
          "internalType": "address",
          "name": "previousOwner",
          "type": "address"
        },
        {
          "indexed": true,
          "internalType": "address",
          "name": "newOwner",
          "type": "address"
        }
      ],
      "name": "OwnershipTransferred",
      "type": "event"
    },
    {
      "anonymous": false,
      "inputs": [
        {
          "indexed": false,
          "internalType": "bool",
          "name": "changedTo",
          "type": "bool"
        }
      ],
      "name": "SupplyControlChanged",
      "type": "event"
    },
    {
      "anonymous": false,
      "inputs": [
        {
          "indexed": true,
          "internalType": "address",
          "name": "oldController",
          "type": "address"
        },
        {
          "indexed": true,
          "internalType": "address",
          "name": "newController",
          "type": "address"
        }
      ],
      "name": "SupplyControllerChanged",
      "type": "event"
    },
    {
      "anonymous": false,
      "inputs": [
        {
          "indexed": true,
          "internalType": "address",
          "name": "from",
          "type": "address"
        },
        {
          "indexed": true,
          "internalType": "address",
          "name": "to",
          "type": "address"
        },
        {
          "indexed": false,
          "internalType": "uint256",
          "name": "value",
          "type": "uint256"
        }
      ],
      "name": "Transfer",
      "type": "event"
    },
    {
      "inputs": [
        {
          "internalType": "address",
          "name": "owner",
          "type": "address"
        },
        {
          "internalType": "address",
          "name": "spender",
          "type": "address"
        }
      ],
      "name": "allowance",
      "outputs": [
        {
          "internalType": "uint256",
          "name": "",
          "type": "uint256"
        }
      ],
      "stateMutability": "view",
      "type": "function"
    },
    {
      "inputs": [
        {
          "internalType": "address",
          "name": "spender",
          "type": "address"
        },
        {
          "internalType": "uint256",
          "name": "amount",
          "type": "uint256"
        }
      ],
      "name": "approve",
      "outputs": [
        {
          "internalType": "bool",
          "name": "",
          "type": "bool"
        }
      ],
      "stateMutability": "nonpayable",
      "type": "function"
    },
    {
      "inputs": [
        {
          "internalType": "address",
          "name": "account",
          "type": "address"
        }
      ],
      "name": "balanceOf",
      "outputs": [
        {
          "internalType": "uint256",
          "name": "",
          "type": "uint256"
        }
      ],
      "stateMutability": "view",
      "type": "function"
    },
    {
      "inputs": [],
      "name": "decimals",
      "outputs": [
        {
          "internalType": "uint8",
          "name": "",
          "type": "uint8"
        }
      ],
      "stateMutability": "view",
      "type": "function"
    },
    {
      "inputs": [
        {
          "internalType": "address",
          "name": "spender",
          "type": "address"
        },
        {
          "internalType": "uint256",
          "name": "subtractedValue",
          "type": "uint256"
        }
      ],
      "name": "decreaseAllowance",
      "outputs": [
        {
          "internalType": "bool",
          "name": "",
          "type": "bool"
        }
      ],
      "stateMutability": "nonpayable",
      "type": "function"
    },
    {
      "inputs": [
        {
          "internalType": "address",
          "name": "spender",
          "type": "address"
        },
        {
          "internalType": "uint256",
          "name": "addedValue",
          "type": "uint256"
        }
      ],
      "name": "increaseAllowance",
      "outputs": [
        {
          "internalType": "bool",
          "name": "",
          "type": "bool"
        }
      ],
      "stateMutability": "nonpayable",
      "type": "function"
    },
    {
      "inputs": [],
      "name": "name",
      "outputs": [
        {
          "internalType": "string",
          "name": "",
          "type": "string"
        }
      ],
      "stateMutability": "view",
      "type": "function"
    },
    {
      "inputs": [],
      "name": "owner",
      "outputs": [
        {
          "internalType": "address",
          "name": "",
          "type": "address"
        }
      ],
      "stateMutability": "view",
      "type": "function"
    },
    {
      "inputs": [],
      "name": "renounceOwnership",
      "outputs": [],
      "stateMutability": "nonpayable",
      "type": "function"
    },
    {
      "inputs": [],
      "name": "symbol",
      "outputs": [
        {
          "internalType": "string",
          "name": "",
          "type": "string"
        }
      ],
      "stateMutability": "view",
      "type": "function"
    },
    {
      "inputs": [],
      "name": "totalSupply",
      "outputs": [
        {
          "internalType": "uint256",
          "name": "",
          "type": "uint256"
        }
      ],
      "stateMutability": "view",
      "type": "function"
    },
    {
      "inputs": [
        {
          "internalType": "address",
          "name": "recipient",
          "type": "address"
        },
        {
          "internalType": "uint256",
          "name": "amount",
          "type": "uint256"
        }
      ],
      "name": "transfer",
      "outputs": [
        {
          "internalType": "bool",
          "name": "",
          "type": "bool"
        }
      ],
      "stateMutability": "nonpayable",
      "type": "function"
    },
    {
      "inputs": [
        {
          "internalType": "address",
          "name": "sender",
          "type": "address"
        },
        {
          "internalType": "address",
          "name": "recipient",
          "type": "address"
        },
        {
          "internalType": "uint256",
          "name": "amount",
          "type": "uint256"
        }
      ],
      "name": "transferFrom",
      "outputs": [
        {
          "internalType": "bool",
          "name": "",
          "type": "bool"
        }
      ],
      "stateMutability": "nonpayable",
      "type": "function"
    },
    {
      "inputs": [
        {
          "internalType": "address",
          "name": "newOwner",
          "type": "address"
        }
      ],
      "name": "transferOwnership",
      "outputs": [],
      "stateMutability": "nonpayable",
      "type": "function"
    },
    {
      "inputs": [
        {
          "internalType": "address",
          "name": "newSupplyController",
          "type": "address"
        }
      ],
      "name": "changeSupplyController",
      "outputs": [],
      "stateMutability": "nonpayable",
      "type": "function"
    },
    {
      "inputs": [],
      "name": "enableSupplyControl",
      "outputs": [],
      "stateMutability": "nonpayable",
      "type": "function"
    },
    {
      "inputs": [],
      "name": "disableSupplyControl",
      "outputs": [],
      "stateMutability": "nonpayable",
      "type": "function"
    },
    {
      "inputs": [
        {
          "internalType": "address",
          "name": "account",
          "type": "address"
        },
        {
          "internalType": "uint256",
          "name": "amount",
          "type": "uint256"
        }
      ],
      "name": "mint",
      "outputs": [],
      "stateMutability": "nonpayable",
      "type": "function"
    },
    {
      "inputs": [
        {
          "internalType": "address",
          "name": "account",
          "type": "address"
        },
        {
          "internalType": "uint256",
          "name": "amount",
          "type": "uint256"
        }
      ],
      "name": "burn",
      "outputs": [],
      "stateMutability": "nonpayable",
      "type": "function"
    }
  ],
  "bytecode": "0x60806040526000600560146101000a81548160ff0219169083151502179055503480156200002c57600080fd5b5060405162002bd738038062002bd78339818101604052810190620000529190620004a1565b6040518060400160405280600781526020017f5369676e617461000000000000000000000000000000000000000000000000008152506040518060400160405280600481526020017f53415441000000000000000000000000000000000000000000000000000000008152508160039080519060200190620000d6929190620003c3565b508060049080519060200190620000ef929190620003c3565b50505062000112620001066200017260201b60201c565b6200017a60201b60201c565b81600660006101000a81548173ffffffffffffffffffffffffffffffffffffffff021916908373ffffffffffffffffffffffffffffffffffffffff1602179055506200016a33826200024060201b62000f5e1760201c565b505062000701565b600033905090565b6000600560009054906101000a900473ffffffffffffffffffffffffffffffffffffffff16905081600560006101000a81548173ffffffffffffffffffffffffffffffffffffffff021916908373ffffffffffffffffffffffffffffffffffffffff1602179055508173ffffffffffffffffffffffffffffffffffffffff168173ffffffffffffffffffffffffffffffffffffffff167f8be0079c531659141344cd1fd0a4f28419497f9722a3daafe3b4186f6b6457e060405160405180910390a35050565b600073ffffffffffffffffffffffffffffffffffffffff168273ffffffffffffffffffffffffffffffffffffffff161415620002b3576040517f08c379a0000000000000000000000000000000000000000000000000000000008152600401620002aa9062000520565b60405180910390fd5b620002c760008383620003b960201b60201c565b8060026000828254620002db919062000570565b92505081905550806000808473ffffffffffffffffffffffffffffffffffffffff1673ffffffffffffffffffffffffffffffffffffffff168152602001908152602001600020600082825462000332919062000570565b925050819055508173ffffffffffffffffffffffffffffffffffffffff16600073ffffffffffffffffffffffffffffffffffffffff167fddf252ad1be2c89b69c2b068fc378daa952ba7f163c4a11628f55a4df523b3ef8360405162000399919062000542565b60405180910390a3620003b560008383620003be60201b60201c565b5050565b505050565b505050565b828054620003d1906200060b565b90600052602060002090601f016020900481019282620003f5576000855562000441565b82601f106200041057805160ff191683800117855562000441565b8280016001018555821562000441579182015b828111156200044057825182559160200191906001019062000423565b5b50905062000450919062000454565b5090565b5b808211156200046f57600081600090555060010162000455565b5090565b6000815190506200048481620006cd565b92915050565b6000815190506200049b81620006e7565b92915050565b60008060408385031215620004bb57620004ba6200069f565b5b6000620004cb8582860162000473565b9250506020620004de858286016200048a565b9150509250929050565b6000620004f7601f836200055f565b91506200050482620006a4565b602082019050919050565b6200051a8162000601565b82525050565b600060208201905081810360008301526200053b81620004e8565b9050919050565b60006020820190506200055960008301846200050f565b92915050565b600082825260208201905092915050565b60006200057d8262000601565b91506200058a8362000601565b9250827fffffffffffffffffffffffffffffffffffffffffffffffffffffffffffffffff03821115620005c257620005c162000641565b5b828201905092915050565b6000620005da82620005e1565b9050919050565b600073ffffffffffffffffffffffffffffffffffffffff82169050919050565b6000819050919050565b600060028204905060018216806200062457607f821691505b602082108114156200063b576200063a62000670565b5b50919050565b7f4e487b7100000000000000000000000000000000000000000000000000000000600052601160045260246000fd5b7f4e487b7100000000000000000000000000000000000000000000000000000000600052602260045260246000fd5b600080fd5b7f45524332303a206d696e7420746f20746865207a65726f206164647265737300600082015250565b620006d881620005cd565b8114620006e457600080fd5b50565b620006f28162000601565b8114620006fe57600080fd5b50565b6124c680620007116000396000f3fe608060405234801561001057600080fd5b50600436106101215760003560e01c8063715018a6116100ad578063a4012b2111610071578063a4012b21146102d2578063a457c2d7146102ee578063a9059cbb1461031e578063dd62ed3e1461034e578063f2fde38b1461037e57610121565b8063715018a6146102665780638da5cb5b1461027057806391f070141461028e57806395d89b41146102985780639dc29fac146102b657610121565b806323b872dd116100f457806323b872dd1461019c578063313ce567146101cc57806339509351146101ea57806340c10f191461021a57806370a082311461023657610121565b806306fdde0314610126578063095ea7b31461014457806318160ddd146101745780631883685414610192575b600080fd5b61012e61039a565b60405161013b9190611be1565b60405180910390f35b61015e600480360381019061015991906118a3565b61042c565b60405161016b9190611bc6565b60405180910390f35b61017c61044a565b6040516101899190611e23565b60405180910390f35b61019a610454565b005b6101b660048036038101906101b19190611850565b610588565b6040516101c39190611bc6565b60405180910390f35b6101d4610680565b6040516101e19190611e3e565b60405180910390f35b61020460048036038101906101ff91906118a3565b610689565b6040516102119190611bc6565b60405180910390f35b610234600480360381019061022f91906118a3565b610735565b005b610250600480360381019061024b91906117e3565b61080e565b60405161025d9190611e23565b60405180910390f35b61026e610856565b005b6102786108de565b6040516102859190611bab565b60405180910390f35b610296610908565b005b6102a0610a3d565b6040516102ad9190611be1565b60405180910390f35b6102d060048036038101906102cb91906118a3565b610acf565b005b6102ec60048036038101906102e791906117e3565b610ba8565b005b610308600480360381019061030391906118a3565b610cd6565b6040516103159190611bc6565b60405180910390f35b610338600480360381019061033391906118a3565b610dc1565b6040516103459190611bc6565b60405180910390f35b61036860048036038101906103639190611810565b610ddf565b6040516103759190611e23565b60405180910390f35b610398600480360381019061039391906117e3565b610e66565b005b6060600380546103a990611f87565b80601f01602080910402602001604051908101604052809291908181526020018280546103d590611f87565b80156104225780601f106103f757610100808354040283529160200191610422565b820191906000526020600020905b81548152906001019060200180831161040557829003601f168201915b5050505050905090565b60006104406104396110be565b84846110c6565b6001905092915050565b6000600254905090565b600660009054906101000a900473ffffffffffffffffffffffffffffffffffffffff1673ffffffffffffffffffffffffffffffffffffffff163373ffffffffffffffffffffffffffffffffffffffff16146104e4576040517f08c379a00000000000000000000000000000000000000000000000000000000081526004016104db90611cc3565b60405180910390fd5b600560149054906101000a900460ff16610533576040517f08c379a000000000000000000000000000000000000000000000000000000000815260040161052a90611d23565b60405180910390fd5b6000600560146101000a81548160ff0219169083151502179055507fb8575b2c487ad7764c6bc30729c74f222117054a1cf9ed4f5d51d71de4d27050600060405161057e9190611bc6565b60405180910390a1565b6000610595848484611291565b6000600160008673ffffffffffffffffffffffffffffffffffffffff1673ffffffffffffffffffffffffffffffffffffffff16815260200190815260200160002060006105e06110be565b73ffffffffffffffffffffffffffffffffffffffff1673ffffffffffffffffffffffffffffffffffffffff16815260200190815260200160002054905082811015610660576040517f08c379a000000000000000000000000000000000000000000000000000000000815260040161065790611ce3565b60405180910390fd5b6106748561066c6110be565b8584036110c6565b60019150509392505050565b60006012905090565b600061072b6106966110be565b8484600160006106a46110be565b73ffffffffffffffffffffffffffffffffffffffff1673ffffffffffffffffffffffffffffffffffffffff16815260200190815260200160002060008873ffffffffffffffffffffffffffffffffffffffff1673ffffffffffffffffffffffffffffffffffffffff168152602001908152602001600020546107269190611e75565b6110c6565b6001905092915050565b61073d6110be565b73ffffffffffffffffffffffffffffffffffffffff1661075b6108de565b73ffffffffffffffffffffffffffffffffffffffff16146107b1576040517f08c379a00000000000000000000000000000000000000000000000000000000081526004016107a890611d03565b60405180910390fd5b600560149054906101000a900460ff16610800576040517f08c379a00000000000000000000000000000000000000000000000000000000081526004016107f790611da3565b60405180910390fd5b61080a8282610f5e565b5050565b60008060008373ffffffffffffffffffffffffffffffffffffffff1673ffffffffffffffffffffffffffffffffffffffff168152602001908152602001600020549050919050565b61085e6110be565b73ffffffffffffffffffffffffffffffffffffffff1661087c6108de565b73ffffffffffffffffffffffffffffffffffffffff16146108d2576040517f08c379a00000000000000000000000000000000000000000000000000000000081526004016108c990611d03565b60405180910390fd5b6108dc6000611512565b565b6000600560009054906101000a900473ffffffffffffffffffffffffffffffffffffffff16905090565b600660009054906101000a900473ffffffffffffffffffffffffffffffffffffffff1673ffffffffffffffffffffffffffffffffffffffff163373ffffffffffffffffffffffffffffffffffffffff1614610998576040517f08c379a000000000000000000000000000000000000000000000000000000000815260040161098f90611cc3565b60405180910390fd5b600560149054906101000a900460ff16156109e8576040517f08c379a00000000000000000000000000000000000000000000000000000000081526004016109df90611e03565b60405180910390fd5b6001600560146101000a81548160ff0219169083151502179055507fb8575b2c487ad7764c6bc30729c74f222117054a1cf9ed4f5d51d71de4d270506001604051610a339190611bc6565b60405180910390a1565b606060048054610a4c90611f87565b80601f0160208091040260200160405190810160405280929190818152602001828054610a7890611f87565b8015610ac55780601f10610a9a57610100808354040283529160200191610ac5565b820191906000526020600020905b815481529060010190602001808311610aa857829003601f168201915b5050505050905090565b610ad76110be565b73ffffffffffffffffffffffffffffffffffffffff16610af56108de565b73ffffffffffffffffffffffffffffffffffffffff1614610b4b576040517f08c379a0000000000000000000000000000000000000000000000000000000008152600401610b4290611d03565b60405180910390fd5b600560149054906101000a900460ff16610b9a576040517f08c379a0000000000000000000000000000000000000000000000000000000008152600401610b9190611da3565b60405180910390fd5b610ba482826115d8565b5050565b600660009054906101000a900473ffffffffffffffffffffffffffffffffffffffff1673ffffffffffffffffffffffffffffffffffffffff163373ffffffffffffffffffffffffffffffffffffffff1614610c38576040517f08c379a0000000000000000000000000000000000000000000000000000000008152600401610c2f90611ca3565b60405180910390fd5b80600660006101000a81548173ffffffffffffffffffffffffffffffffffffffff021916908373ffffffffffffffffffffffffffffffffffffffff1602179055508073ffffffffffffffffffffffffffffffffffffffff163373ffffffffffffffffffffffffffffffffffffffff167fa0c3b07e87149049c5705737ef1ab211dc9f921e780e4ac44789f521e4d15edd60405160405180910390a350565b60008060016000610ce56110be565b73ffffffffffffffffffffffffffffffffffffffff1673ffffffffffffffffffffffffffffffffffffffff16815260200190815260200160002060008573ffffffffffffffffffffffffffffffffffffffff1673ffffffffffffffffffffffffffffffffffffffff16815260200190815260200160002054905082811015610da2576040517f08c379a0000000000000000000000000000000000000000000000000000000008152600401610d9990611dc3565b60405180910390fd5b610db6610dad6110be565b858584036110c6565b600191505092915050565b6000610dd5610dce6110be565b8484611291565b6001905092915050565b6000600160008473ffffffffffffffffffffffffffffffffffffffff1673ffffffffffffffffffffffffffffffffffffffff16815260200190815260200160002060008373ffffffffffffffffffffffffffffffffffffffff1673ffffffffffffffffffffffffffffffffffffffff16815260200190815260200160002054905092915050565b610e6e6110be565b73ffffffffffffffffffffffffffffffffffffffff16610e8c6108de565b73ffffffffffffffffffffffffffffffffffffffff1614610ee2576040517f08c379a0000000000000000000000000000000000000000000000000000000008152600401610ed990611d03565b60405180910390fd5b600073ffffffffffffffffffffffffffffffffffffffff168173ffffffffffffffffffffffffffffffffffffffff161415610f52576040517f08c379a0000000000000000000000000000000000000000000000000000000008152600401610f4990611c43565b60405180910390fd5b610f5b81611512565b50565b600073ffffffffffffffffffffffffffffffffffffffff168273ffffffffffffffffffffffffffffffffffffffff161415610fce576040517f08c379a0000000000000000000000000000000000000000000000000000000008152600401610fc590611de3565b60405180910390fd5b610fda600083836117af565b8060026000828254610fec9190611e75565b92505081905550806000808473ffffffffffffffffffffffffffffffffffffffff1673ffffffffffffffffffffffffffffffffffffffff16815260200190815260200160002060008282546110419190611e75565b925050819055508173ffffffffffffffffffffffffffffffffffffffff16600073ffffffffffffffffffffffffffffffffffffffff167fddf252ad1be2c89b69c2b068fc378daa952ba7f163c4a11628f55a4df523b3ef836040516110a69190611e23565b60405180910390a36110ba600083836117b4565b5050565b600033905090565b600073ffffffffffffffffffffffffffffffffffffffff168373ffffffffffffffffffffffffffffffffffffffff161415611136576040517f08c379a000000000000000000000000000000000000000000000000000000000815260040161112d90611d83565b60405180910390fd5b600073ffffffffffffffffffffffffffffffffffffffff168273ffffffffffffffffffffffffffffffffffffffff1614156111a6576040517f08c379a000000000000000000000000000000000000000000000000000000000815260040161119d90611c63565b60405180910390fd5b80600160008573ffffffffffffffffffffffffffffffffffffffff1673ffffffffffffffffffffffffffffffffffffffff16815260200190815260200160002060008473ffffffffffffffffffffffffffffffffffffffff1673ffffffffffffffffffffffffffffffffffffffff168152602001908152602001600020819055508173ffffffffffffffffffffffffffffffffffffffff168373ffffffffffffffffffffffffffffffffffffffff167f8c5be1e5ebec7d5bd14f71427d1e84f3dd0314c0f7b2291e5b200ac8c7c3b925836040516112849190611e23565b60405180910390a3505050565b600073ffffffffffffffffffffffffffffffffffffffff168373ffffffffffffffffffffffffffffffffffffffff161415611301576040517f08c379a00000000000000000000000000000000000000000000000000000000081526004016112f890611d63565b60405180910390fd5b600073ffffffffffffffffffffffffffffffffffffffff168273ffffffffffffffffffffffffffffffffffffffff161415611371576040517f08c379a000000000000000000000000000000000000000000000000000000000815260040161136890611c03565b60405180910390fd5b61137c8383836117af565b60008060008573ffffffffffffffffffffffffffffffffffffffff1673ffffffffffffffffffffffffffffffffffffffff16815260200190815260200160002054905081811015611402576040517f08c379a00000000000000000000000000000000000000000000000000000000081526004016113f990611c83565b60405180910390fd5b8181036000808673ffffffffffffffffffffffffffffffffffffffff1673ffffffffffffffffffffffffffffffffffffffff16815260200190815260200160002081905550816000808573ffffffffffffffffffffffffffffffffffffffff1673ffffffffffffffffffffffffffffffffffffffff16815260200190815260200160002060008282546114959190611e75565b925050819055508273ffffffffffffffffffffffffffffffffffffffff168473ffffffffffffffffffffffffffffffffffffffff167fddf252ad1be2c89b69c2b068fc378daa952ba7f163c4a11628f55a4df523b3ef846040516114f99190611e23565b60405180910390a361150c8484846117b4565b50505050565b6000600560009054906101000a900473ffffffffffffffffffffffffffffffffffffffff16905081600560006101000a81548173ffffffffffffffffffffffffffffffffffffffff021916908373ffffffffffffffffffffffffffffffffffffffff1602179055508173ffffffffffffffffffffffffffffffffffffffff168173ffffffffffffffffffffffffffffffffffffffff167f8be0079c531659141344cd1fd0a4f28419497f9722a3daafe3b4186f6b6457e060405160405180910390a35050565b600073ffffffffffffffffffffffffffffffffffffffff168273ffffffffffffffffffffffffffffffffffffffff161415611648576040517f08c379a000000000000000000000000000000000000000000000000000000000815260040161163f90611d43565b60405180910390fd5b611654826000836117af565b60008060008473ffffffffffffffffffffffffffffffffffffffff1673ffffffffffffffffffffffffffffffffffffffff168152602001908152602001600020549050818110156116da576040517f08c379a00000000000000000000000000000000000000000000000000000000081526004016116d190611c23565b60405180910390fd5b8181036000808573ffffffffffffffffffffffffffffffffffffffff1673ffffffffffffffffffffffffffffffffffffffff1681526020019081526020016000208190555081600260008282546117319190611ecb565b92505081905550600073ffffffffffffffffffffffffffffffffffffffff168373ffffffffffffffffffffffffffffffffffffffff167fddf252ad1be2c89b69c2b068fc378daa952ba7f163c4a11628f55a4df523b3ef846040516117969190611e23565b60405180910390a36117aa836000846117b4565b505050565b505050565b505050565b6000813590506117c881612462565b92915050565b6000813590506117dd81612479565b92915050565b6000602082840312156117f9576117f8612017565b5b6000611807848285016117b9565b91505092915050565b6000806040838503121561182757611826612017565b5b6000611835858286016117b9565b9250506020611846858286016117b9565b9150509250929050565b60008060006060848603121561186957611868612017565b5b6000611877868287016117b9565b9350506020611888868287016117b9565b9250506040611899868287016117ce565b9150509250925092565b600080604083850312156118ba576118b9612017565b5b60006118c8858286016117b9565b92505060206118d9858286016117ce565b9150509250929050565b6118ec81611eff565b82525050565b6118fb81611f11565b82525050565b600061190c82611e59565b6119168185611e64565b9350611926818560208601611f54565b61192f8161201c565b840191505092915050565b6000611947602383611e64565b91506119528261202d565b604082019050919050565b600061196a602283611e64565b91506119758261207c565b604082019050919050565b600061198d602683611e64565b9150611998826120cb565b604082019050919050565b60006119b0602283611e64565b91506119bb8261211a565b604082019050919050565b60006119d3602683611e64565b91506119de82612169565b604082019050919050565b60006119f6600f83611e64565b9150611a01826121b8565b602082019050919050565b6000611a19601683611e64565b9150611a24826121e1565b602082019050919050565b6000611a3c602883611e64565b9150611a478261220a565b604082019050919050565b6000611a5f602083611e64565b9150611a6a82612259565b602082019050919050565b6000611a82602083611e64565b9150611a8d82612282565b602082019050919050565b6000611aa5602183611e64565b9150611ab0826122ab565b604082019050919050565b6000611ac8602583611e64565b9150611ad3826122fa565b604082019050919050565b6000611aeb602483611e64565b9150611af682612349565b604082019050919050565b6000611b0e601883611e64565b9150611b1982612398565b602082019050919050565b6000611b31602583611e64565b9150611b3c826123c1565b604082019050919050565b6000611b54601f83611e64565b9150611b5f82612410565b602082019050919050565b6000611b77601f83611e64565b9150611b8282612439565b602082019050919050565b611b9681611f3d565b82525050565b611ba581611f47565b82525050565b6000602082019050611bc060008301846118e3565b92915050565b6000602082019050611bdb60008301846118f2565b92915050565b60006020820190508181036000830152611bfb8184611901565b905092915050565b60006020820190508181036000830152611c1c8161193a565b9050919050565b60006020820190508181036000830152611c3c8161195d565b9050919050565b60006020820190508181036000830152611c5c81611980565b9050919050565b60006020820190508181036000830152611c7c816119a3565b9050919050565b60006020820190508181036000830152611c9c816119c6565b9050919050565b60006020820190508181036000830152611cbc816119e9565b9050919050565b60006020820190508181036000830152611cdc81611a0c565b9050919050565b60006020820190508181036000830152611cfc81611a2f565b9050919050565b60006020820190508181036000830152611d1c81611a52565b9050919050565b60006020820190508181036000830152611d3c81611a75565b9050919050565b60006020820190508181036000830152611d5c81611a98565b9050919050565b60006020820190508181036000830152611d7c81611abb565b9050919050565b60006020820190508181036000830152611d9c81611ade565b9050919050565b60006020820190508181036000830152611dbc81611b01565b9050919050565b60006020820190508181036000830152611ddc81611b24565b9050919050565b60006020820190508181036000830152611dfc81611b47565b9050919050565b60006020820190508181036000830152611e1c81611b6a565b9050919050565b6000602082019050611e386000830184611b8d565b92915050565b6000602082019050611e536000830184611b9c565b92915050565b600081519050919050565b600082825260208201905092915050565b6000611e8082611f3d565b9150611e8b83611f3d565b9250827fffffffffffffffffffffffffffffffffffffffffffffffffffffffffffffffff03821115611ec057611ebf611fb9565b5b828201905092915050565b6000611ed682611f3d565b9150611ee183611f3d565b925082821015611ef457611ef3611fb9565b5b828203905092915050565b6000611f0a82611f1d565b9050919050565b60008115159050919050565b600073ffffffffffffffffffffffffffffffffffffffff82169050919050565b6000819050919050565b600060ff82169050919050565b60005b83811015611f72578082015181840152602081019050611f57565b83811115611f81576000848401525b50505050565b60006002820490506001821680611f9f57607f821691505b60208210811415611fb357611fb2611fe8565b5b50919050565b7f4e487b7100000000000000000000000000000000000000000000000000000000600052601160045260246000fd5b7f4e487b7100000000000000000000000000000000000000000000000000000000600052602260045260246000fd5b600080fd5b6000601f19601f8301169050919050565b7f45524332303a207472616e7366657220746f20746865207a65726f206164647260008201527f6573730000000000000000000000000000000000000000000000000000000000602082015250565b7f45524332303a206275726e20616d6f756e7420657863656564732062616c616e60008201527f6365000000000000000000000000000000000000000000000000000000000000602082015250565b7f4f776e61626c653a206e6577206f776e657220697320746865207a65726f206160008201527f6464726573730000000000000000000000000000000000000000000000000000602082015250565b7f45524332303a20617070726f766520746f20746865207a65726f20616464726560008201527f7373000000000000000000000000000000000000000000000000000000000000602082015250565b7f45524332303a207472616e7366657220616d6f756e742065786365656473206260008201527f616c616e63650000000000000000000000000000000000000000000000000000602082015250565b7f4e6f7420417574686f72697a65642e0000000000000000000000000000000000600082015250565b7f4e6f7420537570706c7920436f6e74726f6c6c65722e00000000000000000000600082015250565b7f45524332303a207472616e7366657220616d6f756e742065786365656473206160008201527f6c6c6f77616e6365000000000000000000000000000000000000000000000000602082015250565b7f4f776e61626c653a2063616c6c6572206973206e6f7420746865206f776e6572600082015250565b7f537570706c7920436f6e74726f6c20416c72656164792044697361626c65642e600082015250565b7f45524332303a206275726e2066726f6d20746865207a65726f2061646472657360008201527f7300000000000000000000000000000000000000000000000000000000000000602082015250565b7f45524332303a207472616e736665722066726f6d20746865207a65726f20616460008201527f6472657373000000000000000000000000000000000000000000000000000000602082015250565b7f45524332303a20617070726f76652066726f6d20746865207a65726f2061646460008201527f7265737300000000000000000000000000000000000000000000000000000000602082015250565b7f537570706c7920436f6e74726f6c2044697361626c65642e0000000000000000600082015250565b7f45524332303a2064656372656173656420616c6c6f77616e63652062656c6f7760008201527f207a65726f000000000000000000000000000000000000000000000000000000602082015250565b7f45524332303a206d696e7420746f20746865207a65726f206164647265737300600082015250565b7f537570706c7920436f6e74726f6c20416c726561647920456e61626c65642e00600082015250565b61246b81611eff565b811461247657600080fd5b50565b61248281611f3d565b811461248d57600080fd5b5056fea264697066735822122091a14018a3bb3b3f4b1a78e5781b45f1ed8a5927daa5848ec42e59796516ec0f64736f6c63430008070033",
  "immutableReferences": {},
  "source": "// SPDX-License-Identifier: MIT\r\npragma solidity 0.8.7;\r\n\r\nimport \"@openzeppelin/contracts/token/ERC20/ERC20.sol\";\r\nimport \"@openzeppelin/contracts/access/Ownable.sol\";\r\n\r\ncontract TokenDynamic is ERC20, Ownable {\r\n  bool private supplyControlEnabled = false;\r\n  address private supplyController;\r\n\r\n  event SupplyControlChanged(bool changedTo);\r\n  event SupplyControllerChanged(address indexed oldController, address indexed newController);\r\n\r\n  constructor(address supplyController_, uint256 initialSupply)\r\n    ERC20(\"Signata\", \"SATA\")\r\n  {\r\n    supplyController = supplyController_;\r\n    super._mint(msg.sender, initialSupply);\r\n  }\r\n\r\n  function changeSupplyController(address newSupplyController) public virtual {\r\n    require(msg.sender == supplyController, \"Not Authorized.\");\r\n\r\n    supplyController = newSupplyController;\r\n\r\n    emit SupplyControllerChanged(msg.sender, newSupplyController);\r\n  }\r\n\r\n  function enableSupplyControl() public virtual {\r\n    require(msg.sender == supplyController, \"Not Supply Controller.\");\r\n    require(!supplyControlEnabled, \"Supply Control Already Enabled.\");\r\n\r\n    supplyControlEnabled = true;\r\n\r\n    emit SupplyControlChanged(true);\r\n  }\r\n\r\n  function disableSupplyControl() public virtual {\r\n    require(msg.sender == supplyController, \"Not Supply Controller.\");\r\n    require(supplyControlEnabled, \"Supply Control Already Disabled.\");\r\n\r\n    supplyControlEnabled = false;\r\n    \r\n    emit SupplyControlChanged(false);\r\n  }\r\n\r\n  function mint(address account, uint256 amount) public virtual onlyOwner {\r\n    require(supplyControlEnabled, \"Supply Control Disabled.\");\r\n\r\n    super._mint(account, amount);\r\n  }\r\n\r\n  function burn(address account, uint256 amount) public virtual onlyOwner {\r\n    require(supplyControlEnabled, \"Supply Control Disabled.\");\r\n\r\n    super._burn(account, amount);\r\n  }\r\n}\r\n",
  "sourcePath": "C:\\Users\\tim\\Projects\\GitHub\\sata-contracts-v1\\contracts\\TokenDynamic.sol",
  "compiler": {
    "name": "solc",
    "version": "0.8.7+commit.e28d00a7.Emscripten.clang"
  },
  "schemaVersion": "3.4.3",
  "updatedAt": "2021-09-16T15:29:42.945Z",
  "devdoc": {
    "kind": "dev",
    "methods": {
      "allowance(address,address)": {
        "details": "See {IERC20-allowance}."
      },
      "approve(address,uint256)": {
        "details": "See {IERC20-approve}. Requirements: - `spender` cannot be the zero address."
      },
      "balanceOf(address)": {
        "details": "See {IERC20-balanceOf}."
      },
      "decimals()": {
        "details": "Returns the number of decimals used to get its user representation. For example, if `decimals` equals `2`, a balance of `505` tokens should be displayed to a user as `5.05` (`505 / 10 ** 2`). Tokens usually opt for a value of 18, imitating the relationship between Ether and Wei. This is the value {ERC20} uses, unless this function is overridden; NOTE: This information is only used for _display_ purposes: it in no way affects any of the arithmetic of the contract, including {IERC20-balanceOf} and {IERC20-transfer}."
      },
      "decreaseAllowance(address,uint256)": {
        "details": "Atomically decreases the allowance granted to `spender` by the caller. This is an alternative to {approve} that can be used as a mitigation for problems described in {IERC20-approve}. Emits an {Approval} event indicating the updated allowance. Requirements: - `spender` cannot be the zero address. - `spender` must have allowance for the caller of at least `subtractedValue`."
      },
      "increaseAllowance(address,uint256)": {
        "details": "Atomically increases the allowance granted to `spender` by the caller. This is an alternative to {approve} that can be used as a mitigation for problems described in {IERC20-approve}. Emits an {Approval} event indicating the updated allowance. Requirements: - `spender` cannot be the zero address."
      },
      "name()": {
        "details": "Returns the name of the token."
      },
      "owner()": {
        "details": "Returns the address of the current owner."
      },
      "renounceOwnership()": {
        "details": "Leaves the contract without owner. It will not be possible to call `onlyOwner` functions anymore. Can only be called by the current owner. NOTE: Renouncing ownership will leave the contract without an owner, thereby removing any functionality that is only available to the owner."
      },
      "symbol()": {
        "details": "Returns the symbol of the token, usually a shorter version of the name."
      },
      "totalSupply()": {
        "details": "See {IERC20-totalSupply}."
      },
      "transfer(address,uint256)": {
        "details": "See {IERC20-transfer}. Requirements: - `recipient` cannot be the zero address. - the caller must have a balance of at least `amount`."
      },
      "transferFrom(address,address,uint256)": {
        "details": "See {IERC20-transferFrom}. Emits an {Approval} event indicating the updated allowance. This is not required by the EIP. See the note at the beginning of {ERC20}. Requirements: - `sender` and `recipient` cannot be the zero address. - `sender` must have a balance of at least `amount`. - the caller must have allowance for ``sender``'s tokens of at least `amount`."
      },
      "transferOwnership(address)": {
        "details": "Transfers ownership of the contract to a new account (`newOwner`). Can only be called by the current owner."
      }
    },
    "version": 1
  },
  "userdoc": {
    "kind": "user",
    "methods": {},
    "version": 1
  }
}